{
	"contracts/contractApi.sol": {
		"SmartContract": {
			"abi": [
				{
					"inputs": [],
					"stateMutability": "nonpayable",
					"type": "constructor"
				},
				{
					"anonymous": false,
					"inputs": [
						{
							"indexed": false,
							"internalType": "string",
							"name": "message",
							"type": "string"
						},
						{
							"indexed": false,
							"internalType": "address",
							"name": "_address",
							"type": "address"
						}
					],
					"name": "log",
					"type": "event"
				},
				{
					"stateMutability": "payable",
					"type": "fallback"
				},
				{
					"inputs": [],
					"name": "balance",
					"outputs": [
						{
							"internalType": "uint256",
							"name": "",
							"type": "uint256"
						}
					],
					"stateMutability": "view",
					"type": "function"
				},
				{
					"inputs": [
						{
							"internalType": "uint256",
							"name": "_id",
							"type": "uint256"
						},
						{
							"internalType": "address",
							"name": "_renterAddress",
							"type": "address"
						},
						{
							"internalType": "address",
							"name": "_sellerAdsress",
							"type": "address"
						},
						{
							"internalType": "uint256",
							"name": "_rentCost",
							"type": "uint256"
						},
						{
							"internalType": "uint32",
							"name": "_duration",
							"type": "uint32"
						},
						{
							"internalType": "uint32",
							"name": "_timeStart",
							"type": "uint32"
						},
						{
							"internalType": "uint32",
							"name": "_paymentDeadline",
							"type": "uint32"
						},
						{
							"internalType": "string",
							"name": "_payment_type",
							"type": "string"
						},
						{
							"components": [
								{
									"internalType": "string",
									"name": "name",
									"type": "string"
								},
								{
									"internalType": "string",
									"name": "content",
									"type": "string"
								}
							],
							"internalType": "struct SmartContract.Term[]",
							"name": "_termArray",
							"type": "tuple[]"
						}
					],
					"name": "createSmartContract",
					"outputs": [],
					"stateMutability": "nonpayable",
					"type": "function"
				},
				{
					"inputs": [],
					"name": "getAddressContract",
					"outputs": [
						{
							"internalType": "uint256",
							"name": "",
							"type": "uint256"
						}
					],
					"stateMutability": "view",
					"type": "function"
				},
				{
					"inputs": [],
					"name": "getAllSmartContracts",
					"outputs": [
						{
							"components": [
								{
									"internalType": "uint256",
									"name": "id",
									"type": "uint256"
								},
								{
									"internalType": "address",
									"name": "renter",
									"type": "address"
								},
								{
									"internalType": "address",
									"name": "seller",
									"type": "address"
								},
								{
									"internalType": "uint256",
									"name": "rentCost",
									"type": "uint256"
								},
								{
									"internalType": "uint32",
									"name": "duration",
									"type": "uint32"
								},
								{
									"internalType": "uint32",
									"name": "timeStart",
									"type": "uint32"
								},
								{
									"internalType": "uint32",
									"name": "paymentDeadline",
									"type": "uint32"
								},
								{
									"internalType": "string",
									"name": "payment_type",
									"type": "string"
								},
								{
									"components": [
										{
											"internalType": "string",
											"name": "name",
											"type": "string"
										},
										{
											"internalType": "string",
											"name": "content",
											"type": "string"
										}
									],
									"internalType": "struct SmartContract.Term[]",
									"name": "termArray",
									"type": "tuple[]"
								}
							],
							"internalType": "struct SmartContract.ContractEntity[]",
							"name": "",
							"type": "tuple[]"
						}
					],
					"stateMutability": "view",
					"type": "function"
				},
				{
					"inputs": [],
					"name": "getContractBalance",
					"outputs": [
						{
							"internalType": "uint256",
							"name": "",
							"type": "uint256"
						}
					],
					"stateMutability": "view",
					"type": "function"
				},
				{
					"inputs": [],
					"name": "getMe",
					"outputs": [
						{
							"internalType": "address",
							"name": "",
							"type": "address"
						}
					],
					"stateMutability": "view",
					"type": "function"
				},
				{
					"inputs": [
						{
							"internalType": "uint256",
							"name": "_id",
							"type": "uint256"
						}
					],
					"name": "getSmartContractById",
					"outputs": [
						{
							"components": [
								{
									"internalType": "uint256",
									"name": "id",
									"type": "uint256"
								},
								{
									"internalType": "address",
									"name": "renter",
									"type": "address"
								},
								{
									"internalType": "address",
									"name": "seller",
									"type": "address"
								},
								{
									"internalType": "uint256",
									"name": "rentCost",
									"type": "uint256"
								},
								{
									"internalType": "uint32",
									"name": "duration",
									"type": "uint32"
								},
								{
									"internalType": "uint32",
									"name": "timeStart",
									"type": "uint32"
								},
								{
									"internalType": "uint32",
									"name": "paymentDeadline",
									"type": "uint32"
								},
								{
									"internalType": "string",
									"name": "payment_type",
									"type": "string"
								},
								{
									"components": [
										{
											"internalType": "string",
											"name": "name",
											"type": "string"
										},
										{
											"internalType": "string",
											"name": "content",
											"type": "string"
										}
									],
									"internalType": "struct SmartContract.Term[]",
									"name": "termArray",
									"type": "tuple[]"
								}
							],
							"internalType": "struct SmartContract.ContractEntity",
							"name": "",
							"type": "tuple"
						}
					],
					"stateMutability": "view",
					"type": "function"
				},
				{
					"inputs": [
						{
							"internalType": "address payable",
							"name": "_to",
							"type": "address"
						},
						{
							"internalType": "uint256",
							"name": "amount",
							"type": "uint256"
						}
					],
					"name": "transferETH",
					"outputs": [],
					"stateMutability": "payable",
					"type": "function"
				},
				{
					"stateMutability": "payable",
					"type": "receive"
				}
			],
			"devdoc": {
				"kind": "dev",
				"methods": {},
				"version": 1
			},
			"evm": {
				"assembly": "    /* \"contracts/contractApi.sol\":64:3535  contract SmartContract {... */\n  mstore(0x40, 0x80)\n    /* \"contracts/contractApi.sol\":765:823  constructor() {... */\n  callvalue\n  dup1\n  iszero\n  tag_1\n  jumpi\n  0x00\n  dup1\n  revert\ntag_1:\n  pop\n    /* \"contracts/contractApi.sol\":805:815  msg.sender */\n  caller\n    /* \"contracts/contractApi.sol\":789:794  owner */\n  0x04\n  0x00\n    /* \"contracts/contractApi.sol\":789:816  owner = payable(msg.sender) */\n  0x0100\n  exp\n  dup2\n  sload\n  dup2\n  0xffffffffffffffffffffffffffffffffffffffff\n  mul\n  not\n  and\n  swap1\n  dup4\n  0xffffffffffffffffffffffffffffffffffffffff\n  and\n  mul\n  or\n  swap1\n  sstore\n  pop\n    /* \"contracts/contractApi.sol\":64:3535  contract SmartContract {... */\n  dataSize(sub_0)\n  dup1\n  dataOffset(sub_0)\n  0x00\n  codecopy\n  0x00\n  return\nstop\n\nsub_0: assembly {\n        /* \"contracts/contractApi.sol\":64:3535  contract SmartContract {... */\n      mstore(0x40, 0x80)\n      jumpi(tag_1, lt(calldatasize, 0x04))\n      shr(0xe0, calldataload(0x00))\n      dup1\n      0xb69ef8a8\n      gt\n      tag_11\n      jumpi\n      dup1\n      0xb69ef8a8\n      eq\n      tag_7\n      jumpi\n      dup1\n      0xc11e1ff3\n      eq\n      tag_8\n      jumpi\n      dup1\n      0xc85d1487\n      eq\n      tag_9\n      jumpi\n      dup1\n      0xf8aff5f4\n      eq\n      tag_10\n      jumpi\n      jump(tag_2)\n    tag_11:\n      dup1\n      0x127ff22e\n      eq\n      tag_3\n      jumpi\n      dup1\n      0x6da80b7f\n      eq\n      tag_4\n      jumpi\n      dup1\n      0x6f9fb98a\n      eq\n      tag_5\n      jumpi\n      dup1\n      0x7b1a4909\n      eq\n      tag_6\n      jumpi\n      jump(tag_2)\n    tag_1:\n      jumpi(tag_2, calldatasize)\n        /* \"contracts/contractApi.sol\":1013:1053  log(\"Recieve receive token\", msg.sender) */\n      0x319af333460570a1937bf195dd33445c0d0951c59127da6f1f038b9fdce3fd72\n        /* \"contracts/contractApi.sol\":1042:1052  msg.sender */\n      caller\n        /* \"contracts/contractApi.sol\":1013:1053  log(\"Recieve receive token\", msg.sender) */\n      mload(0x40)\n      tag_14\n      swap2\n      swap1\n      tag_15\n      jump\t// in\n    tag_14:\n      mload(0x40)\n      dup1\n      swap2\n      sub\n      swap1\n      log1\n        /* \"contracts/contractApi.sol\":64:3535  contract SmartContract {... */\n      stop\n    tag_2:\n        /* \"contracts/contractApi.sol\":872:913  log(\"Recieve fallback token\", msg.sender) */\n      0x319af333460570a1937bf195dd33445c0d0951c59127da6f1f038b9fdce3fd72\n        /* \"contracts/contractApi.sol\":902:912  msg.sender */\n      caller\n        /* \"contracts/contractApi.sol\":872:913  log(\"Recieve fallback token\", msg.sender) */\n      mload(0x40)\n      tag_18\n      swap2\n      swap1\n      tag_19\n      jump\t// in\n    tag_18:\n      mload(0x40)\n      dup1\n      swap2\n      sub\n      swap1\n      log1\n        /* \"contracts/contractApi.sol\":923:958  updatePerson(msg.sender, msg.value) */\n      tag_20\n        /* \"contracts/contractApi.sol\":936:946  msg.sender */\n      caller\n        /* \"contracts/contractApi.sol\":948:957  msg.value */\n      callvalue\n        /* \"contracts/contractApi.sol\":923:935  updatePerson */\n      tag_21\n        /* \"contracts/contractApi.sol\":923:958  updatePerson(msg.sender, msg.value) */\n      jump\t// in\n    tag_20:\n        /* \"contracts/contractApi.sol\":64:3535  contract SmartContract {... */\n      stop\n        /* \"contracts/contractApi.sol\":3079:3224  function getAllSmartContracts()... */\n    tag_3:\n      callvalue\n      dup1\n      iszero\n      tag_22\n      jumpi\n      0x00\n      dup1\n      revert\n    tag_22:\n      pop\n      tag_23\n      tag_24\n      jump\t// in\n    tag_23:\n      mload(0x40)\n      tag_25\n      swap2\n      swap1\n      tag_26\n      jump\t// in\n    tag_25:\n      mload(0x40)\n      dup1\n      swap2\n      sub\n      swap1\n      return\n        /* \"contracts/contractApi.sol\":1499:2749  function createSmartContract(... */\n    tag_4:\n      callvalue\n      dup1\n      iszero\n      tag_27\n      jumpi\n      0x00\n      dup1\n      revert\n    tag_27:\n      pop\n      tag_28\n      0x04\n      dup1\n      calldatasize\n      sub\n      dup2\n      add\n      swap1\n      tag_29\n      swap2\n      swap1\n      tag_30\n      jump\t// in\n    tag_29:\n      tag_31\n      jump\t// in\n    tag_28:\n      stop\n        /* \"contracts/contractApi.sol\":3429:3533  function getContractBalance() external view returns (uint) {... */\n    tag_5:\n      callvalue\n      dup1\n      iszero\n      tag_32\n      jumpi\n      0x00\n      dup1\n      revert\n    tag_32:\n      pop\n      tag_33\n      tag_34\n      jump\t// in\n    tag_33:\n      mload(0x40)\n      tag_35\n      swap2\n      swap1\n      tag_36\n      jump\t// in\n    tag_35:\n      mload(0x40)\n      dup1\n      swap2\n      sub\n      swap1\n      return\n        /* \"contracts/contractApi.sol\":2961:3073  function transferETH(address payable _to, uint256 amount) external payable {... */\n    tag_6:\n      tag_37\n      0x04\n      dup1\n      calldatasize\n      sub\n      dup2\n      add\n      swap1\n      tag_38\n      swap2\n      swap1\n      tag_39\n      jump\t// in\n    tag_38:\n      tag_40\n      jump\t// in\n    tag_37:\n      stop\n        /* \"contracts/contractApi.sol\":739:758  uint public balance */\n    tag_7:\n      callvalue\n      dup1\n      iszero\n      tag_41\n      jumpi\n      0x00\n      dup1\n      revert\n    tag_41:\n      pop\n      tag_42\n      tag_43\n      jump\t// in\n    tag_42:\n      mload(0x40)\n      tag_44\n      swap2\n      swap1\n      tag_36\n      jump\t// in\n    tag_44:\n      mload(0x40)\n      dup1\n      swap2\n      sub\n      swap1\n      return\n        /* \"contracts/contractApi.sol\":3230:3313  function getMe() external view returns (address) {... */\n    tag_8:\n      callvalue\n      dup1\n      iszero\n      tag_45\n      jumpi\n      0x00\n      dup1\n      revert\n    tag_45:\n      pop\n      tag_46\n      tag_47\n      jump\t// in\n    tag_46:\n      mload(0x40)\n      tag_48\n      swap2\n      swap1\n      tag_49\n      jump\t// in\n    tag_48:\n      mload(0x40)\n      dup1\n      swap2\n      sub\n      swap1\n      return\n        /* \"contracts/contractApi.sol\":2755:2955  function getSmartContractById(... */\n    tag_9:\n      callvalue\n      dup1\n      iszero\n      tag_50\n      jumpi\n      0x00\n      dup1\n      revert\n    tag_50:\n      pop\n      tag_51\n      0x04\n      dup1\n      calldatasize\n      sub\n      dup2\n      add\n      swap1\n      tag_52\n      swap2\n      swap1\n      tag_53\n      jump\t// in\n    tag_52:\n      tag_54\n      jump\t// in\n    tag_51:\n      mload(0x40)\n      tag_55\n      swap2\n      swap1\n      tag_56\n      jump\t// in\n    tag_55:\n      mload(0x40)\n      dup1\n      swap2\n      sub\n      swap1\n      return\n        /* \"contracts/contractApi.sol\":3319:3423  function getAddressContract() external view returns (uint) {... */\n    tag_10:\n      callvalue\n      dup1\n      iszero\n      tag_57\n      jumpi\n      0x00\n      dup1\n      revert\n    tag_57:\n      pop\n      tag_58\n      tag_59\n      jump\t// in\n    tag_58:\n      mload(0x40)\n      tag_60\n      swap2\n      swap1\n      tag_36\n      jump\t// in\n    tag_60:\n      mload(0x40)\n      dup1\n      swap2\n      sub\n      swap1\n      return\n        /* \"contracts/contractApi.sol\":1066:1410  function updatePerson(address sender, uint amount) private {... */\n    tag_21:\n        /* \"contracts/contractApi.sol\":1179:1182  0x0 */\n      0x00\n        /* \"contracts/contractApi.sol\":1138:1183  persons[sender].addressWallet != address(0x0) */\n      0xffffffffffffffffffffffffffffffffffffffff\n      and\n        /* \"contracts/contractApi.sol\":1138:1145  persons */\n      0x02\n        /* \"contracts/contractApi.sol\":1138:1153  persons[sender] */\n      0x00\n        /* \"contracts/contractApi.sol\":1146:1152  sender */\n      dup5\n        /* \"contracts/contractApi.sol\":1138:1153  persons[sender] */\n      0xffffffffffffffffffffffffffffffffffffffff\n      and\n      0xffffffffffffffffffffffffffffffffffffffff\n      and\n      dup2\n      mstore\n      0x20\n      add\n      swap1\n      dup2\n      mstore\n      0x20\n      add\n      0x00\n      keccak256\n        /* \"contracts/contractApi.sol\":1138:1167  persons[sender].addressWallet */\n      0x00\n      add\n      0x00\n      swap1\n      sload\n      swap1\n      0x0100\n      exp\n      swap1\n      div\n      0xffffffffffffffffffffffffffffffffffffffff\n      and\n        /* \"contracts/contractApi.sol\":1138:1183  persons[sender].addressWallet != address(0x0) */\n      0xffffffffffffffffffffffffffffffffffffffff\n      and\n      eq\n        /* \"contracts/contractApi.sol\":1135:1404  if(persons[sender].addressWallet != address(0x0)) {... */\n      tag_62\n      jumpi\n        /* \"contracts/contractApi.sol\":1226:1232  amount */\n      dup1\n        /* \"contracts/contractApi.sol\":1199:1206  persons */\n      0x02\n        /* \"contracts/contractApi.sol\":1199:1214  persons[sender] */\n      0x00\n        /* \"contracts/contractApi.sol\":1207:1213  sender */\n      dup5\n        /* \"contracts/contractApi.sol\":1199:1214  persons[sender] */\n      0xffffffffffffffffffffffffffffffffffffffff\n      and\n      0xffffffffffffffffffffffffffffffffffffffff\n      and\n      dup2\n      mstore\n      0x20\n      add\n      swap1\n      dup2\n      mstore\n      0x20\n      add\n      0x00\n      keccak256\n        /* \"contracts/contractApi.sol\":1199:1222  persons[sender].balance */\n      0x01\n      add\n      0x00\n        /* \"contracts/contractApi.sol\":1199:1232  persons[sender].balance += amount */\n      dup3\n      dup3\n      sload\n      tag_63\n      swap2\n      swap1\n      tag_64\n      jump\t// in\n    tag_63:\n      swap3\n      pop\n      pop\n      dup2\n      swap1\n      sstore\n      pop\n        /* \"contracts/contractApi.sol\":1135:1404  if(persons[sender].addressWallet != address(0x0)) {... */\n      jump(tag_65)\n    tag_62:\n        /* \"contracts/contractApi.sol\":1263:1286  Person memory newPerson */\n      0x00\n        /* \"contracts/contractApi.sol\":1289:1311  Person(sender, amount) */\n      mload(0x40)\n      dup1\n      0x40\n      add\n      0x40\n      mstore\n      dup1\n        /* \"contracts/contractApi.sol\":1296:1302  sender */\n      dup5\n        /* \"contracts/contractApi.sol\":1289:1311  Person(sender, amount) */\n      0xffffffffffffffffffffffffffffffffffffffff\n      and\n      dup2\n      mstore\n      0x20\n      add\n        /* \"contracts/contractApi.sol\":1304:1310  amount */\n      dup4\n        /* \"contracts/contractApi.sol\":1289:1311  Person(sender, amount) */\n      dup2\n      mstore\n      pop\n        /* \"contracts/contractApi.sol\":1263:1311  Person memory newPerson = Person(sender, amount) */\n      swap1\n      pop\n        /* \"contracts/contractApi.sol\":1343:1352  newPerson */\n      dup1\n        /* \"contracts/contractApi.sol\":1325:1332  persons */\n      0x02\n        /* \"contracts/contractApi.sol\":1325:1340  persons[sender] */\n      0x00\n        /* \"contracts/contractApi.sol\":1333:1339  sender */\n      dup6\n        /* \"contracts/contractApi.sol\":1325:1340  persons[sender] */\n      0xffffffffffffffffffffffffffffffffffffffff\n      and\n      0xffffffffffffffffffffffffffffffffffffffff\n      and\n      dup2\n      mstore\n      0x20\n      add\n      swap1\n      dup2\n      mstore\n      0x20\n      add\n      0x00\n      keccak256\n        /* \"contracts/contractApi.sol\":1325:1352  persons[sender] = newPerson */\n      0x00\n      dup3\n      add\n      mload\n      dup2\n      0x00\n      add\n      exp(0x0100, 0x00)\n      dup2\n      sload\n      dup2\n      0xffffffffffffffffffffffffffffffffffffffff\n      mul\n      not\n      and\n      swap1\n      dup4\n      0xffffffffffffffffffffffffffffffffffffffff\n      and\n      mul\n      or\n      swap1\n      sstore\n      pop\n      0x20\n      dup3\n      add\n      mload\n      dup2\n      0x01\n      add\n      sstore\n      swap1\n      pop\n      pop\n        /* \"contracts/contractApi.sol\":1366:1377  personArray */\n      0x03\n        /* \"contracts/contractApi.sol\":1383:1392  newPerson */\n      dup2\n        /* \"contracts/contractApi.sol\":1366:1393  personArray.push(newPerson) */\n      swap1\n      dup1\n      0x01\n      dup2\n      sload\n      add\n      dup1\n      dup3\n      sstore\n      dup1\n      swap2\n      pop\n      pop\n      0x01\n      swap1\n      sub\n      swap1\n      0x00\n      mstore\n      keccak256(0x00, 0x20)\n      swap1\n      0x02\n      mul\n      add\n      0x00\n      swap1\n      swap2\n      swap1\n      swap2\n      swap1\n      swap2\n      pop\n      0x00\n      dup3\n      add\n      mload\n      dup2\n      0x00\n      add\n      exp(0x0100, 0x00)\n      dup2\n      sload\n      dup2\n      0xffffffffffffffffffffffffffffffffffffffff\n      mul\n      not\n      and\n      swap1\n      dup4\n      0xffffffffffffffffffffffffffffffffffffffff\n      and\n      mul\n      or\n      swap1\n      sstore\n      pop\n      0x20\n      dup3\n      add\n      mload\n      dup2\n      0x01\n      add\n      sstore\n      pop\n      pop\n        /* \"contracts/contractApi.sol\":1249:1404  {... */\n      pop\n        /* \"contracts/contractApi.sol\":1135:1404  if(persons[sender].addressWallet != address(0x0)) {... */\n    tag_65:\n        /* \"contracts/contractApi.sol\":1066:1410  function updatePerson(address sender, uint amount) private {... */\n      pop\n      pop\n      jump\t// out\n        /* \"contracts/contractApi.sol\":3079:3224  function getAllSmartContracts()... */\n    tag_24:\n        /* \"contracts/contractApi.sol\":3158:3181  ContractEntity[] memory */\n      0x60\n        /* \"contracts/contractApi.sol\":3204:3217  contractArray */\n      0x01\n        /* \"contracts/contractApi.sol\":3197:3217  return contractArray */\n      dup1\n      sload\n      dup1\n      0x20\n      mul\n      0x20\n      add\n      mload(0x40)\n      swap1\n      dup2\n      add\n      0x40\n      mstore\n      dup1\n      swap3\n      swap2\n      swap1\n      dup2\n      dup2\n      mstore\n      0x20\n      add\n      0x00\n      swap1\n    tag_68:\n      dup3\n      dup3\n      lt\n      iszero\n      tag_69\n      jumpi\n      dup4\n      dup3\n      swap1\n      0x00\n      mstore\n      keccak256(0x00, 0x20)\n      swap1\n      0x07\n      mul\n      add\n      mload(0x40)\n      dup1\n      0x0120\n      add\n      0x40\n      mstore\n      swap1\n      dup2\n      0x00\n      dup3\n      add\n      sload\n      dup2\n      mstore\n      0x20\n      add\n      0x01\n      dup3\n      add\n      0x00\n      swap1\n      sload\n      swap1\n      0x0100\n      exp\n      swap1\n      div\n      0xffffffffffffffffffffffffffffffffffffffff\n      and\n      0xffffffffffffffffffffffffffffffffffffffff\n      and\n      0xffffffffffffffffffffffffffffffffffffffff\n      and\n      dup2\n      mstore\n      0x20\n      add\n      0x02\n      dup3\n      add\n      0x00\n      swap1\n      sload\n      swap1\n      0x0100\n      exp\n      swap1\n      div\n      0xffffffffffffffffffffffffffffffffffffffff\n      and\n      0xffffffffffffffffffffffffffffffffffffffff\n      and\n      0xffffffffffffffffffffffffffffffffffffffff\n      and\n      dup2\n      mstore\n      0x20\n      add\n      0x03\n      dup3\n      add\n      sload\n      dup2\n      mstore\n      0x20\n      add\n      0x04\n      dup3\n      add\n      0x00\n      swap1\n      sload\n      swap1\n      0x0100\n      exp\n      swap1\n      div\n      0xffffffff\n      and\n      0xffffffff\n      and\n      0xffffffff\n      and\n      dup2\n      mstore\n      0x20\n      add\n      0x04\n      dup3\n      add\n      0x04\n      swap1\n      sload\n      swap1\n      0x0100\n      exp\n      swap1\n      div\n      0xffffffff\n      and\n      0xffffffff\n      and\n      0xffffffff\n      and\n      dup2\n      mstore\n      0x20\n      add\n      0x04\n      dup3\n      add\n      0x08\n      swap1\n      sload\n      swap1\n      0x0100\n      exp\n      swap1\n      div\n      0xffffffff\n      and\n      0xffffffff\n      and\n      0xffffffff\n      and\n      dup2\n      mstore\n      0x20\n      add\n      0x05\n      dup3\n      add\n      dup1\n      sload\n      tag_71\n      swap1\n      tag_72\n      jump\t// in\n    tag_71:\n      dup1\n      0x1f\n      add\n      0x20\n      dup1\n      swap2\n      div\n      mul\n      0x20\n      add\n      mload(0x40)\n      swap1\n      dup2\n      add\n      0x40\n      mstore\n      dup1\n      swap3\n      swap2\n      swap1\n      dup2\n      dup2\n      mstore\n      0x20\n      add\n      dup3\n      dup1\n      sload\n      tag_73\n      swap1\n      tag_72\n      jump\t// in\n    tag_73:\n      dup1\n      iszero\n      tag_74\n      jumpi\n      dup1\n      0x1f\n      lt\n      tag_75\n      jumpi\n      0x0100\n      dup1\n      dup4\n      sload\n      div\n      mul\n      dup4\n      mstore\n      swap2\n      0x20\n      add\n      swap2\n      jump(tag_74)\n    tag_75:\n      dup3\n      add\n      swap2\n      swap1\n      0x00\n      mstore\n      keccak256(0x00, 0x20)\n      swap1\n    tag_76:\n      dup2\n      sload\n      dup2\n      mstore\n      swap1\n      0x01\n      add\n      swap1\n      0x20\n      add\n      dup1\n      dup4\n      gt\n      tag_76\n      jumpi\n      dup3\n      swap1\n      sub\n      0x1f\n      and\n      dup3\n      add\n      swap2\n    tag_74:\n      pop\n      pop\n      pop\n      pop\n      pop\n      dup2\n      mstore\n      0x20\n      add\n      0x06\n      dup3\n      add\n      dup1\n      sload\n      dup1\n      0x20\n      mul\n      0x20\n      add\n      mload(0x40)\n      swap1\n      dup2\n      add\n      0x40\n      mstore\n      dup1\n      swap3\n      swap2\n      swap1\n      dup2\n      dup2\n      mstore\n      0x20\n      add\n      0x00\n      swap1\n    tag_77:\n      dup3\n      dup3\n      lt\n      iszero\n      tag_78\n      jumpi\n      dup4\n      dup3\n      swap1\n      0x00\n      mstore\n      keccak256(0x00, 0x20)\n      swap1\n      0x02\n      mul\n      add\n      mload(0x40)\n      dup1\n      0x40\n      add\n      0x40\n      mstore\n      swap1\n      dup2\n      0x00\n      dup3\n      add\n      dup1\n      sload\n      tag_80\n      swap1\n      tag_72\n      jump\t// in\n    tag_80:\n      dup1\n      0x1f\n      add\n      0x20\n      dup1\n      swap2\n      div\n      mul\n      0x20\n      add\n      mload(0x40)\n      swap1\n      dup2\n      add\n      0x40\n      mstore\n      dup1\n      swap3\n      swap2\n      swap1\n      dup2\n      dup2\n      mstore\n      0x20\n      add\n      dup3\n      dup1\n      sload\n      tag_81\n      swap1\n      tag_72\n      jump\t// in\n    tag_81:\n      dup1\n      iszero\n      tag_82\n      jumpi\n      dup1\n      0x1f\n      lt\n      tag_83\n      jumpi\n      0x0100\n      dup1\n      dup4\n      sload\n      div\n      mul\n      dup4\n      mstore\n      swap2\n      0x20\n      add\n      swap2\n      jump(tag_82)\n    tag_83:\n      dup3\n      add\n      swap2\n      swap1\n      0x00\n      mstore\n      keccak256(0x00, 0x20)\n      swap1\n    tag_84:\n      dup2\n      sload\n      dup2\n      mstore\n      swap1\n      0x01\n      add\n      swap1\n      0x20\n      add\n      dup1\n      dup4\n      gt\n      tag_84\n      jumpi\n      dup3\n      swap1\n      sub\n      0x1f\n      and\n      dup3\n      add\n      swap2\n    tag_82:\n      pop\n      pop\n      pop\n      pop\n      pop\n      dup2\n      mstore\n      0x20\n      add\n      0x01\n      dup3\n      add\n      dup1\n      sload\n      tag_85\n      swap1\n      tag_72\n      jump\t// in\n    tag_85:\n      dup1\n      0x1f\n      add\n      0x20\n      dup1\n      swap2\n      div\n      mul\n      0x20\n      add\n      mload(0x40)\n      swap1\n      dup2\n      add\n      0x40\n      mstore\n      dup1\n      swap3\n      swap2\n      swap1\n      dup2\n      dup2\n      mstore\n      0x20\n      add\n      dup3\n      dup1\n      sload\n      tag_86\n      swap1\n      tag_72\n      jump\t// in\n    tag_86:\n      dup1\n      iszero\n      tag_87\n      jumpi\n      dup1\n      0x1f\n      lt\n      tag_88\n      jumpi\n      0x0100\n      dup1\n      dup4\n      sload\n      div\n      mul\n      dup4\n      mstore\n      swap2\n      0x20\n      add\n      swap2\n      jump(tag_87)\n    tag_88:\n      dup3\n      add\n      swap2\n      swap1\n      0x00\n      mstore\n      keccak256(0x00, 0x20)\n      swap1\n    tag_89:\n      dup2\n      sload\n      dup2\n      mstore\n      swap1\n      0x01\n      add\n      swap1\n      0x20\n      add\n      dup1\n      dup4\n      gt\n      tag_89\n      jumpi\n      dup3\n      swap1\n      sub\n      0x1f\n      and\n      dup3\n      add\n      swap2\n    tag_87:\n      pop\n      pop\n      pop\n      pop\n      pop\n      dup2\n      mstore\n      pop\n      pop\n      dup2\n      mstore\n      0x20\n      add\n      swap1\n      0x01\n      add\n      swap1\n      jump(tag_77)\n    tag_78:\n      pop\n      pop\n      pop\n      pop\n      dup2\n      mstore\n      pop\n      pop\n      dup2\n      mstore\n      0x20\n      add\n      swap1\n      0x01\n      add\n      swap1\n      jump(tag_68)\n    tag_69:\n      pop\n      pop\n      pop\n      pop\n      swap1\n      pop\n        /* \"contracts/contractApi.sol\":3079:3224  function getAllSmartContracts()... */\n      swap1\n      jump\t// out\n        /* \"contracts/contractApi.sol\":1499:2749  function createSmartContract(... */\n    tag_31:\n        /* \"contracts/contractApi.sol\":1469:1474  owner */\n      0x04\n      0x00\n      swap1\n      sload\n      swap1\n      0x0100\n      exp\n      swap1\n      div\n      0xffffffffffffffffffffffffffffffffffffffff\n      and\n        /* \"contracts/contractApi.sol\":1455:1474  msg.sender == owner */\n      0xffffffffffffffffffffffffffffffffffffffff\n      and\n        /* \"contracts/contractApi.sol\":1455:1465  msg.sender */\n      caller\n        /* \"contracts/contractApi.sol\":1455:1474  msg.sender == owner */\n      0xffffffffffffffffffffffffffffffffffffffff\n      and\n      eq\n        /* \"contracts/contractApi.sol\":1447:1475  require(msg.sender == owner) */\n      tag_91\n      jumpi\n      0x00\n      dup1\n      revert\n    tag_91:\n        /* \"contracts/contractApi.sol\":1827:1847  Person memory renter */\n      0x00\n        /* \"contracts/contractApi.sol\":1850:1857  persons */\n      0x02\n        /* \"contracts/contractApi.sol\":1850:1873  persons[_renterAddress] */\n      0x00\n        /* \"contracts/contractApi.sol\":1858:1872  _renterAddress */\n      dup11\n        /* \"contracts/contractApi.sol\":1850:1873  persons[_renterAddress] */\n      0xffffffffffffffffffffffffffffffffffffffff\n      and\n      0xffffffffffffffffffffffffffffffffffffffff\n      and\n      dup2\n      mstore\n      0x20\n      add\n      swap1\n      dup2\n      mstore\n      0x20\n      add\n      0x00\n      keccak256\n        /* \"contracts/contractApi.sol\":1827:1873  Person memory renter = persons[_renterAddress] */\n      mload(0x40)\n      dup1\n      0x40\n      add\n      0x40\n      mstore\n      swap1\n      dup2\n      0x00\n      dup3\n      add\n      0x00\n      swap1\n      sload\n      swap1\n      0x0100\n      exp\n      swap1\n      div\n      0xffffffffffffffffffffffffffffffffffffffff\n      and\n      0xffffffffffffffffffffffffffffffffffffffff\n      and\n      0xffffffffffffffffffffffffffffffffffffffff\n      and\n      dup2\n      mstore\n      0x20\n      add\n      0x01\n      dup3\n      add\n      sload\n      dup2\n      mstore\n      pop\n      pop\n      swap1\n      pop\n        /* \"contracts/contractApi.sol\":1883:1903  Person memory seller */\n      0x00\n        /* \"contracts/contractApi.sol\":1906:1913  persons */\n      0x02\n        /* \"contracts/contractApi.sol\":1906:1929  persons[_sellerAdsress] */\n      0x00\n        /* \"contracts/contractApi.sol\":1914:1928  _sellerAdsress */\n      dup11\n        /* \"contracts/contractApi.sol\":1906:1929  persons[_sellerAdsress] */\n      0xffffffffffffffffffffffffffffffffffffffff\n      and\n      0xffffffffffffffffffffffffffffffffffffffff\n      and\n      dup2\n      mstore\n      0x20\n      add\n      swap1\n      dup2\n      mstore\n      0x20\n      add\n      0x00\n      keccak256\n        /* \"contracts/contractApi.sol\":1883:1929  Person memory seller = persons[_sellerAdsress] */\n      mload(0x40)\n      dup1\n      0x40\n      add\n      0x40\n      mstore\n      swap1\n      dup2\n      0x00\n      dup3\n      add\n      0x00\n      swap1\n      sload\n      swap1\n      0x0100\n      exp\n      swap1\n      div\n      0xffffffffffffffffffffffffffffffffffffffff\n      and\n      0xffffffffffffffffffffffffffffffffffffffff\n      and\n      0xffffffffffffffffffffffffffffffffffffffff\n      and\n      dup2\n      mstore\n      0x20\n      add\n      0x01\n      dup3\n      add\n      sload\n      dup2\n      mstore\n      pop\n      pop\n      swap1\n      pop\n        /* \"contracts/contractApi.sol\":1977:1986  _rentCost */\n      dup8\n        /* \"contracts/contractApi.sol\":1960:1966  renter */\n      dup3\n        /* \"contracts/contractApi.sol\":1960:1974  renter.balance */\n      0x20\n      add\n      mload\n        /* \"contracts/contractApi.sol\":1960:1986  renter.balance > _rentCost */\n      gt\n        /* \"contracts/contractApi.sol\":1960:2016  renter.balance > _rentCost && seller.balance > _rentCost */\n      dup1\n      iszero\n      tag_93\n      jumpi\n      pop\n        /* \"contracts/contractApi.sol\":2007:2016  _rentCost */\n      dup8\n        /* \"contracts/contractApi.sol\":1990:1996  seller */\n      dup2\n        /* \"contracts/contractApi.sol\":1990:2004  seller.balance */\n      0x20\n      add\n      mload\n        /* \"contracts/contractApi.sol\":1990:2016  seller.balance > _rentCost */\n      gt\n        /* \"contracts/contractApi.sol\":1960:2016  renter.balance > _rentCost && seller.balance > _rentCost */\n    tag_93:\n        /* \"contracts/contractApi.sol\":1939:2062  require(... */\n      tag_94\n      jumpi\n      mload(0x40)\n      0x08c379a000000000000000000000000000000000000000000000000000000000\n      dup2\n      mstore\n      0x04\n      add\n      tag_95\n      swap1\n      tag_96\n      jump\t// in\n    tag_95:\n      mload(0x40)\n      dup1\n      swap2\n      sub\n      swap1\n      revert\n    tag_94:\n        /* \"contracts/contractApi.sol\":2073:2112  ContractEntity storage newSmartContract */\n      0x00\n        /* \"contracts/contractApi.sol\":2115:2124  contracts */\n      dup1\n        /* \"contracts/contractApi.sol\":2115:2129  contracts[_id] */\n      0x00\n        /* \"contracts/contractApi.sol\":2125:2128  _id */\n      dup14\n        /* \"contracts/contractApi.sol\":2115:2129  contracts[_id] */\n      dup2\n      mstore\n      0x20\n      add\n      swap1\n      dup2\n      mstore\n      0x20\n      add\n      0x00\n      keccak256\n        /* \"contracts/contractApi.sol\":2073:2129  ContractEntity storage newSmartContract = contracts[_id] */\n      swap1\n      pop\n        /* \"contracts/contractApi.sol\":2161:2164  _id */\n      dup12\n        /* \"contracts/contractApi.sol\":2139:2155  newSmartContract */\n      dup2\n        /* \"contracts/contractApi.sol\":2139:2158  newSmartContract.id */\n      0x00\n      add\n        /* \"contracts/contractApi.sol\":2139:2164  newSmartContract.id = _id */\n      dup2\n      swap1\n      sstore\n      pop\n        /* \"contracts/contractApi.sol\":2200:2214  _renterAddress */\n      dup11\n        /* \"contracts/contractApi.sol\":2174:2190  newSmartContract */\n      dup2\n        /* \"contracts/contractApi.sol\":2174:2197  newSmartContract.renter */\n      0x01\n      add\n      0x00\n        /* \"contracts/contractApi.sol\":2174:2214  newSmartContract.renter = _renterAddress */\n      0x0100\n      exp\n      dup2\n      sload\n      dup2\n      0xffffffffffffffffffffffffffffffffffffffff\n      mul\n      not\n      and\n      swap1\n      dup4\n      0xffffffffffffffffffffffffffffffffffffffff\n      and\n      mul\n      or\n      swap1\n      sstore\n      pop\n        /* \"contracts/contractApi.sol\":2250:2264  _sellerAdsress */\n      dup10\n        /* \"contracts/contractApi.sol\":2224:2240  newSmartContract */\n      dup2\n        /* \"contracts/contractApi.sol\":2224:2247  newSmartContract.seller */\n      0x02\n      add\n      0x00\n        /* \"contracts/contractApi.sol\":2224:2264  newSmartContract.seller = _sellerAdsress */\n      0x0100\n      exp\n      dup2\n      sload\n      dup2\n      0xffffffffffffffffffffffffffffffffffffffff\n      mul\n      not\n      and\n      swap1\n      dup4\n      0xffffffffffffffffffffffffffffffffffffffff\n      and\n      mul\n      or\n      swap1\n      sstore\n      pop\n        /* \"contracts/contractApi.sol\":2302:2311  _rentCost */\n      dup9\n        /* \"contracts/contractApi.sol\":2274:2290  newSmartContract */\n      dup2\n        /* \"contracts/contractApi.sol\":2274:2299  newSmartContract.rentCost */\n      0x03\n      add\n        /* \"contracts/contractApi.sol\":2274:2311  newSmartContract.rentCost = _rentCost */\n      dup2\n      swap1\n      sstore\n      pop\n        /* \"contracts/contractApi.sol\":2349:2358  _duration */\n      dup8\n        /* \"contracts/contractApi.sol\":2321:2337  newSmartContract */\n      dup2\n        /* \"contracts/contractApi.sol\":2321:2346  newSmartContract.duration */\n      0x04\n      add\n      0x00\n        /* \"contracts/contractApi.sol\":2321:2358  newSmartContract.duration = _duration */\n      0x0100\n      exp\n      dup2\n      sload\n      dup2\n      0xffffffff\n      mul\n      not\n      and\n      swap1\n      dup4\n      0xffffffff\n      and\n      mul\n      or\n      swap1\n      sstore\n      pop\n        /* \"contracts/contractApi.sol\":2397:2407  _timeStart */\n      dup7\n        /* \"contracts/contractApi.sol\":2368:2384  newSmartContract */\n      dup2\n        /* \"contracts/contractApi.sol\":2368:2394  newSmartContract.timeStart */\n      0x04\n      add\n      0x04\n        /* \"contracts/contractApi.sol\":2368:2407  newSmartContract.timeStart = _timeStart */\n      0x0100\n      exp\n      dup2\n      sload\n      dup2\n      0xffffffff\n      mul\n      not\n      and\n      swap1\n      dup4\n      0xffffffff\n      and\n      mul\n      or\n      swap1\n      sstore\n      pop\n        /* \"contracts/contractApi.sol\":2452:2468  _paymentDeadline */\n      dup6\n        /* \"contracts/contractApi.sol\":2417:2433  newSmartContract */\n      dup2\n        /* \"contracts/contractApi.sol\":2417:2449  newSmartContract.paymentDeadline */\n      0x04\n      add\n      0x08\n        /* \"contracts/contractApi.sol\":2417:2468  newSmartContract.paymentDeadline = _paymentDeadline */\n      0x0100\n      exp\n      dup2\n      sload\n      dup2\n      0xffffffff\n      mul\n      not\n      and\n      swap1\n      dup4\n      0xffffffff\n      and\n      mul\n      or\n      swap1\n      sstore\n      pop\n        /* \"contracts/contractApi.sol\":2510:2523  _payment_type */\n      dup5\n        /* \"contracts/contractApi.sol\":2478:2494  newSmartContract */\n      dup2\n        /* \"contracts/contractApi.sol\":2478:2507  newSmartContract.payment_type */\n      0x05\n      add\n        /* \"contracts/contractApi.sol\":2478:2523  newSmartContract.payment_type = _payment_type */\n      swap1\n      dup2\n      tag_97\n      swap2\n      swap1\n      tag_98\n      jump\t// in\n    tag_97:\n      pop\n        /* \"contracts/contractApi.sol\":2539:2548  uint256 i */\n      0x00\n        /* \"contracts/contractApi.sol\":2534:2653  for (uint256 i = 0; i < _termArray.length; i++) {... */\n    tag_99:\n        /* \"contracts/contractApi.sol\":2558:2568  _termArray */\n      dup5\n        /* \"contracts/contractApi.sol\":2558:2575  _termArray.length */\n      mload\n        /* \"contracts/contractApi.sol\":2554:2555  i */\n      dup2\n        /* \"contracts/contractApi.sol\":2554:2575  i < _termArray.length */\n      lt\n        /* \"contracts/contractApi.sol\":2534:2653  for (uint256 i = 0; i < _termArray.length; i++) {... */\n      iszero\n      tag_100\n      jumpi\n        /* \"contracts/contractApi.sol\":2596:2612  newSmartContract */\n      dup2\n        /* \"contracts/contractApi.sol\":2596:2622  newSmartContract.termArray */\n      0x06\n      add\n        /* \"contracts/contractApi.sol\":2628:2638  _termArray */\n      dup6\n        /* \"contracts/contractApi.sol\":2639:2640  i */\n      dup3\n        /* \"contracts/contractApi.sol\":2628:2641  _termArray[i] */\n      dup2\n      mload\n      dup2\n      lt\n      tag_102\n      jumpi\n      tag_103\n      tag_104\n      jump\t// in\n    tag_103:\n    tag_102:\n      0x20\n      mul\n      0x20\n      add\n      add\n      mload\n        /* \"contracts/contractApi.sol\":2596:2642  newSmartContract.termArray.push(_termArray[i]) */\n      swap1\n      dup1\n      0x01\n      dup2\n      sload\n      add\n      dup1\n      dup3\n      sstore\n      dup1\n      swap2\n      pop\n      pop\n      0x01\n      swap1\n      sub\n      swap1\n      0x00\n      mstore\n      keccak256(0x00, 0x20)\n      swap1\n      0x02\n      mul\n      add\n      0x00\n      swap1\n      swap2\n      swap1\n      swap2\n      swap1\n      swap2\n      pop\n      0x00\n      dup3\n      add\n      mload\n      dup2\n      0x00\n      add\n      swap1\n      dup2\n      tag_106\n      swap2\n      swap1\n      tag_98\n      jump\t// in\n    tag_106:\n      pop\n      0x20\n      dup3\n      add\n      mload\n      dup2\n      0x01\n      add\n      swap1\n      dup2\n      tag_107\n      swap2\n      swap1\n      tag_98\n      jump\t// in\n    tag_107:\n      pop\n      pop\n      pop\n        /* \"contracts/contractApi.sol\":2577:2580  i++ */\n      dup1\n      dup1\n      0x01\n      add\n      swap2\n      pop\n      pop\n        /* \"contracts/contractApi.sol\":2534:2653  for (uint256 i = 0; i < _termArray.length; i++) {... */\n      jump(tag_99)\n    tag_100:\n      pop\n        /* \"contracts/contractApi.sol\":2680:2696  newSmartContract */\n      dup1\n        /* \"contracts/contractApi.sol\":2663:2672  contracts */\n      0x00\n        /* \"contracts/contractApi.sol\":2663:2677  contracts[_id] */\n      dup1\n        /* \"contracts/contractApi.sol\":2673:2676  _id */\n      dup15\n        /* \"contracts/contractApi.sol\":2663:2677  contracts[_id] */\n      dup2\n      mstore\n      0x20\n      add\n      swap1\n      dup2\n      mstore\n      0x20\n      add\n      0x00\n      keccak256\n        /* \"contracts/contractApi.sol\":2663:2696  contracts[_id] = newSmartContract */\n      0x00\n      dup3\n      add\n      sload\n      dup2\n      0x00\n      add\n      sstore\n      0x01\n      dup3\n      add\n      0x00\n      swap1\n      sload\n      swap1\n      0x0100\n      exp\n      swap1\n      div\n      0xffffffffffffffffffffffffffffffffffffffff\n      and\n      dup2\n      0x01\n      add\n      exp(0x0100, 0x00)\n      dup2\n      sload\n      dup2\n      0xffffffffffffffffffffffffffffffffffffffff\n      mul\n      not\n      and\n      swap1\n      dup4\n      0xffffffffffffffffffffffffffffffffffffffff\n      and\n      mul\n      or\n      swap1\n      sstore\n      pop\n      0x02\n      dup3\n      add\n      0x00\n      swap1\n      sload\n      swap1\n      0x0100\n      exp\n      swap1\n      div\n      0xffffffffffffffffffffffffffffffffffffffff\n      and\n      dup2\n      0x02\n      add\n      exp(0x0100, 0x00)\n      dup2\n      sload\n      dup2\n      0xffffffffffffffffffffffffffffffffffffffff\n      mul\n      not\n      and\n      swap1\n      dup4\n      0xffffffffffffffffffffffffffffffffffffffff\n      and\n      mul\n      or\n      swap1\n      sstore\n      pop\n      0x03\n      dup3\n      add\n      sload\n      dup2\n      0x03\n      add\n      sstore\n      0x04\n      dup3\n      add\n      0x00\n      swap1\n      sload\n      swap1\n      0x0100\n      exp\n      swap1\n      div\n      0xffffffff\n      and\n      dup2\n      0x04\n      add\n      exp(0x0100, 0x00)\n      dup2\n      sload\n      dup2\n      0xffffffff\n      mul\n      not\n      and\n      swap1\n      dup4\n      0xffffffff\n      and\n      mul\n      or\n      swap1\n      sstore\n      pop\n      0x04\n      dup3\n      add\n      0x04\n      swap1\n      sload\n      swap1\n      0x0100\n      exp\n      swap1\n      div\n      0xffffffff\n      and\n      dup2\n      0x04\n      add\n      exp(0x0100, 0x04)\n      dup2\n      sload\n      dup2\n      0xffffffff\n      mul\n      not\n      and\n      swap1\n      dup4\n      0xffffffff\n      and\n      mul\n      or\n      swap1\n      sstore\n      pop\n      0x04\n      dup3\n      add\n      0x08\n      swap1\n      sload\n      swap1\n      0x0100\n      exp\n      swap1\n      div\n      0xffffffff\n      and\n      dup2\n      0x04\n      add\n      exp(0x0100, 0x08)\n      dup2\n      sload\n      dup2\n      0xffffffff\n      mul\n      not\n      and\n      swap1\n      dup4\n      0xffffffff\n      and\n      mul\n      or\n      swap1\n      sstore\n      pop\n      0x05\n      dup3\n      add\n      dup2\n      0x05\n      add\n      swap1\n      dup2\n      tag_108\n      swap2\n      swap1\n      tag_109\n      jump\t// in\n    tag_108:\n      pop\n      0x06\n      dup3\n      add\n      dup2\n      0x06\n      add\n      swap1\n      dup1\n      sload\n      tag_110\n      swap3\n      swap2\n      swap1\n      tag_111\n      jump\t// in\n    tag_110:\n      pop\n      swap1\n      pop\n      pop\n        /* \"contracts/contractApi.sol\":2706:2719  contractArray */\n      0x01\n        /* \"contracts/contractApi.sol\":2725:2741  newSmartContract */\n      dup2\n        /* \"contracts/contractApi.sol\":2706:2742  contractArray.push(newSmartContract) */\n      swap1\n      dup1\n      0x01\n      dup2\n      sload\n      add\n      dup1\n      dup3\n      sstore\n      dup1\n      swap2\n      pop\n      pop\n      0x01\n      swap1\n      sub\n      swap1\n      0x00\n      mstore\n      keccak256(0x00, 0x20)\n      swap1\n      0x07\n      mul\n      add\n      0x00\n      swap1\n      swap2\n      swap1\n      swap2\n      swap1\n      swap2\n      pop\n      0x00\n      dup3\n      add\n      sload\n      dup2\n      0x00\n      add\n      sstore\n      0x01\n      dup3\n      add\n      0x00\n      swap1\n      sload\n      swap1\n      0x0100\n      exp\n      swap1\n      div\n      0xffffffffffffffffffffffffffffffffffffffff\n      and\n      dup2\n      0x01\n      add\n      exp(0x0100, 0x00)\n      dup2\n      sload\n      dup2\n      0xffffffffffffffffffffffffffffffffffffffff\n      mul\n      not\n      and\n      swap1\n      dup4\n      0xffffffffffffffffffffffffffffffffffffffff\n      and\n      mul\n      or\n      swap1\n      sstore\n      pop\n      0x02\n      dup3\n      add\n      0x00\n      swap1\n      sload\n      swap1\n      0x0100\n      exp\n      swap1\n      div\n      0xffffffffffffffffffffffffffffffffffffffff\n      and\n      dup2\n      0x02\n      add\n      exp(0x0100, 0x00)\n      dup2\n      sload\n      dup2\n      0xffffffffffffffffffffffffffffffffffffffff\n      mul\n      not\n      and\n      swap1\n      dup4\n      0xffffffffffffffffffffffffffffffffffffffff\n      and\n      mul\n      or\n      swap1\n      sstore\n      pop\n      0x03\n      dup3\n      add\n      sload\n      dup2\n      0x03\n      add\n      sstore\n      0x04\n      dup3\n      add\n      0x00\n      swap1\n      sload\n      swap1\n      0x0100\n      exp\n      swap1\n      div\n      0xffffffff\n      and\n      dup2\n      0x04\n      add\n      exp(0x0100, 0x00)\n      dup2\n      sload\n      dup2\n      0xffffffff\n      mul\n      not\n      and\n      swap1\n      dup4\n      0xffffffff\n      and\n      mul\n      or\n      swap1\n      sstore\n      pop\n      0x04\n      dup3\n      add\n      0x04\n      swap1\n      sload\n      swap1\n      0x0100\n      exp\n      swap1\n      div\n      0xffffffff\n      and\n      dup2\n      0x04\n      add\n      exp(0x0100, 0x04)\n      dup2\n      sload\n      dup2\n      0xffffffff\n      mul\n      not\n      and\n      swap1\n      dup4\n      0xffffffff\n      and\n      mul\n      or\n      swap1\n      sstore\n      pop\n      0x04\n      dup3\n      add\n      0x08\n      swap1\n      sload\n      swap1\n      0x0100\n      exp\n      swap1\n      div\n      0xffffffff\n      and\n      dup2\n      0x04\n      add\n      exp(0x0100, 0x08)\n      dup2\n      sload\n      dup2\n      0xffffffff\n      mul\n      not\n      and\n      swap1\n      dup4\n      0xffffffff\n      and\n      mul\n      or\n      swap1\n      sstore\n      pop\n      0x05\n      dup3\n      add\n      dup2\n      0x05\n      add\n      swap1\n      dup2\n      tag_113\n      swap2\n      swap1\n      tag_109\n      jump\t// in\n    tag_113:\n      pop\n      0x06\n      dup3\n      add\n      dup2\n      0x06\n      add\n      swap1\n      dup1\n      sload\n      tag_114\n      swap3\n      swap2\n      swap1\n      tag_111\n      jump\t// in\n    tag_114:\n      pop\n      pop\n      pop\n        /* \"contracts/contractApi.sol\":1817:2749  {... */\n      pop\n      pop\n      pop\n        /* \"contracts/contractApi.sol\":1499:2749  function createSmartContract(... */\n      pop\n      pop\n      pop\n      pop\n      pop\n      pop\n      pop\n      pop\n      pop\n      jump\t// out\n        /* \"contracts/contractApi.sol\":3429:3533  function getContractBalance() external view returns (uint) {... */\n    tag_34:\n        /* \"contracts/contractApi.sol\":3482:3486  uint */\n      0x00\n        /* \"contracts/contractApi.sol\":3505:3526  address(this).balance */\n      selfbalance\n        /* \"contracts/contractApi.sol\":3498:3526  return address(this).balance */\n      swap1\n      pop\n        /* \"contracts/contractApi.sol\":3429:3533  function getContractBalance() external view returns (uint) {... */\n      swap1\n      jump\t// out\n        /* \"contracts/contractApi.sol\":2961:3073  function transferETH(address payable _to, uint256 amount) external payable {... */\n    tag_40:\n        /* \"contracts/contractApi.sol\":3046:3049  _to */\n      dup2\n        /* \"contracts/contractApi.sol\":3046:3058  _to.transfer */\n      0xffffffffffffffffffffffffffffffffffffffff\n      and\n        /* \"contracts/contractApi.sol\":3046:3066  _to.transfer(amount) */\n      0x08fc\n        /* \"contracts/contractApi.sol\":3059:3065  amount */\n      dup3\n        /* \"contracts/contractApi.sol\":3046:3066  _to.transfer(amount) */\n      swap1\n      dup2\n      iszero\n      mul\n      swap1\n      mload(0x40)\n      0x00\n      mload(0x40)\n      dup1\n      dup4\n      sub\n      dup2\n      dup6\n      dup9\n      dup9\n      call\n      swap4\n      pop\n      pop\n      pop\n      pop\n      iszero\n      dup1\n      iszero\n      tag_118\n      jumpi\n      returndatasize\n      0x00\n      dup1\n      returndatacopy\n      revert(0x00, returndatasize)\n    tag_118:\n      pop\n        /* \"contracts/contractApi.sol\":2961:3073  function transferETH(address payable _to, uint256 amount) external payable {... */\n      pop\n      pop\n      jump\t// out\n        /* \"contracts/contractApi.sol\":739:758  uint public balance */\n    tag_43:\n      sload(0x05)\n      dup2\n      jump\t// out\n        /* \"contracts/contractApi.sol\":3230:3313  function getMe() external view returns (address) {... */\n    tag_47:\n        /* \"contracts/contractApi.sol\":3270:3277  address */\n      0x00\n        /* \"contracts/contractApi.sol\":3296:3306  msg.sender */\n      caller\n        /* \"contracts/contractApi.sol\":3289:3306  return msg.sender */\n      swap1\n      pop\n        /* \"contracts/contractApi.sol\":3230:3313  function getMe() external view returns (address) {... */\n      swap1\n      jump\t// out\n        /* \"contracts/contractApi.sol\":2755:2955  function getSmartContractById(... */\n    tag_54:\n        /* \"contracts/contractApi.sol\":2833:2854  ContractEntity memory */\n      tag_120\n      tag_121\n      jump\t// in\n    tag_120:\n        /* \"contracts/contractApi.sol\":2866:2901  ContractEntity memory smartContract */\n      0x00\n        /* \"contracts/contractApi.sol\":2904:2913  contracts */\n      dup1\n        /* \"contracts/contractApi.sol\":2904:2918  contracts[_id] */\n      0x00\n        /* \"contracts/contractApi.sol\":2914:2917  _id */\n      dup5\n        /* \"contracts/contractApi.sol\":2904:2918  contracts[_id] */\n      dup2\n      mstore\n      0x20\n      add\n      swap1\n      dup2\n      mstore\n      0x20\n      add\n      0x00\n      keccak256\n        /* \"contracts/contractApi.sol\":2866:2918  ContractEntity memory smartContract = contracts[_id] */\n      mload(0x40)\n      dup1\n      0x0120\n      add\n      0x40\n      mstore\n      swap1\n      dup2\n      0x00\n      dup3\n      add\n      sload\n      dup2\n      mstore\n      0x20\n      add\n      0x01\n      dup3\n      add\n      0x00\n      swap1\n      sload\n      swap1\n      0x0100\n      exp\n      swap1\n      div\n      0xffffffffffffffffffffffffffffffffffffffff\n      and\n      0xffffffffffffffffffffffffffffffffffffffff\n      and\n      0xffffffffffffffffffffffffffffffffffffffff\n      and\n      dup2\n      mstore\n      0x20\n      add\n      0x02\n      dup3\n      add\n      0x00\n      swap1\n      sload\n      swap1\n      0x0100\n      exp\n      swap1\n      div\n      0xffffffffffffffffffffffffffffffffffffffff\n      and\n      0xffffffffffffffffffffffffffffffffffffffff\n      and\n      0xffffffffffffffffffffffffffffffffffffffff\n      and\n      dup2\n      mstore\n      0x20\n      add\n      0x03\n      dup3\n      add\n      sload\n      dup2\n      mstore\n      0x20\n      add\n      0x04\n      dup3\n      add\n      0x00\n      swap1\n      sload\n      swap1\n      0x0100\n      exp\n      swap1\n      div\n      0xffffffff\n      and\n      0xffffffff\n      and\n      0xffffffff\n      and\n      dup2\n      mstore\n      0x20\n      add\n      0x04\n      dup3\n      add\n      0x04\n      swap1\n      sload\n      swap1\n      0x0100\n      exp\n      swap1\n      div\n      0xffffffff\n      and\n      0xffffffff\n      and\n      0xffffffff\n      and\n      dup2\n      mstore\n      0x20\n      add\n      0x04\n      dup3\n      add\n      0x08\n      swap1\n      sload\n      swap1\n      0x0100\n      exp\n      swap1\n      div\n      0xffffffff\n      and\n      0xffffffff\n      and\n      0xffffffff\n      and\n      dup2\n      mstore\n      0x20\n      add\n      0x05\n      dup3\n      add\n      dup1\n      sload\n      tag_123\n      swap1\n      tag_72\n      jump\t// in\n    tag_123:\n      dup1\n      0x1f\n      add\n      0x20\n      dup1\n      swap2\n      div\n      mul\n      0x20\n      add\n      mload(0x40)\n      swap1\n      dup2\n      add\n      0x40\n      mstore\n      dup1\n      swap3\n      swap2\n      swap1\n      dup2\n      dup2\n      mstore\n      0x20\n      add\n      dup3\n      dup1\n      sload\n      tag_124\n      swap1\n      tag_72\n      jump\t// in\n    tag_124:\n      dup1\n      iszero\n      tag_125\n      jumpi\n      dup1\n      0x1f\n      lt\n      tag_126\n      jumpi\n      0x0100\n      dup1\n      dup4\n      sload\n      div\n      mul\n      dup4\n      mstore\n      swap2\n      0x20\n      add\n      swap2\n      jump(tag_125)\n    tag_126:\n      dup3\n      add\n      swap2\n      swap1\n      0x00\n      mstore\n      keccak256(0x00, 0x20)\n      swap1\n    tag_127:\n      dup2\n      sload\n      dup2\n      mstore\n      swap1\n      0x01\n      add\n      swap1\n      0x20\n      add\n      dup1\n      dup4\n      gt\n      tag_127\n      jumpi\n      dup3\n      swap1\n      sub\n      0x1f\n      and\n      dup3\n      add\n      swap2\n    tag_125:\n      pop\n      pop\n      pop\n      pop\n      pop\n      dup2\n      mstore\n      0x20\n      add\n      0x06\n      dup3\n      add\n      dup1\n      sload\n      dup1\n      0x20\n      mul\n      0x20\n      add\n      mload(0x40)\n      swap1\n      dup2\n      add\n      0x40\n      mstore\n      dup1\n      swap3\n      swap2\n      swap1\n      dup2\n      dup2\n      mstore\n      0x20\n      add\n      0x00\n      swap1\n    tag_128:\n      dup3\n      dup3\n      lt\n      iszero\n      tag_129\n      jumpi\n      dup4\n      dup3\n      swap1\n      0x00\n      mstore\n      keccak256(0x00, 0x20)\n      swap1\n      0x02\n      mul\n      add\n      mload(0x40)\n      dup1\n      0x40\n      add\n      0x40\n      mstore\n      swap1\n      dup2\n      0x00\n      dup3\n      add\n      dup1\n      sload\n      tag_131\n      swap1\n      tag_72\n      jump\t// in\n    tag_131:\n      dup1\n      0x1f\n      add\n      0x20\n      dup1\n      swap2\n      div\n      mul\n      0x20\n      add\n      mload(0x40)\n      swap1\n      dup2\n      add\n      0x40\n      mstore\n      dup1\n      swap3\n      swap2\n      swap1\n      dup2\n      dup2\n      mstore\n      0x20\n      add\n      dup3\n      dup1\n      sload\n      tag_132\n      swap1\n      tag_72\n      jump\t// in\n    tag_132:\n      dup1\n      iszero\n      tag_133\n      jumpi\n      dup1\n      0x1f\n      lt\n      tag_134\n      jumpi\n      0x0100\n      dup1\n      dup4\n      sload\n      div\n      mul\n      dup4\n      mstore\n      swap2\n      0x20\n      add\n      swap2\n      jump(tag_133)\n    tag_134:\n      dup3\n      add\n      swap2\n      swap1\n      0x00\n      mstore\n      keccak256(0x00, 0x20)\n      swap1\n    tag_135:\n      dup2\n      sload\n      dup2\n      mstore\n      swap1\n      0x01\n      add\n      swap1\n      0x20\n      add\n      dup1\n      dup4\n      gt\n      tag_135\n      jumpi\n      dup3\n      swap1\n      sub\n      0x1f\n      and\n      dup3\n      add\n      swap2\n    tag_133:\n      pop\n      pop\n      pop\n      pop\n      pop\n      dup2\n      mstore\n      0x20\n      add\n      0x01\n      dup3\n      add\n      dup1\n      sload\n      tag_136\n      swap1\n      tag_72\n      jump\t// in\n    tag_136:\n      dup1\n      0x1f\n      add\n      0x20\n      dup1\n      swap2\n      div\n      mul\n      0x20\n      add\n      mload(0x40)\n      swap1\n      dup2\n      add\n      0x40\n      mstore\n      dup1\n      swap3\n      swap2\n      swap1\n      dup2\n      dup2\n      mstore\n      0x20\n      add\n      dup3\n      dup1\n      sload\n      tag_137\n      swap1\n      tag_72\n      jump\t// in\n    tag_137:\n      dup1\n      iszero\n      tag_138\n      jumpi\n      dup1\n      0x1f\n      lt\n      tag_139\n      jumpi\n      0x0100\n      dup1\n      dup4\n      sload\n      div\n      mul\n      dup4\n      mstore\n      swap2\n      0x20\n      add\n      swap2\n      jump(tag_138)\n    tag_139:\n      dup3\n      add\n      swap2\n      swap1\n      0x00\n      mstore\n      keccak256(0x00, 0x20)\n      swap1\n    tag_140:\n      dup2\n      sload\n      dup2\n      mstore\n      swap1\n      0x01\n      add\n      swap1\n      0x20\n      add\n      dup1\n      dup4\n      gt\n      tag_140\n      jumpi\n      dup3\n      swap1\n      sub\n      0x1f\n      and\n      dup3\n      add\n      swap2\n    tag_138:\n      pop\n      pop\n      pop\n      pop\n      pop\n      dup2\n      mstore\n      pop\n      pop\n      dup2\n      mstore\n      0x20\n      add\n      swap1\n      0x01\n      add\n      swap1\n      jump(tag_128)\n    tag_129:\n      pop\n      pop\n      pop\n      pop\n      dup2\n      mstore\n      pop\n      pop\n      swap1\n      pop\n        /* \"contracts/contractApi.sol\":2935:2948  smartContract */\n      dup1\n        /* \"contracts/contractApi.sol\":2928:2948  return smartContract */\n      swap2\n      pop\n      pop\n        /* \"contracts/contractApi.sol\":2755:2955  function getSmartContractById(... */\n      swap2\n      swap1\n      pop\n      jump\t// out\n        /* \"contracts/contractApi.sol\":3319:3423  function getAddressContract() external view returns (uint) {... */\n    tag_59:\n        /* \"contracts/contractApi.sol\":3372:3376  uint */\n      0x00\n        /* \"contracts/contractApi.sol\":3395:3416  address(this).balance */\n      selfbalance\n        /* \"contracts/contractApi.sol\":3388:3416  return address(this).balance */\n      swap1\n      pop\n        /* \"contracts/contractApi.sol\":3319:3423  function getAddressContract() external view returns (uint) {... */\n      swap1\n      jump\t// out\n    tag_111:\n      dup3\n      dup1\n      sload\n      dup3\n      dup3\n      sstore\n      swap1\n      0x00\n      mstore\n      keccak256(0x00, 0x20)\n      swap1\n      0x02\n      mul\n      dup2\n      add\n      swap3\n      dup3\n      iszero\n      tag_142\n      jumpi\n      0x00\n      mstore\n      keccak256(0x00, 0x20)\n      swap2\n      0x02\n      mul\n      dup3\n      add\n    tag_143:\n      dup3\n      dup2\n      gt\n      iszero\n      tag_144\n      jumpi\n      dup3\n      dup3\n      0x00\n      dup3\n      add\n      dup2\n      0x00\n      add\n      swap1\n      dup2\n      tag_145\n      swap2\n      swap1\n      tag_109\n      jump\t// in\n    tag_145:\n      pop\n      0x01\n      dup3\n      add\n      dup2\n      0x01\n      add\n      swap1\n      dup2\n      tag_146\n      swap2\n      swap1\n      tag_109\n      jump\t// in\n    tag_146:\n      pop\n      pop\n      pop\n      swap2\n      0x02\n      add\n      swap2\n      swap1\n      0x02\n      add\n      swap1\n      jump(tag_143)\n    tag_144:\n    tag_142:\n      pop\n      swap1\n      pop\n      tag_147\n      swap2\n      swap1\n      tag_148\n      jump\t// in\n    tag_147:\n      pop\n      swap1\n      jump\t// out\n    tag_121:\n      mload(0x40)\n      dup1\n      0x0120\n      add\n      0x40\n      mstore\n      dup1\n      0x00\n      dup2\n      mstore\n      0x20\n      add\n      and(0xffffffffffffffffffffffffffffffffffffffff, 0x00)\n      dup2\n      mstore\n      0x20\n      add\n      and(0xffffffffffffffffffffffffffffffffffffffff, 0x00)\n      dup2\n      mstore\n      0x20\n      add\n      0x00\n      dup2\n      mstore\n      0x20\n      add\n      and(0xffffffff, 0x00)\n      dup2\n      mstore\n      0x20\n      add\n      and(0xffffffff, 0x00)\n      dup2\n      mstore\n      0x20\n      add\n      and(0xffffffff, 0x00)\n      dup2\n      mstore\n      0x20\n      add\n      0x60\n      dup2\n      mstore\n      0x20\n      add\n      0x60\n      dup2\n      mstore\n      pop\n      swap1\n      jump\t// out\n    tag_148:\n    tag_149:\n      dup1\n      dup3\n      gt\n      iszero\n      tag_150\n      jumpi\n      0x00\n      dup1\n      dup3\n      add\n      0x00\n      tag_151\n      swap2\n      swap1\n      tag_152\n      jump\t// in\n    tag_151:\n      0x01\n      dup3\n      add\n      0x00\n      tag_153\n      swap2\n      swap1\n      tag_152\n      jump\t// in\n    tag_153:\n      pop\n      0x02\n      add\n      jump(tag_149)\n    tag_150:\n      pop\n      swap1\n      jump\t// out\n    tag_152:\n      pop\n      dup1\n      sload\n      tag_154\n      swap1\n      tag_72\n      jump\t// in\n    tag_154:\n      0x00\n      dup3\n      sstore\n      dup1\n      0x1f\n      lt\n      tag_156\n      jumpi\n      pop\n      jump(tag_155)\n    tag_156:\n      0x1f\n      add\n      0x20\n      swap1\n      div\n      swap1\n      0x00\n      mstore\n      keccak256(0x00, 0x20)\n      swap1\n      dup2\n      add\n      swap1\n      tag_157\n      swap2\n      swap1\n      tag_158\n      jump\t// in\n    tag_157:\n    tag_155:\n      pop\n      jump\t// out\n    tag_158:\n    tag_159:\n      dup1\n      dup3\n      gt\n      iszero\n      tag_160\n      jumpi\n      0x00\n      dup2\n      0x00\n      swap1\n      sstore\n      pop\n      0x01\n      add\n      jump(tag_159)\n    tag_160:\n      pop\n      swap1\n      jump\t// out\n        /* \"#utility.yul\":7:176   */\n    tag_161:\n        /* \"#utility.yul\":91:102   */\n      0x00\n        /* \"#utility.yul\":125:131   */\n      dup3\n        /* \"#utility.yul\":120:123   */\n      dup3\n        /* \"#utility.yul\":113:132   */\n      mstore\n        /* \"#utility.yul\":165:169   */\n      0x20\n        /* \"#utility.yul\":160:163   */\n      dup3\n        /* \"#utility.yul\":156:170   */\n      add\n        /* \"#utility.yul\":141:170   */\n      swap1\n      pop\n        /* \"#utility.yul\":7:176   */\n      swap3\n      swap2\n      pop\n      pop\n      jump\t// out\n        /* \"#utility.yul\":182:353   */\n    tag_162:\n        /* \"#utility.yul\":322:345   */\n      0x52656369657665207265636569766520746f6b656e0000000000000000000000\n        /* \"#utility.yul\":318:319   */\n      0x00\n        /* \"#utility.yul\":310:316   */\n      dup3\n        /* \"#utility.yul\":306:320   */\n      add\n        /* \"#utility.yul\":299:346   */\n      mstore\n        /* \"#utility.yul\":182:353   */\n      pop\n      jump\t// out\n        /* \"#utility.yul\":359:725   */\n    tag_163:\n        /* \"#utility.yul\":501:504   */\n      0x00\n        /* \"#utility.yul\":522:589   */\n      tag_247\n        /* \"#utility.yul\":586:588   */\n      0x15\n        /* \"#utility.yul\":581:584   */\n      dup4\n        /* \"#utility.yul\":522:589   */\n      tag_161\n      jump\t// in\n    tag_247:\n        /* \"#utility.yul\":515:589   */\n      swap2\n      pop\n        /* \"#utility.yul\":598:691   */\n      tag_248\n        /* \"#utility.yul\":687:690   */\n      dup3\n        /* \"#utility.yul\":598:691   */\n      tag_162\n      jump\t// in\n    tag_248:\n        /* \"#utility.yul\":716:718   */\n      0x20\n        /* \"#utility.yul\":711:714   */\n      dup3\n        /* \"#utility.yul\":707:719   */\n      add\n        /* \"#utility.yul\":700:719   */\n      swap1\n      pop\n        /* \"#utility.yul\":359:725   */\n      swap2\n      swap1\n      pop\n      jump\t// out\n        /* \"#utility.yul\":731:857   */\n    tag_164:\n        /* \"#utility.yul\":768:775   */\n      0x00\n        /* \"#utility.yul\":808:850   */\n      0xffffffffffffffffffffffffffffffffffffffff\n        /* \"#utility.yul\":801:806   */\n      dup3\n        /* \"#utility.yul\":797:851   */\n      and\n        /* \"#utility.yul\":786:851   */\n      swap1\n      pop\n        /* \"#utility.yul\":731:857   */\n      swap2\n      swap1\n      pop\n      jump\t// out\n        /* \"#utility.yul\":863:959   */\n    tag_165:\n        /* \"#utility.yul\":900:907   */\n      0x00\n        /* \"#utility.yul\":929:953   */\n      tag_251\n        /* \"#utility.yul\":947:952   */\n      dup3\n        /* \"#utility.yul\":929:953   */\n      tag_164\n      jump\t// in\n    tag_251:\n        /* \"#utility.yul\":918:953   */\n      swap1\n      pop\n        /* \"#utility.yul\":863:959   */\n      swap2\n      swap1\n      pop\n      jump\t// out\n        /* \"#utility.yul\":965:1083   */\n    tag_166:\n        /* \"#utility.yul\":1052:1076   */\n      tag_253\n        /* \"#utility.yul\":1070:1075   */\n      dup2\n        /* \"#utility.yul\":1052:1076   */\n      tag_165\n      jump\t// in\n    tag_253:\n        /* \"#utility.yul\":1047:1050   */\n      dup3\n        /* \"#utility.yul\":1040:1077   */\n      mstore\n        /* \"#utility.yul\":965:1083   */\n      pop\n      pop\n      jump\t// out\n        /* \"#utility.yul\":1089:1618   */\n    tag_15:\n        /* \"#utility.yul\":1283:1287   */\n      0x00\n        /* \"#utility.yul\":1321:1323   */\n      0x40\n        /* \"#utility.yul\":1310:1319   */\n      dup3\n        /* \"#utility.yul\":1306:1324   */\n      add\n        /* \"#utility.yul\":1298:1324   */\n      swap1\n      pop\n        /* \"#utility.yul\":1370:1379   */\n      dup2\n        /* \"#utility.yul\":1364:1368   */\n      dup2\n        /* \"#utility.yul\":1360:1380   */\n      sub\n        /* \"#utility.yul\":1356:1357   */\n      0x00\n        /* \"#utility.yul\":1345:1354   */\n      dup4\n        /* \"#utility.yul\":1341:1358   */\n      add\n        /* \"#utility.yul\":1334:1381   */\n      mstore\n        /* \"#utility.yul\":1398:1529   */\n      tag_255\n        /* \"#utility.yul\":1524:1528   */\n      dup2\n        /* \"#utility.yul\":1398:1529   */\n      tag_163\n      jump\t// in\n    tag_255:\n        /* \"#utility.yul\":1390:1529   */\n      swap1\n      pop\n        /* \"#utility.yul\":1539:1611   */\n      tag_256\n        /* \"#utility.yul\":1607:1609   */\n      0x20\n        /* \"#utility.yul\":1596:1605   */\n      dup4\n        /* \"#utility.yul\":1592:1610   */\n      add\n        /* \"#utility.yul\":1583:1589   */\n      dup5\n        /* \"#utility.yul\":1539:1611   */\n      tag_166\n      jump\t// in\n    tag_256:\n        /* \"#utility.yul\":1089:1618   */\n      swap3\n      swap2\n      pop\n      pop\n      jump\t// out\n        /* \"#utility.yul\":1624:1796   */\n    tag_167:\n        /* \"#utility.yul\":1764:1788   */\n      0x526563696576652066616c6c6261636b20746f6b656e00000000000000000000\n        /* \"#utility.yul\":1760:1761   */\n      0x00\n        /* \"#utility.yul\":1752:1758   */\n      dup3\n        /* \"#utility.yul\":1748:1762   */\n      add\n        /* \"#utility.yul\":1741:1789   */\n      mstore\n        /* \"#utility.yul\":1624:1796   */\n      pop\n      jump\t// out\n        /* \"#utility.yul\":1802:2168   */\n    tag_168:\n        /* \"#utility.yul\":1944:1947   */\n      0x00\n        /* \"#utility.yul\":1965:2032   */\n      tag_259\n        /* \"#utility.yul\":2029:2031   */\n      0x16\n        /* \"#utility.yul\":2024:2027   */\n      dup4\n        /* \"#utility.yul\":1965:2032   */\n      tag_161\n      jump\t// in\n    tag_259:\n        /* \"#utility.yul\":1958:2032   */\n      swap2\n      pop\n        /* \"#utility.yul\":2041:2134   */\n      tag_260\n        /* \"#utility.yul\":2130:2133   */\n      dup3\n        /* \"#utility.yul\":2041:2134   */\n      tag_167\n      jump\t// in\n    tag_260:\n        /* \"#utility.yul\":2159:2161   */\n      0x20\n        /* \"#utility.yul\":2154:2157   */\n      dup3\n        /* \"#utility.yul\":2150:2162   */\n      add\n        /* \"#utility.yul\":2143:2162   */\n      swap1\n      pop\n        /* \"#utility.yul\":1802:2168   */\n      swap2\n      swap1\n      pop\n      jump\t// out\n        /* \"#utility.yul\":2174:2703   */\n    tag_19:\n        /* \"#utility.yul\":2368:2372   */\n      0x00\n        /* \"#utility.yul\":2406:2408   */\n      0x40\n        /* \"#utility.yul\":2395:2404   */\n      dup3\n        /* \"#utility.yul\":2391:2409   */\n      add\n        /* \"#utility.yul\":2383:2409   */\n      swap1\n      pop\n        /* \"#utility.yul\":2455:2464   */\n      dup2\n        /* \"#utility.yul\":2449:2453   */\n      dup2\n        /* \"#utility.yul\":2445:2465   */\n      sub\n        /* \"#utility.yul\":2441:2442   */\n      0x00\n        /* \"#utility.yul\":2430:2439   */\n      dup4\n        /* \"#utility.yul\":2426:2443   */\n      add\n        /* \"#utility.yul\":2419:2466   */\n      mstore\n        /* \"#utility.yul\":2483:2614   */\n      tag_262\n        /* \"#utility.yul\":2609:2613   */\n      dup2\n        /* \"#utility.yul\":2483:2614   */\n      tag_168\n      jump\t// in\n    tag_262:\n        /* \"#utility.yul\":2475:2614   */\n      swap1\n      pop\n        /* \"#utility.yul\":2624:2696   */\n      tag_263\n        /* \"#utility.yul\":2692:2694   */\n      0x20\n        /* \"#utility.yul\":2681:2690   */\n      dup4\n        /* \"#utility.yul\":2677:2695   */\n      add\n        /* \"#utility.yul\":2668:2674   */\n      dup5\n        /* \"#utility.yul\":2624:2696   */\n      tag_166\n      jump\t// in\n    tag_263:\n        /* \"#utility.yul\":2174:2703   */\n      swap3\n      swap2\n      pop\n      pop\n      jump\t// out\n        /* \"#utility.yul\":2709:2853   */\n    tag_169:\n        /* \"#utility.yul\":2806:2812   */\n      0x00\n        /* \"#utility.yul\":2840:2845   */\n      dup2\n        /* \"#utility.yul\":2834:2846   */\n      mload\n        /* \"#utility.yul\":2824:2846   */\n      swap1\n      pop\n        /* \"#utility.yul\":2709:2853   */\n      swap2\n      swap1\n      pop\n      jump\t// out\n        /* \"#utility.yul\":2859:3073   */\n    tag_170:\n        /* \"#utility.yul\":2988:2999   */\n      0x00\n        /* \"#utility.yul\":3022:3028   */\n      dup3\n        /* \"#utility.yul\":3017:3020   */\n      dup3\n        /* \"#utility.yul\":3010:3029   */\n      mstore\n        /* \"#utility.yul\":3062:3066   */\n      0x20\n        /* \"#utility.yul\":3057:3060   */\n      dup3\n        /* \"#utility.yul\":3053:3067   */\n      add\n        /* \"#utility.yul\":3038:3067   */\n      swap1\n      pop\n        /* \"#utility.yul\":2859:3073   */\n      swap3\n      swap2\n      pop\n      pop\n      jump\t// out\n        /* \"#utility.yul\":3079:3241   */\n    tag_171:\n        /* \"#utility.yul\":3176:3180   */\n      0x00\n        /* \"#utility.yul\":3199:3202   */\n      dup2\n        /* \"#utility.yul\":3191:3202   */\n      swap1\n      pop\n        /* \"#utility.yul\":3229:3233   */\n      0x20\n        /* \"#utility.yul\":3224:3227   */\n      dup3\n        /* \"#utility.yul\":3220:3234   */\n      add\n        /* \"#utility.yul\":3212:3234   */\n      swap1\n      pop\n        /* \"#utility.yul\":3079:3241   */\n      swap2\n      swap1\n      pop\n      jump\t// out\n        /* \"#utility.yul\":3247:3324   */\n    tag_172:\n        /* \"#utility.yul\":3284:3291   */\n      0x00\n        /* \"#utility.yul\":3313:3318   */\n      dup2\n        /* \"#utility.yul\":3302:3318   */\n      swap1\n      pop\n        /* \"#utility.yul\":3247:3324   */\n      swap2\n      swap1\n      pop\n      jump\t// out\n        /* \"#utility.yul\":3330:3438   */\n    tag_173:\n        /* \"#utility.yul\":3407:3431   */\n      tag_269\n        /* \"#utility.yul\":3425:3430   */\n      dup2\n        /* \"#utility.yul\":3407:3431   */\n      tag_172\n      jump\t// in\n    tag_269:\n        /* \"#utility.yul\":3402:3405   */\n      dup3\n        /* \"#utility.yul\":3395:3432   */\n      mstore\n        /* \"#utility.yul\":3330:3438   */\n      pop\n      pop\n      jump\t// out\n        /* \"#utility.yul\":3444:3552   */\n    tag_174:\n        /* \"#utility.yul\":3521:3545   */\n      tag_271\n        /* \"#utility.yul\":3539:3544   */\n      dup2\n        /* \"#utility.yul\":3521:3545   */\n      tag_165\n      jump\t// in\n    tag_271:\n        /* \"#utility.yul\":3516:3519   */\n      dup3\n        /* \"#utility.yul\":3509:3546   */\n      mstore\n        /* \"#utility.yul\":3444:3552   */\n      pop\n      pop\n      jump\t// out\n        /* \"#utility.yul\":3558:3651   */\n    tag_175:\n        /* \"#utility.yul\":3594:3601   */\n      0x00\n        /* \"#utility.yul\":3634:3644   */\n      0xffffffff\n        /* \"#utility.yul\":3627:3632   */\n      dup3\n        /* \"#utility.yul\":3623:3645   */\n      and\n        /* \"#utility.yul\":3612:3645   */\n      swap1\n      pop\n        /* \"#utility.yul\":3558:3651   */\n      swap2\n      swap1\n      pop\n      jump\t// out\n        /* \"#utility.yul\":3657:3762   */\n    tag_176:\n        /* \"#utility.yul\":3732:3755   */\n      tag_274\n        /* \"#utility.yul\":3749:3754   */\n      dup2\n        /* \"#utility.yul\":3732:3755   */\n      tag_175\n      jump\t// in\n    tag_274:\n        /* \"#utility.yul\":3727:3730   */\n      dup3\n        /* \"#utility.yul\":3720:3756   */\n      mstore\n        /* \"#utility.yul\":3657:3762   */\n      pop\n      pop\n      jump\t// out\n        /* \"#utility.yul\":3768:3867   */\n    tag_177:\n        /* \"#utility.yul\":3820:3826   */\n      0x00\n        /* \"#utility.yul\":3854:3859   */\n      dup2\n        /* \"#utility.yul\":3848:3860   */\n      mload\n        /* \"#utility.yul\":3838:3860   */\n      swap1\n      pop\n        /* \"#utility.yul\":3768:3867   */\n      swap2\n      swap1\n      pop\n      jump\t// out\n        /* \"#utility.yul\":3873:4032   */\n    tag_178:\n        /* \"#utility.yul\":3947:3958   */\n      0x00\n        /* \"#utility.yul\":3981:3987   */\n      dup3\n        /* \"#utility.yul\":3976:3979   */\n      dup3\n        /* \"#utility.yul\":3969:3988   */\n      mstore\n        /* \"#utility.yul\":4021:4025   */\n      0x20\n        /* \"#utility.yul\":4016:4019   */\n      dup3\n        /* \"#utility.yul\":4012:4026   */\n      add\n        /* \"#utility.yul\":3997:4026   */\n      swap1\n      pop\n        /* \"#utility.yul\":3873:4032   */\n      swap3\n      swap2\n      pop\n      pop\n      jump\t// out\n        /* \"#utility.yul\":4038:4284   */\n    tag_179:\n        /* \"#utility.yul\":4119:4120   */\n      0x00\n        /* \"#utility.yul\":4129:4242   */\n    tag_278:\n        /* \"#utility.yul\":4143:4149   */\n      dup4\n        /* \"#utility.yul\":4140:4141   */\n      dup2\n        /* \"#utility.yul\":4137:4150   */\n      lt\n        /* \"#utility.yul\":4129:4242   */\n      iszero\n      tag_280\n      jumpi\n        /* \"#utility.yul\":4228:4229   */\n      dup1\n        /* \"#utility.yul\":4223:4226   */\n      dup3\n        /* \"#utility.yul\":4219:4230   */\n      add\n        /* \"#utility.yul\":4213:4231   */\n      mload\n        /* \"#utility.yul\":4209:4210   */\n      dup2\n        /* \"#utility.yul\":4204:4207   */\n      dup5\n        /* \"#utility.yul\":4200:4211   */\n      add\n        /* \"#utility.yul\":4193:4232   */\n      mstore\n        /* \"#utility.yul\":4165:4167   */\n      0x20\n        /* \"#utility.yul\":4162:4163   */\n      dup2\n        /* \"#utility.yul\":4158:4168   */\n      add\n        /* \"#utility.yul\":4153:4168   */\n      swap1\n      pop\n        /* \"#utility.yul\":4129:4242   */\n      jump(tag_278)\n    tag_280:\n        /* \"#utility.yul\":4276:4277   */\n      0x00\n        /* \"#utility.yul\":4267:4273   */\n      dup5\n        /* \"#utility.yul\":4262:4265   */\n      dup5\n        /* \"#utility.yul\":4258:4274   */\n      add\n        /* \"#utility.yul\":4251:4278   */\n      mstore\n        /* \"#utility.yul\":4100:4284   */\n      pop\n        /* \"#utility.yul\":4038:4284   */\n      pop\n      pop\n      pop\n      jump\t// out\n        /* \"#utility.yul\":4290:4392   */\n    tag_180:\n        /* \"#utility.yul\":4331:4337   */\n      0x00\n        /* \"#utility.yul\":4382:4384   */\n      0x1f\n        /* \"#utility.yul\":4378:4385   */\n      not\n        /* \"#utility.yul\":4373:4375   */\n      0x1f\n        /* \"#utility.yul\":4366:4371   */\n      dup4\n        /* \"#utility.yul\":4362:4376   */\n      add\n        /* \"#utility.yul\":4358:4386   */\n      and\n        /* \"#utility.yul\":4348:4386   */\n      swap1\n      pop\n        /* \"#utility.yul\":4290:4392   */\n      swap2\n      swap1\n      pop\n      jump\t// out\n        /* \"#utility.yul\":4398:4755   */\n    tag_181:\n        /* \"#utility.yul\":4476:4479   */\n      0x00\n        /* \"#utility.yul\":4504:4543   */\n      tag_283\n        /* \"#utility.yul\":4537:4542   */\n      dup3\n        /* \"#utility.yul\":4504:4543   */\n      tag_177\n      jump\t// in\n    tag_283:\n        /* \"#utility.yul\":4559:4620   */\n      tag_284\n        /* \"#utility.yul\":4613:4619   */\n      dup2\n        /* \"#utility.yul\":4608:4611   */\n      dup6\n        /* \"#utility.yul\":4559:4620   */\n      tag_178\n      jump\t// in\n    tag_284:\n        /* \"#utility.yul\":4552:4620   */\n      swap4\n      pop\n        /* \"#utility.yul\":4629:4694   */\n      tag_285\n        /* \"#utility.yul\":4687:4693   */\n      dup2\n        /* \"#utility.yul\":4682:4685   */\n      dup6\n        /* \"#utility.yul\":4675:4679   */\n      0x20\n        /* \"#utility.yul\":4668:4673   */\n      dup7\n        /* \"#utility.yul\":4664:4680   */\n      add\n        /* \"#utility.yul\":4629:4694   */\n      tag_179\n      jump\t// in\n    tag_285:\n        /* \"#utility.yul\":4719:4748   */\n      tag_286\n        /* \"#utility.yul\":4741:4747   */\n      dup2\n        /* \"#utility.yul\":4719:4748   */\n      tag_180\n      jump\t// in\n    tag_286:\n        /* \"#utility.yul\":4714:4717   */\n      dup5\n        /* \"#utility.yul\":4710:4749   */\n      add\n        /* \"#utility.yul\":4703:4749   */\n      swap2\n      pop\n        /* \"#utility.yul\":4480:4755   */\n      pop\n        /* \"#utility.yul\":4398:4755   */\n      swap3\n      swap2\n      pop\n      pop\n      jump\t// out\n        /* \"#utility.yul\":4761:4894   */\n    tag_182:\n        /* \"#utility.yul\":4847:4853   */\n      0x00\n        /* \"#utility.yul\":4881:4886   */\n      dup2\n        /* \"#utility.yul\":4875:4887   */\n      mload\n        /* \"#utility.yul\":4865:4887   */\n      swap1\n      pop\n        /* \"#utility.yul\":4761:4894   */\n      swap2\n      swap1\n      pop\n      jump\t// out\n        /* \"#utility.yul\":4900:5093   */\n    tag_183:\n        /* \"#utility.yul\":5008:5019   */\n      0x00\n        /* \"#utility.yul\":5042:5048   */\n      dup3\n        /* \"#utility.yul\":5037:5040   */\n      dup3\n        /* \"#utility.yul\":5030:5049   */\n      mstore\n        /* \"#utility.yul\":5082:5086   */\n      0x20\n        /* \"#utility.yul\":5077:5080   */\n      dup3\n        /* \"#utility.yul\":5073:5087   */\n      add\n        /* \"#utility.yul\":5058:5087   */\n      swap1\n      pop\n        /* \"#utility.yul\":4900:5093   */\n      swap3\n      swap2\n      pop\n      pop\n      jump\t// out\n        /* \"#utility.yul\":5099:5250   */\n    tag_184:\n        /* \"#utility.yul\":5185:5189   */\n      0x00\n        /* \"#utility.yul\":5208:5211   */\n      dup2\n        /* \"#utility.yul\":5200:5211   */\n      swap1\n      pop\n        /* \"#utility.yul\":5238:5242   */\n      0x20\n        /* \"#utility.yul\":5233:5236   */\n      dup3\n        /* \"#utility.yul\":5229:5243   */\n      add\n        /* \"#utility.yul\":5221:5243   */\n      swap1\n      pop\n        /* \"#utility.yul\":5099:5250   */\n      swap2\n      swap1\n      pop\n      jump\t// out\n        /* \"#utility.yul\":5318:5976   */\n    tag_185:\n        /* \"#utility.yul\":5415:5418   */\n      0x00\n        /* \"#utility.yul\":5451:5455   */\n      0x40\n        /* \"#utility.yul\":5446:5449   */\n      dup4\n        /* \"#utility.yul\":5442:5456   */\n      add\n        /* \"#utility.yul\":5538:5542   */\n      0x00\n        /* \"#utility.yul\":5531:5536   */\n      dup4\n        /* \"#utility.yul\":5527:5543   */\n      add\n        /* \"#utility.yul\":5521:5544   */\n      mload\n        /* \"#utility.yul\":5591:5594   */\n      dup5\n        /* \"#utility.yul\":5585:5589   */\n      dup3\n        /* \"#utility.yul\":5581:5595   */\n      sub\n        /* \"#utility.yul\":5574:5578   */\n      0x00\n        /* \"#utility.yul\":5569:5572   */\n      dup7\n        /* \"#utility.yul\":5565:5579   */\n      add\n        /* \"#utility.yul\":5558:5596   */\n      mstore\n        /* \"#utility.yul\":5617:5690   */\n      tag_291\n        /* \"#utility.yul\":5685:5689   */\n      dup3\n        /* \"#utility.yul\":5671:5683   */\n      dup3\n        /* \"#utility.yul\":5617:5690   */\n      tag_181\n      jump\t// in\n    tag_291:\n        /* \"#utility.yul\":5609:5690   */\n      swap2\n      pop\n        /* \"#utility.yul\":5466:5701   */\n      pop\n        /* \"#utility.yul\":5786:5790   */\n      0x20\n        /* \"#utility.yul\":5779:5784   */\n      dup4\n        /* \"#utility.yul\":5775:5791   */\n      add\n        /* \"#utility.yul\":5769:5792   */\n      mload\n        /* \"#utility.yul\":5839:5842   */\n      dup5\n        /* \"#utility.yul\":5833:5837   */\n      dup3\n        /* \"#utility.yul\":5829:5843   */\n      sub\n        /* \"#utility.yul\":5822:5826   */\n      0x20\n        /* \"#utility.yul\":5817:5820   */\n      dup7\n        /* \"#utility.yul\":5813:5827   */\n      add\n        /* \"#utility.yul\":5806:5844   */\n      mstore\n        /* \"#utility.yul\":5865:5938   */\n      tag_292\n        /* \"#utility.yul\":5933:5937   */\n      dup3\n        /* \"#utility.yul\":5919:5931   */\n      dup3\n        /* \"#utility.yul\":5865:5938   */\n      tag_181\n      jump\t// in\n    tag_292:\n        /* \"#utility.yul\":5857:5938   */\n      swap2\n      pop\n        /* \"#utility.yul\":5711:5949   */\n      pop\n        /* \"#utility.yul\":5966:5970   */\n      dup1\n        /* \"#utility.yul\":5959:5970   */\n      swap2\n      pop\n        /* \"#utility.yul\":5420:5976   */\n      pop\n        /* \"#utility.yul\":5318:5976   */\n      swap3\n      swap2\n      pop\n      pop\n      jump\t// out\n        /* \"#utility.yul\":5982:6214   */\n    tag_186:\n        /* \"#utility.yul\":6089:6099   */\n      0x00\n        /* \"#utility.yul\":6124:6208   */\n      tag_294\n        /* \"#utility.yul\":6204:6207   */\n      dup4\n        /* \"#utility.yul\":6196:6202   */\n      dup4\n        /* \"#utility.yul\":6124:6208   */\n      tag_185\n      jump\t// in\n    tag_294:\n        /* \"#utility.yul\":6110:6208   */\n      swap1\n      pop\n        /* \"#utility.yul\":5982:6214   */\n      swap3\n      swap2\n      pop\n      pop\n      jump\t// out\n        /* \"#utility.yul\":6220:6352   */\n    tag_187:\n        /* \"#utility.yul\":6309:6313   */\n      0x00\n        /* \"#utility.yul\":6341:6345   */\n      0x20\n        /* \"#utility.yul\":6336:6339   */\n      dup3\n        /* \"#utility.yul\":6332:6346   */\n      add\n        /* \"#utility.yul\":6324:6346   */\n      swap1\n      pop\n        /* \"#utility.yul\":6220:6352   */\n      swap2\n      swap1\n      pop\n      jump\t// out\n        /* \"#utility.yul\":6424:7467   */\n    tag_188:\n        /* \"#utility.yul\":6571:6574   */\n      0x00\n        /* \"#utility.yul\":6600:6673   */\n      tag_297\n        /* \"#utility.yul\":6667:6672   */\n      dup3\n        /* \"#utility.yul\":6600:6673   */\n      tag_182\n      jump\t// in\n    tag_297:\n        /* \"#utility.yul\":6689:6784   */\n      tag_298\n        /* \"#utility.yul\":6777:6783   */\n      dup2\n        /* \"#utility.yul\":6772:6775   */\n      dup6\n        /* \"#utility.yul\":6689:6784   */\n      tag_183\n      jump\t// in\n    tag_298:\n        /* \"#utility.yul\":6682:6784   */\n      swap4\n      pop\n        /* \"#utility.yul\":6810:6813   */\n      dup4\n        /* \"#utility.yul\":6855:6859   */\n      0x20\n        /* \"#utility.yul\":6847:6853   */\n      dup3\n        /* \"#utility.yul\":6843:6860   */\n      mul\n        /* \"#utility.yul\":6838:6841   */\n      dup6\n        /* \"#utility.yul\":6834:6861   */\n      add\n        /* \"#utility.yul\":6885:6960   */\n      tag_299\n        /* \"#utility.yul\":6954:6959   */\n      dup6\n        /* \"#utility.yul\":6885:6960   */\n      tag_184\n      jump\t// in\n    tag_299:\n        /* \"#utility.yul\":6983:6990   */\n      dup1\n        /* \"#utility.yul\":7014:7015   */\n      0x00\n        /* \"#utility.yul\":6999:7422   */\n    tag_300:\n        /* \"#utility.yul\":7024:7030   */\n      dup6\n        /* \"#utility.yul\":7021:7022   */\n      dup2\n        /* \"#utility.yul\":7018:7031   */\n      lt\n        /* \"#utility.yul\":6999:7422   */\n      iszero\n      tag_302\n      jumpi\n        /* \"#utility.yul\":7095:7104   */\n      dup5\n        /* \"#utility.yul\":7089:7093   */\n      dup5\n        /* \"#utility.yul\":7085:7105   */\n      sub\n        /* \"#utility.yul\":7080:7083   */\n      dup10\n        /* \"#utility.yul\":7073:7106   */\n      mstore\n        /* \"#utility.yul\":7146:7152   */\n      dup2\n        /* \"#utility.yul\":7140:7153   */\n      mload\n        /* \"#utility.yul\":7174:7276   */\n      tag_303\n        /* \"#utility.yul\":7271:7275   */\n      dup6\n        /* \"#utility.yul\":7256:7269   */\n      dup3\n        /* \"#utility.yul\":7174:7276   */\n      tag_186\n      jump\t// in\n    tag_303:\n        /* \"#utility.yul\":7166:7276   */\n      swap5\n      pop\n        /* \"#utility.yul\":7299:7378   */\n      tag_304\n        /* \"#utility.yul\":7371:7377   */\n      dup4\n        /* \"#utility.yul\":7299:7378   */\n      tag_187\n      jump\t// in\n    tag_304:\n        /* \"#utility.yul\":7289:7378   */\n      swap3\n      pop\n        /* \"#utility.yul\":7407:7411   */\n      0x20\n        /* \"#utility.yul\":7402:7405   */\n      dup11\n        /* \"#utility.yul\":7398:7412   */\n      add\n        /* \"#utility.yul\":7391:7412   */\n      swap10\n      pop\n        /* \"#utility.yul\":7059:7422   */\n      pop\n        /* \"#utility.yul\":7046:7047   */\n      0x01\n        /* \"#utility.yul\":7043:7044   */\n      dup2\n        /* \"#utility.yul\":7039:7048   */\n      add\n        /* \"#utility.yul\":7034:7048   */\n      swap1\n      pop\n        /* \"#utility.yul\":6999:7422   */\n      jump(tag_300)\n    tag_302:\n        /* \"#utility.yul\":7003:7017   */\n      pop\n        /* \"#utility.yul\":7438:7442   */\n      dup3\n        /* \"#utility.yul\":7431:7442   */\n      swap8\n      pop\n        /* \"#utility.yul\":7458:7461   */\n      dup8\n        /* \"#utility.yul\":7451:7461   */\n      swap6\n      pop\n        /* \"#utility.yul\":6576:7467   */\n      pop\n      pop\n      pop\n      pop\n      pop\n        /* \"#utility.yul\":6424:7467   */\n      swap3\n      swap2\n      pop\n      pop\n      jump\t// out\n        /* \"#utility.yul\":7555:9557   */\n    tag_189:\n        /* \"#utility.yul\":7674:7677   */\n      0x00\n        /* \"#utility.yul\":7710:7716   */\n      0x0120\n        /* \"#utility.yul\":7705:7708   */\n      dup4\n        /* \"#utility.yul\":7701:7717   */\n      add\n        /* \"#utility.yul\":7797:7801   */\n      0x00\n        /* \"#utility.yul\":7790:7795   */\n      dup4\n        /* \"#utility.yul\":7786:7802   */\n      add\n        /* \"#utility.yul\":7780:7803   */\n      mload\n        /* \"#utility.yul\":7816:7879   */\n      tag_306\n        /* \"#utility.yul\":7873:7877   */\n      0x00\n        /* \"#utility.yul\":7868:7871   */\n      dup7\n        /* \"#utility.yul\":7864:7878   */\n      add\n        /* \"#utility.yul\":7850:7862   */\n      dup3\n        /* \"#utility.yul\":7816:7879   */\n      tag_173\n      jump\t// in\n    tag_306:\n        /* \"#utility.yul\":7727:7889   */\n      pop\n        /* \"#utility.yul\":7973:7977   */\n      0x20\n        /* \"#utility.yul\":7966:7971   */\n      dup4\n        /* \"#utility.yul\":7962:7978   */\n      add\n        /* \"#utility.yul\":7956:7979   */\n      mload\n        /* \"#utility.yul\":7992:8055   */\n      tag_307\n        /* \"#utility.yul\":8049:8053   */\n      0x20\n        /* \"#utility.yul\":8044:8047   */\n      dup7\n        /* \"#utility.yul\":8040:8054   */\n      add\n        /* \"#utility.yul\":8026:8038   */\n      dup3\n        /* \"#utility.yul\":7992:8055   */\n      tag_174\n      jump\t// in\n    tag_307:\n        /* \"#utility.yul\":7899:8065   */\n      pop\n        /* \"#utility.yul\":8149:8153   */\n      0x40\n        /* \"#utility.yul\":8142:8147   */\n      dup4\n        /* \"#utility.yul\":8138:8154   */\n      add\n        /* \"#utility.yul\":8132:8155   */\n      mload\n        /* \"#utility.yul\":8168:8231   */\n      tag_308\n        /* \"#utility.yul\":8225:8229   */\n      0x40\n        /* \"#utility.yul\":8220:8223   */\n      dup7\n        /* \"#utility.yul\":8216:8230   */\n      add\n        /* \"#utility.yul\":8202:8214   */\n      dup3\n        /* \"#utility.yul\":8168:8231   */\n      tag_174\n      jump\t// in\n    tag_308:\n        /* \"#utility.yul\":8075:8241   */\n      pop\n        /* \"#utility.yul\":8327:8331   */\n      0x60\n        /* \"#utility.yul\":8320:8325   */\n      dup4\n        /* \"#utility.yul\":8316:8332   */\n      add\n        /* \"#utility.yul\":8310:8333   */\n      mload\n        /* \"#utility.yul\":8346:8409   */\n      tag_309\n        /* \"#utility.yul\":8403:8407   */\n      0x60\n        /* \"#utility.yul\":8398:8401   */\n      dup7\n        /* \"#utility.yul\":8394:8408   */\n      add\n        /* \"#utility.yul\":8380:8392   */\n      dup3\n        /* \"#utility.yul\":8346:8409   */\n      tag_173\n      jump\t// in\n    tag_309:\n        /* \"#utility.yul\":8251:8419   */\n      pop\n        /* \"#utility.yul\":8505:8509   */\n      0x80\n        /* \"#utility.yul\":8498:8503   */\n      dup4\n        /* \"#utility.yul\":8494:8510   */\n      add\n        /* \"#utility.yul\":8488:8511   */\n      mload\n        /* \"#utility.yul\":8524:8585   */\n      tag_310\n        /* \"#utility.yul\":8579:8583   */\n      0x80\n        /* \"#utility.yul\":8574:8577   */\n      dup7\n        /* \"#utility.yul\":8570:8584   */\n      add\n        /* \"#utility.yul\":8556:8568   */\n      dup3\n        /* \"#utility.yul\":8524:8585   */\n      tag_176\n      jump\t// in\n    tag_310:\n        /* \"#utility.yul\":8429:8595   */\n      pop\n        /* \"#utility.yul\":8682:8686   */\n      0xa0\n        /* \"#utility.yul\":8675:8680   */\n      dup4\n        /* \"#utility.yul\":8671:8687   */\n      add\n        /* \"#utility.yul\":8665:8688   */\n      mload\n        /* \"#utility.yul\":8701:8762   */\n      tag_311\n        /* \"#utility.yul\":8756:8760   */\n      0xa0\n        /* \"#utility.yul\":8751:8754   */\n      dup7\n        /* \"#utility.yul\":8747:8761   */\n      add\n        /* \"#utility.yul\":8733:8745   */\n      dup3\n        /* \"#utility.yul\":8701:8762   */\n      tag_176\n      jump\t// in\n    tag_311:\n        /* \"#utility.yul\":8605:8772   */\n      pop\n        /* \"#utility.yul\":8865:8869   */\n      0xc0\n        /* \"#utility.yul\":8858:8863   */\n      dup4\n        /* \"#utility.yul\":8854:8870   */\n      add\n        /* \"#utility.yul\":8848:8871   */\n      mload\n        /* \"#utility.yul\":8884:8945   */\n      tag_312\n        /* \"#utility.yul\":8939:8943   */\n      0xc0\n        /* \"#utility.yul\":8934:8937   */\n      dup7\n        /* \"#utility.yul\":8930:8944   */\n      add\n        /* \"#utility.yul\":8916:8928   */\n      dup3\n        /* \"#utility.yul\":8884:8945   */\n      tag_176\n      jump\t// in\n    tag_312:\n        /* \"#utility.yul\":8782:8955   */\n      pop\n        /* \"#utility.yul\":9045:9049   */\n      0xe0\n        /* \"#utility.yul\":9038:9043   */\n      dup4\n        /* \"#utility.yul\":9034:9050   */\n      add\n        /* \"#utility.yul\":9028:9051   */\n      mload\n        /* \"#utility.yul\":9098:9101   */\n      dup5\n        /* \"#utility.yul\":9092:9096   */\n      dup3\n        /* \"#utility.yul\":9088:9102   */\n      sub\n        /* \"#utility.yul\":9081:9085   */\n      0xe0\n        /* \"#utility.yul\":9076:9079   */\n      dup7\n        /* \"#utility.yul\":9072:9086   */\n      add\n        /* \"#utility.yul\":9065:9103   */\n      mstore\n        /* \"#utility.yul\":9124:9197   */\n      tag_313\n        /* \"#utility.yul\":9192:9196   */\n      dup3\n        /* \"#utility.yul\":9178:9190   */\n      dup3\n        /* \"#utility.yul\":9124:9197   */\n      tag_181\n      jump\t// in\n    tag_313:\n        /* \"#utility.yul\":9116:9197   */\n      swap2\n      pop\n        /* \"#utility.yul\":8965:9208   */\n      pop\n        /* \"#utility.yul\":9295:9301   */\n      0x0100\n        /* \"#utility.yul\":9288:9293   */\n      dup4\n        /* \"#utility.yul\":9284:9302   */\n      add\n        /* \"#utility.yul\":9278:9303   */\n      mload\n        /* \"#utility.yul\":9352:9355   */\n      dup5\n        /* \"#utility.yul\":9346:9350   */\n      dup3\n        /* \"#utility.yul\":9342:9356   */\n      sub\n        /* \"#utility.yul\":9333:9339   */\n      0x0100\n        /* \"#utility.yul\":9328:9331   */\n      dup7\n        /* \"#utility.yul\":9324:9340   */\n      add\n        /* \"#utility.yul\":9317:9357   */\n      mstore\n        /* \"#utility.yul\":9378:9519   */\n      tag_314\n        /* \"#utility.yul\":9514:9518   */\n      dup3\n        /* \"#utility.yul\":9500:9512   */\n      dup3\n        /* \"#utility.yul\":9378:9519   */\n      tag_188\n      jump\t// in\n    tag_314:\n        /* \"#utility.yul\":9370:9519   */\n      swap2\n      pop\n        /* \"#utility.yul\":9218:9530   */\n      pop\n        /* \"#utility.yul\":9547:9551   */\n      dup1\n        /* \"#utility.yul\":9540:9551   */\n      swap2\n      pop\n        /* \"#utility.yul\":7679:9557   */\n      pop\n        /* \"#utility.yul\":7555:9557   */\n      swap3\n      swap2\n      pop\n      pop\n      jump\t// out\n        /* \"#utility.yul\":9563:9839   */\n    tag_190:\n        /* \"#utility.yul\":9692:9702   */\n      0x00\n        /* \"#utility.yul\":9727:9833   */\n      tag_316\n        /* \"#utility.yul\":9829:9832   */\n      dup4\n        /* \"#utility.yul\":9821:9827   */\n      dup4\n        /* \"#utility.yul\":9727:9833   */\n      tag_189\n      jump\t// in\n    tag_316:\n        /* \"#utility.yul\":9713:9833   */\n      swap1\n      pop\n        /* \"#utility.yul\":9563:9839   */\n      swap3\n      swap2\n      pop\n      pop\n      jump\t// out\n        /* \"#utility.yul\":9845:9988   */\n    tag_191:\n        /* \"#utility.yul\":9945:9949   */\n      0x00\n        /* \"#utility.yul\":9977:9981   */\n      0x20\n        /* \"#utility.yul\":9972:9975   */\n      dup3\n        /* \"#utility.yul\":9968:9982   */\n      add\n        /* \"#utility.yul\":9960:9982   */\n      swap1\n      pop\n        /* \"#utility.yul\":9845:9988   */\n      swap2\n      swap1\n      pop\n      jump\t// out\n        /* \"#utility.yul\":10080:11231   */\n    tag_192:\n        /* \"#utility.yul\":10259:10262   */\n      0x00\n        /* \"#utility.yul\":10288:10372   */\n      tag_319\n        /* \"#utility.yul\":10366:10371   */\n      dup3\n        /* \"#utility.yul\":10288:10372   */\n      tag_169\n      jump\t// in\n    tag_319:\n        /* \"#utility.yul\":10388:10504   */\n      tag_320\n        /* \"#utility.yul\":10497:10503   */\n      dup2\n        /* \"#utility.yul\":10492:10495   */\n      dup6\n        /* \"#utility.yul\":10388:10504   */\n      tag_170\n      jump\t// in\n    tag_320:\n        /* \"#utility.yul\":10381:10504   */\n      swap4\n      pop\n        /* \"#utility.yul\":10530:10533   */\n      dup4\n        /* \"#utility.yul\":10575:10579   */\n      0x20\n        /* \"#utility.yul\":10567:10573   */\n      dup3\n        /* \"#utility.yul\":10563:10580   */\n      mul\n        /* \"#utility.yul\":10558:10561   */\n      dup6\n        /* \"#utility.yul\":10554:10581   */\n      add\n        /* \"#utility.yul\":10605:10691   */\n      tag_321\n        /* \"#utility.yul\":10685:10690   */\n      dup6\n        /* \"#utility.yul\":10605:10691   */\n      tag_171\n      jump\t// in\n    tag_321:\n        /* \"#utility.yul\":10714:10721   */\n      dup1\n        /* \"#utility.yul\":10745:10746   */\n      0x00\n        /* \"#utility.yul\":10730:11186   */\n    tag_322:\n        /* \"#utility.yul\":10755:10761   */\n      dup6\n        /* \"#utility.yul\":10752:10753   */\n      dup2\n        /* \"#utility.yul\":10749:10762   */\n      lt\n        /* \"#utility.yul\":10730:11186   */\n      iszero\n      tag_324\n      jumpi\n        /* \"#utility.yul\":10826:10835   */\n      dup5\n        /* \"#utility.yul\":10820:10824   */\n      dup5\n        /* \"#utility.yul\":10816:10836   */\n      sub\n        /* \"#utility.yul\":10811:10814   */\n      dup10\n        /* \"#utility.yul\":10804:10837   */\n      mstore\n        /* \"#utility.yul\":10877:10883   */\n      dup2\n        /* \"#utility.yul\":10871:10884   */\n      mload\n        /* \"#utility.yul\":10905:11029   */\n      tag_325\n        /* \"#utility.yul\":11024:11028   */\n      dup6\n        /* \"#utility.yul\":11009:11022   */\n      dup3\n        /* \"#utility.yul\":10905:11029   */\n      tag_190\n      jump\t// in\n    tag_325:\n        /* \"#utility.yul\":10897:11029   */\n      swap5\n      pop\n        /* \"#utility.yul\":11052:11142   */\n      tag_326\n        /* \"#utility.yul\":11135:11141   */\n      dup4\n        /* \"#utility.yul\":11052:11142   */\n      tag_191\n      jump\t// in\n    tag_326:\n        /* \"#utility.yul\":11042:11142   */\n      swap3\n      pop\n        /* \"#utility.yul\":11171:11175   */\n      0x20\n        /* \"#utility.yul\":11166:11169   */\n      dup11\n        /* \"#utility.yul\":11162:11176   */\n      add\n        /* \"#utility.yul\":11155:11176   */\n      swap10\n      pop\n        /* \"#utility.yul\":10790:11186   */\n      pop\n        /* \"#utility.yul\":10777:10778   */\n      0x01\n        /* \"#utility.yul\":10774:10775   */\n      dup2\n        /* \"#utility.yul\":10770:10779   */\n      add\n        /* \"#utility.yul\":10765:10779   */\n      swap1\n      pop\n        /* \"#utility.yul\":10730:11186   */\n      jump(tag_322)\n    tag_324:\n        /* \"#utility.yul\":10734:10748   */\n      pop\n        /* \"#utility.yul\":11202:11206   */\n      dup3\n        /* \"#utility.yul\":11195:11206   */\n      swap8\n      pop\n        /* \"#utility.yul\":11222:11225   */\n      dup8\n        /* \"#utility.yul\":11215:11225   */\n      swap6\n      pop\n        /* \"#utility.yul\":10264:11231   */\n      pop\n      pop\n      pop\n      pop\n      pop\n        /* \"#utility.yul\":10080:11231   */\n      swap3\n      swap2\n      pop\n      pop\n      jump\t// out\n        /* \"#utility.yul\":11237:11730   */\n    tag_26:\n        /* \"#utility.yul\":11440:11444   */\n      0x00\n        /* \"#utility.yul\":11478:11480   */\n      0x20\n        /* \"#utility.yul\":11467:11476   */\n      dup3\n        /* \"#utility.yul\":11463:11481   */\n      add\n        /* \"#utility.yul\":11455:11481   */\n      swap1\n      pop\n        /* \"#utility.yul\":11527:11536   */\n      dup2\n        /* \"#utility.yul\":11521:11525   */\n      dup2\n        /* \"#utility.yul\":11517:11537   */\n      sub\n        /* \"#utility.yul\":11513:11514   */\n      0x00\n        /* \"#utility.yul\":11502:11511   */\n      dup4\n        /* \"#utility.yul\":11498:11515   */\n      add\n        /* \"#utility.yul\":11491:11538   */\n      mstore\n        /* \"#utility.yul\":11555:11723   */\n      tag_328\n        /* \"#utility.yul\":11718:11722   */\n      dup2\n        /* \"#utility.yul\":11709:11715   */\n      dup5\n        /* \"#utility.yul\":11555:11723   */\n      tag_192\n      jump\t// in\n    tag_328:\n        /* \"#utility.yul\":11547:11723   */\n      swap1\n      pop\n        /* \"#utility.yul\":11237:11730   */\n      swap3\n      swap2\n      pop\n      pop\n      jump\t// out\n        /* \"#utility.yul\":11736:11811   */\n    tag_193:\n        /* \"#utility.yul\":11769:11775   */\n      0x00\n        /* \"#utility.yul\":11802:11804   */\n      0x40\n        /* \"#utility.yul\":11796:11805   */\n      mload\n        /* \"#utility.yul\":11786:11805   */\n      swap1\n      pop\n        /* \"#utility.yul\":11736:11811   */\n      swap1\n      jump\t// out\n        /* \"#utility.yul\":11817:11934   */\n    tag_194:\n        /* \"#utility.yul\":11926:11927   */\n      0x00\n        /* \"#utility.yul\":11923:11924   */\n      dup1\n        /* \"#utility.yul\":11916:11928   */\n      revert\n        /* \"#utility.yul\":11940:12057   */\n    tag_195:\n        /* \"#utility.yul\":12049:12050   */\n      0x00\n        /* \"#utility.yul\":12046:12047   */\n      dup1\n        /* \"#utility.yul\":12039:12051   */\n      revert\n        /* \"#utility.yul\":12063:12185   */\n    tag_196:\n        /* \"#utility.yul\":12136:12160   */\n      tag_333\n        /* \"#utility.yul\":12154:12159   */\n      dup2\n        /* \"#utility.yul\":12136:12160   */\n      tag_172\n      jump\t// in\n    tag_333:\n        /* \"#utility.yul\":12129:12134   */\n      dup2\n        /* \"#utility.yul\":12126:12161   */\n      eq\n        /* \"#utility.yul\":12116:12179   */\n      tag_334\n      jumpi\n        /* \"#utility.yul\":12175:12176   */\n      0x00\n        /* \"#utility.yul\":12172:12173   */\n      dup1\n        /* \"#utility.yul\":12165:12177   */\n      revert\n        /* \"#utility.yul\":12116:12179   */\n    tag_334:\n        /* \"#utility.yul\":12063:12185   */\n      pop\n      jump\t// out\n        /* \"#utility.yul\":12191:12330   */\n    tag_197:\n        /* \"#utility.yul\":12237:12242   */\n      0x00\n        /* \"#utility.yul\":12275:12281   */\n      dup2\n        /* \"#utility.yul\":12262:12282   */\n      calldataload\n        /* \"#utility.yul\":12253:12282   */\n      swap1\n      pop\n        /* \"#utility.yul\":12291:12324   */\n      tag_336\n        /* \"#utility.yul\":12318:12323   */\n      dup2\n        /* \"#utility.yul\":12291:12324   */\n      tag_196\n      jump\t// in\n    tag_336:\n        /* \"#utility.yul\":12191:12330   */\n      swap3\n      swap2\n      pop\n      pop\n      jump\t// out\n        /* \"#utility.yul\":12336:12458   */\n    tag_198:\n        /* \"#utility.yul\":12409:12433   */\n      tag_338\n        /* \"#utility.yul\":12427:12432   */\n      dup2\n        /* \"#utility.yul\":12409:12433   */\n      tag_165\n      jump\t// in\n    tag_338:\n        /* \"#utility.yul\":12402:12407   */\n      dup2\n        /* \"#utility.yul\":12399:12434   */\n      eq\n        /* \"#utility.yul\":12389:12452   */\n      tag_339\n      jumpi\n        /* \"#utility.yul\":12448:12449   */\n      0x00\n        /* \"#utility.yul\":12445:12446   */\n      dup1\n        /* \"#utility.yul\":12438:12450   */\n      revert\n        /* \"#utility.yul\":12389:12452   */\n    tag_339:\n        /* \"#utility.yul\":12336:12458   */\n      pop\n      jump\t// out\n        /* \"#utility.yul\":12464:12603   */\n    tag_199:\n        /* \"#utility.yul\":12510:12515   */\n      0x00\n        /* \"#utility.yul\":12548:12554   */\n      dup2\n        /* \"#utility.yul\":12535:12555   */\n      calldataload\n        /* \"#utility.yul\":12526:12555   */\n      swap1\n      pop\n        /* \"#utility.yul\":12564:12597   */\n      tag_341\n        /* \"#utility.yul\":12591:12596   */\n      dup2\n        /* \"#utility.yul\":12564:12597   */\n      tag_198\n      jump\t// in\n    tag_341:\n        /* \"#utility.yul\":12464:12603   */\n      swap3\n      swap2\n      pop\n      pop\n      jump\t// out\n        /* \"#utility.yul\":12609:12729   */\n    tag_200:\n        /* \"#utility.yul\":12681:12704   */\n      tag_343\n        /* \"#utility.yul\":12698:12703   */\n      dup2\n        /* \"#utility.yul\":12681:12704   */\n      tag_175\n      jump\t// in\n    tag_343:\n        /* \"#utility.yul\":12674:12679   */\n      dup2\n        /* \"#utility.yul\":12671:12705   */\n      eq\n        /* \"#utility.yul\":12661:12723   */\n      tag_344\n      jumpi\n        /* \"#utility.yul\":12719:12720   */\n      0x00\n        /* \"#utility.yul\":12716:12717   */\n      dup1\n        /* \"#utility.yul\":12709:12721   */\n      revert\n        /* \"#utility.yul\":12661:12723   */\n    tag_344:\n        /* \"#utility.yul\":12609:12729   */\n      pop\n      jump\t// out\n        /* \"#utility.yul\":12735:12872   */\n    tag_201:\n        /* \"#utility.yul\":12780:12785   */\n      0x00\n        /* \"#utility.yul\":12818:12824   */\n      dup2\n        /* \"#utility.yul\":12805:12825   */\n      calldataload\n        /* \"#utility.yul\":12796:12825   */\n      swap1\n      pop\n        /* \"#utility.yul\":12834:12866   */\n      tag_346\n        /* \"#utility.yul\":12860:12865   */\n      dup2\n        /* \"#utility.yul\":12834:12866   */\n      tag_200\n      jump\t// in\n    tag_346:\n        /* \"#utility.yul\":12735:12872   */\n      swap3\n      swap2\n      pop\n      pop\n      jump\t// out\n        /* \"#utility.yul\":12878:12995   */\n    tag_202:\n        /* \"#utility.yul\":12987:12988   */\n      0x00\n        /* \"#utility.yul\":12984:12985   */\n      dup1\n        /* \"#utility.yul\":12977:12989   */\n      revert\n        /* \"#utility.yul\":13001:13118   */\n    tag_203:\n        /* \"#utility.yul\":13110:13111   */\n      0x00\n        /* \"#utility.yul\":13107:13108   */\n      dup1\n        /* \"#utility.yul\":13100:13112   */\n      revert\n        /* \"#utility.yul\":13124:13304   */\n    tag_204:\n        /* \"#utility.yul\":13172:13249   */\n      0x4e487b7100000000000000000000000000000000000000000000000000000000\n        /* \"#utility.yul\":13169:13170   */\n      0x00\n        /* \"#utility.yul\":13162:13250   */\n      mstore\n        /* \"#utility.yul\":13269:13273   */\n      0x41\n        /* \"#utility.yul\":13266:13267   */\n      0x04\n        /* \"#utility.yul\":13259:13274   */\n      mstore\n        /* \"#utility.yul\":13293:13297   */\n      0x24\n        /* \"#utility.yul\":13290:13291   */\n      0x00\n        /* \"#utility.yul\":13283:13298   */\n      revert\n        /* \"#utility.yul\":13310:13591   */\n    tag_205:\n        /* \"#utility.yul\":13393:13420   */\n      tag_351\n        /* \"#utility.yul\":13415:13419   */\n      dup3\n        /* \"#utility.yul\":13393:13420   */\n      tag_180\n      jump\t// in\n    tag_351:\n        /* \"#utility.yul\":13385:13391   */\n      dup2\n        /* \"#utility.yul\":13381:13421   */\n      add\n        /* \"#utility.yul\":13523:13529   */\n      dup2\n        /* \"#utility.yul\":13511:13521   */\n      dup2\n        /* \"#utility.yul\":13508:13530   */\n      lt\n        /* \"#utility.yul\":13487:13505   */\n      0xffffffffffffffff\n        /* \"#utility.yul\":13475:13485   */\n      dup3\n        /* \"#utility.yul\":13472:13506   */\n      gt\n        /* \"#utility.yul\":13469:13531   */\n      or\n        /* \"#utility.yul\":13466:13554   */\n      iszero\n      tag_352\n      jumpi\n        /* \"#utility.yul\":13534:13552   */\n      tag_353\n      tag_204\n      jump\t// in\n    tag_353:\n        /* \"#utility.yul\":13466:13554   */\n    tag_352:\n        /* \"#utility.yul\":13574:13584   */\n      dup1\n        /* \"#utility.yul\":13570:13572   */\n      0x40\n        /* \"#utility.yul\":13563:13585   */\n      mstore\n        /* \"#utility.yul\":13353:13591   */\n      pop\n        /* \"#utility.yul\":13310:13591   */\n      pop\n      pop\n      jump\t// out\n        /* \"#utility.yul\":13597:13726   */\n    tag_206:\n        /* \"#utility.yul\":13631:13637   */\n      0x00\n        /* \"#utility.yul\":13658:13678   */\n      tag_355\n      tag_193\n      jump\t// in\n    tag_355:\n        /* \"#utility.yul\":13648:13678   */\n      swap1\n      pop\n        /* \"#utility.yul\":13687:13720   */\n      tag_356\n        /* \"#utility.yul\":13715:13719   */\n      dup3\n        /* \"#utility.yul\":13707:13713   */\n      dup3\n        /* \"#utility.yul\":13687:13720   */\n      tag_205\n      jump\t// in\n    tag_356:\n        /* \"#utility.yul\":13597:13726   */\n      swap2\n      swap1\n      pop\n      jump\t// out\n        /* \"#utility.yul\":13732:14040   */\n    tag_207:\n        /* \"#utility.yul\":13794:13798   */\n      0x00\n        /* \"#utility.yul\":13884:13902   */\n      0xffffffffffffffff\n        /* \"#utility.yul\":13876:13882   */\n      dup3\n        /* \"#utility.yul\":13873:13903   */\n      gt\n        /* \"#utility.yul\":13870:13926   */\n      iszero\n      tag_358\n      jumpi\n        /* \"#utility.yul\":13906:13924   */\n      tag_359\n      tag_204\n      jump\t// in\n    tag_359:\n        /* \"#utility.yul\":13870:13926   */\n    tag_358:\n        /* \"#utility.yul\":13944:13973   */\n      tag_360\n        /* \"#utility.yul\":13966:13972   */\n      dup3\n        /* \"#utility.yul\":13944:13973   */\n      tag_180\n      jump\t// in\n    tag_360:\n        /* \"#utility.yul\":13936:13973   */\n      swap1\n      pop\n        /* \"#utility.yul\":14028:14032   */\n      0x20\n        /* \"#utility.yul\":14022:14026   */\n      dup2\n        /* \"#utility.yul\":14018:14033   */\n      add\n        /* \"#utility.yul\":14010:14033   */\n      swap1\n      pop\n        /* \"#utility.yul\":13732:14040   */\n      swap2\n      swap1\n      pop\n      jump\t// out\n        /* \"#utility.yul\":14046:14192   */\n    tag_208:\n        /* \"#utility.yul\":14143:14149   */\n      dup3\n        /* \"#utility.yul\":14138:14141   */\n      dup2\n        /* \"#utility.yul\":14133:14136   */\n      dup4\n        /* \"#utility.yul\":14120:14150   */\n      calldatacopy\n        /* \"#utility.yul\":14184:14185   */\n      0x00\n        /* \"#utility.yul\":14175:14181   */\n      dup4\n        /* \"#utility.yul\":14170:14173   */\n      dup4\n        /* \"#utility.yul\":14166:14182   */\n      add\n        /* \"#utility.yul\":14159:14186   */\n      mstore\n        /* \"#utility.yul\":14046:14192   */\n      pop\n      pop\n      pop\n      jump\t// out\n        /* \"#utility.yul\":14198:14623   */\n    tag_209:\n        /* \"#utility.yul\":14276:14281   */\n      0x00\n        /* \"#utility.yul\":14301:14367   */\n      tag_363\n        /* \"#utility.yul\":14317:14366   */\n      tag_364\n        /* \"#utility.yul\":14359:14365   */\n      dup5\n        /* \"#utility.yul\":14317:14366   */\n      tag_207\n      jump\t// in\n    tag_364:\n        /* \"#utility.yul\":14301:14367   */\n      tag_206\n      jump\t// in\n    tag_363:\n        /* \"#utility.yul\":14292:14367   */\n      swap1\n      pop\n        /* \"#utility.yul\":14390:14396   */\n      dup3\n        /* \"#utility.yul\":14383:14388   */\n      dup2\n        /* \"#utility.yul\":14376:14397   */\n      mstore\n        /* \"#utility.yul\":14428:14432   */\n      0x20\n        /* \"#utility.yul\":14421:14426   */\n      dup2\n        /* \"#utility.yul\":14417:14433   */\n      add\n        /* \"#utility.yul\":14466:14469   */\n      dup5\n        /* \"#utility.yul\":14457:14463   */\n      dup5\n        /* \"#utility.yul\":14452:14455   */\n      dup5\n        /* \"#utility.yul\":14448:14464   */\n      add\n        /* \"#utility.yul\":14445:14470   */\n      gt\n        /* \"#utility.yul\":14442:14554   */\n      iszero\n      tag_365\n      jumpi\n        /* \"#utility.yul\":14473:14552   */\n      tag_366\n      tag_203\n      jump\t// in\n    tag_366:\n        /* \"#utility.yul\":14442:14554   */\n    tag_365:\n        /* \"#utility.yul\":14563:14617   */\n      tag_367\n        /* \"#utility.yul\":14610:14616   */\n      dup5\n        /* \"#utility.yul\":14605:14608   */\n      dup3\n        /* \"#utility.yul\":14600:14603   */\n      dup6\n        /* \"#utility.yul\":14563:14617   */\n      tag_208\n      jump\t// in\n    tag_367:\n        /* \"#utility.yul\":14282:14623   */\n      pop\n        /* \"#utility.yul\":14198:14623   */\n      swap4\n      swap3\n      pop\n      pop\n      pop\n      jump\t// out\n        /* \"#utility.yul\":14643:14983   */\n    tag_210:\n        /* \"#utility.yul\":14699:14704   */\n      0x00\n        /* \"#utility.yul\":14748:14751   */\n      dup3\n        /* \"#utility.yul\":14741:14745   */\n      0x1f\n        /* \"#utility.yul\":14733:14739   */\n      dup4\n        /* \"#utility.yul\":14729:14746   */\n      add\n        /* \"#utility.yul\":14725:14752   */\n      slt\n        /* \"#utility.yul\":14715:14837   */\n      tag_369\n      jumpi\n        /* \"#utility.yul\":14756:14835   */\n      tag_370\n      tag_202\n      jump\t// in\n    tag_370:\n        /* \"#utility.yul\":14715:14837   */\n    tag_369:\n        /* \"#utility.yul\":14873:14879   */\n      dup2\n        /* \"#utility.yul\":14860:14880   */\n      calldataload\n        /* \"#utility.yul\":14898:14977   */\n      tag_371\n        /* \"#utility.yul\":14973:14976   */\n      dup5\n        /* \"#utility.yul\":14965:14971   */\n      dup3\n        /* \"#utility.yul\":14958:14962   */\n      0x20\n        /* \"#utility.yul\":14950:14956   */\n      dup7\n        /* \"#utility.yul\":14946:14963   */\n      add\n        /* \"#utility.yul\":14898:14977   */\n      tag_209\n      jump\t// in\n    tag_371:\n        /* \"#utility.yul\":14889:14977   */\n      swap2\n      pop\n        /* \"#utility.yul\":14705:14983   */\n      pop\n        /* \"#utility.yul\":14643:14983   */\n      swap3\n      swap2\n      pop\n      pop\n      jump\t// out\n        /* \"#utility.yul\":14989:15319   */\n    tag_211:\n        /* \"#utility.yul\":15085:15089   */\n      0x00\n        /* \"#utility.yul\":15175:15193   */\n      0xffffffffffffffff\n        /* \"#utility.yul\":15167:15173   */\n      dup3\n        /* \"#utility.yul\":15164:15194   */\n      gt\n        /* \"#utility.yul\":15161:15217   */\n      iszero\n      tag_373\n      jumpi\n        /* \"#utility.yul\":15197:15215   */\n      tag_374\n      tag_204\n      jump\t// in\n    tag_374:\n        /* \"#utility.yul\":15161:15217   */\n    tag_373:\n        /* \"#utility.yul\":15247:15251   */\n      0x20\n        /* \"#utility.yul\":15239:15245   */\n      dup3\n        /* \"#utility.yul\":15235:15252   */\n      mul\n        /* \"#utility.yul\":15227:15252   */\n      swap1\n      pop\n        /* \"#utility.yul\":15307:15311   */\n      0x20\n        /* \"#utility.yul\":15301:15305   */\n      dup2\n        /* \"#utility.yul\":15297:15312   */\n      add\n        /* \"#utility.yul\":15289:15312   */\n      swap1\n      pop\n        /* \"#utility.yul\":14989:15319   */\n      swap2\n      swap1\n      pop\n      jump\t// out\n        /* \"#utility.yul\":15325:15442   */\n    tag_212:\n        /* \"#utility.yul\":15434:15435   */\n      0x00\n        /* \"#utility.yul\":15431:15432   */\n      dup1\n        /* \"#utility.yul\":15424:15436   */\n      revert\n        /* \"#utility.yul\":15448:15565   */\n    tag_213:\n        /* \"#utility.yul\":15557:15558   */\n      0x00\n        /* \"#utility.yul\":15554:15555   */\n      dup1\n        /* \"#utility.yul\":15547:15559   */\n      revert\n        /* \"#utility.yul\":15571:15688   */\n    tag_214:\n        /* \"#utility.yul\":15680:15681   */\n      0x00\n        /* \"#utility.yul\":15677:15678   */\n      dup1\n        /* \"#utility.yul\":15670:15682   */\n      revert\n        /* \"#utility.yul\":15727:16638   */\n    tag_215:\n        /* \"#utility.yul\":15795:15800   */\n      0x00\n        /* \"#utility.yul\":15839:15843   */\n      0x40\n        /* \"#utility.yul\":15827:15836   */\n      dup3\n        /* \"#utility.yul\":15822:15825   */\n      dup5\n        /* \"#utility.yul\":15818:15837   */\n      sub\n        /* \"#utility.yul\":15814:15844   */\n      slt\n        /* \"#utility.yul\":15811:15928   */\n      iszero\n      tag_379\n      jumpi\n        /* \"#utility.yul\":15847:15926   */\n      tag_380\n      tag_213\n      jump\t// in\n    tag_380:\n        /* \"#utility.yul\":15811:15928   */\n    tag_379:\n        /* \"#utility.yul\":15946:15967   */\n      tag_381\n        /* \"#utility.yul\":15962:15966   */\n      0x40\n        /* \"#utility.yul\":15946:15967   */\n      tag_206\n      jump\t// in\n    tag_381:\n        /* \"#utility.yul\":15937:15967   */\n      swap1\n      pop\n        /* \"#utility.yul\":16054:16055   */\n      0x00\n        /* \"#utility.yul\":16043:16052   */\n      dup3\n        /* \"#utility.yul\":16039:16056   */\n      add\n        /* \"#utility.yul\":16026:16057   */\n      calldataload\n        /* \"#utility.yul\":16084:16102   */\n      0xffffffffffffffff\n        /* \"#utility.yul\":16076:16082   */\n      dup2\n        /* \"#utility.yul\":16073:16103   */\n      gt\n        /* \"#utility.yul\":16070:16187   */\n      iszero\n      tag_382\n      jumpi\n        /* \"#utility.yul\":16106:16185   */\n      tag_383\n      tag_214\n      jump\t// in\n    tag_383:\n        /* \"#utility.yul\":16070:16187   */\n    tag_382:\n        /* \"#utility.yul\":16226:16285   */\n      tag_384\n        /* \"#utility.yul\":16281:16284   */\n      dup5\n        /* \"#utility.yul\":16272:16278   */\n      dup3\n        /* \"#utility.yul\":16261:16270   */\n      dup6\n        /* \"#utility.yul\":16257:16279   */\n      add\n        /* \"#utility.yul\":16226:16285   */\n      tag_210\n      jump\t// in\n    tag_384:\n        /* \"#utility.yul\":16219:16223   */\n      0x00\n        /* \"#utility.yul\":16212:16217   */\n      dup4\n        /* \"#utility.yul\":16208:16224   */\n      add\n        /* \"#utility.yul\":16201:16286   */\n      mstore\n        /* \"#utility.yul\":15977:16297   */\n      pop\n        /* \"#utility.yul\":16387:16389   */\n      0x20\n        /* \"#utility.yul\":16376:16385   */\n      dup3\n        /* \"#utility.yul\":16372:16390   */\n      add\n        /* \"#utility.yul\":16359:16391   */\n      calldataload\n        /* \"#utility.yul\":16418:16436   */\n      0xffffffffffffffff\n        /* \"#utility.yul\":16410:16416   */\n      dup2\n        /* \"#utility.yul\":16407:16437   */\n      gt\n        /* \"#utility.yul\":16404:16521   */\n      iszero\n      tag_385\n      jumpi\n        /* \"#utility.yul\":16440:16519   */\n      tag_386\n      tag_214\n      jump\t// in\n    tag_386:\n        /* \"#utility.yul\":16404:16521   */\n    tag_385:\n        /* \"#utility.yul\":16560:16619   */\n      tag_387\n        /* \"#utility.yul\":16615:16618   */\n      dup5\n        /* \"#utility.yul\":16606:16612   */\n      dup3\n        /* \"#utility.yul\":16595:16604   */\n      dup6\n        /* \"#utility.yul\":16591:16613   */\n      add\n        /* \"#utility.yul\":16560:16619   */\n      tag_210\n      jump\t// in\n    tag_387:\n        /* \"#utility.yul\":16553:16557   */\n      0x20\n        /* \"#utility.yul\":16546:16551   */\n      dup4\n        /* \"#utility.yul\":16542:16558   */\n      add\n        /* \"#utility.yul\":16535:16620   */\n      mstore\n        /* \"#utility.yul\":16307:16631   */\n      pop\n        /* \"#utility.yul\":15727:16638   */\n      swap3\n      swap2\n      pop\n      pop\n      jump\t// out\n        /* \"#utility.yul\":16679:17651   */\n    tag_216:\n        /* \"#utility.yul\":16794:16799   */\n      0x00\n        /* \"#utility.yul\":16819:16919   */\n      tag_389\n        /* \"#utility.yul\":16835:16918   */\n      tag_390\n        /* \"#utility.yul\":16911:16917   */\n      dup5\n        /* \"#utility.yul\":16835:16918   */\n      tag_211\n      jump\t// in\n    tag_390:\n        /* \"#utility.yul\":16819:16919   */\n      tag_206\n      jump\t// in\n    tag_389:\n        /* \"#utility.yul\":16810:16919   */\n      swap1\n      pop\n        /* \"#utility.yul\":16939:16944   */\n      dup1\n        /* \"#utility.yul\":16968:16974   */\n      dup4\n        /* \"#utility.yul\":16961:16966   */\n      dup3\n        /* \"#utility.yul\":16954:16975   */\n      mstore\n        /* \"#utility.yul\":17002:17006   */\n      0x20\n        /* \"#utility.yul\":16995:17000   */\n      dup3\n        /* \"#utility.yul\":16991:17007   */\n      add\n        /* \"#utility.yul\":16984:17007   */\n      swap1\n      pop\n        /* \"#utility.yul\":17055:17059   */\n      0x20\n        /* \"#utility.yul\":17047:17053   */\n      dup5\n        /* \"#utility.yul\":17043:17060   */\n      mul\n        /* \"#utility.yul\":17035:17041   */\n      dup4\n        /* \"#utility.yul\":17031:17061   */\n      add\n        /* \"#utility.yul\":17084:17087   */\n      dup6\n        /* \"#utility.yul\":17076:17082   */\n      dup2\n        /* \"#utility.yul\":17073:17088   */\n      gt\n        /* \"#utility.yul\":17070:17192   */\n      iszero\n      tag_391\n      jumpi\n        /* \"#utility.yul\":17103:17182   */\n      tag_392\n      tag_212\n      jump\t// in\n    tag_392:\n        /* \"#utility.yul\":17070:17192   */\n    tag_391:\n        /* \"#utility.yul\":17218:17224   */\n      dup4\n        /* \"#utility.yul\":17201:17645   */\n    tag_393:\n        /* \"#utility.yul\":17235:17241   */\n      dup2\n        /* \"#utility.yul\":17230:17233   */\n      dup2\n        /* \"#utility.yul\":17227:17242   */\n      lt\n        /* \"#utility.yul\":17201:17645   */\n      iszero\n      tag_395\n      jumpi\n        /* \"#utility.yul\":17324:17327   */\n      dup1\n        /* \"#utility.yul\":17311:17328   */\n      calldataload\n        /* \"#utility.yul\":17360:17378   */\n      0xffffffffffffffff\n        /* \"#utility.yul\":17347:17358   */\n      dup2\n        /* \"#utility.yul\":17344:17379   */\n      gt\n        /* \"#utility.yul\":17341:17463   */\n      iszero\n      tag_396\n      jumpi\n        /* \"#utility.yul\":17382:17461   */\n      tag_397\n      tag_202\n      jump\t// in\n    tag_397:\n        /* \"#utility.yul\":17341:17463   */\n    tag_396:\n        /* \"#utility.yul\":17506:17517   */\n      dup1\n        /* \"#utility.yul\":17498:17504   */\n      dup7\n        /* \"#utility.yul\":17494:17518   */\n      add\n        /* \"#utility.yul\":17544:17600   */\n      tag_398\n        /* \"#utility.yul\":17596:17599   */\n      dup10\n        /* \"#utility.yul\":17584:17594   */\n      dup3\n        /* \"#utility.yul\":17544:17600   */\n      tag_215\n      jump\t// in\n    tag_398:\n        /* \"#utility.yul\":17539:17542   */\n      dup6\n        /* \"#utility.yul\":17532:17601   */\n      mstore\n        /* \"#utility.yul\":17630:17634   */\n      0x20\n        /* \"#utility.yul\":17625:17628   */\n      dup6\n        /* \"#utility.yul\":17621:17635   */\n      add\n        /* \"#utility.yul\":17614:17635   */\n      swap5\n      pop\n        /* \"#utility.yul\":17277:17645   */\n      pop\n      pop\n        /* \"#utility.yul\":17261:17265   */\n      0x20\n        /* \"#utility.yul\":17256:17259   */\n      dup2\n        /* \"#utility.yul\":17252:17266   */\n      add\n        /* \"#utility.yul\":17245:17266   */\n      swap1\n      pop\n        /* \"#utility.yul\":17201:17645   */\n      jump(tag_393)\n    tag_395:\n        /* \"#utility.yul\":17205:17226   */\n      pop\n        /* \"#utility.yul\":16800:17651   */\n      pop\n      pop\n        /* \"#utility.yul\":16679:17651   */\n      swap4\n      swap3\n      pop\n      pop\n      pop\n      jump\t// out\n        /* \"#utility.yul\":17692:18100   */\n    tag_217:\n        /* \"#utility.yul\":17782:17787   */\n      0x00\n        /* \"#utility.yul\":17831:17834   */\n      dup3\n        /* \"#utility.yul\":17824:17828   */\n      0x1f\n        /* \"#utility.yul\":17816:17822   */\n      dup4\n        /* \"#utility.yul\":17812:17829   */\n      add\n        /* \"#utility.yul\":17808:17835   */\n      slt\n        /* \"#utility.yul\":17798:17920   */\n      tag_400\n      jumpi\n        /* \"#utility.yul\":17839:17918   */\n      tag_401\n      tag_202\n      jump\t// in\n    tag_401:\n        /* \"#utility.yul\":17798:17920   */\n    tag_400:\n        /* \"#utility.yul\":17956:17962   */\n      dup2\n        /* \"#utility.yul\":17943:17963   */\n      calldataload\n        /* \"#utility.yul\":17981:18094   */\n      tag_402\n        /* \"#utility.yul\":18090:18093   */\n      dup5\n        /* \"#utility.yul\":18082:18088   */\n      dup3\n        /* \"#utility.yul\":18075:18079   */\n      0x20\n        /* \"#utility.yul\":18067:18073   */\n      dup7\n        /* \"#utility.yul\":18063:18080   */\n      add\n        /* \"#utility.yul\":17981:18094   */\n      tag_216\n      jump\t// in\n    tag_402:\n        /* \"#utility.yul\":17972:18094   */\n      swap2\n      pop\n        /* \"#utility.yul\":17788:18100   */\n      pop\n        /* \"#utility.yul\":17692:18100   */\n      swap3\n      swap2\n      pop\n      pop\n      jump\t// out\n        /* \"#utility.yul\":18106:20023   */\n    tag_30:\n        /* \"#utility.yul\":18288:18294   */\n      0x00\n        /* \"#utility.yul\":18296:18302   */\n      dup1\n        /* \"#utility.yul\":18304:18310   */\n      0x00\n        /* \"#utility.yul\":18312:18318   */\n      dup1\n        /* \"#utility.yul\":18320:18326   */\n      0x00\n        /* \"#utility.yul\":18328:18334   */\n      dup1\n        /* \"#utility.yul\":18336:18342   */\n      0x00\n        /* \"#utility.yul\":18344:18350   */\n      dup1\n        /* \"#utility.yul\":18352:18358   */\n      0x00\n        /* \"#utility.yul\":18401:18404   */\n      0x0120\n        /* \"#utility.yul\":18389:18398   */\n      dup11\n        /* \"#utility.yul\":18380:18387   */\n      dup13\n        /* \"#utility.yul\":18376:18399   */\n      sub\n        /* \"#utility.yul\":18372:18405   */\n      slt\n        /* \"#utility.yul\":18369:18489   */\n      iszero\n      tag_404\n      jumpi\n        /* \"#utility.yul\":18408:18487   */\n      tag_405\n      tag_194\n      jump\t// in\n    tag_405:\n        /* \"#utility.yul\":18369:18489   */\n    tag_404:\n        /* \"#utility.yul\":18528:18529   */\n      0x00\n        /* \"#utility.yul\":18553:18606   */\n      tag_406\n        /* \"#utility.yul\":18598:18605   */\n      dup13\n        /* \"#utility.yul\":18589:18595   */\n      dup3\n        /* \"#utility.yul\":18578:18587   */\n      dup14\n        /* \"#utility.yul\":18574:18596   */\n      add\n        /* \"#utility.yul\":18553:18606   */\n      tag_197\n      jump\t// in\n    tag_406:\n        /* \"#utility.yul\":18543:18606   */\n      swap10\n      pop\n        /* \"#utility.yul\":18499:18616   */\n      pop\n        /* \"#utility.yul\":18655:18657   */\n      0x20\n        /* \"#utility.yul\":18681:18734   */\n      tag_407\n        /* \"#utility.yul\":18726:18733   */\n      dup13\n        /* \"#utility.yul\":18717:18723   */\n      dup3\n        /* \"#utility.yul\":18706:18715   */\n      dup14\n        /* \"#utility.yul\":18702:18724   */\n      add\n        /* \"#utility.yul\":18681:18734   */\n      tag_199\n      jump\t// in\n    tag_407:\n        /* \"#utility.yul\":18671:18734   */\n      swap9\n      pop\n        /* \"#utility.yul\":18626:18744   */\n      pop\n        /* \"#utility.yul\":18783:18785   */\n      0x40\n        /* \"#utility.yul\":18809:18862   */\n      tag_408\n        /* \"#utility.yul\":18854:18861   */\n      dup13\n        /* \"#utility.yul\":18845:18851   */\n      dup3\n        /* \"#utility.yul\":18834:18843   */\n      dup14\n        /* \"#utility.yul\":18830:18852   */\n      add\n        /* \"#utility.yul\":18809:18862   */\n      tag_199\n      jump\t// in\n    tag_408:\n        /* \"#utility.yul\":18799:18862   */\n      swap8\n      pop\n        /* \"#utility.yul\":18754:18872   */\n      pop\n        /* \"#utility.yul\":18911:18913   */\n      0x60\n        /* \"#utility.yul\":18937:18990   */\n      tag_409\n        /* \"#utility.yul\":18982:18989   */\n      dup13\n        /* \"#utility.yul\":18973:18979   */\n      dup3\n        /* \"#utility.yul\":18962:18971   */\n      dup14\n        /* \"#utility.yul\":18958:18980   */\n      add\n        /* \"#utility.yul\":18937:18990   */\n      tag_197\n      jump\t// in\n    tag_409:\n        /* \"#utility.yul\":18927:18990   */\n      swap7\n      pop\n        /* \"#utility.yul\":18882:19000   */\n      pop\n        /* \"#utility.yul\":19039:19042   */\n      0x80\n        /* \"#utility.yul\":19066:19118   */\n      tag_410\n        /* \"#utility.yul\":19110:19117   */\n      dup13\n        /* \"#utility.yul\":19101:19107   */\n      dup3\n        /* \"#utility.yul\":19090:19099   */\n      dup14\n        /* \"#utility.yul\":19086:19108   */\n      add\n        /* \"#utility.yul\":19066:19118   */\n      tag_201\n      jump\t// in\n    tag_410:\n        /* \"#utility.yul\":19056:19118   */\n      swap6\n      pop\n        /* \"#utility.yul\":19010:19128   */\n      pop\n        /* \"#utility.yul\":19167:19170   */\n      0xa0\n        /* \"#utility.yul\":19194:19246   */\n      tag_411\n        /* \"#utility.yul\":19238:19245   */\n      dup13\n        /* \"#utility.yul\":19229:19235   */\n      dup3\n        /* \"#utility.yul\":19218:19227   */\n      dup14\n        /* \"#utility.yul\":19214:19236   */\n      add\n        /* \"#utility.yul\":19194:19246   */\n      tag_201\n      jump\t// in\n    tag_411:\n        /* \"#utility.yul\":19184:19246   */\n      swap5\n      pop\n        /* \"#utility.yul\":19138:19256   */\n      pop\n        /* \"#utility.yul\":19295:19298   */\n      0xc0\n        /* \"#utility.yul\":19322:19374   */\n      tag_412\n        /* \"#utility.yul\":19366:19373   */\n      dup13\n        /* \"#utility.yul\":19357:19363   */\n      dup3\n        /* \"#utility.yul\":19346:19355   */\n      dup14\n        /* \"#utility.yul\":19342:19364   */\n      add\n        /* \"#utility.yul\":19322:19374   */\n      tag_201\n      jump\t// in\n    tag_412:\n        /* \"#utility.yul\":19312:19374   */\n      swap4\n      pop\n        /* \"#utility.yul\":19266:19384   */\n      pop\n        /* \"#utility.yul\":19451:19454   */\n      0xe0\n        /* \"#utility.yul\":19440:19449   */\n      dup11\n        /* \"#utility.yul\":19436:19455   */\n      add\n        /* \"#utility.yul\":19423:19456   */\n      calldataload\n        /* \"#utility.yul\":19483:19501   */\n      0xffffffffffffffff\n        /* \"#utility.yul\":19475:19481   */\n      dup2\n        /* \"#utility.yul\":19472:19502   */\n      gt\n        /* \"#utility.yul\":19469:19586   */\n      iszero\n      tag_413\n      jumpi\n        /* \"#utility.yul\":19505:19584   */\n      tag_414\n      tag_195\n      jump\t// in\n    tag_414:\n        /* \"#utility.yul\":19469:19586   */\n    tag_413:\n        /* \"#utility.yul\":19610:19673   */\n      tag_415\n        /* \"#utility.yul\":19665:19672   */\n      dup13\n        /* \"#utility.yul\":19656:19662   */\n      dup3\n        /* \"#utility.yul\":19645:19654   */\n      dup14\n        /* \"#utility.yul\":19641:19663   */\n      add\n        /* \"#utility.yul\":19610:19673   */\n      tag_210\n      jump\t// in\n    tag_415:\n        /* \"#utility.yul\":19600:19673   */\n      swap3\n      pop\n        /* \"#utility.yul\":19394:19683   */\n      pop\n        /* \"#utility.yul\":19750:19753   */\n      0x0100\n        /* \"#utility.yul\":19739:19748   */\n      dup11\n        /* \"#utility.yul\":19735:19754   */\n      add\n        /* \"#utility.yul\":19722:19755   */\n      calldataload\n        /* \"#utility.yul\":19782:19800   */\n      0xffffffffffffffff\n        /* \"#utility.yul\":19774:19780   */\n      dup2\n        /* \"#utility.yul\":19771:19801   */\n      gt\n        /* \"#utility.yul\":19768:19885   */\n      iszero\n      tag_416\n      jumpi\n        /* \"#utility.yul\":19804:19883   */\n      tag_417\n      tag_195\n      jump\t// in\n    tag_417:\n        /* \"#utility.yul\":19768:19885   */\n    tag_416:\n        /* \"#utility.yul\":19909:20006   */\n      tag_418\n        /* \"#utility.yul\":19998:20005   */\n      dup13\n        /* \"#utility.yul\":19989:19995   */\n      dup3\n        /* \"#utility.yul\":19978:19987   */\n      dup14\n        /* \"#utility.yul\":19974:19996   */\n      add\n        /* \"#utility.yul\":19909:20006   */\n      tag_217\n      jump\t// in\n    tag_418:\n        /* \"#utility.yul\":19899:20006   */\n      swap2\n      pop\n        /* \"#utility.yul\":19693:20016   */\n      pop\n        /* \"#utility.yul\":18106:20023   */\n      swap3\n      swap6\n      swap9\n      pop\n      swap3\n      swap6\n      swap9\n      pop\n      swap3\n      swap6\n      swap9\n      jump\t// out\n        /* \"#utility.yul\":20029:20147   */\n    tag_218:\n        /* \"#utility.yul\":20116:20140   */\n      tag_420\n        /* \"#utility.yul\":20134:20139   */\n      dup2\n        /* \"#utility.yul\":20116:20140   */\n      tag_172\n      jump\t// in\n    tag_420:\n        /* \"#utility.yul\":20111:20114   */\n      dup3\n        /* \"#utility.yul\":20104:20141   */\n      mstore\n        /* \"#utility.yul\":20029:20147   */\n      pop\n      pop\n      jump\t// out\n        /* \"#utility.yul\":20153:20375   */\n    tag_36:\n        /* \"#utility.yul\":20246:20250   */\n      0x00\n        /* \"#utility.yul\":20284:20286   */\n      0x20\n        /* \"#utility.yul\":20273:20282   */\n      dup3\n        /* \"#utility.yul\":20269:20287   */\n      add\n        /* \"#utility.yul\":20261:20287   */\n      swap1\n      pop\n        /* \"#utility.yul\":20297:20368   */\n      tag_422\n        /* \"#utility.yul\":20365:20366   */\n      0x00\n        /* \"#utility.yul\":20354:20363   */\n      dup4\n        /* \"#utility.yul\":20350:20367   */\n      add\n        /* \"#utility.yul\":20341:20347   */\n      dup5\n        /* \"#utility.yul\":20297:20368   */\n      tag_218\n      jump\t// in\n    tag_422:\n        /* \"#utility.yul\":20153:20375   */\n      swap3\n      swap2\n      pop\n      pop\n      jump\t// out\n        /* \"#utility.yul\":20381:20485   */\n    tag_219:\n        /* \"#utility.yul\":20426:20433   */\n      0x00\n        /* \"#utility.yul\":20455:20479   */\n      tag_424\n        /* \"#utility.yul\":20473:20478   */\n      dup3\n        /* \"#utility.yul\":20455:20479   */\n      tag_164\n      jump\t// in\n    tag_424:\n        /* \"#utility.yul\":20444:20479   */\n      swap1\n      pop\n        /* \"#utility.yul\":20381:20485   */\n      swap2\n      swap1\n      pop\n      jump\t// out\n        /* \"#utility.yul\":20491:20629   */\n    tag_220:\n        /* \"#utility.yul\":20572:20604   */\n      tag_426\n        /* \"#utility.yul\":20598:20603   */\n      dup2\n        /* \"#utility.yul\":20572:20604   */\n      tag_219\n      jump\t// in\n    tag_426:\n        /* \"#utility.yul\":20565:20570   */\n      dup2\n        /* \"#utility.yul\":20562:20605   */\n      eq\n        /* \"#utility.yul\":20552:20623   */\n      tag_427\n      jumpi\n        /* \"#utility.yul\":20619:20620   */\n      0x00\n        /* \"#utility.yul\":20616:20617   */\n      dup1\n        /* \"#utility.yul\":20609:20621   */\n      revert\n        /* \"#utility.yul\":20552:20623   */\n    tag_427:\n        /* \"#utility.yul\":20491:20629   */\n      pop\n      jump\t// out\n        /* \"#utility.yul\":20635:20790   */\n    tag_221:\n        /* \"#utility.yul\":20689:20694   */\n      0x00\n        /* \"#utility.yul\":20727:20733   */\n      dup2\n        /* \"#utility.yul\":20714:20734   */\n      calldataload\n        /* \"#utility.yul\":20705:20734   */\n      swap1\n      pop\n        /* \"#utility.yul\":20743:20784   */\n      tag_429\n        /* \"#utility.yul\":20778:20783   */\n      dup2\n        /* \"#utility.yul\":20743:20784   */\n      tag_220\n      jump\t// in\n    tag_429:\n        /* \"#utility.yul\":20635:20790   */\n      swap3\n      swap2\n      pop\n      pop\n      jump\t// out\n        /* \"#utility.yul\":20796:21286   */\n    tag_39:\n        /* \"#utility.yul\":20872:20878   */\n      0x00\n        /* \"#utility.yul\":20880:20886   */\n      dup1\n        /* \"#utility.yul\":20929:20931   */\n      0x40\n        /* \"#utility.yul\":20917:20926   */\n      dup4\n        /* \"#utility.yul\":20908:20915   */\n      dup6\n        /* \"#utility.yul\":20904:20927   */\n      sub\n        /* \"#utility.yul\":20900:20932   */\n      slt\n        /* \"#utility.yul\":20897:21016   */\n      iszero\n      tag_431\n      jumpi\n        /* \"#utility.yul\":20935:21014   */\n      tag_432\n      tag_194\n      jump\t// in\n    tag_432:\n        /* \"#utility.yul\":20897:21016   */\n    tag_431:\n        /* \"#utility.yul\":21055:21056   */\n      0x00\n        /* \"#utility.yul\":21080:21141   */\n      tag_433\n        /* \"#utility.yul\":21133:21140   */\n      dup6\n        /* \"#utility.yul\":21124:21130   */\n      dup3\n        /* \"#utility.yul\":21113:21122   */\n      dup7\n        /* \"#utility.yul\":21109:21131   */\n      add\n        /* \"#utility.yul\":21080:21141   */\n      tag_221\n      jump\t// in\n    tag_433:\n        /* \"#utility.yul\":21070:21141   */\n      swap3\n      pop\n        /* \"#utility.yul\":21026:21151   */\n      pop\n        /* \"#utility.yul\":21190:21192   */\n      0x20\n        /* \"#utility.yul\":21216:21269   */\n      tag_434\n        /* \"#utility.yul\":21261:21268   */\n      dup6\n        /* \"#utility.yul\":21252:21258   */\n      dup3\n        /* \"#utility.yul\":21241:21250   */\n      dup7\n        /* \"#utility.yul\":21237:21259   */\n      add\n        /* \"#utility.yul\":21216:21269   */\n      tag_197\n      jump\t// in\n    tag_434:\n        /* \"#utility.yul\":21206:21269   */\n      swap2\n      pop\n        /* \"#utility.yul\":21161:21279   */\n      pop\n        /* \"#utility.yul\":20796:21286   */\n      swap3\n      pop\n      swap3\n      swap1\n      pop\n      jump\t// out\n        /* \"#utility.yul\":21292:21514   */\n    tag_49:\n        /* \"#utility.yul\":21385:21389   */\n      0x00\n        /* \"#utility.yul\":21423:21425   */\n      0x20\n        /* \"#utility.yul\":21412:21421   */\n      dup3\n        /* \"#utility.yul\":21408:21426   */\n      add\n        /* \"#utility.yul\":21400:21426   */\n      swap1\n      pop\n        /* \"#utility.yul\":21436:21507   */\n      tag_436\n        /* \"#utility.yul\":21504:21505   */\n      0x00\n        /* \"#utility.yul\":21493:21502   */\n      dup4\n        /* \"#utility.yul\":21489:21506   */\n      add\n        /* \"#utility.yul\":21480:21486   */\n      dup5\n        /* \"#utility.yul\":21436:21507   */\n      tag_166\n      jump\t// in\n    tag_436:\n        /* \"#utility.yul\":21292:21514   */\n      swap3\n      swap2\n      pop\n      pop\n      jump\t// out\n        /* \"#utility.yul\":21520:21849   */\n    tag_53:\n        /* \"#utility.yul\":21579:21585   */\n      0x00\n        /* \"#utility.yul\":21628:21630   */\n      0x20\n        /* \"#utility.yul\":21616:21625   */\n      dup3\n        /* \"#utility.yul\":21607:21614   */\n      dup5\n        /* \"#utility.yul\":21603:21626   */\n      sub\n        /* \"#utility.yul\":21599:21631   */\n      slt\n        /* \"#utility.yul\":21596:21715   */\n      iszero\n      tag_438\n      jumpi\n        /* \"#utility.yul\":21634:21713   */\n      tag_439\n      tag_194\n      jump\t// in\n    tag_439:\n        /* \"#utility.yul\":21596:21715   */\n    tag_438:\n        /* \"#utility.yul\":21754:21755   */\n      0x00\n        /* \"#utility.yul\":21779:21832   */\n      tag_440\n        /* \"#utility.yul\":21824:21831   */\n      dup5\n        /* \"#utility.yul\":21815:21821   */\n      dup3\n        /* \"#utility.yul\":21804:21813   */\n      dup6\n        /* \"#utility.yul\":21800:21822   */\n      add\n        /* \"#utility.yul\":21779:21832   */\n      tag_197\n      jump\t// in\n    tag_440:\n        /* \"#utility.yul\":21769:21832   */\n      swap2\n      pop\n        /* \"#utility.yul\":21725:21842   */\n      pop\n        /* \"#utility.yul\":21520:21849   */\n      swap3\n      swap2\n      pop\n      pop\n      jump\t// out\n        /* \"#utility.yul\":21937:23949   */\n    tag_222:\n        /* \"#utility.yul\":22066:22069   */\n      0x00\n        /* \"#utility.yul\":22102:22108   */\n      0x0120\n        /* \"#utility.yul\":22097:22100   */\n      dup4\n        /* \"#utility.yul\":22093:22109   */\n      add\n        /* \"#utility.yul\":22189:22193   */\n      0x00\n        /* \"#utility.yul\":22182:22187   */\n      dup4\n        /* \"#utility.yul\":22178:22194   */\n      add\n        /* \"#utility.yul\":22172:22195   */\n      mload\n        /* \"#utility.yul\":22208:22271   */\n      tag_442\n        /* \"#utility.yul\":22265:22269   */\n      0x00\n        /* \"#utility.yul\":22260:22263   */\n      dup7\n        /* \"#utility.yul\":22256:22270   */\n      add\n        /* \"#utility.yul\":22242:22254   */\n      dup3\n        /* \"#utility.yul\":22208:22271   */\n      tag_173\n      jump\t// in\n    tag_442:\n        /* \"#utility.yul\":22119:22281   */\n      pop\n        /* \"#utility.yul\":22365:22369   */\n      0x20\n        /* \"#utility.yul\":22358:22363   */\n      dup4\n        /* \"#utility.yul\":22354:22370   */\n      add\n        /* \"#utility.yul\":22348:22371   */\n      mload\n        /* \"#utility.yul\":22384:22447   */\n      tag_443\n        /* \"#utility.yul\":22441:22445   */\n      0x20\n        /* \"#utility.yul\":22436:22439   */\n      dup7\n        /* \"#utility.yul\":22432:22446   */\n      add\n        /* \"#utility.yul\":22418:22430   */\n      dup3\n        /* \"#utility.yul\":22384:22447   */\n      tag_174\n      jump\t// in\n    tag_443:\n        /* \"#utility.yul\":22291:22457   */\n      pop\n        /* \"#utility.yul\":22541:22545   */\n      0x40\n        /* \"#utility.yul\":22534:22539   */\n      dup4\n        /* \"#utility.yul\":22530:22546   */\n      add\n        /* \"#utility.yul\":22524:22547   */\n      mload\n        /* \"#utility.yul\":22560:22623   */\n      tag_444\n        /* \"#utility.yul\":22617:22621   */\n      0x40\n        /* \"#utility.yul\":22612:22615   */\n      dup7\n        /* \"#utility.yul\":22608:22622   */\n      add\n        /* \"#utility.yul\":22594:22606   */\n      dup3\n        /* \"#utility.yul\":22560:22623   */\n      tag_174\n      jump\t// in\n    tag_444:\n        /* \"#utility.yul\":22467:22633   */\n      pop\n        /* \"#utility.yul\":22719:22723   */\n      0x60\n        /* \"#utility.yul\":22712:22717   */\n      dup4\n        /* \"#utility.yul\":22708:22724   */\n      add\n        /* \"#utility.yul\":22702:22725   */\n      mload\n        /* \"#utility.yul\":22738:22801   */\n      tag_445\n        /* \"#utility.yul\":22795:22799   */\n      0x60\n        /* \"#utility.yul\":22790:22793   */\n      dup7\n        /* \"#utility.yul\":22786:22800   */\n      add\n        /* \"#utility.yul\":22772:22784   */\n      dup3\n        /* \"#utility.yul\":22738:22801   */\n      tag_173\n      jump\t// in\n    tag_445:\n        /* \"#utility.yul\":22643:22811   */\n      pop\n        /* \"#utility.yul\":22897:22901   */\n      0x80\n        /* \"#utility.yul\":22890:22895   */\n      dup4\n        /* \"#utility.yul\":22886:22902   */\n      add\n        /* \"#utility.yul\":22880:22903   */\n      mload\n        /* \"#utility.yul\":22916:22977   */\n      tag_446\n        /* \"#utility.yul\":22971:22975   */\n      0x80\n        /* \"#utility.yul\":22966:22969   */\n      dup7\n        /* \"#utility.yul\":22962:22976   */\n      add\n        /* \"#utility.yul\":22948:22960   */\n      dup3\n        /* \"#utility.yul\":22916:22977   */\n      tag_176\n      jump\t// in\n    tag_446:\n        /* \"#utility.yul\":22821:22987   */\n      pop\n        /* \"#utility.yul\":23074:23078   */\n      0xa0\n        /* \"#utility.yul\":23067:23072   */\n      dup4\n        /* \"#utility.yul\":23063:23079   */\n      add\n        /* \"#utility.yul\":23057:23080   */\n      mload\n        /* \"#utility.yul\":23093:23154   */\n      tag_447\n        /* \"#utility.yul\":23148:23152   */\n      0xa0\n        /* \"#utility.yul\":23143:23146   */\n      dup7\n        /* \"#utility.yul\":23139:23153   */\n      add\n        /* \"#utility.yul\":23125:23137   */\n      dup3\n        /* \"#utility.yul\":23093:23154   */\n      tag_176\n      jump\t// in\n    tag_447:\n        /* \"#utility.yul\":22997:23164   */\n      pop\n        /* \"#utility.yul\":23257:23261   */\n      0xc0\n        /* \"#utility.yul\":23250:23255   */\n      dup4\n        /* \"#utility.yul\":23246:23262   */\n      add\n        /* \"#utility.yul\":23240:23263   */\n      mload\n        /* \"#utility.yul\":23276:23337   */\n      tag_448\n        /* \"#utility.yul\":23331:23335   */\n      0xc0\n        /* \"#utility.yul\":23326:23329   */\n      dup7\n        /* \"#utility.yul\":23322:23336   */\n      add\n        /* \"#utility.yul\":23308:23320   */\n      dup3\n        /* \"#utility.yul\":23276:23337   */\n      tag_176\n      jump\t// in\n    tag_448:\n        /* \"#utility.yul\":23174:23347   */\n      pop\n        /* \"#utility.yul\":23437:23441   */\n      0xe0\n        /* \"#utility.yul\":23430:23435   */\n      dup4\n        /* \"#utility.yul\":23426:23442   */\n      add\n        /* \"#utility.yul\":23420:23443   */\n      mload\n        /* \"#utility.yul\":23490:23493   */\n      dup5\n        /* \"#utility.yul\":23484:23488   */\n      dup3\n        /* \"#utility.yul\":23480:23494   */\n      sub\n        /* \"#utility.yul\":23473:23477   */\n      0xe0\n        /* \"#utility.yul\":23468:23471   */\n      dup7\n        /* \"#utility.yul\":23464:23478   */\n      add\n        /* \"#utility.yul\":23457:23495   */\n      mstore\n        /* \"#utility.yul\":23516:23589   */\n      tag_449\n        /* \"#utility.yul\":23584:23588   */\n      dup3\n        /* \"#utility.yul\":23570:23582   */\n      dup3\n        /* \"#utility.yul\":23516:23589   */\n      tag_181\n      jump\t// in\n    tag_449:\n        /* \"#utility.yul\":23508:23589   */\n      swap2\n      pop\n        /* \"#utility.yul\":23357:23600   */\n      pop\n        /* \"#utility.yul\":23687:23693   */\n      0x0100\n        /* \"#utility.yul\":23680:23685   */\n      dup4\n        /* \"#utility.yul\":23676:23694   */\n      add\n        /* \"#utility.yul\":23670:23695   */\n      mload\n        /* \"#utility.yul\":23744:23747   */\n      dup5\n        /* \"#utility.yul\":23738:23742   */\n      dup3\n        /* \"#utility.yul\":23734:23748   */\n      sub\n        /* \"#utility.yul\":23725:23731   */\n      0x0100\n        /* \"#utility.yul\":23720:23723   */\n      dup7\n        /* \"#utility.yul\":23716:23732   */\n      add\n        /* \"#utility.yul\":23709:23749   */\n      mstore\n        /* \"#utility.yul\":23770:23911   */\n      tag_450\n        /* \"#utility.yul\":23906:23910   */\n      dup3\n        /* \"#utility.yul\":23892:23904   */\n      dup3\n        /* \"#utility.yul\":23770:23911   */\n      tag_188\n      jump\t// in\n    tag_450:\n        /* \"#utility.yul\":23762:23911   */\n      swap2\n      pop\n        /* \"#utility.yul\":23610:23922   */\n      pop\n        /* \"#utility.yul\":23939:23943   */\n      dup1\n        /* \"#utility.yul\":23932:23943   */\n      swap2\n      pop\n        /* \"#utility.yul\":22071:23949   */\n      pop\n        /* \"#utility.yul\":21937:23949   */\n      swap3\n      swap2\n      pop\n      pop\n      jump\t// out\n        /* \"#utility.yul\":23955:24348   */\n    tag_56:\n        /* \"#utility.yul\":24108:24112   */\n      0x00\n        /* \"#utility.yul\":24146:24148   */\n      0x20\n        /* \"#utility.yul\":24135:24144   */\n      dup3\n        /* \"#utility.yul\":24131:24149   */\n      add\n        /* \"#utility.yul\":24123:24149   */\n      swap1\n      pop\n        /* \"#utility.yul\":24195:24204   */\n      dup2\n        /* \"#utility.yul\":24189:24193   */\n      dup2\n        /* \"#utility.yul\":24185:24205   */\n      sub\n        /* \"#utility.yul\":24181:24182   */\n      0x00\n        /* \"#utility.yul\":24170:24179   */\n      dup4\n        /* \"#utility.yul\":24166:24183   */\n      add\n        /* \"#utility.yul\":24159:24206   */\n      mstore\n        /* \"#utility.yul\":24223:24341   */\n      tag_452\n        /* \"#utility.yul\":24336:24340   */\n      dup2\n        /* \"#utility.yul\":24327:24333   */\n      dup5\n        /* \"#utility.yul\":24223:24341   */\n      tag_222\n      jump\t// in\n    tag_452:\n        /* \"#utility.yul\":24215:24341   */\n      swap1\n      pop\n        /* \"#utility.yul\":23955:24348   */\n      swap3\n      swap2\n      pop\n      pop\n      jump\t// out\n        /* \"#utility.yul\":24354:24534   */\n    tag_223:\n        /* \"#utility.yul\":24402:24479   */\n      0x4e487b7100000000000000000000000000000000000000000000000000000000\n        /* \"#utility.yul\":24399:24400   */\n      0x00\n        /* \"#utility.yul\":24392:24480   */\n      mstore\n        /* \"#utility.yul\":24499:24503   */\n      0x11\n        /* \"#utility.yul\":24496:24497   */\n      0x04\n        /* \"#utility.yul\":24489:24504   */\n      mstore\n        /* \"#utility.yul\":24523:24527   */\n      0x24\n        /* \"#utility.yul\":24520:24521   */\n      0x00\n        /* \"#utility.yul\":24513:24528   */\n      revert\n        /* \"#utility.yul\":24540:24731   */\n    tag_64:\n        /* \"#utility.yul\":24580:24583   */\n      0x00\n        /* \"#utility.yul\":24599:24619   */\n      tag_455\n        /* \"#utility.yul\":24617:24618   */\n      dup3\n        /* \"#utility.yul\":24599:24619   */\n      tag_172\n      jump\t// in\n    tag_455:\n        /* \"#utility.yul\":24594:24619   */\n      swap2\n      pop\n        /* \"#utility.yul\":24633:24653   */\n      tag_456\n        /* \"#utility.yul\":24651:24652   */\n      dup4\n        /* \"#utility.yul\":24633:24653   */\n      tag_172\n      jump\t// in\n    tag_456:\n        /* \"#utility.yul\":24628:24653   */\n      swap3\n      pop\n        /* \"#utility.yul\":24676:24677   */\n      dup3\n        /* \"#utility.yul\":24673:24674   */\n      dup3\n        /* \"#utility.yul\":24669:24678   */\n      add\n        /* \"#utility.yul\":24662:24678   */\n      swap1\n      pop\n        /* \"#utility.yul\":24697:24700   */\n      dup1\n        /* \"#utility.yul\":24694:24695   */\n      dup3\n        /* \"#utility.yul\":24691:24701   */\n      gt\n        /* \"#utility.yul\":24688:24724   */\n      iszero\n      tag_457\n      jumpi\n        /* \"#utility.yul\":24704:24722   */\n      tag_458\n      tag_223\n      jump\t// in\n    tag_458:\n        /* \"#utility.yul\":24688:24724   */\n    tag_457:\n        /* \"#utility.yul\":24540:24731   */\n      swap3\n      swap2\n      pop\n      pop\n      jump\t// out\n        /* \"#utility.yul\":24737:24917   */\n    tag_224:\n        /* \"#utility.yul\":24785:24862   */\n      0x4e487b7100000000000000000000000000000000000000000000000000000000\n        /* \"#utility.yul\":24782:24783   */\n      0x00\n        /* \"#utility.yul\":24775:24863   */\n      mstore\n        /* \"#utility.yul\":24882:24886   */\n      0x22\n        /* \"#utility.yul\":24879:24880   */\n      0x04\n        /* \"#utility.yul\":24872:24887   */\n      mstore\n        /* \"#utility.yul\":24906:24910   */\n      0x24\n        /* \"#utility.yul\":24903:24904   */\n      0x00\n        /* \"#utility.yul\":24896:24911   */\n      revert\n        /* \"#utility.yul\":24923:25243   */\n    tag_72:\n        /* \"#utility.yul\":24967:24973   */\n      0x00\n        /* \"#utility.yul\":25004:25005   */\n      0x02\n        /* \"#utility.yul\":24998:25002   */\n      dup3\n        /* \"#utility.yul\":24994:25006   */\n      div\n        /* \"#utility.yul\":24984:25006   */\n      swap1\n      pop\n        /* \"#utility.yul\":25051:25052   */\n      0x01\n        /* \"#utility.yul\":25045:25049   */\n      dup3\n        /* \"#utility.yul\":25041:25053   */\n      and\n        /* \"#utility.yul\":25072:25090   */\n      dup1\n        /* \"#utility.yul\":25062:25143   */\n      tag_461\n      jumpi\n        /* \"#utility.yul\":25128:25132   */\n      0x7f\n        /* \"#utility.yul\":25120:25126   */\n      dup3\n        /* \"#utility.yul\":25116:25133   */\n      and\n        /* \"#utility.yul\":25106:25133   */\n      swap2\n      pop\n        /* \"#utility.yul\":25062:25143   */\n    tag_461:\n        /* \"#utility.yul\":25190:25192   */\n      0x20\n        /* \"#utility.yul\":25182:25188   */\n      dup3\n        /* \"#utility.yul\":25179:25193   */\n      lt\n        /* \"#utility.yul\":25159:25177   */\n      dup2\n        /* \"#utility.yul\":25156:25194   */\n      sub\n        /* \"#utility.yul\":25153:25237   */\n      tag_462\n      jumpi\n        /* \"#utility.yul\":25209:25227   */\n      tag_463\n      tag_224\n      jump\t// in\n    tag_463:\n        /* \"#utility.yul\":25153:25237   */\n    tag_462:\n        /* \"#utility.yul\":24974:25243   */\n      pop\n        /* \"#utility.yul\":24923:25243   */\n      swap2\n      swap1\n      pop\n      jump\t// out\n        /* \"#utility.yul\":25249:25419   */\n    tag_225:\n        /* \"#utility.yul\":25389:25411   */\n      0x496e73756666696369656e742062616c616e6365000000000000000000000000\n        /* \"#utility.yul\":25385:25386   */\n      0x00\n        /* \"#utility.yul\":25377:25383   */\n      dup3\n        /* \"#utility.yul\":25373:25387   */\n      add\n        /* \"#utility.yul\":25366:25412   */\n      mstore\n        /* \"#utility.yul\":25249:25419   */\n      pop\n      jump\t// out\n        /* \"#utility.yul\":25425:25791   */\n    tag_226:\n        /* \"#utility.yul\":25567:25570   */\n      0x00\n        /* \"#utility.yul\":25588:25655   */\n      tag_466\n        /* \"#utility.yul\":25652:25654   */\n      0x14\n        /* \"#utility.yul\":25647:25650   */\n      dup4\n        /* \"#utility.yul\":25588:25655   */\n      tag_161\n      jump\t// in\n    tag_466:\n        /* \"#utility.yul\":25581:25655   */\n      swap2\n      pop\n        /* \"#utility.yul\":25664:25757   */\n      tag_467\n        /* \"#utility.yul\":25753:25756   */\n      dup3\n        /* \"#utility.yul\":25664:25757   */\n      tag_225\n      jump\t// in\n    tag_467:\n        /* \"#utility.yul\":25782:25784   */\n      0x20\n        /* \"#utility.yul\":25777:25780   */\n      dup3\n        /* \"#utility.yul\":25773:25785   */\n      add\n        /* \"#utility.yul\":25766:25785   */\n      swap1\n      pop\n        /* \"#utility.yul\":25425:25791   */\n      swap2\n      swap1\n      pop\n      jump\t// out\n        /* \"#utility.yul\":25797:26216   */\n    tag_96:\n        /* \"#utility.yul\":25963:25967   */\n      0x00\n        /* \"#utility.yul\":26001:26003   */\n      0x20\n        /* \"#utility.yul\":25990:25999   */\n      dup3\n        /* \"#utility.yul\":25986:26004   */\n      add\n        /* \"#utility.yul\":25978:26004   */\n      swap1\n      pop\n        /* \"#utility.yul\":26050:26059   */\n      dup2\n        /* \"#utility.yul\":26044:26048   */\n      dup2\n        /* \"#utility.yul\":26040:26060   */\n      sub\n        /* \"#utility.yul\":26036:26037   */\n      0x00\n        /* \"#utility.yul\":26025:26034   */\n      dup4\n        /* \"#utility.yul\":26021:26038   */\n      add\n        /* \"#utility.yul\":26014:26061   */\n      mstore\n        /* \"#utility.yul\":26078:26209   */\n      tag_469\n        /* \"#utility.yul\":26204:26208   */\n      dup2\n        /* \"#utility.yul\":26078:26209   */\n      tag_226\n      jump\t// in\n    tag_469:\n        /* \"#utility.yul\":26070:26209   */\n      swap1\n      pop\n        /* \"#utility.yul\":25797:26216   */\n      swap2\n      swap1\n      pop\n      jump\t// out\n        /* \"#utility.yul\":26222:26363   */\n    tag_227:\n        /* \"#utility.yul\":26271:26275   */\n      0x00\n        /* \"#utility.yul\":26294:26297   */\n      dup2\n        /* \"#utility.yul\":26286:26297   */\n      swap1\n      pop\n        /* \"#utility.yul\":26317:26320   */\n      dup2\n        /* \"#utility.yul\":26314:26315   */\n      0x00\n        /* \"#utility.yul\":26307:26321   */\n      mstore\n        /* \"#utility.yul\":26351:26355   */\n      0x20\n        /* \"#utility.yul\":26348:26349   */\n      0x00\n        /* \"#utility.yul\":26338:26356   */\n      keccak256\n        /* \"#utility.yul\":26330:26356   */\n      swap1\n      pop\n        /* \"#utility.yul\":26222:26363   */\n      swap2\n      swap1\n      pop\n      jump\t// out\n        /* \"#utility.yul\":26369:26462   */\n    tag_228:\n        /* \"#utility.yul\":26406:26412   */\n      0x00\n        /* \"#utility.yul\":26453:26455   */\n      0x20\n        /* \"#utility.yul\":26448:26450   */\n      0x1f\n        /* \"#utility.yul\":26441:26446   */\n      dup4\n        /* \"#utility.yul\":26437:26451   */\n      add\n        /* \"#utility.yul\":26433:26456   */\n      div\n        /* \"#utility.yul\":26423:26456   */\n      swap1\n      pop\n        /* \"#utility.yul\":26369:26462   */\n      swap2\n      swap1\n      pop\n      jump\t// out\n        /* \"#utility.yul\":26468:26575   */\n    tag_229:\n        /* \"#utility.yul\":26512:26520   */\n      0x00\n        /* \"#utility.yul\":26562:26567   */\n      dup3\n        /* \"#utility.yul\":26556:26560   */\n      dup3\n        /* \"#utility.yul\":26552:26568   */\n      shl\n        /* \"#utility.yul\":26531:26568   */\n      swap1\n      pop\n        /* \"#utility.yul\":26468:26575   */\n      swap3\n      swap2\n      pop\n      pop\n      jump\t// out\n        /* \"#utility.yul\":26581:26974   */\n    tag_230:\n        /* \"#utility.yul\":26650:26656   */\n      0x00\n        /* \"#utility.yul\":26700:26701   */\n      0x08\n        /* \"#utility.yul\":26688:26698   */\n      dup4\n        /* \"#utility.yul\":26684:26702   */\n      mul\n        /* \"#utility.yul\":26723:26820   */\n      tag_474\n        /* \"#utility.yul\":26753:26819   */\n      0xffffffffffffffffffffffffffffffffffffffffffffffffffffffffffffffff\n        /* \"#utility.yul\":26742:26751   */\n      dup3\n        /* \"#utility.yul\":26723:26820   */\n      tag_229\n      jump\t// in\n    tag_474:\n        /* \"#utility.yul\":26841:26880   */\n      tag_475\n        /* \"#utility.yul\":26871:26879   */\n      dup7\n        /* \"#utility.yul\":26860:26869   */\n      dup4\n        /* \"#utility.yul\":26841:26880   */\n      tag_229\n      jump\t// in\n    tag_475:\n        /* \"#utility.yul\":26829:26880   */\n      swap6\n      pop\n        /* \"#utility.yul\":26913:26917   */\n      dup1\n        /* \"#utility.yul\":26909:26918   */\n      not\n        /* \"#utility.yul\":26902:26907   */\n      dup5\n        /* \"#utility.yul\":26898:26919   */\n      and\n        /* \"#utility.yul\":26889:26919   */\n      swap4\n      pop\n        /* \"#utility.yul\":26962:26966   */\n      dup1\n        /* \"#utility.yul\":26952:26960   */\n      dup7\n        /* \"#utility.yul\":26948:26967   */\n      and\n        /* \"#utility.yul\":26941:26946   */\n      dup5\n        /* \"#utility.yul\":26938:26968   */\n      or\n        /* \"#utility.yul\":26928:26968   */\n      swap3\n      pop\n        /* \"#utility.yul\":26657:26974   */\n      pop\n      pop\n        /* \"#utility.yul\":26581:26974   */\n      swap4\n      swap3\n      pop\n      pop\n      pop\n      jump\t// out\n        /* \"#utility.yul\":26980:27040   */\n    tag_231:\n        /* \"#utility.yul\":27008:27011   */\n      0x00\n        /* \"#utility.yul\":27029:27034   */\n      dup2\n        /* \"#utility.yul\":27022:27034   */\n      swap1\n      pop\n        /* \"#utility.yul\":26980:27040   */\n      swap2\n      swap1\n      pop\n      jump\t// out\n        /* \"#utility.yul\":27046:27188   */\n    tag_232:\n        /* \"#utility.yul\":27096:27105   */\n      0x00\n        /* \"#utility.yul\":27129:27182   */\n      tag_478\n        /* \"#utility.yul\":27147:27181   */\n      tag_479\n        /* \"#utility.yul\":27156:27180   */\n      tag_480\n        /* \"#utility.yul\":27174:27179   */\n      dup5\n        /* \"#utility.yul\":27156:27180   */\n      tag_172\n      jump\t// in\n    tag_480:\n        /* \"#utility.yul\":27147:27181   */\n      tag_231\n      jump\t// in\n    tag_479:\n        /* \"#utility.yul\":27129:27182   */\n      tag_172\n      jump\t// in\n    tag_478:\n        /* \"#utility.yul\":27116:27182   */\n      swap1\n      pop\n        /* \"#utility.yul\":27046:27188   */\n      swap2\n      swap1\n      pop\n      jump\t// out\n        /* \"#utility.yul\":27194:27269   */\n    tag_233:\n        /* \"#utility.yul\":27237:27240   */\n      0x00\n        /* \"#utility.yul\":27258:27263   */\n      dup2\n        /* \"#utility.yul\":27251:27263   */\n      swap1\n      pop\n        /* \"#utility.yul\":27194:27269   */\n      swap2\n      swap1\n      pop\n      jump\t// out\n        /* \"#utility.yul\":27275:27544   */\n    tag_234:\n        /* \"#utility.yul\":27385:27424   */\n      tag_483\n        /* \"#utility.yul\":27416:27423   */\n      dup4\n        /* \"#utility.yul\":27385:27424   */\n      tag_232\n      jump\t// in\n    tag_483:\n        /* \"#utility.yul\":27446:27537   */\n      tag_484\n        /* \"#utility.yul\":27495:27536   */\n      tag_485\n        /* \"#utility.yul\":27519:27535   */\n      dup3\n        /* \"#utility.yul\":27495:27536   */\n      tag_233\n      jump\t// in\n    tag_485:\n        /* \"#utility.yul\":27487:27493   */\n      dup5\n        /* \"#utility.yul\":27480:27484   */\n      dup5\n        /* \"#utility.yul\":27474:27485   */\n      sload\n        /* \"#utility.yul\":27446:27537   */\n      tag_230\n      jump\t// in\n    tag_484:\n        /* \"#utility.yul\":27440:27444   */\n      dup3\n        /* \"#utility.yul\":27433:27538   */\n      sstore\n        /* \"#utility.yul\":27351:27544   */\n      pop\n        /* \"#utility.yul\":27275:27544   */\n      pop\n      pop\n      pop\n      jump\t// out\n        /* \"#utility.yul\":27550:27623   */\n    tag_235:\n        /* \"#utility.yul\":27595:27598   */\n      0x00\n        /* \"#utility.yul\":27550:27623   */\n      swap1\n      jump\t// out\n        /* \"#utility.yul\":27629:27818   */\n    tag_236:\n        /* \"#utility.yul\":27706:27738   */\n      tag_488\n      tag_235\n      jump\t// in\n    tag_488:\n        /* \"#utility.yul\":27747:27812   */\n      tag_489\n        /* \"#utility.yul\":27805:27811   */\n      dup2\n        /* \"#utility.yul\":27797:27803   */\n      dup5\n        /* \"#utility.yul\":27791:27795   */\n      dup5\n        /* \"#utility.yul\":27747:27812   */\n      tag_234\n      jump\t// in\n    tag_489:\n        /* \"#utility.yul\":27682:27818   */\n      pop\n        /* \"#utility.yul\":27629:27818   */\n      pop\n      pop\n      jump\t// out\n        /* \"#utility.yul\":27824:28010   */\n    tag_237:\n        /* \"#utility.yul\":27884:28004   */\n    tag_491:\n        /* \"#utility.yul\":27901:27904   */\n      dup2\n        /* \"#utility.yul\":27894:27899   */\n      dup2\n        /* \"#utility.yul\":27891:27905   */\n      lt\n        /* \"#utility.yul\":27884:28004   */\n      iszero\n      tag_493\n      jumpi\n        /* \"#utility.yul\":27955:27994   */\n      tag_494\n        /* \"#utility.yul\":27992:27993   */\n      0x00\n        /* \"#utility.yul\":27985:27990   */\n      dup3\n        /* \"#utility.yul\":27955:27994   */\n      tag_236\n      jump\t// in\n    tag_494:\n        /* \"#utility.yul\":27928:27929   */\n      0x01\n        /* \"#utility.yul\":27921:27926   */\n      dup2\n        /* \"#utility.yul\":27917:27930   */\n      add\n        /* \"#utility.yul\":27908:27930   */\n      swap1\n      pop\n        /* \"#utility.yul\":27884:28004   */\n      jump(tag_491)\n    tag_493:\n        /* \"#utility.yul\":27824:28010   */\n      pop\n      pop\n      jump\t// out\n        /* \"#utility.yul\":28016:28559   */\n    tag_238:\n        /* \"#utility.yul\":28117:28119   */\n      0x1f\n        /* \"#utility.yul\":28112:28115   */\n      dup3\n        /* \"#utility.yul\":28109:28120   */\n      gt\n        /* \"#utility.yul\":28106:28552   */\n      iszero\n      tag_496\n      jumpi\n        /* \"#utility.yul\":28151:28189   */\n      tag_497\n        /* \"#utility.yul\":28183:28188   */\n      dup2\n        /* \"#utility.yul\":28151:28189   */\n      tag_227\n      jump\t// in\n    tag_497:\n        /* \"#utility.yul\":28235:28264   */\n      tag_498\n        /* \"#utility.yul\":28253:28263   */\n      dup5\n        /* \"#utility.yul\":28235:28264   */\n      tag_228\n      jump\t// in\n    tag_498:\n        /* \"#utility.yul\":28225:28233   */\n      dup2\n        /* \"#utility.yul\":28221:28265   */\n      add\n        /* \"#utility.yul\":28418:28420   */\n      0x20\n        /* \"#utility.yul\":28406:28416   */\n      dup6\n        /* \"#utility.yul\":28403:28421   */\n      lt\n        /* \"#utility.yul\":28400:28449   */\n      iszero\n      tag_499\n      jumpi\n        /* \"#utility.yul\":28439:28447   */\n      dup2\n        /* \"#utility.yul\":28424:28447   */\n      swap1\n      pop\n        /* \"#utility.yul\":28400:28449   */\n    tag_499:\n        /* \"#utility.yul\":28462:28542   */\n      tag_500\n        /* \"#utility.yul\":28518:28540   */\n      tag_501\n        /* \"#utility.yul\":28536:28539   */\n      dup6\n        /* \"#utility.yul\":28518:28540   */\n      tag_228\n      jump\t// in\n    tag_501:\n        /* \"#utility.yul\":28508:28516   */\n      dup4\n        /* \"#utility.yul\":28504:28541   */\n      add\n        /* \"#utility.yul\":28491:28502   */\n      dup3\n        /* \"#utility.yul\":28462:28542   */\n      tag_237\n      jump\t// in\n    tag_500:\n        /* \"#utility.yul\":28121:28552   */\n      pop\n      pop\n        /* \"#utility.yul\":28106:28552   */\n    tag_496:\n        /* \"#utility.yul\":28016:28559   */\n      pop\n      pop\n      pop\n      jump\t// out\n        /* \"#utility.yul\":28565:28682   */\n    tag_239:\n        /* \"#utility.yul\":28619:28627   */\n      0x00\n        /* \"#utility.yul\":28669:28674   */\n      dup3\n        /* \"#utility.yul\":28663:28667   */\n      dup3\n        /* \"#utility.yul\":28659:28675   */\n      shr\n        /* \"#utility.yul\":28638:28675   */\n      swap1\n      pop\n        /* \"#utility.yul\":28565:28682   */\n      swap3\n      swap2\n      pop\n      pop\n      jump\t// out\n        /* \"#utility.yul\":28688:28857   */\n    tag_240:\n        /* \"#utility.yul\":28732:28738   */\n      0x00\n        /* \"#utility.yul\":28765:28816   */\n      tag_504\n        /* \"#utility.yul\":28813:28814   */\n      0x00\n        /* \"#utility.yul\":28809:28815   */\n      not\n        /* \"#utility.yul\":28801:28806   */\n      dup5\n        /* \"#utility.yul\":28798:28799   */\n      0x08\n        /* \"#utility.yul\":28794:28807   */\n      mul\n        /* \"#utility.yul\":28765:28816   */\n      tag_239\n      jump\t// in\n    tag_504:\n        /* \"#utility.yul\":28761:28817   */\n      not\n        /* \"#utility.yul\":28846:28850   */\n      dup1\n        /* \"#utility.yul\":28840:28844   */\n      dup4\n        /* \"#utility.yul\":28836:28851   */\n      and\n        /* \"#utility.yul\":28826:28851   */\n      swap2\n      pop\n        /* \"#utility.yul\":28739:28857   */\n      pop\n        /* \"#utility.yul\":28688:28857   */\n      swap3\n      swap2\n      pop\n      pop\n      jump\t// out\n        /* \"#utility.yul\":28862:29157   */\n    tag_241:\n        /* \"#utility.yul\":28938:28942   */\n      0x00\n        /* \"#utility.yul\":29084:29113   */\n      tag_506\n        /* \"#utility.yul\":29109:29112   */\n      dup4\n        /* \"#utility.yul\":29103:29107   */\n      dup4\n        /* \"#utility.yul\":29084:29113   */\n      tag_240\n      jump\t// in\n    tag_506:\n        /* \"#utility.yul\":29076:29113   */\n      swap2\n      pop\n        /* \"#utility.yul\":29146:29149   */\n      dup3\n        /* \"#utility.yul\":29143:29144   */\n      0x02\n        /* \"#utility.yul\":29139:29150   */\n      mul\n        /* \"#utility.yul\":29133:29137   */\n      dup3\n        /* \"#utility.yul\":29130:29151   */\n      or\n        /* \"#utility.yul\":29122:29151   */\n      swap1\n      pop\n        /* \"#utility.yul\":28862:29157   */\n      swap3\n      swap2\n      pop\n      pop\n      jump\t// out\n        /* \"#utility.yul\":29162:30557   */\n    tag_98:\n        /* \"#utility.yul\":29279:29316   */\n      tag_508\n        /* \"#utility.yul\":29312:29315   */\n      dup3\n        /* \"#utility.yul\":29279:29316   */\n      tag_177\n      jump\t// in\n    tag_508:\n        /* \"#utility.yul\":29381:29399   */\n      0xffffffffffffffff\n        /* \"#utility.yul\":29373:29379   */\n      dup2\n        /* \"#utility.yul\":29370:29400   */\n      gt\n        /* \"#utility.yul\":29367:29423   */\n      iszero\n      tag_509\n      jumpi\n        /* \"#utility.yul\":29403:29421   */\n      tag_510\n      tag_204\n      jump\t// in\n    tag_510:\n        /* \"#utility.yul\":29367:29423   */\n    tag_509:\n        /* \"#utility.yul\":29447:29485   */\n      tag_511\n        /* \"#utility.yul\":29479:29483   */\n      dup3\n        /* \"#utility.yul\":29473:29484   */\n      sload\n        /* \"#utility.yul\":29447:29485   */\n      tag_72\n      jump\t// in\n    tag_511:\n        /* \"#utility.yul\":29532:29599   */\n      tag_512\n        /* \"#utility.yul\":29592:29598   */\n      dup3\n        /* \"#utility.yul\":29584:29590   */\n      dup3\n        /* \"#utility.yul\":29578:29582   */\n      dup6\n        /* \"#utility.yul\":29532:29599   */\n      tag_238\n      jump\t// in\n    tag_512:\n        /* \"#utility.yul\":29626:29627   */\n      0x00\n        /* \"#utility.yul\":29650:29654   */\n      0x20\n        /* \"#utility.yul\":29637:29654   */\n      swap1\n      pop\n        /* \"#utility.yul\":29682:29684   */\n      0x1f\n        /* \"#utility.yul\":29674:29680   */\n      dup4\n        /* \"#utility.yul\":29671:29685   */\n      gt\n        /* \"#utility.yul\":29699:29700   */\n      0x01\n        /* \"#utility.yul\":29694:30312   */\n      dup2\n      eq\n      tag_514\n      jumpi\n        /* \"#utility.yul\":30356:30357   */\n      0x00\n        /* \"#utility.yul\":30373:30379   */\n      dup5\n        /* \"#utility.yul\":30370:30447   */\n      iszero\n      tag_515\n      jumpi\n        /* \"#utility.yul\":30422:30431   */\n      dup3\n        /* \"#utility.yul\":30417:30420   */\n      dup8\n        /* \"#utility.yul\":30413:30432   */\n      add\n        /* \"#utility.yul\":30407:30433   */\n      mload\n        /* \"#utility.yul\":30398:30433   */\n      swap1\n      pop\n        /* \"#utility.yul\":30370:30447   */\n    tag_515:\n        /* \"#utility.yul\":30473:30540   */\n      tag_516\n        /* \"#utility.yul\":30533:30539   */\n      dup6\n        /* \"#utility.yul\":30526:30531   */\n      dup3\n        /* \"#utility.yul\":30473:30540   */\n      tag_241\n      jump\t// in\n    tag_516:\n        /* \"#utility.yul\":30467:30471   */\n      dup7\n        /* \"#utility.yul\":30460:30541   */\n      sstore\n        /* \"#utility.yul\":30329:30551   */\n      pop\n        /* \"#utility.yul\":29664:30551   */\n      jump(tag_513)\n        /* \"#utility.yul\":29694:30312   */\n    tag_514:\n        /* \"#utility.yul\":29746:29750   */\n      0x1f\n        /* \"#utility.yul\":29742:29751   */\n      not\n        /* \"#utility.yul\":29734:29740   */\n      dup5\n        /* \"#utility.yul\":29730:29752   */\n      and\n        /* \"#utility.yul\":29780:29817   */\n      tag_517\n        /* \"#utility.yul\":29812:29816   */\n      dup7\n        /* \"#utility.yul\":29780:29817   */\n      tag_227\n      jump\t// in\n    tag_517:\n        /* \"#utility.yul\":29839:29840   */\n      0x00\n        /* \"#utility.yul\":29853:30061   */\n    tag_518:\n        /* \"#utility.yul\":29867:29874   */\n      dup3\n        /* \"#utility.yul\":29864:29865   */\n      dup2\n        /* \"#utility.yul\":29861:29875   */\n      lt\n        /* \"#utility.yul\":29853:30061   */\n      iszero\n      tag_520\n      jumpi\n        /* \"#utility.yul\":29946:29955   */\n      dup5\n        /* \"#utility.yul\":29941:29944   */\n      dup10\n        /* \"#utility.yul\":29937:29956   */\n      add\n        /* \"#utility.yul\":29931:29957   */\n      mload\n        /* \"#utility.yul\":29923:29929   */\n      dup3\n        /* \"#utility.yul\":29916:29958   */\n      sstore\n        /* \"#utility.yul\":29997:29998   */\n      0x01\n        /* \"#utility.yul\":29989:29995   */\n      dup3\n        /* \"#utility.yul\":29985:29999   */\n      add\n        /* \"#utility.yul\":29975:29999   */\n      swap2\n      pop\n        /* \"#utility.yul\":30044:30046   */\n      0x20\n        /* \"#utility.yul\":30033:30042   */\n      dup6\n        /* \"#utility.yul\":30029:30047   */\n      add\n        /* \"#utility.yul\":30016:30047   */\n      swap5\n      pop\n        /* \"#utility.yul\":29890:29894   */\n      0x20\n        /* \"#utility.yul\":29887:29888   */\n      dup2\n        /* \"#utility.yul\":29883:29895   */\n      add\n        /* \"#utility.yul\":29878:29895   */\n      swap1\n      pop\n        /* \"#utility.yul\":29853:30061   */\n      jump(tag_518)\n    tag_520:\n        /* \"#utility.yul\":30089:30095   */\n      dup7\n        /* \"#utility.yul\":30080:30087   */\n      dup4\n        /* \"#utility.yul\":30077:30096   */\n      lt\n        /* \"#utility.yul\":30074:30253   */\n      iszero\n      tag_521\n      jumpi\n        /* \"#utility.yul\":30147:30156   */\n      dup5\n        /* \"#utility.yul\":30142:30145   */\n      dup10\n        /* \"#utility.yul\":30138:30157   */\n      add\n        /* \"#utility.yul\":30132:30158   */\n      mload\n        /* \"#utility.yul\":30190:30238   */\n      tag_522\n        /* \"#utility.yul\":30232:30236   */\n      0x1f\n        /* \"#utility.yul\":30224:30230   */\n      dup10\n        /* \"#utility.yul\":30220:30237   */\n      and\n        /* \"#utility.yul\":30209:30218   */\n      dup3\n        /* \"#utility.yul\":30190:30238   */\n      tag_240\n      jump\t// in\n    tag_522:\n        /* \"#utility.yul\":30182:30188   */\n      dup4\n        /* \"#utility.yul\":30175:30239   */\n      sstore\n        /* \"#utility.yul\":30097:30253   */\n      pop\n        /* \"#utility.yul\":30074:30253   */\n    tag_521:\n        /* \"#utility.yul\":30299:30300   */\n      0x01\n        /* \"#utility.yul\":30295:30296   */\n      0x02\n        /* \"#utility.yul\":30287:30293   */\n      dup9\n        /* \"#utility.yul\":30283:30297   */\n      mul\n        /* \"#utility.yul\":30279:30301   */\n      add\n        /* \"#utility.yul\":30273:30277   */\n      dup9\n        /* \"#utility.yul\":30266:30302   */\n      sstore\n        /* \"#utility.yul\":29701:30312   */\n      pop\n      pop\n      pop\n        /* \"#utility.yul\":29664:30551   */\n    tag_513:\n      pop\n        /* \"#utility.yul\":29254:30557   */\n      pop\n      pop\n      pop\n        /* \"#utility.yul\":29162:30557   */\n      pop\n      pop\n      jump\t// out\n        /* \"#utility.yul\":30563:30743   */\n    tag_104:\n        /* \"#utility.yul\":30611:30688   */\n      0x4e487b7100000000000000000000000000000000000000000000000000000000\n        /* \"#utility.yul\":30608:30609   */\n      0x00\n        /* \"#utility.yul\":30601:30689   */\n      mstore\n        /* \"#utility.yul\":30708:30712   */\n      0x32\n        /* \"#utility.yul\":30705:30706   */\n      0x04\n        /* \"#utility.yul\":30698:30713   */\n      mstore\n        /* \"#utility.yul\":30732:30736   */\n      0x24\n        /* \"#utility.yul\":30729:30730   */\n      0x00\n        /* \"#utility.yul\":30722:30737   */\n      revert\n        /* \"#utility.yul\":30749:30898   */\n    tag_242:\n        /* \"#utility.yul\":30798:30804   */\n      0x00\n        /* \"#utility.yul\":30832:30837   */\n      dup2\n        /* \"#utility.yul\":30826:30838   */\n      sload\n        /* \"#utility.yul\":30816:30838   */\n      swap1\n      pop\n        /* \"#utility.yul\":30858:30891   */\n      tag_525\n        /* \"#utility.yul\":30884:30890   */\n      dup2\n        /* \"#utility.yul\":30858:30891   */\n      tag_72\n      jump\t// in\n    tag_525:\n        /* \"#utility.yul\":30848:30891   */\n      swap1\n      pop\n        /* \"#utility.yul\":30749:30898   */\n      swap2\n      swap1\n      pop\n      jump\t// out\n        /* \"#utility.yul\":30904:32355   */\n    tag_109:\n        /* \"#utility.yul\":31015:31018   */\n      dup2\n        /* \"#utility.yul\":31009:31013   */\n      dup2\n        /* \"#utility.yul\":31006:31019   */\n      sub\n        /* \"#utility.yul\":31003:31029   */\n      tag_527\n      jumpi\n        /* \"#utility.yul\":31022:31027   */\n      pop\n      pop\n      jump(tag_526)\n        /* \"#utility.yul\":31003:31029   */\n    tag_527:\n        /* \"#utility.yul\":31053:31087   */\n      tag_528\n        /* \"#utility.yul\":31083:31086   */\n      dup3\n        /* \"#utility.yul\":31053:31087   */\n      tag_242\n      jump\t// in\n    tag_528:\n        /* \"#utility.yul\":31152:31170   */\n      0xffffffffffffffff\n        /* \"#utility.yul\":31144:31150   */\n      dup2\n        /* \"#utility.yul\":31141:31171   */\n      gt\n        /* \"#utility.yul\":31138:31194   */\n      iszero\n      tag_529\n      jumpi\n        /* \"#utility.yul\":31174:31192   */\n      tag_530\n      tag_204\n      jump\t// in\n    tag_530:\n        /* \"#utility.yul\":31138:31194   */\n    tag_529:\n        /* \"#utility.yul\":31218:31256   */\n      tag_531\n        /* \"#utility.yul\":31250:31254   */\n      dup3\n        /* \"#utility.yul\":31244:31255   */\n      sload\n        /* \"#utility.yul\":31218:31256   */\n      tag_72\n      jump\t// in\n    tag_531:\n        /* \"#utility.yul\":31303:31370   */\n      tag_532\n        /* \"#utility.yul\":31363:31369   */\n      dup3\n        /* \"#utility.yul\":31355:31361   */\n      dup3\n        /* \"#utility.yul\":31349:31353   */\n      dup6\n        /* \"#utility.yul\":31303:31370   */\n      tag_238\n      jump\t// in\n    tag_532:\n        /* \"#utility.yul\":31397:31398   */\n      0x00\n        /* \"#utility.yul\":31426:31428   */\n      0x1f\n        /* \"#utility.yul\":31418:31424   */\n      dup4\n        /* \"#utility.yul\":31415:31429   */\n      gt\n        /* \"#utility.yul\":31443:31444   */\n      0x01\n        /* \"#utility.yul\":31438:32110   */\n      dup2\n      eq\n      tag_534\n      jumpi\n        /* \"#utility.yul\":32154:32155   */\n      0x00\n        /* \"#utility.yul\":32171:32177   */\n      dup5\n        /* \"#utility.yul\":32168:32245   */\n      iszero\n      tag_535\n      jumpi\n        /* \"#utility.yul\":32220:32229   */\n      dup3\n        /* \"#utility.yul\":32215:32218   */\n      dup8\n        /* \"#utility.yul\":32211:32230   */\n      add\n        /* \"#utility.yul\":32205:32231   */\n      sload\n        /* \"#utility.yul\":32196:32231   */\n      swap1\n      pop\n        /* \"#utility.yul\":32168:32245   */\n    tag_535:\n        /* \"#utility.yul\":32271:32338   */\n      tag_536\n        /* \"#utility.yul\":32331:32337   */\n      dup6\n        /* \"#utility.yul\":32324:32329   */\n      dup3\n        /* \"#utility.yul\":32271:32338   */\n      tag_241\n      jump\t// in\n    tag_536:\n        /* \"#utility.yul\":32265:32269   */\n      dup7\n        /* \"#utility.yul\":32258:32339   */\n      sstore\n        /* \"#utility.yul\":32127:32349   */\n      pop\n        /* \"#utility.yul\":31408:32349   */\n      jump(tag_533)\n        /* \"#utility.yul\":31438:32110   */\n    tag_534:\n        /* \"#utility.yul\":31490:31494   */\n      0x1f\n        /* \"#utility.yul\":31486:31495   */\n      not\n        /* \"#utility.yul\":31478:31484   */\n      dup5\n        /* \"#utility.yul\":31474:31496   */\n      and\n        /* \"#utility.yul\":31516:31552   */\n      tag_537\n        /* \"#utility.yul\":31548:31551   */\n      dup8\n        /* \"#utility.yul\":31516:31552   */\n      tag_227\n      jump\t// in\n    tag_537:\n        /* \"#utility.yul\":31509:31552   */\n      swap7\n      pop\n        /* \"#utility.yul\":31579:31616   */\n      tag_538\n        /* \"#utility.yul\":31611:31615   */\n      dup7\n        /* \"#utility.yul\":31579:31616   */\n      tag_227\n      jump\t// in\n    tag_538:\n        /* \"#utility.yul\":31638:31639   */\n      0x00\n        /* \"#utility.yul\":31652:31859   */\n    tag_539:\n        /* \"#utility.yul\":31666:31673   */\n      dup3\n        /* \"#utility.yul\":31663:31664   */\n      dup2\n        /* \"#utility.yul\":31660:31674   */\n      lt\n        /* \"#utility.yul\":31652:31859   */\n      iszero\n      tag_541\n      jumpi\n        /* \"#utility.yul\":31745:31754   */\n      dup5\n        /* \"#utility.yul\":31740:31743   */\n      dup10\n        /* \"#utility.yul\":31736:31755   */\n      add\n        /* \"#utility.yul\":31730:31756   */\n      sload\n        /* \"#utility.yul\":31722:31728   */\n      dup3\n        /* \"#utility.yul\":31715:31757   */\n      sstore\n        /* \"#utility.yul\":31796:31797   */\n      0x01\n        /* \"#utility.yul\":31788:31794   */\n      dup3\n        /* \"#utility.yul\":31784:31798   */\n      add\n        /* \"#utility.yul\":31774:31798   */\n      swap2\n      pop\n        /* \"#utility.yul\":31843:31844   */\n      0x01\n        /* \"#utility.yul\":31832:31841   */\n      dup6\n        /* \"#utility.yul\":31828:31845   */\n      add\n        /* \"#utility.yul\":31815:31845   */\n      swap5\n      pop\n        /* \"#utility.yul\":31689:31693   */\n      0x20\n        /* \"#utility.yul\":31686:31687   */\n      dup2\n        /* \"#utility.yul\":31682:31694   */\n      add\n        /* \"#utility.yul\":31677:31694   */\n      swap1\n      pop\n        /* \"#utility.yul\":31652:31859   */\n      jump(tag_539)\n    tag_541:\n        /* \"#utility.yul\":31887:31893   */\n      dup7\n        /* \"#utility.yul\":31878:31885   */\n      dup4\n        /* \"#utility.yul\":31875:31894   */\n      lt\n        /* \"#utility.yul\":31872:32051   */\n      iszero\n      tag_542\n      jumpi\n        /* \"#utility.yul\":31945:31954   */\n      dup5\n        /* \"#utility.yul\":31940:31943   */\n      dup10\n        /* \"#utility.yul\":31936:31955   */\n      add\n        /* \"#utility.yul\":31930:31956   */\n      sload\n        /* \"#utility.yul\":31988:32036   */\n      tag_543\n        /* \"#utility.yul\":32030:32034   */\n      0x1f\n        /* \"#utility.yul\":32022:32028   */\n      dup10\n        /* \"#utility.yul\":32018:32035   */\n      and\n        /* \"#utility.yul\":32007:32016   */\n      dup3\n        /* \"#utility.yul\":31988:32036   */\n      tag_240\n      jump\t// in\n    tag_543:\n        /* \"#utility.yul\":31980:31986   */\n      dup4\n        /* \"#utility.yul\":31973:32037   */\n      sstore\n        /* \"#utility.yul\":31895:32051   */\n      pop\n        /* \"#utility.yul\":31872:32051   */\n    tag_542:\n        /* \"#utility.yul\":32097:32098   */\n      0x01\n        /* \"#utility.yul\":32093:32094   */\n      0x02\n        /* \"#utility.yul\":32085:32091   */\n      dup9\n        /* \"#utility.yul\":32081:32095   */\n      mul\n        /* \"#utility.yul\":32077:32099   */\n      add\n        /* \"#utility.yul\":32071:32075   */\n      dup9\n        /* \"#utility.yul\":32064:32100   */\n      sstore\n        /* \"#utility.yul\":31445:32110   */\n      pop\n      pop\n      pop\n        /* \"#utility.yul\":31408:32349   */\n    tag_533:\n      pop\n        /* \"#utility.yul\":30993:32355   */\n      pop\n      pop\n      pop\n        /* \"#utility.yul\":30904:32355   */\n      pop\n      pop\n    tag_526:\n      jump\t// out\n\n    auxdata: 0xa264697066735822122076a83043a2506c86cc9547eb4d03eaa0de06bf96149fd816486f3ebf2f85076364736f6c63430008160033\n}\n",
				"bytecode": {
					"linkReferences": {},
					"object": "608060405234801561000f575f80fd5b503360045f6101000a81548173ffffffffffffffffffffffffffffffffffffffff021916908373ffffffffffffffffffffffffffffffffffffffff1602179055506124408061005d5f395ff3fe60806040526004361061007e575f3560e01c8063b69ef8a81161004d578063b69ef8a814610197578063c11e1ff3146101c1578063c85d1487146101eb578063f8aff5f414610227576100bc565b8063127ff22e146100ff5780636da80b7f146101295780636f9fb98a146101515780637b1a49091461017b576100bc565b366100bc577f319af333460570a1937bf195dd33445c0d0951c59127da6f1f038b9fdce3fd72336040516100b2919061154d565b60405180910390a1005b7f319af333460570a1937bf195dd33445c0d0951c59127da6f1f038b9fdce3fd72336040516100eb91906115c3565b60405180910390a16100fd3334610251565b005b34801561010a575f80fd5b50610113610479565b604051610120919061193e565b60405180910390f35b348015610134575f80fd5b5061014f600480360381019061014a9190611c88565b61080f565b005b34801561015c575f80fd5b50610165610f5d565b6040516101729190611d93565b60405180910390f35b61019560048036038101906101909190611de7565b610f64565b005b3480156101a2575f80fd5b506101ab610fac565b6040516101b89190611d93565b60405180910390f35b3480156101cc575f80fd5b506101d5610fb2565b6040516101e29190611e25565b60405180910390f35b3480156101f6575f80fd5b50610211600480360381019061020c9190611e3e565b610fb9565b60405161021e9190611f32565b60405180910390f35b348015610232575f80fd5b5061023b611322565b6040516102489190611d93565b60405180910390f35b5f73ffffffffffffffffffffffffffffffffffffffff1660025f8473ffffffffffffffffffffffffffffffffffffffff1673ffffffffffffffffffffffffffffffffffffffff1681526020019081526020015f205f015f9054906101000a900473ffffffffffffffffffffffffffffffffffffffff1673ffffffffffffffffffffffffffffffffffffffff161461033d578060025f8473ffffffffffffffffffffffffffffffffffffffff1673ffffffffffffffffffffffffffffffffffffffff1681526020019081526020015f206001015f8282546103319190611f7f565b92505081905550610475565b5f60405180604001604052808473ffffffffffffffffffffffffffffffffffffffff1681526020018381525090508060025f8573ffffffffffffffffffffffffffffffffffffffff1673ffffffffffffffffffffffffffffffffffffffff1681526020019081526020015f205f820151815f015f6101000a81548173ffffffffffffffffffffffffffffffffffffffff021916908373ffffffffffffffffffffffffffffffffffffffff16021790555060208201518160010155905050600381908060018154018082558091505060019003905f5260205f2090600202015f909190919091505f820151815f015f6101000a81548173ffffffffffffffffffffffffffffffffffffffff021916908373ffffffffffffffffffffffffffffffffffffffff160217905550602082015181600101555050505b5050565b60606001805480602002602001604051908101604052809291908181526020015f905b82821015610806578382905f5260205f209060070201604051806101200160405290815f8201548152602001600182015f9054906101000a900473ffffffffffffffffffffffffffffffffffffffff1673ffffffffffffffffffffffffffffffffffffffff1673ffffffffffffffffffffffffffffffffffffffff168152602001600282015f9054906101000a900473ffffffffffffffffffffffffffffffffffffffff1673ffffffffffffffffffffffffffffffffffffffff1673ffffffffffffffffffffffffffffffffffffffff16815260200160038201548152602001600482015f9054906101000a900463ffffffff1663ffffffff1663ffffffff1681526020016004820160049054906101000a900463ffffffff1663ffffffff1663ffffffff1681526020016004820160089054906101000a900463ffffffff1663ffffffff1663ffffffff1681526020016005820180546105fc90611fdf565b80601f016020809104026020016040519081016040528092919081815260200182805461062890611fdf565b80156106735780601f1061064a57610100808354040283529160200191610673565b820191905f5260205f20905b81548152906001019060200180831161065657829003601f168201915b5050505050815260200160068201805480602002602001604051908101604052809291908181526020015f905b828210156107ef578382905f5260205f2090600202016040518060400160405290815f820180546106d090611fdf565b80601f01602080910402602001604051908101604052809291908181526020018280546106fc90611fdf565b80156107475780601f1061071e57610100808354040283529160200191610747565b820191905f5260205f20905b81548152906001019060200180831161072a57829003601f168201915b5050505050815260200160018201805461076090611fdf565b80601f016020809104026020016040519081016040528092919081815260200182805461078c90611fdf565b80156107d75780601f106107ae576101008083540402835291602001916107d7565b820191905f5260205f20905b8154815290600101906020018083116107ba57829003601f168201915b505050505081525050815260200190600101906106a0565b50505050815250508152602001906001019061049c565b50505050905090565b60045f9054906101000a900473ffffffffffffffffffffffffffffffffffffffff1673ffffffffffffffffffffffffffffffffffffffff163373ffffffffffffffffffffffffffffffffffffffff1614610867575f80fd5b5f60025f8a73ffffffffffffffffffffffffffffffffffffffff1673ffffffffffffffffffffffffffffffffffffffff1681526020019081526020015f206040518060400160405290815f82015f9054906101000a900473ffffffffffffffffffffffffffffffffffffffff1673ffffffffffffffffffffffffffffffffffffffff1673ffffffffffffffffffffffffffffffffffffffff16815260200160018201548152505090505f60025f8a73ffffffffffffffffffffffffffffffffffffffff1673ffffffffffffffffffffffffffffffffffffffff1681526020019081526020015f206040518060400160405290815f82015f9054906101000a900473ffffffffffffffffffffffffffffffffffffffff1673ffffffffffffffffffffffffffffffffffffffff1673ffffffffffffffffffffffffffffffffffffffff16815260200160018201548152505090508782602001511180156109cf5750878160200151115b610a0e576040517f08c379a0000000000000000000000000000000000000000000000000000000008152600401610a0590612059565b60405180910390fd5b5f805f8d81526020019081526020015f2090508b815f01819055508a816001015f6101000a81548173ffffffffffffffffffffffffffffffffffffffff021916908373ffffffffffffffffffffffffffffffffffffffff16021790555089816002015f6101000a81548173ffffffffffffffffffffffffffffffffffffffff021916908373ffffffffffffffffffffffffffffffffffffffff16021790555088816003018190555087816004015f6101000a81548163ffffffff021916908363ffffffff160217905550868160040160046101000a81548163ffffffff021916908363ffffffff160217905550858160040160086101000a81548163ffffffff021916908363ffffffff16021790555084816005019081610b2f9190612214565b505f5b8451811015610bb95781600601858281518110610b5257610b516122e3565b5b6020026020010151908060018154018082558091505060019003905f5260205f2090600202015f909190919091505f820151815f019081610b939190612214565b506020820151816001019081610ba99190612214565b5050508080600101915050610b32565b50805f808e81526020019081526020015f205f820154815f0155600182015f9054906101000a900473ffffffffffffffffffffffffffffffffffffffff16816001015f6101000a81548173ffffffffffffffffffffffffffffffffffffffff021916908373ffffffffffffffffffffffffffffffffffffffff160217905550600282015f9054906101000a900473ffffffffffffffffffffffffffffffffffffffff16816002015f6101000a81548173ffffffffffffffffffffffffffffffffffffffff021916908373ffffffffffffffffffffffffffffffffffffffff16021790555060038201548160030155600482015f9054906101000a900463ffffffff16816004015f6101000a81548163ffffffff021916908363ffffffff1602179055506004820160049054906101000a900463ffffffff168160040160046101000a81548163ffffffff021916908363ffffffff1602179055506004820160089054906101000a900463ffffffff168160040160086101000a81548163ffffffff021916908363ffffffff16021790555060058201816005019081610d5e9190612325565b506006820181600601908054610d75929190611329565b50905050600181908060018154018082558091505060019003905f5260205f2090600702015f909190919091505f820154815f0155600182015f9054906101000a900473ffffffffffffffffffffffffffffffffffffffff16816001015f6101000a81548173ffffffffffffffffffffffffffffffffffffffff021916908373ffffffffffffffffffffffffffffffffffffffff160217905550600282015f9054906101000a900473ffffffffffffffffffffffffffffffffffffffff16816002015f6101000a81548173ffffffffffffffffffffffffffffffffffffffff021916908373ffffffffffffffffffffffffffffffffffffffff16021790555060038201548160030155600482015f9054906101000a900463ffffffff16816004015f6101000a81548163ffffffff021916908363ffffffff1602179055506004820160049054906101000a900463ffffffff168160040160046101000a81548163ffffffff021916908363ffffffff1602179055506004820160089054906101000a900463ffffffff168160040160086101000a81548163ffffffff021916908363ffffffff16021790555060058201816005019081610f359190612325565b506006820181600601908054610f4c929190611329565b505050505050505050505050505050565b5f47905090565b8173ffffffffffffffffffffffffffffffffffffffff166108fc8290811502906040515f60405180830381858888f19350505050158015610fa7573d5f803e3d5ffd5b505050565b60055481565b5f33905090565b610fc16113a5565b5f805f8481526020019081526020015f20604051806101200160405290815f8201548152602001600182015f9054906101000a900473ffffffffffffffffffffffffffffffffffffffff1673ffffffffffffffffffffffffffffffffffffffff1673ffffffffffffffffffffffffffffffffffffffff168152602001600282015f9054906101000a900473ffffffffffffffffffffffffffffffffffffffff1673ffffffffffffffffffffffffffffffffffffffff1673ffffffffffffffffffffffffffffffffffffffff16815260200160038201548152602001600482015f9054906101000a900463ffffffff1663ffffffff1663ffffffff1681526020016004820160049054906101000a900463ffffffff1663ffffffff1663ffffffff1681526020016004820160089054906101000a900463ffffffff1663ffffffff1663ffffffff16815260200160058201805461111c90611fdf565b80601f016020809104026020016040519081016040528092919081815260200182805461114890611fdf565b80156111935780601f1061116a57610100808354040283529160200191611193565b820191905f5260205f20905b81548152906001019060200180831161117657829003601f168201915b5050505050815260200160068201805480602002602001604051908101604052809291908181526020015f905b8282101561130f578382905f5260205f2090600202016040518060400160405290815f820180546111f090611fdf565b80601f016020809104026020016040519081016040528092919081815260200182805461121c90611fdf565b80156112675780601f1061123e57610100808354040283529160200191611267565b820191905f5260205f20905b81548152906001019060200180831161124a57829003601f168201915b5050505050815260200160018201805461128090611fdf565b80601f01602080910402602001604051908101604052809291908181526020018280546112ac90611fdf565b80156112f75780601f106112ce576101008083540402835291602001916112f7565b820191905f5260205f20905b8154815290600101906020018083116112da57829003601f168201915b505050505081525050815260200190600101906111c0565b5050505081525050905080915050919050565b5f47905090565b828054828255905f5260205f20906002028101928215611394575f5260205f209160020282015b828111156113935782825f8201815f01908161136c9190612325565b50600182018160010190816113819190612325565b50505091600201919060020190611350565b5b5090506113a19190611428565b5090565b6040518061012001604052805f81526020015f73ffffffffffffffffffffffffffffffffffffffff1681526020015f73ffffffffffffffffffffffffffffffffffffffff1681526020015f81526020015f63ffffffff1681526020015f63ffffffff1681526020015f63ffffffff16815260200160608152602001606081525090565b5b80821115611458575f8082015f611440919061145c565b600182015f61144f919061145c565b50600201611429565b5090565b50805461146890611fdf565b5f825580601f106114795750611496565b601f0160209004905f5260205f20908101906114959190611499565b5b50565b5b808211156114b0575f815f90555060010161149a565b5090565b5f82825260208201905092915050565b7f52656369657665207265636569766520746f6b656e00000000000000000000005f82015250565b5f6114f86015836114b4565b9150611503826114c4565b602082019050919050565b5f73ffffffffffffffffffffffffffffffffffffffff82169050919050565b5f6115378261150e565b9050919050565b6115478161152d565b82525050565b5f6040820190508181035f830152611564816114ec565b9050611573602083018461153e565b92915050565b7f526563696576652066616c6c6261636b20746f6b656e000000000000000000005f82015250565b5f6115ad6016836114b4565b91506115b882611579565b602082019050919050565b5f6040820190508181035f8301526115da816115a1565b90506115e9602083018461153e565b92915050565b5f81519050919050565b5f82825260208201905092915050565b5f819050602082019050919050565b5f819050919050565b61162a81611618565b82525050565b6116398161152d565b82525050565b5f63ffffffff82169050919050565b6116578161163f565b82525050565b5f81519050919050565b5f82825260208201905092915050565b5f5b83811015611694578082015181840152602081019050611679565b5f8484015250505050565b5f601f19601f8301169050919050565b5f6116b98261165d565b6116c38185611667565b93506116d3818560208601611677565b6116dc8161169f565b840191505092915050565b5f81519050919050565b5f82825260208201905092915050565b5f819050602082019050919050565b5f604083015f8301518482035f86015261172a82826116af565b9150506020830151848203602086015261174482826116af565b9150508091505092915050565b5f61175c8383611710565b905092915050565b5f602082019050919050565b5f61177a826116e7565b61178481856116f1565b93508360208202850161179685611701565b805f5b858110156117d157848403895281516117b28582611751565b94506117bd83611764565b925060208a01995050600181019050611799565b50829750879550505050505092915050565b5f61012083015f8301516117f95f860182611621565b50602083015161180c6020860182611630565b50604083015161181f6040860182611630565b5060608301516118326060860182611621565b506080830151611845608086018261164e565b5060a083015161185860a086018261164e565b5060c083015161186b60c086018261164e565b5060e083015184820360e086015261188382826116af565b91505061010083015184820361010086015261189f8282611770565b9150508091505092915050565b5f6118b783836117e3565b905092915050565b5f602082019050919050565b5f6118d5826115ef565b6118df81856115f9565b9350836020820285016118f185611609565b805f5b8581101561192c578484038952815161190d85826118ac565b9450611918836118bf565b925060208a019950506001810190506118f4565b50829750879550505050505092915050565b5f6020820190508181035f83015261195681846118cb565b905092915050565b5f604051905090565b5f80fd5b5f80fd5b61197881611618565b8114611982575f80fd5b50565b5f813590506119938161196f565b92915050565b6119a28161152d565b81146119ac575f80fd5b50565b5f813590506119bd81611999565b92915050565b6119cc8161163f565b81146119d6575f80fd5b50565b5f813590506119e7816119c3565b92915050565b5f80fd5b5f80fd5b7f4e487b71000000000000000000000000000000000000000000000000000000005f52604160045260245ffd5b611a2b8261169f565b810181811067ffffffffffffffff82111715611a4a57611a496119f5565b5b80604052505050565b5f611a5c61195e565b9050611a688282611a22565b919050565b5f67ffffffffffffffff821115611a8757611a866119f5565b5b611a908261169f565b9050602081019050919050565b828183375f83830152505050565b5f611abd611ab884611a6d565b611a53565b905082815260208101848484011115611ad957611ad86119f1565b5b611ae4848285611a9d565b509392505050565b5f82601f830112611b0057611aff6119ed565b5b8135611b10848260208601611aab565b91505092915050565b5f67ffffffffffffffff821115611b3357611b326119f5565b5b602082029050602081019050919050565b5f80fd5b5f80fd5b5f80fd5b5f60408284031215611b6557611b64611b48565b5b611b6f6040611a53565b90505f82013567ffffffffffffffff811115611b8e57611b8d611b4c565b5b611b9a84828501611aec565b5f83015250602082013567ffffffffffffffff811115611bbd57611bbc611b4c565b5b611bc984828501611aec565b60208301525092915050565b5f611be7611be284611b19565b611a53565b90508083825260208201905060208402830185811115611c0a57611c09611b44565b5b835b81811015611c5157803567ffffffffffffffff811115611c2f57611c2e6119ed565b5b808601611c3c8982611b50565b85526020850194505050602081019050611c0c565b5050509392505050565b5f82601f830112611c6f57611c6e6119ed565b5b8135611c7f848260208601611bd5565b91505092915050565b5f805f805f805f805f6101208a8c031215611ca657611ca5611967565b5b5f611cb38c828d01611985565b9950506020611cc48c828d016119af565b9850506040611cd58c828d016119af565b9750506060611ce68c828d01611985565b9650506080611cf78c828d016119d9565b95505060a0611d088c828d016119d9565b94505060c0611d198c828d016119d9565b93505060e08a013567ffffffffffffffff811115611d3a57611d3961196b565b5b611d468c828d01611aec565b9250506101008a013567ffffffffffffffff811115611d6857611d6761196b565b5b611d748c828d01611c5b565b9150509295985092959850929598565b611d8d81611618565b82525050565b5f602082019050611da65f830184611d84565b92915050565b5f611db68261150e565b9050919050565b611dc681611dac565b8114611dd0575f80fd5b50565b5f81359050611de181611dbd565b92915050565b5f8060408385031215611dfd57611dfc611967565b5b5f611e0a85828601611dd3565b9250506020611e1b85828601611985565b9150509250929050565b5f602082019050611e385f83018461153e565b92915050565b5f60208284031215611e5357611e52611967565b5b5f611e6084828501611985565b91505092915050565b5f61012083015f830151611e7f5f860182611621565b506020830151611e926020860182611630565b506040830151611ea56040860182611630565b506060830151611eb86060860182611621565b506080830151611ecb608086018261164e565b5060a0830151611ede60a086018261164e565b5060c0830151611ef160c086018261164e565b5060e083015184820360e0860152611f0982826116af565b915050610100830151848203610100860152611f258282611770565b9150508091505092915050565b5f6020820190508181035f830152611f4a8184611e69565b905092915050565b7f4e487b71000000000000000000000000000000000000000000000000000000005f52601160045260245ffd5b5f611f8982611618565b9150611f9483611618565b9250828201905080821115611fac57611fab611f52565b5b92915050565b7f4e487b71000000000000000000000000000000000000000000000000000000005f52602260045260245ffd5b5f6002820490506001821680611ff657607f821691505b60208210810361200957612008611fb2565b5b50919050565b7f496e73756666696369656e742062616c616e63650000000000000000000000005f82015250565b5f6120436014836114b4565b915061204e8261200f565b602082019050919050565b5f6020820190508181035f83015261207081612037565b9050919050565b5f819050815f5260205f209050919050565b5f6020601f8301049050919050565b5f82821b905092915050565b5f600883026120d37fffffffffffffffffffffffffffffffffffffffffffffffffffffffffffffffff82612098565b6120dd8683612098565b95508019841693508086168417925050509392505050565b5f819050919050565b5f61211861211361210e84611618565b6120f5565b611618565b9050919050565b5f819050919050565b612131836120fe565b61214561213d8261211f565b8484546120a4565b825550505050565b5f90565b61215961214d565b612164818484612128565b505050565b5b818110156121875761217c5f82612151565b60018101905061216a565b5050565b601f8211156121cc5761219d81612077565b6121a684612089565b810160208510156121b5578190505b6121c96121c185612089565b830182612169565b50505b505050565b5f82821c905092915050565b5f6121ec5f19846008026121d1565b1980831691505092915050565b5f61220483836121dd565b9150826002028217905092915050565b61221d8261165d565b67ffffffffffffffff811115612236576122356119f5565b5b6122408254611fdf565b61224b82828561218b565b5f60209050601f83116001811461227c575f841561226a578287015190505b61227485826121f9565b8655506122db565b601f19841661228a86612077565b5f5b828110156122b15784890151825560018201915060208501945060208101905061228c565b868310156122ce57848901516122ca601f8916826121dd565b8355505b6001600288020188555050505b505050505050565b7f4e487b71000000000000000000000000000000000000000000000000000000005f52603260045260245ffd5b5f8154905061231e81611fdf565b9050919050565b818103612333575050612408565b61233c82612310565b67ffffffffffffffff811115612355576123546119f5565b5b61235f8254611fdf565b61236a82828561218b565b5f601f831160018114612397575f8415612385578287015490505b61238f85826121f9565b865550612401565b601f1984166123a587612077565b96506123b086612077565b5f5b828110156123d7578489015482556001820191506001850194506020810190506123b2565b868310156123f457848901546123f0601f8916826121dd565b8355505b6001600288020188555050505b5050505050505b56fea264697066735822122076a83043a2506c86cc9547eb4d03eaa0de06bf96149fd816486f3ebf2f85076364736f6c63430008160033",
					"opcodes": "PUSH1 0x80 PUSH1 0x40 MSTORE CALLVALUE DUP1 ISZERO PUSH2 0xF JUMPI PUSH0 DUP1 REVERT JUMPDEST POP CALLER PUSH1 0x4 PUSH0 PUSH2 0x100 EXP DUP2 SLOAD DUP2 PUSH20 0xFFFFFFFFFFFFFFFFFFFFFFFFFFFFFFFFFFFFFFFF MUL NOT AND SWAP1 DUP4 PUSH20 0xFFFFFFFFFFFFFFFFFFFFFFFFFFFFFFFFFFFFFFFF AND MUL OR SWAP1 SSTORE POP PUSH2 0x2440 DUP1 PUSH2 0x5D PUSH0 CODECOPY PUSH0 RETURN INVALID PUSH1 0x80 PUSH1 0x40 MSTORE PUSH1 0x4 CALLDATASIZE LT PUSH2 0x7E JUMPI PUSH0 CALLDATALOAD PUSH1 0xE0 SHR DUP1 PUSH4 0xB69EF8A8 GT PUSH2 0x4D JUMPI DUP1 PUSH4 0xB69EF8A8 EQ PUSH2 0x197 JUMPI DUP1 PUSH4 0xC11E1FF3 EQ PUSH2 0x1C1 JUMPI DUP1 PUSH4 0xC85D1487 EQ PUSH2 0x1EB JUMPI DUP1 PUSH4 0xF8AFF5F4 EQ PUSH2 0x227 JUMPI PUSH2 0xBC JUMP JUMPDEST DUP1 PUSH4 0x127FF22E EQ PUSH2 0xFF JUMPI DUP1 PUSH4 0x6DA80B7F EQ PUSH2 0x129 JUMPI DUP1 PUSH4 0x6F9FB98A EQ PUSH2 0x151 JUMPI DUP1 PUSH4 0x7B1A4909 EQ PUSH2 0x17B JUMPI PUSH2 0xBC JUMP JUMPDEST CALLDATASIZE PUSH2 0xBC JUMPI PUSH32 0x319AF333460570A1937BF195DD33445C0D0951C59127DA6F1F038B9FDCE3FD72 CALLER PUSH1 0x40 MLOAD PUSH2 0xB2 SWAP2 SWAP1 PUSH2 0x154D JUMP JUMPDEST PUSH1 0x40 MLOAD DUP1 SWAP2 SUB SWAP1 LOG1 STOP JUMPDEST PUSH32 0x319AF333460570A1937BF195DD33445C0D0951C59127DA6F1F038B9FDCE3FD72 CALLER PUSH1 0x40 MLOAD PUSH2 0xEB SWAP2 SWAP1 PUSH2 0x15C3 JUMP JUMPDEST PUSH1 0x40 MLOAD DUP1 SWAP2 SUB SWAP1 LOG1 PUSH2 0xFD CALLER CALLVALUE PUSH2 0x251 JUMP JUMPDEST STOP JUMPDEST CALLVALUE DUP1 ISZERO PUSH2 0x10A JUMPI PUSH0 DUP1 REVERT JUMPDEST POP PUSH2 0x113 PUSH2 0x479 JUMP JUMPDEST PUSH1 0x40 MLOAD PUSH2 0x120 SWAP2 SWAP1 PUSH2 0x193E JUMP JUMPDEST PUSH1 0x40 MLOAD DUP1 SWAP2 SUB SWAP1 RETURN JUMPDEST CALLVALUE DUP1 ISZERO PUSH2 0x134 JUMPI PUSH0 DUP1 REVERT JUMPDEST POP PUSH2 0x14F PUSH1 0x4 DUP1 CALLDATASIZE SUB DUP2 ADD SWAP1 PUSH2 0x14A SWAP2 SWAP1 PUSH2 0x1C88 JUMP JUMPDEST PUSH2 0x80F JUMP JUMPDEST STOP JUMPDEST CALLVALUE DUP1 ISZERO PUSH2 0x15C JUMPI PUSH0 DUP1 REVERT JUMPDEST POP PUSH2 0x165 PUSH2 0xF5D JUMP JUMPDEST PUSH1 0x40 MLOAD PUSH2 0x172 SWAP2 SWAP1 PUSH2 0x1D93 JUMP JUMPDEST PUSH1 0x40 MLOAD DUP1 SWAP2 SUB SWAP1 RETURN JUMPDEST PUSH2 0x195 PUSH1 0x4 DUP1 CALLDATASIZE SUB DUP2 ADD SWAP1 PUSH2 0x190 SWAP2 SWAP1 PUSH2 0x1DE7 JUMP JUMPDEST PUSH2 0xF64 JUMP JUMPDEST STOP JUMPDEST CALLVALUE DUP1 ISZERO PUSH2 0x1A2 JUMPI PUSH0 DUP1 REVERT JUMPDEST POP PUSH2 0x1AB PUSH2 0xFAC JUMP JUMPDEST PUSH1 0x40 MLOAD PUSH2 0x1B8 SWAP2 SWAP1 PUSH2 0x1D93 JUMP JUMPDEST PUSH1 0x40 MLOAD DUP1 SWAP2 SUB SWAP1 RETURN JUMPDEST CALLVALUE DUP1 ISZERO PUSH2 0x1CC JUMPI PUSH0 DUP1 REVERT JUMPDEST POP PUSH2 0x1D5 PUSH2 0xFB2 JUMP JUMPDEST PUSH1 0x40 MLOAD PUSH2 0x1E2 SWAP2 SWAP1 PUSH2 0x1E25 JUMP JUMPDEST PUSH1 0x40 MLOAD DUP1 SWAP2 SUB SWAP1 RETURN JUMPDEST CALLVALUE DUP1 ISZERO PUSH2 0x1F6 JUMPI PUSH0 DUP1 REVERT JUMPDEST POP PUSH2 0x211 PUSH1 0x4 DUP1 CALLDATASIZE SUB DUP2 ADD SWAP1 PUSH2 0x20C SWAP2 SWAP1 PUSH2 0x1E3E JUMP JUMPDEST PUSH2 0xFB9 JUMP JUMPDEST PUSH1 0x40 MLOAD PUSH2 0x21E SWAP2 SWAP1 PUSH2 0x1F32 JUMP JUMPDEST PUSH1 0x40 MLOAD DUP1 SWAP2 SUB SWAP1 RETURN JUMPDEST CALLVALUE DUP1 ISZERO PUSH2 0x232 JUMPI PUSH0 DUP1 REVERT JUMPDEST POP PUSH2 0x23B PUSH2 0x1322 JUMP JUMPDEST PUSH1 0x40 MLOAD PUSH2 0x248 SWAP2 SWAP1 PUSH2 0x1D93 JUMP JUMPDEST PUSH1 0x40 MLOAD DUP1 SWAP2 SUB SWAP1 RETURN JUMPDEST PUSH0 PUSH20 0xFFFFFFFFFFFFFFFFFFFFFFFFFFFFFFFFFFFFFFFF AND PUSH1 0x2 PUSH0 DUP5 PUSH20 0xFFFFFFFFFFFFFFFFFFFFFFFFFFFFFFFFFFFFFFFF AND PUSH20 0xFFFFFFFFFFFFFFFFFFFFFFFFFFFFFFFFFFFFFFFF AND DUP2 MSTORE PUSH1 0x20 ADD SWAP1 DUP2 MSTORE PUSH1 0x20 ADD PUSH0 KECCAK256 PUSH0 ADD PUSH0 SWAP1 SLOAD SWAP1 PUSH2 0x100 EXP SWAP1 DIV PUSH20 0xFFFFFFFFFFFFFFFFFFFFFFFFFFFFFFFFFFFFFFFF AND PUSH20 0xFFFFFFFFFFFFFFFFFFFFFFFFFFFFFFFFFFFFFFFF AND EQ PUSH2 0x33D JUMPI DUP1 PUSH1 0x2 PUSH0 DUP5 PUSH20 0xFFFFFFFFFFFFFFFFFFFFFFFFFFFFFFFFFFFFFFFF AND PUSH20 0xFFFFFFFFFFFFFFFFFFFFFFFFFFFFFFFFFFFFFFFF AND DUP2 MSTORE PUSH1 0x20 ADD SWAP1 DUP2 MSTORE PUSH1 0x20 ADD PUSH0 KECCAK256 PUSH1 0x1 ADD PUSH0 DUP3 DUP3 SLOAD PUSH2 0x331 SWAP2 SWAP1 PUSH2 0x1F7F JUMP JUMPDEST SWAP3 POP POP DUP2 SWAP1 SSTORE POP PUSH2 0x475 JUMP JUMPDEST PUSH0 PUSH1 0x40 MLOAD DUP1 PUSH1 0x40 ADD PUSH1 0x40 MSTORE DUP1 DUP5 PUSH20 0xFFFFFFFFFFFFFFFFFFFFFFFFFFFFFFFFFFFFFFFF AND DUP2 MSTORE PUSH1 0x20 ADD DUP4 DUP2 MSTORE POP SWAP1 POP DUP1 PUSH1 0x2 PUSH0 DUP6 PUSH20 0xFFFFFFFFFFFFFFFFFFFFFFFFFFFFFFFFFFFFFFFF AND PUSH20 0xFFFFFFFFFFFFFFFFFFFFFFFFFFFFFFFFFFFFFFFF AND DUP2 MSTORE PUSH1 0x20 ADD SWAP1 DUP2 MSTORE PUSH1 0x20 ADD PUSH0 KECCAK256 PUSH0 DUP3 ADD MLOAD DUP2 PUSH0 ADD PUSH0 PUSH2 0x100 EXP DUP2 SLOAD DUP2 PUSH20 0xFFFFFFFFFFFFFFFFFFFFFFFFFFFFFFFFFFFFFFFF MUL NOT AND SWAP1 DUP4 PUSH20 0xFFFFFFFFFFFFFFFFFFFFFFFFFFFFFFFFFFFFFFFF AND MUL OR SWAP1 SSTORE POP PUSH1 0x20 DUP3 ADD MLOAD DUP2 PUSH1 0x1 ADD SSTORE SWAP1 POP POP PUSH1 0x3 DUP2 SWAP1 DUP1 PUSH1 0x1 DUP2 SLOAD ADD DUP1 DUP3 SSTORE DUP1 SWAP2 POP POP PUSH1 0x1 SWAP1 SUB SWAP1 PUSH0 MSTORE PUSH1 0x20 PUSH0 KECCAK256 SWAP1 PUSH1 0x2 MUL ADD PUSH0 SWAP1 SWAP2 SWAP1 SWAP2 SWAP1 SWAP2 POP PUSH0 DUP3 ADD MLOAD DUP2 PUSH0 ADD PUSH0 PUSH2 0x100 EXP DUP2 SLOAD DUP2 PUSH20 0xFFFFFFFFFFFFFFFFFFFFFFFFFFFFFFFFFFFFFFFF MUL NOT AND SWAP1 DUP4 PUSH20 0xFFFFFFFFFFFFFFFFFFFFFFFFFFFFFFFFFFFFFFFF AND MUL OR SWAP1 SSTORE POP PUSH1 0x20 DUP3 ADD MLOAD DUP2 PUSH1 0x1 ADD SSTORE POP POP POP JUMPDEST POP POP JUMP JUMPDEST PUSH1 0x60 PUSH1 0x1 DUP1 SLOAD DUP1 PUSH1 0x20 MUL PUSH1 0x20 ADD PUSH1 0x40 MLOAD SWAP1 DUP2 ADD PUSH1 0x40 MSTORE DUP1 SWAP3 SWAP2 SWAP1 DUP2 DUP2 MSTORE PUSH1 0x20 ADD PUSH0 SWAP1 JUMPDEST DUP3 DUP3 LT ISZERO PUSH2 0x806 JUMPI DUP4 DUP3 SWAP1 PUSH0 MSTORE PUSH1 0x20 PUSH0 KECCAK256 SWAP1 PUSH1 0x7 MUL ADD PUSH1 0x40 MLOAD DUP1 PUSH2 0x120 ADD PUSH1 0x40 MSTORE SWAP1 DUP2 PUSH0 DUP3 ADD SLOAD DUP2 MSTORE PUSH1 0x20 ADD PUSH1 0x1 DUP3 ADD PUSH0 SWAP1 SLOAD SWAP1 PUSH2 0x100 EXP SWAP1 DIV PUSH20 0xFFFFFFFFFFFFFFFFFFFFFFFFFFFFFFFFFFFFFFFF AND PUSH20 0xFFFFFFFFFFFFFFFFFFFFFFFFFFFFFFFFFFFFFFFF AND PUSH20 0xFFFFFFFFFFFFFFFFFFFFFFFFFFFFFFFFFFFFFFFF AND DUP2 MSTORE PUSH1 0x20 ADD PUSH1 0x2 DUP3 ADD PUSH0 SWAP1 SLOAD SWAP1 PUSH2 0x100 EXP SWAP1 DIV PUSH20 0xFFFFFFFFFFFFFFFFFFFFFFFFFFFFFFFFFFFFFFFF AND PUSH20 0xFFFFFFFFFFFFFFFFFFFFFFFFFFFFFFFFFFFFFFFF AND PUSH20 0xFFFFFFFFFFFFFFFFFFFFFFFFFFFFFFFFFFFFFFFF AND DUP2 MSTORE PUSH1 0x20 ADD PUSH1 0x3 DUP3 ADD SLOAD DUP2 MSTORE PUSH1 0x20 ADD PUSH1 0x4 DUP3 ADD PUSH0 SWAP1 SLOAD SWAP1 PUSH2 0x100 EXP SWAP1 DIV PUSH4 0xFFFFFFFF AND PUSH4 0xFFFFFFFF AND PUSH4 0xFFFFFFFF AND DUP2 MSTORE PUSH1 0x20 ADD PUSH1 0x4 DUP3 ADD PUSH1 0x4 SWAP1 SLOAD SWAP1 PUSH2 0x100 EXP SWAP1 DIV PUSH4 0xFFFFFFFF AND PUSH4 0xFFFFFFFF AND PUSH4 0xFFFFFFFF AND DUP2 MSTORE PUSH1 0x20 ADD PUSH1 0x4 DUP3 ADD PUSH1 0x8 SWAP1 SLOAD SWAP1 PUSH2 0x100 EXP SWAP1 DIV PUSH4 0xFFFFFFFF AND PUSH4 0xFFFFFFFF AND PUSH4 0xFFFFFFFF AND DUP2 MSTORE PUSH1 0x20 ADD PUSH1 0x5 DUP3 ADD DUP1 SLOAD PUSH2 0x5FC SWAP1 PUSH2 0x1FDF JUMP JUMPDEST DUP1 PUSH1 0x1F ADD PUSH1 0x20 DUP1 SWAP2 DIV MUL PUSH1 0x20 ADD PUSH1 0x40 MLOAD SWAP1 DUP2 ADD PUSH1 0x40 MSTORE DUP1 SWAP3 SWAP2 SWAP1 DUP2 DUP2 MSTORE PUSH1 0x20 ADD DUP3 DUP1 SLOAD PUSH2 0x628 SWAP1 PUSH2 0x1FDF JUMP JUMPDEST DUP1 ISZERO PUSH2 0x673 JUMPI DUP1 PUSH1 0x1F LT PUSH2 0x64A JUMPI PUSH2 0x100 DUP1 DUP4 SLOAD DIV MUL DUP4 MSTORE SWAP2 PUSH1 0x20 ADD SWAP2 PUSH2 0x673 JUMP JUMPDEST DUP3 ADD SWAP2 SWAP1 PUSH0 MSTORE PUSH1 0x20 PUSH0 KECCAK256 SWAP1 JUMPDEST DUP2 SLOAD DUP2 MSTORE SWAP1 PUSH1 0x1 ADD SWAP1 PUSH1 0x20 ADD DUP1 DUP4 GT PUSH2 0x656 JUMPI DUP3 SWAP1 SUB PUSH1 0x1F AND DUP3 ADD SWAP2 JUMPDEST POP POP POP POP POP DUP2 MSTORE PUSH1 0x20 ADD PUSH1 0x6 DUP3 ADD DUP1 SLOAD DUP1 PUSH1 0x20 MUL PUSH1 0x20 ADD PUSH1 0x40 MLOAD SWAP1 DUP2 ADD PUSH1 0x40 MSTORE DUP1 SWAP3 SWAP2 SWAP1 DUP2 DUP2 MSTORE PUSH1 0x20 ADD PUSH0 SWAP1 JUMPDEST DUP3 DUP3 LT ISZERO PUSH2 0x7EF JUMPI DUP4 DUP3 SWAP1 PUSH0 MSTORE PUSH1 0x20 PUSH0 KECCAK256 SWAP1 PUSH1 0x2 MUL ADD PUSH1 0x40 MLOAD DUP1 PUSH1 0x40 ADD PUSH1 0x40 MSTORE SWAP1 DUP2 PUSH0 DUP3 ADD DUP1 SLOAD PUSH2 0x6D0 SWAP1 PUSH2 0x1FDF JUMP JUMPDEST DUP1 PUSH1 0x1F ADD PUSH1 0x20 DUP1 SWAP2 DIV MUL PUSH1 0x20 ADD PUSH1 0x40 MLOAD SWAP1 DUP2 ADD PUSH1 0x40 MSTORE DUP1 SWAP3 SWAP2 SWAP1 DUP2 DUP2 MSTORE PUSH1 0x20 ADD DUP3 DUP1 SLOAD PUSH2 0x6FC SWAP1 PUSH2 0x1FDF JUMP JUMPDEST DUP1 ISZERO PUSH2 0x747 JUMPI DUP1 PUSH1 0x1F LT PUSH2 0x71E JUMPI PUSH2 0x100 DUP1 DUP4 SLOAD DIV MUL DUP4 MSTORE SWAP2 PUSH1 0x20 ADD SWAP2 PUSH2 0x747 JUMP JUMPDEST DUP3 ADD SWAP2 SWAP1 PUSH0 MSTORE PUSH1 0x20 PUSH0 KECCAK256 SWAP1 JUMPDEST DUP2 SLOAD DUP2 MSTORE SWAP1 PUSH1 0x1 ADD SWAP1 PUSH1 0x20 ADD DUP1 DUP4 GT PUSH2 0x72A JUMPI DUP3 SWAP1 SUB PUSH1 0x1F AND DUP3 ADD SWAP2 JUMPDEST POP POP POP POP POP DUP2 MSTORE PUSH1 0x20 ADD PUSH1 0x1 DUP3 ADD DUP1 SLOAD PUSH2 0x760 SWAP1 PUSH2 0x1FDF JUMP JUMPDEST DUP1 PUSH1 0x1F ADD PUSH1 0x20 DUP1 SWAP2 DIV MUL PUSH1 0x20 ADD PUSH1 0x40 MLOAD SWAP1 DUP2 ADD PUSH1 0x40 MSTORE DUP1 SWAP3 SWAP2 SWAP1 DUP2 DUP2 MSTORE PUSH1 0x20 ADD DUP3 DUP1 SLOAD PUSH2 0x78C SWAP1 PUSH2 0x1FDF JUMP JUMPDEST DUP1 ISZERO PUSH2 0x7D7 JUMPI DUP1 PUSH1 0x1F LT PUSH2 0x7AE JUMPI PUSH2 0x100 DUP1 DUP4 SLOAD DIV MUL DUP4 MSTORE SWAP2 PUSH1 0x20 ADD SWAP2 PUSH2 0x7D7 JUMP JUMPDEST DUP3 ADD SWAP2 SWAP1 PUSH0 MSTORE PUSH1 0x20 PUSH0 KECCAK256 SWAP1 JUMPDEST DUP2 SLOAD DUP2 MSTORE SWAP1 PUSH1 0x1 ADD SWAP1 PUSH1 0x20 ADD DUP1 DUP4 GT PUSH2 0x7BA JUMPI DUP3 SWAP1 SUB PUSH1 0x1F AND DUP3 ADD SWAP2 JUMPDEST POP POP POP POP POP DUP2 MSTORE POP POP DUP2 MSTORE PUSH1 0x20 ADD SWAP1 PUSH1 0x1 ADD SWAP1 PUSH2 0x6A0 JUMP JUMPDEST POP POP POP POP DUP2 MSTORE POP POP DUP2 MSTORE PUSH1 0x20 ADD SWAP1 PUSH1 0x1 ADD SWAP1 PUSH2 0x49C JUMP JUMPDEST POP POP POP POP SWAP1 POP SWAP1 JUMP JUMPDEST PUSH1 0x4 PUSH0 SWAP1 SLOAD SWAP1 PUSH2 0x100 EXP SWAP1 DIV PUSH20 0xFFFFFFFFFFFFFFFFFFFFFFFFFFFFFFFFFFFFFFFF AND PUSH20 0xFFFFFFFFFFFFFFFFFFFFFFFFFFFFFFFFFFFFFFFF AND CALLER PUSH20 0xFFFFFFFFFFFFFFFFFFFFFFFFFFFFFFFFFFFFFFFF AND EQ PUSH2 0x867 JUMPI PUSH0 DUP1 REVERT JUMPDEST PUSH0 PUSH1 0x2 PUSH0 DUP11 PUSH20 0xFFFFFFFFFFFFFFFFFFFFFFFFFFFFFFFFFFFFFFFF AND PUSH20 0xFFFFFFFFFFFFFFFFFFFFFFFFFFFFFFFFFFFFFFFF AND DUP2 MSTORE PUSH1 0x20 ADD SWAP1 DUP2 MSTORE PUSH1 0x20 ADD PUSH0 KECCAK256 PUSH1 0x40 MLOAD DUP1 PUSH1 0x40 ADD PUSH1 0x40 MSTORE SWAP1 DUP2 PUSH0 DUP3 ADD PUSH0 SWAP1 SLOAD SWAP1 PUSH2 0x100 EXP SWAP1 DIV PUSH20 0xFFFFFFFFFFFFFFFFFFFFFFFFFFFFFFFFFFFFFFFF AND PUSH20 0xFFFFFFFFFFFFFFFFFFFFFFFFFFFFFFFFFFFFFFFF AND PUSH20 0xFFFFFFFFFFFFFFFFFFFFFFFFFFFFFFFFFFFFFFFF AND DUP2 MSTORE PUSH1 0x20 ADD PUSH1 0x1 DUP3 ADD SLOAD DUP2 MSTORE POP POP SWAP1 POP PUSH0 PUSH1 0x2 PUSH0 DUP11 PUSH20 0xFFFFFFFFFFFFFFFFFFFFFFFFFFFFFFFFFFFFFFFF AND PUSH20 0xFFFFFFFFFFFFFFFFFFFFFFFFFFFFFFFFFFFFFFFF AND DUP2 MSTORE PUSH1 0x20 ADD SWAP1 DUP2 MSTORE PUSH1 0x20 ADD PUSH0 KECCAK256 PUSH1 0x40 MLOAD DUP1 PUSH1 0x40 ADD PUSH1 0x40 MSTORE SWAP1 DUP2 PUSH0 DUP3 ADD PUSH0 SWAP1 SLOAD SWAP1 PUSH2 0x100 EXP SWAP1 DIV PUSH20 0xFFFFFFFFFFFFFFFFFFFFFFFFFFFFFFFFFFFFFFFF AND PUSH20 0xFFFFFFFFFFFFFFFFFFFFFFFFFFFFFFFFFFFFFFFF AND PUSH20 0xFFFFFFFFFFFFFFFFFFFFFFFFFFFFFFFFFFFFFFFF AND DUP2 MSTORE PUSH1 0x20 ADD PUSH1 0x1 DUP3 ADD SLOAD DUP2 MSTORE POP POP SWAP1 POP DUP8 DUP3 PUSH1 0x20 ADD MLOAD GT DUP1 ISZERO PUSH2 0x9CF JUMPI POP DUP8 DUP2 PUSH1 0x20 ADD MLOAD GT JUMPDEST PUSH2 0xA0E JUMPI PUSH1 0x40 MLOAD PUSH32 0x8C379A000000000000000000000000000000000000000000000000000000000 DUP2 MSTORE PUSH1 0x4 ADD PUSH2 0xA05 SWAP1 PUSH2 0x2059 JUMP JUMPDEST PUSH1 0x40 MLOAD DUP1 SWAP2 SUB SWAP1 REVERT JUMPDEST PUSH0 DUP1 PUSH0 DUP14 DUP2 MSTORE PUSH1 0x20 ADD SWAP1 DUP2 MSTORE PUSH1 0x20 ADD PUSH0 KECCAK256 SWAP1 POP DUP12 DUP2 PUSH0 ADD DUP2 SWAP1 SSTORE POP DUP11 DUP2 PUSH1 0x1 ADD PUSH0 PUSH2 0x100 EXP DUP2 SLOAD DUP2 PUSH20 0xFFFFFFFFFFFFFFFFFFFFFFFFFFFFFFFFFFFFFFFF MUL NOT AND SWAP1 DUP4 PUSH20 0xFFFFFFFFFFFFFFFFFFFFFFFFFFFFFFFFFFFFFFFF AND MUL OR SWAP1 SSTORE POP DUP10 DUP2 PUSH1 0x2 ADD PUSH0 PUSH2 0x100 EXP DUP2 SLOAD DUP2 PUSH20 0xFFFFFFFFFFFFFFFFFFFFFFFFFFFFFFFFFFFFFFFF MUL NOT AND SWAP1 DUP4 PUSH20 0xFFFFFFFFFFFFFFFFFFFFFFFFFFFFFFFFFFFFFFFF AND MUL OR SWAP1 SSTORE POP DUP9 DUP2 PUSH1 0x3 ADD DUP2 SWAP1 SSTORE POP DUP8 DUP2 PUSH1 0x4 ADD PUSH0 PUSH2 0x100 EXP DUP2 SLOAD DUP2 PUSH4 0xFFFFFFFF MUL NOT AND SWAP1 DUP4 PUSH4 0xFFFFFFFF AND MUL OR SWAP1 SSTORE POP DUP7 DUP2 PUSH1 0x4 ADD PUSH1 0x4 PUSH2 0x100 EXP DUP2 SLOAD DUP2 PUSH4 0xFFFFFFFF MUL NOT AND SWAP1 DUP4 PUSH4 0xFFFFFFFF AND MUL OR SWAP1 SSTORE POP DUP6 DUP2 PUSH1 0x4 ADD PUSH1 0x8 PUSH2 0x100 EXP DUP2 SLOAD DUP2 PUSH4 0xFFFFFFFF MUL NOT AND SWAP1 DUP4 PUSH4 0xFFFFFFFF AND MUL OR SWAP1 SSTORE POP DUP5 DUP2 PUSH1 0x5 ADD SWAP1 DUP2 PUSH2 0xB2F SWAP2 SWAP1 PUSH2 0x2214 JUMP JUMPDEST POP PUSH0 JUMPDEST DUP5 MLOAD DUP2 LT ISZERO PUSH2 0xBB9 JUMPI DUP2 PUSH1 0x6 ADD DUP6 DUP3 DUP2 MLOAD DUP2 LT PUSH2 0xB52 JUMPI PUSH2 0xB51 PUSH2 0x22E3 JUMP JUMPDEST JUMPDEST PUSH1 0x20 MUL PUSH1 0x20 ADD ADD MLOAD SWAP1 DUP1 PUSH1 0x1 DUP2 SLOAD ADD DUP1 DUP3 SSTORE DUP1 SWAP2 POP POP PUSH1 0x1 SWAP1 SUB SWAP1 PUSH0 MSTORE PUSH1 0x20 PUSH0 KECCAK256 SWAP1 PUSH1 0x2 MUL ADD PUSH0 SWAP1 SWAP2 SWAP1 SWAP2 SWAP1 SWAP2 POP PUSH0 DUP3 ADD MLOAD DUP2 PUSH0 ADD SWAP1 DUP2 PUSH2 0xB93 SWAP2 SWAP1 PUSH2 0x2214 JUMP JUMPDEST POP PUSH1 0x20 DUP3 ADD MLOAD DUP2 PUSH1 0x1 ADD SWAP1 DUP2 PUSH2 0xBA9 SWAP2 SWAP1 PUSH2 0x2214 JUMP JUMPDEST POP POP POP DUP1 DUP1 PUSH1 0x1 ADD SWAP2 POP POP PUSH2 0xB32 JUMP JUMPDEST POP DUP1 PUSH0 DUP1 DUP15 DUP2 MSTORE PUSH1 0x20 ADD SWAP1 DUP2 MSTORE PUSH1 0x20 ADD PUSH0 KECCAK256 PUSH0 DUP3 ADD SLOAD DUP2 PUSH0 ADD SSTORE PUSH1 0x1 DUP3 ADD PUSH0 SWAP1 SLOAD SWAP1 PUSH2 0x100 EXP SWAP1 DIV PUSH20 0xFFFFFFFFFFFFFFFFFFFFFFFFFFFFFFFFFFFFFFFF AND DUP2 PUSH1 0x1 ADD PUSH0 PUSH2 0x100 EXP DUP2 SLOAD DUP2 PUSH20 0xFFFFFFFFFFFFFFFFFFFFFFFFFFFFFFFFFFFFFFFF MUL NOT AND SWAP1 DUP4 PUSH20 0xFFFFFFFFFFFFFFFFFFFFFFFFFFFFFFFFFFFFFFFF AND MUL OR SWAP1 SSTORE POP PUSH1 0x2 DUP3 ADD PUSH0 SWAP1 SLOAD SWAP1 PUSH2 0x100 EXP SWAP1 DIV PUSH20 0xFFFFFFFFFFFFFFFFFFFFFFFFFFFFFFFFFFFFFFFF AND DUP2 PUSH1 0x2 ADD PUSH0 PUSH2 0x100 EXP DUP2 SLOAD DUP2 PUSH20 0xFFFFFFFFFFFFFFFFFFFFFFFFFFFFFFFFFFFFFFFF MUL NOT AND SWAP1 DUP4 PUSH20 0xFFFFFFFFFFFFFFFFFFFFFFFFFFFFFFFFFFFFFFFF AND MUL OR SWAP1 SSTORE POP PUSH1 0x3 DUP3 ADD SLOAD DUP2 PUSH1 0x3 ADD SSTORE PUSH1 0x4 DUP3 ADD PUSH0 SWAP1 SLOAD SWAP1 PUSH2 0x100 EXP SWAP1 DIV PUSH4 0xFFFFFFFF AND DUP2 PUSH1 0x4 ADD PUSH0 PUSH2 0x100 EXP DUP2 SLOAD DUP2 PUSH4 0xFFFFFFFF MUL NOT AND SWAP1 DUP4 PUSH4 0xFFFFFFFF AND MUL OR SWAP1 SSTORE POP PUSH1 0x4 DUP3 ADD PUSH1 0x4 SWAP1 SLOAD SWAP1 PUSH2 0x100 EXP SWAP1 DIV PUSH4 0xFFFFFFFF AND DUP2 PUSH1 0x4 ADD PUSH1 0x4 PUSH2 0x100 EXP DUP2 SLOAD DUP2 PUSH4 0xFFFFFFFF MUL NOT AND SWAP1 DUP4 PUSH4 0xFFFFFFFF AND MUL OR SWAP1 SSTORE POP PUSH1 0x4 DUP3 ADD PUSH1 0x8 SWAP1 SLOAD SWAP1 PUSH2 0x100 EXP SWAP1 DIV PUSH4 0xFFFFFFFF AND DUP2 PUSH1 0x4 ADD PUSH1 0x8 PUSH2 0x100 EXP DUP2 SLOAD DUP2 PUSH4 0xFFFFFFFF MUL NOT AND SWAP1 DUP4 PUSH4 0xFFFFFFFF AND MUL OR SWAP1 SSTORE POP PUSH1 0x5 DUP3 ADD DUP2 PUSH1 0x5 ADD SWAP1 DUP2 PUSH2 0xD5E SWAP2 SWAP1 PUSH2 0x2325 JUMP JUMPDEST POP PUSH1 0x6 DUP3 ADD DUP2 PUSH1 0x6 ADD SWAP1 DUP1 SLOAD PUSH2 0xD75 SWAP3 SWAP2 SWAP1 PUSH2 0x1329 JUMP JUMPDEST POP SWAP1 POP POP PUSH1 0x1 DUP2 SWAP1 DUP1 PUSH1 0x1 DUP2 SLOAD ADD DUP1 DUP3 SSTORE DUP1 SWAP2 POP POP PUSH1 0x1 SWAP1 SUB SWAP1 PUSH0 MSTORE PUSH1 0x20 PUSH0 KECCAK256 SWAP1 PUSH1 0x7 MUL ADD PUSH0 SWAP1 SWAP2 SWAP1 SWAP2 SWAP1 SWAP2 POP PUSH0 DUP3 ADD SLOAD DUP2 PUSH0 ADD SSTORE PUSH1 0x1 DUP3 ADD PUSH0 SWAP1 SLOAD SWAP1 PUSH2 0x100 EXP SWAP1 DIV PUSH20 0xFFFFFFFFFFFFFFFFFFFFFFFFFFFFFFFFFFFFFFFF AND DUP2 PUSH1 0x1 ADD PUSH0 PUSH2 0x100 EXP DUP2 SLOAD DUP2 PUSH20 0xFFFFFFFFFFFFFFFFFFFFFFFFFFFFFFFFFFFFFFFF MUL NOT AND SWAP1 DUP4 PUSH20 0xFFFFFFFFFFFFFFFFFFFFFFFFFFFFFFFFFFFFFFFF AND MUL OR SWAP1 SSTORE POP PUSH1 0x2 DUP3 ADD PUSH0 SWAP1 SLOAD SWAP1 PUSH2 0x100 EXP SWAP1 DIV PUSH20 0xFFFFFFFFFFFFFFFFFFFFFFFFFFFFFFFFFFFFFFFF AND DUP2 PUSH1 0x2 ADD PUSH0 PUSH2 0x100 EXP DUP2 SLOAD DUP2 PUSH20 0xFFFFFFFFFFFFFFFFFFFFFFFFFFFFFFFFFFFFFFFF MUL NOT AND SWAP1 DUP4 PUSH20 0xFFFFFFFFFFFFFFFFFFFFFFFFFFFFFFFFFFFFFFFF AND MUL OR SWAP1 SSTORE POP PUSH1 0x3 DUP3 ADD SLOAD DUP2 PUSH1 0x3 ADD SSTORE PUSH1 0x4 DUP3 ADD PUSH0 SWAP1 SLOAD SWAP1 PUSH2 0x100 EXP SWAP1 DIV PUSH4 0xFFFFFFFF AND DUP2 PUSH1 0x4 ADD PUSH0 PUSH2 0x100 EXP DUP2 SLOAD DUP2 PUSH4 0xFFFFFFFF MUL NOT AND SWAP1 DUP4 PUSH4 0xFFFFFFFF AND MUL OR SWAP1 SSTORE POP PUSH1 0x4 DUP3 ADD PUSH1 0x4 SWAP1 SLOAD SWAP1 PUSH2 0x100 EXP SWAP1 DIV PUSH4 0xFFFFFFFF AND DUP2 PUSH1 0x4 ADD PUSH1 0x4 PUSH2 0x100 EXP DUP2 SLOAD DUP2 PUSH4 0xFFFFFFFF MUL NOT AND SWAP1 DUP4 PUSH4 0xFFFFFFFF AND MUL OR SWAP1 SSTORE POP PUSH1 0x4 DUP3 ADD PUSH1 0x8 SWAP1 SLOAD SWAP1 PUSH2 0x100 EXP SWAP1 DIV PUSH4 0xFFFFFFFF AND DUP2 PUSH1 0x4 ADD PUSH1 0x8 PUSH2 0x100 EXP DUP2 SLOAD DUP2 PUSH4 0xFFFFFFFF MUL NOT AND SWAP1 DUP4 PUSH4 0xFFFFFFFF AND MUL OR SWAP1 SSTORE POP PUSH1 0x5 DUP3 ADD DUP2 PUSH1 0x5 ADD SWAP1 DUP2 PUSH2 0xF35 SWAP2 SWAP1 PUSH2 0x2325 JUMP JUMPDEST POP PUSH1 0x6 DUP3 ADD DUP2 PUSH1 0x6 ADD SWAP1 DUP1 SLOAD PUSH2 0xF4C SWAP3 SWAP2 SWAP1 PUSH2 0x1329 JUMP JUMPDEST POP POP POP POP POP POP POP POP POP POP POP POP POP POP POP JUMP JUMPDEST PUSH0 SELFBALANCE SWAP1 POP SWAP1 JUMP JUMPDEST DUP2 PUSH20 0xFFFFFFFFFFFFFFFFFFFFFFFFFFFFFFFFFFFFFFFF AND PUSH2 0x8FC DUP3 SWAP1 DUP2 ISZERO MUL SWAP1 PUSH1 0x40 MLOAD PUSH0 PUSH1 0x40 MLOAD DUP1 DUP4 SUB DUP2 DUP6 DUP9 DUP9 CALL SWAP4 POP POP POP POP ISZERO DUP1 ISZERO PUSH2 0xFA7 JUMPI RETURNDATASIZE PUSH0 DUP1 RETURNDATACOPY RETURNDATASIZE PUSH0 REVERT JUMPDEST POP POP POP JUMP JUMPDEST PUSH1 0x5 SLOAD DUP2 JUMP JUMPDEST PUSH0 CALLER SWAP1 POP SWAP1 JUMP JUMPDEST PUSH2 0xFC1 PUSH2 0x13A5 JUMP JUMPDEST PUSH0 DUP1 PUSH0 DUP5 DUP2 MSTORE PUSH1 0x20 ADD SWAP1 DUP2 MSTORE PUSH1 0x20 ADD PUSH0 KECCAK256 PUSH1 0x40 MLOAD DUP1 PUSH2 0x120 ADD PUSH1 0x40 MSTORE SWAP1 DUP2 PUSH0 DUP3 ADD SLOAD DUP2 MSTORE PUSH1 0x20 ADD PUSH1 0x1 DUP3 ADD PUSH0 SWAP1 SLOAD SWAP1 PUSH2 0x100 EXP SWAP1 DIV PUSH20 0xFFFFFFFFFFFFFFFFFFFFFFFFFFFFFFFFFFFFFFFF AND PUSH20 0xFFFFFFFFFFFFFFFFFFFFFFFFFFFFFFFFFFFFFFFF AND PUSH20 0xFFFFFFFFFFFFFFFFFFFFFFFFFFFFFFFFFFFFFFFF AND DUP2 MSTORE PUSH1 0x20 ADD PUSH1 0x2 DUP3 ADD PUSH0 SWAP1 SLOAD SWAP1 PUSH2 0x100 EXP SWAP1 DIV PUSH20 0xFFFFFFFFFFFFFFFFFFFFFFFFFFFFFFFFFFFFFFFF AND PUSH20 0xFFFFFFFFFFFFFFFFFFFFFFFFFFFFFFFFFFFFFFFF AND PUSH20 0xFFFFFFFFFFFFFFFFFFFFFFFFFFFFFFFFFFFFFFFF AND DUP2 MSTORE PUSH1 0x20 ADD PUSH1 0x3 DUP3 ADD SLOAD DUP2 MSTORE PUSH1 0x20 ADD PUSH1 0x4 DUP3 ADD PUSH0 SWAP1 SLOAD SWAP1 PUSH2 0x100 EXP SWAP1 DIV PUSH4 0xFFFFFFFF AND PUSH4 0xFFFFFFFF AND PUSH4 0xFFFFFFFF AND DUP2 MSTORE PUSH1 0x20 ADD PUSH1 0x4 DUP3 ADD PUSH1 0x4 SWAP1 SLOAD SWAP1 PUSH2 0x100 EXP SWAP1 DIV PUSH4 0xFFFFFFFF AND PUSH4 0xFFFFFFFF AND PUSH4 0xFFFFFFFF AND DUP2 MSTORE PUSH1 0x20 ADD PUSH1 0x4 DUP3 ADD PUSH1 0x8 SWAP1 SLOAD SWAP1 PUSH2 0x100 EXP SWAP1 DIV PUSH4 0xFFFFFFFF AND PUSH4 0xFFFFFFFF AND PUSH4 0xFFFFFFFF AND DUP2 MSTORE PUSH1 0x20 ADD PUSH1 0x5 DUP3 ADD DUP1 SLOAD PUSH2 0x111C SWAP1 PUSH2 0x1FDF JUMP JUMPDEST DUP1 PUSH1 0x1F ADD PUSH1 0x20 DUP1 SWAP2 DIV MUL PUSH1 0x20 ADD PUSH1 0x40 MLOAD SWAP1 DUP2 ADD PUSH1 0x40 MSTORE DUP1 SWAP3 SWAP2 SWAP1 DUP2 DUP2 MSTORE PUSH1 0x20 ADD DUP3 DUP1 SLOAD PUSH2 0x1148 SWAP1 PUSH2 0x1FDF JUMP JUMPDEST DUP1 ISZERO PUSH2 0x1193 JUMPI DUP1 PUSH1 0x1F LT PUSH2 0x116A JUMPI PUSH2 0x100 DUP1 DUP4 SLOAD DIV MUL DUP4 MSTORE SWAP2 PUSH1 0x20 ADD SWAP2 PUSH2 0x1193 JUMP JUMPDEST DUP3 ADD SWAP2 SWAP1 PUSH0 MSTORE PUSH1 0x20 PUSH0 KECCAK256 SWAP1 JUMPDEST DUP2 SLOAD DUP2 MSTORE SWAP1 PUSH1 0x1 ADD SWAP1 PUSH1 0x20 ADD DUP1 DUP4 GT PUSH2 0x1176 JUMPI DUP3 SWAP1 SUB PUSH1 0x1F AND DUP3 ADD SWAP2 JUMPDEST POP POP POP POP POP DUP2 MSTORE PUSH1 0x20 ADD PUSH1 0x6 DUP3 ADD DUP1 SLOAD DUP1 PUSH1 0x20 MUL PUSH1 0x20 ADD PUSH1 0x40 MLOAD SWAP1 DUP2 ADD PUSH1 0x40 MSTORE DUP1 SWAP3 SWAP2 SWAP1 DUP2 DUP2 MSTORE PUSH1 0x20 ADD PUSH0 SWAP1 JUMPDEST DUP3 DUP3 LT ISZERO PUSH2 0x130F JUMPI DUP4 DUP3 SWAP1 PUSH0 MSTORE PUSH1 0x20 PUSH0 KECCAK256 SWAP1 PUSH1 0x2 MUL ADD PUSH1 0x40 MLOAD DUP1 PUSH1 0x40 ADD PUSH1 0x40 MSTORE SWAP1 DUP2 PUSH0 DUP3 ADD DUP1 SLOAD PUSH2 0x11F0 SWAP1 PUSH2 0x1FDF JUMP JUMPDEST DUP1 PUSH1 0x1F ADD PUSH1 0x20 DUP1 SWAP2 DIV MUL PUSH1 0x20 ADD PUSH1 0x40 MLOAD SWAP1 DUP2 ADD PUSH1 0x40 MSTORE DUP1 SWAP3 SWAP2 SWAP1 DUP2 DUP2 MSTORE PUSH1 0x20 ADD DUP3 DUP1 SLOAD PUSH2 0x121C SWAP1 PUSH2 0x1FDF JUMP JUMPDEST DUP1 ISZERO PUSH2 0x1267 JUMPI DUP1 PUSH1 0x1F LT PUSH2 0x123E JUMPI PUSH2 0x100 DUP1 DUP4 SLOAD DIV MUL DUP4 MSTORE SWAP2 PUSH1 0x20 ADD SWAP2 PUSH2 0x1267 JUMP JUMPDEST DUP3 ADD SWAP2 SWAP1 PUSH0 MSTORE PUSH1 0x20 PUSH0 KECCAK256 SWAP1 JUMPDEST DUP2 SLOAD DUP2 MSTORE SWAP1 PUSH1 0x1 ADD SWAP1 PUSH1 0x20 ADD DUP1 DUP4 GT PUSH2 0x124A JUMPI DUP3 SWAP1 SUB PUSH1 0x1F AND DUP3 ADD SWAP2 JUMPDEST POP POP POP POP POP DUP2 MSTORE PUSH1 0x20 ADD PUSH1 0x1 DUP3 ADD DUP1 SLOAD PUSH2 0x1280 SWAP1 PUSH2 0x1FDF JUMP JUMPDEST DUP1 PUSH1 0x1F ADD PUSH1 0x20 DUP1 SWAP2 DIV MUL PUSH1 0x20 ADD PUSH1 0x40 MLOAD SWAP1 DUP2 ADD PUSH1 0x40 MSTORE DUP1 SWAP3 SWAP2 SWAP1 DUP2 DUP2 MSTORE PUSH1 0x20 ADD DUP3 DUP1 SLOAD PUSH2 0x12AC SWAP1 PUSH2 0x1FDF JUMP JUMPDEST DUP1 ISZERO PUSH2 0x12F7 JUMPI DUP1 PUSH1 0x1F LT PUSH2 0x12CE JUMPI PUSH2 0x100 DUP1 DUP4 SLOAD DIV MUL DUP4 MSTORE SWAP2 PUSH1 0x20 ADD SWAP2 PUSH2 0x12F7 JUMP JUMPDEST DUP3 ADD SWAP2 SWAP1 PUSH0 MSTORE PUSH1 0x20 PUSH0 KECCAK256 SWAP1 JUMPDEST DUP2 SLOAD DUP2 MSTORE SWAP1 PUSH1 0x1 ADD SWAP1 PUSH1 0x20 ADD DUP1 DUP4 GT PUSH2 0x12DA JUMPI DUP3 SWAP1 SUB PUSH1 0x1F AND DUP3 ADD SWAP2 JUMPDEST POP POP POP POP POP DUP2 MSTORE POP POP DUP2 MSTORE PUSH1 0x20 ADD SWAP1 PUSH1 0x1 ADD SWAP1 PUSH2 0x11C0 JUMP JUMPDEST POP POP POP POP DUP2 MSTORE POP POP SWAP1 POP DUP1 SWAP2 POP POP SWAP2 SWAP1 POP JUMP JUMPDEST PUSH0 SELFBALANCE SWAP1 POP SWAP1 JUMP JUMPDEST DUP3 DUP1 SLOAD DUP3 DUP3 SSTORE SWAP1 PUSH0 MSTORE PUSH1 0x20 PUSH0 KECCAK256 SWAP1 PUSH1 0x2 MUL DUP2 ADD SWAP3 DUP3 ISZERO PUSH2 0x1394 JUMPI PUSH0 MSTORE PUSH1 0x20 PUSH0 KECCAK256 SWAP2 PUSH1 0x2 MUL DUP3 ADD JUMPDEST DUP3 DUP2 GT ISZERO PUSH2 0x1393 JUMPI DUP3 DUP3 PUSH0 DUP3 ADD DUP2 PUSH0 ADD SWAP1 DUP2 PUSH2 0x136C SWAP2 SWAP1 PUSH2 0x2325 JUMP JUMPDEST POP PUSH1 0x1 DUP3 ADD DUP2 PUSH1 0x1 ADD SWAP1 DUP2 PUSH2 0x1381 SWAP2 SWAP1 PUSH2 0x2325 JUMP JUMPDEST POP POP POP SWAP2 PUSH1 0x2 ADD SWAP2 SWAP1 PUSH1 0x2 ADD SWAP1 PUSH2 0x1350 JUMP JUMPDEST JUMPDEST POP SWAP1 POP PUSH2 0x13A1 SWAP2 SWAP1 PUSH2 0x1428 JUMP JUMPDEST POP SWAP1 JUMP JUMPDEST PUSH1 0x40 MLOAD DUP1 PUSH2 0x120 ADD PUSH1 0x40 MSTORE DUP1 PUSH0 DUP2 MSTORE PUSH1 0x20 ADD PUSH0 PUSH20 0xFFFFFFFFFFFFFFFFFFFFFFFFFFFFFFFFFFFFFFFF AND DUP2 MSTORE PUSH1 0x20 ADD PUSH0 PUSH20 0xFFFFFFFFFFFFFFFFFFFFFFFFFFFFFFFFFFFFFFFF AND DUP2 MSTORE PUSH1 0x20 ADD PUSH0 DUP2 MSTORE PUSH1 0x20 ADD PUSH0 PUSH4 0xFFFFFFFF AND DUP2 MSTORE PUSH1 0x20 ADD PUSH0 PUSH4 0xFFFFFFFF AND DUP2 MSTORE PUSH1 0x20 ADD PUSH0 PUSH4 0xFFFFFFFF AND DUP2 MSTORE PUSH1 0x20 ADD PUSH1 0x60 DUP2 MSTORE PUSH1 0x20 ADD PUSH1 0x60 DUP2 MSTORE POP SWAP1 JUMP JUMPDEST JUMPDEST DUP1 DUP3 GT ISZERO PUSH2 0x1458 JUMPI PUSH0 DUP1 DUP3 ADD PUSH0 PUSH2 0x1440 SWAP2 SWAP1 PUSH2 0x145C JUMP JUMPDEST PUSH1 0x1 DUP3 ADD PUSH0 PUSH2 0x144F SWAP2 SWAP1 PUSH2 0x145C JUMP JUMPDEST POP PUSH1 0x2 ADD PUSH2 0x1429 JUMP JUMPDEST POP SWAP1 JUMP JUMPDEST POP DUP1 SLOAD PUSH2 0x1468 SWAP1 PUSH2 0x1FDF JUMP JUMPDEST PUSH0 DUP3 SSTORE DUP1 PUSH1 0x1F LT PUSH2 0x1479 JUMPI POP PUSH2 0x1496 JUMP JUMPDEST PUSH1 0x1F ADD PUSH1 0x20 SWAP1 DIV SWAP1 PUSH0 MSTORE PUSH1 0x20 PUSH0 KECCAK256 SWAP1 DUP2 ADD SWAP1 PUSH2 0x1495 SWAP2 SWAP1 PUSH2 0x1499 JUMP JUMPDEST JUMPDEST POP JUMP JUMPDEST JUMPDEST DUP1 DUP3 GT ISZERO PUSH2 0x14B0 JUMPI PUSH0 DUP2 PUSH0 SWAP1 SSTORE POP PUSH1 0x1 ADD PUSH2 0x149A JUMP JUMPDEST POP SWAP1 JUMP JUMPDEST PUSH0 DUP3 DUP3 MSTORE PUSH1 0x20 DUP3 ADD SWAP1 POP SWAP3 SWAP2 POP POP JUMP JUMPDEST PUSH32 0x52656369657665207265636569766520746F6B656E0000000000000000000000 PUSH0 DUP3 ADD MSTORE POP JUMP JUMPDEST PUSH0 PUSH2 0x14F8 PUSH1 0x15 DUP4 PUSH2 0x14B4 JUMP JUMPDEST SWAP2 POP PUSH2 0x1503 DUP3 PUSH2 0x14C4 JUMP JUMPDEST PUSH1 0x20 DUP3 ADD SWAP1 POP SWAP2 SWAP1 POP JUMP JUMPDEST PUSH0 PUSH20 0xFFFFFFFFFFFFFFFFFFFFFFFFFFFFFFFFFFFFFFFF DUP3 AND SWAP1 POP SWAP2 SWAP1 POP JUMP JUMPDEST PUSH0 PUSH2 0x1537 DUP3 PUSH2 0x150E JUMP JUMPDEST SWAP1 POP SWAP2 SWAP1 POP JUMP JUMPDEST PUSH2 0x1547 DUP2 PUSH2 0x152D JUMP JUMPDEST DUP3 MSTORE POP POP JUMP JUMPDEST PUSH0 PUSH1 0x40 DUP3 ADD SWAP1 POP DUP2 DUP2 SUB PUSH0 DUP4 ADD MSTORE PUSH2 0x1564 DUP2 PUSH2 0x14EC JUMP JUMPDEST SWAP1 POP PUSH2 0x1573 PUSH1 0x20 DUP4 ADD DUP5 PUSH2 0x153E JUMP JUMPDEST SWAP3 SWAP2 POP POP JUMP JUMPDEST PUSH32 0x526563696576652066616C6C6261636B20746F6B656E00000000000000000000 PUSH0 DUP3 ADD MSTORE POP JUMP JUMPDEST PUSH0 PUSH2 0x15AD PUSH1 0x16 DUP4 PUSH2 0x14B4 JUMP JUMPDEST SWAP2 POP PUSH2 0x15B8 DUP3 PUSH2 0x1579 JUMP JUMPDEST PUSH1 0x20 DUP3 ADD SWAP1 POP SWAP2 SWAP1 POP JUMP JUMPDEST PUSH0 PUSH1 0x40 DUP3 ADD SWAP1 POP DUP2 DUP2 SUB PUSH0 DUP4 ADD MSTORE PUSH2 0x15DA DUP2 PUSH2 0x15A1 JUMP JUMPDEST SWAP1 POP PUSH2 0x15E9 PUSH1 0x20 DUP4 ADD DUP5 PUSH2 0x153E JUMP JUMPDEST SWAP3 SWAP2 POP POP JUMP JUMPDEST PUSH0 DUP2 MLOAD SWAP1 POP SWAP2 SWAP1 POP JUMP JUMPDEST PUSH0 DUP3 DUP3 MSTORE PUSH1 0x20 DUP3 ADD SWAP1 POP SWAP3 SWAP2 POP POP JUMP JUMPDEST PUSH0 DUP2 SWAP1 POP PUSH1 0x20 DUP3 ADD SWAP1 POP SWAP2 SWAP1 POP JUMP JUMPDEST PUSH0 DUP2 SWAP1 POP SWAP2 SWAP1 POP JUMP JUMPDEST PUSH2 0x162A DUP2 PUSH2 0x1618 JUMP JUMPDEST DUP3 MSTORE POP POP JUMP JUMPDEST PUSH2 0x1639 DUP2 PUSH2 0x152D JUMP JUMPDEST DUP3 MSTORE POP POP JUMP JUMPDEST PUSH0 PUSH4 0xFFFFFFFF DUP3 AND SWAP1 POP SWAP2 SWAP1 POP JUMP JUMPDEST PUSH2 0x1657 DUP2 PUSH2 0x163F JUMP JUMPDEST DUP3 MSTORE POP POP JUMP JUMPDEST PUSH0 DUP2 MLOAD SWAP1 POP SWAP2 SWAP1 POP JUMP JUMPDEST PUSH0 DUP3 DUP3 MSTORE PUSH1 0x20 DUP3 ADD SWAP1 POP SWAP3 SWAP2 POP POP JUMP JUMPDEST PUSH0 JUMPDEST DUP4 DUP2 LT ISZERO PUSH2 0x1694 JUMPI DUP1 DUP3 ADD MLOAD DUP2 DUP5 ADD MSTORE PUSH1 0x20 DUP2 ADD SWAP1 POP PUSH2 0x1679 JUMP JUMPDEST PUSH0 DUP5 DUP5 ADD MSTORE POP POP POP POP JUMP JUMPDEST PUSH0 PUSH1 0x1F NOT PUSH1 0x1F DUP4 ADD AND SWAP1 POP SWAP2 SWAP1 POP JUMP JUMPDEST PUSH0 PUSH2 0x16B9 DUP3 PUSH2 0x165D JUMP JUMPDEST PUSH2 0x16C3 DUP2 DUP6 PUSH2 0x1667 JUMP JUMPDEST SWAP4 POP PUSH2 0x16D3 DUP2 DUP6 PUSH1 0x20 DUP7 ADD PUSH2 0x1677 JUMP JUMPDEST PUSH2 0x16DC DUP2 PUSH2 0x169F JUMP JUMPDEST DUP5 ADD SWAP2 POP POP SWAP3 SWAP2 POP POP JUMP JUMPDEST PUSH0 DUP2 MLOAD SWAP1 POP SWAP2 SWAP1 POP JUMP JUMPDEST PUSH0 DUP3 DUP3 MSTORE PUSH1 0x20 DUP3 ADD SWAP1 POP SWAP3 SWAP2 POP POP JUMP JUMPDEST PUSH0 DUP2 SWAP1 POP PUSH1 0x20 DUP3 ADD SWAP1 POP SWAP2 SWAP1 POP JUMP JUMPDEST PUSH0 PUSH1 0x40 DUP4 ADD PUSH0 DUP4 ADD MLOAD DUP5 DUP3 SUB PUSH0 DUP7 ADD MSTORE PUSH2 0x172A DUP3 DUP3 PUSH2 0x16AF JUMP JUMPDEST SWAP2 POP POP PUSH1 0x20 DUP4 ADD MLOAD DUP5 DUP3 SUB PUSH1 0x20 DUP7 ADD MSTORE PUSH2 0x1744 DUP3 DUP3 PUSH2 0x16AF JUMP JUMPDEST SWAP2 POP POP DUP1 SWAP2 POP POP SWAP3 SWAP2 POP POP JUMP JUMPDEST PUSH0 PUSH2 0x175C DUP4 DUP4 PUSH2 0x1710 JUMP JUMPDEST SWAP1 POP SWAP3 SWAP2 POP POP JUMP JUMPDEST PUSH0 PUSH1 0x20 DUP3 ADD SWAP1 POP SWAP2 SWAP1 POP JUMP JUMPDEST PUSH0 PUSH2 0x177A DUP3 PUSH2 0x16E7 JUMP JUMPDEST PUSH2 0x1784 DUP2 DUP6 PUSH2 0x16F1 JUMP JUMPDEST SWAP4 POP DUP4 PUSH1 0x20 DUP3 MUL DUP6 ADD PUSH2 0x1796 DUP6 PUSH2 0x1701 JUMP JUMPDEST DUP1 PUSH0 JUMPDEST DUP6 DUP2 LT ISZERO PUSH2 0x17D1 JUMPI DUP5 DUP5 SUB DUP10 MSTORE DUP2 MLOAD PUSH2 0x17B2 DUP6 DUP3 PUSH2 0x1751 JUMP JUMPDEST SWAP5 POP PUSH2 0x17BD DUP4 PUSH2 0x1764 JUMP JUMPDEST SWAP3 POP PUSH1 0x20 DUP11 ADD SWAP10 POP POP PUSH1 0x1 DUP2 ADD SWAP1 POP PUSH2 0x1799 JUMP JUMPDEST POP DUP3 SWAP8 POP DUP8 SWAP6 POP POP POP POP POP POP SWAP3 SWAP2 POP POP JUMP JUMPDEST PUSH0 PUSH2 0x120 DUP4 ADD PUSH0 DUP4 ADD MLOAD PUSH2 0x17F9 PUSH0 DUP7 ADD DUP3 PUSH2 0x1621 JUMP JUMPDEST POP PUSH1 0x20 DUP4 ADD MLOAD PUSH2 0x180C PUSH1 0x20 DUP7 ADD DUP3 PUSH2 0x1630 JUMP JUMPDEST POP PUSH1 0x40 DUP4 ADD MLOAD PUSH2 0x181F PUSH1 0x40 DUP7 ADD DUP3 PUSH2 0x1630 JUMP JUMPDEST POP PUSH1 0x60 DUP4 ADD MLOAD PUSH2 0x1832 PUSH1 0x60 DUP7 ADD DUP3 PUSH2 0x1621 JUMP JUMPDEST POP PUSH1 0x80 DUP4 ADD MLOAD PUSH2 0x1845 PUSH1 0x80 DUP7 ADD DUP3 PUSH2 0x164E JUMP JUMPDEST POP PUSH1 0xA0 DUP4 ADD MLOAD PUSH2 0x1858 PUSH1 0xA0 DUP7 ADD DUP3 PUSH2 0x164E JUMP JUMPDEST POP PUSH1 0xC0 DUP4 ADD MLOAD PUSH2 0x186B PUSH1 0xC0 DUP7 ADD DUP3 PUSH2 0x164E JUMP JUMPDEST POP PUSH1 0xE0 DUP4 ADD MLOAD DUP5 DUP3 SUB PUSH1 0xE0 DUP7 ADD MSTORE PUSH2 0x1883 DUP3 DUP3 PUSH2 0x16AF JUMP JUMPDEST SWAP2 POP POP PUSH2 0x100 DUP4 ADD MLOAD DUP5 DUP3 SUB PUSH2 0x100 DUP7 ADD MSTORE PUSH2 0x189F DUP3 DUP3 PUSH2 0x1770 JUMP JUMPDEST SWAP2 POP POP DUP1 SWAP2 POP POP SWAP3 SWAP2 POP POP JUMP JUMPDEST PUSH0 PUSH2 0x18B7 DUP4 DUP4 PUSH2 0x17E3 JUMP JUMPDEST SWAP1 POP SWAP3 SWAP2 POP POP JUMP JUMPDEST PUSH0 PUSH1 0x20 DUP3 ADD SWAP1 POP SWAP2 SWAP1 POP JUMP JUMPDEST PUSH0 PUSH2 0x18D5 DUP3 PUSH2 0x15EF JUMP JUMPDEST PUSH2 0x18DF DUP2 DUP6 PUSH2 0x15F9 JUMP JUMPDEST SWAP4 POP DUP4 PUSH1 0x20 DUP3 MUL DUP6 ADD PUSH2 0x18F1 DUP6 PUSH2 0x1609 JUMP JUMPDEST DUP1 PUSH0 JUMPDEST DUP6 DUP2 LT ISZERO PUSH2 0x192C JUMPI DUP5 DUP5 SUB DUP10 MSTORE DUP2 MLOAD PUSH2 0x190D DUP6 DUP3 PUSH2 0x18AC JUMP JUMPDEST SWAP5 POP PUSH2 0x1918 DUP4 PUSH2 0x18BF JUMP JUMPDEST SWAP3 POP PUSH1 0x20 DUP11 ADD SWAP10 POP POP PUSH1 0x1 DUP2 ADD SWAP1 POP PUSH2 0x18F4 JUMP JUMPDEST POP DUP3 SWAP8 POP DUP8 SWAP6 POP POP POP POP POP POP SWAP3 SWAP2 POP POP JUMP JUMPDEST PUSH0 PUSH1 0x20 DUP3 ADD SWAP1 POP DUP2 DUP2 SUB PUSH0 DUP4 ADD MSTORE PUSH2 0x1956 DUP2 DUP5 PUSH2 0x18CB JUMP JUMPDEST SWAP1 POP SWAP3 SWAP2 POP POP JUMP JUMPDEST PUSH0 PUSH1 0x40 MLOAD SWAP1 POP SWAP1 JUMP JUMPDEST PUSH0 DUP1 REVERT JUMPDEST PUSH0 DUP1 REVERT JUMPDEST PUSH2 0x1978 DUP2 PUSH2 0x1618 JUMP JUMPDEST DUP2 EQ PUSH2 0x1982 JUMPI PUSH0 DUP1 REVERT JUMPDEST POP JUMP JUMPDEST PUSH0 DUP2 CALLDATALOAD SWAP1 POP PUSH2 0x1993 DUP2 PUSH2 0x196F JUMP JUMPDEST SWAP3 SWAP2 POP POP JUMP JUMPDEST PUSH2 0x19A2 DUP2 PUSH2 0x152D JUMP JUMPDEST DUP2 EQ PUSH2 0x19AC JUMPI PUSH0 DUP1 REVERT JUMPDEST POP JUMP JUMPDEST PUSH0 DUP2 CALLDATALOAD SWAP1 POP PUSH2 0x19BD DUP2 PUSH2 0x1999 JUMP JUMPDEST SWAP3 SWAP2 POP POP JUMP JUMPDEST PUSH2 0x19CC DUP2 PUSH2 0x163F JUMP JUMPDEST DUP2 EQ PUSH2 0x19D6 JUMPI PUSH0 DUP1 REVERT JUMPDEST POP JUMP JUMPDEST PUSH0 DUP2 CALLDATALOAD SWAP1 POP PUSH2 0x19E7 DUP2 PUSH2 0x19C3 JUMP JUMPDEST SWAP3 SWAP2 POP POP JUMP JUMPDEST PUSH0 DUP1 REVERT JUMPDEST PUSH0 DUP1 REVERT JUMPDEST PUSH32 0x4E487B7100000000000000000000000000000000000000000000000000000000 PUSH0 MSTORE PUSH1 0x41 PUSH1 0x4 MSTORE PUSH1 0x24 PUSH0 REVERT JUMPDEST PUSH2 0x1A2B DUP3 PUSH2 0x169F JUMP JUMPDEST DUP2 ADD DUP2 DUP2 LT PUSH8 0xFFFFFFFFFFFFFFFF DUP3 GT OR ISZERO PUSH2 0x1A4A JUMPI PUSH2 0x1A49 PUSH2 0x19F5 JUMP JUMPDEST JUMPDEST DUP1 PUSH1 0x40 MSTORE POP POP POP JUMP JUMPDEST PUSH0 PUSH2 0x1A5C PUSH2 0x195E JUMP JUMPDEST SWAP1 POP PUSH2 0x1A68 DUP3 DUP3 PUSH2 0x1A22 JUMP JUMPDEST SWAP2 SWAP1 POP JUMP JUMPDEST PUSH0 PUSH8 0xFFFFFFFFFFFFFFFF DUP3 GT ISZERO PUSH2 0x1A87 JUMPI PUSH2 0x1A86 PUSH2 0x19F5 JUMP JUMPDEST JUMPDEST PUSH2 0x1A90 DUP3 PUSH2 0x169F JUMP JUMPDEST SWAP1 POP PUSH1 0x20 DUP2 ADD SWAP1 POP SWAP2 SWAP1 POP JUMP JUMPDEST DUP3 DUP2 DUP4 CALLDATACOPY PUSH0 DUP4 DUP4 ADD MSTORE POP POP POP JUMP JUMPDEST PUSH0 PUSH2 0x1ABD PUSH2 0x1AB8 DUP5 PUSH2 0x1A6D JUMP JUMPDEST PUSH2 0x1A53 JUMP JUMPDEST SWAP1 POP DUP3 DUP2 MSTORE PUSH1 0x20 DUP2 ADD DUP5 DUP5 DUP5 ADD GT ISZERO PUSH2 0x1AD9 JUMPI PUSH2 0x1AD8 PUSH2 0x19F1 JUMP JUMPDEST JUMPDEST PUSH2 0x1AE4 DUP5 DUP3 DUP6 PUSH2 0x1A9D JUMP JUMPDEST POP SWAP4 SWAP3 POP POP POP JUMP JUMPDEST PUSH0 DUP3 PUSH1 0x1F DUP4 ADD SLT PUSH2 0x1B00 JUMPI PUSH2 0x1AFF PUSH2 0x19ED JUMP JUMPDEST JUMPDEST DUP2 CALLDATALOAD PUSH2 0x1B10 DUP5 DUP3 PUSH1 0x20 DUP7 ADD PUSH2 0x1AAB JUMP JUMPDEST SWAP2 POP POP SWAP3 SWAP2 POP POP JUMP JUMPDEST PUSH0 PUSH8 0xFFFFFFFFFFFFFFFF DUP3 GT ISZERO PUSH2 0x1B33 JUMPI PUSH2 0x1B32 PUSH2 0x19F5 JUMP JUMPDEST JUMPDEST PUSH1 0x20 DUP3 MUL SWAP1 POP PUSH1 0x20 DUP2 ADD SWAP1 POP SWAP2 SWAP1 POP JUMP JUMPDEST PUSH0 DUP1 REVERT JUMPDEST PUSH0 DUP1 REVERT JUMPDEST PUSH0 DUP1 REVERT JUMPDEST PUSH0 PUSH1 0x40 DUP3 DUP5 SUB SLT ISZERO PUSH2 0x1B65 JUMPI PUSH2 0x1B64 PUSH2 0x1B48 JUMP JUMPDEST JUMPDEST PUSH2 0x1B6F PUSH1 0x40 PUSH2 0x1A53 JUMP JUMPDEST SWAP1 POP PUSH0 DUP3 ADD CALLDATALOAD PUSH8 0xFFFFFFFFFFFFFFFF DUP2 GT ISZERO PUSH2 0x1B8E JUMPI PUSH2 0x1B8D PUSH2 0x1B4C JUMP JUMPDEST JUMPDEST PUSH2 0x1B9A DUP5 DUP3 DUP6 ADD PUSH2 0x1AEC JUMP JUMPDEST PUSH0 DUP4 ADD MSTORE POP PUSH1 0x20 DUP3 ADD CALLDATALOAD PUSH8 0xFFFFFFFFFFFFFFFF DUP2 GT ISZERO PUSH2 0x1BBD JUMPI PUSH2 0x1BBC PUSH2 0x1B4C JUMP JUMPDEST JUMPDEST PUSH2 0x1BC9 DUP5 DUP3 DUP6 ADD PUSH2 0x1AEC JUMP JUMPDEST PUSH1 0x20 DUP4 ADD MSTORE POP SWAP3 SWAP2 POP POP JUMP JUMPDEST PUSH0 PUSH2 0x1BE7 PUSH2 0x1BE2 DUP5 PUSH2 0x1B19 JUMP JUMPDEST PUSH2 0x1A53 JUMP JUMPDEST SWAP1 POP DUP1 DUP4 DUP3 MSTORE PUSH1 0x20 DUP3 ADD SWAP1 POP PUSH1 0x20 DUP5 MUL DUP4 ADD DUP6 DUP2 GT ISZERO PUSH2 0x1C0A JUMPI PUSH2 0x1C09 PUSH2 0x1B44 JUMP JUMPDEST JUMPDEST DUP4 JUMPDEST DUP2 DUP2 LT ISZERO PUSH2 0x1C51 JUMPI DUP1 CALLDATALOAD PUSH8 0xFFFFFFFFFFFFFFFF DUP2 GT ISZERO PUSH2 0x1C2F JUMPI PUSH2 0x1C2E PUSH2 0x19ED JUMP JUMPDEST JUMPDEST DUP1 DUP7 ADD PUSH2 0x1C3C DUP10 DUP3 PUSH2 0x1B50 JUMP JUMPDEST DUP6 MSTORE PUSH1 0x20 DUP6 ADD SWAP5 POP POP POP PUSH1 0x20 DUP2 ADD SWAP1 POP PUSH2 0x1C0C JUMP JUMPDEST POP POP POP SWAP4 SWAP3 POP POP POP JUMP JUMPDEST PUSH0 DUP3 PUSH1 0x1F DUP4 ADD SLT PUSH2 0x1C6F JUMPI PUSH2 0x1C6E PUSH2 0x19ED JUMP JUMPDEST JUMPDEST DUP2 CALLDATALOAD PUSH2 0x1C7F DUP5 DUP3 PUSH1 0x20 DUP7 ADD PUSH2 0x1BD5 JUMP JUMPDEST SWAP2 POP POP SWAP3 SWAP2 POP POP JUMP JUMPDEST PUSH0 DUP1 PUSH0 DUP1 PUSH0 DUP1 PUSH0 DUP1 PUSH0 PUSH2 0x120 DUP11 DUP13 SUB SLT ISZERO PUSH2 0x1CA6 JUMPI PUSH2 0x1CA5 PUSH2 0x1967 JUMP JUMPDEST JUMPDEST PUSH0 PUSH2 0x1CB3 DUP13 DUP3 DUP14 ADD PUSH2 0x1985 JUMP JUMPDEST SWAP10 POP POP PUSH1 0x20 PUSH2 0x1CC4 DUP13 DUP3 DUP14 ADD PUSH2 0x19AF JUMP JUMPDEST SWAP9 POP POP PUSH1 0x40 PUSH2 0x1CD5 DUP13 DUP3 DUP14 ADD PUSH2 0x19AF JUMP JUMPDEST SWAP8 POP POP PUSH1 0x60 PUSH2 0x1CE6 DUP13 DUP3 DUP14 ADD PUSH2 0x1985 JUMP JUMPDEST SWAP7 POP POP PUSH1 0x80 PUSH2 0x1CF7 DUP13 DUP3 DUP14 ADD PUSH2 0x19D9 JUMP JUMPDEST SWAP6 POP POP PUSH1 0xA0 PUSH2 0x1D08 DUP13 DUP3 DUP14 ADD PUSH2 0x19D9 JUMP JUMPDEST SWAP5 POP POP PUSH1 0xC0 PUSH2 0x1D19 DUP13 DUP3 DUP14 ADD PUSH2 0x19D9 JUMP JUMPDEST SWAP4 POP POP PUSH1 0xE0 DUP11 ADD CALLDATALOAD PUSH8 0xFFFFFFFFFFFFFFFF DUP2 GT ISZERO PUSH2 0x1D3A JUMPI PUSH2 0x1D39 PUSH2 0x196B JUMP JUMPDEST JUMPDEST PUSH2 0x1D46 DUP13 DUP3 DUP14 ADD PUSH2 0x1AEC JUMP JUMPDEST SWAP3 POP POP PUSH2 0x100 DUP11 ADD CALLDATALOAD PUSH8 0xFFFFFFFFFFFFFFFF DUP2 GT ISZERO PUSH2 0x1D68 JUMPI PUSH2 0x1D67 PUSH2 0x196B JUMP JUMPDEST JUMPDEST PUSH2 0x1D74 DUP13 DUP3 DUP14 ADD PUSH2 0x1C5B JUMP JUMPDEST SWAP2 POP POP SWAP3 SWAP6 SWAP9 POP SWAP3 SWAP6 SWAP9 POP SWAP3 SWAP6 SWAP9 JUMP JUMPDEST PUSH2 0x1D8D DUP2 PUSH2 0x1618 JUMP JUMPDEST DUP3 MSTORE POP POP JUMP JUMPDEST PUSH0 PUSH1 0x20 DUP3 ADD SWAP1 POP PUSH2 0x1DA6 PUSH0 DUP4 ADD DUP5 PUSH2 0x1D84 JUMP JUMPDEST SWAP3 SWAP2 POP POP JUMP JUMPDEST PUSH0 PUSH2 0x1DB6 DUP3 PUSH2 0x150E JUMP JUMPDEST SWAP1 POP SWAP2 SWAP1 POP JUMP JUMPDEST PUSH2 0x1DC6 DUP2 PUSH2 0x1DAC JUMP JUMPDEST DUP2 EQ PUSH2 0x1DD0 JUMPI PUSH0 DUP1 REVERT JUMPDEST POP JUMP JUMPDEST PUSH0 DUP2 CALLDATALOAD SWAP1 POP PUSH2 0x1DE1 DUP2 PUSH2 0x1DBD JUMP JUMPDEST SWAP3 SWAP2 POP POP JUMP JUMPDEST PUSH0 DUP1 PUSH1 0x40 DUP4 DUP6 SUB SLT ISZERO PUSH2 0x1DFD JUMPI PUSH2 0x1DFC PUSH2 0x1967 JUMP JUMPDEST JUMPDEST PUSH0 PUSH2 0x1E0A DUP6 DUP3 DUP7 ADD PUSH2 0x1DD3 JUMP JUMPDEST SWAP3 POP POP PUSH1 0x20 PUSH2 0x1E1B DUP6 DUP3 DUP7 ADD PUSH2 0x1985 JUMP JUMPDEST SWAP2 POP POP SWAP3 POP SWAP3 SWAP1 POP JUMP JUMPDEST PUSH0 PUSH1 0x20 DUP3 ADD SWAP1 POP PUSH2 0x1E38 PUSH0 DUP4 ADD DUP5 PUSH2 0x153E JUMP JUMPDEST SWAP3 SWAP2 POP POP JUMP JUMPDEST PUSH0 PUSH1 0x20 DUP3 DUP5 SUB SLT ISZERO PUSH2 0x1E53 JUMPI PUSH2 0x1E52 PUSH2 0x1967 JUMP JUMPDEST JUMPDEST PUSH0 PUSH2 0x1E60 DUP5 DUP3 DUP6 ADD PUSH2 0x1985 JUMP JUMPDEST SWAP2 POP POP SWAP3 SWAP2 POP POP JUMP JUMPDEST PUSH0 PUSH2 0x120 DUP4 ADD PUSH0 DUP4 ADD MLOAD PUSH2 0x1E7F PUSH0 DUP7 ADD DUP3 PUSH2 0x1621 JUMP JUMPDEST POP PUSH1 0x20 DUP4 ADD MLOAD PUSH2 0x1E92 PUSH1 0x20 DUP7 ADD DUP3 PUSH2 0x1630 JUMP JUMPDEST POP PUSH1 0x40 DUP4 ADD MLOAD PUSH2 0x1EA5 PUSH1 0x40 DUP7 ADD DUP3 PUSH2 0x1630 JUMP JUMPDEST POP PUSH1 0x60 DUP4 ADD MLOAD PUSH2 0x1EB8 PUSH1 0x60 DUP7 ADD DUP3 PUSH2 0x1621 JUMP JUMPDEST POP PUSH1 0x80 DUP4 ADD MLOAD PUSH2 0x1ECB PUSH1 0x80 DUP7 ADD DUP3 PUSH2 0x164E JUMP JUMPDEST POP PUSH1 0xA0 DUP4 ADD MLOAD PUSH2 0x1EDE PUSH1 0xA0 DUP7 ADD DUP3 PUSH2 0x164E JUMP JUMPDEST POP PUSH1 0xC0 DUP4 ADD MLOAD PUSH2 0x1EF1 PUSH1 0xC0 DUP7 ADD DUP3 PUSH2 0x164E JUMP JUMPDEST POP PUSH1 0xE0 DUP4 ADD MLOAD DUP5 DUP3 SUB PUSH1 0xE0 DUP7 ADD MSTORE PUSH2 0x1F09 DUP3 DUP3 PUSH2 0x16AF JUMP JUMPDEST SWAP2 POP POP PUSH2 0x100 DUP4 ADD MLOAD DUP5 DUP3 SUB PUSH2 0x100 DUP7 ADD MSTORE PUSH2 0x1F25 DUP3 DUP3 PUSH2 0x1770 JUMP JUMPDEST SWAP2 POP POP DUP1 SWAP2 POP POP SWAP3 SWAP2 POP POP JUMP JUMPDEST PUSH0 PUSH1 0x20 DUP3 ADD SWAP1 POP DUP2 DUP2 SUB PUSH0 DUP4 ADD MSTORE PUSH2 0x1F4A DUP2 DUP5 PUSH2 0x1E69 JUMP JUMPDEST SWAP1 POP SWAP3 SWAP2 POP POP JUMP JUMPDEST PUSH32 0x4E487B7100000000000000000000000000000000000000000000000000000000 PUSH0 MSTORE PUSH1 0x11 PUSH1 0x4 MSTORE PUSH1 0x24 PUSH0 REVERT JUMPDEST PUSH0 PUSH2 0x1F89 DUP3 PUSH2 0x1618 JUMP JUMPDEST SWAP2 POP PUSH2 0x1F94 DUP4 PUSH2 0x1618 JUMP JUMPDEST SWAP3 POP DUP3 DUP3 ADD SWAP1 POP DUP1 DUP3 GT ISZERO PUSH2 0x1FAC JUMPI PUSH2 0x1FAB PUSH2 0x1F52 JUMP JUMPDEST JUMPDEST SWAP3 SWAP2 POP POP JUMP JUMPDEST PUSH32 0x4E487B7100000000000000000000000000000000000000000000000000000000 PUSH0 MSTORE PUSH1 0x22 PUSH1 0x4 MSTORE PUSH1 0x24 PUSH0 REVERT JUMPDEST PUSH0 PUSH1 0x2 DUP3 DIV SWAP1 POP PUSH1 0x1 DUP3 AND DUP1 PUSH2 0x1FF6 JUMPI PUSH1 0x7F DUP3 AND SWAP2 POP JUMPDEST PUSH1 0x20 DUP3 LT DUP2 SUB PUSH2 0x2009 JUMPI PUSH2 0x2008 PUSH2 0x1FB2 JUMP JUMPDEST JUMPDEST POP SWAP2 SWAP1 POP JUMP JUMPDEST PUSH32 0x496E73756666696369656E742062616C616E6365000000000000000000000000 PUSH0 DUP3 ADD MSTORE POP JUMP JUMPDEST PUSH0 PUSH2 0x2043 PUSH1 0x14 DUP4 PUSH2 0x14B4 JUMP JUMPDEST SWAP2 POP PUSH2 0x204E DUP3 PUSH2 0x200F JUMP JUMPDEST PUSH1 0x20 DUP3 ADD SWAP1 POP SWAP2 SWAP1 POP JUMP JUMPDEST PUSH0 PUSH1 0x20 DUP3 ADD SWAP1 POP DUP2 DUP2 SUB PUSH0 DUP4 ADD MSTORE PUSH2 0x2070 DUP2 PUSH2 0x2037 JUMP JUMPDEST SWAP1 POP SWAP2 SWAP1 POP JUMP JUMPDEST PUSH0 DUP2 SWAP1 POP DUP2 PUSH0 MSTORE PUSH1 0x20 PUSH0 KECCAK256 SWAP1 POP SWAP2 SWAP1 POP JUMP JUMPDEST PUSH0 PUSH1 0x20 PUSH1 0x1F DUP4 ADD DIV SWAP1 POP SWAP2 SWAP1 POP JUMP JUMPDEST PUSH0 DUP3 DUP3 SHL SWAP1 POP SWAP3 SWAP2 POP POP JUMP JUMPDEST PUSH0 PUSH1 0x8 DUP4 MUL PUSH2 0x20D3 PUSH32 0xFFFFFFFFFFFFFFFFFFFFFFFFFFFFFFFFFFFFFFFFFFFFFFFFFFFFFFFFFFFFFFFF DUP3 PUSH2 0x2098 JUMP JUMPDEST PUSH2 0x20DD DUP7 DUP4 PUSH2 0x2098 JUMP JUMPDEST SWAP6 POP DUP1 NOT DUP5 AND SWAP4 POP DUP1 DUP7 AND DUP5 OR SWAP3 POP POP POP SWAP4 SWAP3 POP POP POP JUMP JUMPDEST PUSH0 DUP2 SWAP1 POP SWAP2 SWAP1 POP JUMP JUMPDEST PUSH0 PUSH2 0x2118 PUSH2 0x2113 PUSH2 0x210E DUP5 PUSH2 0x1618 JUMP JUMPDEST PUSH2 0x20F5 JUMP JUMPDEST PUSH2 0x1618 JUMP JUMPDEST SWAP1 POP SWAP2 SWAP1 POP JUMP JUMPDEST PUSH0 DUP2 SWAP1 POP SWAP2 SWAP1 POP JUMP JUMPDEST PUSH2 0x2131 DUP4 PUSH2 0x20FE JUMP JUMPDEST PUSH2 0x2145 PUSH2 0x213D DUP3 PUSH2 0x211F JUMP JUMPDEST DUP5 DUP5 SLOAD PUSH2 0x20A4 JUMP JUMPDEST DUP3 SSTORE POP POP POP POP JUMP JUMPDEST PUSH0 SWAP1 JUMP JUMPDEST PUSH2 0x2159 PUSH2 0x214D JUMP JUMPDEST PUSH2 0x2164 DUP2 DUP5 DUP5 PUSH2 0x2128 JUMP JUMPDEST POP POP POP JUMP JUMPDEST JUMPDEST DUP2 DUP2 LT ISZERO PUSH2 0x2187 JUMPI PUSH2 0x217C PUSH0 DUP3 PUSH2 0x2151 JUMP JUMPDEST PUSH1 0x1 DUP2 ADD SWAP1 POP PUSH2 0x216A JUMP JUMPDEST POP POP JUMP JUMPDEST PUSH1 0x1F DUP3 GT ISZERO PUSH2 0x21CC JUMPI PUSH2 0x219D DUP2 PUSH2 0x2077 JUMP JUMPDEST PUSH2 0x21A6 DUP5 PUSH2 0x2089 JUMP JUMPDEST DUP2 ADD PUSH1 0x20 DUP6 LT ISZERO PUSH2 0x21B5 JUMPI DUP2 SWAP1 POP JUMPDEST PUSH2 0x21C9 PUSH2 0x21C1 DUP6 PUSH2 0x2089 JUMP JUMPDEST DUP4 ADD DUP3 PUSH2 0x2169 JUMP JUMPDEST POP POP JUMPDEST POP POP POP JUMP JUMPDEST PUSH0 DUP3 DUP3 SHR SWAP1 POP SWAP3 SWAP2 POP POP JUMP JUMPDEST PUSH0 PUSH2 0x21EC PUSH0 NOT DUP5 PUSH1 0x8 MUL PUSH2 0x21D1 JUMP JUMPDEST NOT DUP1 DUP4 AND SWAP2 POP POP SWAP3 SWAP2 POP POP JUMP JUMPDEST PUSH0 PUSH2 0x2204 DUP4 DUP4 PUSH2 0x21DD JUMP JUMPDEST SWAP2 POP DUP3 PUSH1 0x2 MUL DUP3 OR SWAP1 POP SWAP3 SWAP2 POP POP JUMP JUMPDEST PUSH2 0x221D DUP3 PUSH2 0x165D JUMP JUMPDEST PUSH8 0xFFFFFFFFFFFFFFFF DUP2 GT ISZERO PUSH2 0x2236 JUMPI PUSH2 0x2235 PUSH2 0x19F5 JUMP JUMPDEST JUMPDEST PUSH2 0x2240 DUP3 SLOAD PUSH2 0x1FDF JUMP JUMPDEST PUSH2 0x224B DUP3 DUP3 DUP6 PUSH2 0x218B JUMP JUMPDEST PUSH0 PUSH1 0x20 SWAP1 POP PUSH1 0x1F DUP4 GT PUSH1 0x1 DUP2 EQ PUSH2 0x227C JUMPI PUSH0 DUP5 ISZERO PUSH2 0x226A JUMPI DUP3 DUP8 ADD MLOAD SWAP1 POP JUMPDEST PUSH2 0x2274 DUP6 DUP3 PUSH2 0x21F9 JUMP JUMPDEST DUP7 SSTORE POP PUSH2 0x22DB JUMP JUMPDEST PUSH1 0x1F NOT DUP5 AND PUSH2 0x228A DUP7 PUSH2 0x2077 JUMP JUMPDEST PUSH0 JUMPDEST DUP3 DUP2 LT ISZERO PUSH2 0x22B1 JUMPI DUP5 DUP10 ADD MLOAD DUP3 SSTORE PUSH1 0x1 DUP3 ADD SWAP2 POP PUSH1 0x20 DUP6 ADD SWAP5 POP PUSH1 0x20 DUP2 ADD SWAP1 POP PUSH2 0x228C JUMP JUMPDEST DUP7 DUP4 LT ISZERO PUSH2 0x22CE JUMPI DUP5 DUP10 ADD MLOAD PUSH2 0x22CA PUSH1 0x1F DUP10 AND DUP3 PUSH2 0x21DD JUMP JUMPDEST DUP4 SSTORE POP JUMPDEST PUSH1 0x1 PUSH1 0x2 DUP9 MUL ADD DUP9 SSTORE POP POP POP JUMPDEST POP POP POP POP POP POP JUMP JUMPDEST PUSH32 0x4E487B7100000000000000000000000000000000000000000000000000000000 PUSH0 MSTORE PUSH1 0x32 PUSH1 0x4 MSTORE PUSH1 0x24 PUSH0 REVERT JUMPDEST PUSH0 DUP2 SLOAD SWAP1 POP PUSH2 0x231E DUP2 PUSH2 0x1FDF JUMP JUMPDEST SWAP1 POP SWAP2 SWAP1 POP JUMP JUMPDEST DUP2 DUP2 SUB PUSH2 0x2333 JUMPI POP POP PUSH2 0x2408 JUMP JUMPDEST PUSH2 0x233C DUP3 PUSH2 0x2310 JUMP JUMPDEST PUSH8 0xFFFFFFFFFFFFFFFF DUP2 GT ISZERO PUSH2 0x2355 JUMPI PUSH2 0x2354 PUSH2 0x19F5 JUMP JUMPDEST JUMPDEST PUSH2 0x235F DUP3 SLOAD PUSH2 0x1FDF JUMP JUMPDEST PUSH2 0x236A DUP3 DUP3 DUP6 PUSH2 0x218B JUMP JUMPDEST PUSH0 PUSH1 0x1F DUP4 GT PUSH1 0x1 DUP2 EQ PUSH2 0x2397 JUMPI PUSH0 DUP5 ISZERO PUSH2 0x2385 JUMPI DUP3 DUP8 ADD SLOAD SWAP1 POP JUMPDEST PUSH2 0x238F DUP6 DUP3 PUSH2 0x21F9 JUMP JUMPDEST DUP7 SSTORE POP PUSH2 0x2401 JUMP JUMPDEST PUSH1 0x1F NOT DUP5 AND PUSH2 0x23A5 DUP8 PUSH2 0x2077 JUMP JUMPDEST SWAP7 POP PUSH2 0x23B0 DUP7 PUSH2 0x2077 JUMP JUMPDEST PUSH0 JUMPDEST DUP3 DUP2 LT ISZERO PUSH2 0x23D7 JUMPI DUP5 DUP10 ADD SLOAD DUP3 SSTORE PUSH1 0x1 DUP3 ADD SWAP2 POP PUSH1 0x1 DUP6 ADD SWAP5 POP PUSH1 0x20 DUP2 ADD SWAP1 POP PUSH2 0x23B2 JUMP JUMPDEST DUP7 DUP4 LT ISZERO PUSH2 0x23F4 JUMPI DUP5 DUP10 ADD SLOAD PUSH2 0x23F0 PUSH1 0x1F DUP10 AND DUP3 PUSH2 0x21DD JUMP JUMPDEST DUP4 SSTORE POP JUMPDEST PUSH1 0x1 PUSH1 0x2 DUP9 MUL ADD DUP9 SSTORE POP POP POP JUMPDEST POP POP POP POP POP POP JUMPDEST JUMP INVALID LOG2 PUSH5 0x6970667358 0x22 SLT KECCAK256 PUSH23 0xA83043A2506C86CC9547EB4D03EAA0DE06BF96149FD816 BASEFEE PUSH16 0x3EBF2F85076364736F6C634300081600 CALLER "
				},
				"gasEstimates": {
					"creation": {
						"codeDepositCost": "1856000",
						"executionCost": "26218",
						"totalCost": "1882218"
					},
					"external": {
						"": "infinite",
						"balance()": "2425",
						"createSmartContract(uint256,address,address,uint256,uint32,uint32,uint32,string,(string,string)[])": "infinite",
						"getAddressContract()": "400",
						"getAllSmartContracts()": "infinite",
						"getContractBalance()": "379",
						"getMe()": "401",
						"getSmartContractById(uint256)": "infinite",
						"transferETH(address,uint256)": "infinite"
					},
					"internal": {
						"updatePerson(address,uint256)": "infinite"
					}
				},
				"methodIdentifiers": {
					"balance()": "b69ef8a8",
					"createSmartContract(uint256,address,address,uint256,uint32,uint32,uint32,string,(string,string)[])": "6da80b7f",
					"getAddressContract()": "f8aff5f4",
					"getAllSmartContracts()": "127ff22e",
					"getContractBalance()": "6f9fb98a",
					"getMe()": "c11e1ff3",
					"getSmartContractById(uint256)": "c85d1487",
					"transferETH(address,uint256)": "7b1a4909"
				}
			},
			"storageLayout": {
				"storage": [
					{
						"astId": 43,
						"contract": "contracts/contractApi.sol:SmartContract",
						"label": "contracts",
						"offset": 0,
						"slot": "0",
						"type": "t_mapping(t_uint256,t_struct(ContractEntity)38_storage)"
					},
					{
						"astId": 47,
						"contract": "contracts/contractApi.sol:SmartContract",
						"label": "contractArray",
						"offset": 0,
						"slot": "1",
						"type": "t_array(t_struct(ContractEntity)38_storage)dyn_storage"
					},
					{
						"astId": 52,
						"contract": "contracts/contractApi.sol:SmartContract",
						"label": "persons",
						"offset": 0,
						"slot": "2",
						"type": "t_mapping(t_address,t_struct(Person)11_storage)"
					},
					{
						"astId": 56,
						"contract": "contracts/contractApi.sol:SmartContract",
						"label": "personArray",
						"offset": 0,
						"slot": "3",
						"type": "t_array(t_struct(Person)11_storage)dyn_storage"
					},
					{
						"astId": 58,
						"contract": "contracts/contractApi.sol:SmartContract",
						"label": "owner",
						"offset": 0,
						"slot": "4",
						"type": "t_address_payable"
					},
					{
						"astId": 60,
						"contract": "contracts/contractApi.sol:SmartContract",
						"label": "balance",
						"offset": 0,
						"slot": "5",
						"type": "t_uint256"
					}
				],
				"types": {
					"t_address": {
						"encoding": "inplace",
						"label": "address",
						"numberOfBytes": "20"
					},
					"t_address_payable": {
						"encoding": "inplace",
						"label": "address payable",
						"numberOfBytes": "20"
					},
					"t_array(t_struct(ContractEntity)38_storage)dyn_storage": {
						"base": "t_struct(ContractEntity)38_storage",
						"encoding": "dynamic_array",
						"label": "struct SmartContract.ContractEntity[]",
						"numberOfBytes": "32"
					},
					"t_array(t_struct(Person)11_storage)dyn_storage": {
						"base": "t_struct(Person)11_storage",
						"encoding": "dynamic_array",
						"label": "struct SmartContract.Person[]",
						"numberOfBytes": "32"
					},
					"t_array(t_struct(Term)6_storage)dyn_storage": {
						"base": "t_struct(Term)6_storage",
						"encoding": "dynamic_array",
						"label": "struct SmartContract.Term[]",
						"numberOfBytes": "32"
					},
					"t_mapping(t_address,t_struct(Person)11_storage)": {
						"encoding": "mapping",
						"key": "t_address",
						"label": "mapping(address => struct SmartContract.Person)",
						"numberOfBytes": "32",
						"value": "t_struct(Person)11_storage"
					},
					"t_mapping(t_uint256,t_struct(ContractEntity)38_storage)": {
						"encoding": "mapping",
						"key": "t_uint256",
						"label": "mapping(uint256 => struct SmartContract.ContractEntity)",
						"numberOfBytes": "32",
						"value": "t_struct(ContractEntity)38_storage"
					},
					"t_string_storage": {
						"encoding": "bytes",
						"label": "string",
						"numberOfBytes": "32"
					},
					"t_struct(ContractEntity)38_storage": {
						"encoding": "inplace",
						"label": "struct SmartContract.ContractEntity",
						"members": [
							{
								"astId": 19,
								"contract": "contracts/contractApi.sol:SmartContract",
								"label": "id",
								"offset": 0,
								"slot": "0",
								"type": "t_uint256"
							},
							{
								"astId": 21,
								"contract": "contracts/contractApi.sol:SmartContract",
								"label": "renter",
								"offset": 0,
								"slot": "1",
								"type": "t_address"
							},
							{
								"astId": 23,
								"contract": "contracts/contractApi.sol:SmartContract",
								"label": "seller",
								"offset": 0,
								"slot": "2",
								"type": "t_address"
							},
							{
								"astId": 25,
								"contract": "contracts/contractApi.sol:SmartContract",
								"label": "rentCost",
								"offset": 0,
								"slot": "3",
								"type": "t_uint256"
							},
							{
								"astId": 27,
								"contract": "contracts/contractApi.sol:SmartContract",
								"label": "duration",
								"offset": 0,
								"slot": "4",
								"type": "t_uint32"
							},
							{
								"astId": 29,
								"contract": "contracts/contractApi.sol:SmartContract",
								"label": "timeStart",
								"offset": 4,
								"slot": "4",
								"type": "t_uint32"
							},
							{
								"astId": 31,
								"contract": "contracts/contractApi.sol:SmartContract",
								"label": "paymentDeadline",
								"offset": 8,
								"slot": "4",
								"type": "t_uint32"
							},
							{
								"astId": 33,
								"contract": "contracts/contractApi.sol:SmartContract",
								"label": "payment_type",
								"offset": 0,
								"slot": "5",
								"type": "t_string_storage"
							},
							{
								"astId": 37,
								"contract": "contracts/contractApi.sol:SmartContract",
								"label": "termArray",
								"offset": 0,
								"slot": "6",
								"type": "t_array(t_struct(Term)6_storage)dyn_storage"
							}
						],
						"numberOfBytes": "224"
					},
					"t_struct(Person)11_storage": {
						"encoding": "inplace",
						"label": "struct SmartContract.Person",
						"members": [
							{
								"astId": 8,
								"contract": "contracts/contractApi.sol:SmartContract",
								"label": "addressWallet",
								"offset": 0,
								"slot": "0",
								"type": "t_address"
							},
							{
								"astId": 10,
								"contract": "contracts/contractApi.sol:SmartContract",
								"label": "balance",
								"offset": 0,
								"slot": "1",
								"type": "t_uint256"
							}
						],
						"numberOfBytes": "64"
					},
					"t_struct(Term)6_storage": {
						"encoding": "inplace",
						"label": "struct SmartContract.Term",
						"members": [
							{
								"astId": 3,
								"contract": "contracts/contractApi.sol:SmartContract",
								"label": "name",
								"offset": 0,
								"slot": "0",
								"type": "t_string_storage"
							},
							{
								"astId": 5,
								"contract": "contracts/contractApi.sol:SmartContract",
								"label": "content",
								"offset": 0,
								"slot": "1",
								"type": "t_string_storage"
							}
						],
						"numberOfBytes": "64"
					},
					"t_uint256": {
						"encoding": "inplace",
						"label": "uint256",
						"numberOfBytes": "32"
					},
					"t_uint32": {
						"encoding": "inplace",
						"label": "uint32",
						"numberOfBytes": "4"
					}
				}
			},
			"userdoc": {
				"kind": "user",
				"methods": {},
				"version": 1
			}
		}
	}
}