{
  "_format": "hh-sol-artifact-1",
  "contractName": "RealEstate",
  "sourceName": "contracts/RealEstate.sol",
  "abi": [
    {
      "inputs": [],
      "stateMutability": "nonpayable",
      "type": "constructor"
    },
    {
      "inputs": [
        {
          "internalType": "address",
          "name": "sender",
          "type": "address"
        },
        {
          "internalType": "uint256",
          "name": "tokenId",
          "type": "uint256"
        },
        {
          "internalType": "address",
          "name": "owner",
          "type": "address"
        }
      ],
      "name": "ERC721IncorrectOwner",
      "type": "error"
    },
    {
      "inputs": [
        {
          "internalType": "address",
          "name": "operator",
          "type": "address"
        },
        {
          "internalType": "uint256",
          "name": "tokenId",
          "type": "uint256"
        }
      ],
      "name": "ERC721InsufficientApproval",
      "type": "error"
    },
    {
      "inputs": [
        {
          "internalType": "address",
          "name": "approver",
          "type": "address"
        }
      ],
      "name": "ERC721InvalidApprover",
      "type": "error"
    },
    {
      "inputs": [
        {
          "internalType": "address",
          "name": "operator",
          "type": "address"
        }
      ],
      "name": "ERC721InvalidOperator",
      "type": "error"
    },
    {
      "inputs": [
        {
          "internalType": "address",
          "name": "owner",
          "type": "address"
        }
      ],
      "name": "ERC721InvalidOwner",
      "type": "error"
    },
    {
      "inputs": [
        {
          "internalType": "address",
          "name": "receiver",
          "type": "address"
        }
      ],
      "name": "ERC721InvalidReceiver",
      "type": "error"
    },
    {
      "inputs": [
        {
          "internalType": "address",
          "name": "sender",
          "type": "address"
        }
      ],
      "name": "ERC721InvalidSender",
      "type": "error"
    },
    {
      "inputs": [
        {
          "internalType": "uint256",
          "name": "tokenId",
          "type": "uint256"
        }
      ],
      "name": "ERC721NonexistentToken",
      "type": "error"
    },
    {
      "anonymous": false,
      "inputs": [
        {
          "indexed": true,
          "internalType": "address",
          "name": "owner",
          "type": "address"
        },
        {
          "indexed": true,
          "internalType": "address",
          "name": "approved",
          "type": "address"
        },
        {
          "indexed": true,
          "internalType": "uint256",
          "name": "tokenId",
          "type": "uint256"
        }
      ],
      "name": "Approval",
      "type": "event"
    },
    {
      "anonymous": false,
      "inputs": [
        {
          "indexed": true,
          "internalType": "address",
          "name": "owner",
          "type": "address"
        },
        {
          "indexed": true,
          "internalType": "address",
          "name": "operator",
          "type": "address"
        },
        {
          "indexed": false,
          "internalType": "bool",
          "name": "approved",
          "type": "bool"
        }
      ],
      "name": "ApprovalForAll",
      "type": "event"
    },
    {
      "anonymous": false,
      "inputs": [
        {
          "indexed": false,
          "internalType": "uint256",
          "name": "_fromTokenId",
          "type": "uint256"
        },
        {
          "indexed": false,
          "internalType": "uint256",
          "name": "_toTokenId",
          "type": "uint256"
        }
      ],
      "name": "BatchMetadataUpdate",
      "type": "event"
    },
    {
      "anonymous": false,
      "inputs": [
        {
          "indexed": false,
          "internalType": "uint256",
          "name": "_tokenId",
          "type": "uint256"
        }
      ],
      "name": "MetadataUpdate",
      "type": "event"
    },
    {
      "anonymous": false,
      "inputs": [
        {
          "indexed": true,
          "internalType": "address",
          "name": "from",
          "type": "address"
        },
        {
          "indexed": true,
          "internalType": "address",
          "name": "to",
          "type": "address"
        },
        {
          "indexed": true,
          "internalType": "uint256",
          "name": "tokenId",
          "type": "uint256"
        }
      ],
      "name": "Transfer",
      "type": "event"
    },
    {
      "inputs": [
        {
          "internalType": "address",
          "name": "to",
          "type": "address"
        },
        {
          "internalType": "uint256",
          "name": "tokenId",
          "type": "uint256"
        }
      ],
      "name": "approve",
      "outputs": [],
      "stateMutability": "nonpayable",
      "type": "function"
    },
    {
      "inputs": [
        {
          "internalType": "address",
          "name": "owner",
          "type": "address"
        }
      ],
      "name": "balanceOf",
      "outputs": [
        {
          "internalType": "uint256",
          "name": "",
          "type": "uint256"
        }
      ],
      "stateMutability": "view",
      "type": "function"
    },
    {
      "inputs": [
        {
          "internalType": "uint256",
          "name": "tokenId",
          "type": "uint256"
        }
      ],
      "name": "getApproved",
      "outputs": [
        {
          "internalType": "address",
          "name": "",
          "type": "address"
        }
      ],
      "stateMutability": "view",
      "type": "function"
    },
    {
      "inputs": [
        {
          "internalType": "address",
          "name": "owner",
          "type": "address"
        },
        {
          "internalType": "address",
          "name": "operator",
          "type": "address"
        }
      ],
      "name": "isApprovedForAll",
      "outputs": [
        {
          "internalType": "bool",
          "name": "",
          "type": "bool"
        }
      ],
      "stateMutability": "view",
      "type": "function"
    },
    {
      "inputs": [
        {
          "internalType": "uint256",
          "name": "_newItemId",
          "type": "uint256"
        },
        {
          "internalType": "string",
          "name": "tokenURI",
          "type": "string"
        }
      ],
      "name": "mint",
      "outputs": [],
      "stateMutability": "nonpayable",
      "type": "function"
    },
    {
      "inputs": [],
      "name": "name",
      "outputs": [
        {
          "internalType": "string",
          "name": "",
          "type": "string"
        }
      ],
      "stateMutability": "view",
      "type": "function"
    },
    {
      "inputs": [
        {
          "internalType": "uint256",
          "name": "tokenId",
          "type": "uint256"
        }
      ],
      "name": "ownerOf",
      "outputs": [
        {
          "internalType": "address",
          "name": "",
          "type": "address"
        }
      ],
      "stateMutability": "view",
      "type": "function"
    },
    {
      "inputs": [
        {
          "internalType": "address",
          "name": "from",
          "type": "address"
        },
        {
          "internalType": "address",
          "name": "to",
          "type": "address"
        },
        {
          "internalType": "uint256",
          "name": "tokenId",
          "type": "uint256"
        }
      ],
      "name": "safeTransferFrom",
      "outputs": [],
      "stateMutability": "nonpayable",
      "type": "function"
    },
    {
      "inputs": [
        {
          "internalType": "address",
          "name": "from",
          "type": "address"
        },
        {
          "internalType": "address",
          "name": "to",
          "type": "address"
        },
        {
          "internalType": "uint256",
          "name": "tokenId",
          "type": "uint256"
        },
        {
          "internalType": "bytes",
          "name": "data",
          "type": "bytes"
        }
      ],
      "name": "safeTransferFrom",
      "outputs": [],
      "stateMutability": "nonpayable",
      "type": "function"
    },
    {
      "inputs": [
        {
          "internalType": "address",
          "name": "operator",
          "type": "address"
        },
        {
          "internalType": "bool",
          "name": "approved",
          "type": "bool"
        }
      ],
      "name": "setApprovalForAll",
      "outputs": [],
      "stateMutability": "nonpayable",
      "type": "function"
    },
    {
      "inputs": [
        {
          "internalType": "bytes4",
          "name": "interfaceId",
          "type": "bytes4"
        }
      ],
      "name": "supportsInterface",
      "outputs": [
        {
          "internalType": "bool",
          "name": "",
          "type": "bool"
        }
      ],
      "stateMutability": "view",
      "type": "function"
    },
    {
      "inputs": [],
      "name": "symbol",
      "outputs": [
        {
          "internalType": "string",
          "name": "",
          "type": "string"
        }
      ],
      "stateMutability": "view",
      "type": "function"
    },
    {
      "inputs": [
        {
          "internalType": "uint256",
          "name": "tokenId",
          "type": "uint256"
        }
      ],
      "name": "tokenURI",
      "outputs": [
        {
          "internalType": "string",
          "name": "",
          "type": "string"
        }
      ],
      "stateMutability": "view",
      "type": "function"
    },
    {
      "inputs": [
        {
          "internalType": "address",
          "name": "from",
          "type": "address"
        },
        {
          "internalType": "address",
          "name": "to",
          "type": "address"
        },
        {
          "internalType": "uint256",
          "name": "tokenId",
          "type": "uint256"
        }
      ],
      "name": "transferFrom",
      "outputs": [],
      "stateMutability": "nonpayable",
      "type": "function"
    }
  ],
  "bytecode": "0x60806040523480156200001157600080fd5b506040518060400160405280600b81526020017f5265616c204573746174650000000000000000000000000000000000000000008152506040518060400160405280600281526020017f524500000000000000000000000000000000000000000000000000000000000081525081600090816200008f919062000343565b508060019081620000a1919062000343565b505050620000c0676ebacb7530b553fb60c01b620000c660201b60201c565b6200042a565b50565b600081519050919050565b7f4e487b7100000000000000000000000000000000000000000000000000000000600052604160045260246000fd5b7f4e487b7100000000000000000000000000000000000000000000000000000000600052602260045260246000fd5b600060028204905060018216806200014b57607f821691505b60208210810362000161576200016062000103565b5b50919050565b60008190508160005260206000209050919050565b60006020601f8301049050919050565b600082821b905092915050565b600060088302620001cb7fffffffffffffffffffffffffffffffffffffffffffffffffffffffffffffffff826200018c565b620001d786836200018c565b95508019841693508086168417925050509392505050565b6000819050919050565b6000819050919050565b6000620002246200021e6200021884620001ef565b620001f9565b620001ef565b9050919050565b6000819050919050565b620002408362000203565b620002586200024f826200022b565b84845462000199565b825550505050565b600090565b6200026f62000260565b6200027c81848462000235565b505050565b5b81811015620002a4576200029860008262000265565b60018101905062000282565b5050565b601f821115620002f357620002bd8162000167565b620002c8846200017c565b81016020851015620002d8578190505b620002f0620002e7856200017c565b83018262000281565b50505b505050565b600082821c905092915050565b60006200031860001984600802620002f8565b1980831691505092915050565b600062000333838362000305565b9150826002028217905092915050565b6200034e82620000c9565b67ffffffffffffffff8111156200036a5762000369620000d4565b5b62000376825462000132565b62000383828285620002a8565b600060209050601f831160018114620003bb5760008415620003a6578287015190505b620003b2858262000325565b86555062000422565b601f198416620003cb8662000167565b60005b82811015620003f557848901518255600182019150602085019450602081019050620003ce565b8683101562000415578489015162000411601f89168262000305565b8355505b6001600288020188555050505b505050505050565b6123a4806200043a6000396000f3fe608060405234801561001057600080fd5b50600436106100ea5760003560e01c806370a082311161008c578063a22cb46511610066578063a22cb4651461025b578063b88d4fde14610277578063c87b56dd14610293578063e985e9c5146102c3576100ea565b806370a08231146101f157806377097fc81461022157806395d89b411461023d576100ea565b8063095ea7b3116100c8578063095ea7b31461016d57806323b872dd1461018957806342842e0e146101a55780636352211e146101c1576100ea565b806301ffc9a7146100ef57806306fdde031461011f578063081812fc1461013d575b600080fd5b61010960048036038101906101049190611873565b6102f3565b60405161011691906118bb565b60405180910390f35b610127610354565b6040516101349190611966565b60405180910390f35b610157600480360381019061015291906119be565b6103e6565b6040516101649190611a2c565b60405180910390f35b61018760048036038101906101829190611a73565b610402565b005b6101a3600480360381019061019e9190611ab3565b610418565b005b6101bf60048036038101906101ba9190611ab3565b61051a565b005b6101db60048036038101906101d691906119be565b61053a565b6040516101e89190611a2c565b60405180910390f35b61020b60048036038101906102069190611b06565b61054c565b6040516102189190611b42565b60405180910390f35b61023b60048036038101906102369190611c92565b610606565b005b6102456106b0565b6040516102529190611966565b60405180910390f35b61027560048036038101906102709190611d1a565b610742565b005b610291600480360381019061028c9190611dfb565b610758565b005b6102ad60048036038101906102a891906119be565b610775565b6040516102ba9190611966565b60405180910390f35b6102dd60048036038101906102d89190611e7e565b610888565b6040516102ea91906118bb565b60405180910390f35b6000634906490660e01b7bffffffffffffffffffffffffffffffffffffffffffffffffffffffff1916827bffffffffffffffffffffffffffffffffffffffffffffffffffffffff1916148061034d575061034c8261091c565b5b9050919050565b60606000805461036390611eed565b80601f016020809104026020016040519081016040528092919081815260200182805461038f90611eed565b80156103dc5780601f106103b1576101008083540402835291602001916103dc565b820191906000526020600020905b8154815290600101906020018083116103bf57829003601f168201915b5050505050905090565b60006103f1826109fe565b506103fb82610a86565b9050919050565b610414828261040f610ac3565b610acb565b5050565b600073ffffffffffffffffffffffffffffffffffffffff168273ffffffffffffffffffffffffffffffffffffffff160361048a5760006040517f64a0ae920000000000000000000000000000000000000000000000000000000081526004016104819190611a2c565b60405180910390fd5b600061049e8383610499610ac3565b610add565b90508373ffffffffffffffffffffffffffffffffffffffff168173ffffffffffffffffffffffffffffffffffffffff1614610514578382826040517f64283d7b00000000000000000000000000000000000000000000000000000000815260040161050b93929190611f1e565b60405180910390fd5b50505050565b61053583838360405180602001604052806000815250610758565b505050565b6000610545826109fe565b9050919050565b60008073ffffffffffffffffffffffffffffffffffffffff168273ffffffffffffffffffffffffffffffffffffffff16036105bf5760006040517f89c62b640000000000000000000000000000000000000000000000000000000081526004016105b69190611a2c565b60405180910390fd5b600360008373ffffffffffffffffffffffffffffffffffffffff1673ffffffffffffffffffffffffffffffffffffffff168152602001908152602001600020549050919050565b61061a67dda8d87621f1b63860c01b610cf7565b61062e671e0f074e1f57822260c01b610cf7565b61064267ba207ae39e01150c60c01b610cf7565b600082905061065b67b115a1caef880ed960c01b610cf7565b61066f67205564c9ebf62a2460c01b610cf7565b6106793382610cfa565b61068d6797c0381dcb7da43560c01b610cf7565b6106a16775c79f9173e55c2860c01b610cf7565b6106ab8183610df3565b505050565b6060600180546106bf90611eed565b80601f01602080910402602001604051908101604052809291908181526020018280546106eb90611eed565b80156107385780601f1061070d57610100808354040283529160200191610738565b820191906000526020600020905b81548152906001019060200180831161071b57829003601f168201915b5050505050905090565b61075461074d610ac3565b8383610e4f565b5050565b610763848484610418565b61076f84848484610fbe565b50505050565b6060610780826109fe565b5060006006600084815260200190815260200160002080546107a190611eed565b80601f01602080910402602001604051908101604052809291908181526020018280546107cd90611eed565b801561081a5780601f106107ef5761010080835404028352916020019161081a565b820191906000526020600020905b8154815290600101906020018083116107fd57829003601f168201915b50505050509050600061082b611175565b90506000815103610840578192505050610883565b60008251111561087557808260405160200161085d929190611f91565b60405160208183030381529060405292505050610883565b61087e8461118c565b925050505b919050565b6000600560008473ffffffffffffffffffffffffffffffffffffffff1673ffffffffffffffffffffffffffffffffffffffff16815260200190815260200160002060008373ffffffffffffffffffffffffffffffffffffffff1673ffffffffffffffffffffffffffffffffffffffff16815260200190815260200160002060009054906101000a900460ff16905092915050565b60007f80ac58cd000000000000000000000000000000000000000000000000000000007bffffffffffffffffffffffffffffffffffffffffffffffffffffffff1916827bffffffffffffffffffffffffffffffffffffffffffffffffffffffff191614806109e757507f5b5e139f000000000000000000000000000000000000000000000000000000007bffffffffffffffffffffffffffffffffffffffffffffffffffffffff1916827bffffffffffffffffffffffffffffffffffffffffffffffffffffffff1916145b806109f757506109f6826111f5565b5b9050919050565b600080610a0a8361125f565b9050600073ffffffffffffffffffffffffffffffffffffffff168173ffffffffffffffffffffffffffffffffffffffff1603610a7d57826040517f7e273289000000000000000000000000000000000000000000000000000000008152600401610a749190611b42565b60405180910390fd5b80915050919050565b60006004600083815260200190815260200160002060009054906101000a900473ffffffffffffffffffffffffffffffffffffffff169050919050565b600033905090565b610ad8838383600161129c565b505050565b600080610ae98461125f565b9050600073ffffffffffffffffffffffffffffffffffffffff168373ffffffffffffffffffffffffffffffffffffffff1614610b2b57610b2a818486611461565b5b600073ffffffffffffffffffffffffffffffffffffffff168173ffffffffffffffffffffffffffffffffffffffff1614610bbc57610b6d60008560008061129c565b6001600360008373ffffffffffffffffffffffffffffffffffffffff1673ffffffffffffffffffffffffffffffffffffffff168152602001908152602001600020600082825403925050819055505b600073ffffffffffffffffffffffffffffffffffffffff168573ffffffffffffffffffffffffffffffffffffffff1614610c3f576001600360008773ffffffffffffffffffffffffffffffffffffffff1673ffffffffffffffffffffffffffffffffffffffff168152602001908152602001600020600082825401925050819055505b846002600086815260200190815260200160002060006101000a81548173ffffffffffffffffffffffffffffffffffffffff021916908373ffffffffffffffffffffffffffffffffffffffff160217905550838573ffffffffffffffffffffffffffffffffffffffff168273ffffffffffffffffffffffffffffffffffffffff167fddf252ad1be2c89b69c2b068fc378daa952ba7f163c4a11628f55a4df523b3ef60405160405180910390a4809150509392505050565b50565b600073ffffffffffffffffffffffffffffffffffffffff168273ffffffffffffffffffffffffffffffffffffffff1603610d6c5760006040517f64a0ae92000000000000000000000000000000000000000000000000000000008152600401610d639190611a2c565b60405180910390fd5b6000610d7a83836000610add565b9050600073ffffffffffffffffffffffffffffffffffffffff168173ffffffffffffffffffffffffffffffffffffffff1614610dee5760006040517f73c6ac6e000000000000000000000000000000000000000000000000000000008152600401610de59190611a2c565b60405180910390fd5b505050565b80600660008481526020019081526020016000209081610e139190612161565b507ff8e1a15aba9398e019f0b49df1a4fde98ee17ae345cb5f6b5e2c27f5033e8ce782604051610e439190611b42565b60405180910390a15050565b600073ffffffffffffffffffffffffffffffffffffffff168273ffffffffffffffffffffffffffffffffffffffff1603610ec057816040517f5b08ba18000000000000000000000000000000000000000000000000000000008152600401610eb79190611a2c565b60405180910390fd5b80600560008573ffffffffffffffffffffffffffffffffffffffff1673ffffffffffffffffffffffffffffffffffffffff16815260200190815260200160002060008473ffffffffffffffffffffffffffffffffffffffff1673ffffffffffffffffffffffffffffffffffffffff16815260200190815260200160002060006101000a81548160ff0219169083151502179055508173ffffffffffffffffffffffffffffffffffffffff168373ffffffffffffffffffffffffffffffffffffffff167f17307eab39ab6107e8899845ad3d59bd9653f200f220920489ca2b5937696c3183604051610fb191906118bb565b60405180910390a3505050565b60008373ffffffffffffffffffffffffffffffffffffffff163b111561116f578273ffffffffffffffffffffffffffffffffffffffff1663150b7a02611002610ac3565b8685856040518563ffffffff1660e01b81526004016110249493929190612288565b6020604051808303816000875af192505050801561106057506040513d601f19601f8201168201806040525081019061105d91906122e9565b60015b6110e4573d8060008114611090576040519150601f19603f3d011682016040523d82523d6000602084013e611095565b606091505b5060008151036110dc57836040517f64a0ae920000000000000000000000000000000000000000000000000000000081526004016110d39190611a2c565b60405180910390fd5b805181602001fd5b63150b7a0260e01b7bffffffffffffffffffffffffffffffffffffffffffffffffffffffff1916817bffffffffffffffffffffffffffffffffffffffffffffffffffffffff19161461116d57836040517f64a0ae920000000000000000000000000000000000000000000000000000000081526004016111649190611a2c565b60405180910390fd5b505b50505050565b606060405180602001604052806000815250905090565b6060611197826109fe565b5060006111a2611175565b905060008151116111c257604051806020016040528060008152506111ed565b806111cc84611525565b6040516020016111dd929190611f91565b6040516020818303038152906040525b915050919050565b60007f01ffc9a7000000000000000000000000000000000000000000000000000000007bffffffffffffffffffffffffffffffffffffffffffffffffffffffff1916827bffffffffffffffffffffffffffffffffffffffffffffffffffffffff1916149050919050565b60006002600083815260200190815260200160002060009054906101000a900473ffffffffffffffffffffffffffffffffffffffff169050919050565b80806112d55750600073ffffffffffffffffffffffffffffffffffffffff168273ffffffffffffffffffffffffffffffffffffffff1614155b156114095760006112e5846109fe565b9050600073ffffffffffffffffffffffffffffffffffffffff168373ffffffffffffffffffffffffffffffffffffffff161415801561135057508273ffffffffffffffffffffffffffffffffffffffff168173ffffffffffffffffffffffffffffffffffffffff1614155b801561136357506113618184610888565b155b156113a557826040517fa9fbf51f00000000000000000000000000000000000000000000000000000000815260040161139c9190611a2c565b60405180910390fd5b811561140757838573ffffffffffffffffffffffffffffffffffffffff168273ffffffffffffffffffffffffffffffffffffffff167f8c5be1e5ebec7d5bd14f71427d1e84f3dd0314c0f7b2291e5b200ac8c7c3b92560405160405180910390a45b505b836004600085815260200190815260200160002060006101000a81548173ffffffffffffffffffffffffffffffffffffffff021916908373ffffffffffffffffffffffffffffffffffffffff16021790555050505050565b61146c8383836115f3565b61152057600073ffffffffffffffffffffffffffffffffffffffff168373ffffffffffffffffffffffffffffffffffffffff16036114e157806040517f7e2732890000000000000000000000000000000000000000000000000000000081526004016114d89190611b42565b60405180910390fd5b81816040517f177e802f000000000000000000000000000000000000000000000000000000008152600401611517929190612316565b60405180910390fd5b505050565b606060006001611534846116b4565b01905060008167ffffffffffffffff81111561155357611552611b67565b5b6040519080825280601f01601f1916602001820160405280156115855781602001600182028036833780820191505090505b509050600082602001820190505b6001156115e8578080600190039150507f3031323334353637383961626364656600000000000000000000000000000000600a86061a8153600a85816115dc576115db61233f565b5b04945060008503611593575b819350505050919050565b60008073ffffffffffffffffffffffffffffffffffffffff168373ffffffffffffffffffffffffffffffffffffffff16141580156116ab57508273ffffffffffffffffffffffffffffffffffffffff168473ffffffffffffffffffffffffffffffffffffffff16148061166c575061166b8484610888565b5b806116aa57508273ffffffffffffffffffffffffffffffffffffffff1661169283610a86565b73ffffffffffffffffffffffffffffffffffffffff16145b5b90509392505050565b600080600090507a184f03e93ff9f4daa797ed6e38ed64bf6a1f0100000000000000008310611712577a184f03e93ff9f4daa797ed6e38ed64bf6a1f01000000000000000083816117085761170761233f565b5b0492506040810190505b6d04ee2d6d415b85acef8100000000831061174f576d04ee2d6d415b85acef810000000083816117455761174461233f565b5b0492506020810190505b662386f26fc10000831061177e57662386f26fc1000083816117745761177361233f565b5b0492506010810190505b6305f5e10083106117a7576305f5e100838161179d5761179c61233f565b5b0492506008810190505b61271083106117cc5761271083816117c2576117c161233f565b5b0492506004810190505b606483106117ef57606483816117e5576117e461233f565b5b0492506002810190505b600a83106117fe576001810190505b80915050919050565b6000604051905090565b600080fd5b600080fd5b60007fffffffff0000000000000000000000000000000000000000000000000000000082169050919050565b6118508161181b565b811461185b57600080fd5b50565b60008135905061186d81611847565b92915050565b60006020828403121561188957611888611811565b5b60006118978482850161185e565b91505092915050565b60008115159050919050565b6118b5816118a0565b82525050565b60006020820190506118d060008301846118ac565b92915050565b600081519050919050565b600082825260208201905092915050565b60005b838110156119105780820151818401526020810190506118f5565b60008484015250505050565b6000601f19601f8301169050919050565b6000611938826118d6565b61194281856118e1565b93506119528185602086016118f2565b61195b8161191c565b840191505092915050565b60006020820190508181036000830152611980818461192d565b905092915050565b6000819050919050565b61199b81611988565b81146119a657600080fd5b50565b6000813590506119b881611992565b92915050565b6000602082840312156119d4576119d3611811565b5b60006119e2848285016119a9565b91505092915050565b600073ffffffffffffffffffffffffffffffffffffffff82169050919050565b6000611a16826119eb565b9050919050565b611a2681611a0b565b82525050565b6000602082019050611a416000830184611a1d565b92915050565b611a5081611a0b565b8114611a5b57600080fd5b50565b600081359050611a6d81611a47565b92915050565b60008060408385031215611a8a57611a89611811565b5b6000611a9885828601611a5e565b9250506020611aa9858286016119a9565b9150509250929050565b600080600060608486031215611acc57611acb611811565b5b6000611ada86828701611a5e565b9350506020611aeb86828701611a5e565b9250506040611afc868287016119a9565b9150509250925092565b600060208284031215611b1c57611b1b611811565b5b6000611b2a84828501611a5e565b91505092915050565b611b3c81611988565b82525050565b6000602082019050611b576000830184611b33565b92915050565b600080fd5b600080fd5b7f4e487b7100000000000000000000000000000000000000000000000000000000600052604160045260246000fd5b611b9f8261191c565b810181811067ffffffffffffffff82111715611bbe57611bbd611b67565b5b80604052505050565b6000611bd1611807565b9050611bdd8282611b96565b919050565b600067ffffffffffffffff821115611bfd57611bfc611b67565b5b611c068261191c565b9050602081019050919050565b82818337600083830152505050565b6000611c35611c3084611be2565b611bc7565b905082815260208101848484011115611c5157611c50611b62565b5b611c5c848285611c13565b509392505050565b600082601f830112611c7957611c78611b5d565b5b8135611c89848260208601611c22565b91505092915050565b60008060408385031215611ca957611ca8611811565b5b6000611cb7858286016119a9565b925050602083013567ffffffffffffffff811115611cd857611cd7611816565b5b611ce485828601611c64565b9150509250929050565b611cf7816118a0565b8114611d0257600080fd5b50565b600081359050611d1481611cee565b92915050565b60008060408385031215611d3157611d30611811565b5b6000611d3f85828601611a5e565b9250506020611d5085828601611d05565b9150509250929050565b600067ffffffffffffffff821115611d7557611d74611b67565b5b611d7e8261191c565b9050602081019050919050565b6000611d9e611d9984611d5a565b611bc7565b905082815260208101848484011115611dba57611db9611b62565b5b611dc5848285611c13565b509392505050565b600082601f830112611de257611de1611b5d565b5b8135611df2848260208601611d8b565b91505092915050565b60008060008060808587031215611e1557611e14611811565b5b6000611e2387828801611a5e565b9450506020611e3487828801611a5e565b9350506040611e45878288016119a9565b925050606085013567ffffffffffffffff811115611e6657611e65611816565b5b611e7287828801611dcd565b91505092959194509250565b60008060408385031215611e9557611e94611811565b5b6000611ea385828601611a5e565b9250506020611eb485828601611a5e565b9150509250929050565b7f4e487b7100000000000000000000000000000000000000000000000000000000600052602260045260246000fd5b60006002820490506001821680611f0557607f821691505b602082108103611f1857611f17611ebe565b5b50919050565b6000606082019050611f336000830186611a1d565b611f406020830185611b33565b611f4d6040830184611a1d565b949350505050565b600081905092915050565b6000611f6b826118d6565b611f758185611f55565b9350611f858185602086016118f2565b80840191505092915050565b6000611f9d8285611f60565b9150611fa98284611f60565b91508190509392505050565b60008190508160005260206000209050919050565b60006020601f8301049050919050565b600082821b905092915050565b6000600883026120177fffffffffffffffffffffffffffffffffffffffffffffffffffffffffffffffff82611fda565b6120218683611fda565b95508019841693508086168417925050509392505050565b6000819050919050565b600061205e61205961205484611988565b612039565b611988565b9050919050565b6000819050919050565b61207883612043565b61208c61208482612065565b848454611fe7565b825550505050565b600090565b6120a1612094565b6120ac81848461206f565b505050565b5b818110156120d0576120c5600082612099565b6001810190506120b2565b5050565b601f821115612115576120e681611fb5565b6120ef84611fca565b810160208510156120fe578190505b61211261210a85611fca565b8301826120b1565b50505b505050565b600082821c905092915050565b60006121386000198460080261211a565b1980831691505092915050565b60006121518383612127565b9150826002028217905092915050565b61216a826118d6565b67ffffffffffffffff81111561218357612182611b67565b5b61218d8254611eed565b6121988282856120d4565b600060209050601f8311600181146121cb57600084156121b9578287015190505b6121c38582612145565b86555061222b565b601f1984166121d986611fb5565b60005b82811015612201578489015182556001820191506020850194506020810190506121dc565b8683101561221e578489015161221a601f891682612127565b8355505b6001600288020188555050505b505050505050565b600081519050919050565b600082825260208201905092915050565b600061225a82612233565b612264818561223e565b93506122748185602086016118f2565b61227d8161191c565b840191505092915050565b600060808201905061229d6000830187611a1d565b6122aa6020830186611a1d565b6122b76040830185611b33565b81810360608301526122c9818461224f565b905095945050505050565b6000815190506122e381611847565b92915050565b6000602082840312156122ff576122fe611811565b5b600061230d848285016122d4565b91505092915050565b600060408201905061232b6000830185611a1d565b6123386020830184611b33565b9392505050565b7f4e487b7100000000000000000000000000000000000000000000000000000000600052601260045260246000fdfea26469706673582212200c0fdb5aabfa5ae154e38382e606893c12724061e0fa13863d35e710a89bd30664736f6c63430008140033",
  "linkReferences": {},
  "deployedLinkReferences": {}
}