{"contracts/SmartContract.sol":{"SmartContract":{"abi":[{"inputs":[],"stateMutability":"nonpayable","type":"constructor"},{"inputs":[{"internalType":"address","name":"sender","type":"address"},{"internalType":"uint256","name":"tokenId","type":"uint256"},{"internalType":"address","name":"owner","type":"address"}],"name":"ERC721IncorrectOwner","type":"error"},{"inputs":[{"internalType":"address","name":"operator","type":"address"},{"internalType":"uint256","name":"tokenId","type":"uint256"}],"name":"ERC721InsufficientApproval","type":"error"},{"inputs":[{"internalType":"address","name":"approver","type":"address"}],"name":"ERC721InvalidApprover","type":"error"},{"inputs":[{"internalType":"address","name":"operator","type":"address"}],"name":"ERC721InvalidOperator","type":"error"},{"inputs":[{"internalType":"address","name":"owner","type":"address"}],"name":"ERC721InvalidOwner","type":"error"},{"inputs":[{"internalType":"address","name":"receiver","type":"address"}],"name":"ERC721InvalidReceiver","type":"error"},{"inputs":[{"internalType":"address","name":"sender","type":"address"}],"name":"ERC721InvalidSender","type":"error"},{"inputs":[{"internalType":"uint256","name":"tokenId","type":"uint256"}],"name":"ERC721NonexistentToken","type":"error"},{"anonymous":false,"inputs":[{"indexed":true,"internalType":"address","name":"owner","type":"address"},{"indexed":true,"internalType":"address","name":"approved","type":"address"},{"indexed":true,"internalType":"uint256","name":"tokenId","type":"uint256"}],"name":"Approval","type":"event"},{"anonymous":false,"inputs":[{"indexed":true,"internalType":"address","name":"owner","type":"address"},{"indexed":true,"internalType":"address","name":"operator","type":"address"},{"indexed":false,"internalType":"bool","name":"approved","type":"bool"}],"name":"ApprovalForAll","type":"event"},{"anonymous":false,"inputs":[{"indexed":false,"internalType":"uint256","name":"_fromTokenId","type":"uint256"},{"indexed":false,"internalType":"uint256","name":"_toTokenId","type":"uint256"}],"name":"BatchMetadataUpdate","type":"event"},{"anonymous":false,"inputs":[{"indexed":false,"internalType":"uint256","name":"_tokenId","type":"uint256"}],"name":"MetadataUpdate","type":"event"},{"anonymous":false,"inputs":[{"indexed":true,"internalType":"address","name":"from","type":"address"},{"indexed":true,"internalType":"address","name":"to","type":"address"},{"indexed":true,"internalType":"uint256","name":"tokenId","type":"uint256"}],"name":"Transfer","type":"event"},{"stateMutability":"payable","type":"fallback"},{"inputs":[{"internalType":"address","name":"to","type":"address"},{"internalType":"uint256","name":"tokenId","type":"uint256"}],"name":"approve","outputs":[],"stateMutability":"nonpayable","type":"function"},{"inputs":[{"internalType":"address","name":"owner","type":"address"}],"name":"balanceOf","outputs":[{"internalType":"uint256","name":"","type":"uint256"}],"stateMutability":"view","type":"function"},{"inputs":[{"internalType":"address","name":"_to","type":"address"}],"name":"close","outputs":[],"stateMutability":"nonpayable","type":"function"},{"inputs":[{"internalType":"uint256","name":"id","type":"uint256"}],"name":"depositContract","outputs":[],"stateMutability":"payable","type":"function"},{"inputs":[{"internalType":"uint256","name":"tokenId","type":"uint256"}],"name":"getApproved","outputs":[{"internalType":"address","name":"","type":"address"}],"stateMutability":"view","type":"function"},{"inputs":[{"internalType":"uint256","name":"id","type":"uint256"}],"name":"getContract","outputs":[{"components":[{"internalType":"address payable","name":"renter","type":"address"},{"internalType":"address payable","name":"seller","type":"address"},{"internalType":"uint256","name":"reId","type":"uint256"},{"internalType":"uint256","name":"rentCost","type":"uint256"},{"internalType":"uint256","name":"duration","type":"uint256"},{"internalType":"string","name":"urlContract","type":"string"}],"internalType":"struct SmartContract.ContractEntity","name":"","type":"tuple"}],"stateMutability":"view","type":"function"},{"inputs":[{"internalType":"uint256","name":"scId","type":"uint256"},{"internalType":"address","name":"renterAddress","type":"address"}],"name":"getDepositContractByRenter","outputs":[{"internalType":"uint256","name":"","type":"uint256"}],"stateMutability":"view","type":"function"},{"inputs":[],"name":"getbalanceOf","outputs":[{"internalType":"uint256","name":"","type":"uint256"}],"stateMutability":"view","type":"function"},{"inputs":[{"internalType":"address","name":"owner","type":"address"},{"internalType":"address","name":"operator","type":"address"}],"name":"isApprovedForAll","outputs":[{"internalType":"bool","name":"","type":"bool"}],"stateMutability":"view","type":"function"},{"inputs":[{"internalType":"uint256","name":"_newItemId","type":"uint256"},{"internalType":"address","name":"_renterAddress","type":"address"},{"internalType":"address","name":"_sellerAdsress","type":"address"},{"internalType":"uint256","name":"_reId","type":"uint256"},{"internalType":"uint256","name":"_rentCost","type":"uint256"},{"internalType":"uint256","name":"_duration","type":"uint256"},{"internalType":"string","name":"uri","type":"string"}],"name":"mint","outputs":[],"stateMutability":"nonpayable","type":"function"},{"inputs":[],"name":"name","outputs":[{"internalType":"string","name":"","type":"string"}],"stateMutability":"view","type":"function"},{"inputs":[{"internalType":"uint256","name":"tokenId","type":"uint256"}],"name":"ownerOf","outputs":[{"internalType":"address","name":"","type":"address"}],"stateMutability":"view","type":"function"},{"inputs":[{"internalType":"uint256","name":"scId","type":"uint256"}],"name":"payDepositToRenter","outputs":[],"stateMutability":"nonpayable","type":"function"},{"inputs":[{"internalType":"uint256","name":"id","type":"uint256"}],"name":"payRentCost","outputs":[],"stateMutability":"nonpayable","type":"function"},{"inputs":[{"internalType":"uint256","name":"_time","type":"uint256"},{"internalType":"uint256","name":"id","type":"uint256"}],"name":"renewal","outputs":[],"stateMutability":"payable","type":"function"},{"inputs":[{"internalType":"address","name":"from","type":"address"},{"internalType":"address","name":"to","type":"address"},{"internalType":"uint256","name":"tokenId","type":"uint256"}],"name":"safeTransferFrom","outputs":[],"stateMutability":"nonpayable","type":"function"},{"inputs":[{"internalType":"address","name":"from","type":"address"},{"internalType":"address","name":"to","type":"address"},{"internalType":"uint256","name":"tokenId","type":"uint256"},{"internalType":"bytes","name":"data","type":"bytes"}],"name":"safeTransferFrom","outputs":[],"stateMutability":"nonpayable","type":"function"},{"inputs":[{"internalType":"address","name":"operator","type":"address"},{"internalType":"bool","name":"approved","type":"bool"}],"name":"setApprovalForAll","outputs":[],"stateMutability":"nonpayable","type":"function"},{"inputs":[{"internalType":"bytes4","name":"interfaceId","type":"bytes4"}],"name":"supportsInterface","outputs":[{"internalType":"bool","name":"","type":"bool"}],"stateMutability":"view","type":"function"},{"inputs":[],"name":"symbol","outputs":[{"internalType":"string","name":"","type":"string"}],"stateMutability":"view","type":"function"},{"inputs":[{"internalType":"uint256","name":"tokenId","type":"uint256"}],"name":"tokenURI","outputs":[{"internalType":"string","name":"","type":"string"}],"stateMutability":"view","type":"function"},{"inputs":[{"internalType":"address","name":"from","type":"address"},{"internalType":"address","name":"to","type":"address"},{"internalType":"uint256","name":"tokenId","type":"uint256"}],"name":"transferFrom","outputs":[],"stateMutability":"nonpayable","type":"function"},{"inputs":[{"internalType":"uint256","name":"value","type":"uint256"}],"name":"withdrawPositRenter","outputs":[],"stateMutability":"nonpayable","type":"function"},{"stateMutability":"payable","type":"receive"}],"evm":{"bytecode":{"linkReferences":{},"object":"60806040523480156200001157600080fd5b506040518060400160405280600e81526020017f536d61727420436f6e74726163740000000000000000000000000000000000008152506040518060400160405280600281526020017f534300000000000000000000000000000000000000000000000000000000000081525081600090816200008f919062000343565b508060019081620000a1919062000343565b505050620000c0677ad28756322c5fe160c01b620000c660201b60201c565b6200042a565b50565b600081519050919050565b7f4e487b7100000000000000000000000000000000000000000000000000000000600052604160045260246000fd5b7f4e487b7100000000000000000000000000000000000000000000000000000000600052602260045260246000fd5b600060028204905060018216806200014b57607f821691505b60208210810362000161576200016062000103565b5b50919050565b60008190508160005260206000209050919050565b60006020601f8301049050919050565b600082821b905092915050565b600060088302620001cb7fffffffffffffffffffffffffffffffffffffffffffffffffffffffffffffffff826200018c565b620001d786836200018c565b95508019841693508086168417925050509392505050565b6000819050919050565b6000819050919050565b6000620002246200021e6200021884620001ef565b620001f9565b620001ef565b9050919050565b6000819050919050565b620002408362000203565b620002586200024f826200022b565b84845462000199565b825550505050565b600090565b6200026f62000260565b6200027c81848462000235565b505050565b5b81811015620002a4576200029860008262000265565b60018101905062000282565b5050565b601f821115620002f357620002bd8162000167565b620002c8846200017c565b81016020851015620002d8578190505b620002f0620002e7856200017c565b83018262000281565b50505b505050565b600082821c905092915050565b60006200031860001984600802620002f8565b1980831691505092915050565b600062000333838362000305565b9150826002028217905092915050565b6200034e82620000c9565b67ffffffffffffffff8111156200036a5762000369620000d4565b5b62000376825462000132565b62000383828285620002a8565b600060209050601f831160018114620003bb5760008415620003a6578287015190505b620003b2858262000325565b86555062000422565b601f198416620003cb8662000167565b60005b82811015620003f557848901518255600182019150602085019450602081019050620003ce565b8683101562000415578489015162000411601f89168262000305565b8355505b6001600288020188555050505b505050505050565b614085806200043a6000396000f3fe6080604052600436106101445760003560e01c806370a08231116100b6578063b991aa031161006f578063b991aa0314610550578063c74073a114610579578063c87b56dd146105a2578063e0ea9c34146105df578063e54b076814610608578063e985e9c514610631576101b4565b806370a08231146104515780639529f0601461048e57806395d89b41146104b75780639b845899146104e2578063a22cb465146104fe578063b88d4fde14610527576101b4565b8063402a71d711610108578063402a71d71461032a57806342842e0e146103555780636135281a1461037e5780636352211e1461039a5780636ebc8c86146103d75780636ef49dfc14610414576101b4565b806301ffc9a71461023357806306fdde0314610270578063081812fc1461029b578063095ea7b3146102d857806323b872dd14610301576101b4565b366101b45761015d677b364d93fc2fadb060c01b61066e565b34600960003373ffffffffffffffffffffffffffffffffffffffff1673ffffffffffffffffffffffffffffffffffffffff16815260200190815260200160002060008282546101ac9190612fdb565b925050819055005b6101c8675810f88dfbb3bc0e60c01b61066e565b6101dc67b8dae36621b1287e60c01b61066e565b34600960003373ffffffffffffffffffffffffffffffffffffffff1673ffffffffffffffffffffffffffffffffffffffff168152602001908152602001600020600082825461022b9190612fdb565b925050819055005b34801561023f57600080fd5b5061025a6004803603810190610255919061307b565b610671565b60405161026791906130c3565b60405180910390f35b34801561027c57600080fd5b506102856106d2565b604051610292919061316e565b60405180910390f35b3480156102a757600080fd5b506102c260048036038101906102bd91906131bc565b610764565b6040516102cf919061322a565b60405180910390f35b3480156102e457600080fd5b506102ff60048036038101906102fa9190613271565b610780565b005b34801561030d57600080fd5b50610328600480360381019061032391906132b1565b610796565b005b34801561033657600080fd5b5061033f610898565b60405161034c9190613313565b60405180910390f35b34801561036157600080fd5b5061037c600480360381019061037791906132b1565b61091b565b005b6103986004803603810190610393919061332e565b61093b565b005b3480156103a657600080fd5b506103c160048036038101906103bc91906131bc565b610ada565b6040516103ce919061322a565b60405180910390f35b3480156103e357600080fd5b506103fe60048036038101906103f991906131bc565b610aec565b60405161040b9190613471565b60405180910390f35b34801561042057600080fd5b5061043b60048036038101906104369190613493565b610cdf565b6040516104489190613313565b60405180910390f35b34801561045d57600080fd5b50610478600480360381019061047391906134d3565b610d76565b6040516104859190613313565b60405180910390f35b34801561049a57600080fd5b506104b560048036038101906104b091906131bc565b610e30565b005b3480156104c357600080fd5b506104cc611209565b6040516104d9919061316e565b60405180910390f35b6104fc60048036038101906104f791906131bc565b61129b565b005b34801561050a57600080fd5b506105256004803603810190610520919061352c565b6117a2565b005b34801561053357600080fd5b5061054e600480360381019061054991906136a1565b6117b8565b005b34801561055c57600080fd5b50610577600480360381019061057291906131bc565b6117d5565b005b34801561058557600080fd5b506105a0600480360381019061059b91906134d3565b611a76565b005b3480156105ae57600080fd5b506105c960048036038101906105c491906131bc565b611afc565b6040516105d6919061316e565b60405180910390f35b3480156105eb57600080fd5b50610606600480360381019061060191906131bc565b611c0f565b005b34801561061457600080fd5b5061062f600480360381019061062a91906137c5565b611dd0565b005b34801561063d57600080fd5b5061065860048036038101906106539190613883565b611fc4565b60405161066591906130c3565b60405180910390f35b50565b6000634906490660e01b7bffffffffffffffffffffffffffffffffffffffffffffffffffffffff1916827bffffffffffffffffffffffffffffffffffffffffffffffffffffffff191614806106cb57506106ca82612058565b5b9050919050565b6060600080546106e1906138f2565b80601f016020809104026020016040519081016040528092919081815260200182805461070d906138f2565b801561075a5780601f1061072f5761010080835404028352916020019161075a565b820191906000526020600020905b81548152906001019060200180831161073d57829003601f168201915b5050505050905090565b600061076f8261213a565b50610779826121c2565b9050919050565b610792828261078d6121ff565b612207565b5050565b600073ffffffffffffffffffffffffffffffffffffffff168273ffffffffffffffffffffffffffffffffffffffff16036108085760006040517f64a0ae920000000000000000000000000000000000000000000000000000000081526004016107ff919061322a565b60405180910390fd5b600061081c83836108176121ff565b612219565b90508373ffffffffffffffffffffffffffffffffffffffff168173ffffffffffffffffffffffffffffffffffffffff1614610892578382826040517f64283d7b00000000000000000000000000000000000000000000000000000000815260040161088993929190613923565b60405180910390fd5b50505050565b60006108ae67770bb48d51c8404860c01b61066e565b6108c26732707b7a400d00c360c01b61066e565b6108d667d23543a90539153860c01b61066e565b600960003373ffffffffffffffffffffffffffffffffffffffff1673ffffffffffffffffffffffffffffffffffffffff16815260200190815260200160002054905090565b610936838383604051806020016040528060008152506117b8565b505050565b61094f6786801bf9939fa0aa60c01b61066e565b8061096467de9187ace01da3ec60c01b61066e565b61097867d7d791b2e02fcc1d60c01b61066e565b61098c678a94e3426174c90960c01b61066e565b6109a0675656893d4d37bdec60c01b61066e565b6007600082815260200190815260200160002060000160009054906101000a900473ffffffffffffffffffffffffffffffffffffffff1673ffffffffffffffffffffffffffffffffffffffff163373ffffffffffffffffffffffffffffffffffffffff1614610a44576040517f08c379a0000000000000000000000000000000000000000000000000000000008152600401610a3b906139a6565b60405180910390fd5b610a58678a06be579d6b718460c01b61066e565b610a6c674e9dc40ec31259bf60c01b61066e565b610a8067e30ba001f1745bf160c01b61066e565b610a9467f79b2dd78938027660c01b61066e565b610aa8676ca8d62f5a718e3760c01b61066e565b82600760008481526020019081526020016000206004016000828254610ace9190612fdb565b92505081905550505050565b6000610ae58261213a565b9050919050565b610af4612f40565b610b0867290e007d4827c34660c01b61066e565b610b1c678d1c060024d4429160c01b61066e565b610b30676d428f52f2fd6a8c60c01b61066e565b6000600760008481526020019081526020016000206040518060c00160405290816000820160009054906101000a900473ffffffffffffffffffffffffffffffffffffffff1673ffffffffffffffffffffffffffffffffffffffff1673ffffffffffffffffffffffffffffffffffffffff1681526020016001820160009054906101000a900473ffffffffffffffffffffffffffffffffffffffff1673ffffffffffffffffffffffffffffffffffffffff1673ffffffffffffffffffffffffffffffffffffffff168152602001600282015481526020016003820154815260200160048201548152602001600582018054610c2a906138f2565b80601f0160208091040260200160405190810160405280929190818152602001828054610c56906138f2565b8015610ca35780601f10610c7857610100808354040283529160200191610ca3565b820191906000526020600020905b815481529060010190602001808311610c8657829003601f168201915b5050505050815250509050610cc267c3359b200f28157860c01b61066e565b610cd667a9c7909ce64dde4a60c01b61066e565b80915050919050565b6000610cf567f18857bf3085e2f760c01b61066e565b610d09678df8482e167a627060c01b61066e565b610d1d67096eec1a24dc253760c01b61066e565b600860008373ffffffffffffffffffffffffffffffffffffffff1673ffffffffffffffffffffffffffffffffffffffff168152602001908152602001600020600084815260200190815260200160002054905092915050565b60008073ffffffffffffffffffffffffffffffffffffffff168273ffffffffffffffffffffffffffffffffffffffff1603610de95760006040517f89c62b64000000000000000000000000000000000000000000000000000000008152600401610de0919061322a565b60405180910390fd5b600360008373ffffffffffffffffffffffffffffffffffffffff1673ffffffffffffffffffffffffffffffffffffffff168152602001908152602001600020549050919050565b610e4467ac0e1fbfad84f1c060c01b61066e565b610e586799d38162502a174260c01b61066e565b610e6c67daa363851365a35960c01b61066e565b6000600760008381526020019081526020016000206040518060c00160405290816000820160009054906101000a900473ffffffffffffffffffffffffffffffffffffffff1673ffffffffffffffffffffffffffffffffffffffff1673ffffffffffffffffffffffffffffffffffffffff1681526020016001820160009054906101000a900473ffffffffffffffffffffffffffffffffffffffff1673ffffffffffffffffffffffffffffffffffffffff1673ffffffffffffffffffffffffffffffffffffffff168152602001600282015481526020016003820154815260200160048201548152602001600582018054610f66906138f2565b80601f0160208091040260200160405190810160405280929190818152602001828054610f92906138f2565b8015610fdf5780601f10610fb457610100808354040283529160200191610fdf565b820191906000526020600020905b815481529060010190602001808311610fc257829003601f168201915b5050505050815250509050610ffe679e7bcb2c00ed935b60c01b61066e565b611012673391b3681f21462460c01b61066e565b611026679cf7d73328e8543460c01b61066e565b806060015160086000836000015173ffffffffffffffffffffffffffffffffffffffff1673ffffffffffffffffffffffffffffffffffffffff16815260200190815260200160002060008481526020019081526020016000205410156110c1576040517f08c379a00000000000000000000000000000000000000000000000000000000081526004016110b890613a12565b60405180910390fd5b6110d56759c072656ef41f1d60c01b61066e565b6110e96738209655e4d3974d60c01b61066e565b60086000826000015173ffffffffffffffffffffffffffffffffffffffff1673ffffffffffffffffffffffffffffffffffffffff16815260200190815260200160002060008381526020019081526020016000205460096000836000015173ffffffffffffffffffffffffffffffffffffffff1673ffffffffffffffffffffffffffffffffffffffff16815260200190815260200160002060008282546111909190612fdb565b925050819055506111ab679605a5a55caa61b160c01b61066e565b600060086000836000015173ffffffffffffffffffffffffffffffffffffffff1673ffffffffffffffffffffffffffffffffffffffff1681526020019081526020016000206000848152602001908152602001600020819055505050565b606060018054611218906138f2565b80601f0160208091040260200160405190810160405280929190818152602001828054611244906138f2565b80156112915780601f1061126657610100808354040283529160200191611291565b820191906000526020600020905b81548152906001019060200180831161127457829003601f168201915b5050505050905090565b6112af67c3c795853c7f33e360c01b61066e565b806112c467de9187ace01da3ec60c01b61066e565b6112d867d7d791b2e02fcc1d60c01b61066e565b6112ec678a94e3426174c90960c01b61066e565b611300675656893d4d37bdec60c01b61066e565b6007600082815260200190815260200160002060000160009054906101000a900473ffffffffffffffffffffffffffffffffffffffff1673ffffffffffffffffffffffffffffffffffffffff163373ffffffffffffffffffffffffffffffffffffffff16146113a4576040517f08c379a000000000000000000000000000000000000000000000000000000000815260040161139b906139a6565b60405180910390fd5b6113b8678a06be579d6b718460c01b61066e565b6113cc674e9dc40ec31259bf60c01b61066e565b6113e067939127a2cff7326360c01b61066e565b6113f46790a2b22dde0b3a8d60c01b61066e565b6114086780ffa3a6e374f7e160c01b61066e565b61141c676d6a3a05a4c9d33660c01b61066e565b6000600860003373ffffffffffffffffffffffffffffffffffffffff1673ffffffffffffffffffffffffffffffffffffffff1681526020019081526020016000206000848152602001908152602001600020541161171f5761148867a691212999198d0460c01b61066e565b61149c671f650b42f2f0b13060c01b61066e565b6114b067d3f4518f082c2a8b60c01b61066e565b6114c467df16a8d7b112a21f60c01b61066e565b600760008381526020019081526020016000206003015434101561151d576040517f08c379a000000000000000000000000000000000000000000000000000000000815260040161151490613a7e565b60405180910390fd5b6115316758afbe532010be9260c01b61066e565b61154567335b3e5968fe1b9d60c01b61066e565b6007600083815260200190815260200160002060030154600860003373ffffffffffffffffffffffffffffffffffffffff1673ffffffffffffffffffffffffffffffffffffffff168152602001908152602001600020600084815260200190815260200160002060008282546115bb9190612fdb565b925050819055506115d667542ae88330853d5d60c01b61066e565b6007600083815260200190815260200160002060030154346115f89190613a9e565b600960003373ffffffffffffffffffffffffffffffffffffffff1673ffffffffffffffffffffffffffffffffffffffff16815260200190815260200160002060008282546116469190612fdb565b9250508190555061166167070403d95caf749360c01b61066e565b61167567f926e1d054e9f74060c01b61066e565b3073ffffffffffffffffffffffffffffffffffffffff166323b872dd306007600086815260200190815260200160002060000160009054906101000a900473ffffffffffffffffffffffffffffffffffffffff16856040518463ffffffff1660e01b81526004016116e893929190613b31565b600060405180830381600087803b15801561170257600080fd5b505af1158015611716573d6000803e3d6000fd5b5050505061179e565b6117336785237527c265139560c01b61066e565b61174767f676a444e42ff1f160c01b61066e565b34600960003373ffffffffffffffffffffffffffffffffffffffff1673ffffffffffffffffffffffffffffffffffffffff16815260200190815260200160002060008282546117969190612fdb565b925050819055505b5050565b6117b46117ad6121ff565b8383612433565b5050565b6117c3848484610796565b6117cf848484846125a2565b50505050565b6117e96708f0f66d07c3125960c01b61066e565b6117fd67c48cca7fad733b0c60c01b61066e565b61181167818db030703af11a60c01b61066e565b61182567a640849872c5857060c01b61066e565b6007600082815260200190815260200160002060030154600960006007600085815260200190815260200160002060000160009054906101000a900473ffffffffffffffffffffffffffffffffffffffff1673ffffffffffffffffffffffffffffffffffffffff1673ffffffffffffffffffffffffffffffffffffffff1681526020019081526020016000205410156118f3576040517f08c379a00000000000000000000000000000000000000000000000000000000081526004016118ea90613bb4565b60405180910390fd5b6119076727d055055626770760c01b61066e565b61191b6794eb40a49e64bdba60c01b61066e565b6007600082815260200190815260200160002060030154600960006007600085815260200190815260200160002060000160009054906101000a900473ffffffffffffffffffffffffffffffffffffffff1673ffffffffffffffffffffffffffffffffffffffff1673ffffffffffffffffffffffffffffffffffffffff16815260200190815260200160002060008282546119b69190613a9e565b925050819055506119d16728f0af2bba12669e60c01b61066e565b6007600082815260200190815260200160002060030154600960006007600085815260200190815260200160002060010160009054906101000a900473ffffffffffffffffffffffffffffffffffffffff1673ffffffffffffffffffffffffffffffffffffffff1673ffffffffffffffffffffffffffffffffffffffff1681526020019081526020016000206000828254611a6c9190612fdb565b9250508190555050565b611a8a675819655d024a803b60c01b61066e565b611a9e67e94f89be75c61d2360c01b61066e565b611ab267191c43c4929b0d8260c01b61066e565b8073ffffffffffffffffffffffffffffffffffffffff166108fc479081150290604051600060405180830381858888f19350505050158015611af8573d6000803e3d6000fd5b5050565b6060611b078261213a565b506000600660008481526020019081526020016000208054611b28906138f2565b80601f0160208091040260200160405190810160405280929190818152602001828054611b54906138f2565b8015611ba15780601f10611b7657610100808354040283529160200191611ba1565b820191906000526020600020905b815481529060010190602001808311611b8457829003601f168201915b505050505090506000611bb2612759565b90506000815103611bc7578192505050611c0a565b600082511115611bfc578082604051602001611be4929190613c10565b60405160208183030381529060405292505050611c0a565b611c0584612770565b925050505b919050565b611c23679a7d3eb8a11c7c2560c01b61066e565b611c3767e1124c1a3836a49460c01b61066e565b611c4b671e9918eb00aba4e960c01b61066e565b611c5e6612a8bcd5d73cfb60c01b61066e565b600960003373ffffffffffffffffffffffffffffffffffffffff1673ffffffffffffffffffffffffffffffffffffffff16815260200190815260200160002054811115611ce0576040517f08c379a0000000000000000000000000000000000000000000000000000000008152600401611cd790613c80565b60405180910390fd5b611cf467b06331d9b5c542b660c01b61066e565b611d08678d696703834353fa60c01b61066e565b611d1c6761bce3ea750babb260c01b61066e565b3373ffffffffffffffffffffffffffffffffffffffff166108fc829081150290604051600060405180830381858888f19350505050158015611d62573d6000803e3d6000fd5b50611d7767773c467db186c8e360c01b61066e565b80600960003373ffffffffffffffffffffffffffffffffffffffff1673ffffffffffffffffffffffffffffffffffffffff1681526020019081526020016000206000828254611dc69190613a9e565b9250508190555050565b611de467d04c78867b2631cd60c01b61066e565b611df86770f59241ce3e7ac560c01b61066e565b611e0c67668c4ea4c8e9285c60c01b61066e565b6000879050611e2567f6fa92308f0b0c5960c01b61066e565b611e39674ef8eb807c756f3f60c01b61066e565b611e4330826127d9565b611e576755a91acc02c68b3e60c01b61066e565b611e6b6728dadbf44506af5560c01b61066e565b611e7581836128d2565b611e8967f0a303fb45ab660160c01b61066e565b611e9d67b66e7bc3fee6688260c01b61066e565b6000600760008a81526020019081526020016000209050611ec8679123305131280d2460c01b61066e565b878160000160006101000a81548173ffffffffffffffffffffffffffffffffffffffff021916908373ffffffffffffffffffffffffffffffffffffffff160217905550611f1f675870c1a5c274af6060c01b61066e565b868160010160006101000a81548173ffffffffffffffffffffffffffffffffffffffff021916908373ffffffffffffffffffffffffffffffffffffffff160217905550611f7667525b7a052ca58b3b60c01b61066e565b858160020181905550611f9367c347db22379bb62b60c01b61066e565b848160030181905550611fb067c0f1c2a2a925efdf60c01b61066e565b838160040181905550505050505050505050565b6000600560008473ffffffffffffffffffffffffffffffffffffffff1673ffffffffffffffffffffffffffffffffffffffff16815260200190815260200160002060008373ffffffffffffffffffffffffffffffffffffffff1673ffffffffffffffffffffffffffffffffffffffff16815260200190815260200160002060009054906101000a900460ff16905092915050565b60007f80ac58cd000000000000000000000000000000000000000000000000000000007bffffffffffffffffffffffffffffffffffffffffffffffffffffffff1916827bffffffffffffffffffffffffffffffffffffffffffffffffffffffff1916148061212357507f5b5e139f000000000000000000000000000000000000000000000000000000007bffffffffffffffffffffffffffffffffffffffffffffffffffffffff1916827bffffffffffffffffffffffffffffffffffffffffffffffffffffffff1916145b8061213357506121328261292e565b5b9050919050565b60008061214683612998565b9050600073ffffffffffffffffffffffffffffffffffffffff168173ffffffffffffffffffffffffffffffffffffffff16036121b957826040517f7e2732890000000000000000000000000000000000000000000000000000000081526004016121b09190613313565b60405180910390fd5b80915050919050565b60006004600083815260200190815260200160002060009054906101000a900473ffffffffffffffffffffffffffffffffffffffff169050919050565b600033905090565b61221483838360016129d5565b505050565b60008061222584612998565b9050600073ffffffffffffffffffffffffffffffffffffffff168373ffffffffffffffffffffffffffffffffffffffff161461226757612266818486612b9a565b5b600073ffffffffffffffffffffffffffffffffffffffff168173ffffffffffffffffffffffffffffffffffffffff16146122f8576122a96000856000806129d5565b6001600360008373ffffffffffffffffffffffffffffffffffffffff1673ffffffffffffffffffffffffffffffffffffffff168152602001908152602001600020600082825403925050819055505b600073ffffffffffffffffffffffffffffffffffffffff168573ffffffffffffffffffffffffffffffffffffffff161461237b576001600360008773ffffffffffffffffffffffffffffffffffffffff1673ffffffffffffffffffffffffffffffffffffffff168152602001908152602001600020600082825401925050819055505b846002600086815260200190815260200160002060006101000a81548173ffffffffffffffffffffffffffffffffffffffff021916908373ffffffffffffffffffffffffffffffffffffffff160217905550838573ffffffffffffffffffffffffffffffffffffffff168273ffffffffffffffffffffffffffffffffffffffff167fddf252ad1be2c89b69c2b068fc378daa952ba7f163c4a11628f55a4df523b3ef60405160405180910390a4809150509392505050565b600073ffffffffffffffffffffffffffffffffffffffff168273ffffffffffffffffffffffffffffffffffffffff16036124a457816040517f5b08ba1800000000000000000000000000000000000000000000000000000000815260040161249b919061322a565b60405180910390fd5b80600560008573ffffffffffffffffffffffffffffffffffffffff1673ffffffffffffffffffffffffffffffffffffffff16815260200190815260200160002060008473ffffffffffffffffffffffffffffffffffffffff1673ffffffffffffffffffffffffffffffffffffffff16815260200190815260200160002060006101000a81548160ff0219169083151502179055508173ffffffffffffffffffffffffffffffffffffffff168373ffffffffffffffffffffffffffffffffffffffff167f17307eab39ab6107e8899845ad3d59bd9653f200f220920489ca2b5937696c318360405161259591906130c3565b60405180910390a3505050565b60008373ffffffffffffffffffffffffffffffffffffffff163b1115612753578273ffffffffffffffffffffffffffffffffffffffff1663150b7a026125e66121ff565b8685856040518563ffffffff1660e01b81526004016126089493929190613cf5565b6020604051808303816000875af192505050801561264457506040513d601f19601f820116820180604052508101906126419190613d56565b60015b6126c8573d8060008114612674576040519150601f19603f3d011682016040523d82523d6000602084013e612679565b606091505b5060008151036126c057836040517f64a0ae920000000000000000000000000000000000000000000000000000000081526004016126b7919061322a565b60405180910390fd5b805181602001fd5b63150b7a0260e01b7bffffffffffffffffffffffffffffffffffffffffffffffffffffffff1916817bffffffffffffffffffffffffffffffffffffffffffffffffffffffff19161461275157836040517f64a0ae92000000000000000000000000000000000000000000000000000000008152600401612748919061322a565b60405180910390fd5b505b50505050565b606060405180602001604052806000815250905090565b606061277b8261213a565b506000612786612759565b905060008151116127a657604051806020016040528060008152506127d1565b806127b084612c5e565b6040516020016127c1929190613c10565b6040516020818303038152906040525b915050919050565b600073ffffffffffffffffffffffffffffffffffffffff168273ffffffffffffffffffffffffffffffffffffffff160361284b5760006040517f64a0ae92000000000000000000000000000000000000000000000000000000008152600401612842919061322a565b60405180910390fd5b600061285983836000612219565b9050600073ffffffffffffffffffffffffffffffffffffffff168173ffffffffffffffffffffffffffffffffffffffff16146128cd5760006040517f73c6ac6e0000000000000000000000000000000000000000000000000000000081526004016128c4919061322a565b60405180910390fd5b505050565b806006600084815260200190815260200160002090816128f29190613f25565b507ff8e1a15aba9398e019f0b49df1a4fde98ee17ae345cb5f6b5e2c27f5033e8ce7826040516129229190613313565b60405180910390a15050565b60007f01ffc9a7000000000000000000000000000000000000000000000000000000007bffffffffffffffffffffffffffffffffffffffffffffffffffffffff1916827bffffffffffffffffffffffffffffffffffffffffffffffffffffffff1916149050919050565b60006002600083815260200190815260200160002060009054906101000a900473ffffffffffffffffffffffffffffffffffffffff169050919050565b8080612a0e5750600073ffffffffffffffffffffffffffffffffffffffff168273ffffffffffffffffffffffffffffffffffffffff1614155b15612b42576000612a1e8461213a565b9050600073ffffffffffffffffffffffffffffffffffffffff168373ffffffffffffffffffffffffffffffffffffffff1614158015612a8957508273ffffffffffffffffffffffffffffffffffffffff168173ffffffffffffffffffffffffffffffffffffffff1614155b8015612a9c5750612a9a8184611fc4565b155b15612ade57826040517fa9fbf51f000000000000000000000000000000000000000000000000000000008152600401612ad5919061322a565b60405180910390fd5b8115612b4057838573ffffffffffffffffffffffffffffffffffffffff168273ffffffffffffffffffffffffffffffffffffffff167f8c5be1e5ebec7d5bd14f71427d1e84f3dd0314c0f7b2291e5b200ac8c7c3b92560405160405180910390a45b505b836004600085815260200190815260200160002060006101000a81548173ffffffffffffffffffffffffffffffffffffffff021916908373ffffffffffffffffffffffffffffffffffffffff16021790555050505050565b612ba5838383612d2c565b612c5957600073ffffffffffffffffffffffffffffffffffffffff168373ffffffffffffffffffffffffffffffffffffffff1603612c1a57806040517f7e273289000000000000000000000000000000000000000000000000000000008152600401612c119190613313565b60405180910390fd5b81816040517f177e802f000000000000000000000000000000000000000000000000000000008152600401612c50929190613ff7565b60405180910390fd5b505050565b606060006001612c6d84612ded565b01905060008167ffffffffffffffff811115612c8c57612c8b613576565b5b6040519080825280601f01601f191660200182016040528015612cbe5781602001600182028036833780820191505090505b509050600082602001820190505b600115612d21578080600190039150507f3031323334353637383961626364656600000000000000000000000000000000600a86061a8153600a8581612d1557612d14614020565b5b04945060008503612ccc575b819350505050919050565b60008073ffffffffffffffffffffffffffffffffffffffff168373ffffffffffffffffffffffffffffffffffffffff1614158015612de457508273ffffffffffffffffffffffffffffffffffffffff168473ffffffffffffffffffffffffffffffffffffffff161480612da55750612da48484611fc4565b5b80612de357508273ffffffffffffffffffffffffffffffffffffffff16612dcb836121c2565b73ffffffffffffffffffffffffffffffffffffffff16145b5b90509392505050565b600080600090507a184f03e93ff9f4daa797ed6e38ed64bf6a1f0100000000000000008310612e4b577a184f03e93ff9f4daa797ed6e38ed64bf6a1f0100000000000000008381612e4157612e40614020565b5b0492506040810190505b6d04ee2d6d415b85acef81000000008310612e88576d04ee2d6d415b85acef81000000008381612e7e57612e7d614020565b5b0492506020810190505b662386f26fc100008310612eb757662386f26fc100008381612ead57612eac614020565b5b0492506010810190505b6305f5e1008310612ee0576305f5e1008381612ed657612ed5614020565b5b0492506008810190505b6127108310612f05576127108381612efb57612efa614020565b5b0492506004810190505b60648310612f285760648381612f1e57612f1d614020565b5b0492506002810190505b600a8310612f37576001810190505b80915050919050565b6040518060c00160405280600073ffffffffffffffffffffffffffffffffffffffff168152602001600073ffffffffffffffffffffffffffffffffffffffff168152602001600081526020016000815260200160008152602001606081525090565b6000819050919050565b7f4e487b7100000000000000000000000000000000000000000000000000000000600052601160045260246000fd5b6000612fe682612fa2565b9150612ff183612fa2565b925082820190508082111561300957613008612fac565b5b92915050565b6000604051905090565b600080fd5b600080fd5b60007fffffffff0000000000000000000000000000000000000000000000000000000082169050919050565b61305881613023565b811461306357600080fd5b50565b6000813590506130758161304f565b92915050565b60006020828403121561309157613090613019565b5b600061309f84828501613066565b91505092915050565b60008115159050919050565b6130bd816130a8565b82525050565b60006020820190506130d860008301846130b4565b92915050565b600081519050919050565b600082825260208201905092915050565b60005b838110156131185780820151818401526020810190506130fd565b60008484015250505050565b6000601f19601f8301169050919050565b6000613140826130de565b61314a81856130e9565b935061315a8185602086016130fa565b61316381613124565b840191505092915050565b600060208201905081810360008301526131888184613135565b905092915050565b61319981612fa2565b81146131a457600080fd5b50565b6000813590506131b681613190565b92915050565b6000602082840312156131d2576131d1613019565b5b60006131e0848285016131a7565b91505092915050565b600073ffffffffffffffffffffffffffffffffffffffff82169050919050565b6000613214826131e9565b9050919050565b61322481613209565b82525050565b600060208201905061323f600083018461321b565b92915050565b61324e81613209565b811461325957600080fd5b50565b60008135905061326b81613245565b92915050565b6000806040838503121561328857613287613019565b5b60006132968582860161325c565b92505060206132a7858286016131a7565b9150509250929050565b6000806000606084860312156132ca576132c9613019565b5b60006132d88682870161325c565b93505060206132e98682870161325c565b92505060406132fa868287016131a7565b9150509250925092565b61330d81612fa2565b82525050565b60006020820190506133286000830184613304565b92915050565b6000806040838503121561334557613344613019565b5b6000613353858286016131a7565b9250506020613364858286016131a7565b9150509250929050565b6000613379826131e9565b9050919050565b6133898161336e565b82525050565b61339881612fa2565b82525050565b600082825260208201905092915050565b60006133ba826130de565b6133c4818561339e565b93506133d48185602086016130fa565b6133dd81613124565b840191505092915050565b600060c0830160008301516134006000860182613380565b5060208301516134136020860182613380565b506040830151613426604086018261338f565b506060830151613439606086018261338f565b50608083015161344c608086018261338f565b5060a083015184820360a086015261346482826133af565b9150508091505092915050565b6000602082019050818103600083015261348b81846133e8565b905092915050565b600080604083850312156134aa576134a9613019565b5b60006134b8858286016131a7565b92505060206134c98582860161325c565b9150509250929050565b6000602082840312156134e9576134e8613019565b5b60006134f78482850161325c565b91505092915050565b613509816130a8565b811461351457600080fd5b50565b60008135905061352681613500565b92915050565b6000806040838503121561354357613542613019565b5b60006135518582860161325c565b925050602061356285828601613517565b9150509250929050565b600080fd5b600080fd5b7f4e487b7100000000000000000000000000000000000000000000000000000000600052604160045260246000fd5b6135ae82613124565b810181811067ffffffffffffffff821117156135cd576135cc613576565b5b80604052505050565b60006135e061300f565b90506135ec82826135a5565b919050565b600067ffffffffffffffff82111561360c5761360b613576565b5b61361582613124565b9050602081019050919050565b82818337600083830152505050565b600061364461363f846135f1565b6135d6565b9050828152602081018484840111156136605761365f613571565b5b61366b848285613622565b509392505050565b600082601f8301126136885761368761356c565b5b8135613698848260208601613631565b91505092915050565b600080600080608085870312156136bb576136ba613019565b5b60006136c98782880161325c565b94505060206136da8782880161325c565b93505060406136eb878288016131a7565b925050606085013567ffffffffffffffff81111561370c5761370b61301e565b5b61371887828801613673565b91505092959194509250565b600067ffffffffffffffff82111561373f5761373e613576565b5b61374882613124565b9050602081019050919050565b600061376861376384613724565b6135d6565b90508281526020810184848401111561378457613783613571565b5b61378f848285613622565b509392505050565b600082601f8301126137ac576137ab61356c565b5b81356137bc848260208601613755565b91505092915050565b600080600080600080600060e0888a0312156137e4576137e3613019565b5b60006137f28a828b016131a7565b97505060206138038a828b0161325c565b96505060406138148a828b0161325c565b95505060606138258a828b016131a7565b94505060806138368a828b016131a7565b93505060a06138478a828b016131a7565b92505060c088013567ffffffffffffffff8111156138685761386761301e565b5b6138748a828b01613797565b91505092959891949750929550565b6000806040838503121561389a57613899613019565b5b60006138a88582860161325c565b92505060206138b98582860161325c565b9150509250929050565b7f4e487b7100000000000000000000000000000000000000000000000000000000600052602260045260246000fd5b6000600282049050600182168061390a57607f821691505b60208210810361391d5761391c6138c3565b5b50919050565b6000606082019050613938600083018661321b565b6139456020830185613304565b613952604083018461321b565b949350505050565b7f4f6e6c792072656e7465722063616e2063616c6c2074686973206d6574686f64600082015250565b60006139906020836130e9565b915061399b8261395a565b602082019050919050565b600060208201905081810360008301526139bf81613983565b9050919050565b7f4465706f73697420686173206265656e2077697468647261776e000000000000600082015250565b60006139fc601a836130e9565b9150613a07826139c6565b602082019050919050565b60006020820190508181036000830152613a2b816139ef565b9050919050565b7f4465706f736974206e6f7420656e6f7567680000000000000000000000000000600082015250565b6000613a686012836130e9565b9150613a7382613a32565b602082019050919050565b60006020820190508181036000830152613a9781613a5b565b9050919050565b6000613aa982612fa2565b9150613ab483612fa2565b9250828203905081811115613acc57613acb612fac565b5b92915050565b6000819050919050565b6000613af7613af2613aed846131e9565b613ad2565b6131e9565b9050919050565b6000613b0982613adc565b9050919050565b6000613b1b82613afe565b9050919050565b613b2b81613b10565b82525050565b6000606082019050613b46600083018661321b565b613b536020830185613b22565b613b606040830184613304565b949350505050565b7f42616c616e636572206e6f7420656e6f75676874000000000000000000000000600082015250565b6000613b9e6014836130e9565b9150613ba982613b68565b602082019050919050565b60006020820190508181036000830152613bcd81613b91565b9050919050565b600081905092915050565b6000613bea826130de565b613bf48185613bd4565b9350613c048185602086016130fa565b80840191505092915050565b6000613c1c8285613bdf565b9150613c288284613bdf565b91508190509392505050565b7f42616c616e6365206e6f7420656e6f7567680000000000000000000000000000600082015250565b6000613c6a6012836130e9565b9150613c7582613c34565b602082019050919050565b60006020820190508181036000830152613c9981613c5d565b9050919050565b600081519050919050565b600082825260208201905092915050565b6000613cc782613ca0565b613cd18185613cab565b9350613ce18185602086016130fa565b613cea81613124565b840191505092915050565b6000608082019050613d0a600083018761321b565b613d17602083018661321b565b613d246040830185613304565b8181036060830152613d368184613cbc565b905095945050505050565b600081519050613d508161304f565b92915050565b600060208284031215613d6c57613d6b613019565b5b6000613d7a84828501613d41565b91505092915050565b60008190508160005260206000209050919050565b60006020601f8301049050919050565b600082821b905092915050565b600060088302613de57fffffffffffffffffffffffffffffffffffffffffffffffffffffffffffffffff82613da8565b613def8683613da8565b95508019841693508086168417925050509392505050565b6000613e22613e1d613e1884612fa2565b613ad2565b612fa2565b9050919050565b6000819050919050565b613e3c83613e07565b613e50613e4882613e29565b848454613db5565b825550505050565b600090565b613e65613e58565b613e70818484613e33565b505050565b5b81811015613e9457613e89600082613e5d565b600181019050613e76565b5050565b601f821115613ed957613eaa81613d83565b613eb384613d98565b81016020851015613ec2578190505b613ed6613ece85613d98565b830182613e75565b50505b505050565b600082821c905092915050565b6000613efc60001984600802613ede565b1980831691505092915050565b6000613f158383613eeb565b9150826002028217905092915050565b613f2e826130de565b67ffffffffffffffff811115613f4757613f46613576565b5b613f5182546138f2565b613f5c828285613e98565b600060209050601f831160018114613f8f5760008415613f7d578287015190505b613f878582613f09565b865550613fef565b601f198416613f9d86613d83565b60005b82811015613fc557848901518255600182019150602085019450602081019050613fa0565b86831015613fe25784890151613fde601f891682613eeb565b8355505b6001600288020188555050505b505050505050565b600060408201905061400c600083018561321b565b6140196020830184613304565b9392505050565b7f4e487b7100000000000000000000000000000000000000000000000000000000600052601260045260246000fdfea2646970667358221220f09991d9b2bf74d484a673c47ef6a0d9908927bb3d84fe6c00c983ae6ab8a2e164736f6c63430008140033","opcodes":"PUSH1 0x80 PUSH1 0x40 MSTORE CALLVALUE DUP1 ISZERO PUSH3 0x11 JUMPI PUSH1 0x0 DUP1 REVERT JUMPDEST POP PUSH1 0x40 MLOAD DUP1 PUSH1 0x40 ADD PUSH1 0x40 MSTORE DUP1 PUSH1 0xE DUP2 MSTORE PUSH1 0x20 ADD PUSH32 0x536D61727420436F6E7472616374000000000000000000000000000000000000 DUP2 MSTORE POP PUSH1 0x40 MLOAD DUP1 PUSH1 0x40 ADD PUSH1 0x40 MSTORE DUP1 PUSH1 0x2 DUP2 MSTORE PUSH1 0x20 ADD PUSH32 0x5343000000000000000000000000000000000000000000000000000000000000 DUP2 MSTORE POP DUP2 PUSH1 0x0 SWAP1 DUP2 PUSH3 0x8F SWAP2 SWAP1 PUSH3 0x343 JUMP JUMPDEST POP DUP1 PUSH1 0x1 SWAP1 DUP2 PUSH3 0xA1 SWAP2 SWAP1 PUSH3 0x343 JUMP JUMPDEST POP POP POP PUSH3 0xC0 PUSH8 0x7AD28756322C5FE1 PUSH1 0xC0 SHL PUSH3 0xC6 PUSH1 0x20 SHL PUSH1 0x20 SHR JUMP JUMPDEST PUSH3 0x42A JUMP JUMPDEST POP JUMP JUMPDEST PUSH1 0x0 DUP2 MLOAD SWAP1 POP SWAP2 SWAP1 POP JUMP JUMPDEST PUSH32 0x4E487B7100000000000000000000000000000000000000000000000000000000 PUSH1 0x0 MSTORE PUSH1 0x41 PUSH1 0x4 MSTORE PUSH1 0x24 PUSH1 0x0 REVERT JUMPDEST PUSH32 0x4E487B7100000000000000000000000000000000000000000000000000000000 PUSH1 0x0 MSTORE PUSH1 0x22 PUSH1 0x4 MSTORE PUSH1 0x24 PUSH1 0x0 REVERT JUMPDEST PUSH1 0x0 PUSH1 0x2 DUP3 DIV SWAP1 POP PUSH1 0x1 DUP3 AND DUP1 PUSH3 0x14B JUMPI PUSH1 0x7F DUP3 AND SWAP2 POP JUMPDEST PUSH1 0x20 DUP3 LT DUP2 SUB PUSH3 0x161 JUMPI PUSH3 0x160 PUSH3 0x103 JUMP JUMPDEST JUMPDEST POP SWAP2 SWAP1 POP JUMP JUMPDEST PUSH1 0x0 DUP2 SWAP1 POP DUP2 PUSH1 0x0 MSTORE PUSH1 0x20 PUSH1 0x0 KECCAK256 SWAP1 POP SWAP2 SWAP1 POP JUMP JUMPDEST PUSH1 0x0 PUSH1 0x20 PUSH1 0x1F DUP4 ADD DIV SWAP1 POP SWAP2 SWAP1 POP JUMP JUMPDEST PUSH1 0x0 DUP3 DUP3 SHL SWAP1 POP SWAP3 SWAP2 POP POP JUMP JUMPDEST PUSH1 0x0 PUSH1 0x8 DUP4 MUL PUSH3 0x1CB PUSH32 0xFFFFFFFFFFFFFFFFFFFFFFFFFFFFFFFFFFFFFFFFFFFFFFFFFFFFFFFFFFFFFFFF DUP3 PUSH3 0x18C JUMP JUMPDEST PUSH3 0x1D7 DUP7 DUP4 PUSH3 0x18C JUMP JUMPDEST SWAP6 POP DUP1 NOT DUP5 AND SWAP4 POP DUP1 DUP7 AND DUP5 OR SWAP3 POP POP POP SWAP4 SWAP3 POP POP POP JUMP JUMPDEST PUSH1 0x0 DUP2 SWAP1 POP SWAP2 SWAP1 POP JUMP JUMPDEST PUSH1 0x0 DUP2 SWAP1 POP SWAP2 SWAP1 POP JUMP JUMPDEST PUSH1 0x0 PUSH3 0x224 PUSH3 0x21E PUSH3 0x218 DUP5 PUSH3 0x1EF JUMP JUMPDEST PUSH3 0x1F9 JUMP JUMPDEST PUSH3 0x1EF JUMP JUMPDEST SWAP1 POP SWAP2 SWAP1 POP JUMP JUMPDEST PUSH1 0x0 DUP2 SWAP1 POP SWAP2 SWAP1 POP JUMP JUMPDEST PUSH3 0x240 DUP4 PUSH3 0x203 JUMP JUMPDEST PUSH3 0x258 PUSH3 0x24F DUP3 PUSH3 0x22B JUMP JUMPDEST DUP5 DUP5 SLOAD PUSH3 0x199 JUMP JUMPDEST DUP3 SSTORE POP POP POP POP JUMP JUMPDEST PUSH1 0x0 SWAP1 JUMP JUMPDEST PUSH3 0x26F PUSH3 0x260 JUMP JUMPDEST PUSH3 0x27C DUP2 DUP5 DUP5 PUSH3 0x235 JUMP JUMPDEST POP POP POP JUMP JUMPDEST JUMPDEST DUP2 DUP2 LT ISZERO PUSH3 0x2A4 JUMPI PUSH3 0x298 PUSH1 0x0 DUP3 PUSH3 0x265 JUMP JUMPDEST PUSH1 0x1 DUP2 ADD SWAP1 POP PUSH3 0x282 JUMP JUMPDEST POP POP JUMP JUMPDEST PUSH1 0x1F DUP3 GT ISZERO PUSH3 0x2F3 JUMPI PUSH3 0x2BD DUP2 PUSH3 0x167 JUMP JUMPDEST PUSH3 0x2C8 DUP5 PUSH3 0x17C JUMP JUMPDEST DUP2 ADD PUSH1 0x20 DUP6 LT ISZERO PUSH3 0x2D8 JUMPI DUP2 SWAP1 POP JUMPDEST PUSH3 0x2F0 PUSH3 0x2E7 DUP6 PUSH3 0x17C JUMP JUMPDEST DUP4 ADD DUP3 PUSH3 0x281 JUMP JUMPDEST POP POP JUMPDEST POP POP POP JUMP JUMPDEST PUSH1 0x0 DUP3 DUP3 SHR SWAP1 POP SWAP3 SWAP2 POP POP JUMP JUMPDEST PUSH1 0x0 PUSH3 0x318 PUSH1 0x0 NOT DUP5 PUSH1 0x8 MUL PUSH3 0x2F8 JUMP JUMPDEST NOT DUP1 DUP4 AND SWAP2 POP POP SWAP3 SWAP2 POP POP JUMP JUMPDEST PUSH1 0x0 PUSH3 0x333 DUP4 DUP4 PUSH3 0x305 JUMP JUMPDEST SWAP2 POP DUP3 PUSH1 0x2 MUL DUP3 OR SWAP1 POP SWAP3 SWAP2 POP POP JUMP JUMPDEST PUSH3 0x34E DUP3 PUSH3 0xC9 JUMP JUMPDEST PUSH8 0xFFFFFFFFFFFFFFFF DUP2 GT ISZERO PUSH3 0x36A JUMPI PUSH3 0x369 PUSH3 0xD4 JUMP JUMPDEST JUMPDEST PUSH3 0x376 DUP3 SLOAD PUSH3 0x132 JUMP JUMPDEST PUSH3 0x383 DUP3 DUP3 DUP6 PUSH3 0x2A8 JUMP JUMPDEST PUSH1 0x0 PUSH1 0x20 SWAP1 POP PUSH1 0x1F DUP4 GT PUSH1 0x1 DUP2 EQ PUSH3 0x3BB JUMPI PUSH1 0x0 DUP5 ISZERO PUSH3 0x3A6 JUMPI DUP3 DUP8 ADD MLOAD SWAP1 POP JUMPDEST PUSH3 0x3B2 DUP6 DUP3 PUSH3 0x325 JUMP JUMPDEST DUP7 SSTORE POP PUSH3 0x422 JUMP JUMPDEST PUSH1 0x1F NOT DUP5 AND PUSH3 0x3CB DUP7 PUSH3 0x167 JUMP JUMPDEST PUSH1 0x0 JUMPDEST DUP3 DUP2 LT ISZERO PUSH3 0x3F5 JUMPI DUP5 DUP10 ADD MLOAD DUP3 SSTORE PUSH1 0x1 DUP3 ADD SWAP2 POP PUSH1 0x20 DUP6 ADD SWAP5 POP PUSH1 0x20 DUP2 ADD SWAP1 POP PUSH3 0x3CE JUMP JUMPDEST DUP7 DUP4 LT ISZERO PUSH3 0x415 JUMPI DUP5 DUP10 ADD MLOAD PUSH3 0x411 PUSH1 0x1F DUP10 AND DUP3 PUSH3 0x305 JUMP JUMPDEST DUP4 SSTORE POP JUMPDEST PUSH1 0x1 PUSH1 0x2 DUP9 MUL ADD DUP9 SSTORE POP POP POP JUMPDEST POP POP POP POP POP POP JUMP JUMPDEST PUSH2 0x4085 DUP1 PUSH3 0x43A PUSH1 0x0 CODECOPY PUSH1 0x0 RETURN INVALID PUSH1 0x80 PUSH1 0x40 MSTORE PUSH1 0x4 CALLDATASIZE LT PUSH2 0x144 JUMPI PUSH1 0x0 CALLDATALOAD PUSH1 0xE0 SHR DUP1 PUSH4 0x70A08231 GT PUSH2 0xB6 JUMPI DUP1 PUSH4 0xB991AA03 GT PUSH2 0x6F JUMPI DUP1 PUSH4 0xB991AA03 EQ PUSH2 0x550 JUMPI DUP1 PUSH4 0xC74073A1 EQ PUSH2 0x579 JUMPI DUP1 PUSH4 0xC87B56DD EQ PUSH2 0x5A2 JUMPI DUP1 PUSH4 0xE0EA9C34 EQ PUSH2 0x5DF JUMPI DUP1 PUSH4 0xE54B0768 EQ PUSH2 0x608 JUMPI DUP1 PUSH4 0xE985E9C5 EQ PUSH2 0x631 JUMPI PUSH2 0x1B4 JUMP JUMPDEST DUP1 PUSH4 0x70A08231 EQ PUSH2 0x451 JUMPI DUP1 PUSH4 0x9529F060 EQ PUSH2 0x48E JUMPI DUP1 PUSH4 0x95D89B41 EQ PUSH2 0x4B7 JUMPI DUP1 PUSH4 0x9B845899 EQ PUSH2 0x4E2 JUMPI DUP1 PUSH4 0xA22CB465 EQ PUSH2 0x4FE JUMPI DUP1 PUSH4 0xB88D4FDE EQ PUSH2 0x527 JUMPI PUSH2 0x1B4 JUMP JUMPDEST DUP1 PUSH4 0x402A71D7 GT PUSH2 0x108 JUMPI DUP1 PUSH4 0x402A71D7 EQ PUSH2 0x32A JUMPI DUP1 PUSH4 0x42842E0E EQ PUSH2 0x355 JUMPI DUP1 PUSH4 0x6135281A EQ PUSH2 0x37E JUMPI DUP1 PUSH4 0x6352211E EQ PUSH2 0x39A JUMPI DUP1 PUSH4 0x6EBC8C86 EQ PUSH2 0x3D7 JUMPI DUP1 PUSH4 0x6EF49DFC EQ PUSH2 0x414 JUMPI PUSH2 0x1B4 JUMP JUMPDEST DUP1 PUSH4 0x1FFC9A7 EQ PUSH2 0x233 JUMPI DUP1 PUSH4 0x6FDDE03 EQ PUSH2 0x270 JUMPI DUP1 PUSH4 0x81812FC EQ PUSH2 0x29B JUMPI DUP1 PUSH4 0x95EA7B3 EQ PUSH2 0x2D8 JUMPI DUP1 PUSH4 0x23B872DD EQ PUSH2 0x301 JUMPI PUSH2 0x1B4 JUMP JUMPDEST CALLDATASIZE PUSH2 0x1B4 JUMPI PUSH2 0x15D PUSH8 0x7B364D93FC2FADB0 PUSH1 0xC0 SHL PUSH2 0x66E JUMP JUMPDEST CALLVALUE PUSH1 0x9 PUSH1 0x0 CALLER PUSH20 0xFFFFFFFFFFFFFFFFFFFFFFFFFFFFFFFFFFFFFFFF AND PUSH20 0xFFFFFFFFFFFFFFFFFFFFFFFFFFFFFFFFFFFFFFFF AND DUP2 MSTORE PUSH1 0x20 ADD SWAP1 DUP2 MSTORE PUSH1 0x20 ADD PUSH1 0x0 KECCAK256 PUSH1 0x0 DUP3 DUP3 SLOAD PUSH2 0x1AC SWAP2 SWAP1 PUSH2 0x2FDB JUMP JUMPDEST SWAP3 POP POP DUP2 SWAP1 SSTORE STOP JUMPDEST PUSH2 0x1C8 PUSH8 0x5810F88DFBB3BC0E PUSH1 0xC0 SHL PUSH2 0x66E JUMP JUMPDEST PUSH2 0x1DC PUSH8 0xB8DAE36621B1287E PUSH1 0xC0 SHL PUSH2 0x66E JUMP JUMPDEST CALLVALUE PUSH1 0x9 PUSH1 0x0 CALLER PUSH20 0xFFFFFFFFFFFFFFFFFFFFFFFFFFFFFFFFFFFFFFFF AND PUSH20 0xFFFFFFFFFFFFFFFFFFFFFFFFFFFFFFFFFFFFFFFF AND DUP2 MSTORE PUSH1 0x20 ADD SWAP1 DUP2 MSTORE PUSH1 0x20 ADD PUSH1 0x0 KECCAK256 PUSH1 0x0 DUP3 DUP3 SLOAD PUSH2 0x22B SWAP2 SWAP1 PUSH2 0x2FDB JUMP JUMPDEST SWAP3 POP POP DUP2 SWAP1 SSTORE STOP JUMPDEST CALLVALUE DUP1 ISZERO PUSH2 0x23F JUMPI PUSH1 0x0 DUP1 REVERT JUMPDEST POP PUSH2 0x25A PUSH1 0x4 DUP1 CALLDATASIZE SUB DUP2 ADD SWAP1 PUSH2 0x255 SWAP2 SWAP1 PUSH2 0x307B JUMP JUMPDEST PUSH2 0x671 JUMP JUMPDEST PUSH1 0x40 MLOAD PUSH2 0x267 SWAP2 SWAP1 PUSH2 0x30C3 JUMP JUMPDEST PUSH1 0x40 MLOAD DUP1 SWAP2 SUB SWAP1 RETURN JUMPDEST CALLVALUE DUP1 ISZERO PUSH2 0x27C JUMPI PUSH1 0x0 DUP1 REVERT JUMPDEST POP PUSH2 0x285 PUSH2 0x6D2 JUMP JUMPDEST PUSH1 0x40 MLOAD PUSH2 0x292 SWAP2 SWAP1 PUSH2 0x316E JUMP JUMPDEST PUSH1 0x40 MLOAD DUP1 SWAP2 SUB SWAP1 RETURN JUMPDEST CALLVALUE DUP1 ISZERO PUSH2 0x2A7 JUMPI PUSH1 0x0 DUP1 REVERT JUMPDEST POP PUSH2 0x2C2 PUSH1 0x4 DUP1 CALLDATASIZE SUB DUP2 ADD SWAP1 PUSH2 0x2BD SWAP2 SWAP1 PUSH2 0x31BC JUMP JUMPDEST PUSH2 0x764 JUMP JUMPDEST PUSH1 0x40 MLOAD PUSH2 0x2CF SWAP2 SWAP1 PUSH2 0x322A JUMP JUMPDEST PUSH1 0x40 MLOAD DUP1 SWAP2 SUB SWAP1 RETURN JUMPDEST CALLVALUE DUP1 ISZERO PUSH2 0x2E4 JUMPI PUSH1 0x0 DUP1 REVERT JUMPDEST POP PUSH2 0x2FF PUSH1 0x4 DUP1 CALLDATASIZE SUB DUP2 ADD SWAP1 PUSH2 0x2FA SWAP2 SWAP1 PUSH2 0x3271 JUMP JUMPDEST PUSH2 0x780 JUMP JUMPDEST STOP JUMPDEST CALLVALUE DUP1 ISZERO PUSH2 0x30D JUMPI PUSH1 0x0 DUP1 REVERT JUMPDEST POP PUSH2 0x328 PUSH1 0x4 DUP1 CALLDATASIZE SUB DUP2 ADD SWAP1 PUSH2 0x323 SWAP2 SWAP1 PUSH2 0x32B1 JUMP JUMPDEST PUSH2 0x796 JUMP JUMPDEST STOP JUMPDEST CALLVALUE DUP1 ISZERO PUSH2 0x336 JUMPI PUSH1 0x0 DUP1 REVERT JUMPDEST POP PUSH2 0x33F PUSH2 0x898 JUMP JUMPDEST PUSH1 0x40 MLOAD PUSH2 0x34C SWAP2 SWAP1 PUSH2 0x3313 JUMP JUMPDEST PUSH1 0x40 MLOAD DUP1 SWAP2 SUB SWAP1 RETURN JUMPDEST CALLVALUE DUP1 ISZERO PUSH2 0x361 JUMPI PUSH1 0x0 DUP1 REVERT JUMPDEST POP PUSH2 0x37C PUSH1 0x4 DUP1 CALLDATASIZE SUB DUP2 ADD SWAP1 PUSH2 0x377 SWAP2 SWAP1 PUSH2 0x32B1 JUMP JUMPDEST PUSH2 0x91B JUMP JUMPDEST STOP JUMPDEST PUSH2 0x398 PUSH1 0x4 DUP1 CALLDATASIZE SUB DUP2 ADD SWAP1 PUSH2 0x393 SWAP2 SWAP1 PUSH2 0x332E JUMP JUMPDEST PUSH2 0x93B JUMP JUMPDEST STOP JUMPDEST CALLVALUE DUP1 ISZERO PUSH2 0x3A6 JUMPI PUSH1 0x0 DUP1 REVERT JUMPDEST POP PUSH2 0x3C1 PUSH1 0x4 DUP1 CALLDATASIZE SUB DUP2 ADD SWAP1 PUSH2 0x3BC SWAP2 SWAP1 PUSH2 0x31BC JUMP JUMPDEST PUSH2 0xADA JUMP JUMPDEST PUSH1 0x40 MLOAD PUSH2 0x3CE SWAP2 SWAP1 PUSH2 0x322A JUMP JUMPDEST PUSH1 0x40 MLOAD DUP1 SWAP2 SUB SWAP1 RETURN JUMPDEST CALLVALUE DUP1 ISZERO PUSH2 0x3E3 JUMPI PUSH1 0x0 DUP1 REVERT JUMPDEST POP PUSH2 0x3FE PUSH1 0x4 DUP1 CALLDATASIZE SUB DUP2 ADD SWAP1 PUSH2 0x3F9 SWAP2 SWAP1 PUSH2 0x31BC JUMP JUMPDEST PUSH2 0xAEC JUMP JUMPDEST PUSH1 0x40 MLOAD PUSH2 0x40B SWAP2 SWAP1 PUSH2 0x3471 JUMP JUMPDEST PUSH1 0x40 MLOAD DUP1 SWAP2 SUB SWAP1 RETURN JUMPDEST CALLVALUE DUP1 ISZERO PUSH2 0x420 JUMPI PUSH1 0x0 DUP1 REVERT JUMPDEST POP PUSH2 0x43B PUSH1 0x4 DUP1 CALLDATASIZE SUB DUP2 ADD SWAP1 PUSH2 0x436 SWAP2 SWAP1 PUSH2 0x3493 JUMP JUMPDEST PUSH2 0xCDF JUMP JUMPDEST PUSH1 0x40 MLOAD PUSH2 0x448 SWAP2 SWAP1 PUSH2 0x3313 JUMP JUMPDEST PUSH1 0x40 MLOAD DUP1 SWAP2 SUB SWAP1 RETURN JUMPDEST CALLVALUE DUP1 ISZERO PUSH2 0x45D JUMPI PUSH1 0x0 DUP1 REVERT JUMPDEST POP PUSH2 0x478 PUSH1 0x4 DUP1 CALLDATASIZE SUB DUP2 ADD SWAP1 PUSH2 0x473 SWAP2 SWAP1 PUSH2 0x34D3 JUMP JUMPDEST PUSH2 0xD76 JUMP JUMPDEST PUSH1 0x40 MLOAD PUSH2 0x485 SWAP2 SWAP1 PUSH2 0x3313 JUMP JUMPDEST PUSH1 0x40 MLOAD DUP1 SWAP2 SUB SWAP1 RETURN JUMPDEST CALLVALUE DUP1 ISZERO PUSH2 0x49A JUMPI PUSH1 0x0 DUP1 REVERT JUMPDEST POP PUSH2 0x4B5 PUSH1 0x4 DUP1 CALLDATASIZE SUB DUP2 ADD SWAP1 PUSH2 0x4B0 SWAP2 SWAP1 PUSH2 0x31BC JUMP JUMPDEST PUSH2 0xE30 JUMP JUMPDEST STOP JUMPDEST CALLVALUE DUP1 ISZERO PUSH2 0x4C3 JUMPI PUSH1 0x0 DUP1 REVERT JUMPDEST POP PUSH2 0x4CC PUSH2 0x1209 JUMP JUMPDEST PUSH1 0x40 MLOAD PUSH2 0x4D9 SWAP2 SWAP1 PUSH2 0x316E JUMP JUMPDEST PUSH1 0x40 MLOAD DUP1 SWAP2 SUB SWAP1 RETURN JUMPDEST PUSH2 0x4FC PUSH1 0x4 DUP1 CALLDATASIZE SUB DUP2 ADD SWAP1 PUSH2 0x4F7 SWAP2 SWAP1 PUSH2 0x31BC JUMP JUMPDEST PUSH2 0x129B JUMP JUMPDEST STOP JUMPDEST CALLVALUE DUP1 ISZERO PUSH2 0x50A JUMPI PUSH1 0x0 DUP1 REVERT JUMPDEST POP PUSH2 0x525 PUSH1 0x4 DUP1 CALLDATASIZE SUB DUP2 ADD SWAP1 PUSH2 0x520 SWAP2 SWAP1 PUSH2 0x352C JUMP JUMPDEST PUSH2 0x17A2 JUMP JUMPDEST STOP JUMPDEST CALLVALUE DUP1 ISZERO PUSH2 0x533 JUMPI PUSH1 0x0 DUP1 REVERT JUMPDEST POP PUSH2 0x54E PUSH1 0x4 DUP1 CALLDATASIZE SUB DUP2 ADD SWAP1 PUSH2 0x549 SWAP2 SWAP1 PUSH2 0x36A1 JUMP JUMPDEST PUSH2 0x17B8 JUMP JUMPDEST STOP JUMPDEST CALLVALUE DUP1 ISZERO PUSH2 0x55C JUMPI PUSH1 0x0 DUP1 REVERT JUMPDEST POP PUSH2 0x577 PUSH1 0x4 DUP1 CALLDATASIZE SUB DUP2 ADD SWAP1 PUSH2 0x572 SWAP2 SWAP1 PUSH2 0x31BC JUMP JUMPDEST PUSH2 0x17D5 JUMP JUMPDEST STOP JUMPDEST CALLVALUE DUP1 ISZERO PUSH2 0x585 JUMPI PUSH1 0x0 DUP1 REVERT JUMPDEST POP PUSH2 0x5A0 PUSH1 0x4 DUP1 CALLDATASIZE SUB DUP2 ADD SWAP1 PUSH2 0x59B SWAP2 SWAP1 PUSH2 0x34D3 JUMP JUMPDEST PUSH2 0x1A76 JUMP JUMPDEST STOP JUMPDEST CALLVALUE DUP1 ISZERO PUSH2 0x5AE JUMPI PUSH1 0x0 DUP1 REVERT JUMPDEST POP PUSH2 0x5C9 PUSH1 0x4 DUP1 CALLDATASIZE SUB DUP2 ADD SWAP1 PUSH2 0x5C4 SWAP2 SWAP1 PUSH2 0x31BC JUMP JUMPDEST PUSH2 0x1AFC JUMP JUMPDEST PUSH1 0x40 MLOAD PUSH2 0x5D6 SWAP2 SWAP1 PUSH2 0x316E JUMP JUMPDEST PUSH1 0x40 MLOAD DUP1 SWAP2 SUB SWAP1 RETURN JUMPDEST CALLVALUE DUP1 ISZERO PUSH2 0x5EB JUMPI PUSH1 0x0 DUP1 REVERT JUMPDEST POP PUSH2 0x606 PUSH1 0x4 DUP1 CALLDATASIZE SUB DUP2 ADD SWAP1 PUSH2 0x601 SWAP2 SWAP1 PUSH2 0x31BC JUMP JUMPDEST PUSH2 0x1C0F JUMP JUMPDEST STOP JUMPDEST CALLVALUE DUP1 ISZERO PUSH2 0x614 JUMPI PUSH1 0x0 DUP1 REVERT JUMPDEST POP PUSH2 0x62F PUSH1 0x4 DUP1 CALLDATASIZE SUB DUP2 ADD SWAP1 PUSH2 0x62A SWAP2 SWAP1 PUSH2 0x37C5 JUMP JUMPDEST PUSH2 0x1DD0 JUMP JUMPDEST STOP JUMPDEST CALLVALUE DUP1 ISZERO PUSH2 0x63D JUMPI PUSH1 0x0 DUP1 REVERT JUMPDEST POP PUSH2 0x658 PUSH1 0x4 DUP1 CALLDATASIZE SUB DUP2 ADD SWAP1 PUSH2 0x653 SWAP2 SWAP1 PUSH2 0x3883 JUMP JUMPDEST PUSH2 0x1FC4 JUMP JUMPDEST PUSH1 0x40 MLOAD PUSH2 0x665 SWAP2 SWAP1 PUSH2 0x30C3 JUMP JUMPDEST PUSH1 0x40 MLOAD DUP1 SWAP2 SUB SWAP1 RETURN JUMPDEST POP JUMP JUMPDEST PUSH1 0x0 PUSH4 0x49064906 PUSH1 0xE0 SHL PUSH28 0xFFFFFFFFFFFFFFFFFFFFFFFFFFFFFFFFFFFFFFFFFFFFFFFFFFFFFFFF NOT AND DUP3 PUSH28 0xFFFFFFFFFFFFFFFFFFFFFFFFFFFFFFFFFFFFFFFFFFFFFFFFFFFFFFFF NOT AND EQ DUP1 PUSH2 0x6CB JUMPI POP PUSH2 0x6CA DUP3 PUSH2 0x2058 JUMP JUMPDEST JUMPDEST SWAP1 POP SWAP2 SWAP1 POP JUMP JUMPDEST PUSH1 0x60 PUSH1 0x0 DUP1 SLOAD PUSH2 0x6E1 SWAP1 PUSH2 0x38F2 JUMP JUMPDEST DUP1 PUSH1 0x1F ADD PUSH1 0x20 DUP1 SWAP2 DIV MUL PUSH1 0x20 ADD PUSH1 0x40 MLOAD SWAP1 DUP2 ADD PUSH1 0x40 MSTORE DUP1 SWAP3 SWAP2 SWAP1 DUP2 DUP2 MSTORE PUSH1 0x20 ADD DUP3 DUP1 SLOAD PUSH2 0x70D SWAP1 PUSH2 0x38F2 JUMP JUMPDEST DUP1 ISZERO PUSH2 0x75A JUMPI DUP1 PUSH1 0x1F LT PUSH2 0x72F JUMPI PUSH2 0x100 DUP1 DUP4 SLOAD DIV MUL DUP4 MSTORE SWAP2 PUSH1 0x20 ADD SWAP2 PUSH2 0x75A JUMP JUMPDEST DUP3 ADD SWAP2 SWAP1 PUSH1 0x0 MSTORE PUSH1 0x20 PUSH1 0x0 KECCAK256 SWAP1 JUMPDEST DUP2 SLOAD DUP2 MSTORE SWAP1 PUSH1 0x1 ADD SWAP1 PUSH1 0x20 ADD DUP1 DUP4 GT PUSH2 0x73D JUMPI DUP3 SWAP1 SUB PUSH1 0x1F AND DUP3 ADD SWAP2 JUMPDEST POP POP POP POP POP SWAP1 POP SWAP1 JUMP JUMPDEST PUSH1 0x0 PUSH2 0x76F DUP3 PUSH2 0x213A JUMP JUMPDEST POP PUSH2 0x779 DUP3 PUSH2 0x21C2 JUMP JUMPDEST SWAP1 POP SWAP2 SWAP1 POP JUMP JUMPDEST PUSH2 0x792 DUP3 DUP3 PUSH2 0x78D PUSH2 0x21FF JUMP JUMPDEST PUSH2 0x2207 JUMP JUMPDEST POP POP JUMP JUMPDEST PUSH1 0x0 PUSH20 0xFFFFFFFFFFFFFFFFFFFFFFFFFFFFFFFFFFFFFFFF AND DUP3 PUSH20 0xFFFFFFFFFFFFFFFFFFFFFFFFFFFFFFFFFFFFFFFF AND SUB PUSH2 0x808 JUMPI PUSH1 0x0 PUSH1 0x40 MLOAD PUSH32 0x64A0AE9200000000000000000000000000000000000000000000000000000000 DUP2 MSTORE PUSH1 0x4 ADD PUSH2 0x7FF SWAP2 SWAP1 PUSH2 0x322A JUMP JUMPDEST PUSH1 0x40 MLOAD DUP1 SWAP2 SUB SWAP1 REVERT JUMPDEST PUSH1 0x0 PUSH2 0x81C DUP4 DUP4 PUSH2 0x817 PUSH2 0x21FF JUMP JUMPDEST PUSH2 0x2219 JUMP JUMPDEST SWAP1 POP DUP4 PUSH20 0xFFFFFFFFFFFFFFFFFFFFFFFFFFFFFFFFFFFFFFFF AND DUP2 PUSH20 0xFFFFFFFFFFFFFFFFFFFFFFFFFFFFFFFFFFFFFFFF AND EQ PUSH2 0x892 JUMPI DUP4 DUP3 DUP3 PUSH1 0x40 MLOAD PUSH32 0x64283D7B00000000000000000000000000000000000000000000000000000000 DUP2 MSTORE PUSH1 0x4 ADD PUSH2 0x889 SWAP4 SWAP3 SWAP2 SWAP1 PUSH2 0x3923 JUMP JUMPDEST PUSH1 0x40 MLOAD DUP1 SWAP2 SUB SWAP1 REVERT JUMPDEST POP POP POP POP JUMP JUMPDEST PUSH1 0x0 PUSH2 0x8AE PUSH8 0x770BB48D51C84048 PUSH1 0xC0 SHL PUSH2 0x66E JUMP JUMPDEST PUSH2 0x8C2 PUSH8 0x32707B7A400D00C3 PUSH1 0xC0 SHL PUSH2 0x66E JUMP JUMPDEST PUSH2 0x8D6 PUSH8 0xD23543A905391538 PUSH1 0xC0 SHL PUSH2 0x66E JUMP JUMPDEST PUSH1 0x9 PUSH1 0x0 CALLER PUSH20 0xFFFFFFFFFFFFFFFFFFFFFFFFFFFFFFFFFFFFFFFF AND PUSH20 0xFFFFFFFFFFFFFFFFFFFFFFFFFFFFFFFFFFFFFFFF AND DUP2 MSTORE PUSH1 0x20 ADD SWAP1 DUP2 MSTORE PUSH1 0x20 ADD PUSH1 0x0 KECCAK256 SLOAD SWAP1 POP SWAP1 JUMP JUMPDEST PUSH2 0x936 DUP4 DUP4 DUP4 PUSH1 0x40 MLOAD DUP1 PUSH1 0x20 ADD PUSH1 0x40 MSTORE DUP1 PUSH1 0x0 DUP2 MSTORE POP PUSH2 0x17B8 JUMP JUMPDEST POP POP POP JUMP JUMPDEST PUSH2 0x94F PUSH8 0x86801BF9939FA0AA PUSH1 0xC0 SHL PUSH2 0x66E JUMP JUMPDEST DUP1 PUSH2 0x964 PUSH8 0xDE9187ACE01DA3EC PUSH1 0xC0 SHL PUSH2 0x66E JUMP JUMPDEST PUSH2 0x978 PUSH8 0xD7D791B2E02FCC1D PUSH1 0xC0 SHL PUSH2 0x66E JUMP JUMPDEST PUSH2 0x98C PUSH8 0x8A94E3426174C909 PUSH1 0xC0 SHL PUSH2 0x66E JUMP JUMPDEST PUSH2 0x9A0 PUSH8 0x5656893D4D37BDEC PUSH1 0xC0 SHL PUSH2 0x66E JUMP JUMPDEST PUSH1 0x7 PUSH1 0x0 DUP3 DUP2 MSTORE PUSH1 0x20 ADD SWAP1 DUP2 MSTORE PUSH1 0x20 ADD PUSH1 0x0 KECCAK256 PUSH1 0x0 ADD PUSH1 0x0 SWAP1 SLOAD SWAP1 PUSH2 0x100 EXP SWAP1 DIV PUSH20 0xFFFFFFFFFFFFFFFFFFFFFFFFFFFFFFFFFFFFFFFF AND PUSH20 0xFFFFFFFFFFFFFFFFFFFFFFFFFFFFFFFFFFFFFFFF AND CALLER PUSH20 0xFFFFFFFFFFFFFFFFFFFFFFFFFFFFFFFFFFFFFFFF AND EQ PUSH2 0xA44 JUMPI PUSH1 0x40 MLOAD PUSH32 0x8C379A000000000000000000000000000000000000000000000000000000000 DUP2 MSTORE PUSH1 0x4 ADD PUSH2 0xA3B SWAP1 PUSH2 0x39A6 JUMP JUMPDEST PUSH1 0x40 MLOAD DUP1 SWAP2 SUB SWAP1 REVERT JUMPDEST PUSH2 0xA58 PUSH8 0x8A06BE579D6B7184 PUSH1 0xC0 SHL PUSH2 0x66E JUMP JUMPDEST PUSH2 0xA6C PUSH8 0x4E9DC40EC31259BF PUSH1 0xC0 SHL PUSH2 0x66E JUMP JUMPDEST PUSH2 0xA80 PUSH8 0xE30BA001F1745BF1 PUSH1 0xC0 SHL PUSH2 0x66E JUMP JUMPDEST PUSH2 0xA94 PUSH8 0xF79B2DD789380276 PUSH1 0xC0 SHL PUSH2 0x66E JUMP JUMPDEST PUSH2 0xAA8 PUSH8 0x6CA8D62F5A718E37 PUSH1 0xC0 SHL PUSH2 0x66E JUMP JUMPDEST DUP3 PUSH1 0x7 PUSH1 0x0 DUP5 DUP2 MSTORE PUSH1 0x20 ADD SWAP1 DUP2 MSTORE PUSH1 0x20 ADD PUSH1 0x0 KECCAK256 PUSH1 0x4 ADD PUSH1 0x0 DUP3 DUP3 SLOAD PUSH2 0xACE SWAP2 SWAP1 PUSH2 0x2FDB JUMP JUMPDEST SWAP3 POP POP DUP2 SWAP1 SSTORE POP POP POP POP JUMP JUMPDEST PUSH1 0x0 PUSH2 0xAE5 DUP3 PUSH2 0x213A JUMP JUMPDEST SWAP1 POP SWAP2 SWAP1 POP JUMP JUMPDEST PUSH2 0xAF4 PUSH2 0x2F40 JUMP JUMPDEST PUSH2 0xB08 PUSH8 0x290E007D4827C346 PUSH1 0xC0 SHL PUSH2 0x66E JUMP JUMPDEST PUSH2 0xB1C PUSH8 0x8D1C060024D44291 PUSH1 0xC0 SHL PUSH2 0x66E JUMP JUMPDEST PUSH2 0xB30 PUSH8 0x6D428F52F2FD6A8C PUSH1 0xC0 SHL PUSH2 0x66E JUMP JUMPDEST PUSH1 0x0 PUSH1 0x7 PUSH1 0x0 DUP5 DUP2 MSTORE PUSH1 0x20 ADD SWAP1 DUP2 MSTORE PUSH1 0x20 ADD PUSH1 0x0 KECCAK256 PUSH1 0x40 MLOAD DUP1 PUSH1 0xC0 ADD PUSH1 0x40 MSTORE SWAP1 DUP2 PUSH1 0x0 DUP3 ADD PUSH1 0x0 SWAP1 SLOAD SWAP1 PUSH2 0x100 EXP SWAP1 DIV PUSH20 0xFFFFFFFFFFFFFFFFFFFFFFFFFFFFFFFFFFFFFFFF AND PUSH20 0xFFFFFFFFFFFFFFFFFFFFFFFFFFFFFFFFFFFFFFFF AND PUSH20 0xFFFFFFFFFFFFFFFFFFFFFFFFFFFFFFFFFFFFFFFF AND DUP2 MSTORE PUSH1 0x20 ADD PUSH1 0x1 DUP3 ADD PUSH1 0x0 SWAP1 SLOAD SWAP1 PUSH2 0x100 EXP SWAP1 DIV PUSH20 0xFFFFFFFFFFFFFFFFFFFFFFFFFFFFFFFFFFFFFFFF AND PUSH20 0xFFFFFFFFFFFFFFFFFFFFFFFFFFFFFFFFFFFFFFFF AND PUSH20 0xFFFFFFFFFFFFFFFFFFFFFFFFFFFFFFFFFFFFFFFF AND DUP2 MSTORE PUSH1 0x20 ADD PUSH1 0x2 DUP3 ADD SLOAD DUP2 MSTORE PUSH1 0x20 ADD PUSH1 0x3 DUP3 ADD SLOAD DUP2 MSTORE PUSH1 0x20 ADD PUSH1 0x4 DUP3 ADD SLOAD DUP2 MSTORE PUSH1 0x20 ADD PUSH1 0x5 DUP3 ADD DUP1 SLOAD PUSH2 0xC2A SWAP1 PUSH2 0x38F2 JUMP JUMPDEST DUP1 PUSH1 0x1F ADD PUSH1 0x20 DUP1 SWAP2 DIV MUL PUSH1 0x20 ADD PUSH1 0x40 MLOAD SWAP1 DUP2 ADD PUSH1 0x40 MSTORE DUP1 SWAP3 SWAP2 SWAP1 DUP2 DUP2 MSTORE PUSH1 0x20 ADD DUP3 DUP1 SLOAD PUSH2 0xC56 SWAP1 PUSH2 0x38F2 JUMP JUMPDEST DUP1 ISZERO PUSH2 0xCA3 JUMPI DUP1 PUSH1 0x1F LT PUSH2 0xC78 JUMPI PUSH2 0x100 DUP1 DUP4 SLOAD DIV MUL DUP4 MSTORE SWAP2 PUSH1 0x20 ADD SWAP2 PUSH2 0xCA3 JUMP JUMPDEST DUP3 ADD SWAP2 SWAP1 PUSH1 0x0 MSTORE PUSH1 0x20 PUSH1 0x0 KECCAK256 SWAP1 JUMPDEST DUP2 SLOAD DUP2 MSTORE SWAP1 PUSH1 0x1 ADD SWAP1 PUSH1 0x20 ADD DUP1 DUP4 GT PUSH2 0xC86 JUMPI DUP3 SWAP1 SUB PUSH1 0x1F AND DUP3 ADD SWAP2 JUMPDEST POP POP POP POP POP DUP2 MSTORE POP POP SWAP1 POP PUSH2 0xCC2 PUSH8 0xC3359B200F281578 PUSH1 0xC0 SHL PUSH2 0x66E JUMP JUMPDEST PUSH2 0xCD6 PUSH8 0xA9C7909CE64DDE4A PUSH1 0xC0 SHL PUSH2 0x66E JUMP JUMPDEST DUP1 SWAP2 POP POP SWAP2 SWAP1 POP JUMP JUMPDEST PUSH1 0x0 PUSH2 0xCF5 PUSH8 0xF18857BF3085E2F7 PUSH1 0xC0 SHL PUSH2 0x66E JUMP JUMPDEST PUSH2 0xD09 PUSH8 0x8DF8482E167A6270 PUSH1 0xC0 SHL PUSH2 0x66E JUMP JUMPDEST PUSH2 0xD1D PUSH8 0x96EEC1A24DC2537 PUSH1 0xC0 SHL PUSH2 0x66E JUMP JUMPDEST PUSH1 0x8 PUSH1 0x0 DUP4 PUSH20 0xFFFFFFFFFFFFFFFFFFFFFFFFFFFFFFFFFFFFFFFF AND PUSH20 0xFFFFFFFFFFFFFFFFFFFFFFFFFFFFFFFFFFFFFFFF AND DUP2 MSTORE PUSH1 0x20 ADD SWAP1 DUP2 MSTORE PUSH1 0x20 ADD PUSH1 0x0 KECCAK256 PUSH1 0x0 DUP5 DUP2 MSTORE PUSH1 0x20 ADD SWAP1 DUP2 MSTORE PUSH1 0x20 ADD PUSH1 0x0 KECCAK256 SLOAD SWAP1 POP SWAP3 SWAP2 POP POP JUMP JUMPDEST PUSH1 0x0 DUP1 PUSH20 0xFFFFFFFFFFFFFFFFFFFFFFFFFFFFFFFFFFFFFFFF AND DUP3 PUSH20 0xFFFFFFFFFFFFFFFFFFFFFFFFFFFFFFFFFFFFFFFF AND SUB PUSH2 0xDE9 JUMPI PUSH1 0x0 PUSH1 0x40 MLOAD PUSH32 0x89C62B6400000000000000000000000000000000000000000000000000000000 DUP2 MSTORE PUSH1 0x4 ADD PUSH2 0xDE0 SWAP2 SWAP1 PUSH2 0x322A JUMP JUMPDEST PUSH1 0x40 MLOAD DUP1 SWAP2 SUB SWAP1 REVERT JUMPDEST PUSH1 0x3 PUSH1 0x0 DUP4 PUSH20 0xFFFFFFFFFFFFFFFFFFFFFFFFFFFFFFFFFFFFFFFF AND PUSH20 0xFFFFFFFFFFFFFFFFFFFFFFFFFFFFFFFFFFFFFFFF AND DUP2 MSTORE PUSH1 0x20 ADD SWAP1 DUP2 MSTORE PUSH1 0x20 ADD PUSH1 0x0 KECCAK256 SLOAD SWAP1 POP SWAP2 SWAP1 POP JUMP JUMPDEST PUSH2 0xE44 PUSH8 0xAC0E1FBFAD84F1C0 PUSH1 0xC0 SHL PUSH2 0x66E JUMP JUMPDEST PUSH2 0xE58 PUSH8 0x99D38162502A1742 PUSH1 0xC0 SHL PUSH2 0x66E JUMP JUMPDEST PUSH2 0xE6C PUSH8 0xDAA363851365A359 PUSH1 0xC0 SHL PUSH2 0x66E JUMP JUMPDEST PUSH1 0x0 PUSH1 0x7 PUSH1 0x0 DUP4 DUP2 MSTORE PUSH1 0x20 ADD SWAP1 DUP2 MSTORE PUSH1 0x20 ADD PUSH1 0x0 KECCAK256 PUSH1 0x40 MLOAD DUP1 PUSH1 0xC0 ADD PUSH1 0x40 MSTORE SWAP1 DUP2 PUSH1 0x0 DUP3 ADD PUSH1 0x0 SWAP1 SLOAD SWAP1 PUSH2 0x100 EXP SWAP1 DIV PUSH20 0xFFFFFFFFFFFFFFFFFFFFFFFFFFFFFFFFFFFFFFFF AND PUSH20 0xFFFFFFFFFFFFFFFFFFFFFFFFFFFFFFFFFFFFFFFF AND PUSH20 0xFFFFFFFFFFFFFFFFFFFFFFFFFFFFFFFFFFFFFFFF AND DUP2 MSTORE PUSH1 0x20 ADD PUSH1 0x1 DUP3 ADD PUSH1 0x0 SWAP1 SLOAD SWAP1 PUSH2 0x100 EXP SWAP1 DIV PUSH20 0xFFFFFFFFFFFFFFFFFFFFFFFFFFFFFFFFFFFFFFFF AND PUSH20 0xFFFFFFFFFFFFFFFFFFFFFFFFFFFFFFFFFFFFFFFF AND PUSH20 0xFFFFFFFFFFFFFFFFFFFFFFFFFFFFFFFFFFFFFFFF AND DUP2 MSTORE PUSH1 0x20 ADD PUSH1 0x2 DUP3 ADD SLOAD DUP2 MSTORE PUSH1 0x20 ADD PUSH1 0x3 DUP3 ADD SLOAD DUP2 MSTORE PUSH1 0x20 ADD PUSH1 0x4 DUP3 ADD SLOAD DUP2 MSTORE PUSH1 0x20 ADD PUSH1 0x5 DUP3 ADD DUP1 SLOAD PUSH2 0xF66 SWAP1 PUSH2 0x38F2 JUMP JUMPDEST DUP1 PUSH1 0x1F ADD PUSH1 0x20 DUP1 SWAP2 DIV MUL PUSH1 0x20 ADD PUSH1 0x40 MLOAD SWAP1 DUP2 ADD PUSH1 0x40 MSTORE DUP1 SWAP3 SWAP2 SWAP1 DUP2 DUP2 MSTORE PUSH1 0x20 ADD DUP3 DUP1 SLOAD PUSH2 0xF92 SWAP1 PUSH2 0x38F2 JUMP JUMPDEST DUP1 ISZERO PUSH2 0xFDF JUMPI DUP1 PUSH1 0x1F LT PUSH2 0xFB4 JUMPI PUSH2 0x100 DUP1 DUP4 SLOAD DIV MUL DUP4 MSTORE SWAP2 PUSH1 0x20 ADD SWAP2 PUSH2 0xFDF JUMP JUMPDEST DUP3 ADD SWAP2 SWAP1 PUSH1 0x0 MSTORE PUSH1 0x20 PUSH1 0x0 KECCAK256 SWAP1 JUMPDEST DUP2 SLOAD DUP2 MSTORE SWAP1 PUSH1 0x1 ADD SWAP1 PUSH1 0x20 ADD DUP1 DUP4 GT PUSH2 0xFC2 JUMPI DUP3 SWAP1 SUB PUSH1 0x1F AND DUP3 ADD SWAP2 JUMPDEST POP POP POP POP POP DUP2 MSTORE POP POP SWAP1 POP PUSH2 0xFFE PUSH8 0x9E7BCB2C00ED935B PUSH1 0xC0 SHL PUSH2 0x66E JUMP JUMPDEST PUSH2 0x1012 PUSH8 0x3391B3681F214624 PUSH1 0xC0 SHL PUSH2 0x66E JUMP JUMPDEST PUSH2 0x1026 PUSH8 0x9CF7D73328E85434 PUSH1 0xC0 SHL PUSH2 0x66E JUMP JUMPDEST DUP1 PUSH1 0x60 ADD MLOAD PUSH1 0x8 PUSH1 0x0 DUP4 PUSH1 0x0 ADD MLOAD PUSH20 0xFFFFFFFFFFFFFFFFFFFFFFFFFFFFFFFFFFFFFFFF AND PUSH20 0xFFFFFFFFFFFFFFFFFFFFFFFFFFFFFFFFFFFFFFFF AND DUP2 MSTORE PUSH1 0x20 ADD SWAP1 DUP2 MSTORE PUSH1 0x20 ADD PUSH1 0x0 KECCAK256 PUSH1 0x0 DUP5 DUP2 MSTORE PUSH1 0x20 ADD SWAP1 DUP2 MSTORE PUSH1 0x20 ADD PUSH1 0x0 KECCAK256 SLOAD LT ISZERO PUSH2 0x10C1 JUMPI PUSH1 0x40 MLOAD PUSH32 0x8C379A000000000000000000000000000000000000000000000000000000000 DUP2 MSTORE PUSH1 0x4 ADD PUSH2 0x10B8 SWAP1 PUSH2 0x3A12 JUMP JUMPDEST PUSH1 0x40 MLOAD DUP1 SWAP2 SUB SWAP1 REVERT JUMPDEST PUSH2 0x10D5 PUSH8 0x59C072656EF41F1D PUSH1 0xC0 SHL PUSH2 0x66E JUMP JUMPDEST PUSH2 0x10E9 PUSH8 0x38209655E4D3974D PUSH1 0xC0 SHL PUSH2 0x66E JUMP JUMPDEST PUSH1 0x8 PUSH1 0x0 DUP3 PUSH1 0x0 ADD MLOAD PUSH20 0xFFFFFFFFFFFFFFFFFFFFFFFFFFFFFFFFFFFFFFFF AND PUSH20 0xFFFFFFFFFFFFFFFFFFFFFFFFFFFFFFFFFFFFFFFF AND DUP2 MSTORE PUSH1 0x20 ADD SWAP1 DUP2 MSTORE PUSH1 0x20 ADD PUSH1 0x0 KECCAK256 PUSH1 0x0 DUP4 DUP2 MSTORE PUSH1 0x20 ADD SWAP1 DUP2 MSTORE PUSH1 0x20 ADD PUSH1 0x0 KECCAK256 SLOAD PUSH1 0x9 PUSH1 0x0 DUP4 PUSH1 0x0 ADD MLOAD PUSH20 0xFFFFFFFFFFFFFFFFFFFFFFFFFFFFFFFFFFFFFFFF AND PUSH20 0xFFFFFFFFFFFFFFFFFFFFFFFFFFFFFFFFFFFFFFFF AND DUP2 MSTORE PUSH1 0x20 ADD SWAP1 DUP2 MSTORE PUSH1 0x20 ADD PUSH1 0x0 KECCAK256 PUSH1 0x0 DUP3 DUP3 SLOAD PUSH2 0x1190 SWAP2 SWAP1 PUSH2 0x2FDB JUMP JUMPDEST SWAP3 POP POP DUP2 SWAP1 SSTORE POP PUSH2 0x11AB PUSH8 0x9605A5A55CAA61B1 PUSH1 0xC0 SHL PUSH2 0x66E JUMP JUMPDEST PUSH1 0x0 PUSH1 0x8 PUSH1 0x0 DUP4 PUSH1 0x0 ADD MLOAD PUSH20 0xFFFFFFFFFFFFFFFFFFFFFFFFFFFFFFFFFFFFFFFF AND PUSH20 0xFFFFFFFFFFFFFFFFFFFFFFFFFFFFFFFFFFFFFFFF AND DUP2 MSTORE PUSH1 0x20 ADD SWAP1 DUP2 MSTORE PUSH1 0x20 ADD PUSH1 0x0 KECCAK256 PUSH1 0x0 DUP5 DUP2 MSTORE PUSH1 0x20 ADD SWAP1 DUP2 MSTORE PUSH1 0x20 ADD PUSH1 0x0 KECCAK256 DUP2 SWAP1 SSTORE POP POP POP JUMP JUMPDEST PUSH1 0x60 PUSH1 0x1 DUP1 SLOAD PUSH2 0x1218 SWAP1 PUSH2 0x38F2 JUMP JUMPDEST DUP1 PUSH1 0x1F ADD PUSH1 0x20 DUP1 SWAP2 DIV MUL PUSH1 0x20 ADD PUSH1 0x40 MLOAD SWAP1 DUP2 ADD PUSH1 0x40 MSTORE DUP1 SWAP3 SWAP2 SWAP1 DUP2 DUP2 MSTORE PUSH1 0x20 ADD DUP3 DUP1 SLOAD PUSH2 0x1244 SWAP1 PUSH2 0x38F2 JUMP JUMPDEST DUP1 ISZERO PUSH2 0x1291 JUMPI DUP1 PUSH1 0x1F LT PUSH2 0x1266 JUMPI PUSH2 0x100 DUP1 DUP4 SLOAD DIV MUL DUP4 MSTORE SWAP2 PUSH1 0x20 ADD SWAP2 PUSH2 0x1291 JUMP JUMPDEST DUP3 ADD SWAP2 SWAP1 PUSH1 0x0 MSTORE PUSH1 0x20 PUSH1 0x0 KECCAK256 SWAP1 JUMPDEST DUP2 SLOAD DUP2 MSTORE SWAP1 PUSH1 0x1 ADD SWAP1 PUSH1 0x20 ADD DUP1 DUP4 GT PUSH2 0x1274 JUMPI DUP3 SWAP1 SUB PUSH1 0x1F AND DUP3 ADD SWAP2 JUMPDEST POP POP POP POP POP SWAP1 POP SWAP1 JUMP JUMPDEST PUSH2 0x12AF PUSH8 0xC3C795853C7F33E3 PUSH1 0xC0 SHL PUSH2 0x66E JUMP JUMPDEST DUP1 PUSH2 0x12C4 PUSH8 0xDE9187ACE01DA3EC PUSH1 0xC0 SHL PUSH2 0x66E JUMP JUMPDEST PUSH2 0x12D8 PUSH8 0xD7D791B2E02FCC1D PUSH1 0xC0 SHL PUSH2 0x66E JUMP JUMPDEST PUSH2 0x12EC PUSH8 0x8A94E3426174C909 PUSH1 0xC0 SHL PUSH2 0x66E JUMP JUMPDEST PUSH2 0x1300 PUSH8 0x5656893D4D37BDEC PUSH1 0xC0 SHL PUSH2 0x66E JUMP JUMPDEST PUSH1 0x7 PUSH1 0x0 DUP3 DUP2 MSTORE PUSH1 0x20 ADD SWAP1 DUP2 MSTORE PUSH1 0x20 ADD PUSH1 0x0 KECCAK256 PUSH1 0x0 ADD PUSH1 0x0 SWAP1 SLOAD SWAP1 PUSH2 0x100 EXP SWAP1 DIV PUSH20 0xFFFFFFFFFFFFFFFFFFFFFFFFFFFFFFFFFFFFFFFF AND PUSH20 0xFFFFFFFFFFFFFFFFFFFFFFFFFFFFFFFFFFFFFFFF AND CALLER PUSH20 0xFFFFFFFFFFFFFFFFFFFFFFFFFFFFFFFFFFFFFFFF AND EQ PUSH2 0x13A4 JUMPI PUSH1 0x40 MLOAD PUSH32 0x8C379A000000000000000000000000000000000000000000000000000000000 DUP2 MSTORE PUSH1 0x4 ADD PUSH2 0x139B SWAP1 PUSH2 0x39A6 JUMP JUMPDEST PUSH1 0x40 MLOAD DUP1 SWAP2 SUB SWAP1 REVERT JUMPDEST PUSH2 0x13B8 PUSH8 0x8A06BE579D6B7184 PUSH1 0xC0 SHL PUSH2 0x66E JUMP JUMPDEST PUSH2 0x13CC PUSH8 0x4E9DC40EC31259BF PUSH1 0xC0 SHL PUSH2 0x66E JUMP JUMPDEST PUSH2 0x13E0 PUSH8 0x939127A2CFF73263 PUSH1 0xC0 SHL PUSH2 0x66E JUMP JUMPDEST PUSH2 0x13F4 PUSH8 0x90A2B22DDE0B3A8D PUSH1 0xC0 SHL PUSH2 0x66E JUMP JUMPDEST PUSH2 0x1408 PUSH8 0x80FFA3A6E374F7E1 PUSH1 0xC0 SHL PUSH2 0x66E JUMP JUMPDEST PUSH2 0x141C PUSH8 0x6D6A3A05A4C9D336 PUSH1 0xC0 SHL PUSH2 0x66E JUMP JUMPDEST PUSH1 0x0 PUSH1 0x8 PUSH1 0x0 CALLER PUSH20 0xFFFFFFFFFFFFFFFFFFFFFFFFFFFFFFFFFFFFFFFF AND PUSH20 0xFFFFFFFFFFFFFFFFFFFFFFFFFFFFFFFFFFFFFFFF AND DUP2 MSTORE PUSH1 0x20 ADD SWAP1 DUP2 MSTORE PUSH1 0x20 ADD PUSH1 0x0 KECCAK256 PUSH1 0x0 DUP5 DUP2 MSTORE PUSH1 0x20 ADD SWAP1 DUP2 MSTORE PUSH1 0x20 ADD PUSH1 0x0 KECCAK256 SLOAD GT PUSH2 0x171F JUMPI PUSH2 0x1488 PUSH8 0xA691212999198D04 PUSH1 0xC0 SHL PUSH2 0x66E JUMP JUMPDEST PUSH2 0x149C PUSH8 0x1F650B42F2F0B130 PUSH1 0xC0 SHL PUSH2 0x66E JUMP JUMPDEST PUSH2 0x14B0 PUSH8 0xD3F4518F082C2A8B PUSH1 0xC0 SHL PUSH2 0x66E JUMP JUMPDEST PUSH2 0x14C4 PUSH8 0xDF16A8D7B112A21F PUSH1 0xC0 SHL PUSH2 0x66E JUMP JUMPDEST PUSH1 0x7 PUSH1 0x0 DUP4 DUP2 MSTORE PUSH1 0x20 ADD SWAP1 DUP2 MSTORE PUSH1 0x20 ADD PUSH1 0x0 KECCAK256 PUSH1 0x3 ADD SLOAD CALLVALUE LT ISZERO PUSH2 0x151D JUMPI PUSH1 0x40 MLOAD PUSH32 0x8C379A000000000000000000000000000000000000000000000000000000000 DUP2 MSTORE PUSH1 0x4 ADD PUSH2 0x1514 SWAP1 PUSH2 0x3A7E JUMP JUMPDEST PUSH1 0x40 MLOAD DUP1 SWAP2 SUB SWAP1 REVERT JUMPDEST PUSH2 0x1531 PUSH8 0x58AFBE532010BE92 PUSH1 0xC0 SHL PUSH2 0x66E JUMP JUMPDEST PUSH2 0x1545 PUSH8 0x335B3E5968FE1B9D PUSH1 0xC0 SHL PUSH2 0x66E JUMP JUMPDEST PUSH1 0x7 PUSH1 0x0 DUP4 DUP2 MSTORE PUSH1 0x20 ADD SWAP1 DUP2 MSTORE PUSH1 0x20 ADD PUSH1 0x0 KECCAK256 PUSH1 0x3 ADD SLOAD PUSH1 0x8 PUSH1 0x0 CALLER PUSH20 0xFFFFFFFFFFFFFFFFFFFFFFFFFFFFFFFFFFFFFFFF AND PUSH20 0xFFFFFFFFFFFFFFFFFFFFFFFFFFFFFFFFFFFFFFFF AND DUP2 MSTORE PUSH1 0x20 ADD SWAP1 DUP2 MSTORE PUSH1 0x20 ADD PUSH1 0x0 KECCAK256 PUSH1 0x0 DUP5 DUP2 MSTORE PUSH1 0x20 ADD SWAP1 DUP2 MSTORE PUSH1 0x20 ADD PUSH1 0x0 KECCAK256 PUSH1 0x0 DUP3 DUP3 SLOAD PUSH2 0x15BB SWAP2 SWAP1 PUSH2 0x2FDB JUMP JUMPDEST SWAP3 POP POP DUP2 SWAP1 SSTORE POP PUSH2 0x15D6 PUSH8 0x542AE88330853D5D PUSH1 0xC0 SHL PUSH2 0x66E JUMP JUMPDEST PUSH1 0x7 PUSH1 0x0 DUP4 DUP2 MSTORE PUSH1 0x20 ADD SWAP1 DUP2 MSTORE PUSH1 0x20 ADD PUSH1 0x0 KECCAK256 PUSH1 0x3 ADD SLOAD CALLVALUE PUSH2 0x15F8 SWAP2 SWAP1 PUSH2 0x3A9E JUMP JUMPDEST PUSH1 0x9 PUSH1 0x0 CALLER PUSH20 0xFFFFFFFFFFFFFFFFFFFFFFFFFFFFFFFFFFFFFFFF AND PUSH20 0xFFFFFFFFFFFFFFFFFFFFFFFFFFFFFFFFFFFFFFFF AND DUP2 MSTORE PUSH1 0x20 ADD SWAP1 DUP2 MSTORE PUSH1 0x20 ADD PUSH1 0x0 KECCAK256 PUSH1 0x0 DUP3 DUP3 SLOAD PUSH2 0x1646 SWAP2 SWAP1 PUSH2 0x2FDB JUMP JUMPDEST SWAP3 POP POP DUP2 SWAP1 SSTORE POP PUSH2 0x1661 PUSH8 0x70403D95CAF7493 PUSH1 0xC0 SHL PUSH2 0x66E JUMP JUMPDEST PUSH2 0x1675 PUSH8 0xF926E1D054E9F740 PUSH1 0xC0 SHL PUSH2 0x66E JUMP JUMPDEST ADDRESS PUSH20 0xFFFFFFFFFFFFFFFFFFFFFFFFFFFFFFFFFFFFFFFF AND PUSH4 0x23B872DD ADDRESS PUSH1 0x7 PUSH1 0x0 DUP7 DUP2 MSTORE PUSH1 0x20 ADD SWAP1 DUP2 MSTORE PUSH1 0x20 ADD PUSH1 0x0 KECCAK256 PUSH1 0x0 ADD PUSH1 0x0 SWAP1 SLOAD SWAP1 PUSH2 0x100 EXP SWAP1 DIV PUSH20 0xFFFFFFFFFFFFFFFFFFFFFFFFFFFFFFFFFFFFFFFF AND DUP6 PUSH1 0x40 MLOAD DUP5 PUSH4 0xFFFFFFFF AND PUSH1 0xE0 SHL DUP2 MSTORE PUSH1 0x4 ADD PUSH2 0x16E8 SWAP4 SWAP3 SWAP2 SWAP1 PUSH2 0x3B31 JUMP JUMPDEST PUSH1 0x0 PUSH1 0x40 MLOAD DUP1 DUP4 SUB DUP2 PUSH1 0x0 DUP8 DUP1 EXTCODESIZE ISZERO DUP1 ISZERO PUSH2 0x1702 JUMPI PUSH1 0x0 DUP1 REVERT JUMPDEST POP GAS CALL ISZERO DUP1 ISZERO PUSH2 0x1716 JUMPI RETURNDATASIZE PUSH1 0x0 DUP1 RETURNDATACOPY RETURNDATASIZE PUSH1 0x0 REVERT JUMPDEST POP POP POP POP PUSH2 0x179E JUMP JUMPDEST PUSH2 0x1733 PUSH8 0x85237527C2651395 PUSH1 0xC0 SHL PUSH2 0x66E JUMP JUMPDEST PUSH2 0x1747 PUSH8 0xF676A444E42FF1F1 PUSH1 0xC0 SHL PUSH2 0x66E JUMP JUMPDEST CALLVALUE PUSH1 0x9 PUSH1 0x0 CALLER PUSH20 0xFFFFFFFFFFFFFFFFFFFFFFFFFFFFFFFFFFFFFFFF AND PUSH20 0xFFFFFFFFFFFFFFFFFFFFFFFFFFFFFFFFFFFFFFFF AND DUP2 MSTORE PUSH1 0x20 ADD SWAP1 DUP2 MSTORE PUSH1 0x20 ADD PUSH1 0x0 KECCAK256 PUSH1 0x0 DUP3 DUP3 SLOAD PUSH2 0x1796 SWAP2 SWAP1 PUSH2 0x2FDB JUMP JUMPDEST SWAP3 POP POP DUP2 SWAP1 SSTORE POP JUMPDEST POP POP JUMP JUMPDEST PUSH2 0x17B4 PUSH2 0x17AD PUSH2 0x21FF JUMP JUMPDEST DUP4 DUP4 PUSH2 0x2433 JUMP JUMPDEST POP POP JUMP JUMPDEST PUSH2 0x17C3 DUP5 DUP5 DUP5 PUSH2 0x796 JUMP JUMPDEST PUSH2 0x17CF DUP5 DUP5 DUP5 DUP5 PUSH2 0x25A2 JUMP JUMPDEST POP POP POP POP JUMP JUMPDEST PUSH2 0x17E9 PUSH8 0x8F0F66D07C31259 PUSH1 0xC0 SHL PUSH2 0x66E JUMP JUMPDEST PUSH2 0x17FD PUSH8 0xC48CCA7FAD733B0C PUSH1 0xC0 SHL PUSH2 0x66E JUMP JUMPDEST PUSH2 0x1811 PUSH8 0x818DB030703AF11A PUSH1 0xC0 SHL PUSH2 0x66E JUMP JUMPDEST PUSH2 0x1825 PUSH8 0xA640849872C58570 PUSH1 0xC0 SHL PUSH2 0x66E JUMP JUMPDEST PUSH1 0x7 PUSH1 0x0 DUP3 DUP2 MSTORE PUSH1 0x20 ADD SWAP1 DUP2 MSTORE PUSH1 0x20 ADD PUSH1 0x0 KECCAK256 PUSH1 0x3 ADD SLOAD PUSH1 0x9 PUSH1 0x0 PUSH1 0x7 PUSH1 0x0 DUP6 DUP2 MSTORE PUSH1 0x20 ADD SWAP1 DUP2 MSTORE PUSH1 0x20 ADD PUSH1 0x0 KECCAK256 PUSH1 0x0 ADD PUSH1 0x0 SWAP1 SLOAD SWAP1 PUSH2 0x100 EXP SWAP1 DIV PUSH20 0xFFFFFFFFFFFFFFFFFFFFFFFFFFFFFFFFFFFFFFFF AND PUSH20 0xFFFFFFFFFFFFFFFFFFFFFFFFFFFFFFFFFFFFFFFF AND PUSH20 0xFFFFFFFFFFFFFFFFFFFFFFFFFFFFFFFFFFFFFFFF AND DUP2 MSTORE PUSH1 0x20 ADD SWAP1 DUP2 MSTORE PUSH1 0x20 ADD PUSH1 0x0 KECCAK256 SLOAD LT ISZERO PUSH2 0x18F3 JUMPI PUSH1 0x40 MLOAD PUSH32 0x8C379A000000000000000000000000000000000000000000000000000000000 DUP2 MSTORE PUSH1 0x4 ADD PUSH2 0x18EA SWAP1 PUSH2 0x3BB4 JUMP JUMPDEST PUSH1 0x40 MLOAD DUP1 SWAP2 SUB SWAP1 REVERT JUMPDEST PUSH2 0x1907 PUSH8 0x27D0550556267707 PUSH1 0xC0 SHL PUSH2 0x66E JUMP JUMPDEST PUSH2 0x191B PUSH8 0x94EB40A49E64BDBA PUSH1 0xC0 SHL PUSH2 0x66E JUMP JUMPDEST PUSH1 0x7 PUSH1 0x0 DUP3 DUP2 MSTORE PUSH1 0x20 ADD SWAP1 DUP2 MSTORE PUSH1 0x20 ADD PUSH1 0x0 KECCAK256 PUSH1 0x3 ADD SLOAD PUSH1 0x9 PUSH1 0x0 PUSH1 0x7 PUSH1 0x0 DUP6 DUP2 MSTORE PUSH1 0x20 ADD SWAP1 DUP2 MSTORE PUSH1 0x20 ADD PUSH1 0x0 KECCAK256 PUSH1 0x0 ADD PUSH1 0x0 SWAP1 SLOAD SWAP1 PUSH2 0x100 EXP SWAP1 DIV PUSH20 0xFFFFFFFFFFFFFFFFFFFFFFFFFFFFFFFFFFFFFFFF AND PUSH20 0xFFFFFFFFFFFFFFFFFFFFFFFFFFFFFFFFFFFFFFFF AND PUSH20 0xFFFFFFFFFFFFFFFFFFFFFFFFFFFFFFFFFFFFFFFF AND DUP2 MSTORE PUSH1 0x20 ADD SWAP1 DUP2 MSTORE PUSH1 0x20 ADD PUSH1 0x0 KECCAK256 PUSH1 0x0 DUP3 DUP3 SLOAD PUSH2 0x19B6 SWAP2 SWAP1 PUSH2 0x3A9E JUMP JUMPDEST SWAP3 POP POP DUP2 SWAP1 SSTORE POP PUSH2 0x19D1 PUSH8 0x28F0AF2BBA12669E PUSH1 0xC0 SHL PUSH2 0x66E JUMP JUMPDEST PUSH1 0x7 PUSH1 0x0 DUP3 DUP2 MSTORE PUSH1 0x20 ADD SWAP1 DUP2 MSTORE PUSH1 0x20 ADD PUSH1 0x0 KECCAK256 PUSH1 0x3 ADD SLOAD PUSH1 0x9 PUSH1 0x0 PUSH1 0x7 PUSH1 0x0 DUP6 DUP2 MSTORE PUSH1 0x20 ADD SWAP1 DUP2 MSTORE PUSH1 0x20 ADD PUSH1 0x0 KECCAK256 PUSH1 0x1 ADD PUSH1 0x0 SWAP1 SLOAD SWAP1 PUSH2 0x100 EXP SWAP1 DIV PUSH20 0xFFFFFFFFFFFFFFFFFFFFFFFFFFFFFFFFFFFFFFFF AND PUSH20 0xFFFFFFFFFFFFFFFFFFFFFFFFFFFFFFFFFFFFFFFF AND PUSH20 0xFFFFFFFFFFFFFFFFFFFFFFFFFFFFFFFFFFFFFFFF AND DUP2 MSTORE PUSH1 0x20 ADD SWAP1 DUP2 MSTORE PUSH1 0x20 ADD PUSH1 0x0 KECCAK256 PUSH1 0x0 DUP3 DUP3 SLOAD PUSH2 0x1A6C SWAP2 SWAP1 PUSH2 0x2FDB JUMP JUMPDEST SWAP3 POP POP DUP2 SWAP1 SSTORE POP POP JUMP JUMPDEST PUSH2 0x1A8A PUSH8 0x5819655D024A803B PUSH1 0xC0 SHL PUSH2 0x66E JUMP JUMPDEST PUSH2 0x1A9E PUSH8 0xE94F89BE75C61D23 PUSH1 0xC0 SHL PUSH2 0x66E JUMP JUMPDEST PUSH2 0x1AB2 PUSH8 0x191C43C4929B0D82 PUSH1 0xC0 SHL PUSH2 0x66E JUMP JUMPDEST DUP1 PUSH20 0xFFFFFFFFFFFFFFFFFFFFFFFFFFFFFFFFFFFFFFFF AND PUSH2 0x8FC SELFBALANCE SWAP1 DUP2 ISZERO MUL SWAP1 PUSH1 0x40 MLOAD PUSH1 0x0 PUSH1 0x40 MLOAD DUP1 DUP4 SUB DUP2 DUP6 DUP9 DUP9 CALL SWAP4 POP POP POP POP ISZERO DUP1 ISZERO PUSH2 0x1AF8 JUMPI RETURNDATASIZE PUSH1 0x0 DUP1 RETURNDATACOPY RETURNDATASIZE PUSH1 0x0 REVERT JUMPDEST POP POP JUMP JUMPDEST PUSH1 0x60 PUSH2 0x1B07 DUP3 PUSH2 0x213A JUMP JUMPDEST POP PUSH1 0x0 PUSH1 0x6 PUSH1 0x0 DUP5 DUP2 MSTORE PUSH1 0x20 ADD SWAP1 DUP2 MSTORE PUSH1 0x20 ADD PUSH1 0x0 KECCAK256 DUP1 SLOAD PUSH2 0x1B28 SWAP1 PUSH2 0x38F2 JUMP JUMPDEST DUP1 PUSH1 0x1F ADD PUSH1 0x20 DUP1 SWAP2 DIV MUL PUSH1 0x20 ADD PUSH1 0x40 MLOAD SWAP1 DUP2 ADD PUSH1 0x40 MSTORE DUP1 SWAP3 SWAP2 SWAP1 DUP2 DUP2 MSTORE PUSH1 0x20 ADD DUP3 DUP1 SLOAD PUSH2 0x1B54 SWAP1 PUSH2 0x38F2 JUMP JUMPDEST DUP1 ISZERO PUSH2 0x1BA1 JUMPI DUP1 PUSH1 0x1F LT PUSH2 0x1B76 JUMPI PUSH2 0x100 DUP1 DUP4 SLOAD DIV MUL DUP4 MSTORE SWAP2 PUSH1 0x20 ADD SWAP2 PUSH2 0x1BA1 JUMP JUMPDEST DUP3 ADD SWAP2 SWAP1 PUSH1 0x0 MSTORE PUSH1 0x20 PUSH1 0x0 KECCAK256 SWAP1 JUMPDEST DUP2 SLOAD DUP2 MSTORE SWAP1 PUSH1 0x1 ADD SWAP1 PUSH1 0x20 ADD DUP1 DUP4 GT PUSH2 0x1B84 JUMPI DUP3 SWAP1 SUB PUSH1 0x1F AND DUP3 ADD SWAP2 JUMPDEST POP POP POP POP POP SWAP1 POP PUSH1 0x0 PUSH2 0x1BB2 PUSH2 0x2759 JUMP JUMPDEST SWAP1 POP PUSH1 0x0 DUP2 MLOAD SUB PUSH2 0x1BC7 JUMPI DUP2 SWAP3 POP POP POP PUSH2 0x1C0A JUMP JUMPDEST PUSH1 0x0 DUP3 MLOAD GT ISZERO PUSH2 0x1BFC JUMPI DUP1 DUP3 PUSH1 0x40 MLOAD PUSH1 0x20 ADD PUSH2 0x1BE4 SWAP3 SWAP2 SWAP1 PUSH2 0x3C10 JUMP JUMPDEST PUSH1 0x40 MLOAD PUSH1 0x20 DUP2 DUP4 SUB SUB DUP2 MSTORE SWAP1 PUSH1 0x40 MSTORE SWAP3 POP POP POP PUSH2 0x1C0A JUMP JUMPDEST PUSH2 0x1C05 DUP5 PUSH2 0x2770 JUMP JUMPDEST SWAP3 POP POP POP JUMPDEST SWAP2 SWAP1 POP JUMP JUMPDEST PUSH2 0x1C23 PUSH8 0x9A7D3EB8A11C7C25 PUSH1 0xC0 SHL PUSH2 0x66E JUMP JUMPDEST PUSH2 0x1C37 PUSH8 0xE1124C1A3836A494 PUSH1 0xC0 SHL PUSH2 0x66E JUMP JUMPDEST PUSH2 0x1C4B PUSH8 0x1E9918EB00ABA4E9 PUSH1 0xC0 SHL PUSH2 0x66E JUMP JUMPDEST PUSH2 0x1C5E PUSH7 0x12A8BCD5D73CFB PUSH1 0xC0 SHL PUSH2 0x66E JUMP JUMPDEST PUSH1 0x9 PUSH1 0x0 CALLER PUSH20 0xFFFFFFFFFFFFFFFFFFFFFFFFFFFFFFFFFFFFFFFF AND PUSH20 0xFFFFFFFFFFFFFFFFFFFFFFFFFFFFFFFFFFFFFFFF AND DUP2 MSTORE PUSH1 0x20 ADD SWAP1 DUP2 MSTORE PUSH1 0x20 ADD PUSH1 0x0 KECCAK256 SLOAD DUP2 GT ISZERO PUSH2 0x1CE0 JUMPI PUSH1 0x40 MLOAD PUSH32 0x8C379A000000000000000000000000000000000000000000000000000000000 DUP2 MSTORE PUSH1 0x4 ADD PUSH2 0x1CD7 SWAP1 PUSH2 0x3C80 JUMP JUMPDEST PUSH1 0x40 MLOAD DUP1 SWAP2 SUB SWAP1 REVERT JUMPDEST PUSH2 0x1CF4 PUSH8 0xB06331D9B5C542B6 PUSH1 0xC0 SHL PUSH2 0x66E JUMP JUMPDEST PUSH2 0x1D08 PUSH8 0x8D696703834353FA PUSH1 0xC0 SHL PUSH2 0x66E JUMP JUMPDEST PUSH2 0x1D1C PUSH8 0x61BCE3EA750BABB2 PUSH1 0xC0 SHL PUSH2 0x66E JUMP JUMPDEST CALLER PUSH20 0xFFFFFFFFFFFFFFFFFFFFFFFFFFFFFFFFFFFFFFFF AND PUSH2 0x8FC DUP3 SWAP1 DUP2 ISZERO MUL SWAP1 PUSH1 0x40 MLOAD PUSH1 0x0 PUSH1 0x40 MLOAD DUP1 DUP4 SUB DUP2 DUP6 DUP9 DUP9 CALL SWAP4 POP POP POP POP ISZERO DUP1 ISZERO PUSH2 0x1D62 JUMPI RETURNDATASIZE PUSH1 0x0 DUP1 RETURNDATACOPY RETURNDATASIZE PUSH1 0x0 REVERT JUMPDEST POP PUSH2 0x1D77 PUSH8 0x773C467DB186C8E3 PUSH1 0xC0 SHL PUSH2 0x66E JUMP JUMPDEST DUP1 PUSH1 0x9 PUSH1 0x0 CALLER PUSH20 0xFFFFFFFFFFFFFFFFFFFFFFFFFFFFFFFFFFFFFFFF AND PUSH20 0xFFFFFFFFFFFFFFFFFFFFFFFFFFFFFFFFFFFFFFFF AND DUP2 MSTORE PUSH1 0x20 ADD SWAP1 DUP2 MSTORE PUSH1 0x20 ADD PUSH1 0x0 KECCAK256 PUSH1 0x0 DUP3 DUP3 SLOAD PUSH2 0x1DC6 SWAP2 SWAP1 PUSH2 0x3A9E JUMP JUMPDEST SWAP3 POP POP DUP2 SWAP1 SSTORE POP POP JUMP JUMPDEST PUSH2 0x1DE4 PUSH8 0xD04C78867B2631CD PUSH1 0xC0 SHL PUSH2 0x66E JUMP JUMPDEST PUSH2 0x1DF8 PUSH8 0x70F59241CE3E7AC5 PUSH1 0xC0 SHL PUSH2 0x66E JUMP JUMPDEST PUSH2 0x1E0C PUSH8 0x668C4EA4C8E9285C PUSH1 0xC0 SHL PUSH2 0x66E JUMP JUMPDEST PUSH1 0x0 DUP8 SWAP1 POP PUSH2 0x1E25 PUSH8 0xF6FA92308F0B0C59 PUSH1 0xC0 SHL PUSH2 0x66E JUMP JUMPDEST PUSH2 0x1E39 PUSH8 0x4EF8EB807C756F3F PUSH1 0xC0 SHL PUSH2 0x66E JUMP JUMPDEST PUSH2 0x1E43 ADDRESS DUP3 PUSH2 0x27D9 JUMP JUMPDEST PUSH2 0x1E57 PUSH8 0x55A91ACC02C68B3E PUSH1 0xC0 SHL PUSH2 0x66E JUMP JUMPDEST PUSH2 0x1E6B PUSH8 0x28DADBF44506AF55 PUSH1 0xC0 SHL PUSH2 0x66E JUMP JUMPDEST PUSH2 0x1E75 DUP2 DUP4 PUSH2 0x28D2 JUMP JUMPDEST PUSH2 0x1E89 PUSH8 0xF0A303FB45AB6601 PUSH1 0xC0 SHL PUSH2 0x66E JUMP JUMPDEST PUSH2 0x1E9D PUSH8 0xB66E7BC3FEE66882 PUSH1 0xC0 SHL PUSH2 0x66E JUMP JUMPDEST PUSH1 0x0 PUSH1 0x7 PUSH1 0x0 DUP11 DUP2 MSTORE PUSH1 0x20 ADD SWAP1 DUP2 MSTORE PUSH1 0x20 ADD PUSH1 0x0 KECCAK256 SWAP1 POP PUSH2 0x1EC8 PUSH8 0x9123305131280D24 PUSH1 0xC0 SHL PUSH2 0x66E JUMP JUMPDEST DUP8 DUP2 PUSH1 0x0 ADD PUSH1 0x0 PUSH2 0x100 EXP DUP2 SLOAD DUP2 PUSH20 0xFFFFFFFFFFFFFFFFFFFFFFFFFFFFFFFFFFFFFFFF MUL NOT AND SWAP1 DUP4 PUSH20 0xFFFFFFFFFFFFFFFFFFFFFFFFFFFFFFFFFFFFFFFF AND MUL OR SWAP1 SSTORE POP PUSH2 0x1F1F PUSH8 0x5870C1A5C274AF60 PUSH1 0xC0 SHL PUSH2 0x66E JUMP JUMPDEST DUP7 DUP2 PUSH1 0x1 ADD PUSH1 0x0 PUSH2 0x100 EXP DUP2 SLOAD DUP2 PUSH20 0xFFFFFFFFFFFFFFFFFFFFFFFFFFFFFFFFFFFFFFFF MUL NOT AND SWAP1 DUP4 PUSH20 0xFFFFFFFFFFFFFFFFFFFFFFFFFFFFFFFFFFFFFFFF AND MUL OR SWAP1 SSTORE POP PUSH2 0x1F76 PUSH8 0x525B7A052CA58B3B PUSH1 0xC0 SHL PUSH2 0x66E JUMP JUMPDEST DUP6 DUP2 PUSH1 0x2 ADD DUP2 SWAP1 SSTORE POP PUSH2 0x1F93 PUSH8 0xC347DB22379BB62B PUSH1 0xC0 SHL PUSH2 0x66E JUMP JUMPDEST DUP5 DUP2 PUSH1 0x3 ADD DUP2 SWAP1 SSTORE POP PUSH2 0x1FB0 PUSH8 0xC0F1C2A2A925EFDF PUSH1 0xC0 SHL PUSH2 0x66E JUMP JUMPDEST DUP4 DUP2 PUSH1 0x4 ADD DUP2 SWAP1 SSTORE POP POP POP POP POP POP POP POP POP POP JUMP JUMPDEST PUSH1 0x0 PUSH1 0x5 PUSH1 0x0 DUP5 PUSH20 0xFFFFFFFFFFFFFFFFFFFFFFFFFFFFFFFFFFFFFFFF AND PUSH20 0xFFFFFFFFFFFFFFFFFFFFFFFFFFFFFFFFFFFFFFFF AND DUP2 MSTORE PUSH1 0x20 ADD SWAP1 DUP2 MSTORE PUSH1 0x20 ADD PUSH1 0x0 KECCAK256 PUSH1 0x0 DUP4 PUSH20 0xFFFFFFFFFFFFFFFFFFFFFFFFFFFFFFFFFFFFFFFF AND PUSH20 0xFFFFFFFFFFFFFFFFFFFFFFFFFFFFFFFFFFFFFFFF AND DUP2 MSTORE PUSH1 0x20 ADD SWAP1 DUP2 MSTORE PUSH1 0x20 ADD PUSH1 0x0 KECCAK256 PUSH1 0x0 SWAP1 SLOAD SWAP1 PUSH2 0x100 EXP SWAP1 DIV PUSH1 0xFF AND SWAP1 POP SWAP3 SWAP2 POP POP JUMP JUMPDEST PUSH1 0x0 PUSH32 0x80AC58CD00000000000000000000000000000000000000000000000000000000 PUSH28 0xFFFFFFFFFFFFFFFFFFFFFFFFFFFFFFFFFFFFFFFFFFFFFFFFFFFFFFFF NOT AND DUP3 PUSH28 0xFFFFFFFFFFFFFFFFFFFFFFFFFFFFFFFFFFFFFFFFFFFFFFFFFFFFFFFF NOT AND EQ DUP1 PUSH2 0x2123 JUMPI POP PUSH32 0x5B5E139F00000000000000000000000000000000000000000000000000000000 PUSH28 0xFFFFFFFFFFFFFFFFFFFFFFFFFFFFFFFFFFFFFFFFFFFFFFFFFFFFFFFF NOT AND DUP3 PUSH28 0xFFFFFFFFFFFFFFFFFFFFFFFFFFFFFFFFFFFFFFFFFFFFFFFFFFFFFFFF NOT AND EQ JUMPDEST DUP1 PUSH2 0x2133 JUMPI POP PUSH2 0x2132 DUP3 PUSH2 0x292E JUMP JUMPDEST JUMPDEST SWAP1 POP SWAP2 SWAP1 POP JUMP JUMPDEST PUSH1 0x0 DUP1 PUSH2 0x2146 DUP4 PUSH2 0x2998 JUMP JUMPDEST SWAP1 POP PUSH1 0x0 PUSH20 0xFFFFFFFFFFFFFFFFFFFFFFFFFFFFFFFFFFFFFFFF AND DUP2 PUSH20 0xFFFFFFFFFFFFFFFFFFFFFFFFFFFFFFFFFFFFFFFF AND SUB PUSH2 0x21B9 JUMPI DUP3 PUSH1 0x40 MLOAD PUSH32 0x7E27328900000000000000000000000000000000000000000000000000000000 DUP2 MSTORE PUSH1 0x4 ADD PUSH2 0x21B0 SWAP2 SWAP1 PUSH2 0x3313 JUMP JUMPDEST PUSH1 0x40 MLOAD DUP1 SWAP2 SUB SWAP1 REVERT JUMPDEST DUP1 SWAP2 POP POP SWAP2 SWAP1 POP JUMP JUMPDEST PUSH1 0x0 PUSH1 0x4 PUSH1 0x0 DUP4 DUP2 MSTORE PUSH1 0x20 ADD SWAP1 DUP2 MSTORE PUSH1 0x20 ADD PUSH1 0x0 KECCAK256 PUSH1 0x0 SWAP1 SLOAD SWAP1 PUSH2 0x100 EXP SWAP1 DIV PUSH20 0xFFFFFFFFFFFFFFFFFFFFFFFFFFFFFFFFFFFFFFFF AND SWAP1 POP SWAP2 SWAP1 POP JUMP JUMPDEST PUSH1 0x0 CALLER SWAP1 POP SWAP1 JUMP JUMPDEST PUSH2 0x2214 DUP4 DUP4 DUP4 PUSH1 0x1 PUSH2 0x29D5 JUMP JUMPDEST POP POP POP JUMP JUMPDEST PUSH1 0x0 DUP1 PUSH2 0x2225 DUP5 PUSH2 0x2998 JUMP JUMPDEST SWAP1 POP PUSH1 0x0 PUSH20 0xFFFFFFFFFFFFFFFFFFFFFFFFFFFFFFFFFFFFFFFF AND DUP4 PUSH20 0xFFFFFFFFFFFFFFFFFFFFFFFFFFFFFFFFFFFFFFFF AND EQ PUSH2 0x2267 JUMPI PUSH2 0x2266 DUP2 DUP5 DUP7 PUSH2 0x2B9A JUMP JUMPDEST JUMPDEST PUSH1 0x0 PUSH20 0xFFFFFFFFFFFFFFFFFFFFFFFFFFFFFFFFFFFFFFFF AND DUP2 PUSH20 0xFFFFFFFFFFFFFFFFFFFFFFFFFFFFFFFFFFFFFFFF AND EQ PUSH2 0x22F8 JUMPI PUSH2 0x22A9 PUSH1 0x0 DUP6 PUSH1 0x0 DUP1 PUSH2 0x29D5 JUMP JUMPDEST PUSH1 0x1 PUSH1 0x3 PUSH1 0x0 DUP4 PUSH20 0xFFFFFFFFFFFFFFFFFFFFFFFFFFFFFFFFFFFFFFFF AND PUSH20 0xFFFFFFFFFFFFFFFFFFFFFFFFFFFFFFFFFFFFFFFF AND DUP2 MSTORE PUSH1 0x20 ADD SWAP1 DUP2 MSTORE PUSH1 0x20 ADD PUSH1 0x0 KECCAK256 PUSH1 0x0 DUP3 DUP3 SLOAD SUB SWAP3 POP POP DUP2 SWAP1 SSTORE POP JUMPDEST PUSH1 0x0 PUSH20 0xFFFFFFFFFFFFFFFFFFFFFFFFFFFFFFFFFFFFFFFF AND DUP6 PUSH20 0xFFFFFFFFFFFFFFFFFFFFFFFFFFFFFFFFFFFFFFFF AND EQ PUSH2 0x237B JUMPI PUSH1 0x1 PUSH1 0x3 PUSH1 0x0 DUP8 PUSH20 0xFFFFFFFFFFFFFFFFFFFFFFFFFFFFFFFFFFFFFFFF AND PUSH20 0xFFFFFFFFFFFFFFFFFFFFFFFFFFFFFFFFFFFFFFFF AND DUP2 MSTORE PUSH1 0x20 ADD SWAP1 DUP2 MSTORE PUSH1 0x20 ADD PUSH1 0x0 KECCAK256 PUSH1 0x0 DUP3 DUP3 SLOAD ADD SWAP3 POP POP DUP2 SWAP1 SSTORE POP JUMPDEST DUP5 PUSH1 0x2 PUSH1 0x0 DUP7 DUP2 MSTORE PUSH1 0x20 ADD SWAP1 DUP2 MSTORE PUSH1 0x20 ADD PUSH1 0x0 KECCAK256 PUSH1 0x0 PUSH2 0x100 EXP DUP2 SLOAD DUP2 PUSH20 0xFFFFFFFFFFFFFFFFFFFFFFFFFFFFFFFFFFFFFFFF MUL NOT AND SWAP1 DUP4 PUSH20 0xFFFFFFFFFFFFFFFFFFFFFFFFFFFFFFFFFFFFFFFF AND MUL OR SWAP1 SSTORE POP DUP4 DUP6 PUSH20 0xFFFFFFFFFFFFFFFFFFFFFFFFFFFFFFFFFFFFFFFF AND DUP3 PUSH20 0xFFFFFFFFFFFFFFFFFFFFFFFFFFFFFFFFFFFFFFFF AND PUSH32 0xDDF252AD1BE2C89B69C2B068FC378DAA952BA7F163C4A11628F55A4DF523B3EF PUSH1 0x40 MLOAD PUSH1 0x40 MLOAD DUP1 SWAP2 SUB SWAP1 LOG4 DUP1 SWAP2 POP POP SWAP4 SWAP3 POP POP POP JUMP JUMPDEST PUSH1 0x0 PUSH20 0xFFFFFFFFFFFFFFFFFFFFFFFFFFFFFFFFFFFFFFFF AND DUP3 PUSH20 0xFFFFFFFFFFFFFFFFFFFFFFFFFFFFFFFFFFFFFFFF AND SUB PUSH2 0x24A4 JUMPI DUP2 PUSH1 0x40 MLOAD PUSH32 0x5B08BA1800000000000000000000000000000000000000000000000000000000 DUP2 MSTORE PUSH1 0x4 ADD PUSH2 0x249B SWAP2 SWAP1 PUSH2 0x322A JUMP JUMPDEST PUSH1 0x40 MLOAD DUP1 SWAP2 SUB SWAP1 REVERT JUMPDEST DUP1 PUSH1 0x5 PUSH1 0x0 DUP6 PUSH20 0xFFFFFFFFFFFFFFFFFFFFFFFFFFFFFFFFFFFFFFFF AND PUSH20 0xFFFFFFFFFFFFFFFFFFFFFFFFFFFFFFFFFFFFFFFF AND DUP2 MSTORE PUSH1 0x20 ADD SWAP1 DUP2 MSTORE PUSH1 0x20 ADD PUSH1 0x0 KECCAK256 PUSH1 0x0 DUP5 PUSH20 0xFFFFFFFFFFFFFFFFFFFFFFFFFFFFFFFFFFFFFFFF AND PUSH20 0xFFFFFFFFFFFFFFFFFFFFFFFFFFFFFFFFFFFFFFFF AND DUP2 MSTORE PUSH1 0x20 ADD SWAP1 DUP2 MSTORE PUSH1 0x20 ADD PUSH1 0x0 KECCAK256 PUSH1 0x0 PUSH2 0x100 EXP DUP2 SLOAD DUP2 PUSH1 0xFF MUL NOT AND SWAP1 DUP4 ISZERO ISZERO MUL OR SWAP1 SSTORE POP DUP2 PUSH20 0xFFFFFFFFFFFFFFFFFFFFFFFFFFFFFFFFFFFFFFFF AND DUP4 PUSH20 0xFFFFFFFFFFFFFFFFFFFFFFFFFFFFFFFFFFFFFFFF AND PUSH32 0x17307EAB39AB6107E8899845AD3D59BD9653F200F220920489CA2B5937696C31 DUP4 PUSH1 0x40 MLOAD PUSH2 0x2595 SWAP2 SWAP1 PUSH2 0x30C3 JUMP JUMPDEST PUSH1 0x40 MLOAD DUP1 SWAP2 SUB SWAP1 LOG3 POP POP POP JUMP JUMPDEST PUSH1 0x0 DUP4 PUSH20 0xFFFFFFFFFFFFFFFFFFFFFFFFFFFFFFFFFFFFFFFF AND EXTCODESIZE GT ISZERO PUSH2 0x2753 JUMPI DUP3 PUSH20 0xFFFFFFFFFFFFFFFFFFFFFFFFFFFFFFFFFFFFFFFF AND PUSH4 0x150B7A02 PUSH2 0x25E6 PUSH2 0x21FF JUMP JUMPDEST DUP7 DUP6 DUP6 PUSH1 0x40 MLOAD DUP6 PUSH4 0xFFFFFFFF AND PUSH1 0xE0 SHL DUP2 MSTORE PUSH1 0x4 ADD PUSH2 0x2608 SWAP5 SWAP4 SWAP3 SWAP2 SWAP1 PUSH2 0x3CF5 JUMP JUMPDEST PUSH1 0x20 PUSH1 0x40 MLOAD DUP1 DUP4 SUB DUP2 PUSH1 0x0 DUP8 GAS CALL SWAP3 POP POP POP DUP1 ISZERO PUSH2 0x2644 JUMPI POP PUSH1 0x40 MLOAD RETURNDATASIZE PUSH1 0x1F NOT PUSH1 0x1F DUP3 ADD AND DUP3 ADD DUP1 PUSH1 0x40 MSTORE POP DUP2 ADD SWAP1 PUSH2 0x2641 SWAP2 SWAP1 PUSH2 0x3D56 JUMP JUMPDEST PUSH1 0x1 JUMPDEST PUSH2 0x26C8 JUMPI RETURNDATASIZE DUP1 PUSH1 0x0 DUP2 EQ PUSH2 0x2674 JUMPI PUSH1 0x40 MLOAD SWAP2 POP PUSH1 0x1F NOT PUSH1 0x3F RETURNDATASIZE ADD AND DUP3 ADD PUSH1 0x40 MSTORE RETURNDATASIZE DUP3 MSTORE RETURNDATASIZE PUSH1 0x0 PUSH1 0x20 DUP5 ADD RETURNDATACOPY PUSH2 0x2679 JUMP JUMPDEST PUSH1 0x60 SWAP2 POP JUMPDEST POP PUSH1 0x0 DUP2 MLOAD SUB PUSH2 0x26C0 JUMPI DUP4 PUSH1 0x40 MLOAD PUSH32 0x64A0AE9200000000000000000000000000000000000000000000000000000000 DUP2 MSTORE PUSH1 0x4 ADD PUSH2 0x26B7 SWAP2 SWAP1 PUSH2 0x322A JUMP JUMPDEST PUSH1 0x40 MLOAD DUP1 SWAP2 SUB SWAP1 REVERT JUMPDEST DUP1 MLOAD DUP2 PUSH1 0x20 ADD REVERT JUMPDEST PUSH4 0x150B7A02 PUSH1 0xE0 SHL PUSH28 0xFFFFFFFFFFFFFFFFFFFFFFFFFFFFFFFFFFFFFFFFFFFFFFFFFFFFFFFF NOT AND DUP2 PUSH28 0xFFFFFFFFFFFFFFFFFFFFFFFFFFFFFFFFFFFFFFFFFFFFFFFFFFFFFFFF NOT AND EQ PUSH2 0x2751 JUMPI DUP4 PUSH1 0x40 MLOAD PUSH32 0x64A0AE9200000000000000000000000000000000000000000000000000000000 DUP2 MSTORE PUSH1 0x4 ADD PUSH2 0x2748 SWAP2 SWAP1 PUSH2 0x322A JUMP JUMPDEST PUSH1 0x40 MLOAD DUP1 SWAP2 SUB SWAP1 REVERT JUMPDEST POP JUMPDEST POP POP POP POP JUMP JUMPDEST PUSH1 0x60 PUSH1 0x40 MLOAD DUP1 PUSH1 0x20 ADD PUSH1 0x40 MSTORE DUP1 PUSH1 0x0 DUP2 MSTORE POP SWAP1 POP SWAP1 JUMP JUMPDEST PUSH1 0x60 PUSH2 0x277B DUP3 PUSH2 0x213A JUMP JUMPDEST POP PUSH1 0x0 PUSH2 0x2786 PUSH2 0x2759 JUMP JUMPDEST SWAP1 POP PUSH1 0x0 DUP2 MLOAD GT PUSH2 0x27A6 JUMPI PUSH1 0x40 MLOAD DUP1 PUSH1 0x20 ADD PUSH1 0x40 MSTORE DUP1 PUSH1 0x0 DUP2 MSTORE POP PUSH2 0x27D1 JUMP JUMPDEST DUP1 PUSH2 0x27B0 DUP5 PUSH2 0x2C5E JUMP JUMPDEST PUSH1 0x40 MLOAD PUSH1 0x20 ADD PUSH2 0x27C1 SWAP3 SWAP2 SWAP1 PUSH2 0x3C10 JUMP JUMPDEST PUSH1 0x40 MLOAD PUSH1 0x20 DUP2 DUP4 SUB SUB DUP2 MSTORE SWAP1 PUSH1 0x40 MSTORE JUMPDEST SWAP2 POP POP SWAP2 SWAP1 POP JUMP JUMPDEST PUSH1 0x0 PUSH20 0xFFFFFFFFFFFFFFFFFFFFFFFFFFFFFFFFFFFFFFFF AND DUP3 PUSH20 0xFFFFFFFFFFFFFFFFFFFFFFFFFFFFFFFFFFFFFFFF AND SUB PUSH2 0x284B JUMPI PUSH1 0x0 PUSH1 0x40 MLOAD PUSH32 0x64A0AE9200000000000000000000000000000000000000000000000000000000 DUP2 MSTORE PUSH1 0x4 ADD PUSH2 0x2842 SWAP2 SWAP1 PUSH2 0x322A JUMP JUMPDEST PUSH1 0x40 MLOAD DUP1 SWAP2 SUB SWAP1 REVERT JUMPDEST PUSH1 0x0 PUSH2 0x2859 DUP4 DUP4 PUSH1 0x0 PUSH2 0x2219 JUMP JUMPDEST SWAP1 POP PUSH1 0x0 PUSH20 0xFFFFFFFFFFFFFFFFFFFFFFFFFFFFFFFFFFFFFFFF AND DUP2 PUSH20 0xFFFFFFFFFFFFFFFFFFFFFFFFFFFFFFFFFFFFFFFF AND EQ PUSH2 0x28CD JUMPI PUSH1 0x0 PUSH1 0x40 MLOAD PUSH32 0x73C6AC6E00000000000000000000000000000000000000000000000000000000 DUP2 MSTORE PUSH1 0x4 ADD PUSH2 0x28C4 SWAP2 SWAP1 PUSH2 0x322A JUMP JUMPDEST PUSH1 0x40 MLOAD DUP1 SWAP2 SUB SWAP1 REVERT JUMPDEST POP POP POP JUMP JUMPDEST DUP1 PUSH1 0x6 PUSH1 0x0 DUP5 DUP2 MSTORE PUSH1 0x20 ADD SWAP1 DUP2 MSTORE PUSH1 0x20 ADD PUSH1 0x0 KECCAK256 SWAP1 DUP2 PUSH2 0x28F2 SWAP2 SWAP1 PUSH2 0x3F25 JUMP JUMPDEST POP PUSH32 0xF8E1A15ABA9398E019F0B49DF1A4FDE98EE17AE345CB5F6B5E2C27F5033E8CE7 DUP3 PUSH1 0x40 MLOAD PUSH2 0x2922 SWAP2 SWAP1 PUSH2 0x3313 JUMP JUMPDEST PUSH1 0x40 MLOAD DUP1 SWAP2 SUB SWAP1 LOG1 POP POP JUMP JUMPDEST PUSH1 0x0 PUSH32 0x1FFC9A700000000000000000000000000000000000000000000000000000000 PUSH28 0xFFFFFFFFFFFFFFFFFFFFFFFFFFFFFFFFFFFFFFFFFFFFFFFFFFFFFFFF NOT AND DUP3 PUSH28 0xFFFFFFFFFFFFFFFFFFFFFFFFFFFFFFFFFFFFFFFFFFFFFFFFFFFFFFFF NOT AND EQ SWAP1 POP SWAP2 SWAP1 POP JUMP JUMPDEST PUSH1 0x0 PUSH1 0x2 PUSH1 0x0 DUP4 DUP2 MSTORE PUSH1 0x20 ADD SWAP1 DUP2 MSTORE PUSH1 0x20 ADD PUSH1 0x0 KECCAK256 PUSH1 0x0 SWAP1 SLOAD SWAP1 PUSH2 0x100 EXP SWAP1 DIV PUSH20 0xFFFFFFFFFFFFFFFFFFFFFFFFFFFFFFFFFFFFFFFF AND SWAP1 POP SWAP2 SWAP1 POP JUMP JUMPDEST DUP1 DUP1 PUSH2 0x2A0E JUMPI POP PUSH1 0x0 PUSH20 0xFFFFFFFFFFFFFFFFFFFFFFFFFFFFFFFFFFFFFFFF AND DUP3 PUSH20 0xFFFFFFFFFFFFFFFFFFFFFFFFFFFFFFFFFFFFFFFF AND EQ ISZERO JUMPDEST ISZERO PUSH2 0x2B42 JUMPI PUSH1 0x0 PUSH2 0x2A1E DUP5 PUSH2 0x213A JUMP JUMPDEST SWAP1 POP PUSH1 0x0 PUSH20 0xFFFFFFFFFFFFFFFFFFFFFFFFFFFFFFFFFFFFFFFF AND DUP4 PUSH20 0xFFFFFFFFFFFFFFFFFFFFFFFFFFFFFFFFFFFFFFFF AND EQ ISZERO DUP1 ISZERO PUSH2 0x2A89 JUMPI POP DUP3 PUSH20 0xFFFFFFFFFFFFFFFFFFFFFFFFFFFFFFFFFFFFFFFF AND DUP2 PUSH20 0xFFFFFFFFFFFFFFFFFFFFFFFFFFFFFFFFFFFFFFFF AND EQ ISZERO JUMPDEST DUP1 ISZERO PUSH2 0x2A9C JUMPI POP PUSH2 0x2A9A DUP2 DUP5 PUSH2 0x1FC4 JUMP JUMPDEST ISZERO JUMPDEST ISZERO PUSH2 0x2ADE JUMPI DUP3 PUSH1 0x40 MLOAD PUSH32 0xA9FBF51F00000000000000000000000000000000000000000000000000000000 DUP2 MSTORE PUSH1 0x4 ADD PUSH2 0x2AD5 SWAP2 SWAP1 PUSH2 0x322A JUMP JUMPDEST PUSH1 0x40 MLOAD DUP1 SWAP2 SUB SWAP1 REVERT JUMPDEST DUP2 ISZERO PUSH2 0x2B40 JUMPI DUP4 DUP6 PUSH20 0xFFFFFFFFFFFFFFFFFFFFFFFFFFFFFFFFFFFFFFFF AND DUP3 PUSH20 0xFFFFFFFFFFFFFFFFFFFFFFFFFFFFFFFFFFFFFFFF AND PUSH32 0x8C5BE1E5EBEC7D5BD14F71427D1E84F3DD0314C0F7B2291E5B200AC8C7C3B925 PUSH1 0x40 MLOAD PUSH1 0x40 MLOAD DUP1 SWAP2 SUB SWAP1 LOG4 JUMPDEST POP JUMPDEST DUP4 PUSH1 0x4 PUSH1 0x0 DUP6 DUP2 MSTORE PUSH1 0x20 ADD SWAP1 DUP2 MSTORE PUSH1 0x20 ADD PUSH1 0x0 KECCAK256 PUSH1 0x0 PUSH2 0x100 EXP DUP2 SLOAD DUP2 PUSH20 0xFFFFFFFFFFFFFFFFFFFFFFFFFFFFFFFFFFFFFFFF MUL NOT AND SWAP1 DUP4 PUSH20 0xFFFFFFFFFFFFFFFFFFFFFFFFFFFFFFFFFFFFFFFF AND MUL OR SWAP1 SSTORE POP POP POP POP POP JUMP JUMPDEST PUSH2 0x2BA5 DUP4 DUP4 DUP4 PUSH2 0x2D2C JUMP JUMPDEST PUSH2 0x2C59 JUMPI PUSH1 0x0 PUSH20 0xFFFFFFFFFFFFFFFFFFFFFFFFFFFFFFFFFFFFFFFF AND DUP4 PUSH20 0xFFFFFFFFFFFFFFFFFFFFFFFFFFFFFFFFFFFFFFFF AND SUB PUSH2 0x2C1A JUMPI DUP1 PUSH1 0x40 MLOAD PUSH32 0x7E27328900000000000000000000000000000000000000000000000000000000 DUP2 MSTORE PUSH1 0x4 ADD PUSH2 0x2C11 SWAP2 SWAP1 PUSH2 0x3313 JUMP JUMPDEST PUSH1 0x40 MLOAD DUP1 SWAP2 SUB SWAP1 REVERT JUMPDEST DUP2 DUP2 PUSH1 0x40 MLOAD PUSH32 0x177E802F00000000000000000000000000000000000000000000000000000000 DUP2 MSTORE PUSH1 0x4 ADD PUSH2 0x2C50 SWAP3 SWAP2 SWAP1 PUSH2 0x3FF7 JUMP JUMPDEST PUSH1 0x40 MLOAD DUP1 SWAP2 SUB SWAP1 REVERT JUMPDEST POP POP POP JUMP JUMPDEST PUSH1 0x60 PUSH1 0x0 PUSH1 0x1 PUSH2 0x2C6D DUP5 PUSH2 0x2DED JUMP JUMPDEST ADD SWAP1 POP PUSH1 0x0 DUP2 PUSH8 0xFFFFFFFFFFFFFFFF DUP2 GT ISZERO PUSH2 0x2C8C JUMPI PUSH2 0x2C8B PUSH2 0x3576 JUMP JUMPDEST JUMPDEST PUSH1 0x40 MLOAD SWAP1 DUP1 DUP3 MSTORE DUP1 PUSH1 0x1F ADD PUSH1 0x1F NOT AND PUSH1 0x20 ADD DUP3 ADD PUSH1 0x40 MSTORE DUP1 ISZERO PUSH2 0x2CBE JUMPI DUP2 PUSH1 0x20 ADD PUSH1 0x1 DUP3 MUL DUP1 CALLDATASIZE DUP4 CALLDATACOPY DUP1 DUP3 ADD SWAP2 POP POP SWAP1 POP JUMPDEST POP SWAP1 POP PUSH1 0x0 DUP3 PUSH1 0x20 ADD DUP3 ADD SWAP1 POP JUMPDEST PUSH1 0x1 ISZERO PUSH2 0x2D21 JUMPI DUP1 DUP1 PUSH1 0x1 SWAP1 SUB SWAP2 POP POP PUSH32 0x3031323334353637383961626364656600000000000000000000000000000000 PUSH1 0xA DUP7 MOD BYTE DUP2 MSTORE8 PUSH1 0xA DUP6 DUP2 PUSH2 0x2D15 JUMPI PUSH2 0x2D14 PUSH2 0x4020 JUMP JUMPDEST JUMPDEST DIV SWAP5 POP PUSH1 0x0 DUP6 SUB PUSH2 0x2CCC JUMPI JUMPDEST DUP2 SWAP4 POP POP POP POP SWAP2 SWAP1 POP JUMP JUMPDEST PUSH1 0x0 DUP1 PUSH20 0xFFFFFFFFFFFFFFFFFFFFFFFFFFFFFFFFFFFFFFFF AND DUP4 PUSH20 0xFFFFFFFFFFFFFFFFFFFFFFFFFFFFFFFFFFFFFFFF AND EQ ISZERO DUP1 ISZERO PUSH2 0x2DE4 JUMPI POP DUP3 PUSH20 0xFFFFFFFFFFFFFFFFFFFFFFFFFFFFFFFFFFFFFFFF AND DUP5 PUSH20 0xFFFFFFFFFFFFFFFFFFFFFFFFFFFFFFFFFFFFFFFF AND EQ DUP1 PUSH2 0x2DA5 JUMPI POP PUSH2 0x2DA4 DUP5 DUP5 PUSH2 0x1FC4 JUMP JUMPDEST JUMPDEST DUP1 PUSH2 0x2DE3 JUMPI POP DUP3 PUSH20 0xFFFFFFFFFFFFFFFFFFFFFFFFFFFFFFFFFFFFFFFF AND PUSH2 0x2DCB DUP4 PUSH2 0x21C2 JUMP JUMPDEST PUSH20 0xFFFFFFFFFFFFFFFFFFFFFFFFFFFFFFFFFFFFFFFF AND EQ JUMPDEST JUMPDEST SWAP1 POP SWAP4 SWAP3 POP POP POP JUMP JUMPDEST PUSH1 0x0 DUP1 PUSH1 0x0 SWAP1 POP PUSH27 0x184F03E93FF9F4DAA797ED6E38ED64BF6A1F010000000000000000 DUP4 LT PUSH2 0x2E4B JUMPI PUSH27 0x184F03E93FF9F4DAA797ED6E38ED64BF6A1F010000000000000000 DUP4 DUP2 PUSH2 0x2E41 JUMPI PUSH2 0x2E40 PUSH2 0x4020 JUMP JUMPDEST JUMPDEST DIV SWAP3 POP PUSH1 0x40 DUP2 ADD SWAP1 POP JUMPDEST PUSH14 0x4EE2D6D415B85ACEF8100000000 DUP4 LT PUSH2 0x2E88 JUMPI PUSH14 0x4EE2D6D415B85ACEF8100000000 DUP4 DUP2 PUSH2 0x2E7E JUMPI PUSH2 0x2E7D PUSH2 0x4020 JUMP JUMPDEST JUMPDEST DIV SWAP3 POP PUSH1 0x20 DUP2 ADD SWAP1 POP JUMPDEST PUSH7 0x2386F26FC10000 DUP4 LT PUSH2 0x2EB7 JUMPI PUSH7 0x2386F26FC10000 DUP4 DUP2 PUSH2 0x2EAD JUMPI PUSH2 0x2EAC PUSH2 0x4020 JUMP JUMPDEST JUMPDEST DIV SWAP3 POP PUSH1 0x10 DUP2 ADD SWAP1 POP JUMPDEST PUSH4 0x5F5E100 DUP4 LT PUSH2 0x2EE0 JUMPI PUSH4 0x5F5E100 DUP4 DUP2 PUSH2 0x2ED6 JUMPI PUSH2 0x2ED5 PUSH2 0x4020 JUMP JUMPDEST JUMPDEST DIV SWAP3 POP PUSH1 0x8 DUP2 ADD SWAP1 POP JUMPDEST PUSH2 0x2710 DUP4 LT PUSH2 0x2F05 JUMPI PUSH2 0x2710 DUP4 DUP2 PUSH2 0x2EFB JUMPI PUSH2 0x2EFA PUSH2 0x4020 JUMP JUMPDEST JUMPDEST DIV SWAP3 POP PUSH1 0x4 DUP2 ADD SWAP1 POP JUMPDEST PUSH1 0x64 DUP4 LT PUSH2 0x2F28 JUMPI PUSH1 0x64 DUP4 DUP2 PUSH2 0x2F1E JUMPI PUSH2 0x2F1D PUSH2 0x4020 JUMP JUMPDEST JUMPDEST DIV SWAP3 POP PUSH1 0x2 DUP2 ADD SWAP1 POP JUMPDEST PUSH1 0xA DUP4 LT PUSH2 0x2F37 JUMPI PUSH1 0x1 DUP2 ADD SWAP1 POP JUMPDEST DUP1 SWAP2 POP POP SWAP2 SWAP1 POP JUMP JUMPDEST PUSH1 0x40 MLOAD DUP1 PUSH1 0xC0 ADD PUSH1 0x40 MSTORE DUP1 PUSH1 0x0 PUSH20 0xFFFFFFFFFFFFFFFFFFFFFFFFFFFFFFFFFFFFFFFF AND DUP2 MSTORE PUSH1 0x20 ADD PUSH1 0x0 PUSH20 0xFFFFFFFFFFFFFFFFFFFFFFFFFFFFFFFFFFFFFFFF AND DUP2 MSTORE PUSH1 0x20 ADD PUSH1 0x0 DUP2 MSTORE PUSH1 0x20 ADD PUSH1 0x0 DUP2 MSTORE PUSH1 0x20 ADD PUSH1 0x0 DUP2 MSTORE PUSH1 0x20 ADD PUSH1 0x60 DUP2 MSTORE POP SWAP1 JUMP JUMPDEST PUSH1 0x0 DUP2 SWAP1 POP SWAP2 SWAP1 POP JUMP JUMPDEST PUSH32 0x4E487B7100000000000000000000000000000000000000000000000000000000 PUSH1 0x0 MSTORE PUSH1 0x11 PUSH1 0x4 MSTORE PUSH1 0x24 PUSH1 0x0 REVERT JUMPDEST PUSH1 0x0 PUSH2 0x2FE6 DUP3 PUSH2 0x2FA2 JUMP JUMPDEST SWAP2 POP PUSH2 0x2FF1 DUP4 PUSH2 0x2FA2 JUMP JUMPDEST SWAP3 POP DUP3 DUP3 ADD SWAP1 POP DUP1 DUP3 GT ISZERO PUSH2 0x3009 JUMPI PUSH2 0x3008 PUSH2 0x2FAC JUMP JUMPDEST JUMPDEST SWAP3 SWAP2 POP POP JUMP JUMPDEST PUSH1 0x0 PUSH1 0x40 MLOAD SWAP1 POP SWAP1 JUMP JUMPDEST PUSH1 0x0 DUP1 REVERT JUMPDEST PUSH1 0x0 DUP1 REVERT JUMPDEST PUSH1 0x0 PUSH32 0xFFFFFFFF00000000000000000000000000000000000000000000000000000000 DUP3 AND SWAP1 POP SWAP2 SWAP1 POP JUMP JUMPDEST PUSH2 0x3058 DUP2 PUSH2 0x3023 JUMP JUMPDEST DUP2 EQ PUSH2 0x3063 JUMPI PUSH1 0x0 DUP1 REVERT JUMPDEST POP JUMP JUMPDEST PUSH1 0x0 DUP2 CALLDATALOAD SWAP1 POP PUSH2 0x3075 DUP2 PUSH2 0x304F JUMP JUMPDEST SWAP3 SWAP2 POP POP JUMP JUMPDEST PUSH1 0x0 PUSH1 0x20 DUP3 DUP5 SUB SLT ISZERO PUSH2 0x3091 JUMPI PUSH2 0x3090 PUSH2 0x3019 JUMP JUMPDEST JUMPDEST PUSH1 0x0 PUSH2 0x309F DUP5 DUP3 DUP6 ADD PUSH2 0x3066 JUMP JUMPDEST SWAP2 POP POP SWAP3 SWAP2 POP POP JUMP JUMPDEST PUSH1 0x0 DUP2 ISZERO ISZERO SWAP1 POP SWAP2 SWAP1 POP JUMP JUMPDEST PUSH2 0x30BD DUP2 PUSH2 0x30A8 JUMP JUMPDEST DUP3 MSTORE POP POP JUMP JUMPDEST PUSH1 0x0 PUSH1 0x20 DUP3 ADD SWAP1 POP PUSH2 0x30D8 PUSH1 0x0 DUP4 ADD DUP5 PUSH2 0x30B4 JUMP JUMPDEST SWAP3 SWAP2 POP POP JUMP JUMPDEST PUSH1 0x0 DUP2 MLOAD SWAP1 POP SWAP2 SWAP1 POP JUMP JUMPDEST PUSH1 0x0 DUP3 DUP3 MSTORE PUSH1 0x20 DUP3 ADD SWAP1 POP SWAP3 SWAP2 POP POP JUMP JUMPDEST PUSH1 0x0 JUMPDEST DUP4 DUP2 LT ISZERO PUSH2 0x3118 JUMPI DUP1 DUP3 ADD MLOAD DUP2 DUP5 ADD MSTORE PUSH1 0x20 DUP2 ADD SWAP1 POP PUSH2 0x30FD JUMP JUMPDEST PUSH1 0x0 DUP5 DUP5 ADD MSTORE POP POP POP POP JUMP JUMPDEST PUSH1 0x0 PUSH1 0x1F NOT PUSH1 0x1F DUP4 ADD AND SWAP1 POP SWAP2 SWAP1 POP JUMP JUMPDEST PUSH1 0x0 PUSH2 0x3140 DUP3 PUSH2 0x30DE JUMP JUMPDEST PUSH2 0x314A DUP2 DUP6 PUSH2 0x30E9 JUMP JUMPDEST SWAP4 POP PUSH2 0x315A DUP2 DUP6 PUSH1 0x20 DUP7 ADD PUSH2 0x30FA JUMP JUMPDEST PUSH2 0x3163 DUP2 PUSH2 0x3124 JUMP JUMPDEST DUP5 ADD SWAP2 POP POP SWAP3 SWAP2 POP POP JUMP JUMPDEST PUSH1 0x0 PUSH1 0x20 DUP3 ADD SWAP1 POP DUP2 DUP2 SUB PUSH1 0x0 DUP4 ADD MSTORE PUSH2 0x3188 DUP2 DUP5 PUSH2 0x3135 JUMP JUMPDEST SWAP1 POP SWAP3 SWAP2 POP POP JUMP JUMPDEST PUSH2 0x3199 DUP2 PUSH2 0x2FA2 JUMP JUMPDEST DUP2 EQ PUSH2 0x31A4 JUMPI PUSH1 0x0 DUP1 REVERT JUMPDEST POP JUMP JUMPDEST PUSH1 0x0 DUP2 CALLDATALOAD SWAP1 POP PUSH2 0x31B6 DUP2 PUSH2 0x3190 JUMP JUMPDEST SWAP3 SWAP2 POP POP JUMP JUMPDEST PUSH1 0x0 PUSH1 0x20 DUP3 DUP5 SUB SLT ISZERO PUSH2 0x31D2 JUMPI PUSH2 0x31D1 PUSH2 0x3019 JUMP JUMPDEST JUMPDEST PUSH1 0x0 PUSH2 0x31E0 DUP5 DUP3 DUP6 ADD PUSH2 0x31A7 JUMP JUMPDEST SWAP2 POP POP SWAP3 SWAP2 POP POP JUMP JUMPDEST PUSH1 0x0 PUSH20 0xFFFFFFFFFFFFFFFFFFFFFFFFFFFFFFFFFFFFFFFF DUP3 AND SWAP1 POP SWAP2 SWAP1 POP JUMP JUMPDEST PUSH1 0x0 PUSH2 0x3214 DUP3 PUSH2 0x31E9 JUMP JUMPDEST SWAP1 POP SWAP2 SWAP1 POP JUMP JUMPDEST PUSH2 0x3224 DUP2 PUSH2 0x3209 JUMP JUMPDEST DUP3 MSTORE POP POP JUMP JUMPDEST PUSH1 0x0 PUSH1 0x20 DUP3 ADD SWAP1 POP PUSH2 0x323F PUSH1 0x0 DUP4 ADD DUP5 PUSH2 0x321B JUMP JUMPDEST SWAP3 SWAP2 POP POP JUMP JUMPDEST PUSH2 0x324E DUP2 PUSH2 0x3209 JUMP JUMPDEST DUP2 EQ PUSH2 0x3259 JUMPI PUSH1 0x0 DUP1 REVERT JUMPDEST POP JUMP JUMPDEST PUSH1 0x0 DUP2 CALLDATALOAD SWAP1 POP PUSH2 0x326B DUP2 PUSH2 0x3245 JUMP JUMPDEST SWAP3 SWAP2 POP POP JUMP JUMPDEST PUSH1 0x0 DUP1 PUSH1 0x40 DUP4 DUP6 SUB SLT ISZERO PUSH2 0x3288 JUMPI PUSH2 0x3287 PUSH2 0x3019 JUMP JUMPDEST JUMPDEST PUSH1 0x0 PUSH2 0x3296 DUP6 DUP3 DUP7 ADD PUSH2 0x325C JUMP JUMPDEST SWAP3 POP POP PUSH1 0x20 PUSH2 0x32A7 DUP6 DUP3 DUP7 ADD PUSH2 0x31A7 JUMP JUMPDEST SWAP2 POP POP SWAP3 POP SWAP3 SWAP1 POP JUMP JUMPDEST PUSH1 0x0 DUP1 PUSH1 0x0 PUSH1 0x60 DUP5 DUP7 SUB SLT ISZERO PUSH2 0x32CA JUMPI PUSH2 0x32C9 PUSH2 0x3019 JUMP JUMPDEST JUMPDEST PUSH1 0x0 PUSH2 0x32D8 DUP7 DUP3 DUP8 ADD PUSH2 0x325C JUMP JUMPDEST SWAP4 POP POP PUSH1 0x20 PUSH2 0x32E9 DUP7 DUP3 DUP8 ADD PUSH2 0x325C JUMP JUMPDEST SWAP3 POP POP PUSH1 0x40 PUSH2 0x32FA DUP7 DUP3 DUP8 ADD PUSH2 0x31A7 JUMP JUMPDEST SWAP2 POP POP SWAP3 POP SWAP3 POP SWAP3 JUMP JUMPDEST PUSH2 0x330D DUP2 PUSH2 0x2FA2 JUMP JUMPDEST DUP3 MSTORE POP POP JUMP JUMPDEST PUSH1 0x0 PUSH1 0x20 DUP3 ADD SWAP1 POP PUSH2 0x3328 PUSH1 0x0 DUP4 ADD DUP5 PUSH2 0x3304 JUMP JUMPDEST SWAP3 SWAP2 POP POP JUMP JUMPDEST PUSH1 0x0 DUP1 PUSH1 0x40 DUP4 DUP6 SUB SLT ISZERO PUSH2 0x3345 JUMPI PUSH2 0x3344 PUSH2 0x3019 JUMP JUMPDEST JUMPDEST PUSH1 0x0 PUSH2 0x3353 DUP6 DUP3 DUP7 ADD PUSH2 0x31A7 JUMP JUMPDEST SWAP3 POP POP PUSH1 0x20 PUSH2 0x3364 DUP6 DUP3 DUP7 ADD PUSH2 0x31A7 JUMP JUMPDEST SWAP2 POP POP SWAP3 POP SWAP3 SWAP1 POP JUMP JUMPDEST PUSH1 0x0 PUSH2 0x3379 DUP3 PUSH2 0x31E9 JUMP JUMPDEST SWAP1 POP SWAP2 SWAP1 POP JUMP JUMPDEST PUSH2 0x3389 DUP2 PUSH2 0x336E JUMP JUMPDEST DUP3 MSTORE POP POP JUMP JUMPDEST PUSH2 0x3398 DUP2 PUSH2 0x2FA2 JUMP JUMPDEST DUP3 MSTORE POP POP JUMP JUMPDEST PUSH1 0x0 DUP3 DUP3 MSTORE PUSH1 0x20 DUP3 ADD SWAP1 POP SWAP3 SWAP2 POP POP JUMP JUMPDEST PUSH1 0x0 PUSH2 0x33BA DUP3 PUSH2 0x30DE JUMP JUMPDEST PUSH2 0x33C4 DUP2 DUP6 PUSH2 0x339E JUMP JUMPDEST SWAP4 POP PUSH2 0x33D4 DUP2 DUP6 PUSH1 0x20 DUP7 ADD PUSH2 0x30FA JUMP JUMPDEST PUSH2 0x33DD DUP2 PUSH2 0x3124 JUMP JUMPDEST DUP5 ADD SWAP2 POP POP SWAP3 SWAP2 POP POP JUMP JUMPDEST PUSH1 0x0 PUSH1 0xC0 DUP4 ADD PUSH1 0x0 DUP4 ADD MLOAD PUSH2 0x3400 PUSH1 0x0 DUP7 ADD DUP3 PUSH2 0x3380 JUMP JUMPDEST POP PUSH1 0x20 DUP4 ADD MLOAD PUSH2 0x3413 PUSH1 0x20 DUP7 ADD DUP3 PUSH2 0x3380 JUMP JUMPDEST POP PUSH1 0x40 DUP4 ADD MLOAD PUSH2 0x3426 PUSH1 0x40 DUP7 ADD DUP3 PUSH2 0x338F JUMP JUMPDEST POP PUSH1 0x60 DUP4 ADD MLOAD PUSH2 0x3439 PUSH1 0x60 DUP7 ADD DUP3 PUSH2 0x338F JUMP JUMPDEST POP PUSH1 0x80 DUP4 ADD MLOAD PUSH2 0x344C PUSH1 0x80 DUP7 ADD DUP3 PUSH2 0x338F JUMP JUMPDEST POP PUSH1 0xA0 DUP4 ADD MLOAD DUP5 DUP3 SUB PUSH1 0xA0 DUP7 ADD MSTORE PUSH2 0x3464 DUP3 DUP3 PUSH2 0x33AF JUMP JUMPDEST SWAP2 POP POP DUP1 SWAP2 POP POP SWAP3 SWAP2 POP POP JUMP JUMPDEST PUSH1 0x0 PUSH1 0x20 DUP3 ADD SWAP1 POP DUP2 DUP2 SUB PUSH1 0x0 DUP4 ADD MSTORE PUSH2 0x348B DUP2 DUP5 PUSH2 0x33E8 JUMP JUMPDEST SWAP1 POP SWAP3 SWAP2 POP POP JUMP JUMPDEST PUSH1 0x0 DUP1 PUSH1 0x40 DUP4 DUP6 SUB SLT ISZERO PUSH2 0x34AA JUMPI PUSH2 0x34A9 PUSH2 0x3019 JUMP JUMPDEST JUMPDEST PUSH1 0x0 PUSH2 0x34B8 DUP6 DUP3 DUP7 ADD PUSH2 0x31A7 JUMP JUMPDEST SWAP3 POP POP PUSH1 0x20 PUSH2 0x34C9 DUP6 DUP3 DUP7 ADD PUSH2 0x325C JUMP JUMPDEST SWAP2 POP POP SWAP3 POP SWAP3 SWAP1 POP JUMP JUMPDEST PUSH1 0x0 PUSH1 0x20 DUP3 DUP5 SUB SLT ISZERO PUSH2 0x34E9 JUMPI PUSH2 0x34E8 PUSH2 0x3019 JUMP JUMPDEST JUMPDEST PUSH1 0x0 PUSH2 0x34F7 DUP5 DUP3 DUP6 ADD PUSH2 0x325C JUMP JUMPDEST SWAP2 POP POP SWAP3 SWAP2 POP POP JUMP JUMPDEST PUSH2 0x3509 DUP2 PUSH2 0x30A8 JUMP JUMPDEST DUP2 EQ PUSH2 0x3514 JUMPI PUSH1 0x0 DUP1 REVERT JUMPDEST POP JUMP JUMPDEST PUSH1 0x0 DUP2 CALLDATALOAD SWAP1 POP PUSH2 0x3526 DUP2 PUSH2 0x3500 JUMP JUMPDEST SWAP3 SWAP2 POP POP JUMP JUMPDEST PUSH1 0x0 DUP1 PUSH1 0x40 DUP4 DUP6 SUB SLT ISZERO PUSH2 0x3543 JUMPI PUSH2 0x3542 PUSH2 0x3019 JUMP JUMPDEST JUMPDEST PUSH1 0x0 PUSH2 0x3551 DUP6 DUP3 DUP7 ADD PUSH2 0x325C JUMP JUMPDEST SWAP3 POP POP PUSH1 0x20 PUSH2 0x3562 DUP6 DUP3 DUP7 ADD PUSH2 0x3517 JUMP JUMPDEST SWAP2 POP POP SWAP3 POP SWAP3 SWAP1 POP JUMP JUMPDEST PUSH1 0x0 DUP1 REVERT JUMPDEST PUSH1 0x0 DUP1 REVERT JUMPDEST PUSH32 0x4E487B7100000000000000000000000000000000000000000000000000000000 PUSH1 0x0 MSTORE PUSH1 0x41 PUSH1 0x4 MSTORE PUSH1 0x24 PUSH1 0x0 REVERT JUMPDEST PUSH2 0x35AE DUP3 PUSH2 0x3124 JUMP JUMPDEST DUP2 ADD DUP2 DUP2 LT PUSH8 0xFFFFFFFFFFFFFFFF DUP3 GT OR ISZERO PUSH2 0x35CD JUMPI PUSH2 0x35CC PUSH2 0x3576 JUMP JUMPDEST JUMPDEST DUP1 PUSH1 0x40 MSTORE POP POP POP JUMP JUMPDEST PUSH1 0x0 PUSH2 0x35E0 PUSH2 0x300F JUMP JUMPDEST SWAP1 POP PUSH2 0x35EC DUP3 DUP3 PUSH2 0x35A5 JUMP JUMPDEST SWAP2 SWAP1 POP JUMP JUMPDEST PUSH1 0x0 PUSH8 0xFFFFFFFFFFFFFFFF DUP3 GT ISZERO PUSH2 0x360C JUMPI PUSH2 0x360B PUSH2 0x3576 JUMP JUMPDEST JUMPDEST PUSH2 0x3615 DUP3 PUSH2 0x3124 JUMP JUMPDEST SWAP1 POP PUSH1 0x20 DUP2 ADD SWAP1 POP SWAP2 SWAP1 POP JUMP JUMPDEST DUP3 DUP2 DUP4 CALLDATACOPY PUSH1 0x0 DUP4 DUP4 ADD MSTORE POP POP POP JUMP JUMPDEST PUSH1 0x0 PUSH2 0x3644 PUSH2 0x363F DUP5 PUSH2 0x35F1 JUMP JUMPDEST PUSH2 0x35D6 JUMP JUMPDEST SWAP1 POP DUP3 DUP2 MSTORE PUSH1 0x20 DUP2 ADD DUP5 DUP5 DUP5 ADD GT ISZERO PUSH2 0x3660 JUMPI PUSH2 0x365F PUSH2 0x3571 JUMP JUMPDEST JUMPDEST PUSH2 0x366B DUP5 DUP3 DUP6 PUSH2 0x3622 JUMP JUMPDEST POP SWAP4 SWAP3 POP POP POP JUMP JUMPDEST PUSH1 0x0 DUP3 PUSH1 0x1F DUP4 ADD SLT PUSH2 0x3688 JUMPI PUSH2 0x3687 PUSH2 0x356C JUMP JUMPDEST JUMPDEST DUP2 CALLDATALOAD PUSH2 0x3698 DUP5 DUP3 PUSH1 0x20 DUP7 ADD PUSH2 0x3631 JUMP JUMPDEST SWAP2 POP POP SWAP3 SWAP2 POP POP JUMP JUMPDEST PUSH1 0x0 DUP1 PUSH1 0x0 DUP1 PUSH1 0x80 DUP6 DUP8 SUB SLT ISZERO PUSH2 0x36BB JUMPI PUSH2 0x36BA PUSH2 0x3019 JUMP JUMPDEST JUMPDEST PUSH1 0x0 PUSH2 0x36C9 DUP8 DUP3 DUP9 ADD PUSH2 0x325C JUMP JUMPDEST SWAP5 POP POP PUSH1 0x20 PUSH2 0x36DA DUP8 DUP3 DUP9 ADD PUSH2 0x325C JUMP JUMPDEST SWAP4 POP POP PUSH1 0x40 PUSH2 0x36EB DUP8 DUP3 DUP9 ADD PUSH2 0x31A7 JUMP JUMPDEST SWAP3 POP POP PUSH1 0x60 DUP6 ADD CALLDATALOAD PUSH8 0xFFFFFFFFFFFFFFFF DUP2 GT ISZERO PUSH2 0x370C JUMPI PUSH2 0x370B PUSH2 0x301E JUMP JUMPDEST JUMPDEST PUSH2 0x3718 DUP8 DUP3 DUP9 ADD PUSH2 0x3673 JUMP JUMPDEST SWAP2 POP POP SWAP3 SWAP6 SWAP2 SWAP5 POP SWAP3 POP JUMP JUMPDEST PUSH1 0x0 PUSH8 0xFFFFFFFFFFFFFFFF DUP3 GT ISZERO PUSH2 0x373F JUMPI PUSH2 0x373E PUSH2 0x3576 JUMP JUMPDEST JUMPDEST PUSH2 0x3748 DUP3 PUSH2 0x3124 JUMP JUMPDEST SWAP1 POP PUSH1 0x20 DUP2 ADD SWAP1 POP SWAP2 SWAP1 POP JUMP JUMPDEST PUSH1 0x0 PUSH2 0x3768 PUSH2 0x3763 DUP5 PUSH2 0x3724 JUMP JUMPDEST PUSH2 0x35D6 JUMP JUMPDEST SWAP1 POP DUP3 DUP2 MSTORE PUSH1 0x20 DUP2 ADD DUP5 DUP5 DUP5 ADD GT ISZERO PUSH2 0x3784 JUMPI PUSH2 0x3783 PUSH2 0x3571 JUMP JUMPDEST JUMPDEST PUSH2 0x378F DUP5 DUP3 DUP6 PUSH2 0x3622 JUMP JUMPDEST POP SWAP4 SWAP3 POP POP POP JUMP JUMPDEST PUSH1 0x0 DUP3 PUSH1 0x1F DUP4 ADD SLT PUSH2 0x37AC JUMPI PUSH2 0x37AB PUSH2 0x356C JUMP JUMPDEST JUMPDEST DUP2 CALLDATALOAD PUSH2 0x37BC DUP5 DUP3 PUSH1 0x20 DUP7 ADD PUSH2 0x3755 JUMP JUMPDEST SWAP2 POP POP SWAP3 SWAP2 POP POP JUMP JUMPDEST PUSH1 0x0 DUP1 PUSH1 0x0 DUP1 PUSH1 0x0 DUP1 PUSH1 0x0 PUSH1 0xE0 DUP9 DUP11 SUB SLT ISZERO PUSH2 0x37E4 JUMPI PUSH2 0x37E3 PUSH2 0x3019 JUMP JUMPDEST JUMPDEST PUSH1 0x0 PUSH2 0x37F2 DUP11 DUP3 DUP12 ADD PUSH2 0x31A7 JUMP JUMPDEST SWAP8 POP POP PUSH1 0x20 PUSH2 0x3803 DUP11 DUP3 DUP12 ADD PUSH2 0x325C JUMP JUMPDEST SWAP7 POP POP PUSH1 0x40 PUSH2 0x3814 DUP11 DUP3 DUP12 ADD PUSH2 0x325C JUMP JUMPDEST SWAP6 POP POP PUSH1 0x60 PUSH2 0x3825 DUP11 DUP3 DUP12 ADD PUSH2 0x31A7 JUMP JUMPDEST SWAP5 POP POP PUSH1 0x80 PUSH2 0x3836 DUP11 DUP3 DUP12 ADD PUSH2 0x31A7 JUMP JUMPDEST SWAP4 POP POP PUSH1 0xA0 PUSH2 0x3847 DUP11 DUP3 DUP12 ADD PUSH2 0x31A7 JUMP JUMPDEST SWAP3 POP POP PUSH1 0xC0 DUP9 ADD CALLDATALOAD PUSH8 0xFFFFFFFFFFFFFFFF DUP2 GT ISZERO PUSH2 0x3868 JUMPI PUSH2 0x3867 PUSH2 0x301E JUMP JUMPDEST JUMPDEST PUSH2 0x3874 DUP11 DUP3 DUP12 ADD PUSH2 0x3797 JUMP JUMPDEST SWAP2 POP POP SWAP3 SWAP6 SWAP9 SWAP2 SWAP5 SWAP8 POP SWAP3 SWAP6 POP JUMP JUMPDEST PUSH1 0x0 DUP1 PUSH1 0x40 DUP4 DUP6 SUB SLT ISZERO PUSH2 0x389A JUMPI PUSH2 0x3899 PUSH2 0x3019 JUMP JUMPDEST JUMPDEST PUSH1 0x0 PUSH2 0x38A8 DUP6 DUP3 DUP7 ADD PUSH2 0x325C JUMP JUMPDEST SWAP3 POP POP PUSH1 0x20 PUSH2 0x38B9 DUP6 DUP3 DUP7 ADD PUSH2 0x325C JUMP JUMPDEST SWAP2 POP POP SWAP3 POP SWAP3 SWAP1 POP JUMP JUMPDEST PUSH32 0x4E487B7100000000000000000000000000000000000000000000000000000000 PUSH1 0x0 MSTORE PUSH1 0x22 PUSH1 0x4 MSTORE PUSH1 0x24 PUSH1 0x0 REVERT JUMPDEST PUSH1 0x0 PUSH1 0x2 DUP3 DIV SWAP1 POP PUSH1 0x1 DUP3 AND DUP1 PUSH2 0x390A JUMPI PUSH1 0x7F DUP3 AND SWAP2 POP JUMPDEST PUSH1 0x20 DUP3 LT DUP2 SUB PUSH2 0x391D JUMPI PUSH2 0x391C PUSH2 0x38C3 JUMP JUMPDEST JUMPDEST POP SWAP2 SWAP1 POP JUMP JUMPDEST PUSH1 0x0 PUSH1 0x60 DUP3 ADD SWAP1 POP PUSH2 0x3938 PUSH1 0x0 DUP4 ADD DUP7 PUSH2 0x321B JUMP JUMPDEST PUSH2 0x3945 PUSH1 0x20 DUP4 ADD DUP6 PUSH2 0x3304 JUMP JUMPDEST PUSH2 0x3952 PUSH1 0x40 DUP4 ADD DUP5 PUSH2 0x321B JUMP JUMPDEST SWAP5 SWAP4 POP POP POP POP JUMP JUMPDEST PUSH32 0x4F6E6C792072656E7465722063616E2063616C6C2074686973206D6574686F64 PUSH1 0x0 DUP3 ADD MSTORE POP JUMP JUMPDEST PUSH1 0x0 PUSH2 0x3990 PUSH1 0x20 DUP4 PUSH2 0x30E9 JUMP JUMPDEST SWAP2 POP PUSH2 0x399B DUP3 PUSH2 0x395A JUMP JUMPDEST PUSH1 0x20 DUP3 ADD SWAP1 POP SWAP2 SWAP1 POP JUMP JUMPDEST PUSH1 0x0 PUSH1 0x20 DUP3 ADD SWAP1 POP DUP2 DUP2 SUB PUSH1 0x0 DUP4 ADD MSTORE PUSH2 0x39BF DUP2 PUSH2 0x3983 JUMP JUMPDEST SWAP1 POP SWAP2 SWAP1 POP JUMP JUMPDEST PUSH32 0x4465706F73697420686173206265656E2077697468647261776E000000000000 PUSH1 0x0 DUP3 ADD MSTORE POP JUMP JUMPDEST PUSH1 0x0 PUSH2 0x39FC PUSH1 0x1A DUP4 PUSH2 0x30E9 JUMP JUMPDEST SWAP2 POP PUSH2 0x3A07 DUP3 PUSH2 0x39C6 JUMP JUMPDEST PUSH1 0x20 DUP3 ADD SWAP1 POP SWAP2 SWAP1 POP JUMP JUMPDEST PUSH1 0x0 PUSH1 0x20 DUP3 ADD SWAP1 POP DUP2 DUP2 SUB PUSH1 0x0 DUP4 ADD MSTORE PUSH2 0x3A2B DUP2 PUSH2 0x39EF JUMP JUMPDEST SWAP1 POP SWAP2 SWAP1 POP JUMP JUMPDEST PUSH32 0x4465706F736974206E6F7420656E6F7567680000000000000000000000000000 PUSH1 0x0 DUP3 ADD MSTORE POP JUMP JUMPDEST PUSH1 0x0 PUSH2 0x3A68 PUSH1 0x12 DUP4 PUSH2 0x30E9 JUMP JUMPDEST SWAP2 POP PUSH2 0x3A73 DUP3 PUSH2 0x3A32 JUMP JUMPDEST PUSH1 0x20 DUP3 ADD SWAP1 POP SWAP2 SWAP1 POP JUMP JUMPDEST PUSH1 0x0 PUSH1 0x20 DUP3 ADD SWAP1 POP DUP2 DUP2 SUB PUSH1 0x0 DUP4 ADD MSTORE PUSH2 0x3A97 DUP2 PUSH2 0x3A5B JUMP JUMPDEST SWAP1 POP SWAP2 SWAP1 POP JUMP JUMPDEST PUSH1 0x0 PUSH2 0x3AA9 DUP3 PUSH2 0x2FA2 JUMP JUMPDEST SWAP2 POP PUSH2 0x3AB4 DUP4 PUSH2 0x2FA2 JUMP JUMPDEST SWAP3 POP DUP3 DUP3 SUB SWAP1 POP DUP2 DUP2 GT ISZERO PUSH2 0x3ACC JUMPI PUSH2 0x3ACB PUSH2 0x2FAC JUMP JUMPDEST JUMPDEST SWAP3 SWAP2 POP POP JUMP JUMPDEST PUSH1 0x0 DUP2 SWAP1 POP SWAP2 SWAP1 POP JUMP JUMPDEST PUSH1 0x0 PUSH2 0x3AF7 PUSH2 0x3AF2 PUSH2 0x3AED DUP5 PUSH2 0x31E9 JUMP JUMPDEST PUSH2 0x3AD2 JUMP JUMPDEST PUSH2 0x31E9 JUMP JUMPDEST SWAP1 POP SWAP2 SWAP1 POP JUMP JUMPDEST PUSH1 0x0 PUSH2 0x3B09 DUP3 PUSH2 0x3ADC JUMP JUMPDEST SWAP1 POP SWAP2 SWAP1 POP JUMP JUMPDEST PUSH1 0x0 PUSH2 0x3B1B DUP3 PUSH2 0x3AFE JUMP JUMPDEST SWAP1 POP SWAP2 SWAP1 POP JUMP JUMPDEST PUSH2 0x3B2B DUP2 PUSH2 0x3B10 JUMP JUMPDEST DUP3 MSTORE POP POP JUMP JUMPDEST PUSH1 0x0 PUSH1 0x60 DUP3 ADD SWAP1 POP PUSH2 0x3B46 PUSH1 0x0 DUP4 ADD DUP7 PUSH2 0x321B JUMP JUMPDEST PUSH2 0x3B53 PUSH1 0x20 DUP4 ADD DUP6 PUSH2 0x3B22 JUMP JUMPDEST PUSH2 0x3B60 PUSH1 0x40 DUP4 ADD DUP5 PUSH2 0x3304 JUMP JUMPDEST SWAP5 SWAP4 POP POP POP POP JUMP JUMPDEST PUSH32 0x42616C616E636572206E6F7420656E6F75676874000000000000000000000000 PUSH1 0x0 DUP3 ADD MSTORE POP JUMP JUMPDEST PUSH1 0x0 PUSH2 0x3B9E PUSH1 0x14 DUP4 PUSH2 0x30E9 JUMP JUMPDEST SWAP2 POP PUSH2 0x3BA9 DUP3 PUSH2 0x3B68 JUMP JUMPDEST PUSH1 0x20 DUP3 ADD SWAP1 POP SWAP2 SWAP1 POP JUMP JUMPDEST PUSH1 0x0 PUSH1 0x20 DUP3 ADD SWAP1 POP DUP2 DUP2 SUB PUSH1 0x0 DUP4 ADD MSTORE PUSH2 0x3BCD DUP2 PUSH2 0x3B91 JUMP JUMPDEST SWAP1 POP SWAP2 SWAP1 POP JUMP JUMPDEST PUSH1 0x0 DUP2 SWAP1 POP SWAP3 SWAP2 POP POP JUMP JUMPDEST PUSH1 0x0 PUSH2 0x3BEA DUP3 PUSH2 0x30DE JUMP JUMPDEST PUSH2 0x3BF4 DUP2 DUP6 PUSH2 0x3BD4 JUMP JUMPDEST SWAP4 POP PUSH2 0x3C04 DUP2 DUP6 PUSH1 0x20 DUP7 ADD PUSH2 0x30FA JUMP JUMPDEST DUP1 DUP5 ADD SWAP2 POP POP SWAP3 SWAP2 POP POP JUMP JUMPDEST PUSH1 0x0 PUSH2 0x3C1C DUP3 DUP6 PUSH2 0x3BDF JUMP JUMPDEST SWAP2 POP PUSH2 0x3C28 DUP3 DUP5 PUSH2 0x3BDF JUMP JUMPDEST SWAP2 POP DUP2 SWAP1 POP SWAP4 SWAP3 POP POP POP JUMP JUMPDEST PUSH32 0x42616C616E6365206E6F7420656E6F7567680000000000000000000000000000 PUSH1 0x0 DUP3 ADD MSTORE POP JUMP JUMPDEST PUSH1 0x0 PUSH2 0x3C6A PUSH1 0x12 DUP4 PUSH2 0x30E9 JUMP JUMPDEST SWAP2 POP PUSH2 0x3C75 DUP3 PUSH2 0x3C34 JUMP JUMPDEST PUSH1 0x20 DUP3 ADD SWAP1 POP SWAP2 SWAP1 POP JUMP JUMPDEST PUSH1 0x0 PUSH1 0x20 DUP3 ADD SWAP1 POP DUP2 DUP2 SUB PUSH1 0x0 DUP4 ADD MSTORE PUSH2 0x3C99 DUP2 PUSH2 0x3C5D JUMP JUMPDEST SWAP1 POP SWAP2 SWAP1 POP JUMP JUMPDEST PUSH1 0x0 DUP2 MLOAD SWAP1 POP SWAP2 SWAP1 POP JUMP JUMPDEST PUSH1 0x0 DUP3 DUP3 MSTORE PUSH1 0x20 DUP3 ADD SWAP1 POP SWAP3 SWAP2 POP POP JUMP JUMPDEST PUSH1 0x0 PUSH2 0x3CC7 DUP3 PUSH2 0x3CA0 JUMP JUMPDEST PUSH2 0x3CD1 DUP2 DUP6 PUSH2 0x3CAB JUMP JUMPDEST SWAP4 POP PUSH2 0x3CE1 DUP2 DUP6 PUSH1 0x20 DUP7 ADD PUSH2 0x30FA JUMP JUMPDEST PUSH2 0x3CEA DUP2 PUSH2 0x3124 JUMP JUMPDEST DUP5 ADD SWAP2 POP POP SWAP3 SWAP2 POP POP JUMP JUMPDEST PUSH1 0x0 PUSH1 0x80 DUP3 ADD SWAP1 POP PUSH2 0x3D0A PUSH1 0x0 DUP4 ADD DUP8 PUSH2 0x321B JUMP JUMPDEST PUSH2 0x3D17 PUSH1 0x20 DUP4 ADD DUP7 PUSH2 0x321B JUMP JUMPDEST PUSH2 0x3D24 PUSH1 0x40 DUP4 ADD DUP6 PUSH2 0x3304 JUMP JUMPDEST DUP2 DUP2 SUB PUSH1 0x60 DUP4 ADD MSTORE PUSH2 0x3D36 DUP2 DUP5 PUSH2 0x3CBC JUMP JUMPDEST SWAP1 POP SWAP6 SWAP5 POP POP POP POP POP JUMP JUMPDEST PUSH1 0x0 DUP2 MLOAD SWAP1 POP PUSH2 0x3D50 DUP2 PUSH2 0x304F JUMP JUMPDEST SWAP3 SWAP2 POP POP JUMP JUMPDEST PUSH1 0x0 PUSH1 0x20 DUP3 DUP5 SUB SLT ISZERO PUSH2 0x3D6C JUMPI PUSH2 0x3D6B PUSH2 0x3019 JUMP JUMPDEST JUMPDEST PUSH1 0x0 PUSH2 0x3D7A DUP5 DUP3 DUP6 ADD PUSH2 0x3D41 JUMP JUMPDEST SWAP2 POP POP SWAP3 SWAP2 POP POP JUMP JUMPDEST PUSH1 0x0 DUP2 SWAP1 POP DUP2 PUSH1 0x0 MSTORE PUSH1 0x20 PUSH1 0x0 KECCAK256 SWAP1 POP SWAP2 SWAP1 POP JUMP JUMPDEST PUSH1 0x0 PUSH1 0x20 PUSH1 0x1F DUP4 ADD DIV SWAP1 POP SWAP2 SWAP1 POP JUMP JUMPDEST PUSH1 0x0 DUP3 DUP3 SHL SWAP1 POP SWAP3 SWAP2 POP POP JUMP JUMPDEST PUSH1 0x0 PUSH1 0x8 DUP4 MUL PUSH2 0x3DE5 PUSH32 0xFFFFFFFFFFFFFFFFFFFFFFFFFFFFFFFFFFFFFFFFFFFFFFFFFFFFFFFFFFFFFFFF DUP3 PUSH2 0x3DA8 JUMP JUMPDEST PUSH2 0x3DEF DUP7 DUP4 PUSH2 0x3DA8 JUMP JUMPDEST SWAP6 POP DUP1 NOT DUP5 AND SWAP4 POP DUP1 DUP7 AND DUP5 OR SWAP3 POP POP POP SWAP4 SWAP3 POP POP POP JUMP JUMPDEST PUSH1 0x0 PUSH2 0x3E22 PUSH2 0x3E1D PUSH2 0x3E18 DUP5 PUSH2 0x2FA2 JUMP JUMPDEST PUSH2 0x3AD2 JUMP JUMPDEST PUSH2 0x2FA2 JUMP JUMPDEST SWAP1 POP SWAP2 SWAP1 POP JUMP JUMPDEST PUSH1 0x0 DUP2 SWAP1 POP SWAP2 SWAP1 POP JUMP JUMPDEST PUSH2 0x3E3C DUP4 PUSH2 0x3E07 JUMP JUMPDEST PUSH2 0x3E50 PUSH2 0x3E48 DUP3 PUSH2 0x3E29 JUMP JUMPDEST DUP5 DUP5 SLOAD PUSH2 0x3DB5 JUMP JUMPDEST DUP3 SSTORE POP POP POP POP JUMP JUMPDEST PUSH1 0x0 SWAP1 JUMP JUMPDEST PUSH2 0x3E65 PUSH2 0x3E58 JUMP JUMPDEST PUSH2 0x3E70 DUP2 DUP5 DUP5 PUSH2 0x3E33 JUMP JUMPDEST POP POP POP JUMP JUMPDEST JUMPDEST DUP2 DUP2 LT ISZERO PUSH2 0x3E94 JUMPI PUSH2 0x3E89 PUSH1 0x0 DUP3 PUSH2 0x3E5D JUMP JUMPDEST PUSH1 0x1 DUP2 ADD SWAP1 POP PUSH2 0x3E76 JUMP JUMPDEST POP POP JUMP JUMPDEST PUSH1 0x1F DUP3 GT ISZERO PUSH2 0x3ED9 JUMPI PUSH2 0x3EAA DUP2 PUSH2 0x3D83 JUMP JUMPDEST PUSH2 0x3EB3 DUP5 PUSH2 0x3D98 JUMP JUMPDEST DUP2 ADD PUSH1 0x20 DUP6 LT ISZERO PUSH2 0x3EC2 JUMPI DUP2 SWAP1 POP JUMPDEST PUSH2 0x3ED6 PUSH2 0x3ECE DUP6 PUSH2 0x3D98 JUMP JUMPDEST DUP4 ADD DUP3 PUSH2 0x3E75 JUMP JUMPDEST POP POP JUMPDEST POP POP POP JUMP JUMPDEST PUSH1 0x0 DUP3 DUP3 SHR SWAP1 POP SWAP3 SWAP2 POP POP JUMP JUMPDEST PUSH1 0x0 PUSH2 0x3EFC PUSH1 0x0 NOT DUP5 PUSH1 0x8 MUL PUSH2 0x3EDE JUMP JUMPDEST NOT DUP1 DUP4 AND SWAP2 POP POP SWAP3 SWAP2 POP POP JUMP JUMPDEST PUSH1 0x0 PUSH2 0x3F15 DUP4 DUP4 PUSH2 0x3EEB JUMP JUMPDEST SWAP2 POP DUP3 PUSH1 0x2 MUL DUP3 OR SWAP1 POP SWAP3 SWAP2 POP POP JUMP JUMPDEST PUSH2 0x3F2E DUP3 PUSH2 0x30DE JUMP JUMPDEST PUSH8 0xFFFFFFFFFFFFFFFF DUP2 GT ISZERO PUSH2 0x3F47 JUMPI PUSH2 0x3F46 PUSH2 0x3576 JUMP JUMPDEST JUMPDEST PUSH2 0x3F51 DUP3 SLOAD PUSH2 0x38F2 JUMP JUMPDEST PUSH2 0x3F5C DUP3 DUP3 DUP6 PUSH2 0x3E98 JUMP JUMPDEST PUSH1 0x0 PUSH1 0x20 SWAP1 POP PUSH1 0x1F DUP4 GT PUSH1 0x1 DUP2 EQ PUSH2 0x3F8F JUMPI PUSH1 0x0 DUP5 ISZERO PUSH2 0x3F7D JUMPI DUP3 DUP8 ADD MLOAD SWAP1 POP JUMPDEST PUSH2 0x3F87 DUP6 DUP3 PUSH2 0x3F09 JUMP JUMPDEST DUP7 SSTORE POP PUSH2 0x3FEF JUMP JUMPDEST PUSH1 0x1F NOT DUP5 AND PUSH2 0x3F9D DUP7 PUSH2 0x3D83 JUMP JUMPDEST PUSH1 0x0 JUMPDEST DUP3 DUP2 LT ISZERO PUSH2 0x3FC5 JUMPI DUP5 DUP10 ADD MLOAD DUP3 SSTORE PUSH1 0x1 DUP3 ADD SWAP2 POP PUSH1 0x20 DUP6 ADD SWAP5 POP PUSH1 0x20 DUP2 ADD SWAP1 POP PUSH2 0x3FA0 JUMP JUMPDEST DUP7 DUP4 LT ISZERO PUSH2 0x3FE2 JUMPI DUP5 DUP10 ADD MLOAD PUSH2 0x3FDE PUSH1 0x1F DUP10 AND DUP3 PUSH2 0x3EEB JUMP JUMPDEST DUP4 SSTORE POP JUMPDEST PUSH1 0x1 PUSH1 0x2 DUP9 MUL ADD DUP9 SSTORE POP POP POP JUMPDEST POP POP POP POP POP POP JUMP JUMPDEST PUSH1 0x0 PUSH1 0x40 DUP3 ADD SWAP1 POP PUSH2 0x400C PUSH1 0x0 DUP4 ADD DUP6 PUSH2 0x321B JUMP JUMPDEST PUSH2 0x4019 PUSH1 0x20 DUP4 ADD DUP5 PUSH2 0x3304 JUMP JUMPDEST SWAP4 SWAP3 POP POP POP JUMP JUMPDEST PUSH32 0x4E487B7100000000000000000000000000000000000000000000000000000000 PUSH1 0x0 MSTORE PUSH1 0x12 PUSH1 0x4 MSTORE PUSH1 0x24 PUSH1 0x0 REVERT INVALID LOG2 PUSH5 0x6970667358 0x22 SLT KECCAK256 CREATE SWAP10 SWAP2 0xD9 0xB2 0xBF PUSH21 0xD484A673C47EF6A0D9908927BB3D84FE6C00C983AE PUSH11 0xB8A2E164736F6C63430008 EQ STOP CALLER "},"methodIdentifiers":{"approve(address,uint256)":"095ea7b3","balanceOf(address)":"70a08231","close(address)":"c74073a1","depositContract(uint256)":"9b845899","getApproved(uint256)":"081812fc","getContract(uint256)":"6ebc8c86","getDepositContractByRenter(uint256,address)":"6ef49dfc","getbalanceOf()":"402a71d7","isApprovedForAll(address,address)":"e985e9c5","mint(uint256,address,address,uint256,uint256,uint256,string)":"e54b0768","name()":"06fdde03","ownerOf(uint256)":"6352211e","payDepositToRenter(uint256)":"9529f060","payRentCost(uint256)":"b991aa03","renewal(uint256,uint256)":"6135281a","safeTransferFrom(address,address,uint256)":"42842e0e","safeTransferFrom(address,address,uint256,bytes)":"b88d4fde","setApprovalForAll(address,bool)":"a22cb465","supportsInterface(bytes4)":"01ffc9a7","symbol()":"95d89b41","tokenURI(uint256)":"c87b56dd","transferFrom(address,address,uint256)":"23b872dd","withdrawPositRenter(uint256)":"e0ea9c34"}}}}}