{"contracts/contractApi.sol":{"SmartContract":{"abi":[{"inputs":[],"stateMutability":"payable","type":"constructor"},{"anonymous":false,"inputs":[{"indexed":false,"internalType":"string","name":"message","type":"string"},{"indexed":false,"internalType":"address","name":"_address","type":"address"}],"name":"log","type":"event"},{"stateMutability":"payable","type":"fallback"},{"inputs":[{"internalType":"address","name":"_to","type":"address"}],"name":"close","outputs":[],"stateMutability":"nonpayable","type":"function"},{"inputs":[{"internalType":"uint256","name":"_id","type":"uint256"},{"internalType":"address","name":"_renterAddress","type":"address"},{"internalType":"address","name":"_sellerAdsress","type":"address"},{"internalType":"uint256","name":"_rentCost","type":"uint256"},{"internalType":"uint32","name":"_duration","type":"uint32"},{"internalType":"uint32","name":"_timeStart","type":"uint32"},{"internalType":"uint32","name":"_paymentDeadline","type":"uint32"},{"internalType":"string","name":"_payment_type","type":"string"},{"components":[{"internalType":"string","name":"name","type":"string"},{"internalType":"string","name":"content","type":"string"}],"internalType":"struct SmartContract.Term[]","name":"_termArray","type":"tuple[]"}],"name":"createSmartContract","outputs":[],"stateMutability":"nonpayable","type":"function"},{"inputs":[],"name":"getAddressContract","outputs":[{"internalType":"address","name":"","type":"address"}],"stateMutability":"view","type":"function"},{"inputs":[],"name":"getContractBalance","outputs":[{"internalType":"uint256","name":"","type":"uint256"}],"stateMutability":"view","type":"function"},{"inputs":[{"internalType":"address","name":"addressWallet","type":"address"}],"name":"getPersonByAddress","outputs":[{"components":[{"internalType":"address","name":"addressWallet","type":"address"},{"internalType":"uint256","name":"balance","type":"uint256"}],"internalType":"struct SmartContract.Person","name":"","type":"tuple"}],"stateMutability":"view","type":"function"},{"inputs":[{"internalType":"uint256","name":"_id","type":"uint256"}],"name":"getSmartContractById","outputs":[{"components":[{"internalType":"uint256","name":"id","type":"uint256"},{"internalType":"address payable","name":"renter","type":"address"},{"internalType":"address payable","name":"seller","type":"address"},{"internalType":"uint256","name":"rentCost","type":"uint256"},{"internalType":"uint32","name":"duration","type":"uint32"},{"internalType":"uint32","name":"timeStart","type":"uint32"},{"internalType":"uint32","name":"paymentDeadline","type":"uint32"},{"internalType":"string","name":"payment_type","type":"string"},{"components":[{"internalType":"string","name":"name","type":"string"},{"internalType":"string","name":"content","type":"string"}],"internalType":"struct SmartContract.Term[]","name":"termArray","type":"tuple[]"}],"internalType":"struct SmartContract.ContractEntity","name":"","type":"tuple"}],"stateMutability":"view","type":"function"},{"inputs":[{"internalType":"uint256","name":"contractId","type":"uint256"}],"name":"transferETH","outputs":[],"stateMutability":"payable","type":"function"},{"stateMutability":"payable","type":"receive"}],"evm":{"bytecode":{"linkReferences":{},"object":"60806040526200002067fe9e18a8e3bd32e960c01b6200008360201b60201c565b6200003c6782b1c80ed35d8c6260c01b6200008360201b60201c565b33600260006101000a81548173ffffffffffffffffffffffffffffffffffffffff021916908373ffffffffffffffffffffffffffffffffffffffff16021790555062000086565b50565b612adc80620000966000396000f3fe6080604052600436106100745760003560e01c80636f9fb98a1161004e5780636f9fb98a1461020d578063c74073a114610238578063c85d148714610261578063f8aff5f41461029e576100e4565b806343210e781461018b5780634329db46146101c85780636da80b7f146101e4576100e4565b366100e45761008d67fd52304ddfa3e21e60c01b6102c9565b7f319af333460570a1937bf195dd33445c0d0951c59127da6f1f038b9fdce3fd72336040516100bc9190611c20565b60405180910390a16100d867c69a1f8c2bd0f6ce60c01b6102c9565b6100e233346102cc565b005b6100f8679720a11e8077cda760c01b6102c9565b61010c67d19653150c45fda260c01b6102c9565b6101206755b664939e83263c60c01b6102c9565b7f319af333460570a1937bf195dd33445c0d0951c59127da6f1f038b9fdce3fd723360405161014f9190611c9a565b60405180910390a161016b673ab9a8fa15ba763560c01b6102c9565b61017f67c21f1ecfc95d2de860c01b6102c9565b61018933346102cc565b005b34801561019757600080fd5b506101b260048036038101906101ad9190611d08565b61053d565b6040516101bf9190611d8c565b60405180910390f35b6101e260048036038101906101dd9190611dd3565b610632565b005b3480156101f057600080fd5b5061020b600480360381019061020691906120fa565b610ca5565b005b34801561021957600080fd5b506102226113cc565b60405161022f919061220b565b60405180910390f35b34801561024457600080fd5b5061025f600480360381019061025a9190611d08565b611410565b005b34801561026d57600080fd5b5061028860048036038101906102839190611dd3565b611590565b60405161029591906124a7565b60405180910390f35b3480156102aa57600080fd5b506102b361196e565b6040516102c091906124c9565b60405180910390f35b50565b6102e06714feee35f62b120d60c01b6102c9565b6102f4677d9552525403acea60c01b6102c9565b61030867c328fbb7885e88f460c01b6102c9565b600073ffffffffffffffffffffffffffffffffffffffff16600160008473ffffffffffffffffffffffffffffffffffffffff1673ffffffffffffffffffffffffffffffffffffffff16815260200190815260200160002060000160009054906101000a900473ffffffffffffffffffffffffffffffffffffffff1673ffffffffffffffffffffffffffffffffffffffff1614610424576103b2676cf1ee2ef1cb5ae060c01b6102c9565b6103c6671927c57c50c47bb660c01b6102c9565b80600160008473ffffffffffffffffffffffffffffffffffffffff1673ffffffffffffffffffffffffffffffffffffffff16815260200190815260200160002060010160008282546104189190612513565b92505081905550610539565b61043867dc8ad6c232788bd060c01b6102c9565b61044c67f64a2f0b8c583c0c60c01b6102c9565b610460675f5cfb2e76ef8bf560c01b6102c9565b600060405180604001604052808473ffffffffffffffffffffffffffffffffffffffff1681526020018381525090506104a3679af99ff0ef621bb060c01b6102c9565b80600160008573ffffffffffffffffffffffffffffffffffffffff1673ffffffffffffffffffffffffffffffffffffffff16815260200190815260200160002060008201518160000160006101000a81548173ffffffffffffffffffffffffffffffffffffffff021916908373ffffffffffffffffffffffffffffffffffffffff16021790555060208201518160010155905050505b5050565b6105456119b2565b610559679dab790f491f6ad160c01b6102c9565b61056d67e881e41a4b83b02060c01b6102c9565b610581677085656fbd6ff21460c01b6102c9565b600160008373ffffffffffffffffffffffffffffffffffffffff1673ffffffffffffffffffffffffffffffffffffffff1681526020019081526020016000206040518060400160405290816000820160009054906101000a900473ffffffffffffffffffffffffffffffffffffffff1673ffffffffffffffffffffffffffffffffffffffff1673ffffffffffffffffffffffffffffffffffffffff1681526020016001820154815250509050919050565b61064667f58ada356b7f1fb760c01b6102c9565b61065a673e323a8964489c9c60c01b6102c9565b61066e675e4380795ae3d4a360c01b6102c9565b600080600083815260200190815260200160002060405180610120016040529081600082015481526020016001820160009054906101000a900473ffffffffffffffffffffffffffffffffffffffff1673ffffffffffffffffffffffffffffffffffffffff1673ffffffffffffffffffffffffffffffffffffffff1681526020016002820160009054906101000a900473ffffffffffffffffffffffffffffffffffffffff1673ffffffffffffffffffffffffffffffffffffffff1673ffffffffffffffffffffffffffffffffffffffff168152602001600382015481526020016004820160009054906101000a900463ffffffff1663ffffffff1663ffffffff1681526020016004820160049054906101000a900463ffffffff1663ffffffff1663ffffffff1681526020016004820160089054906101000a900463ffffffff1663ffffffff1663ffffffff1681526020016005820180546107d090612576565b80601f01602080910402602001604051908101604052809291908181526020018280546107fc90612576565b80156108495780601f1061081e57610100808354040283529160200191610849565b820191906000526020600020905b81548152906001019060200180831161082c57829003601f168201915b5050505050815260200160068201805480602002602001604051908101604052809291908181526020016000905b828210156109cd57838290600052602060002090600202016040518060400160405290816000820180546108aa90612576565b80601f01602080910402602001604051908101604052809291908181526020018280546108d690612576565b80156109235780601f106108f857610100808354040283529160200191610923565b820191906000526020600020905b81548152906001019060200180831161090657829003601f168201915b5050505050815260200160018201805461093c90612576565b80601f016020809104026020016040519081016040528092919081815260200182805461096890612576565b80156109b55780601f1061098a576101008083540402835291602001916109b5565b820191906000526020600020905b81548152906001019060200180831161099857829003601f168201915b50505050508152505081526020019060010190610877565b505050508152505090506109eb67a7309b6886cd7cf760c01b6102c9565b6109ff678275550bb15747af60c01b6102c9565b600060016000836020015173ffffffffffffffffffffffffffffffffffffffff1673ffffffffffffffffffffffffffffffffffffffff1681526020019081526020016000206040518060400160405290816000820160009054906101000a900473ffffffffffffffffffffffffffffffffffffffff1673ffffffffffffffffffffffffffffffffffffffff1673ffffffffffffffffffffffffffffffffffffffff1681526020016001820154815250509050610ac56798cc77215a6599df60c01b6102c9565b610ad967d56f610bf0de5f8860c01b6102c9565b610aed67f7f4935a30958b4160c01b6102c9565b816060015181602001511015610b38576040517f08c379a0000000000000000000000000000000000000000000000000000000008152600401610b2f906125f3565b60405180910390fd5b610b4c670f3a568ffbe1917360c01b6102c9565b610b6067854cc671757b301860c01b6102c9565b610b7467deff5f40e5885c4360c01b6102c9565b816040015173ffffffffffffffffffffffffffffffffffffffff166108fc83606001519081150290604051600060405180830381858888f19350505050158015610bc2573d6000803e3d6000fd5b50610bd767db4f2a3c50e0fb9160c01b6102c9565b816060015181602001818151610bed9190612613565b91508181525050610c0867793136db1e13dc3260c01b6102c9565b8060016000836000015173ffffffffffffffffffffffffffffffffffffffff1673ffffffffffffffffffffffffffffffffffffffff16815260200190815260200160002060008201518160000160006101000a81548173ffffffffffffffffffffffffffffffffffffffff021916908373ffffffffffffffffffffffffffffffffffffffff16021790555060208201518160010155905050505050565b610cb967f54b02762939f65060c01b6102c9565b610ccd6793e6ca86ab73cb4260c01b6102c9565b610ce167db22970c06adb61260c01b6102c9565b6000600160008a73ffffffffffffffffffffffffffffffffffffffff1673ffffffffffffffffffffffffffffffffffffffff1681526020019081526020016000206040518060400160405290816000820160009054906101000a900473ffffffffffffffffffffffffffffffffffffffff1673ffffffffffffffffffffffffffffffffffffffff1673ffffffffffffffffffffffffffffffffffffffff1681526020016001820154815250509050610da367eec110e288a75dae60c01b6102c9565b610db767e6e908377945330660c01b6102c9565b6000600160008a73ffffffffffffffffffffffffffffffffffffffff1673ffffffffffffffffffffffffffffffffffffffff1681526020019081526020016000206040518060400160405290816000820160009054906101000a900473ffffffffffffffffffffffffffffffffffffffff1673ffffffffffffffffffffffffffffffffffffffff1673ffffffffffffffffffffffffffffffffffffffff1681526020016001820154815250509050610e79675ceb050cc79d6c5f60c01b6102c9565b610e8d6765c20fe73d4803e760c01b6102c9565b610ea16742220a0de1d6fa7260c01b6102c9565b878260200151118015610eb75750878160200151115b610ef6576040517f08c379a0000000000000000000000000000000000000000000000000000000008152600401610eed90612693565b60405180910390fd5b610f0a678e8c6b9378bb23d260c01b6102c9565b610f1e675270c961bbb8db2760c01b6102c9565b610f32671ab164731b727c7a60c01b6102c9565b60008060008d81526020019081526020016000209050610f5c67deea4c211e365a4760c01b6102c9565b8b8160000181905550610f7967ae32e0b9475e3e6460c01b6102c9565b8a8160010160006101000a81548173ffffffffffffffffffffffffffffffffffffffff021916908373ffffffffffffffffffffffffffffffffffffffff160217905550610fd067d473d3893e31898460c01b6102c9565b898160020160006101000a81548173ffffffffffffffffffffffffffffffffffffffff021916908373ffffffffffffffffffffffffffffffffffffffff1602179055506110276773c8a2f74e1e26a960c01b6102c9565b888160030181905550611044679673107a61709e2560c01b6102c9565b878160040160006101000a81548163ffffffff021916908363ffffffff16021790555061107b67b3004c7c128e4d0060c01b6102c9565b868160040160046101000a81548163ffffffff021916908363ffffffff1602179055506110b2679ad46231463181ee60c01b6102c9565b858160040160086101000a81548163ffffffff021916908363ffffffff1602179055506110e9678f138e00fe7a8cdb60c01b6102c9565b848160050190816110fa919061285f565b5061110f6756e88fa12c4a486260c01b6102c9565b61112367d9b1c2731175283760c01b6102c9565b60005b84518110156111e057611143673f8155f8086998f960c01b6102c9565b61115767e607846455c8a7da60c01b6102c9565b8160060185828151811061116e5761116d612931565b5b6020026020010151908060018154018082558091505060019003906000526020600020906002020160009091909190915060008201518160000190816111b4919061285f565b5060208201518160010190816111ca919061285f565b50505080806111d890612960565b915050611126565b506111f56786225e55ff7ffcda60c01b6102c9565b806000808e8152602001908152602001600020600082015481600001556001820160009054906101000a900473ffffffffffffffffffffffffffffffffffffffff168160010160006101000a81548173ffffffffffffffffffffffffffffffffffffffff021916908373ffffffffffffffffffffffffffffffffffffffff1602179055506002820160009054906101000a900473ffffffffffffffffffffffffffffffffffffffff168160020160006101000a81548173ffffffffffffffffffffffffffffffffffffffff021916908373ffffffffffffffffffffffffffffffffffffffff160217905550600382015481600301556004820160009054906101000a900463ffffffff168160040160006101000a81548163ffffffff021916908363ffffffff1602179055506004820160049054906101000a900463ffffffff168160040160046101000a81548163ffffffff021916908363ffffffff1602179055506004820160089054906101000a900463ffffffff168160040160086101000a81548163ffffffff021916908363ffffffff160217905550600582018160050190816113a391906129be565b5060068201816006019080546113ba9291906119e2565b50905050505050505050505050505050565b60006113e267258e9aca744c987e60c01b6102c9565b6113f667bd254b205c90c85360c01b6102c9565b61140a6784af28603ac465a660c01b6102c9565b47905090565b61142467c50b5cc77cf2698a60c01b6102c9565b61143867d71fe7a9600431ce60c01b6102c9565b61144c67a5139af7db595fd660c01b6102c9565b61146067a78c9a149b3b6ac560c01b6102c9565b61147467a2b28058ac210b7560c01b6102c9565b600260009054906101000a900473ffffffffffffffffffffffffffffffffffffffff1673ffffffffffffffffffffffffffffffffffffffff163373ffffffffffffffffffffffffffffffffffffffff16146114ce57600080fd5b6114e26787e2ac89b19abbee60c01b6102c9565b6114f667f5a9843349ecddf960c01b6102c9565b61150a67c237162e34cf610960c01b6102c9565b61151e679ed1cc8fc6d60cff60c01b6102c9565b61153267d3d456bf385568db60c01b6102c9565b61154667f3f8a38f110bd94e60c01b6102c9565b8073ffffffffffffffffffffffffffffffffffffffff166108fc479081150290604051600060405180830381858888f1935050505015801561158c573d6000803e3d6000fd5b5050565b611598611a64565b6115ac67f772910fd53efc8160c01b6102c9565b6115c06768819a0ea4300a6f60c01b6102c9565b6115d4677f30ae0462d3f54960c01b6102c9565b600080600084815260200190815260200160002060405180610120016040529081600082015481526020016001820160009054906101000a900473ffffffffffffffffffffffffffffffffffffffff1673ffffffffffffffffffffffffffffffffffffffff1673ffffffffffffffffffffffffffffffffffffffff1681526020016002820160009054906101000a900473ffffffffffffffffffffffffffffffffffffffff1673ffffffffffffffffffffffffffffffffffffffff1673ffffffffffffffffffffffffffffffffffffffff168152602001600382015481526020016004820160009054906101000a900463ffffffff1663ffffffff1663ffffffff1681526020016004820160049054906101000a900463ffffffff1663ffffffff1663ffffffff1681526020016004820160089054906101000a900463ffffffff1663ffffffff1663ffffffff16815260200160058201805461173690612576565b80601f016020809104026020016040519081016040528092919081815260200182805461176290612576565b80156117af5780601f10611784576101008083540402835291602001916117af565b820191906000526020600020905b81548152906001019060200180831161179257829003601f168201915b5050505050815260200160068201805480602002602001604051908101604052809291908181526020016000905b82821015611933578382906000526020600020906002020160405180604001604052908160008201805461181090612576565b80601f016020809104026020016040519081016040528092919081815260200182805461183c90612576565b80156118895780601f1061185e57610100808354040283529160200191611889565b820191906000526020600020905b81548152906001019060200180831161186c57829003601f168201915b505050505081526020016001820180546118a290612576565b80601f01602080910402602001604051908101604052809291908181526020018280546118ce90612576565b801561191b5780601f106118f05761010080835404028352916020019161191b565b820191906000526020600020905b8154815290600101906020018083116118fe57829003601f168201915b505050505081525050815260200190600101906117dd565b505050508152505090506119516746d6d5c86500016560c01b6102c9565b61196567df12cc9523e26e9260c01b6102c9565b80915050919050565b6000611984673169bed10a3c5f9760c01b6102c9565b611998673fda669ce71ab5c960c01b6102c9565b6119ac67afb923a890816e9a60c01b6102c9565b30905090565b6040518060400160405280600073ffffffffffffffffffffffffffffffffffffffff168152602001600081525090565b828054828255906000526020600020906002028101928215611a535760005260206000209160020282015b82811115611a5257828260008201816000019081611a2b91906129be565b5060018201816001019081611a4091906129be565b50505091600201919060020190611a0d565b5b509050611a609190611aee565b5090565b60405180610120016040528060008152602001600073ffffffffffffffffffffffffffffffffffffffff168152602001600073ffffffffffffffffffffffffffffffffffffffff16815260200160008152602001600063ffffffff168152602001600063ffffffff168152602001600063ffffffff16815260200160608152602001606081525090565b5b80821115611b215760008082016000611b089190611b25565b600182016000611b189190611b25565b50600201611aef565b5090565b508054611b3190612576565b6000825580601f10611b435750611b62565b601f016020900490600052602060002090810190611b619190611b65565b5b50565b5b80821115611b7e576000816000905550600101611b66565b5090565b600082825260208201905092915050565b7f52656365697665207265636569766520746f6b656e0000000000000000000000600082015250565b6000611bc9601583611b82565b9150611bd482611b93565b602082019050919050565b600073ffffffffffffffffffffffffffffffffffffffff82169050919050565b6000611c0a82611bdf565b9050919050565b611c1a81611bff565b82525050565b60006040820190508181036000830152611c3981611bbc565b9050611c486020830184611c11565b92915050565b7f526563656976652066616c6c6261636b20746f6b656e00000000000000000000600082015250565b6000611c84601683611b82565b9150611c8f82611c4e565b602082019050919050565b60006040820190508181036000830152611cb381611c77565b9050611cc26020830184611c11565b92915050565b6000604051905090565b600080fd5b600080fd5b611ce581611bff565b8114611cf057600080fd5b50565b600081359050611d0281611cdc565b92915050565b600060208284031215611d1e57611d1d611cd2565b5b6000611d2c84828501611cf3565b91505092915050565b611d3e81611bff565b82525050565b6000819050919050565b611d5781611d44565b82525050565b604082016000820151611d736000850182611d35565b506020820151611d866020850182611d4e565b50505050565b6000604082019050611da16000830184611d5d565b92915050565b611db081611d44565b8114611dbb57600080fd5b50565b600081359050611dcd81611da7565b92915050565b600060208284031215611de957611de8611cd2565b5b6000611df784828501611dbe565b91505092915050565b600063ffffffff82169050919050565b611e1981611e00565b8114611e2457600080fd5b50565b600081359050611e3681611e10565b92915050565b600080fd5b600080fd5b6000601f19601f8301169050919050565b7f4e487b7100000000000000000000000000000000000000000000000000000000600052604160045260246000fd5b611e8f82611e46565b810181811067ffffffffffffffff82111715611eae57611ead611e57565b5b80604052505050565b6000611ec1611cc8565b9050611ecd8282611e86565b919050565b600067ffffffffffffffff821115611eed57611eec611e57565b5b611ef682611e46565b9050602081019050919050565b82818337600083830152505050565b6000611f25611f2084611ed2565b611eb7565b905082815260208101848484011115611f4157611f40611e41565b5b611f4c848285611f03565b509392505050565b600082601f830112611f6957611f68611e3c565b5b8135611f79848260208601611f12565b91505092915050565b600067ffffffffffffffff821115611f9d57611f9c611e57565b5b602082029050602081019050919050565b600080fd5b600080fd5b600080fd5b600060408284031215611fd357611fd2611fb3565b5b611fdd6040611eb7565b9050600082013567ffffffffffffffff811115611ffd57611ffc611fb8565b5b61200984828501611f54565b600083015250602082013567ffffffffffffffff81111561202d5761202c611fb8565b5b61203984828501611f54565b60208301525092915050565b600061205861205384611f82565b611eb7565b9050808382526020820190506020840283018581111561207b5761207a611fae565b5b835b818110156120c257803567ffffffffffffffff8111156120a05761209f611e3c565b5b8086016120ad8982611fbd565b8552602085019450505060208101905061207d565b5050509392505050565b600082601f8301126120e1576120e0611e3c565b5b81356120f1848260208601612045565b91505092915050565b60008060008060008060008060006101208a8c03121561211d5761211c611cd2565b5b600061212b8c828d01611dbe565b995050602061213c8c828d01611cf3565b985050604061214d8c828d01611cf3565b975050606061215e8c828d01611dbe565b965050608061216f8c828d01611e27565b95505060a06121808c828d01611e27565b94505060c06121918c828d01611e27565b93505060e08a013567ffffffffffffffff8111156121b2576121b1611cd7565b5b6121be8c828d01611f54565b9250506101008a013567ffffffffffffffff8111156121e0576121df611cd7565b5b6121ec8c828d016120cc565b9150509295985092959850929598565b61220581611d44565b82525050565b600060208201905061222060008301846121fc565b92915050565b600061223182611bdf565b9050919050565b61224181612226565b82525050565b61225081611e00565b82525050565b600081519050919050565b600082825260208201905092915050565b60005b83811015612290578082015181840152602081019050612275565b60008484015250505050565b60006122a782612256565b6122b18185612261565b93506122c1818560208601612272565b6122ca81611e46565b840191505092915050565b600081519050919050565b600082825260208201905092915050565b6000819050602082019050919050565b6000604083016000830151848203600086015261231e828261229c565b91505060208301518482036020860152612338828261229c565b9150508091505092915050565b60006123518383612301565b905092915050565b6000602082019050919050565b6000612371826122d5565b61237b81856122e0565b93508360208202850161238d856122f1565b8060005b858110156123c957848403895281516123aa8582612345565b94506123b583612359565b925060208a01995050600181019050612391565b50829750879550505050505092915050565b6000610120830160008301516123f46000860182611d4e565b5060208301516124076020860182612238565b50604083015161241a6040860182612238565b50606083015161242d6060860182611d4e565b5060808301516124406080860182612247565b5060a083015161245360a0860182612247565b5060c083015161246660c0860182612247565b5060e083015184820360e086015261247e828261229c565b91505061010083015184820361010086015261249a8282612366565b9150508091505092915050565b600060208201905081810360008301526124c181846123db565b905092915050565b60006020820190506124de6000830184611c11565b92915050565b7f4e487b7100000000000000000000000000000000000000000000000000000000600052601160045260246000fd5b600061251e82611d44565b915061252983611d44565b9250828201905080821115612541576125406124e4565b5b92915050565b7f4e487b7100000000000000000000000000000000000000000000000000000000600052602260045260246000fd5b6000600282049050600182168061258e57607f821691505b6020821081036125a1576125a0612547565b5b50919050565b7f52656e74657220696e73756666696369656e742062616c616e63650000000000600082015250565b60006125dd601b83611b82565b91506125e8826125a7565b602082019050919050565b6000602082019050818103600083015261260c816125d0565b9050919050565b600061261e82611d44565b915061262983611d44565b9250828203905081811115612641576126406124e4565b5b92915050565b7f496e73756666696369656e742062616c616e6365000000000000000000000000600082015250565b600061267d601483611b82565b915061268882612647565b602082019050919050565b600060208201905081810360008301526126ac81612670565b9050919050565b60008190508160005260206000209050919050565b60006020601f8301049050919050565b600082821b905092915050565b6000600883026127157fffffffffffffffffffffffffffffffffffffffffffffffffffffffffffffffff826126d8565b61271f86836126d8565b95508019841693508086168417925050509392505050565b6000819050919050565b600061275c61275761275284611d44565b612737565b611d44565b9050919050565b6000819050919050565b61277683612741565b61278a61278282612763565b8484546126e5565b825550505050565b600090565b61279f612792565b6127aa81848461276d565b505050565b5b818110156127ce576127c3600082612797565b6001810190506127b0565b5050565b601f821115612813576127e4816126b3565b6127ed846126c8565b810160208510156127fc578190505b612810612808856126c8565b8301826127af565b50505b505050565b600082821c905092915050565b600061283660001984600802612818565b1980831691505092915050565b600061284f8383612825565b9150826002028217905092915050565b61286882612256565b67ffffffffffffffff81111561288157612880611e57565b5b61288b8254612576565b6128968282856127d2565b600060209050601f8311600181146128c957600084156128b7578287015190505b6128c18582612843565b865550612929565b601f1984166128d7866126b3565b60005b828110156128ff578489015182556001820191506020850194506020810190506128da565b8683101561291c5784890151612918601f891682612825565b8355505b6001600288020188555050505b505050505050565b7f4e487b7100000000000000000000000000000000000000000000000000000000600052603260045260246000fd5b600061296b82611d44565b91507fffffffffffffffffffffffffffffffffffffffffffffffffffffffffffffffff820361299d5761299c6124e4565b5b600182019050919050565b6000815490506129b781612576565b9050919050565b8181036129cc575050612aa4565b6129d5826129a8565b67ffffffffffffffff8111156129ee576129ed611e57565b5b6129f88254612576565b612a038282856127d2565b6000601f831160018114612a325760008415612a20578287015490505b612a2a8582612843565b865550612a9d565b601f198416612a40876126b3565b9650612a4b866126b3565b60005b82811015612a7357848901548255600182019150600185019450602081019050612a4e565b86831015612a905784890154612a8c601f891682612825565b8355505b6001600288020188555050505b5050505050505b56fea26469706673582212205a61f319a417cbc672a5877d05ba7f0b89f81771daa404ebf8be9ea85264bdd364736f6c63430008140033","opcodes":"PUSH1 0x80 PUSH1 0x40 MSTORE PUSH3 0x20 PUSH8 0xFE9E18A8E3BD32E9 PUSH1 0xC0 SHL PUSH3 0x83 PUSH1 0x20 SHL PUSH1 0x20 SHR JUMP JUMPDEST PUSH3 0x3C PUSH8 0x82B1C80ED35D8C62 PUSH1 0xC0 SHL PUSH3 0x83 PUSH1 0x20 SHL PUSH1 0x20 SHR JUMP JUMPDEST CALLER PUSH1 0x2 PUSH1 0x0 PUSH2 0x100 EXP DUP2 SLOAD DUP2 PUSH20 0xFFFFFFFFFFFFFFFFFFFFFFFFFFFFFFFFFFFFFFFF MUL NOT AND SWAP1 DUP4 PUSH20 0xFFFFFFFFFFFFFFFFFFFFFFFFFFFFFFFFFFFFFFFF AND MUL OR SWAP1 SSTORE POP PUSH3 0x86 JUMP JUMPDEST POP JUMP JUMPDEST PUSH2 0x2ADC DUP1 PUSH3 0x96 PUSH1 0x0 CODECOPY PUSH1 0x0 RETURN INVALID PUSH1 0x80 PUSH1 0x40 MSTORE PUSH1 0x4 CALLDATASIZE LT PUSH2 0x74 JUMPI PUSH1 0x0 CALLDATALOAD PUSH1 0xE0 SHR DUP1 PUSH4 0x6F9FB98A GT PUSH2 0x4E JUMPI DUP1 PUSH4 0x6F9FB98A EQ PUSH2 0x20D JUMPI DUP1 PUSH4 0xC74073A1 EQ PUSH2 0x238 JUMPI DUP1 PUSH4 0xC85D1487 EQ PUSH2 0x261 JUMPI DUP1 PUSH4 0xF8AFF5F4 EQ PUSH2 0x29E JUMPI PUSH2 0xE4 JUMP JUMPDEST DUP1 PUSH4 0x43210E78 EQ PUSH2 0x18B JUMPI DUP1 PUSH4 0x4329DB46 EQ PUSH2 0x1C8 JUMPI DUP1 PUSH4 0x6DA80B7F EQ PUSH2 0x1E4 JUMPI PUSH2 0xE4 JUMP JUMPDEST CALLDATASIZE PUSH2 0xE4 JUMPI PUSH2 0x8D PUSH8 0xFD52304DDFA3E21E PUSH1 0xC0 SHL PUSH2 0x2C9 JUMP JUMPDEST PUSH32 0x319AF333460570A1937BF195DD33445C0D0951C59127DA6F1F038B9FDCE3FD72 CALLER PUSH1 0x40 MLOAD PUSH2 0xBC SWAP2 SWAP1 PUSH2 0x1C20 JUMP JUMPDEST PUSH1 0x40 MLOAD DUP1 SWAP2 SUB SWAP1 LOG1 PUSH2 0xD8 PUSH8 0xC69A1F8C2BD0F6CE PUSH1 0xC0 SHL PUSH2 0x2C9 JUMP JUMPDEST PUSH2 0xE2 CALLER CALLVALUE PUSH2 0x2CC JUMP JUMPDEST STOP JUMPDEST PUSH2 0xF8 PUSH8 0x9720A11E8077CDA7 PUSH1 0xC0 SHL PUSH2 0x2C9 JUMP JUMPDEST PUSH2 0x10C PUSH8 0xD19653150C45FDA2 PUSH1 0xC0 SHL PUSH2 0x2C9 JUMP JUMPDEST PUSH2 0x120 PUSH8 0x55B664939E83263C PUSH1 0xC0 SHL PUSH2 0x2C9 JUMP JUMPDEST PUSH32 0x319AF333460570A1937BF195DD33445C0D0951C59127DA6F1F038B9FDCE3FD72 CALLER PUSH1 0x40 MLOAD PUSH2 0x14F SWAP2 SWAP1 PUSH2 0x1C9A JUMP JUMPDEST PUSH1 0x40 MLOAD DUP1 SWAP2 SUB SWAP1 LOG1 PUSH2 0x16B PUSH8 0x3AB9A8FA15BA7635 PUSH1 0xC0 SHL PUSH2 0x2C9 JUMP JUMPDEST PUSH2 0x17F PUSH8 0xC21F1ECFC95D2DE8 PUSH1 0xC0 SHL PUSH2 0x2C9 JUMP JUMPDEST PUSH2 0x189 CALLER CALLVALUE PUSH2 0x2CC JUMP JUMPDEST STOP JUMPDEST CALLVALUE DUP1 ISZERO PUSH2 0x197 JUMPI PUSH1 0x0 DUP1 REVERT JUMPDEST POP PUSH2 0x1B2 PUSH1 0x4 DUP1 CALLDATASIZE SUB DUP2 ADD SWAP1 PUSH2 0x1AD SWAP2 SWAP1 PUSH2 0x1D08 JUMP JUMPDEST PUSH2 0x53D JUMP JUMPDEST PUSH1 0x40 MLOAD PUSH2 0x1BF SWAP2 SWAP1 PUSH2 0x1D8C JUMP JUMPDEST PUSH1 0x40 MLOAD DUP1 SWAP2 SUB SWAP1 RETURN JUMPDEST PUSH2 0x1E2 PUSH1 0x4 DUP1 CALLDATASIZE SUB DUP2 ADD SWAP1 PUSH2 0x1DD SWAP2 SWAP1 PUSH2 0x1DD3 JUMP JUMPDEST PUSH2 0x632 JUMP JUMPDEST STOP JUMPDEST CALLVALUE DUP1 ISZERO PUSH2 0x1F0 JUMPI PUSH1 0x0 DUP1 REVERT JUMPDEST POP PUSH2 0x20B PUSH1 0x4 DUP1 CALLDATASIZE SUB DUP2 ADD SWAP1 PUSH2 0x206 SWAP2 SWAP1 PUSH2 0x20FA JUMP JUMPDEST PUSH2 0xCA5 JUMP JUMPDEST STOP JUMPDEST CALLVALUE DUP1 ISZERO PUSH2 0x219 JUMPI PUSH1 0x0 DUP1 REVERT JUMPDEST POP PUSH2 0x222 PUSH2 0x13CC JUMP JUMPDEST PUSH1 0x40 MLOAD PUSH2 0x22F SWAP2 SWAP1 PUSH2 0x220B JUMP JUMPDEST PUSH1 0x40 MLOAD DUP1 SWAP2 SUB SWAP1 RETURN JUMPDEST CALLVALUE DUP1 ISZERO PUSH2 0x244 JUMPI PUSH1 0x0 DUP1 REVERT JUMPDEST POP PUSH2 0x25F PUSH1 0x4 DUP1 CALLDATASIZE SUB DUP2 ADD SWAP1 PUSH2 0x25A SWAP2 SWAP1 PUSH2 0x1D08 JUMP JUMPDEST PUSH2 0x1410 JUMP JUMPDEST STOP JUMPDEST CALLVALUE DUP1 ISZERO PUSH2 0x26D JUMPI PUSH1 0x0 DUP1 REVERT JUMPDEST POP PUSH2 0x288 PUSH1 0x4 DUP1 CALLDATASIZE SUB DUP2 ADD SWAP1 PUSH2 0x283 SWAP2 SWAP1 PUSH2 0x1DD3 JUMP JUMPDEST PUSH2 0x1590 JUMP JUMPDEST PUSH1 0x40 MLOAD PUSH2 0x295 SWAP2 SWAP1 PUSH2 0x24A7 JUMP JUMPDEST PUSH1 0x40 MLOAD DUP1 SWAP2 SUB SWAP1 RETURN JUMPDEST CALLVALUE DUP1 ISZERO PUSH2 0x2AA JUMPI PUSH1 0x0 DUP1 REVERT JUMPDEST POP PUSH2 0x2B3 PUSH2 0x196E JUMP JUMPDEST PUSH1 0x40 MLOAD PUSH2 0x2C0 SWAP2 SWAP1 PUSH2 0x24C9 JUMP JUMPDEST PUSH1 0x40 MLOAD DUP1 SWAP2 SUB SWAP1 RETURN JUMPDEST POP JUMP JUMPDEST PUSH2 0x2E0 PUSH8 0x14FEEE35F62B120D PUSH1 0xC0 SHL PUSH2 0x2C9 JUMP JUMPDEST PUSH2 0x2F4 PUSH8 0x7D9552525403ACEA PUSH1 0xC0 SHL PUSH2 0x2C9 JUMP JUMPDEST PUSH2 0x308 PUSH8 0xC328FBB7885E88F4 PUSH1 0xC0 SHL PUSH2 0x2C9 JUMP JUMPDEST PUSH1 0x0 PUSH20 0xFFFFFFFFFFFFFFFFFFFFFFFFFFFFFFFFFFFFFFFF AND PUSH1 0x1 PUSH1 0x0 DUP5 PUSH20 0xFFFFFFFFFFFFFFFFFFFFFFFFFFFFFFFFFFFFFFFF AND PUSH20 0xFFFFFFFFFFFFFFFFFFFFFFFFFFFFFFFFFFFFFFFF AND DUP2 MSTORE PUSH1 0x20 ADD SWAP1 DUP2 MSTORE PUSH1 0x20 ADD PUSH1 0x0 KECCAK256 PUSH1 0x0 ADD PUSH1 0x0 SWAP1 SLOAD SWAP1 PUSH2 0x100 EXP SWAP1 DIV PUSH20 0xFFFFFFFFFFFFFFFFFFFFFFFFFFFFFFFFFFFFFFFF AND PUSH20 0xFFFFFFFFFFFFFFFFFFFFFFFFFFFFFFFFFFFFFFFF AND EQ PUSH2 0x424 JUMPI PUSH2 0x3B2 PUSH8 0x6CF1EE2EF1CB5AE0 PUSH1 0xC0 SHL PUSH2 0x2C9 JUMP JUMPDEST PUSH2 0x3C6 PUSH8 0x1927C57C50C47BB6 PUSH1 0xC0 SHL PUSH2 0x2C9 JUMP JUMPDEST DUP1 PUSH1 0x1 PUSH1 0x0 DUP5 PUSH20 0xFFFFFFFFFFFFFFFFFFFFFFFFFFFFFFFFFFFFFFFF AND PUSH20 0xFFFFFFFFFFFFFFFFFFFFFFFFFFFFFFFFFFFFFFFF AND DUP2 MSTORE PUSH1 0x20 ADD SWAP1 DUP2 MSTORE PUSH1 0x20 ADD PUSH1 0x0 KECCAK256 PUSH1 0x1 ADD PUSH1 0x0 DUP3 DUP3 SLOAD PUSH2 0x418 SWAP2 SWAP1 PUSH2 0x2513 JUMP JUMPDEST SWAP3 POP POP DUP2 SWAP1 SSTORE POP PUSH2 0x539 JUMP JUMPDEST PUSH2 0x438 PUSH8 0xDC8AD6C232788BD0 PUSH1 0xC0 SHL PUSH2 0x2C9 JUMP JUMPDEST PUSH2 0x44C PUSH8 0xF64A2F0B8C583C0C PUSH1 0xC0 SHL PUSH2 0x2C9 JUMP JUMPDEST PUSH2 0x460 PUSH8 0x5F5CFB2E76EF8BF5 PUSH1 0xC0 SHL PUSH2 0x2C9 JUMP JUMPDEST PUSH1 0x0 PUSH1 0x40 MLOAD DUP1 PUSH1 0x40 ADD PUSH1 0x40 MSTORE DUP1 DUP5 PUSH20 0xFFFFFFFFFFFFFFFFFFFFFFFFFFFFFFFFFFFFFFFF AND DUP2 MSTORE PUSH1 0x20 ADD DUP4 DUP2 MSTORE POP SWAP1 POP PUSH2 0x4A3 PUSH8 0x9AF99FF0EF621BB0 PUSH1 0xC0 SHL PUSH2 0x2C9 JUMP JUMPDEST DUP1 PUSH1 0x1 PUSH1 0x0 DUP6 PUSH20 0xFFFFFFFFFFFFFFFFFFFFFFFFFFFFFFFFFFFFFFFF AND PUSH20 0xFFFFFFFFFFFFFFFFFFFFFFFFFFFFFFFFFFFFFFFF AND DUP2 MSTORE PUSH1 0x20 ADD SWAP1 DUP2 MSTORE PUSH1 0x20 ADD PUSH1 0x0 KECCAK256 PUSH1 0x0 DUP3 ADD MLOAD DUP2 PUSH1 0x0 ADD PUSH1 0x0 PUSH2 0x100 EXP DUP2 SLOAD DUP2 PUSH20 0xFFFFFFFFFFFFFFFFFFFFFFFFFFFFFFFFFFFFFFFF MUL NOT AND SWAP1 DUP4 PUSH20 0xFFFFFFFFFFFFFFFFFFFFFFFFFFFFFFFFFFFFFFFF AND MUL OR SWAP1 SSTORE POP PUSH1 0x20 DUP3 ADD MLOAD DUP2 PUSH1 0x1 ADD SSTORE SWAP1 POP POP POP JUMPDEST POP POP JUMP JUMPDEST PUSH2 0x545 PUSH2 0x19B2 JUMP JUMPDEST PUSH2 0x559 PUSH8 0x9DAB790F491F6AD1 PUSH1 0xC0 SHL PUSH2 0x2C9 JUMP JUMPDEST PUSH2 0x56D PUSH8 0xE881E41A4B83B020 PUSH1 0xC0 SHL PUSH2 0x2C9 JUMP JUMPDEST PUSH2 0x581 PUSH8 0x7085656FBD6FF214 PUSH1 0xC0 SHL PUSH2 0x2C9 JUMP JUMPDEST PUSH1 0x1 PUSH1 0x0 DUP4 PUSH20 0xFFFFFFFFFFFFFFFFFFFFFFFFFFFFFFFFFFFFFFFF AND PUSH20 0xFFFFFFFFFFFFFFFFFFFFFFFFFFFFFFFFFFFFFFFF AND DUP2 MSTORE PUSH1 0x20 ADD SWAP1 DUP2 MSTORE PUSH1 0x20 ADD PUSH1 0x0 KECCAK256 PUSH1 0x40 MLOAD DUP1 PUSH1 0x40 ADD PUSH1 0x40 MSTORE SWAP1 DUP2 PUSH1 0x0 DUP3 ADD PUSH1 0x0 SWAP1 SLOAD SWAP1 PUSH2 0x100 EXP SWAP1 DIV PUSH20 0xFFFFFFFFFFFFFFFFFFFFFFFFFFFFFFFFFFFFFFFF AND PUSH20 0xFFFFFFFFFFFFFFFFFFFFFFFFFFFFFFFFFFFFFFFF AND PUSH20 0xFFFFFFFFFFFFFFFFFFFFFFFFFFFFFFFFFFFFFFFF AND DUP2 MSTORE PUSH1 0x20 ADD PUSH1 0x1 DUP3 ADD SLOAD DUP2 MSTORE POP POP SWAP1 POP SWAP2 SWAP1 POP JUMP JUMPDEST PUSH2 0x646 PUSH8 0xF58ADA356B7F1FB7 PUSH1 0xC0 SHL PUSH2 0x2C9 JUMP JUMPDEST PUSH2 0x65A PUSH8 0x3E323A8964489C9C PUSH1 0xC0 SHL PUSH2 0x2C9 JUMP JUMPDEST PUSH2 0x66E PUSH8 0x5E4380795AE3D4A3 PUSH1 0xC0 SHL PUSH2 0x2C9 JUMP JUMPDEST PUSH1 0x0 DUP1 PUSH1 0x0 DUP4 DUP2 MSTORE PUSH1 0x20 ADD SWAP1 DUP2 MSTORE PUSH1 0x20 ADD PUSH1 0x0 KECCAK256 PUSH1 0x40 MLOAD DUP1 PUSH2 0x120 ADD PUSH1 0x40 MSTORE SWAP1 DUP2 PUSH1 0x0 DUP3 ADD SLOAD DUP2 MSTORE PUSH1 0x20 ADD PUSH1 0x1 DUP3 ADD PUSH1 0x0 SWAP1 SLOAD SWAP1 PUSH2 0x100 EXP SWAP1 DIV PUSH20 0xFFFFFFFFFFFFFFFFFFFFFFFFFFFFFFFFFFFFFFFF AND PUSH20 0xFFFFFFFFFFFFFFFFFFFFFFFFFFFFFFFFFFFFFFFF AND PUSH20 0xFFFFFFFFFFFFFFFFFFFFFFFFFFFFFFFFFFFFFFFF AND DUP2 MSTORE PUSH1 0x20 ADD PUSH1 0x2 DUP3 ADD PUSH1 0x0 SWAP1 SLOAD SWAP1 PUSH2 0x100 EXP SWAP1 DIV PUSH20 0xFFFFFFFFFFFFFFFFFFFFFFFFFFFFFFFFFFFFFFFF AND PUSH20 0xFFFFFFFFFFFFFFFFFFFFFFFFFFFFFFFFFFFFFFFF AND PUSH20 0xFFFFFFFFFFFFFFFFFFFFFFFFFFFFFFFFFFFFFFFF AND DUP2 MSTORE PUSH1 0x20 ADD PUSH1 0x3 DUP3 ADD SLOAD DUP2 MSTORE PUSH1 0x20 ADD PUSH1 0x4 DUP3 ADD PUSH1 0x0 SWAP1 SLOAD SWAP1 PUSH2 0x100 EXP SWAP1 DIV PUSH4 0xFFFFFFFF AND PUSH4 0xFFFFFFFF AND PUSH4 0xFFFFFFFF AND DUP2 MSTORE PUSH1 0x20 ADD PUSH1 0x4 DUP3 ADD PUSH1 0x4 SWAP1 SLOAD SWAP1 PUSH2 0x100 EXP SWAP1 DIV PUSH4 0xFFFFFFFF AND PUSH4 0xFFFFFFFF AND PUSH4 0xFFFFFFFF AND DUP2 MSTORE PUSH1 0x20 ADD PUSH1 0x4 DUP3 ADD PUSH1 0x8 SWAP1 SLOAD SWAP1 PUSH2 0x100 EXP SWAP1 DIV PUSH4 0xFFFFFFFF AND PUSH4 0xFFFFFFFF AND PUSH4 0xFFFFFFFF AND DUP2 MSTORE PUSH1 0x20 ADD PUSH1 0x5 DUP3 ADD DUP1 SLOAD PUSH2 0x7D0 SWAP1 PUSH2 0x2576 JUMP JUMPDEST DUP1 PUSH1 0x1F ADD PUSH1 0x20 DUP1 SWAP2 DIV MUL PUSH1 0x20 ADD PUSH1 0x40 MLOAD SWAP1 DUP2 ADD PUSH1 0x40 MSTORE DUP1 SWAP3 SWAP2 SWAP1 DUP2 DUP2 MSTORE PUSH1 0x20 ADD DUP3 DUP1 SLOAD PUSH2 0x7FC SWAP1 PUSH2 0x2576 JUMP JUMPDEST DUP1 ISZERO PUSH2 0x849 JUMPI DUP1 PUSH1 0x1F LT PUSH2 0x81E JUMPI PUSH2 0x100 DUP1 DUP4 SLOAD DIV MUL DUP4 MSTORE SWAP2 PUSH1 0x20 ADD SWAP2 PUSH2 0x849 JUMP JUMPDEST DUP3 ADD SWAP2 SWAP1 PUSH1 0x0 MSTORE PUSH1 0x20 PUSH1 0x0 KECCAK256 SWAP1 JUMPDEST DUP2 SLOAD DUP2 MSTORE SWAP1 PUSH1 0x1 ADD SWAP1 PUSH1 0x20 ADD DUP1 DUP4 GT PUSH2 0x82C JUMPI DUP3 SWAP1 SUB PUSH1 0x1F AND DUP3 ADD SWAP2 JUMPDEST POP POP POP POP POP DUP2 MSTORE PUSH1 0x20 ADD PUSH1 0x6 DUP3 ADD DUP1 SLOAD DUP1 PUSH1 0x20 MUL PUSH1 0x20 ADD PUSH1 0x40 MLOAD SWAP1 DUP2 ADD PUSH1 0x40 MSTORE DUP1 SWAP3 SWAP2 SWAP1 DUP2 DUP2 MSTORE PUSH1 0x20 ADD PUSH1 0x0 SWAP1 JUMPDEST DUP3 DUP3 LT ISZERO PUSH2 0x9CD JUMPI DUP4 DUP3 SWAP1 PUSH1 0x0 MSTORE PUSH1 0x20 PUSH1 0x0 KECCAK256 SWAP1 PUSH1 0x2 MUL ADD PUSH1 0x40 MLOAD DUP1 PUSH1 0x40 ADD PUSH1 0x40 MSTORE SWAP1 DUP2 PUSH1 0x0 DUP3 ADD DUP1 SLOAD PUSH2 0x8AA SWAP1 PUSH2 0x2576 JUMP JUMPDEST DUP1 PUSH1 0x1F ADD PUSH1 0x20 DUP1 SWAP2 DIV MUL PUSH1 0x20 ADD PUSH1 0x40 MLOAD SWAP1 DUP2 ADD PUSH1 0x40 MSTORE DUP1 SWAP3 SWAP2 SWAP1 DUP2 DUP2 MSTORE PUSH1 0x20 ADD DUP3 DUP1 SLOAD PUSH2 0x8D6 SWAP1 PUSH2 0x2576 JUMP JUMPDEST DUP1 ISZERO PUSH2 0x923 JUMPI DUP1 PUSH1 0x1F LT PUSH2 0x8F8 JUMPI PUSH2 0x100 DUP1 DUP4 SLOAD DIV MUL DUP4 MSTORE SWAP2 PUSH1 0x20 ADD SWAP2 PUSH2 0x923 JUMP JUMPDEST DUP3 ADD SWAP2 SWAP1 PUSH1 0x0 MSTORE PUSH1 0x20 PUSH1 0x0 KECCAK256 SWAP1 JUMPDEST DUP2 SLOAD DUP2 MSTORE SWAP1 PUSH1 0x1 ADD SWAP1 PUSH1 0x20 ADD DUP1 DUP4 GT PUSH2 0x906 JUMPI DUP3 SWAP1 SUB PUSH1 0x1F AND DUP3 ADD SWAP2 JUMPDEST POP POP POP POP POP DUP2 MSTORE PUSH1 0x20 ADD PUSH1 0x1 DUP3 ADD DUP1 SLOAD PUSH2 0x93C SWAP1 PUSH2 0x2576 JUMP JUMPDEST DUP1 PUSH1 0x1F ADD PUSH1 0x20 DUP1 SWAP2 DIV MUL PUSH1 0x20 ADD PUSH1 0x40 MLOAD SWAP1 DUP2 ADD PUSH1 0x40 MSTORE DUP1 SWAP3 SWAP2 SWAP1 DUP2 DUP2 MSTORE PUSH1 0x20 ADD DUP3 DUP1 SLOAD PUSH2 0x968 SWAP1 PUSH2 0x2576 JUMP JUMPDEST DUP1 ISZERO PUSH2 0x9B5 JUMPI DUP1 PUSH1 0x1F LT PUSH2 0x98A JUMPI PUSH2 0x100 DUP1 DUP4 SLOAD DIV MUL DUP4 MSTORE SWAP2 PUSH1 0x20 ADD SWAP2 PUSH2 0x9B5 JUMP JUMPDEST DUP3 ADD SWAP2 SWAP1 PUSH1 0x0 MSTORE PUSH1 0x20 PUSH1 0x0 KECCAK256 SWAP1 JUMPDEST DUP2 SLOAD DUP2 MSTORE SWAP1 PUSH1 0x1 ADD SWAP1 PUSH1 0x20 ADD DUP1 DUP4 GT PUSH2 0x998 JUMPI DUP3 SWAP1 SUB PUSH1 0x1F AND DUP3 ADD SWAP2 JUMPDEST POP POP POP POP POP DUP2 MSTORE POP POP DUP2 MSTORE PUSH1 0x20 ADD SWAP1 PUSH1 0x1 ADD SWAP1 PUSH2 0x877 JUMP JUMPDEST POP POP POP POP DUP2 MSTORE POP POP SWAP1 POP PUSH2 0x9EB PUSH8 0xA7309B6886CD7CF7 PUSH1 0xC0 SHL PUSH2 0x2C9 JUMP JUMPDEST PUSH2 0x9FF PUSH8 0x8275550BB15747AF PUSH1 0xC0 SHL PUSH2 0x2C9 JUMP JUMPDEST PUSH1 0x0 PUSH1 0x1 PUSH1 0x0 DUP4 PUSH1 0x20 ADD MLOAD PUSH20 0xFFFFFFFFFFFFFFFFFFFFFFFFFFFFFFFFFFFFFFFF AND PUSH20 0xFFFFFFFFFFFFFFFFFFFFFFFFFFFFFFFFFFFFFFFF AND DUP2 MSTORE PUSH1 0x20 ADD SWAP1 DUP2 MSTORE PUSH1 0x20 ADD PUSH1 0x0 KECCAK256 PUSH1 0x40 MLOAD DUP1 PUSH1 0x40 ADD PUSH1 0x40 MSTORE SWAP1 DUP2 PUSH1 0x0 DUP3 ADD PUSH1 0x0 SWAP1 SLOAD SWAP1 PUSH2 0x100 EXP SWAP1 DIV PUSH20 0xFFFFFFFFFFFFFFFFFFFFFFFFFFFFFFFFFFFFFFFF AND PUSH20 0xFFFFFFFFFFFFFFFFFFFFFFFFFFFFFFFFFFFFFFFF AND PUSH20 0xFFFFFFFFFFFFFFFFFFFFFFFFFFFFFFFFFFFFFFFF AND DUP2 MSTORE PUSH1 0x20 ADD PUSH1 0x1 DUP3 ADD SLOAD DUP2 MSTORE POP POP SWAP1 POP PUSH2 0xAC5 PUSH8 0x98CC77215A6599DF PUSH1 0xC0 SHL PUSH2 0x2C9 JUMP JUMPDEST PUSH2 0xAD9 PUSH8 0xD56F610BF0DE5F88 PUSH1 0xC0 SHL PUSH2 0x2C9 JUMP JUMPDEST PUSH2 0xAED PUSH8 0xF7F4935A30958B41 PUSH1 0xC0 SHL PUSH2 0x2C9 JUMP JUMPDEST DUP2 PUSH1 0x60 ADD MLOAD DUP2 PUSH1 0x20 ADD MLOAD LT ISZERO PUSH2 0xB38 JUMPI PUSH1 0x40 MLOAD PUSH32 0x8C379A000000000000000000000000000000000000000000000000000000000 DUP2 MSTORE PUSH1 0x4 ADD PUSH2 0xB2F SWAP1 PUSH2 0x25F3 JUMP JUMPDEST PUSH1 0x40 MLOAD DUP1 SWAP2 SUB SWAP1 REVERT JUMPDEST PUSH2 0xB4C PUSH8 0xF3A568FFBE19173 PUSH1 0xC0 SHL PUSH2 0x2C9 JUMP JUMPDEST PUSH2 0xB60 PUSH8 0x854CC671757B3018 PUSH1 0xC0 SHL PUSH2 0x2C9 JUMP JUMPDEST PUSH2 0xB74 PUSH8 0xDEFF5F40E5885C43 PUSH1 0xC0 SHL PUSH2 0x2C9 JUMP JUMPDEST DUP2 PUSH1 0x40 ADD MLOAD PUSH20 0xFFFFFFFFFFFFFFFFFFFFFFFFFFFFFFFFFFFFFFFF AND PUSH2 0x8FC DUP4 PUSH1 0x60 ADD MLOAD SWAP1 DUP2 ISZERO MUL SWAP1 PUSH1 0x40 MLOAD PUSH1 0x0 PUSH1 0x40 MLOAD DUP1 DUP4 SUB DUP2 DUP6 DUP9 DUP9 CALL SWAP4 POP POP POP POP ISZERO DUP1 ISZERO PUSH2 0xBC2 JUMPI RETURNDATASIZE PUSH1 0x0 DUP1 RETURNDATACOPY RETURNDATASIZE PUSH1 0x0 REVERT JUMPDEST POP PUSH2 0xBD7 PUSH8 0xDB4F2A3C50E0FB91 PUSH1 0xC0 SHL PUSH2 0x2C9 JUMP JUMPDEST DUP2 PUSH1 0x60 ADD MLOAD DUP2 PUSH1 0x20 ADD DUP2 DUP2 MLOAD PUSH2 0xBED SWAP2 SWAP1 PUSH2 0x2613 JUMP JUMPDEST SWAP2 POP DUP2 DUP2 MSTORE POP POP PUSH2 0xC08 PUSH8 0x793136DB1E13DC32 PUSH1 0xC0 SHL PUSH2 0x2C9 JUMP JUMPDEST DUP1 PUSH1 0x1 PUSH1 0x0 DUP4 PUSH1 0x0 ADD MLOAD PUSH20 0xFFFFFFFFFFFFFFFFFFFFFFFFFFFFFFFFFFFFFFFF AND PUSH20 0xFFFFFFFFFFFFFFFFFFFFFFFFFFFFFFFFFFFFFFFF AND DUP2 MSTORE PUSH1 0x20 ADD SWAP1 DUP2 MSTORE PUSH1 0x20 ADD PUSH1 0x0 KECCAK256 PUSH1 0x0 DUP3 ADD MLOAD DUP2 PUSH1 0x0 ADD PUSH1 0x0 PUSH2 0x100 EXP DUP2 SLOAD DUP2 PUSH20 0xFFFFFFFFFFFFFFFFFFFFFFFFFFFFFFFFFFFFFFFF MUL NOT AND SWAP1 DUP4 PUSH20 0xFFFFFFFFFFFFFFFFFFFFFFFFFFFFFFFFFFFFFFFF AND MUL OR SWAP1 SSTORE POP PUSH1 0x20 DUP3 ADD MLOAD DUP2 PUSH1 0x1 ADD SSTORE SWAP1 POP POP POP POP POP JUMP JUMPDEST PUSH2 0xCB9 PUSH8 0xF54B02762939F650 PUSH1 0xC0 SHL PUSH2 0x2C9 JUMP JUMPDEST PUSH2 0xCCD PUSH8 0x93E6CA86AB73CB42 PUSH1 0xC0 SHL PUSH2 0x2C9 JUMP JUMPDEST PUSH2 0xCE1 PUSH8 0xDB22970C06ADB612 PUSH1 0xC0 SHL PUSH2 0x2C9 JUMP JUMPDEST PUSH1 0x0 PUSH1 0x1 PUSH1 0x0 DUP11 PUSH20 0xFFFFFFFFFFFFFFFFFFFFFFFFFFFFFFFFFFFFFFFF AND PUSH20 0xFFFFFFFFFFFFFFFFFFFFFFFFFFFFFFFFFFFFFFFF AND DUP2 MSTORE PUSH1 0x20 ADD SWAP1 DUP2 MSTORE PUSH1 0x20 ADD PUSH1 0x0 KECCAK256 PUSH1 0x40 MLOAD DUP1 PUSH1 0x40 ADD PUSH1 0x40 MSTORE SWAP1 DUP2 PUSH1 0x0 DUP3 ADD PUSH1 0x0 SWAP1 SLOAD SWAP1 PUSH2 0x100 EXP SWAP1 DIV PUSH20 0xFFFFFFFFFFFFFFFFFFFFFFFFFFFFFFFFFFFFFFFF AND PUSH20 0xFFFFFFFFFFFFFFFFFFFFFFFFFFFFFFFFFFFFFFFF AND PUSH20 0xFFFFFFFFFFFFFFFFFFFFFFFFFFFFFFFFFFFFFFFF AND DUP2 MSTORE PUSH1 0x20 ADD PUSH1 0x1 DUP3 ADD SLOAD DUP2 MSTORE POP POP SWAP1 POP PUSH2 0xDA3 PUSH8 0xEEC110E288A75DAE PUSH1 0xC0 SHL PUSH2 0x2C9 JUMP JUMPDEST PUSH2 0xDB7 PUSH8 0xE6E9083779453306 PUSH1 0xC0 SHL PUSH2 0x2C9 JUMP JUMPDEST PUSH1 0x0 PUSH1 0x1 PUSH1 0x0 DUP11 PUSH20 0xFFFFFFFFFFFFFFFFFFFFFFFFFFFFFFFFFFFFFFFF AND PUSH20 0xFFFFFFFFFFFFFFFFFFFFFFFFFFFFFFFFFFFFFFFF AND DUP2 MSTORE PUSH1 0x20 ADD SWAP1 DUP2 MSTORE PUSH1 0x20 ADD PUSH1 0x0 KECCAK256 PUSH1 0x40 MLOAD DUP1 PUSH1 0x40 ADD PUSH1 0x40 MSTORE SWAP1 DUP2 PUSH1 0x0 DUP3 ADD PUSH1 0x0 SWAP1 SLOAD SWAP1 PUSH2 0x100 EXP SWAP1 DIV PUSH20 0xFFFFFFFFFFFFFFFFFFFFFFFFFFFFFFFFFFFFFFFF AND PUSH20 0xFFFFFFFFFFFFFFFFFFFFFFFFFFFFFFFFFFFFFFFF AND PUSH20 0xFFFFFFFFFFFFFFFFFFFFFFFFFFFFFFFFFFFFFFFF AND DUP2 MSTORE PUSH1 0x20 ADD PUSH1 0x1 DUP3 ADD SLOAD DUP2 MSTORE POP POP SWAP1 POP PUSH2 0xE79 PUSH8 0x5CEB050CC79D6C5F PUSH1 0xC0 SHL PUSH2 0x2C9 JUMP JUMPDEST PUSH2 0xE8D PUSH8 0x65C20FE73D4803E7 PUSH1 0xC0 SHL PUSH2 0x2C9 JUMP JUMPDEST PUSH2 0xEA1 PUSH8 0x42220A0DE1D6FA72 PUSH1 0xC0 SHL PUSH2 0x2C9 JUMP JUMPDEST DUP8 DUP3 PUSH1 0x20 ADD MLOAD GT DUP1 ISZERO PUSH2 0xEB7 JUMPI POP DUP8 DUP2 PUSH1 0x20 ADD MLOAD GT JUMPDEST PUSH2 0xEF6 JUMPI PUSH1 0x40 MLOAD PUSH32 0x8C379A000000000000000000000000000000000000000000000000000000000 DUP2 MSTORE PUSH1 0x4 ADD PUSH2 0xEED SWAP1 PUSH2 0x2693 JUMP JUMPDEST PUSH1 0x40 MLOAD DUP1 SWAP2 SUB SWAP1 REVERT JUMPDEST PUSH2 0xF0A PUSH8 0x8E8C6B9378BB23D2 PUSH1 0xC0 SHL PUSH2 0x2C9 JUMP JUMPDEST PUSH2 0xF1E PUSH8 0x5270C961BBB8DB27 PUSH1 0xC0 SHL PUSH2 0x2C9 JUMP JUMPDEST PUSH2 0xF32 PUSH8 0x1AB164731B727C7A PUSH1 0xC0 SHL PUSH2 0x2C9 JUMP JUMPDEST PUSH1 0x0 DUP1 PUSH1 0x0 DUP14 DUP2 MSTORE PUSH1 0x20 ADD SWAP1 DUP2 MSTORE PUSH1 0x20 ADD PUSH1 0x0 KECCAK256 SWAP1 POP PUSH2 0xF5C PUSH8 0xDEEA4C211E365A47 PUSH1 0xC0 SHL PUSH2 0x2C9 JUMP JUMPDEST DUP12 DUP2 PUSH1 0x0 ADD DUP2 SWAP1 SSTORE POP PUSH2 0xF79 PUSH8 0xAE32E0B9475E3E64 PUSH1 0xC0 SHL PUSH2 0x2C9 JUMP JUMPDEST DUP11 DUP2 PUSH1 0x1 ADD PUSH1 0x0 PUSH2 0x100 EXP DUP2 SLOAD DUP2 PUSH20 0xFFFFFFFFFFFFFFFFFFFFFFFFFFFFFFFFFFFFFFFF MUL NOT AND SWAP1 DUP4 PUSH20 0xFFFFFFFFFFFFFFFFFFFFFFFFFFFFFFFFFFFFFFFF AND MUL OR SWAP1 SSTORE POP PUSH2 0xFD0 PUSH8 0xD473D3893E318984 PUSH1 0xC0 SHL PUSH2 0x2C9 JUMP JUMPDEST DUP10 DUP2 PUSH1 0x2 ADD PUSH1 0x0 PUSH2 0x100 EXP DUP2 SLOAD DUP2 PUSH20 0xFFFFFFFFFFFFFFFFFFFFFFFFFFFFFFFFFFFFFFFF MUL NOT AND SWAP1 DUP4 PUSH20 0xFFFFFFFFFFFFFFFFFFFFFFFFFFFFFFFFFFFFFFFF AND MUL OR SWAP1 SSTORE POP PUSH2 0x1027 PUSH8 0x73C8A2F74E1E26A9 PUSH1 0xC0 SHL PUSH2 0x2C9 JUMP JUMPDEST DUP9 DUP2 PUSH1 0x3 ADD DUP2 SWAP1 SSTORE POP PUSH2 0x1044 PUSH8 0x9673107A61709E25 PUSH1 0xC0 SHL PUSH2 0x2C9 JUMP JUMPDEST DUP8 DUP2 PUSH1 0x4 ADD PUSH1 0x0 PUSH2 0x100 EXP DUP2 SLOAD DUP2 PUSH4 0xFFFFFFFF MUL NOT AND SWAP1 DUP4 PUSH4 0xFFFFFFFF AND MUL OR SWAP1 SSTORE POP PUSH2 0x107B PUSH8 0xB3004C7C128E4D00 PUSH1 0xC0 SHL PUSH2 0x2C9 JUMP JUMPDEST DUP7 DUP2 PUSH1 0x4 ADD PUSH1 0x4 PUSH2 0x100 EXP DUP2 SLOAD DUP2 PUSH4 0xFFFFFFFF MUL NOT AND SWAP1 DUP4 PUSH4 0xFFFFFFFF AND MUL OR SWAP1 SSTORE POP PUSH2 0x10B2 PUSH8 0x9AD46231463181EE PUSH1 0xC0 SHL PUSH2 0x2C9 JUMP JUMPDEST DUP6 DUP2 PUSH1 0x4 ADD PUSH1 0x8 PUSH2 0x100 EXP DUP2 SLOAD DUP2 PUSH4 0xFFFFFFFF MUL NOT AND SWAP1 DUP4 PUSH4 0xFFFFFFFF AND MUL OR SWAP1 SSTORE POP PUSH2 0x10E9 PUSH8 0x8F138E00FE7A8CDB PUSH1 0xC0 SHL PUSH2 0x2C9 JUMP JUMPDEST DUP5 DUP2 PUSH1 0x5 ADD SWAP1 DUP2 PUSH2 0x10FA SWAP2 SWAP1 PUSH2 0x285F JUMP JUMPDEST POP PUSH2 0x110F PUSH8 0x56E88FA12C4A4862 PUSH1 0xC0 SHL PUSH2 0x2C9 JUMP JUMPDEST PUSH2 0x1123 PUSH8 0xD9B1C27311752837 PUSH1 0xC0 SHL PUSH2 0x2C9 JUMP JUMPDEST PUSH1 0x0 JUMPDEST DUP5 MLOAD DUP2 LT ISZERO PUSH2 0x11E0 JUMPI PUSH2 0x1143 PUSH8 0x3F8155F8086998F9 PUSH1 0xC0 SHL PUSH2 0x2C9 JUMP JUMPDEST PUSH2 0x1157 PUSH8 0xE607846455C8A7DA PUSH1 0xC0 SHL PUSH2 0x2C9 JUMP JUMPDEST DUP2 PUSH1 0x6 ADD DUP6 DUP3 DUP2 MLOAD DUP2 LT PUSH2 0x116E JUMPI PUSH2 0x116D PUSH2 0x2931 JUMP JUMPDEST JUMPDEST PUSH1 0x20 MUL PUSH1 0x20 ADD ADD MLOAD SWAP1 DUP1 PUSH1 0x1 DUP2 SLOAD ADD DUP1 DUP3 SSTORE DUP1 SWAP2 POP POP PUSH1 0x1 SWAP1 SUB SWAP1 PUSH1 0x0 MSTORE PUSH1 0x20 PUSH1 0x0 KECCAK256 SWAP1 PUSH1 0x2 MUL ADD PUSH1 0x0 SWAP1 SWAP2 SWAP1 SWAP2 SWAP1 SWAP2 POP PUSH1 0x0 DUP3 ADD MLOAD DUP2 PUSH1 0x0 ADD SWAP1 DUP2 PUSH2 0x11B4 SWAP2 SWAP1 PUSH2 0x285F JUMP JUMPDEST POP PUSH1 0x20 DUP3 ADD MLOAD DUP2 PUSH1 0x1 ADD SWAP1 DUP2 PUSH2 0x11CA SWAP2 SWAP1 PUSH2 0x285F JUMP JUMPDEST POP POP POP DUP1 DUP1 PUSH2 0x11D8 SWAP1 PUSH2 0x2960 JUMP JUMPDEST SWAP2 POP POP PUSH2 0x1126 JUMP JUMPDEST POP PUSH2 0x11F5 PUSH8 0x86225E55FF7FFCDA PUSH1 0xC0 SHL PUSH2 0x2C9 JUMP JUMPDEST DUP1 PUSH1 0x0 DUP1 DUP15 DUP2 MSTORE PUSH1 0x20 ADD SWAP1 DUP2 MSTORE PUSH1 0x20 ADD PUSH1 0x0 KECCAK256 PUSH1 0x0 DUP3 ADD SLOAD DUP2 PUSH1 0x0 ADD SSTORE PUSH1 0x1 DUP3 ADD PUSH1 0x0 SWAP1 SLOAD SWAP1 PUSH2 0x100 EXP SWAP1 DIV PUSH20 0xFFFFFFFFFFFFFFFFFFFFFFFFFFFFFFFFFFFFFFFF AND DUP2 PUSH1 0x1 ADD PUSH1 0x0 PUSH2 0x100 EXP DUP2 SLOAD DUP2 PUSH20 0xFFFFFFFFFFFFFFFFFFFFFFFFFFFFFFFFFFFFFFFF MUL NOT AND SWAP1 DUP4 PUSH20 0xFFFFFFFFFFFFFFFFFFFFFFFFFFFFFFFFFFFFFFFF AND MUL OR SWAP1 SSTORE POP PUSH1 0x2 DUP3 ADD PUSH1 0x0 SWAP1 SLOAD SWAP1 PUSH2 0x100 EXP SWAP1 DIV PUSH20 0xFFFFFFFFFFFFFFFFFFFFFFFFFFFFFFFFFFFFFFFF AND DUP2 PUSH1 0x2 ADD PUSH1 0x0 PUSH2 0x100 EXP DUP2 SLOAD DUP2 PUSH20 0xFFFFFFFFFFFFFFFFFFFFFFFFFFFFFFFFFFFFFFFF MUL NOT AND SWAP1 DUP4 PUSH20 0xFFFFFFFFFFFFFFFFFFFFFFFFFFFFFFFFFFFFFFFF AND MUL OR SWAP1 SSTORE POP PUSH1 0x3 DUP3 ADD SLOAD DUP2 PUSH1 0x3 ADD SSTORE PUSH1 0x4 DUP3 ADD PUSH1 0x0 SWAP1 SLOAD SWAP1 PUSH2 0x100 EXP SWAP1 DIV PUSH4 0xFFFFFFFF AND DUP2 PUSH1 0x4 ADD PUSH1 0x0 PUSH2 0x100 EXP DUP2 SLOAD DUP2 PUSH4 0xFFFFFFFF MUL NOT AND SWAP1 DUP4 PUSH4 0xFFFFFFFF AND MUL OR SWAP1 SSTORE POP PUSH1 0x4 DUP3 ADD PUSH1 0x4 SWAP1 SLOAD SWAP1 PUSH2 0x100 EXP SWAP1 DIV PUSH4 0xFFFFFFFF AND DUP2 PUSH1 0x4 ADD PUSH1 0x4 PUSH2 0x100 EXP DUP2 SLOAD DUP2 PUSH4 0xFFFFFFFF MUL NOT AND SWAP1 DUP4 PUSH4 0xFFFFFFFF AND MUL OR SWAP1 SSTORE POP PUSH1 0x4 DUP3 ADD PUSH1 0x8 SWAP1 SLOAD SWAP1 PUSH2 0x100 EXP SWAP1 DIV PUSH4 0xFFFFFFFF AND DUP2 PUSH1 0x4 ADD PUSH1 0x8 PUSH2 0x100 EXP DUP2 SLOAD DUP2 PUSH4 0xFFFFFFFF MUL NOT AND SWAP1 DUP4 PUSH4 0xFFFFFFFF AND MUL OR SWAP1 SSTORE POP PUSH1 0x5 DUP3 ADD DUP2 PUSH1 0x5 ADD SWAP1 DUP2 PUSH2 0x13A3 SWAP2 SWAP1 PUSH2 0x29BE JUMP JUMPDEST POP PUSH1 0x6 DUP3 ADD DUP2 PUSH1 0x6 ADD SWAP1 DUP1 SLOAD PUSH2 0x13BA SWAP3 SWAP2 SWAP1 PUSH2 0x19E2 JUMP JUMPDEST POP SWAP1 POP POP POP POP POP POP POP POP POP POP POP POP POP POP JUMP JUMPDEST PUSH1 0x0 PUSH2 0x13E2 PUSH8 0x258E9ACA744C987E PUSH1 0xC0 SHL PUSH2 0x2C9 JUMP JUMPDEST PUSH2 0x13F6 PUSH8 0xBD254B205C90C853 PUSH1 0xC0 SHL PUSH2 0x2C9 JUMP JUMPDEST PUSH2 0x140A PUSH8 0x84AF28603AC465A6 PUSH1 0xC0 SHL PUSH2 0x2C9 JUMP JUMPDEST SELFBALANCE SWAP1 POP SWAP1 JUMP JUMPDEST PUSH2 0x1424 PUSH8 0xC50B5CC77CF2698A PUSH1 0xC0 SHL PUSH2 0x2C9 JUMP JUMPDEST PUSH2 0x1438 PUSH8 0xD71FE7A9600431CE PUSH1 0xC0 SHL PUSH2 0x2C9 JUMP JUMPDEST PUSH2 0x144C PUSH8 0xA5139AF7DB595FD6 PUSH1 0xC0 SHL PUSH2 0x2C9 JUMP JUMPDEST PUSH2 0x1460 PUSH8 0xA78C9A149B3B6AC5 PUSH1 0xC0 SHL PUSH2 0x2C9 JUMP JUMPDEST PUSH2 0x1474 PUSH8 0xA2B28058AC210B75 PUSH1 0xC0 SHL PUSH2 0x2C9 JUMP JUMPDEST PUSH1 0x2 PUSH1 0x0 SWAP1 SLOAD SWAP1 PUSH2 0x100 EXP SWAP1 DIV PUSH20 0xFFFFFFFFFFFFFFFFFFFFFFFFFFFFFFFFFFFFFFFF AND PUSH20 0xFFFFFFFFFFFFFFFFFFFFFFFFFFFFFFFFFFFFFFFF AND CALLER PUSH20 0xFFFFFFFFFFFFFFFFFFFFFFFFFFFFFFFFFFFFFFFF AND EQ PUSH2 0x14CE JUMPI PUSH1 0x0 DUP1 REVERT JUMPDEST PUSH2 0x14E2 PUSH8 0x87E2AC89B19ABBEE PUSH1 0xC0 SHL PUSH2 0x2C9 JUMP JUMPDEST PUSH2 0x14F6 PUSH8 0xF5A9843349ECDDF9 PUSH1 0xC0 SHL PUSH2 0x2C9 JUMP JUMPDEST PUSH2 0x150A PUSH8 0xC237162E34CF6109 PUSH1 0xC0 SHL PUSH2 0x2C9 JUMP JUMPDEST PUSH2 0x151E PUSH8 0x9ED1CC8FC6D60CFF PUSH1 0xC0 SHL PUSH2 0x2C9 JUMP JUMPDEST PUSH2 0x1532 PUSH8 0xD3D456BF385568DB PUSH1 0xC0 SHL PUSH2 0x2C9 JUMP JUMPDEST PUSH2 0x1546 PUSH8 0xF3F8A38F110BD94E PUSH1 0xC0 SHL PUSH2 0x2C9 JUMP JUMPDEST DUP1 PUSH20 0xFFFFFFFFFFFFFFFFFFFFFFFFFFFFFFFFFFFFFFFF AND PUSH2 0x8FC SELFBALANCE SWAP1 DUP2 ISZERO MUL SWAP1 PUSH1 0x40 MLOAD PUSH1 0x0 PUSH1 0x40 MLOAD DUP1 DUP4 SUB DUP2 DUP6 DUP9 DUP9 CALL SWAP4 POP POP POP POP ISZERO DUP1 ISZERO PUSH2 0x158C JUMPI RETURNDATASIZE PUSH1 0x0 DUP1 RETURNDATACOPY RETURNDATASIZE PUSH1 0x0 REVERT JUMPDEST POP POP JUMP JUMPDEST PUSH2 0x1598 PUSH2 0x1A64 JUMP JUMPDEST PUSH2 0x15AC PUSH8 0xF772910FD53EFC81 PUSH1 0xC0 SHL PUSH2 0x2C9 JUMP JUMPDEST PUSH2 0x15C0 PUSH8 0x68819A0EA4300A6F PUSH1 0xC0 SHL PUSH2 0x2C9 JUMP JUMPDEST PUSH2 0x15D4 PUSH8 0x7F30AE0462D3F549 PUSH1 0xC0 SHL PUSH2 0x2C9 JUMP JUMPDEST PUSH1 0x0 DUP1 PUSH1 0x0 DUP5 DUP2 MSTORE PUSH1 0x20 ADD SWAP1 DUP2 MSTORE PUSH1 0x20 ADD PUSH1 0x0 KECCAK256 PUSH1 0x40 MLOAD DUP1 PUSH2 0x120 ADD PUSH1 0x40 MSTORE SWAP1 DUP2 PUSH1 0x0 DUP3 ADD SLOAD DUP2 MSTORE PUSH1 0x20 ADD PUSH1 0x1 DUP3 ADD PUSH1 0x0 SWAP1 SLOAD SWAP1 PUSH2 0x100 EXP SWAP1 DIV PUSH20 0xFFFFFFFFFFFFFFFFFFFFFFFFFFFFFFFFFFFFFFFF AND PUSH20 0xFFFFFFFFFFFFFFFFFFFFFFFFFFFFFFFFFFFFFFFF AND PUSH20 0xFFFFFFFFFFFFFFFFFFFFFFFFFFFFFFFFFFFFFFFF AND DUP2 MSTORE PUSH1 0x20 ADD PUSH1 0x2 DUP3 ADD PUSH1 0x0 SWAP1 SLOAD SWAP1 PUSH2 0x100 EXP SWAP1 DIV PUSH20 0xFFFFFFFFFFFFFFFFFFFFFFFFFFFFFFFFFFFFFFFF AND PUSH20 0xFFFFFFFFFFFFFFFFFFFFFFFFFFFFFFFFFFFFFFFF AND PUSH20 0xFFFFFFFFFFFFFFFFFFFFFFFFFFFFFFFFFFFFFFFF AND DUP2 MSTORE PUSH1 0x20 ADD PUSH1 0x3 DUP3 ADD SLOAD DUP2 MSTORE PUSH1 0x20 ADD PUSH1 0x4 DUP3 ADD PUSH1 0x0 SWAP1 SLOAD SWAP1 PUSH2 0x100 EXP SWAP1 DIV PUSH4 0xFFFFFFFF AND PUSH4 0xFFFFFFFF AND PUSH4 0xFFFFFFFF AND DUP2 MSTORE PUSH1 0x20 ADD PUSH1 0x4 DUP3 ADD PUSH1 0x4 SWAP1 SLOAD SWAP1 PUSH2 0x100 EXP SWAP1 DIV PUSH4 0xFFFFFFFF AND PUSH4 0xFFFFFFFF AND PUSH4 0xFFFFFFFF AND DUP2 MSTORE PUSH1 0x20 ADD PUSH1 0x4 DUP3 ADD PUSH1 0x8 SWAP1 SLOAD SWAP1 PUSH2 0x100 EXP SWAP1 DIV PUSH4 0xFFFFFFFF AND PUSH4 0xFFFFFFFF AND PUSH4 0xFFFFFFFF AND DUP2 MSTORE PUSH1 0x20 ADD PUSH1 0x5 DUP3 ADD DUP1 SLOAD PUSH2 0x1736 SWAP1 PUSH2 0x2576 JUMP JUMPDEST DUP1 PUSH1 0x1F ADD PUSH1 0x20 DUP1 SWAP2 DIV MUL PUSH1 0x20 ADD PUSH1 0x40 MLOAD SWAP1 DUP2 ADD PUSH1 0x40 MSTORE DUP1 SWAP3 SWAP2 SWAP1 DUP2 DUP2 MSTORE PUSH1 0x20 ADD DUP3 DUP1 SLOAD PUSH2 0x1762 SWAP1 PUSH2 0x2576 JUMP JUMPDEST DUP1 ISZERO PUSH2 0x17AF JUMPI DUP1 PUSH1 0x1F LT PUSH2 0x1784 JUMPI PUSH2 0x100 DUP1 DUP4 SLOAD DIV MUL DUP4 MSTORE SWAP2 PUSH1 0x20 ADD SWAP2 PUSH2 0x17AF JUMP JUMPDEST DUP3 ADD SWAP2 SWAP1 PUSH1 0x0 MSTORE PUSH1 0x20 PUSH1 0x0 KECCAK256 SWAP1 JUMPDEST DUP2 SLOAD DUP2 MSTORE SWAP1 PUSH1 0x1 ADD SWAP1 PUSH1 0x20 ADD DUP1 DUP4 GT PUSH2 0x1792 JUMPI DUP3 SWAP1 SUB PUSH1 0x1F AND DUP3 ADD SWAP2 JUMPDEST POP POP POP POP POP DUP2 MSTORE PUSH1 0x20 ADD PUSH1 0x6 DUP3 ADD DUP1 SLOAD DUP1 PUSH1 0x20 MUL PUSH1 0x20 ADD PUSH1 0x40 MLOAD SWAP1 DUP2 ADD PUSH1 0x40 MSTORE DUP1 SWAP3 SWAP2 SWAP1 DUP2 DUP2 MSTORE PUSH1 0x20 ADD PUSH1 0x0 SWAP1 JUMPDEST DUP3 DUP3 LT ISZERO PUSH2 0x1933 JUMPI DUP4 DUP3 SWAP1 PUSH1 0x0 MSTORE PUSH1 0x20 PUSH1 0x0 KECCAK256 SWAP1 PUSH1 0x2 MUL ADD PUSH1 0x40 MLOAD DUP1 PUSH1 0x40 ADD PUSH1 0x40 MSTORE SWAP1 DUP2 PUSH1 0x0 DUP3 ADD DUP1 SLOAD PUSH2 0x1810 SWAP1 PUSH2 0x2576 JUMP JUMPDEST DUP1 PUSH1 0x1F ADD PUSH1 0x20 DUP1 SWAP2 DIV MUL PUSH1 0x20 ADD PUSH1 0x40 MLOAD SWAP1 DUP2 ADD PUSH1 0x40 MSTORE DUP1 SWAP3 SWAP2 SWAP1 DUP2 DUP2 MSTORE PUSH1 0x20 ADD DUP3 DUP1 SLOAD PUSH2 0x183C SWAP1 PUSH2 0x2576 JUMP JUMPDEST DUP1 ISZERO PUSH2 0x1889 JUMPI DUP1 PUSH1 0x1F LT PUSH2 0x185E JUMPI PUSH2 0x100 DUP1 DUP4 SLOAD DIV MUL DUP4 MSTORE SWAP2 PUSH1 0x20 ADD SWAP2 PUSH2 0x1889 JUMP JUMPDEST DUP3 ADD SWAP2 SWAP1 PUSH1 0x0 MSTORE PUSH1 0x20 PUSH1 0x0 KECCAK256 SWAP1 JUMPDEST DUP2 SLOAD DUP2 MSTORE SWAP1 PUSH1 0x1 ADD SWAP1 PUSH1 0x20 ADD DUP1 DUP4 GT PUSH2 0x186C JUMPI DUP3 SWAP1 SUB PUSH1 0x1F AND DUP3 ADD SWAP2 JUMPDEST POP POP POP POP POP DUP2 MSTORE PUSH1 0x20 ADD PUSH1 0x1 DUP3 ADD DUP1 SLOAD PUSH2 0x18A2 SWAP1 PUSH2 0x2576 JUMP JUMPDEST DUP1 PUSH1 0x1F ADD PUSH1 0x20 DUP1 SWAP2 DIV MUL PUSH1 0x20 ADD PUSH1 0x40 MLOAD SWAP1 DUP2 ADD PUSH1 0x40 MSTORE DUP1 SWAP3 SWAP2 SWAP1 DUP2 DUP2 MSTORE PUSH1 0x20 ADD DUP3 DUP1 SLOAD PUSH2 0x18CE SWAP1 PUSH2 0x2576 JUMP JUMPDEST DUP1 ISZERO PUSH2 0x191B JUMPI DUP1 PUSH1 0x1F LT PUSH2 0x18F0 JUMPI PUSH2 0x100 DUP1 DUP4 SLOAD DIV MUL DUP4 MSTORE SWAP2 PUSH1 0x20 ADD SWAP2 PUSH2 0x191B JUMP JUMPDEST DUP3 ADD SWAP2 SWAP1 PUSH1 0x0 MSTORE PUSH1 0x20 PUSH1 0x0 KECCAK256 SWAP1 JUMPDEST DUP2 SLOAD DUP2 MSTORE SWAP1 PUSH1 0x1 ADD SWAP1 PUSH1 0x20 ADD DUP1 DUP4 GT PUSH2 0x18FE JUMPI DUP3 SWAP1 SUB PUSH1 0x1F AND DUP3 ADD SWAP2 JUMPDEST POP POP POP POP POP DUP2 MSTORE POP POP DUP2 MSTORE PUSH1 0x20 ADD SWAP1 PUSH1 0x1 ADD SWAP1 PUSH2 0x17DD JUMP JUMPDEST POP POP POP POP DUP2 MSTORE POP POP SWAP1 POP PUSH2 0x1951 PUSH8 0x46D6D5C865000165 PUSH1 0xC0 SHL PUSH2 0x2C9 JUMP JUMPDEST PUSH2 0x1965 PUSH8 0xDF12CC9523E26E92 PUSH1 0xC0 SHL PUSH2 0x2C9 JUMP JUMPDEST DUP1 SWAP2 POP POP SWAP2 SWAP1 POP JUMP JUMPDEST PUSH1 0x0 PUSH2 0x1984 PUSH8 0x3169BED10A3C5F97 PUSH1 0xC0 SHL PUSH2 0x2C9 JUMP JUMPDEST PUSH2 0x1998 PUSH8 0x3FDA669CE71AB5C9 PUSH1 0xC0 SHL PUSH2 0x2C9 JUMP JUMPDEST PUSH2 0x19AC PUSH8 0xAFB923A890816E9A PUSH1 0xC0 SHL PUSH2 0x2C9 JUMP JUMPDEST ADDRESS SWAP1 POP SWAP1 JUMP JUMPDEST PUSH1 0x40 MLOAD DUP1 PUSH1 0x40 ADD PUSH1 0x40 MSTORE DUP1 PUSH1 0x0 PUSH20 0xFFFFFFFFFFFFFFFFFFFFFFFFFFFFFFFFFFFFFFFF AND DUP2 MSTORE PUSH1 0x20 ADD PUSH1 0x0 DUP2 MSTORE POP SWAP1 JUMP JUMPDEST DUP3 DUP1 SLOAD DUP3 DUP3 SSTORE SWAP1 PUSH1 0x0 MSTORE PUSH1 0x20 PUSH1 0x0 KECCAK256 SWAP1 PUSH1 0x2 MUL DUP2 ADD SWAP3 DUP3 ISZERO PUSH2 0x1A53 JUMPI PUSH1 0x0 MSTORE PUSH1 0x20 PUSH1 0x0 KECCAK256 SWAP2 PUSH1 0x2 MUL DUP3 ADD JUMPDEST DUP3 DUP2 GT ISZERO PUSH2 0x1A52 JUMPI DUP3 DUP3 PUSH1 0x0 DUP3 ADD DUP2 PUSH1 0x0 ADD SWAP1 DUP2 PUSH2 0x1A2B SWAP2 SWAP1 PUSH2 0x29BE JUMP JUMPDEST POP PUSH1 0x1 DUP3 ADD DUP2 PUSH1 0x1 ADD SWAP1 DUP2 PUSH2 0x1A40 SWAP2 SWAP1 PUSH2 0x29BE JUMP JUMPDEST POP POP POP SWAP2 PUSH1 0x2 ADD SWAP2 SWAP1 PUSH1 0x2 ADD SWAP1 PUSH2 0x1A0D JUMP JUMPDEST JUMPDEST POP SWAP1 POP PUSH2 0x1A60 SWAP2 SWAP1 PUSH2 0x1AEE JUMP JUMPDEST POP SWAP1 JUMP JUMPDEST PUSH1 0x40 MLOAD DUP1 PUSH2 0x120 ADD PUSH1 0x40 MSTORE DUP1 PUSH1 0x0 DUP2 MSTORE PUSH1 0x20 ADD PUSH1 0x0 PUSH20 0xFFFFFFFFFFFFFFFFFFFFFFFFFFFFFFFFFFFFFFFF AND DUP2 MSTORE PUSH1 0x20 ADD PUSH1 0x0 PUSH20 0xFFFFFFFFFFFFFFFFFFFFFFFFFFFFFFFFFFFFFFFF AND DUP2 MSTORE PUSH1 0x20 ADD PUSH1 0x0 DUP2 MSTORE PUSH1 0x20 ADD PUSH1 0x0 PUSH4 0xFFFFFFFF AND DUP2 MSTORE PUSH1 0x20 ADD PUSH1 0x0 PUSH4 0xFFFFFFFF AND DUP2 MSTORE PUSH1 0x20 ADD PUSH1 0x0 PUSH4 0xFFFFFFFF AND DUP2 MSTORE PUSH1 0x20 ADD PUSH1 0x60 DUP2 MSTORE PUSH1 0x20 ADD PUSH1 0x60 DUP2 MSTORE POP SWAP1 JUMP JUMPDEST JUMPDEST DUP1 DUP3 GT ISZERO PUSH2 0x1B21 JUMPI PUSH1 0x0 DUP1 DUP3 ADD PUSH1 0x0 PUSH2 0x1B08 SWAP2 SWAP1 PUSH2 0x1B25 JUMP JUMPDEST PUSH1 0x1 DUP3 ADD PUSH1 0x0 PUSH2 0x1B18 SWAP2 SWAP1 PUSH2 0x1B25 JUMP JUMPDEST POP PUSH1 0x2 ADD PUSH2 0x1AEF JUMP JUMPDEST POP SWAP1 JUMP JUMPDEST POP DUP1 SLOAD PUSH2 0x1B31 SWAP1 PUSH2 0x2576 JUMP JUMPDEST PUSH1 0x0 DUP3 SSTORE DUP1 PUSH1 0x1F LT PUSH2 0x1B43 JUMPI POP PUSH2 0x1B62 JUMP JUMPDEST PUSH1 0x1F ADD PUSH1 0x20 SWAP1 DIV SWAP1 PUSH1 0x0 MSTORE PUSH1 0x20 PUSH1 0x0 KECCAK256 SWAP1 DUP2 ADD SWAP1 PUSH2 0x1B61 SWAP2 SWAP1 PUSH2 0x1B65 JUMP JUMPDEST JUMPDEST POP JUMP JUMPDEST JUMPDEST DUP1 DUP3 GT ISZERO PUSH2 0x1B7E JUMPI PUSH1 0x0 DUP2 PUSH1 0x0 SWAP1 SSTORE POP PUSH1 0x1 ADD PUSH2 0x1B66 JUMP JUMPDEST POP SWAP1 JUMP JUMPDEST PUSH1 0x0 DUP3 DUP3 MSTORE PUSH1 0x20 DUP3 ADD SWAP1 POP SWAP3 SWAP2 POP POP JUMP JUMPDEST PUSH32 0x52656365697665207265636569766520746F6B656E0000000000000000000000 PUSH1 0x0 DUP3 ADD MSTORE POP JUMP JUMPDEST PUSH1 0x0 PUSH2 0x1BC9 PUSH1 0x15 DUP4 PUSH2 0x1B82 JUMP JUMPDEST SWAP2 POP PUSH2 0x1BD4 DUP3 PUSH2 0x1B93 JUMP JUMPDEST PUSH1 0x20 DUP3 ADD SWAP1 POP SWAP2 SWAP1 POP JUMP JUMPDEST PUSH1 0x0 PUSH20 0xFFFFFFFFFFFFFFFFFFFFFFFFFFFFFFFFFFFFFFFF DUP3 AND SWAP1 POP SWAP2 SWAP1 POP JUMP JUMPDEST PUSH1 0x0 PUSH2 0x1C0A DUP3 PUSH2 0x1BDF JUMP JUMPDEST SWAP1 POP SWAP2 SWAP1 POP JUMP JUMPDEST PUSH2 0x1C1A DUP2 PUSH2 0x1BFF JUMP JUMPDEST DUP3 MSTORE POP POP JUMP JUMPDEST PUSH1 0x0 PUSH1 0x40 DUP3 ADD SWAP1 POP DUP2 DUP2 SUB PUSH1 0x0 DUP4 ADD MSTORE PUSH2 0x1C39 DUP2 PUSH2 0x1BBC JUMP JUMPDEST SWAP1 POP PUSH2 0x1C48 PUSH1 0x20 DUP4 ADD DUP5 PUSH2 0x1C11 JUMP JUMPDEST SWAP3 SWAP2 POP POP JUMP JUMPDEST PUSH32 0x526563656976652066616C6C6261636B20746F6B656E00000000000000000000 PUSH1 0x0 DUP3 ADD MSTORE POP JUMP JUMPDEST PUSH1 0x0 PUSH2 0x1C84 PUSH1 0x16 DUP4 PUSH2 0x1B82 JUMP JUMPDEST SWAP2 POP PUSH2 0x1C8F DUP3 PUSH2 0x1C4E JUMP JUMPDEST PUSH1 0x20 DUP3 ADD SWAP1 POP SWAP2 SWAP1 POP JUMP JUMPDEST PUSH1 0x0 PUSH1 0x40 DUP3 ADD SWAP1 POP DUP2 DUP2 SUB PUSH1 0x0 DUP4 ADD MSTORE PUSH2 0x1CB3 DUP2 PUSH2 0x1C77 JUMP JUMPDEST SWAP1 POP PUSH2 0x1CC2 PUSH1 0x20 DUP4 ADD DUP5 PUSH2 0x1C11 JUMP JUMPDEST SWAP3 SWAP2 POP POP JUMP JUMPDEST PUSH1 0x0 PUSH1 0x40 MLOAD SWAP1 POP SWAP1 JUMP JUMPDEST PUSH1 0x0 DUP1 REVERT JUMPDEST PUSH1 0x0 DUP1 REVERT JUMPDEST PUSH2 0x1CE5 DUP2 PUSH2 0x1BFF JUMP JUMPDEST DUP2 EQ PUSH2 0x1CF0 JUMPI PUSH1 0x0 DUP1 REVERT JUMPDEST POP JUMP JUMPDEST PUSH1 0x0 DUP2 CALLDATALOAD SWAP1 POP PUSH2 0x1D02 DUP2 PUSH2 0x1CDC JUMP JUMPDEST SWAP3 SWAP2 POP POP JUMP JUMPDEST PUSH1 0x0 PUSH1 0x20 DUP3 DUP5 SUB SLT ISZERO PUSH2 0x1D1E JUMPI PUSH2 0x1D1D PUSH2 0x1CD2 JUMP JUMPDEST JUMPDEST PUSH1 0x0 PUSH2 0x1D2C DUP5 DUP3 DUP6 ADD PUSH2 0x1CF3 JUMP JUMPDEST SWAP2 POP POP SWAP3 SWAP2 POP POP JUMP JUMPDEST PUSH2 0x1D3E DUP2 PUSH2 0x1BFF JUMP JUMPDEST DUP3 MSTORE POP POP JUMP JUMPDEST PUSH1 0x0 DUP2 SWAP1 POP SWAP2 SWAP1 POP JUMP JUMPDEST PUSH2 0x1D57 DUP2 PUSH2 0x1D44 JUMP JUMPDEST DUP3 MSTORE POP POP JUMP JUMPDEST PUSH1 0x40 DUP3 ADD PUSH1 0x0 DUP3 ADD MLOAD PUSH2 0x1D73 PUSH1 0x0 DUP6 ADD DUP3 PUSH2 0x1D35 JUMP JUMPDEST POP PUSH1 0x20 DUP3 ADD MLOAD PUSH2 0x1D86 PUSH1 0x20 DUP6 ADD DUP3 PUSH2 0x1D4E JUMP JUMPDEST POP POP POP POP JUMP JUMPDEST PUSH1 0x0 PUSH1 0x40 DUP3 ADD SWAP1 POP PUSH2 0x1DA1 PUSH1 0x0 DUP4 ADD DUP5 PUSH2 0x1D5D JUMP JUMPDEST SWAP3 SWAP2 POP POP JUMP JUMPDEST PUSH2 0x1DB0 DUP2 PUSH2 0x1D44 JUMP JUMPDEST DUP2 EQ PUSH2 0x1DBB JUMPI PUSH1 0x0 DUP1 REVERT JUMPDEST POP JUMP JUMPDEST PUSH1 0x0 DUP2 CALLDATALOAD SWAP1 POP PUSH2 0x1DCD DUP2 PUSH2 0x1DA7 JUMP JUMPDEST SWAP3 SWAP2 POP POP JUMP JUMPDEST PUSH1 0x0 PUSH1 0x20 DUP3 DUP5 SUB SLT ISZERO PUSH2 0x1DE9 JUMPI PUSH2 0x1DE8 PUSH2 0x1CD2 JUMP JUMPDEST JUMPDEST PUSH1 0x0 PUSH2 0x1DF7 DUP5 DUP3 DUP6 ADD PUSH2 0x1DBE JUMP JUMPDEST SWAP2 POP POP SWAP3 SWAP2 POP POP JUMP JUMPDEST PUSH1 0x0 PUSH4 0xFFFFFFFF DUP3 AND SWAP1 POP SWAP2 SWAP1 POP JUMP JUMPDEST PUSH2 0x1E19 DUP2 PUSH2 0x1E00 JUMP JUMPDEST DUP2 EQ PUSH2 0x1E24 JUMPI PUSH1 0x0 DUP1 REVERT JUMPDEST POP JUMP JUMPDEST PUSH1 0x0 DUP2 CALLDATALOAD SWAP1 POP PUSH2 0x1E36 DUP2 PUSH2 0x1E10 JUMP JUMPDEST SWAP3 SWAP2 POP POP JUMP JUMPDEST PUSH1 0x0 DUP1 REVERT JUMPDEST PUSH1 0x0 DUP1 REVERT JUMPDEST PUSH1 0x0 PUSH1 0x1F NOT PUSH1 0x1F DUP4 ADD AND SWAP1 POP SWAP2 SWAP1 POP JUMP JUMPDEST PUSH32 0x4E487B7100000000000000000000000000000000000000000000000000000000 PUSH1 0x0 MSTORE PUSH1 0x41 PUSH1 0x4 MSTORE PUSH1 0x24 PUSH1 0x0 REVERT JUMPDEST PUSH2 0x1E8F DUP3 PUSH2 0x1E46 JUMP JUMPDEST DUP2 ADD DUP2 DUP2 LT PUSH8 0xFFFFFFFFFFFFFFFF DUP3 GT OR ISZERO PUSH2 0x1EAE JUMPI PUSH2 0x1EAD PUSH2 0x1E57 JUMP JUMPDEST JUMPDEST DUP1 PUSH1 0x40 MSTORE POP POP POP JUMP JUMPDEST PUSH1 0x0 PUSH2 0x1EC1 PUSH2 0x1CC8 JUMP JUMPDEST SWAP1 POP PUSH2 0x1ECD DUP3 DUP3 PUSH2 0x1E86 JUMP JUMPDEST SWAP2 SWAP1 POP JUMP JUMPDEST PUSH1 0x0 PUSH8 0xFFFFFFFFFFFFFFFF DUP3 GT ISZERO PUSH2 0x1EED JUMPI PUSH2 0x1EEC PUSH2 0x1E57 JUMP JUMPDEST JUMPDEST PUSH2 0x1EF6 DUP3 PUSH2 0x1E46 JUMP JUMPDEST SWAP1 POP PUSH1 0x20 DUP2 ADD SWAP1 POP SWAP2 SWAP1 POP JUMP JUMPDEST DUP3 DUP2 DUP4 CALLDATACOPY PUSH1 0x0 DUP4 DUP4 ADD MSTORE POP POP POP JUMP JUMPDEST PUSH1 0x0 PUSH2 0x1F25 PUSH2 0x1F20 DUP5 PUSH2 0x1ED2 JUMP JUMPDEST PUSH2 0x1EB7 JUMP JUMPDEST SWAP1 POP DUP3 DUP2 MSTORE PUSH1 0x20 DUP2 ADD DUP5 DUP5 DUP5 ADD GT ISZERO PUSH2 0x1F41 JUMPI PUSH2 0x1F40 PUSH2 0x1E41 JUMP JUMPDEST JUMPDEST PUSH2 0x1F4C DUP5 DUP3 DUP6 PUSH2 0x1F03 JUMP JUMPDEST POP SWAP4 SWAP3 POP POP POP JUMP JUMPDEST PUSH1 0x0 DUP3 PUSH1 0x1F DUP4 ADD SLT PUSH2 0x1F69 JUMPI PUSH2 0x1F68 PUSH2 0x1E3C JUMP JUMPDEST JUMPDEST DUP2 CALLDATALOAD PUSH2 0x1F79 DUP5 DUP3 PUSH1 0x20 DUP7 ADD PUSH2 0x1F12 JUMP JUMPDEST SWAP2 POP POP SWAP3 SWAP2 POP POP JUMP JUMPDEST PUSH1 0x0 PUSH8 0xFFFFFFFFFFFFFFFF DUP3 GT ISZERO PUSH2 0x1F9D JUMPI PUSH2 0x1F9C PUSH2 0x1E57 JUMP JUMPDEST JUMPDEST PUSH1 0x20 DUP3 MUL SWAP1 POP PUSH1 0x20 DUP2 ADD SWAP1 POP SWAP2 SWAP1 POP JUMP JUMPDEST PUSH1 0x0 DUP1 REVERT JUMPDEST PUSH1 0x0 DUP1 REVERT JUMPDEST PUSH1 0x0 DUP1 REVERT JUMPDEST PUSH1 0x0 PUSH1 0x40 DUP3 DUP5 SUB SLT ISZERO PUSH2 0x1FD3 JUMPI PUSH2 0x1FD2 PUSH2 0x1FB3 JUMP JUMPDEST JUMPDEST PUSH2 0x1FDD PUSH1 0x40 PUSH2 0x1EB7 JUMP JUMPDEST SWAP1 POP PUSH1 0x0 DUP3 ADD CALLDATALOAD PUSH8 0xFFFFFFFFFFFFFFFF DUP2 GT ISZERO PUSH2 0x1FFD JUMPI PUSH2 0x1FFC PUSH2 0x1FB8 JUMP JUMPDEST JUMPDEST PUSH2 0x2009 DUP5 DUP3 DUP6 ADD PUSH2 0x1F54 JUMP JUMPDEST PUSH1 0x0 DUP4 ADD MSTORE POP PUSH1 0x20 DUP3 ADD CALLDATALOAD PUSH8 0xFFFFFFFFFFFFFFFF DUP2 GT ISZERO PUSH2 0x202D JUMPI PUSH2 0x202C PUSH2 0x1FB8 JUMP JUMPDEST JUMPDEST PUSH2 0x2039 DUP5 DUP3 DUP6 ADD PUSH2 0x1F54 JUMP JUMPDEST PUSH1 0x20 DUP4 ADD MSTORE POP SWAP3 SWAP2 POP POP JUMP JUMPDEST PUSH1 0x0 PUSH2 0x2058 PUSH2 0x2053 DUP5 PUSH2 0x1F82 JUMP JUMPDEST PUSH2 0x1EB7 JUMP JUMPDEST SWAP1 POP DUP1 DUP4 DUP3 MSTORE PUSH1 0x20 DUP3 ADD SWAP1 POP PUSH1 0x20 DUP5 MUL DUP4 ADD DUP6 DUP2 GT ISZERO PUSH2 0x207B JUMPI PUSH2 0x207A PUSH2 0x1FAE JUMP JUMPDEST JUMPDEST DUP4 JUMPDEST DUP2 DUP2 LT ISZERO PUSH2 0x20C2 JUMPI DUP1 CALLDATALOAD PUSH8 0xFFFFFFFFFFFFFFFF DUP2 GT ISZERO PUSH2 0x20A0 JUMPI PUSH2 0x209F PUSH2 0x1E3C JUMP JUMPDEST JUMPDEST DUP1 DUP7 ADD PUSH2 0x20AD DUP10 DUP3 PUSH2 0x1FBD JUMP JUMPDEST DUP6 MSTORE PUSH1 0x20 DUP6 ADD SWAP5 POP POP POP PUSH1 0x20 DUP2 ADD SWAP1 POP PUSH2 0x207D JUMP JUMPDEST POP POP POP SWAP4 SWAP3 POP POP POP JUMP JUMPDEST PUSH1 0x0 DUP3 PUSH1 0x1F DUP4 ADD SLT PUSH2 0x20E1 JUMPI PUSH2 0x20E0 PUSH2 0x1E3C JUMP JUMPDEST JUMPDEST DUP2 CALLDATALOAD PUSH2 0x20F1 DUP5 DUP3 PUSH1 0x20 DUP7 ADD PUSH2 0x2045 JUMP JUMPDEST SWAP2 POP POP SWAP3 SWAP2 POP POP JUMP JUMPDEST PUSH1 0x0 DUP1 PUSH1 0x0 DUP1 PUSH1 0x0 DUP1 PUSH1 0x0 DUP1 PUSH1 0x0 PUSH2 0x120 DUP11 DUP13 SUB SLT ISZERO PUSH2 0x211D JUMPI PUSH2 0x211C PUSH2 0x1CD2 JUMP JUMPDEST JUMPDEST PUSH1 0x0 PUSH2 0x212B DUP13 DUP3 DUP14 ADD PUSH2 0x1DBE JUMP JUMPDEST SWAP10 POP POP PUSH1 0x20 PUSH2 0x213C DUP13 DUP3 DUP14 ADD PUSH2 0x1CF3 JUMP JUMPDEST SWAP9 POP POP PUSH1 0x40 PUSH2 0x214D DUP13 DUP3 DUP14 ADD PUSH2 0x1CF3 JUMP JUMPDEST SWAP8 POP POP PUSH1 0x60 PUSH2 0x215E DUP13 DUP3 DUP14 ADD PUSH2 0x1DBE JUMP JUMPDEST SWAP7 POP POP PUSH1 0x80 PUSH2 0x216F DUP13 DUP3 DUP14 ADD PUSH2 0x1E27 JUMP JUMPDEST SWAP6 POP POP PUSH1 0xA0 PUSH2 0x2180 DUP13 DUP3 DUP14 ADD PUSH2 0x1E27 JUMP JUMPDEST SWAP5 POP POP PUSH1 0xC0 PUSH2 0x2191 DUP13 DUP3 DUP14 ADD PUSH2 0x1E27 JUMP JUMPDEST SWAP4 POP POP PUSH1 0xE0 DUP11 ADD CALLDATALOAD PUSH8 0xFFFFFFFFFFFFFFFF DUP2 GT ISZERO PUSH2 0x21B2 JUMPI PUSH2 0x21B1 PUSH2 0x1CD7 JUMP JUMPDEST JUMPDEST PUSH2 0x21BE DUP13 DUP3 DUP14 ADD PUSH2 0x1F54 JUMP JUMPDEST SWAP3 POP POP PUSH2 0x100 DUP11 ADD CALLDATALOAD PUSH8 0xFFFFFFFFFFFFFFFF DUP2 GT ISZERO PUSH2 0x21E0 JUMPI PUSH2 0x21DF PUSH2 0x1CD7 JUMP JUMPDEST JUMPDEST PUSH2 0x21EC DUP13 DUP3 DUP14 ADD PUSH2 0x20CC JUMP JUMPDEST SWAP2 POP POP SWAP3 SWAP6 SWAP9 POP SWAP3 SWAP6 SWAP9 POP SWAP3 SWAP6 SWAP9 JUMP JUMPDEST PUSH2 0x2205 DUP2 PUSH2 0x1D44 JUMP JUMPDEST DUP3 MSTORE POP POP JUMP JUMPDEST PUSH1 0x0 PUSH1 0x20 DUP3 ADD SWAP1 POP PUSH2 0x2220 PUSH1 0x0 DUP4 ADD DUP5 PUSH2 0x21FC JUMP JUMPDEST SWAP3 SWAP2 POP POP JUMP JUMPDEST PUSH1 0x0 PUSH2 0x2231 DUP3 PUSH2 0x1BDF JUMP JUMPDEST SWAP1 POP SWAP2 SWAP1 POP JUMP JUMPDEST PUSH2 0x2241 DUP2 PUSH2 0x2226 JUMP JUMPDEST DUP3 MSTORE POP POP JUMP JUMPDEST PUSH2 0x2250 DUP2 PUSH2 0x1E00 JUMP JUMPDEST DUP3 MSTORE POP POP JUMP JUMPDEST PUSH1 0x0 DUP2 MLOAD SWAP1 POP SWAP2 SWAP1 POP JUMP JUMPDEST PUSH1 0x0 DUP3 DUP3 MSTORE PUSH1 0x20 DUP3 ADD SWAP1 POP SWAP3 SWAP2 POP POP JUMP JUMPDEST PUSH1 0x0 JUMPDEST DUP4 DUP2 LT ISZERO PUSH2 0x2290 JUMPI DUP1 DUP3 ADD MLOAD DUP2 DUP5 ADD MSTORE PUSH1 0x20 DUP2 ADD SWAP1 POP PUSH2 0x2275 JUMP JUMPDEST PUSH1 0x0 DUP5 DUP5 ADD MSTORE POP POP POP POP JUMP JUMPDEST PUSH1 0x0 PUSH2 0x22A7 DUP3 PUSH2 0x2256 JUMP JUMPDEST PUSH2 0x22B1 DUP2 DUP6 PUSH2 0x2261 JUMP JUMPDEST SWAP4 POP PUSH2 0x22C1 DUP2 DUP6 PUSH1 0x20 DUP7 ADD PUSH2 0x2272 JUMP JUMPDEST PUSH2 0x22CA DUP2 PUSH2 0x1E46 JUMP JUMPDEST DUP5 ADD SWAP2 POP POP SWAP3 SWAP2 POP POP JUMP JUMPDEST PUSH1 0x0 DUP2 MLOAD SWAP1 POP SWAP2 SWAP1 POP JUMP JUMPDEST PUSH1 0x0 DUP3 DUP3 MSTORE PUSH1 0x20 DUP3 ADD SWAP1 POP SWAP3 SWAP2 POP POP JUMP JUMPDEST PUSH1 0x0 DUP2 SWAP1 POP PUSH1 0x20 DUP3 ADD SWAP1 POP SWAP2 SWAP1 POP JUMP JUMPDEST PUSH1 0x0 PUSH1 0x40 DUP4 ADD PUSH1 0x0 DUP4 ADD MLOAD DUP5 DUP3 SUB PUSH1 0x0 DUP7 ADD MSTORE PUSH2 0x231E DUP3 DUP3 PUSH2 0x229C JUMP JUMPDEST SWAP2 POP POP PUSH1 0x20 DUP4 ADD MLOAD DUP5 DUP3 SUB PUSH1 0x20 DUP7 ADD MSTORE PUSH2 0x2338 DUP3 DUP3 PUSH2 0x229C JUMP JUMPDEST SWAP2 POP POP DUP1 SWAP2 POP POP SWAP3 SWAP2 POP POP JUMP JUMPDEST PUSH1 0x0 PUSH2 0x2351 DUP4 DUP4 PUSH2 0x2301 JUMP JUMPDEST SWAP1 POP SWAP3 SWAP2 POP POP JUMP JUMPDEST PUSH1 0x0 PUSH1 0x20 DUP3 ADD SWAP1 POP SWAP2 SWAP1 POP JUMP JUMPDEST PUSH1 0x0 PUSH2 0x2371 DUP3 PUSH2 0x22D5 JUMP JUMPDEST PUSH2 0x237B DUP2 DUP6 PUSH2 0x22E0 JUMP JUMPDEST SWAP4 POP DUP4 PUSH1 0x20 DUP3 MUL DUP6 ADD PUSH2 0x238D DUP6 PUSH2 0x22F1 JUMP JUMPDEST DUP1 PUSH1 0x0 JUMPDEST DUP6 DUP2 LT ISZERO PUSH2 0x23C9 JUMPI DUP5 DUP5 SUB DUP10 MSTORE DUP2 MLOAD PUSH2 0x23AA DUP6 DUP3 PUSH2 0x2345 JUMP JUMPDEST SWAP5 POP PUSH2 0x23B5 DUP4 PUSH2 0x2359 JUMP JUMPDEST SWAP3 POP PUSH1 0x20 DUP11 ADD SWAP10 POP POP PUSH1 0x1 DUP2 ADD SWAP1 POP PUSH2 0x2391 JUMP JUMPDEST POP DUP3 SWAP8 POP DUP8 SWAP6 POP POP POP POP POP POP SWAP3 SWAP2 POP POP JUMP JUMPDEST PUSH1 0x0 PUSH2 0x120 DUP4 ADD PUSH1 0x0 DUP4 ADD MLOAD PUSH2 0x23F4 PUSH1 0x0 DUP7 ADD DUP3 PUSH2 0x1D4E JUMP JUMPDEST POP PUSH1 0x20 DUP4 ADD MLOAD PUSH2 0x2407 PUSH1 0x20 DUP7 ADD DUP3 PUSH2 0x2238 JUMP JUMPDEST POP PUSH1 0x40 DUP4 ADD MLOAD PUSH2 0x241A PUSH1 0x40 DUP7 ADD DUP3 PUSH2 0x2238 JUMP JUMPDEST POP PUSH1 0x60 DUP4 ADD MLOAD PUSH2 0x242D PUSH1 0x60 DUP7 ADD DUP3 PUSH2 0x1D4E JUMP JUMPDEST POP PUSH1 0x80 DUP4 ADD MLOAD PUSH2 0x2440 PUSH1 0x80 DUP7 ADD DUP3 PUSH2 0x2247 JUMP JUMPDEST POP PUSH1 0xA0 DUP4 ADD MLOAD PUSH2 0x2453 PUSH1 0xA0 DUP7 ADD DUP3 PUSH2 0x2247 JUMP JUMPDEST POP PUSH1 0xC0 DUP4 ADD MLOAD PUSH2 0x2466 PUSH1 0xC0 DUP7 ADD DUP3 PUSH2 0x2247 JUMP JUMPDEST POP PUSH1 0xE0 DUP4 ADD MLOAD DUP5 DUP3 SUB PUSH1 0xE0 DUP7 ADD MSTORE PUSH2 0x247E DUP3 DUP3 PUSH2 0x229C JUMP JUMPDEST SWAP2 POP POP PUSH2 0x100 DUP4 ADD MLOAD DUP5 DUP3 SUB PUSH2 0x100 DUP7 ADD MSTORE PUSH2 0x249A DUP3 DUP3 PUSH2 0x2366 JUMP JUMPDEST SWAP2 POP POP DUP1 SWAP2 POP POP SWAP3 SWAP2 POP POP JUMP JUMPDEST PUSH1 0x0 PUSH1 0x20 DUP3 ADD SWAP1 POP DUP2 DUP2 SUB PUSH1 0x0 DUP4 ADD MSTORE PUSH2 0x24C1 DUP2 DUP5 PUSH2 0x23DB JUMP JUMPDEST SWAP1 POP SWAP3 SWAP2 POP POP JUMP JUMPDEST PUSH1 0x0 PUSH1 0x20 DUP3 ADD SWAP1 POP PUSH2 0x24DE PUSH1 0x0 DUP4 ADD DUP5 PUSH2 0x1C11 JUMP JUMPDEST SWAP3 SWAP2 POP POP JUMP JUMPDEST PUSH32 0x4E487B7100000000000000000000000000000000000000000000000000000000 PUSH1 0x0 MSTORE PUSH1 0x11 PUSH1 0x4 MSTORE PUSH1 0x24 PUSH1 0x0 REVERT JUMPDEST PUSH1 0x0 PUSH2 0x251E DUP3 PUSH2 0x1D44 JUMP JUMPDEST SWAP2 POP PUSH2 0x2529 DUP4 PUSH2 0x1D44 JUMP JUMPDEST SWAP3 POP DUP3 DUP3 ADD SWAP1 POP DUP1 DUP3 GT ISZERO PUSH2 0x2541 JUMPI PUSH2 0x2540 PUSH2 0x24E4 JUMP JUMPDEST JUMPDEST SWAP3 SWAP2 POP POP JUMP JUMPDEST PUSH32 0x4E487B7100000000000000000000000000000000000000000000000000000000 PUSH1 0x0 MSTORE PUSH1 0x22 PUSH1 0x4 MSTORE PUSH1 0x24 PUSH1 0x0 REVERT JUMPDEST PUSH1 0x0 PUSH1 0x2 DUP3 DIV SWAP1 POP PUSH1 0x1 DUP3 AND DUP1 PUSH2 0x258E JUMPI PUSH1 0x7F DUP3 AND SWAP2 POP JUMPDEST PUSH1 0x20 DUP3 LT DUP2 SUB PUSH2 0x25A1 JUMPI PUSH2 0x25A0 PUSH2 0x2547 JUMP JUMPDEST JUMPDEST POP SWAP2 SWAP1 POP JUMP JUMPDEST PUSH32 0x52656E74657220696E73756666696369656E742062616C616E63650000000000 PUSH1 0x0 DUP3 ADD MSTORE POP JUMP JUMPDEST PUSH1 0x0 PUSH2 0x25DD PUSH1 0x1B DUP4 PUSH2 0x1B82 JUMP JUMPDEST SWAP2 POP PUSH2 0x25E8 DUP3 PUSH2 0x25A7 JUMP JUMPDEST PUSH1 0x20 DUP3 ADD SWAP1 POP SWAP2 SWAP1 POP JUMP JUMPDEST PUSH1 0x0 PUSH1 0x20 DUP3 ADD SWAP1 POP DUP2 DUP2 SUB PUSH1 0x0 DUP4 ADD MSTORE PUSH2 0x260C DUP2 PUSH2 0x25D0 JUMP JUMPDEST SWAP1 POP SWAP2 SWAP1 POP JUMP JUMPDEST PUSH1 0x0 PUSH2 0x261E DUP3 PUSH2 0x1D44 JUMP JUMPDEST SWAP2 POP PUSH2 0x2629 DUP4 PUSH2 0x1D44 JUMP JUMPDEST SWAP3 POP DUP3 DUP3 SUB SWAP1 POP DUP2 DUP2 GT ISZERO PUSH2 0x2641 JUMPI PUSH2 0x2640 PUSH2 0x24E4 JUMP JUMPDEST JUMPDEST SWAP3 SWAP2 POP POP JUMP JUMPDEST PUSH32 0x496E73756666696369656E742062616C616E6365000000000000000000000000 PUSH1 0x0 DUP3 ADD MSTORE POP JUMP JUMPDEST PUSH1 0x0 PUSH2 0x267D PUSH1 0x14 DUP4 PUSH2 0x1B82 JUMP JUMPDEST SWAP2 POP PUSH2 0x2688 DUP3 PUSH2 0x2647 JUMP JUMPDEST PUSH1 0x20 DUP3 ADD SWAP1 POP SWAP2 SWAP1 POP JUMP JUMPDEST PUSH1 0x0 PUSH1 0x20 DUP3 ADD SWAP1 POP DUP2 DUP2 SUB PUSH1 0x0 DUP4 ADD MSTORE PUSH2 0x26AC DUP2 PUSH2 0x2670 JUMP JUMPDEST SWAP1 POP SWAP2 SWAP1 POP JUMP JUMPDEST PUSH1 0x0 DUP2 SWAP1 POP DUP2 PUSH1 0x0 MSTORE PUSH1 0x20 PUSH1 0x0 KECCAK256 SWAP1 POP SWAP2 SWAP1 POP JUMP JUMPDEST PUSH1 0x0 PUSH1 0x20 PUSH1 0x1F DUP4 ADD DIV SWAP1 POP SWAP2 SWAP1 POP JUMP JUMPDEST PUSH1 0x0 DUP3 DUP3 SHL SWAP1 POP SWAP3 SWAP2 POP POP JUMP JUMPDEST PUSH1 0x0 PUSH1 0x8 DUP4 MUL PUSH2 0x2715 PUSH32 0xFFFFFFFFFFFFFFFFFFFFFFFFFFFFFFFFFFFFFFFFFFFFFFFFFFFFFFFFFFFFFFFF DUP3 PUSH2 0x26D8 JUMP JUMPDEST PUSH2 0x271F DUP7 DUP4 PUSH2 0x26D8 JUMP JUMPDEST SWAP6 POP DUP1 NOT DUP5 AND SWAP4 POP DUP1 DUP7 AND DUP5 OR SWAP3 POP POP POP SWAP4 SWAP3 POP POP POP JUMP JUMPDEST PUSH1 0x0 DUP2 SWAP1 POP SWAP2 SWAP1 POP JUMP JUMPDEST PUSH1 0x0 PUSH2 0x275C PUSH2 0x2757 PUSH2 0x2752 DUP5 PUSH2 0x1D44 JUMP JUMPDEST PUSH2 0x2737 JUMP JUMPDEST PUSH2 0x1D44 JUMP JUMPDEST SWAP1 POP SWAP2 SWAP1 POP JUMP JUMPDEST PUSH1 0x0 DUP2 SWAP1 POP SWAP2 SWAP1 POP JUMP JUMPDEST PUSH2 0x2776 DUP4 PUSH2 0x2741 JUMP JUMPDEST PUSH2 0x278A PUSH2 0x2782 DUP3 PUSH2 0x2763 JUMP JUMPDEST DUP5 DUP5 SLOAD PUSH2 0x26E5 JUMP JUMPDEST DUP3 SSTORE POP POP POP POP JUMP JUMPDEST PUSH1 0x0 SWAP1 JUMP JUMPDEST PUSH2 0x279F PUSH2 0x2792 JUMP JUMPDEST PUSH2 0x27AA DUP2 DUP5 DUP5 PUSH2 0x276D JUMP JUMPDEST POP POP POP JUMP JUMPDEST JUMPDEST DUP2 DUP2 LT ISZERO PUSH2 0x27CE JUMPI PUSH2 0x27C3 PUSH1 0x0 DUP3 PUSH2 0x2797 JUMP JUMPDEST PUSH1 0x1 DUP2 ADD SWAP1 POP PUSH2 0x27B0 JUMP JUMPDEST POP POP JUMP JUMPDEST PUSH1 0x1F DUP3 GT ISZERO PUSH2 0x2813 JUMPI PUSH2 0x27E4 DUP2 PUSH2 0x26B3 JUMP JUMPDEST PUSH2 0x27ED DUP5 PUSH2 0x26C8 JUMP JUMPDEST DUP2 ADD PUSH1 0x20 DUP6 LT ISZERO PUSH2 0x27FC JUMPI DUP2 SWAP1 POP JUMPDEST PUSH2 0x2810 PUSH2 0x2808 DUP6 PUSH2 0x26C8 JUMP JUMPDEST DUP4 ADD DUP3 PUSH2 0x27AF JUMP JUMPDEST POP POP JUMPDEST POP POP POP JUMP JUMPDEST PUSH1 0x0 DUP3 DUP3 SHR SWAP1 POP SWAP3 SWAP2 POP POP JUMP JUMPDEST PUSH1 0x0 PUSH2 0x2836 PUSH1 0x0 NOT DUP5 PUSH1 0x8 MUL PUSH2 0x2818 JUMP JUMPDEST NOT DUP1 DUP4 AND SWAP2 POP POP SWAP3 SWAP2 POP POP JUMP JUMPDEST PUSH1 0x0 PUSH2 0x284F DUP4 DUP4 PUSH2 0x2825 JUMP JUMPDEST SWAP2 POP DUP3 PUSH1 0x2 MUL DUP3 OR SWAP1 POP SWAP3 SWAP2 POP POP JUMP JUMPDEST PUSH2 0x2868 DUP3 PUSH2 0x2256 JUMP JUMPDEST PUSH8 0xFFFFFFFFFFFFFFFF DUP2 GT ISZERO PUSH2 0x2881 JUMPI PUSH2 0x2880 PUSH2 0x1E57 JUMP JUMPDEST JUMPDEST PUSH2 0x288B DUP3 SLOAD PUSH2 0x2576 JUMP JUMPDEST PUSH2 0x2896 DUP3 DUP3 DUP6 PUSH2 0x27D2 JUMP JUMPDEST PUSH1 0x0 PUSH1 0x20 SWAP1 POP PUSH1 0x1F DUP4 GT PUSH1 0x1 DUP2 EQ PUSH2 0x28C9 JUMPI PUSH1 0x0 DUP5 ISZERO PUSH2 0x28B7 JUMPI DUP3 DUP8 ADD MLOAD SWAP1 POP JUMPDEST PUSH2 0x28C1 DUP6 DUP3 PUSH2 0x2843 JUMP JUMPDEST DUP7 SSTORE POP PUSH2 0x2929 JUMP JUMPDEST PUSH1 0x1F NOT DUP5 AND PUSH2 0x28D7 DUP7 PUSH2 0x26B3 JUMP JUMPDEST PUSH1 0x0 JUMPDEST DUP3 DUP2 LT ISZERO PUSH2 0x28FF JUMPI DUP5 DUP10 ADD MLOAD DUP3 SSTORE PUSH1 0x1 DUP3 ADD SWAP2 POP PUSH1 0x20 DUP6 ADD SWAP5 POP PUSH1 0x20 DUP2 ADD SWAP1 POP PUSH2 0x28DA JUMP JUMPDEST DUP7 DUP4 LT ISZERO PUSH2 0x291C JUMPI DUP5 DUP10 ADD MLOAD PUSH2 0x2918 PUSH1 0x1F DUP10 AND DUP3 PUSH2 0x2825 JUMP JUMPDEST DUP4 SSTORE POP JUMPDEST PUSH1 0x1 PUSH1 0x2 DUP9 MUL ADD DUP9 SSTORE POP POP POP JUMPDEST POP POP POP POP POP POP JUMP JUMPDEST PUSH32 0x4E487B7100000000000000000000000000000000000000000000000000000000 PUSH1 0x0 MSTORE PUSH1 0x32 PUSH1 0x4 MSTORE PUSH1 0x24 PUSH1 0x0 REVERT JUMPDEST PUSH1 0x0 PUSH2 0x296B DUP3 PUSH2 0x1D44 JUMP JUMPDEST SWAP2 POP PUSH32 0xFFFFFFFFFFFFFFFFFFFFFFFFFFFFFFFFFFFFFFFFFFFFFFFFFFFFFFFFFFFFFFFF DUP3 SUB PUSH2 0x299D JUMPI PUSH2 0x299C PUSH2 0x24E4 JUMP JUMPDEST JUMPDEST PUSH1 0x1 DUP3 ADD SWAP1 POP SWAP2 SWAP1 POP JUMP JUMPDEST PUSH1 0x0 DUP2 SLOAD SWAP1 POP PUSH2 0x29B7 DUP2 PUSH2 0x2576 JUMP JUMPDEST SWAP1 POP SWAP2 SWAP1 POP JUMP JUMPDEST DUP2 DUP2 SUB PUSH2 0x29CC JUMPI POP POP PUSH2 0x2AA4 JUMP JUMPDEST PUSH2 0x29D5 DUP3 PUSH2 0x29A8 JUMP JUMPDEST PUSH8 0xFFFFFFFFFFFFFFFF DUP2 GT ISZERO PUSH2 0x29EE JUMPI PUSH2 0x29ED PUSH2 0x1E57 JUMP JUMPDEST JUMPDEST PUSH2 0x29F8 DUP3 SLOAD PUSH2 0x2576 JUMP JUMPDEST PUSH2 0x2A03 DUP3 DUP3 DUP6 PUSH2 0x27D2 JUMP JUMPDEST PUSH1 0x0 PUSH1 0x1F DUP4 GT PUSH1 0x1 DUP2 EQ PUSH2 0x2A32 JUMPI PUSH1 0x0 DUP5 ISZERO PUSH2 0x2A20 JUMPI DUP3 DUP8 ADD SLOAD SWAP1 POP JUMPDEST PUSH2 0x2A2A DUP6 DUP3 PUSH2 0x2843 JUMP JUMPDEST DUP7 SSTORE POP PUSH2 0x2A9D JUMP JUMPDEST PUSH1 0x1F NOT DUP5 AND PUSH2 0x2A40 DUP8 PUSH2 0x26B3 JUMP JUMPDEST SWAP7 POP PUSH2 0x2A4B DUP7 PUSH2 0x26B3 JUMP JUMPDEST PUSH1 0x0 JUMPDEST DUP3 DUP2 LT ISZERO PUSH2 0x2A73 JUMPI DUP5 DUP10 ADD SLOAD DUP3 SSTORE PUSH1 0x1 DUP3 ADD SWAP2 POP PUSH1 0x1 DUP6 ADD SWAP5 POP PUSH1 0x20 DUP2 ADD SWAP1 POP PUSH2 0x2A4E JUMP JUMPDEST DUP7 DUP4 LT ISZERO PUSH2 0x2A90 JUMPI DUP5 DUP10 ADD SLOAD PUSH2 0x2A8C PUSH1 0x1F DUP10 AND DUP3 PUSH2 0x2825 JUMP JUMPDEST DUP4 SSTORE POP JUMPDEST PUSH1 0x1 PUSH1 0x2 DUP9 MUL ADD DUP9 SSTORE POP POP POP JUMPDEST POP POP POP POP POP POP JUMPDEST JUMP INVALID LOG2 PUSH5 0x6970667358 0x22 SLT KECCAK256 GAS PUSH2 0xF319 LOG4 OR 0xCB 0xC6 PUSH19 0xA5877D05BA7F0B89F81771DAA404EBF8BE9EA8 MSTORE PUSH5 0xBDD364736F PUSH13 0x63430008140033000000000000 "},"methodIdentifiers":{"close(address)":"c74073a1","createSmartContract(uint256,address,address,uint256,uint32,uint32,uint32,string,(string,string)[])":"6da80b7f","getAddressContract()":"f8aff5f4","getContractBalance()":"6f9fb98a","getPersonByAddress(address)":"43210e78","getSmartContractById(uint256)":"c85d1487","transferETH(uint256)":"4329db46"}}}}}