{
  "_format": "hh-sol-artifact-1",
  "contractName": "SmartContract",
  "sourceName": "contracts/contractApi.sol",
  "abi": [
    {
      "inputs": [],
      "stateMutability": "payable",
      "type": "constructor"
    },
    {
      "anonymous": false,
      "inputs": [
        {
          "indexed": false,
          "internalType": "string",
          "name": "message",
          "type": "string"
        },
        {
          "indexed": false,
          "internalType": "address",
          "name": "_address",
          "type": "address"
        }
      ],
      "name": "log",
      "type": "event"
    },
    {
      "stateMutability": "payable",
      "type": "fallback"
    },
    {
      "inputs": [
        {
          "internalType": "address",
          "name": "_to",
          "type": "address"
        }
      ],
      "name": "close",
      "outputs": [],
      "stateMutability": "nonpayable",
      "type": "function"
    },
    {
      "inputs": [
        {
          "internalType": "uint256",
          "name": "_id",
          "type": "uint256"
        },
        {
          "internalType": "address",
          "name": "_renterAddress",
          "type": "address"
        },
        {
          "internalType": "address",
          "name": "_sellerAdsress",
          "type": "address"
        },
        {
          "internalType": "uint256",
          "name": "_rentCost",
          "type": "uint256"
        },
        {
          "internalType": "uint32",
          "name": "_duration",
          "type": "uint32"
        },
        {
          "internalType": "uint32",
          "name": "_timeStart",
          "type": "uint32"
        },
        {
          "internalType": "uint32",
          "name": "_paymentDeadline",
          "type": "uint32"
        },
        {
          "internalType": "string",
          "name": "_payment_type",
          "type": "string"
        },
        {
          "components": [
            {
              "internalType": "string",
              "name": "name",
              "type": "string"
            },
            {
              "internalType": "string",
              "name": "content",
              "type": "string"
            }
          ],
          "internalType": "struct SmartContract.Term[]",
          "name": "_termArray",
          "type": "tuple[]"
        }
      ],
      "name": "createSmartContract",
      "outputs": [],
      "stateMutability": "nonpayable",
      "type": "function"
    },
    {
      "inputs": [],
      "name": "getAddressContract",
      "outputs": [
        {
          "internalType": "address",
          "name": "",
          "type": "address"
        }
      ],
      "stateMutability": "view",
      "type": "function"
    },
    {
      "inputs": [],
      "name": "getContractBalance",
      "outputs": [
        {
          "internalType": "uint256",
          "name": "",
          "type": "uint256"
        }
      ],
      "stateMutability": "view",
      "type": "function"
    },
    {
      "inputs": [
        {
          "internalType": "address",
          "name": "addressWallet",
          "type": "address"
        }
      ],
      "name": "getPersonByAddress",
      "outputs": [
        {
          "components": [
            {
              "internalType": "address",
              "name": "addressWallet",
              "type": "address"
            },
            {
              "internalType": "uint256",
              "name": "balance",
              "type": "uint256"
            }
          ],
          "internalType": "struct SmartContract.Person",
          "name": "",
          "type": "tuple"
        }
      ],
      "stateMutability": "view",
      "type": "function"
    },
    {
      "inputs": [
        {
          "internalType": "uint256",
          "name": "_id",
          "type": "uint256"
        }
      ],
      "name": "getSmartContractById",
      "outputs": [
        {
          "components": [
            {
              "internalType": "uint256",
              "name": "id",
              "type": "uint256"
            },
            {
              "internalType": "address payable",
              "name": "renter",
              "type": "address"
            },
            {
              "internalType": "address payable",
              "name": "seller",
              "type": "address"
            },
            {
              "internalType": "uint256",
              "name": "rentCost",
              "type": "uint256"
            },
            {
              "internalType": "uint32",
              "name": "duration",
              "type": "uint32"
            },
            {
              "internalType": "uint32",
              "name": "timeStart",
              "type": "uint32"
            },
            {
              "internalType": "uint32",
              "name": "paymentDeadline",
              "type": "uint32"
            },
            {
              "internalType": "string",
              "name": "payment_type",
              "type": "string"
            },
            {
              "components": [
                {
                  "internalType": "string",
                  "name": "name",
                  "type": "string"
                },
                {
                  "internalType": "string",
                  "name": "content",
                  "type": "string"
                }
              ],
              "internalType": "struct SmartContract.Term[]",
              "name": "termArray",
              "type": "tuple[]"
            }
          ],
          "internalType": "struct SmartContract.ContractEntity",
          "name": "",
          "type": "tuple"
        }
      ],
      "stateMutability": "view",
      "type": "function"
    },
    {
      "inputs": [
        {
          "internalType": "uint256",
          "name": "contractId",
          "type": "uint256"
        }
      ],
      "name": "transferETH",
      "outputs": [],
      "stateMutability": "payable",
      "type": "function"
    },
    {
      "stateMutability": "payable",
      "type": "receive"
    }
  ],
  "bytecode": "0x608060405233600260006101000a81548173ffffffffffffffffffffffffffffffffffffffff021916908373ffffffffffffffffffffffffffffffffffffffff1602179055506124c1806100546000396000f3fe6080604052600436106100745760003560e01c80636f9fb98a1161004e5780636f9fb98a14610181578063c74073a1146101ac578063c85d1487146101d5578063f8aff5f414610212576100bc565b806343210e78146100ff5780634329db461461013c5780636da80b7f14610158576100bc565b366100bc577f319af333460570a1937bf195dd33445c0d0951c59127da6f1f038b9fdce3fd72336040516100a89190611605565b60405180910390a16100ba333461023d565b005b7f319af333460570a1937bf195dd33445c0d0951c59127da6f1f038b9fdce3fd72336040516100eb919061167f565b60405180910390a16100fd333461023d565b005b34801561010b57600080fd5b50610126600480360381019061012191906116ed565b6103fa565b6040516101339190611771565b60405180910390f35b610156600480360381019061015191906117b8565b6104b3565b005b34801561016457600080fd5b5061017f600480360381019061017a9190611adf565b610a22565b005b34801561018d57600080fd5b50610196610f69565b6040516101a39190611bf0565b60405180910390f35b3480156101b857600080fd5b506101d360048036038101906101ce91906116ed565b610f71565b005b3480156101e157600080fd5b506101fc60048036038101906101f791906117b8565b611015565b6040516102099190611e8c565b60405180910390f35b34801561021e57600080fd5b5061022761138f565b6040516102349190611eae565b60405180910390f35b600073ffffffffffffffffffffffffffffffffffffffff16600160008473ffffffffffffffffffffffffffffffffffffffff1673ffffffffffffffffffffffffffffffffffffffff16815260200190815260200160002060000160009054906101000a900473ffffffffffffffffffffffffffffffffffffffff1673ffffffffffffffffffffffffffffffffffffffff16146103315780600160008473ffffffffffffffffffffffffffffffffffffffff1673ffffffffffffffffffffffffffffffffffffffff16815260200190815260200160002060010160008282546103259190611ef8565b925050819055506103f6565b600060405180604001604052808473ffffffffffffffffffffffffffffffffffffffff16815260200183815250905080600160008573ffffffffffffffffffffffffffffffffffffffff1673ffffffffffffffffffffffffffffffffffffffff16815260200190815260200160002060008201518160000160006101000a81548173ffffffffffffffffffffffffffffffffffffffff021916908373ffffffffffffffffffffffffffffffffffffffff16021790555060208201518160010155905050505b5050565b610402611397565b600160008373ffffffffffffffffffffffffffffffffffffffff1673ffffffffffffffffffffffffffffffffffffffff1681526020019081526020016000206040518060400160405290816000820160009054906101000a900473ffffffffffffffffffffffffffffffffffffffff1673ffffffffffffffffffffffffffffffffffffffff1673ffffffffffffffffffffffffffffffffffffffff1681526020016001820154815250509050919050565b600080600083815260200190815260200160002060405180610120016040529081600082015481526020016001820160009054906101000a900473ffffffffffffffffffffffffffffffffffffffff1673ffffffffffffffffffffffffffffffffffffffff1673ffffffffffffffffffffffffffffffffffffffff1681526020016002820160009054906101000a900473ffffffffffffffffffffffffffffffffffffffff1673ffffffffffffffffffffffffffffffffffffffff1673ffffffffffffffffffffffffffffffffffffffff168152602001600382015481526020016004820160009054906101000a900463ffffffff1663ffffffff1663ffffffff1681526020016004820160049054906101000a900463ffffffff1663ffffffff1663ffffffff1681526020016004820160089054906101000a900463ffffffff1663ffffffff1663ffffffff16815260200160058201805461061590611f5b565b80601f016020809104026020016040519081016040528092919081815260200182805461064190611f5b565b801561068e5780601f106106635761010080835404028352916020019161068e565b820191906000526020600020905b81548152906001019060200180831161067157829003601f168201915b5050505050815260200160068201805480602002602001604051908101604052809291908181526020016000905b8282101561081257838290600052602060002090600202016040518060400160405290816000820180546106ef90611f5b565b80601f016020809104026020016040519081016040528092919081815260200182805461071b90611f5b565b80156107685780601f1061073d57610100808354040283529160200191610768565b820191906000526020600020905b81548152906001019060200180831161074b57829003601f168201915b5050505050815260200160018201805461078190611f5b565b80601f01602080910402602001604051908101604052809291908181526020018280546107ad90611f5b565b80156107fa5780601f106107cf576101008083540402835291602001916107fa565b820191906000526020600020905b8154815290600101906020018083116107dd57829003601f168201915b505050505081525050815260200190600101906106bc565b50505050815250509050600060016000836020015173ffffffffffffffffffffffffffffffffffffffff1673ffffffffffffffffffffffffffffffffffffffff1681526020019081526020016000206040518060400160405290816000820160009054906101000a900473ffffffffffffffffffffffffffffffffffffffff1673ffffffffffffffffffffffffffffffffffffffff1673ffffffffffffffffffffffffffffffffffffffff1681526020016001820154815250509050816060015181602001511015610919576040517f08c379a000000000000000000000000000000000000000000000000000000000815260040161091090611fd8565b60405180910390fd5b816040015173ffffffffffffffffffffffffffffffffffffffff166108fc83606001519081150290604051600060405180830381858888f19350505050158015610967573d6000803e3d6000fd5b5081606001518160200181815161097e9190611ff8565b915081815250508060016000836000015173ffffffffffffffffffffffffffffffffffffffff1673ffffffffffffffffffffffffffffffffffffffff16815260200190815260200160002060008201518160000160006101000a81548173ffffffffffffffffffffffffffffffffffffffff021916908373ffffffffffffffffffffffffffffffffffffffff16021790555060208201518160010155905050505050565b6000600160008a73ffffffffffffffffffffffffffffffffffffffff1673ffffffffffffffffffffffffffffffffffffffff1681526020019081526020016000206040518060400160405290816000820160009054906101000a900473ffffffffffffffffffffffffffffffffffffffff1673ffffffffffffffffffffffffffffffffffffffff1673ffffffffffffffffffffffffffffffffffffffff16815260200160018201548152505090506000600160008a73ffffffffffffffffffffffffffffffffffffffff1673ffffffffffffffffffffffffffffffffffffffff1681526020019081526020016000206040518060400160405290816000820160009054906101000a900473ffffffffffffffffffffffffffffffffffffffff1673ffffffffffffffffffffffffffffffffffffffff1673ffffffffffffffffffffffffffffffffffffffff1681526020016001820154815250509050878260200151118015610b945750878160200151115b610bd3576040517f08c379a0000000000000000000000000000000000000000000000000000000008152600401610bca90612078565b60405180910390fd5b60008060008d815260200190815260200160002090508b81600001819055508a8160010160006101000a81548173ffffffffffffffffffffffffffffffffffffffff021916908373ffffffffffffffffffffffffffffffffffffffff160217905550898160020160006101000a81548173ffffffffffffffffffffffffffffffffffffffff021916908373ffffffffffffffffffffffffffffffffffffffff160217905550888160030181905550878160040160006101000a81548163ffffffff021916908363ffffffff160217905550868160040160046101000a81548163ffffffff021916908363ffffffff160217905550858160040160086101000a81548163ffffffff021916908363ffffffff16021790555084816005019081610cfb9190612244565b5060005b8451811015610d915781600601858281518110610d1f57610d1e612316565b5b602002602001015190806001815401808255809150506001900390600052602060002090600202016000909190919091506000820151816000019081610d659190612244565b506020820151816001019081610d7b9190612244565b5050508080610d8990612345565b915050610cff565b50806000808e8152602001908152602001600020600082015481600001556001820160009054906101000a900473ffffffffffffffffffffffffffffffffffffffff168160010160006101000a81548173ffffffffffffffffffffffffffffffffffffffff021916908373ffffffffffffffffffffffffffffffffffffffff1602179055506002820160009054906101000a900473ffffffffffffffffffffffffffffffffffffffff168160020160006101000a81548173ffffffffffffffffffffffffffffffffffffffff021916908373ffffffffffffffffffffffffffffffffffffffff160217905550600382015481600301556004820160009054906101000a900463ffffffff168160040160006101000a81548163ffffffff021916908363ffffffff1602179055506004820160049054906101000a900463ffffffff168160040160046101000a81548163ffffffff021916908363ffffffff1602179055506004820160089054906101000a900463ffffffff168160040160086101000a81548163ffffffff021916908363ffffffff16021790555060058201816005019081610f4091906123a3565b506006820181600601908054610f579291906113c7565b50905050505050505050505050505050565b600047905090565b600260009054906101000a900473ffffffffffffffffffffffffffffffffffffffff1673ffffffffffffffffffffffffffffffffffffffff163373ffffffffffffffffffffffffffffffffffffffff1614610fcb57600080fd5b8073ffffffffffffffffffffffffffffffffffffffff166108fc479081150290604051600060405180830381858888f19350505050158015611011573d6000803e3d6000fd5b5050565b61101d611449565b600080600084815260200190815260200160002060405180610120016040529081600082015481526020016001820160009054906101000a900473ffffffffffffffffffffffffffffffffffffffff1673ffffffffffffffffffffffffffffffffffffffff1673ffffffffffffffffffffffffffffffffffffffff1681526020016002820160009054906101000a900473ffffffffffffffffffffffffffffffffffffffff1673ffffffffffffffffffffffffffffffffffffffff1673ffffffffffffffffffffffffffffffffffffffff168152602001600382015481526020016004820160009054906101000a900463ffffffff1663ffffffff1663ffffffff1681526020016004820160049054906101000a900463ffffffff1663ffffffff1663ffffffff1681526020016004820160089054906101000a900463ffffffff1663ffffffff1663ffffffff16815260200160058201805461117f90611f5b565b80601f01602080910402602001604051908101604052809291908181526020018280546111ab90611f5b565b80156111f85780601f106111cd576101008083540402835291602001916111f8565b820191906000526020600020905b8154815290600101906020018083116111db57829003601f168201915b5050505050815260200160068201805480602002602001604051908101604052809291908181526020016000905b8282101561137c578382906000526020600020906002020160405180604001604052908160008201805461125990611f5b565b80601f016020809104026020016040519081016040528092919081815260200182805461128590611f5b565b80156112d25780601f106112a7576101008083540402835291602001916112d2565b820191906000526020600020905b8154815290600101906020018083116112b557829003601f168201915b505050505081526020016001820180546112eb90611f5b565b80601f016020809104026020016040519081016040528092919081815260200182805461131790611f5b565b80156113645780601f1061133957610100808354040283529160200191611364565b820191906000526020600020905b81548152906001019060200180831161134757829003601f168201915b50505050508152505081526020019060010190611226565b5050505081525050905080915050919050565b600030905090565b6040518060400160405280600073ffffffffffffffffffffffffffffffffffffffff168152602001600081525090565b8280548282559060005260206000209060020281019282156114385760005260206000209160020282015b828111156114375782826000820181600001908161141091906123a3565b506001820181600101908161142591906123a3565b505050916002019190600201906113f2565b5b50905061144591906114d3565b5090565b60405180610120016040528060008152602001600073ffffffffffffffffffffffffffffffffffffffff168152602001600073ffffffffffffffffffffffffffffffffffffffff16815260200160008152602001600063ffffffff168152602001600063ffffffff168152602001600063ffffffff16815260200160608152602001606081525090565b5b8082111561150657600080820160006114ed919061150a565b6001820160006114fd919061150a565b506002016114d4565b5090565b50805461151690611f5b565b6000825580601f106115285750611547565b601f016020900490600052602060002090810190611546919061154a565b5b50565b5b8082111561156357600081600090555060010161154b565b5090565b600082825260208201905092915050565b7f52656365697665207265636569766520746f6b656e0000000000000000000000600082015250565b60006115ae601583611567565b91506115b982611578565b602082019050919050565b600073ffffffffffffffffffffffffffffffffffffffff82169050919050565b60006115ef826115c4565b9050919050565b6115ff816115e4565b82525050565b6000604082019050818103600083015261161e816115a1565b905061162d60208301846115f6565b92915050565b7f526563656976652066616c6c6261636b20746f6b656e00000000000000000000600082015250565b6000611669601683611567565b915061167482611633565b602082019050919050565b600060408201905081810360008301526116988161165c565b90506116a760208301846115f6565b92915050565b6000604051905090565b600080fd5b600080fd5b6116ca816115e4565b81146116d557600080fd5b50565b6000813590506116e7816116c1565b92915050565b600060208284031215611703576117026116b7565b5b6000611711848285016116d8565b91505092915050565b611723816115e4565b82525050565b6000819050919050565b61173c81611729565b82525050565b604082016000820151611758600085018261171a565b50602082015161176b6020850182611733565b50505050565b60006040820190506117866000830184611742565b92915050565b61179581611729565b81146117a057600080fd5b50565b6000813590506117b28161178c565b92915050565b6000602082840312156117ce576117cd6116b7565b5b60006117dc848285016117a3565b91505092915050565b600063ffffffff82169050919050565b6117fe816117e5565b811461180957600080fd5b50565b60008135905061181b816117f5565b92915050565b600080fd5b600080fd5b6000601f19601f8301169050919050565b7f4e487b7100000000000000000000000000000000000000000000000000000000600052604160045260246000fd5b6118748261182b565b810181811067ffffffffffffffff821117156118935761189261183c565b5b80604052505050565b60006118a66116ad565b90506118b2828261186b565b919050565b600067ffffffffffffffff8211156118d2576118d161183c565b5b6118db8261182b565b9050602081019050919050565b82818337600083830152505050565b600061190a611905846118b7565b61189c565b90508281526020810184848401111561192657611925611826565b5b6119318482856118e8565b509392505050565b600082601f83011261194e5761194d611821565b5b813561195e8482602086016118f7565b91505092915050565b600067ffffffffffffffff8211156119825761198161183c565b5b602082029050602081019050919050565b600080fd5b600080fd5b600080fd5b6000604082840312156119b8576119b7611998565b5b6119c2604061189c565b9050600082013567ffffffffffffffff8111156119e2576119e161199d565b5b6119ee84828501611939565b600083015250602082013567ffffffffffffffff811115611a1257611a1161199d565b5b611a1e84828501611939565b60208301525092915050565b6000611a3d611a3884611967565b61189c565b90508083825260208201905060208402830185811115611a6057611a5f611993565b5b835b81811015611aa757803567ffffffffffffffff811115611a8557611a84611821565b5b808601611a9289826119a2565b85526020850194505050602081019050611a62565b5050509392505050565b600082601f830112611ac657611ac5611821565b5b8135611ad6848260208601611a2a565b91505092915050565b60008060008060008060008060006101208a8c031215611b0257611b016116b7565b5b6000611b108c828d016117a3565b9950506020611b218c828d016116d8565b9850506040611b328c828d016116d8565b9750506060611b438c828d016117a3565b9650506080611b548c828d0161180c565b95505060a0611b658c828d0161180c565b94505060c0611b768c828d0161180c565b93505060e08a013567ffffffffffffffff811115611b9757611b966116bc565b5b611ba38c828d01611939565b9250506101008a013567ffffffffffffffff811115611bc557611bc46116bc565b5b611bd18c828d01611ab1565b9150509295985092959850929598565b611bea81611729565b82525050565b6000602082019050611c056000830184611be1565b92915050565b6000611c16826115c4565b9050919050565b611c2681611c0b565b82525050565b611c35816117e5565b82525050565b600081519050919050565b600082825260208201905092915050565b60005b83811015611c75578082015181840152602081019050611c5a565b60008484015250505050565b6000611c8c82611c3b565b611c968185611c46565b9350611ca6818560208601611c57565b611caf8161182b565b840191505092915050565b600081519050919050565b600082825260208201905092915050565b6000819050602082019050919050565b60006040830160008301518482036000860152611d038282611c81565b91505060208301518482036020860152611d1d8282611c81565b9150508091505092915050565b6000611d368383611ce6565b905092915050565b6000602082019050919050565b6000611d5682611cba565b611d608185611cc5565b935083602082028501611d7285611cd6565b8060005b85811015611dae5784840389528151611d8f8582611d2a565b9450611d9a83611d3e565b925060208a01995050600181019050611d76565b50829750879550505050505092915050565b600061012083016000830151611dd96000860182611733565b506020830151611dec6020860182611c1d565b506040830151611dff6040860182611c1d565b506060830151611e126060860182611733565b506080830151611e256080860182611c2c565b5060a0830151611e3860a0860182611c2c565b5060c0830151611e4b60c0860182611c2c565b5060e083015184820360e0860152611e638282611c81565b915050610100830151848203610100860152611e7f8282611d4b565b9150508091505092915050565b60006020820190508181036000830152611ea68184611dc0565b905092915050565b6000602082019050611ec360008301846115f6565b92915050565b7f4e487b7100000000000000000000000000000000000000000000000000000000600052601160045260246000fd5b6000611f0382611729565b9150611f0e83611729565b9250828201905080821115611f2657611f25611ec9565b5b92915050565b7f4e487b7100000000000000000000000000000000000000000000000000000000600052602260045260246000fd5b60006002820490506001821680611f7357607f821691505b602082108103611f8657611f85611f2c565b5b50919050565b7f52656e74657220696e73756666696369656e742062616c616e63650000000000600082015250565b6000611fc2601b83611567565b9150611fcd82611f8c565b602082019050919050565b60006020820190508181036000830152611ff181611fb5565b9050919050565b600061200382611729565b915061200e83611729565b925082820390508181111561202657612025611ec9565b5b92915050565b7f496e73756666696369656e742062616c616e6365000000000000000000000000600082015250565b6000612062601483611567565b915061206d8261202c565b602082019050919050565b6000602082019050818103600083015261209181612055565b9050919050565b60008190508160005260206000209050919050565b60006020601f8301049050919050565b600082821b905092915050565b6000600883026120fa7fffffffffffffffffffffffffffffffffffffffffffffffffffffffffffffffff826120bd565b61210486836120bd565b95508019841693508086168417925050509392505050565b6000819050919050565b600061214161213c61213784611729565b61211c565b611729565b9050919050565b6000819050919050565b61215b83612126565b61216f61216782612148565b8484546120ca565b825550505050565b600090565b612184612177565b61218f818484612152565b505050565b5b818110156121b3576121a860008261217c565b600181019050612195565b5050565b601f8211156121f8576121c981612098565b6121d2846120ad565b810160208510156121e1578190505b6121f56121ed856120ad565b830182612194565b50505b505050565b600082821c905092915050565b600061221b600019846008026121fd565b1980831691505092915050565b6000612234838361220a565b9150826002028217905092915050565b61224d82611c3b565b67ffffffffffffffff8111156122665761226561183c565b5b6122708254611f5b565b61227b8282856121b7565b600060209050601f8311600181146122ae576000841561229c578287015190505b6122a68582612228565b86555061230e565b601f1984166122bc86612098565b60005b828110156122e4578489015182556001820191506020850194506020810190506122bf565b8683101561230157848901516122fd601f89168261220a565b8355505b6001600288020188555050505b505050505050565b7f4e487b7100000000000000000000000000000000000000000000000000000000600052603260045260246000fd5b600061235082611729565b91507fffffffffffffffffffffffffffffffffffffffffffffffffffffffffffffffff820361238257612381611ec9565b5b600182019050919050565b60008154905061239c81611f5b565b9050919050565b8181036123b1575050612489565b6123ba8261238d565b67ffffffffffffffff8111156123d3576123d261183c565b5b6123dd8254611f5b565b6123e88282856121b7565b6000601f8311600181146124175760008415612405578287015490505b61240f8582612228565b865550612482565b601f19841661242587612098565b965061243086612098565b60005b8281101561245857848901548255600182019150600185019450602081019050612433565b868310156124755784890154612471601f89168261220a565b8355505b6001600288020188555050505b5050505050505b56fea2646970667358221220cb8dba48ef82b7b36659bda19e0fb70cdba0096381ff99ea776b27754a6b96e064736f6c63430008140033",
  "linkReferences": {},
  "deployedLinkReferences": {}
}