{
  "_format": "hh-sol-artifact-1",
  "contractName": "SmartContract",
  "sourceName": "contracts/contractApi.sol",
  "abi": [
    {
      "inputs": [],
      "stateMutability": "payable",
      "type": "constructor"
    },
    {
      "anonymous": false,
      "inputs": [
        {
          "indexed": false,
          "internalType": "string",
          "name": "message",
          "type": "string"
        },
        {
          "indexed": false,
          "internalType": "address",
          "name": "_address",
          "type": "address"
        }
      ],
      "name": "log",
      "type": "event"
    },
    {
      "stateMutability": "payable",
      "type": "fallback"
    },
    {
      "inputs": [
        {
          "internalType": "address",
          "name": "_to",
          "type": "address"
        }
      ],
      "name": "close",
      "outputs": [],
      "stateMutability": "nonpayable",
      "type": "function"
    },
    {
      "inputs": [
        {
          "internalType": "uint256",
          "name": "_id",
          "type": "uint256"
        },
        {
          "internalType": "address",
          "name": "_renterAddress",
          "type": "address"
        },
        {
          "internalType": "address",
          "name": "_sellerAdsress",
          "type": "address"
        },
        {
          "internalType": "uint256",
          "name": "_rentCost",
          "type": "uint256"
        },
        {
          "internalType": "uint32",
          "name": "_duration",
          "type": "uint32"
        },
        {
          "internalType": "uint32",
          "name": "_timeStart",
          "type": "uint32"
        },
        {
          "internalType": "uint32",
          "name": "_paymentDeadline",
          "type": "uint32"
        },
        {
          "internalType": "string",
          "name": "_payment_type",
          "type": "string"
        },
        {
          "components": [
            {
              "internalType": "string",
              "name": "name",
              "type": "string"
            },
            {
              "internalType": "string",
              "name": "content",
              "type": "string"
            }
          ],
          "internalType": "struct SmartContract.Term[]",
          "name": "_termArray",
          "type": "tuple[]"
        }
      ],
      "name": "createSmartContract",
      "outputs": [],
      "stateMutability": "nonpayable",
      "type": "function"
    },
    {
      "inputs": [],
      "name": "getAddressContract",
      "outputs": [
        {
          "internalType": "address",
          "name": "",
          "type": "address"
        }
      ],
      "stateMutability": "view",
      "type": "function"
    },
    {
      "inputs": [],
      "name": "getContractBalance",
      "outputs": [
        {
          "internalType": "uint256",
          "name": "",
          "type": "uint256"
        }
      ],
      "stateMutability": "view",
      "type": "function"
    },
    {
      "inputs": [
        {
          "internalType": "address",
          "name": "addressWallet",
          "type": "address"
        }
      ],
      "name": "getPersonByAddress",
      "outputs": [
        {
          "components": [
            {
              "internalType": "address",
              "name": "addressWallet",
              "type": "address"
            },
            {
              "internalType": "uint256",
              "name": "balance",
              "type": "uint256"
            }
          ],
          "internalType": "struct SmartContract.Person",
          "name": "",
          "type": "tuple"
        }
      ],
      "stateMutability": "view",
      "type": "function"
    },
    {
      "inputs": [
        {
          "internalType": "uint256",
          "name": "_id",
          "type": "uint256"
        }
      ],
      "name": "getSmartContractById",
      "outputs": [
        {
          "components": [
            {
              "internalType": "uint256",
              "name": "id",
              "type": "uint256"
            },
            {
              "internalType": "address payable",
              "name": "renter",
              "type": "address"
            },
            {
              "internalType": "address payable",
              "name": "seller",
              "type": "address"
            },
            {
              "internalType": "uint256",
              "name": "rentCost",
              "type": "uint256"
            },
            {
              "internalType": "uint32",
              "name": "duration",
              "type": "uint32"
            },
            {
              "internalType": "uint32",
              "name": "timeStart",
              "type": "uint32"
            },
            {
              "internalType": "uint32",
              "name": "paymentDeadline",
              "type": "uint32"
            },
            {
              "internalType": "string",
              "name": "payment_type",
              "type": "string"
            },
            {
              "components": [
                {
                  "internalType": "string",
                  "name": "name",
                  "type": "string"
                },
                {
                  "internalType": "string",
                  "name": "content",
                  "type": "string"
                }
              ],
              "internalType": "struct SmartContract.Term[]",
              "name": "termArray",
              "type": "tuple[]"
            }
          ],
          "internalType": "struct SmartContract.ContractEntity",
          "name": "",
          "type": "tuple"
        }
      ],
      "stateMutability": "view",
      "type": "function"
    },
    {
      "inputs": [
        {
          "internalType": "uint256",
          "name": "contractId",
          "type": "uint256"
        }
      ],
      "name": "transferETH",
      "outputs": [],
      "stateMutability": "payable",
      "type": "function"
    },
    {
      "stateMutability": "payable",
      "type": "receive"
    }
  ],
  "bytecode": "0x60806040526200002067fe9e18a8e3bd32e960c01b6200008360201b60201c565b6200003c6782b1c80ed35d8c6260c01b6200008360201b60201c565b33600260006101000a81548173ffffffffffffffffffffffffffffffffffffffff021916908373ffffffffffffffffffffffffffffffffffffffff16021790555062000086565b50565b612adc80620000966000396000f3fe6080604052600436106100745760003560e01c80636f9fb98a1161004e5780636f9fb98a1461020d578063c74073a114610238578063c85d148714610261578063f8aff5f41461029e576100e4565b806343210e781461018b5780634329db46146101c85780636da80b7f146101e4576100e4565b366100e45761008d67fd52304ddfa3e21e60c01b6102c9565b7f319af333460570a1937bf195dd33445c0d0951c59127da6f1f038b9fdce3fd72336040516100bc9190611c20565b60405180910390a16100d867c69a1f8c2bd0f6ce60c01b6102c9565b6100e233346102cc565b005b6100f8679720a11e8077cda760c01b6102c9565b61010c67d19653150c45fda260c01b6102c9565b6101206755b664939e83263c60c01b6102c9565b7f319af333460570a1937bf195dd33445c0d0951c59127da6f1f038b9fdce3fd723360405161014f9190611c9a565b60405180910390a161016b673ab9a8fa15ba763560c01b6102c9565b61017f67c21f1ecfc95d2de860c01b6102c9565b61018933346102cc565b005b34801561019757600080fd5b506101b260048036038101906101ad9190611d08565b61053d565b6040516101bf9190611d8c565b60405180910390f35b6101e260048036038101906101dd9190611dd3565b610632565b005b3480156101f057600080fd5b5061020b600480360381019061020691906120fa565b610ca5565b005b34801561021957600080fd5b506102226113cc565b60405161022f919061220b565b60405180910390f35b34801561024457600080fd5b5061025f600480360381019061025a9190611d08565b611410565b005b34801561026d57600080fd5b5061028860048036038101906102839190611dd3565b611590565b60405161029591906124a7565b60405180910390f35b3480156102aa57600080fd5b506102b361196e565b6040516102c091906124c9565b60405180910390f35b50565b6102e06714feee35f62b120d60c01b6102c9565b6102f4677d9552525403acea60c01b6102c9565b61030867c328fbb7885e88f460c01b6102c9565b600073ffffffffffffffffffffffffffffffffffffffff16600160008473ffffffffffffffffffffffffffffffffffffffff1673ffffffffffffffffffffffffffffffffffffffff16815260200190815260200160002060000160009054906101000a900473ffffffffffffffffffffffffffffffffffffffff1673ffffffffffffffffffffffffffffffffffffffff1614610424576103b2676cf1ee2ef1cb5ae060c01b6102c9565b6103c6671927c57c50c47bb660c01b6102c9565b80600160008473ffffffffffffffffffffffffffffffffffffffff1673ffffffffffffffffffffffffffffffffffffffff16815260200190815260200160002060010160008282546104189190612513565b92505081905550610539565b61043867dc8ad6c232788bd060c01b6102c9565b61044c67f64a2f0b8c583c0c60c01b6102c9565b610460675f5cfb2e76ef8bf560c01b6102c9565b600060405180604001604052808473ffffffffffffffffffffffffffffffffffffffff1681526020018381525090506104a3679af99ff0ef621bb060c01b6102c9565b80600160008573ffffffffffffffffffffffffffffffffffffffff1673ffffffffffffffffffffffffffffffffffffffff16815260200190815260200160002060008201518160000160006101000a81548173ffffffffffffffffffffffffffffffffffffffff021916908373ffffffffffffffffffffffffffffffffffffffff16021790555060208201518160010155905050505b5050565b6105456119b2565b610559679dab790f491f6ad160c01b6102c9565b61056d67e881e41a4b83b02060c01b6102c9565b610581677085656fbd6ff21460c01b6102c9565b600160008373ffffffffffffffffffffffffffffffffffffffff1673ffffffffffffffffffffffffffffffffffffffff1681526020019081526020016000206040518060400160405290816000820160009054906101000a900473ffffffffffffffffffffffffffffffffffffffff1673ffffffffffffffffffffffffffffffffffffffff1673ffffffffffffffffffffffffffffffffffffffff1681526020016001820154815250509050919050565b61064667f58ada356b7f1fb760c01b6102c9565b61065a673e323a8964489c9c60c01b6102c9565b61066e675e4380795ae3d4a360c01b6102c9565b600080600083815260200190815260200160002060405180610120016040529081600082015481526020016001820160009054906101000a900473ffffffffffffffffffffffffffffffffffffffff1673ffffffffffffffffffffffffffffffffffffffff1673ffffffffffffffffffffffffffffffffffffffff1681526020016002820160009054906101000a900473ffffffffffffffffffffffffffffffffffffffff1673ffffffffffffffffffffffffffffffffffffffff1673ffffffffffffffffffffffffffffffffffffffff168152602001600382015481526020016004820160009054906101000a900463ffffffff1663ffffffff1663ffffffff1681526020016004820160049054906101000a900463ffffffff1663ffffffff1663ffffffff1681526020016004820160089054906101000a900463ffffffff1663ffffffff1663ffffffff1681526020016005820180546107d090612576565b80601f01602080910402602001604051908101604052809291908181526020018280546107fc90612576565b80156108495780601f1061081e57610100808354040283529160200191610849565b820191906000526020600020905b81548152906001019060200180831161082c57829003601f168201915b5050505050815260200160068201805480602002602001604051908101604052809291908181526020016000905b828210156109cd57838290600052602060002090600202016040518060400160405290816000820180546108aa90612576565b80601f01602080910402602001604051908101604052809291908181526020018280546108d690612576565b80156109235780601f106108f857610100808354040283529160200191610923565b820191906000526020600020905b81548152906001019060200180831161090657829003601f168201915b5050505050815260200160018201805461093c90612576565b80601f016020809104026020016040519081016040528092919081815260200182805461096890612576565b80156109b55780601f1061098a576101008083540402835291602001916109b5565b820191906000526020600020905b81548152906001019060200180831161099857829003601f168201915b50505050508152505081526020019060010190610877565b505050508152505090506109eb67a7309b6886cd7cf760c01b6102c9565b6109ff678275550bb15747af60c01b6102c9565b600060016000836020015173ffffffffffffffffffffffffffffffffffffffff1673ffffffffffffffffffffffffffffffffffffffff1681526020019081526020016000206040518060400160405290816000820160009054906101000a900473ffffffffffffffffffffffffffffffffffffffff1673ffffffffffffffffffffffffffffffffffffffff1673ffffffffffffffffffffffffffffffffffffffff1681526020016001820154815250509050610ac56798cc77215a6599df60c01b6102c9565b610ad967d56f610bf0de5f8860c01b6102c9565b610aed67f7f4935a30958b4160c01b6102c9565b816060015181602001511015610b38576040517f08c379a0000000000000000000000000000000000000000000000000000000008152600401610b2f906125f3565b60405180910390fd5b610b4c670f3a568ffbe1917360c01b6102c9565b610b6067854cc671757b301860c01b6102c9565b610b7467deff5f40e5885c4360c01b6102c9565b816040015173ffffffffffffffffffffffffffffffffffffffff166108fc83606001519081150290604051600060405180830381858888f19350505050158015610bc2573d6000803e3d6000fd5b50610bd767db4f2a3c50e0fb9160c01b6102c9565b816060015181602001818151610bed9190612613565b91508181525050610c0867793136db1e13dc3260c01b6102c9565b8060016000836000015173ffffffffffffffffffffffffffffffffffffffff1673ffffffffffffffffffffffffffffffffffffffff16815260200190815260200160002060008201518160000160006101000a81548173ffffffffffffffffffffffffffffffffffffffff021916908373ffffffffffffffffffffffffffffffffffffffff16021790555060208201518160010155905050505050565b610cb967f54b02762939f65060c01b6102c9565b610ccd6793e6ca86ab73cb4260c01b6102c9565b610ce167db22970c06adb61260c01b6102c9565b6000600160008a73ffffffffffffffffffffffffffffffffffffffff1673ffffffffffffffffffffffffffffffffffffffff1681526020019081526020016000206040518060400160405290816000820160009054906101000a900473ffffffffffffffffffffffffffffffffffffffff1673ffffffffffffffffffffffffffffffffffffffff1673ffffffffffffffffffffffffffffffffffffffff1681526020016001820154815250509050610da367eec110e288a75dae60c01b6102c9565b610db767e6e908377945330660c01b6102c9565b6000600160008a73ffffffffffffffffffffffffffffffffffffffff1673ffffffffffffffffffffffffffffffffffffffff1681526020019081526020016000206040518060400160405290816000820160009054906101000a900473ffffffffffffffffffffffffffffffffffffffff1673ffffffffffffffffffffffffffffffffffffffff1673ffffffffffffffffffffffffffffffffffffffff1681526020016001820154815250509050610e79675ceb050cc79d6c5f60c01b6102c9565b610e8d6765c20fe73d4803e760c01b6102c9565b610ea16742220a0de1d6fa7260c01b6102c9565b878260200151118015610eb75750878160200151115b610ef6576040517f08c379a0000000000000000000000000000000000000000000000000000000008152600401610eed90612693565b60405180910390fd5b610f0a678e8c6b9378bb23d260c01b6102c9565b610f1e675270c961bbb8db2760c01b6102c9565b610f32671ab164731b727c7a60c01b6102c9565b60008060008d81526020019081526020016000209050610f5c67deea4c211e365a4760c01b6102c9565b8b8160000181905550610f7967ae32e0b9475e3e6460c01b6102c9565b8a8160010160006101000a81548173ffffffffffffffffffffffffffffffffffffffff021916908373ffffffffffffffffffffffffffffffffffffffff160217905550610fd067d473d3893e31898460c01b6102c9565b898160020160006101000a81548173ffffffffffffffffffffffffffffffffffffffff021916908373ffffffffffffffffffffffffffffffffffffffff1602179055506110276773c8a2f74e1e26a960c01b6102c9565b888160030181905550611044679673107a61709e2560c01b6102c9565b878160040160006101000a81548163ffffffff021916908363ffffffff16021790555061107b67b3004c7c128e4d0060c01b6102c9565b868160040160046101000a81548163ffffffff021916908363ffffffff1602179055506110b2679ad46231463181ee60c01b6102c9565b858160040160086101000a81548163ffffffff021916908363ffffffff1602179055506110e9678f138e00fe7a8cdb60c01b6102c9565b848160050190816110fa919061285f565b5061110f6756e88fa12c4a486260c01b6102c9565b61112367d9b1c2731175283760c01b6102c9565b60005b84518110156111e057611143673f8155f8086998f960c01b6102c9565b61115767e607846455c8a7da60c01b6102c9565b8160060185828151811061116e5761116d612931565b5b6020026020010151908060018154018082558091505060019003906000526020600020906002020160009091909190915060008201518160000190816111b4919061285f565b5060208201518160010190816111ca919061285f565b50505080806111d890612960565b915050611126565b506111f56786225e55ff7ffcda60c01b6102c9565b806000808e8152602001908152602001600020600082015481600001556001820160009054906101000a900473ffffffffffffffffffffffffffffffffffffffff168160010160006101000a81548173ffffffffffffffffffffffffffffffffffffffff021916908373ffffffffffffffffffffffffffffffffffffffff1602179055506002820160009054906101000a900473ffffffffffffffffffffffffffffffffffffffff168160020160006101000a81548173ffffffffffffffffffffffffffffffffffffffff021916908373ffffffffffffffffffffffffffffffffffffffff160217905550600382015481600301556004820160009054906101000a900463ffffffff168160040160006101000a81548163ffffffff021916908363ffffffff1602179055506004820160049054906101000a900463ffffffff168160040160046101000a81548163ffffffff021916908363ffffffff1602179055506004820160089054906101000a900463ffffffff168160040160086101000a81548163ffffffff021916908363ffffffff160217905550600582018160050190816113a391906129be565b5060068201816006019080546113ba9291906119e2565b50905050505050505050505050505050565b60006113e267258e9aca744c987e60c01b6102c9565b6113f667bd254b205c90c85360c01b6102c9565b61140a6784af28603ac465a660c01b6102c9565b47905090565b61142467c50b5cc77cf2698a60c01b6102c9565b61143867d71fe7a9600431ce60c01b6102c9565b61144c67a5139af7db595fd660c01b6102c9565b61146067a78c9a149b3b6ac560c01b6102c9565b61147467a2b28058ac210b7560c01b6102c9565b600260009054906101000a900473ffffffffffffffffffffffffffffffffffffffff1673ffffffffffffffffffffffffffffffffffffffff163373ffffffffffffffffffffffffffffffffffffffff16146114ce57600080fd5b6114e26787e2ac89b19abbee60c01b6102c9565b6114f667f5a9843349ecddf960c01b6102c9565b61150a67c237162e34cf610960c01b6102c9565b61151e679ed1cc8fc6d60cff60c01b6102c9565b61153267d3d456bf385568db60c01b6102c9565b61154667f3f8a38f110bd94e60c01b6102c9565b8073ffffffffffffffffffffffffffffffffffffffff166108fc479081150290604051600060405180830381858888f1935050505015801561158c573d6000803e3d6000fd5b5050565b611598611a64565b6115ac67f772910fd53efc8160c01b6102c9565b6115c06768819a0ea4300a6f60c01b6102c9565b6115d4677f30ae0462d3f54960c01b6102c9565b600080600084815260200190815260200160002060405180610120016040529081600082015481526020016001820160009054906101000a900473ffffffffffffffffffffffffffffffffffffffff1673ffffffffffffffffffffffffffffffffffffffff1673ffffffffffffffffffffffffffffffffffffffff1681526020016002820160009054906101000a900473ffffffffffffffffffffffffffffffffffffffff1673ffffffffffffffffffffffffffffffffffffffff1673ffffffffffffffffffffffffffffffffffffffff168152602001600382015481526020016004820160009054906101000a900463ffffffff1663ffffffff1663ffffffff1681526020016004820160049054906101000a900463ffffffff1663ffffffff1663ffffffff1681526020016004820160089054906101000a900463ffffffff1663ffffffff1663ffffffff16815260200160058201805461173690612576565b80601f016020809104026020016040519081016040528092919081815260200182805461176290612576565b80156117af5780601f10611784576101008083540402835291602001916117af565b820191906000526020600020905b81548152906001019060200180831161179257829003601f168201915b5050505050815260200160068201805480602002602001604051908101604052809291908181526020016000905b82821015611933578382906000526020600020906002020160405180604001604052908160008201805461181090612576565b80601f016020809104026020016040519081016040528092919081815260200182805461183c90612576565b80156118895780601f1061185e57610100808354040283529160200191611889565b820191906000526020600020905b81548152906001019060200180831161186c57829003601f168201915b505050505081526020016001820180546118a290612576565b80601f01602080910402602001604051908101604052809291908181526020018280546118ce90612576565b801561191b5780601f106118f05761010080835404028352916020019161191b565b820191906000526020600020905b8154815290600101906020018083116118fe57829003601f168201915b505050505081525050815260200190600101906117dd565b505050508152505090506119516746d6d5c86500016560c01b6102c9565b61196567df12cc9523e26e9260c01b6102c9565b80915050919050565b6000611984673169bed10a3c5f9760c01b6102c9565b611998673fda669ce71ab5c960c01b6102c9565b6119ac67afb923a890816e9a60c01b6102c9565b30905090565b6040518060400160405280600073ffffffffffffffffffffffffffffffffffffffff168152602001600081525090565b828054828255906000526020600020906002028101928215611a535760005260206000209160020282015b82811115611a5257828260008201816000019081611a2b91906129be565b5060018201816001019081611a4091906129be565b50505091600201919060020190611a0d565b5b509050611a609190611aee565b5090565b60405180610120016040528060008152602001600073ffffffffffffffffffffffffffffffffffffffff168152602001600073ffffffffffffffffffffffffffffffffffffffff16815260200160008152602001600063ffffffff168152602001600063ffffffff168152602001600063ffffffff16815260200160608152602001606081525090565b5b80821115611b215760008082016000611b089190611b25565b600182016000611b189190611b25565b50600201611aef565b5090565b508054611b3190612576565b6000825580601f10611b435750611b62565b601f016020900490600052602060002090810190611b619190611b65565b5b50565b5b80821115611b7e576000816000905550600101611b66565b5090565b600082825260208201905092915050565b7f52656365697665207265636569766520746f6b656e0000000000000000000000600082015250565b6000611bc9601583611b82565b9150611bd482611b93565b602082019050919050565b600073ffffffffffffffffffffffffffffffffffffffff82169050919050565b6000611c0a82611bdf565b9050919050565b611c1a81611bff565b82525050565b60006040820190508181036000830152611c3981611bbc565b9050611c486020830184611c11565b92915050565b7f526563656976652066616c6c6261636b20746f6b656e00000000000000000000600082015250565b6000611c84601683611b82565b9150611c8f82611c4e565b602082019050919050565b60006040820190508181036000830152611cb381611c77565b9050611cc26020830184611c11565b92915050565b6000604051905090565b600080fd5b600080fd5b611ce581611bff565b8114611cf057600080fd5b50565b600081359050611d0281611cdc565b92915050565b600060208284031215611d1e57611d1d611cd2565b5b6000611d2c84828501611cf3565b91505092915050565b611d3e81611bff565b82525050565b6000819050919050565b611d5781611d44565b82525050565b604082016000820151611d736000850182611d35565b506020820151611d866020850182611d4e565b50505050565b6000604082019050611da16000830184611d5d565b92915050565b611db081611d44565b8114611dbb57600080fd5b50565b600081359050611dcd81611da7565b92915050565b600060208284031215611de957611de8611cd2565b5b6000611df784828501611dbe565b91505092915050565b600063ffffffff82169050919050565b611e1981611e00565b8114611e2457600080fd5b50565b600081359050611e3681611e10565b92915050565b600080fd5b600080fd5b6000601f19601f8301169050919050565b7f4e487b7100000000000000000000000000000000000000000000000000000000600052604160045260246000fd5b611e8f82611e46565b810181811067ffffffffffffffff82111715611eae57611ead611e57565b5b80604052505050565b6000611ec1611cc8565b9050611ecd8282611e86565b919050565b600067ffffffffffffffff821115611eed57611eec611e57565b5b611ef682611e46565b9050602081019050919050565b82818337600083830152505050565b6000611f25611f2084611ed2565b611eb7565b905082815260208101848484011115611f4157611f40611e41565b5b611f4c848285611f03565b509392505050565b600082601f830112611f6957611f68611e3c565b5b8135611f79848260208601611f12565b91505092915050565b600067ffffffffffffffff821115611f9d57611f9c611e57565b5b602082029050602081019050919050565b600080fd5b600080fd5b600080fd5b600060408284031215611fd357611fd2611fb3565b5b611fdd6040611eb7565b9050600082013567ffffffffffffffff811115611ffd57611ffc611fb8565b5b61200984828501611f54565b600083015250602082013567ffffffffffffffff81111561202d5761202c611fb8565b5b61203984828501611f54565b60208301525092915050565b600061205861205384611f82565b611eb7565b9050808382526020820190506020840283018581111561207b5761207a611fae565b5b835b818110156120c257803567ffffffffffffffff8111156120a05761209f611e3c565b5b8086016120ad8982611fbd565b8552602085019450505060208101905061207d565b5050509392505050565b600082601f8301126120e1576120e0611e3c565b5b81356120f1848260208601612045565b91505092915050565b60008060008060008060008060006101208a8c03121561211d5761211c611cd2565b5b600061212b8c828d01611dbe565b995050602061213c8c828d01611cf3565b985050604061214d8c828d01611cf3565b975050606061215e8c828d01611dbe565b965050608061216f8c828d01611e27565b95505060a06121808c828d01611e27565b94505060c06121918c828d01611e27565b93505060e08a013567ffffffffffffffff8111156121b2576121b1611cd7565b5b6121be8c828d01611f54565b9250506101008a013567ffffffffffffffff8111156121e0576121df611cd7565b5b6121ec8c828d016120cc565b9150509295985092959850929598565b61220581611d44565b82525050565b600060208201905061222060008301846121fc565b92915050565b600061223182611bdf565b9050919050565b61224181612226565b82525050565b61225081611e00565b82525050565b600081519050919050565b600082825260208201905092915050565b60005b83811015612290578082015181840152602081019050612275565b60008484015250505050565b60006122a782612256565b6122b18185612261565b93506122c1818560208601612272565b6122ca81611e46565b840191505092915050565b600081519050919050565b600082825260208201905092915050565b6000819050602082019050919050565b6000604083016000830151848203600086015261231e828261229c565b91505060208301518482036020860152612338828261229c565b9150508091505092915050565b60006123518383612301565b905092915050565b6000602082019050919050565b6000612371826122d5565b61237b81856122e0565b93508360208202850161238d856122f1565b8060005b858110156123c957848403895281516123aa8582612345565b94506123b583612359565b925060208a01995050600181019050612391565b50829750879550505050505092915050565b6000610120830160008301516123f46000860182611d4e565b5060208301516124076020860182612238565b50604083015161241a6040860182612238565b50606083015161242d6060860182611d4e565b5060808301516124406080860182612247565b5060a083015161245360a0860182612247565b5060c083015161246660c0860182612247565b5060e083015184820360e086015261247e828261229c565b91505061010083015184820361010086015261249a8282612366565b9150508091505092915050565b600060208201905081810360008301526124c181846123db565b905092915050565b60006020820190506124de6000830184611c11565b92915050565b7f4e487b7100000000000000000000000000000000000000000000000000000000600052601160045260246000fd5b600061251e82611d44565b915061252983611d44565b9250828201905080821115612541576125406124e4565b5b92915050565b7f4e487b7100000000000000000000000000000000000000000000000000000000600052602260045260246000fd5b6000600282049050600182168061258e57607f821691505b6020821081036125a1576125a0612547565b5b50919050565b7f52656e74657220696e73756666696369656e742062616c616e63650000000000600082015250565b60006125dd601b83611b82565b91506125e8826125a7565b602082019050919050565b6000602082019050818103600083015261260c816125d0565b9050919050565b600061261e82611d44565b915061262983611d44565b9250828203905081811115612641576126406124e4565b5b92915050565b7f496e73756666696369656e742062616c616e6365000000000000000000000000600082015250565b600061267d601483611b82565b915061268882612647565b602082019050919050565b600060208201905081810360008301526126ac81612670565b9050919050565b60008190508160005260206000209050919050565b60006020601f8301049050919050565b600082821b905092915050565b6000600883026127157fffffffffffffffffffffffffffffffffffffffffffffffffffffffffffffffff826126d8565b61271f86836126d8565b95508019841693508086168417925050509392505050565b6000819050919050565b600061275c61275761275284611d44565b612737565b611d44565b9050919050565b6000819050919050565b61277683612741565b61278a61278282612763565b8484546126e5565b825550505050565b600090565b61279f612792565b6127aa81848461276d565b505050565b5b818110156127ce576127c3600082612797565b6001810190506127b0565b5050565b601f821115612813576127e4816126b3565b6127ed846126c8565b810160208510156127fc578190505b612810612808856126c8565b8301826127af565b50505b505050565b600082821c905092915050565b600061283660001984600802612818565b1980831691505092915050565b600061284f8383612825565b9150826002028217905092915050565b61286882612256565b67ffffffffffffffff81111561288157612880611e57565b5b61288b8254612576565b6128968282856127d2565b600060209050601f8311600181146128c957600084156128b7578287015190505b6128c18582612843565b865550612929565b601f1984166128d7866126b3565b60005b828110156128ff578489015182556001820191506020850194506020810190506128da565b8683101561291c5784890151612918601f891682612825565b8355505b6001600288020188555050505b505050505050565b7f4e487b7100000000000000000000000000000000000000000000000000000000600052603260045260246000fd5b600061296b82611d44565b91507fffffffffffffffffffffffffffffffffffffffffffffffffffffffffffffffff820361299d5761299c6124e4565b5b600182019050919050565b6000815490506129b781612576565b9050919050565b8181036129cc575050612aa4565b6129d5826129a8565b67ffffffffffffffff8111156129ee576129ed611e57565b5b6129f88254612576565b612a038282856127d2565b6000601f831160018114612a325760008415612a20578287015490505b612a2a8582612843565b865550612a9d565b601f198416612a40876126b3565b9650612a4b866126b3565b60005b82811015612a7357848901548255600182019150600185019450602081019050612a4e565b86831015612a905784890154612a8c601f891682612825565b8355505b6001600288020188555050505b5050505050505b56fea26469706673582212205a61f319a417cbc672a5877d05ba7f0b89f81771daa404ebf8be9ea85264bdd364736f6c63430008140033",
  "linkReferences": {},
  "deployedLinkReferences": {}
}