{
  "_format": "hh-sol-artifact-1",
  "contractName": "SmartContract",
  "sourceName": "contracts/SmartContract.sol",
  "abi": [
    {
      "inputs": [],
      "stateMutability": "nonpayable",
      "type": "constructor"
    },
    {
      "inputs": [
        {
          "internalType": "address",
          "name": "sender",
          "type": "address"
        },
        {
          "internalType": "uint256",
          "name": "tokenId",
          "type": "uint256"
        },
        {
          "internalType": "address",
          "name": "owner",
          "type": "address"
        }
      ],
      "name": "ERC721IncorrectOwner",
      "type": "error"
    },
    {
      "inputs": [
        {
          "internalType": "address",
          "name": "operator",
          "type": "address"
        },
        {
          "internalType": "uint256",
          "name": "tokenId",
          "type": "uint256"
        }
      ],
      "name": "ERC721InsufficientApproval",
      "type": "error"
    },
    {
      "inputs": [
        {
          "internalType": "address",
          "name": "approver",
          "type": "address"
        }
      ],
      "name": "ERC721InvalidApprover",
      "type": "error"
    },
    {
      "inputs": [
        {
          "internalType": "address",
          "name": "operator",
          "type": "address"
        }
      ],
      "name": "ERC721InvalidOperator",
      "type": "error"
    },
    {
      "inputs": [
        {
          "internalType": "address",
          "name": "owner",
          "type": "address"
        }
      ],
      "name": "ERC721InvalidOwner",
      "type": "error"
    },
    {
      "inputs": [
        {
          "internalType": "address",
          "name": "receiver",
          "type": "address"
        }
      ],
      "name": "ERC721InvalidReceiver",
      "type": "error"
    },
    {
      "inputs": [
        {
          "internalType": "address",
          "name": "sender",
          "type": "address"
        }
      ],
      "name": "ERC721InvalidSender",
      "type": "error"
    },
    {
      "inputs": [
        {
          "internalType": "uint256",
          "name": "tokenId",
          "type": "uint256"
        }
      ],
      "name": "ERC721NonexistentToken",
      "type": "error"
    },
    {
      "anonymous": false,
      "inputs": [
        {
          "indexed": true,
          "internalType": "address",
          "name": "owner",
          "type": "address"
        },
        {
          "indexed": true,
          "internalType": "address",
          "name": "approved",
          "type": "address"
        },
        {
          "indexed": true,
          "internalType": "uint256",
          "name": "tokenId",
          "type": "uint256"
        }
      ],
      "name": "Approval",
      "type": "event"
    },
    {
      "anonymous": false,
      "inputs": [
        {
          "indexed": true,
          "internalType": "address",
          "name": "owner",
          "type": "address"
        },
        {
          "indexed": true,
          "internalType": "address",
          "name": "operator",
          "type": "address"
        },
        {
          "indexed": false,
          "internalType": "bool",
          "name": "approved",
          "type": "bool"
        }
      ],
      "name": "ApprovalForAll",
      "type": "event"
    },
    {
      "anonymous": false,
      "inputs": [
        {
          "indexed": false,
          "internalType": "uint256",
          "name": "_fromTokenId",
          "type": "uint256"
        },
        {
          "indexed": false,
          "internalType": "uint256",
          "name": "_toTokenId",
          "type": "uint256"
        }
      ],
      "name": "BatchMetadataUpdate",
      "type": "event"
    },
    {
      "anonymous": false,
      "inputs": [
        {
          "indexed": false,
          "internalType": "uint256",
          "name": "_tokenId",
          "type": "uint256"
        }
      ],
      "name": "MetadataUpdate",
      "type": "event"
    },
    {
      "anonymous": false,
      "inputs": [
        {
          "indexed": true,
          "internalType": "address",
          "name": "from",
          "type": "address"
        },
        {
          "indexed": true,
          "internalType": "address",
          "name": "to",
          "type": "address"
        },
        {
          "indexed": true,
          "internalType": "uint256",
          "name": "tokenId",
          "type": "uint256"
        }
      ],
      "name": "Transfer",
      "type": "event"
    },
    {
      "stateMutability": "payable",
      "type": "fallback"
    },
    {
      "stateMutability": "payable",
      "type": "fallback"
    },
    {
      "inputs": [
        {
          "internalType": "address",
          "name": "to",
          "type": "address"
        },
        {
          "internalType": "uint256",
          "name": "tokenId",
          "type": "uint256"
        }
      ],
      "name": "approve",
      "outputs": [],
      "stateMutability": "nonpayable",
      "type": "function"
    },
    {
      "inputs": [
        {
          "internalType": "address",
          "name": "owner",
          "type": "address"
        }
      ],
      "name": "balanceOf",
      "outputs": [
        {
          "internalType": "uint256",
          "name": "",
          "type": "uint256"
        }
      ],
      "stateMutability": "view",
      "type": "function"
    },
    {
      "inputs": [],
      "name": "balanceOf",
      "outputs": [
        {
          "internalType": "uint256",
          "name": "",
          "type": "uint256"
        }
      ],
      "stateMutability": "view",
      "type": "function"
    },
    {
      "inputs": [
        {
          "internalType": "address",
          "name": "_to",
          "type": "address"
        }
      ],
      "name": "close",
      "outputs": [],
      "stateMutability": "nonpayable",
      "type": "function"
    },
    {
      "inputs": [
        {
          "internalType": "uint256",
          "name": "id",
          "type": "uint256"
        }
      ],
      "name": "depositContract",
      "outputs": [],
      "stateMutability": "payable",
      "type": "function"
    },
    {
      "inputs": [
        {
          "internalType": "uint256",
          "name": "tokenId",
          "type": "uint256"
        }
      ],
      "name": "getApproved",
      "outputs": [
        {
          "internalType": "address",
          "name": "",
          "type": "address"
        }
      ],
      "stateMutability": "view",
      "type": "function"
    },
    {
      "inputs": [
        {
          "internalType": "uint256",
          "name": "id",
          "type": "uint256"
        }
      ],
      "name": "getContract",
      "outputs": [
        {
          "components": [
            {
              "internalType": "address payable",
              "name": "renter",
              "type": "address"
            },
            {
              "internalType": "address payable",
              "name": "seller",
              "type": "address"
            },
            {
              "internalType": "uint256",
              "name": "reId",
              "type": "uint256"
            },
            {
              "internalType": "uint256",
              "name": "rentCost",
              "type": "uint256"
            },
            {
              "internalType": "uint256",
              "name": "duration",
              "type": "uint256"
            },
            {
              "internalType": "string",
              "name": "urlContract",
              "type": "string"
            }
          ],
          "internalType": "struct SmartContract.ContractEntity",
          "name": "",
          "type": "tuple"
        }
      ],
      "stateMutability": "view",
      "type": "function"
    },
    {
      "inputs": [
        {
          "internalType": "uint256",
          "name": "scId",
          "type": "uint256"
        },
        {
          "internalType": "address",
          "name": "renterAddress",
          "type": "address"
        }
      ],
      "name": "getDepositContractByRenter",
      "outputs": [
        {
          "internalType": "uint256",
          "name": "",
          "type": "uint256"
        }
      ],
      "stateMutability": "view",
      "type": "function"
    },
    {
      "inputs": [],
      "name": "getbalanceOf",
      "outputs": [
        {
          "internalType": "uint256",
          "name": "",
          "type": "uint256"
        }
      ],
      "stateMutability": "view",
      "type": "function"
    },
    {
      "inputs": [
        {
          "internalType": "address",
          "name": "owner",
          "type": "address"
        },
        {
          "internalType": "address",
          "name": "operator",
          "type": "address"
        }
      ],
      "name": "isApprovedForAll",
      "outputs": [
        {
          "internalType": "bool",
          "name": "",
          "type": "bool"
        }
      ],
      "stateMutability": "view",
      "type": "function"
    },
    {
      "inputs": [
        {
          "internalType": "uint256",
          "name": "_newItemId",
          "type": "uint256"
        },
        {
          "internalType": "address",
          "name": "_renterAddress",
          "type": "address"
        },
        {
          "internalType": "address",
          "name": "_sellerAdsress",
          "type": "address"
        },
        {
          "internalType": "uint256",
          "name": "_reId",
          "type": "uint256"
        },
        {
          "internalType": "uint256",
          "name": "_rentCost",
          "type": "uint256"
        },
        {
          "internalType": "uint256",
          "name": "_duration",
          "type": "uint256"
        },
        {
          "internalType": "string",
          "name": "uri",
          "type": "string"
        }
      ],
      "name": "mint",
      "outputs": [],
      "stateMutability": "nonpayable",
      "type": "function"
    },
    {
      "inputs": [],
      "name": "name",
      "outputs": [
        {
          "internalType": "string",
          "name": "",
          "type": "string"
        }
      ],
      "stateMutability": "view",
      "type": "function"
    },
    {
      "inputs": [
        {
          "internalType": "uint256",
          "name": "tokenId",
          "type": "uint256"
        }
      ],
      "name": "ownerOf",
      "outputs": [
        {
          "internalType": "address",
          "name": "",
          "type": "address"
        }
      ],
      "stateMutability": "view",
      "type": "function"
    },
    {
      "inputs": [
        {
          "internalType": "uint256",
          "name": "id",
          "type": "uint256"
        }
      ],
      "name": "payRentCost",
      "outputs": [
        {
          "internalType": "bool",
          "name": "",
          "type": "bool"
        }
      ],
      "stateMutability": "nonpayable",
      "type": "function"
    },
    {
      "inputs": [
        {
          "internalType": "uint256",
          "name": "_time",
          "type": "uint256"
        },
        {
          "internalType": "uint256",
          "name": "id",
          "type": "uint256"
        }
      ],
      "name": "renewal",
      "outputs": [],
      "stateMutability": "payable",
      "type": "function"
    },
    {
      "inputs": [
        {
          "internalType": "address",
          "name": "from",
          "type": "address"
        },
        {
          "internalType": "address",
          "name": "to",
          "type": "address"
        },
        {
          "internalType": "uint256",
          "name": "tokenId",
          "type": "uint256"
        }
      ],
      "name": "safeTransferFrom",
      "outputs": [],
      "stateMutability": "nonpayable",
      "type": "function"
    },
    {
      "inputs": [
        {
          "internalType": "address",
          "name": "from",
          "type": "address"
        },
        {
          "internalType": "address",
          "name": "to",
          "type": "address"
        },
        {
          "internalType": "uint256",
          "name": "tokenId",
          "type": "uint256"
        },
        {
          "internalType": "bytes",
          "name": "data",
          "type": "bytes"
        }
      ],
      "name": "safeTransferFrom",
      "outputs": [],
      "stateMutability": "nonpayable",
      "type": "function"
    },
    {
      "inputs": [
        {
          "internalType": "address",
          "name": "operator",
          "type": "address"
        },
        {
          "internalType": "bool",
          "name": "approved",
          "type": "bool"
        }
      ],
      "name": "setApprovalForAll",
      "outputs": [],
      "stateMutability": "nonpayable",
      "type": "function"
    },
    {
      "inputs": [
        {
          "internalType": "bytes4",
          "name": "interfaceId",
          "type": "bytes4"
        }
      ],
      "name": "supportsInterface",
      "outputs": [
        {
          "internalType": "bool",
          "name": "",
          "type": "bool"
        }
      ],
      "stateMutability": "view",
      "type": "function"
    },
    {
      "inputs": [],
      "name": "symbol",
      "outputs": [
        {
          "internalType": "string",
          "name": "",
          "type": "string"
        }
      ],
      "stateMutability": "view",
      "type": "function"
    },
    {
      "inputs": [
        {
          "internalType": "uint256",
          "name": "tokenId",
          "type": "uint256"
        }
      ],
      "name": "tokenURI",
      "outputs": [
        {
          "internalType": "string",
          "name": "",
          "type": "string"
        }
      ],
      "stateMutability": "view",
      "type": "function"
    },
    {
      "inputs": [
        {
          "internalType": "address",
          "name": "from",
          "type": "address"
        },
        {
          "internalType": "address",
          "name": "to",
          "type": "address"
        },
        {
          "internalType": "uint256",
          "name": "tokenId",
          "type": "uint256"
        }
      ],
      "name": "transferFrom",
      "outputs": [],
      "stateMutability": "nonpayable",
      "type": "function"
    },
    {
      "inputs": [
        {
          "internalType": "uint256",
          "name": "value",
          "type": "uint256"
        }
      ],
      "name": "withdrawPositRenter",
      "outputs": [],
      "stateMutability": "nonpayable",
      "type": "function"
    },
    {
      "stateMutability": "payable",
      "type": "receive"
    }
  ],
  "bytecode": "0x60806040523480156200001157600080fd5b506040518060400160405280600e81526020017f536d61727420436f6e74726163740000000000000000000000000000000000008152506040518060400160405280600281526020017f534300000000000000000000000000000000000000000000000000000000000081525081600090816200008f919062000324565b508060019081620000a1919062000324565b5050506200040b565b600081519050919050565b7f4e487b7100000000000000000000000000000000000000000000000000000000600052604160045260246000fd5b7f4e487b7100000000000000000000000000000000000000000000000000000000600052602260045260246000fd5b600060028204905060018216806200012c57607f821691505b602082108103620001425762000141620000e4565b5b50919050565b60008190508160005260206000209050919050565b60006020601f8301049050919050565b600082821b905092915050565b600060088302620001ac7fffffffffffffffffffffffffffffffffffffffffffffffffffffffffffffffff826200016d565b620001b886836200016d565b95508019841693508086168417925050509392505050565b6000819050919050565b6000819050919050565b600062000205620001ff620001f984620001d0565b620001da565b620001d0565b9050919050565b6000819050919050565b6200022183620001e4565b6200023962000230826200020c565b8484546200017a565b825550505050565b600090565b6200025062000241565b6200025d81848462000216565b505050565b5b8181101562000285576200027960008262000246565b60018101905062000263565b5050565b601f821115620002d4576200029e8162000148565b620002a9846200015d565b81016020851015620002b9578190505b620002d1620002c8856200015d565b83018262000262565b50505b505050565b600082821c905092915050565b6000620002f960001984600802620002d9565b1980831691505092915050565b6000620003148383620002e6565b9150826002028217905092915050565b6200032f82620000aa565b67ffffffffffffffff8111156200034b576200034a620000b5565b5b62000357825462000113565b6200036482828562000289565b600060209050601f8311600181146200039c576000841562000387578287015190505b62000393858262000306565b86555062000403565b601f198416620003ac8662000148565b60005b82811015620003d657848901518255600182019150602085019450602081019050620003af565b86831015620003f65784890151620003f2601f891682620002e6565b8355505b6001600288020188555050505b505050505050565b613558806200041b6000396000f3fe6080604052600436106101395760003560e01c8063722713f7116100ab578063b991aa031161006f578063b991aa031461048b578063c74073a1146104c8578063c87b56dd146104f1578063e0ea9c341461052e578063e54b076814610557578063e985e9c51461059457610140565b8063722713f7146103c757806395d89b41146103f25780639b8458991461041d578063a22cb46514610439578063b88d4fde1461046257610140565b806342842e0e116100fd57806342842e0e1461028e5780636135281a146102b75780636352211e146102d35780636ebc8c86146103105780636ef49dfc1461034d57806370a082311461038a57610140565b806301ffc9a71461019757806306fdde03146101d4578063081812fc146101ff578063095ea7b31461023c57806323b872dd1461026557610140565b3661014057005b34600960003373ffffffffffffffffffffffffffffffffffffffff1673ffffffffffffffffffffffffffffffffffffffff168152602001908152602001600020600082825461018f9190612586565b925050819055005b3480156101a357600080fd5b506101be60048036038101906101b99190612626565b6105d1565b6040516101cb919061266e565b60405180910390f35b3480156101e057600080fd5b506101e9610632565b6040516101f69190612719565b60405180910390f35b34801561020b57600080fd5b5061022660048036038101906102219190612767565b6106c4565b60405161023391906127d5565b60405180910390f35b34801561024857600080fd5b50610263600480360381019061025e919061281c565b6106e0565b005b34801561027157600080fd5b5061028c6004803603810190610287919061285c565b6106f6565b005b34801561029a57600080fd5b506102b560048036038101906102b0919061285c565b6107f8565b005b6102d160048036038101906102cc91906128af565b610818565b005b3480156102df57600080fd5b506102fa60048036038101906102f59190612767565b610912565b60405161030791906127d5565b60405180910390f35b34801561031c57600080fd5b5061033760048036038101906103329190612767565b610924565b60405161034491906129f2565b60405180910390f35b34801561035957600080fd5b50610374600480360381019061036f9190612a14565b610ab3565b6040516103819190612a63565b60405180910390f35b34801561039657600080fd5b506103b160048036038101906103ac9190612a7e565b610b0e565b6040516103be9190612a63565b60405180910390f35b3480156103d357600080fd5b506103dc610bc8565b6040516103e99190612a63565b60405180910390f35b3480156103fe57600080fd5b50610407610c0f565b6040516104149190612719565b60405180910390f35b61043760048036038101906104329190612767565b610ca1565b005b34801561044557600080fd5b50610460600480360381019061045b9190612ad7565b610ff0565b005b34801561046e57600080fd5b5061048960048036038101906104849190612c4c565b611006565b005b34801561049757600080fd5b506104b260048036038101906104ad9190612767565b611023565b6040516104bf919061266e565b60405180910390f35b3480156104d457600080fd5b506104ef60048036038101906104ea9190612a7e565b61120e565b005b3480156104fd57600080fd5b5061051860048036038101906105139190612767565b611258565b6040516105259190612719565b60405180910390f35b34801561053a57600080fd5b5061055560048036038101906105509190612767565b61136b565b005b34801561056357600080fd5b5061057e60048036038101906105799190612d70565b61148d565b60405161058b9190612a63565b60405180910390f35b3480156105a057600080fd5b506105bb60048036038101906105b69190612e2e565b61156f565b6040516105c8919061266e565b60405180910390f35b6000634906490660e01b7bffffffffffffffffffffffffffffffffffffffffffffffffffffffff1916827bffffffffffffffffffffffffffffffffffffffffffffffffffffffff1916148061062b575061062a82611603565b5b9050919050565b60606000805461064190612e9d565b80601f016020809104026020016040519081016040528092919081815260200182805461066d90612e9d565b80156106ba5780601f1061068f576101008083540402835291602001916106ba565b820191906000526020600020905b81548152906001019060200180831161069d57829003601f168201915b5050505050905090565b60006106cf826116e5565b506106d98261176d565b9050919050565b6106f282826106ed6117aa565b6117b2565b5050565b600073ffffffffffffffffffffffffffffffffffffffff168273ffffffffffffffffffffffffffffffffffffffff16036107685760006040517f64a0ae9200000000000000000000000000000000000000000000000000000000815260040161075f91906127d5565b60405180910390fd5b600061077c83836107776117aa565b6117c4565b90508373ffffffffffffffffffffffffffffffffffffffff168173ffffffffffffffffffffffffffffffffffffffff16146107f2578382826040517f64283d7b0000000000000000000000000000000000000000000000000000000081526004016107e993929190612ece565b60405180910390fd5b50505050565b61081383838360405180602001604052806000815250611006565b505050565b806007600082815260200190815260200160002060000160009054906101000a900473ffffffffffffffffffffffffffffffffffffffff1673ffffffffffffffffffffffffffffffffffffffff163373ffffffffffffffffffffffffffffffffffffffff16146108bd576040517f08c379a00000000000000000000000000000000000000000000000000000000081526004016108b490612f51565b60405180910390fd5b60076000838152602001908152602001600020600301543410156108e057600080fd5b826007600084815260200190815260200160002060040160008282546109069190612586565b92505081905550505050565b600061091d826116e5565b9050919050565b61092c6124eb565b6000600760008481526020019081526020016000206040518060c00160405290816000820160009054906101000a900473ffffffffffffffffffffffffffffffffffffffff1673ffffffffffffffffffffffffffffffffffffffff1673ffffffffffffffffffffffffffffffffffffffff1681526020016001820160009054906101000a900473ffffffffffffffffffffffffffffffffffffffff1673ffffffffffffffffffffffffffffffffffffffff1673ffffffffffffffffffffffffffffffffffffffff168152602001600282015481526020016003820154815260200160048201548152602001600582018054610a2690612e9d565b80601f0160208091040260200160405190810160405280929190818152602001828054610a5290612e9d565b8015610a9f5780601f10610a7457610100808354040283529160200191610a9f565b820191906000526020600020905b815481529060010190602001808311610a8257829003601f168201915b505050505081525050905080915050919050565b6000600860008373ffffffffffffffffffffffffffffffffffffffff1673ffffffffffffffffffffffffffffffffffffffff168152602001908152602001600020600084815260200190815260200160002054905092915050565b60008073ffffffffffffffffffffffffffffffffffffffff168273ffffffffffffffffffffffffffffffffffffffff1603610b815760006040517f89c62b64000000000000000000000000000000000000000000000000000000008152600401610b7891906127d5565b60405180910390fd5b600360008373ffffffffffffffffffffffffffffffffffffffff1673ffffffffffffffffffffffffffffffffffffffff168152602001908152602001600020549050919050565b6000600960003373ffffffffffffffffffffffffffffffffffffffff1673ffffffffffffffffffffffffffffffffffffffff16815260200190815260200160002054905090565b606060018054610c1e90612e9d565b80601f0160208091040260200160405190810160405280929190818152602001828054610c4a90612e9d565b8015610c975780601f10610c6c57610100808354040283529160200191610c97565b820191906000526020600020905b815481529060010190602001808311610c7a57829003601f168201915b5050505050905090565b806007600082815260200190815260200160002060000160009054906101000a900473ffffffffffffffffffffffffffffffffffffffff1673ffffffffffffffffffffffffffffffffffffffff163373ffffffffffffffffffffffffffffffffffffffff1614610d46576040517f08c379a0000000000000000000000000000000000000000000000000000000008152600401610d3d90612f51565b60405180910390fd5b6000600860003373ffffffffffffffffffffffffffffffffffffffff1673ffffffffffffffffffffffffffffffffffffffff16815260200190815260200160002060008481526020019081526020016000205411610f95576007600083815260200190815260200160002060030154341015610df7576040517f08c379a0000000000000000000000000000000000000000000000000000000008152600401610dee90612fbd565b60405180910390fd5b6007600083815260200190815260200160002060030154600860003373ffffffffffffffffffffffffffffffffffffffff1673ffffffffffffffffffffffffffffffffffffffff16815260200190815260200160002060008481526020019081526020016000206000828254610e6d9190612586565b92505081905550600760008381526020019081526020016000206003015434610e969190612fdd565b600960003373ffffffffffffffffffffffffffffffffffffffff1673ffffffffffffffffffffffffffffffffffffffff1681526020019081526020016000206000828254610ee49190612586565b925050819055503073ffffffffffffffffffffffffffffffffffffffff166323b872dd306007600086815260200190815260200160002060000160009054906101000a900473ffffffffffffffffffffffffffffffffffffffff16856040518463ffffffff1660e01b8152600401610f5e93929190613070565b600060405180830381600087803b158015610f7857600080fd5b505af1158015610f8c573d6000803e3d6000fd5b50505050610fec565b34600960003373ffffffffffffffffffffffffffffffffffffffff1673ffffffffffffffffffffffffffffffffffffffff1681526020019081526020016000206000828254610fe49190612586565b925050819055505b5050565b611002610ffb6117aa565b83836119de565b5050565b6110118484846106f6565b61101d84848484611b4d565b50505050565b60006007600083815260200190815260200160002060030154600960006007600086815260200190815260200160002060000160009054906101000a900473ffffffffffffffffffffffffffffffffffffffff1673ffffffffffffffffffffffffffffffffffffffff1673ffffffffffffffffffffffffffffffffffffffff16815260200190815260200160002054106110c05760009050611209565b6007600083815260200190815260200160002060030154600960006007600086815260200190815260200160002060000160009054906101000a900473ffffffffffffffffffffffffffffffffffffffff1673ffffffffffffffffffffffffffffffffffffffff1673ffffffffffffffffffffffffffffffffffffffff168152602001908152602001600020600082825461115b9190612fdd565b925050819055506007600083815260200190815260200160002060030154600960006007600086815260200190815260200160002060010160009054906101000a900473ffffffffffffffffffffffffffffffffffffffff1673ffffffffffffffffffffffffffffffffffffffff1673ffffffffffffffffffffffffffffffffffffffff16815260200190815260200160002060008282546111fd9190612586565b92505081905550600190505b919050565b8073ffffffffffffffffffffffffffffffffffffffff166108fc479081150290604051600060405180830381858888f19350505050158015611254573d6000803e3d6000fd5b5050565b6060611263826116e5565b50600060066000848152602001908152602001600020805461128490612e9d565b80601f01602080910402602001604051908101604052809291908181526020018280546112b090612e9d565b80156112fd5780601f106112d2576101008083540402835291602001916112fd565b820191906000526020600020905b8154815290600101906020018083116112e057829003601f168201915b50505050509050600061130e611d04565b90506000815103611323578192505050611366565b6000825111156113585780826040516020016113409291906130e3565b60405160208183030381529060405292505050611366565b61136184611d1b565b925050505b919050565b600960003373ffffffffffffffffffffffffffffffffffffffff1673ffffffffffffffffffffffffffffffffffffffff168152602001908152602001600020548111156113ed576040517f08c379a00000000000000000000000000000000000000000000000000000000081526004016113e490613153565b60405180910390fd5b3373ffffffffffffffffffffffffffffffffffffffff166108fc829081150290604051600060405180830381858888f19350505050158015611433573d6000803e3d6000fd5b5080600960003373ffffffffffffffffffffffffffffffffffffffff1673ffffffffffffffffffffffffffffffffffffffff16815260200190815260200160002060008282546114839190612fdd565b9250508190555050565b60008088905061149d3082611d84565b6114a78184611e7d565b6000600760008b81526020019081526020016000209050888160000160006101000a81548173ffffffffffffffffffffffffffffffffffffffff021916908373ffffffffffffffffffffffffffffffffffffffff160217905550878160010160006101000a81548173ffffffffffffffffffffffffffffffffffffffff021916908373ffffffffffffffffffffffffffffffffffffffff1602179055508681600201819055508581600301819055508481600401819055508192505050979650505050505050565b6000600560008473ffffffffffffffffffffffffffffffffffffffff1673ffffffffffffffffffffffffffffffffffffffff16815260200190815260200160002060008373ffffffffffffffffffffffffffffffffffffffff1673ffffffffffffffffffffffffffffffffffffffff16815260200190815260200160002060009054906101000a900460ff16905092915050565b60007f80ac58cd000000000000000000000000000000000000000000000000000000007bffffffffffffffffffffffffffffffffffffffffffffffffffffffff1916827bffffffffffffffffffffffffffffffffffffffffffffffffffffffff191614806116ce57507f5b5e139f000000000000000000000000000000000000000000000000000000007bffffffffffffffffffffffffffffffffffffffffffffffffffffffff1916827bffffffffffffffffffffffffffffffffffffffffffffffffffffffff1916145b806116de57506116dd82611ed9565b5b9050919050565b6000806116f183611f43565b9050600073ffffffffffffffffffffffffffffffffffffffff168173ffffffffffffffffffffffffffffffffffffffff160361176457826040517f7e27328900000000000000000000000000000000000000000000000000000000815260040161175b9190612a63565b60405180910390fd5b80915050919050565b60006004600083815260200190815260200160002060009054906101000a900473ffffffffffffffffffffffffffffffffffffffff169050919050565b600033905090565b6117bf8383836001611f80565b505050565b6000806117d084611f43565b9050600073ffffffffffffffffffffffffffffffffffffffff168373ffffffffffffffffffffffffffffffffffffffff161461181257611811818486612145565b5b600073ffffffffffffffffffffffffffffffffffffffff168173ffffffffffffffffffffffffffffffffffffffff16146118a357611854600085600080611f80565b6001600360008373ffffffffffffffffffffffffffffffffffffffff1673ffffffffffffffffffffffffffffffffffffffff168152602001908152602001600020600082825403925050819055505b600073ffffffffffffffffffffffffffffffffffffffff168573ffffffffffffffffffffffffffffffffffffffff1614611926576001600360008773ffffffffffffffffffffffffffffffffffffffff1673ffffffffffffffffffffffffffffffffffffffff168152602001908152602001600020600082825401925050819055505b846002600086815260200190815260200160002060006101000a81548173ffffffffffffffffffffffffffffffffffffffff021916908373ffffffffffffffffffffffffffffffffffffffff160217905550838573ffffffffffffffffffffffffffffffffffffffff168273ffffffffffffffffffffffffffffffffffffffff167fddf252ad1be2c89b69c2b068fc378daa952ba7f163c4a11628f55a4df523b3ef60405160405180910390a4809150509392505050565b600073ffffffffffffffffffffffffffffffffffffffff168273ffffffffffffffffffffffffffffffffffffffff1603611a4f57816040517f5b08ba18000000000000000000000000000000000000000000000000000000008152600401611a4691906127d5565b60405180910390fd5b80600560008573ffffffffffffffffffffffffffffffffffffffff1673ffffffffffffffffffffffffffffffffffffffff16815260200190815260200160002060008473ffffffffffffffffffffffffffffffffffffffff1673ffffffffffffffffffffffffffffffffffffffff16815260200190815260200160002060006101000a81548160ff0219169083151502179055508173ffffffffffffffffffffffffffffffffffffffff168373ffffffffffffffffffffffffffffffffffffffff167f17307eab39ab6107e8899845ad3d59bd9653f200f220920489ca2b5937696c3183604051611b40919061266e565b60405180910390a3505050565b60008373ffffffffffffffffffffffffffffffffffffffff163b1115611cfe578273ffffffffffffffffffffffffffffffffffffffff1663150b7a02611b916117aa565b8685856040518563ffffffff1660e01b8152600401611bb394939291906131c8565b6020604051808303816000875af1925050508015611bef57506040513d601f19601f82011682018060405250810190611bec9190613229565b60015b611c73573d8060008114611c1f576040519150601f19603f3d011682016040523d82523d6000602084013e611c24565b606091505b506000815103611c6b57836040517f64a0ae92000000000000000000000000000000000000000000000000000000008152600401611c6291906127d5565b60405180910390fd5b805181602001fd5b63150b7a0260e01b7bffffffffffffffffffffffffffffffffffffffffffffffffffffffff1916817bffffffffffffffffffffffffffffffffffffffffffffffffffffffff191614611cfc57836040517f64a0ae92000000000000000000000000000000000000000000000000000000008152600401611cf391906127d5565b60405180910390fd5b505b50505050565b606060405180602001604052806000815250905090565b6060611d26826116e5565b506000611d31611d04565b90506000815111611d515760405180602001604052806000815250611d7c565b80611d5b84612209565b604051602001611d6c9291906130e3565b6040516020818303038152906040525b915050919050565b600073ffffffffffffffffffffffffffffffffffffffff168273ffffffffffffffffffffffffffffffffffffffff1603611df65760006040517f64a0ae92000000000000000000000000000000000000000000000000000000008152600401611ded91906127d5565b60405180910390fd5b6000611e04838360006117c4565b9050600073ffffffffffffffffffffffffffffffffffffffff168173ffffffffffffffffffffffffffffffffffffffff1614611e785760006040517f73c6ac6e000000000000000000000000000000000000000000000000000000008152600401611e6f91906127d5565b60405180910390fd5b505050565b80600660008481526020019081526020016000209081611e9d91906133f8565b507ff8e1a15aba9398e019f0b49df1a4fde98ee17ae345cb5f6b5e2c27f5033e8ce782604051611ecd9190612a63565b60405180910390a15050565b60007f01ffc9a7000000000000000000000000000000000000000000000000000000007bffffffffffffffffffffffffffffffffffffffffffffffffffffffff1916827bffffffffffffffffffffffffffffffffffffffffffffffffffffffff1916149050919050565b60006002600083815260200190815260200160002060009054906101000a900473ffffffffffffffffffffffffffffffffffffffff169050919050565b8080611fb95750600073ffffffffffffffffffffffffffffffffffffffff168273ffffffffffffffffffffffffffffffffffffffff1614155b156120ed576000611fc9846116e5565b9050600073ffffffffffffffffffffffffffffffffffffffff168373ffffffffffffffffffffffffffffffffffffffff161415801561203457508273ffffffffffffffffffffffffffffffffffffffff168173ffffffffffffffffffffffffffffffffffffffff1614155b80156120475750612045818461156f565b155b1561208957826040517fa9fbf51f00000000000000000000000000000000000000000000000000000000815260040161208091906127d5565b60405180910390fd5b81156120eb57838573ffffffffffffffffffffffffffffffffffffffff168273ffffffffffffffffffffffffffffffffffffffff167f8c5be1e5ebec7d5bd14f71427d1e84f3dd0314c0f7b2291e5b200ac8c7c3b92560405160405180910390a45b505b836004600085815260200190815260200160002060006101000a81548173ffffffffffffffffffffffffffffffffffffffff021916908373ffffffffffffffffffffffffffffffffffffffff16021790555050505050565b6121508383836122d7565b61220457600073ffffffffffffffffffffffffffffffffffffffff168373ffffffffffffffffffffffffffffffffffffffff16036121c557806040517f7e2732890000000000000000000000000000000000000000000000000000000081526004016121bc9190612a63565b60405180910390fd5b81816040517f177e802f0000000000000000000000000000000000000000000000000000000081526004016121fb9291906134ca565b60405180910390fd5b505050565b60606000600161221884612398565b01905060008167ffffffffffffffff81111561223757612236612b21565b5b6040519080825280601f01601f1916602001820160405280156122695781602001600182028036833780820191505090505b509050600082602001820190505b6001156122cc578080600190039150507f3031323334353637383961626364656600000000000000000000000000000000600a86061a8153600a85816122c0576122bf6134f3565b5b04945060008503612277575b819350505050919050565b60008073ffffffffffffffffffffffffffffffffffffffff168373ffffffffffffffffffffffffffffffffffffffff161415801561238f57508273ffffffffffffffffffffffffffffffffffffffff168473ffffffffffffffffffffffffffffffffffffffff161480612350575061234f848461156f565b5b8061238e57508273ffffffffffffffffffffffffffffffffffffffff166123768361176d565b73ffffffffffffffffffffffffffffffffffffffff16145b5b90509392505050565b600080600090507a184f03e93ff9f4daa797ed6e38ed64bf6a1f01000000000000000083106123f6577a184f03e93ff9f4daa797ed6e38ed64bf6a1f01000000000000000083816123ec576123eb6134f3565b5b0492506040810190505b6d04ee2d6d415b85acef81000000008310612433576d04ee2d6d415b85acef81000000008381612429576124286134f3565b5b0492506020810190505b662386f26fc10000831061246257662386f26fc100008381612458576124576134f3565b5b0492506010810190505b6305f5e100831061248b576305f5e1008381612481576124806134f3565b5b0492506008810190505b61271083106124b05761271083816124a6576124a56134f3565b5b0492506004810190505b606483106124d357606483816124c9576124c86134f3565b5b0492506002810190505b600a83106124e2576001810190505b80915050919050565b6040518060c00160405280600073ffffffffffffffffffffffffffffffffffffffff168152602001600073ffffffffffffffffffffffffffffffffffffffff168152602001600081526020016000815260200160008152602001606081525090565b6000819050919050565b7f4e487b7100000000000000000000000000000000000000000000000000000000600052601160045260246000fd5b60006125918261254d565b915061259c8361254d565b92508282019050808211156125b4576125b3612557565b5b92915050565b6000604051905090565b600080fd5b600080fd5b60007fffffffff0000000000000000000000000000000000000000000000000000000082169050919050565b612603816125ce565b811461260e57600080fd5b50565b600081359050612620816125fa565b92915050565b60006020828403121561263c5761263b6125c4565b5b600061264a84828501612611565b91505092915050565b60008115159050919050565b61266881612653565b82525050565b6000602082019050612683600083018461265f565b92915050565b600081519050919050565b600082825260208201905092915050565b60005b838110156126c35780820151818401526020810190506126a8565b60008484015250505050565b6000601f19601f8301169050919050565b60006126eb82612689565b6126f58185612694565b93506127058185602086016126a5565b61270e816126cf565b840191505092915050565b6000602082019050818103600083015261273381846126e0565b905092915050565b6127448161254d565b811461274f57600080fd5b50565b6000813590506127618161273b565b92915050565b60006020828403121561277d5761277c6125c4565b5b600061278b84828501612752565b91505092915050565b600073ffffffffffffffffffffffffffffffffffffffff82169050919050565b60006127bf82612794565b9050919050565b6127cf816127b4565b82525050565b60006020820190506127ea60008301846127c6565b92915050565b6127f9816127b4565b811461280457600080fd5b50565b600081359050612816816127f0565b92915050565b60008060408385031215612833576128326125c4565b5b600061284185828601612807565b925050602061285285828601612752565b9150509250929050565b600080600060608486031215612875576128746125c4565b5b600061288386828701612807565b935050602061289486828701612807565b92505060406128a586828701612752565b9150509250925092565b600080604083850312156128c6576128c56125c4565b5b60006128d485828601612752565b92505060206128e585828601612752565b9150509250929050565b60006128fa82612794565b9050919050565b61290a816128ef565b82525050565b6129198161254d565b82525050565b600082825260208201905092915050565b600061293b82612689565b612945818561291f565b93506129558185602086016126a5565b61295e816126cf565b840191505092915050565b600060c0830160008301516129816000860182612901565b5060208301516129946020860182612901565b5060408301516129a76040860182612910565b5060608301516129ba6060860182612910565b5060808301516129cd6080860182612910565b5060a083015184820360a08601526129e58282612930565b9150508091505092915050565b60006020820190508181036000830152612a0c8184612969565b905092915050565b60008060408385031215612a2b57612a2a6125c4565b5b6000612a3985828601612752565b9250506020612a4a85828601612807565b9150509250929050565b612a5d8161254d565b82525050565b6000602082019050612a786000830184612a54565b92915050565b600060208284031215612a9457612a936125c4565b5b6000612aa284828501612807565b91505092915050565b612ab481612653565b8114612abf57600080fd5b50565b600081359050612ad181612aab565b92915050565b60008060408385031215612aee57612aed6125c4565b5b6000612afc85828601612807565b9250506020612b0d85828601612ac2565b9150509250929050565b600080fd5b600080fd5b7f4e487b7100000000000000000000000000000000000000000000000000000000600052604160045260246000fd5b612b59826126cf565b810181811067ffffffffffffffff82111715612b7857612b77612b21565b5b80604052505050565b6000612b8b6125ba565b9050612b978282612b50565b919050565b600067ffffffffffffffff821115612bb757612bb6612b21565b5b612bc0826126cf565b9050602081019050919050565b82818337600083830152505050565b6000612bef612bea84612b9c565b612b81565b905082815260208101848484011115612c0b57612c0a612b1c565b5b612c16848285612bcd565b509392505050565b600082601f830112612c3357612c32612b17565b5b8135612c43848260208601612bdc565b91505092915050565b60008060008060808587031215612c6657612c656125c4565b5b6000612c7487828801612807565b9450506020612c8587828801612807565b9350506040612c9687828801612752565b925050606085013567ffffffffffffffff811115612cb757612cb66125c9565b5b612cc387828801612c1e565b91505092959194509250565b600067ffffffffffffffff821115612cea57612ce9612b21565b5b612cf3826126cf565b9050602081019050919050565b6000612d13612d0e84612ccf565b612b81565b905082815260208101848484011115612d2f57612d2e612b1c565b5b612d3a848285612bcd565b509392505050565b600082601f830112612d5757612d56612b17565b5b8135612d67848260208601612d00565b91505092915050565b600080600080600080600060e0888a031215612d8f57612d8e6125c4565b5b6000612d9d8a828b01612752565b9750506020612dae8a828b01612807565b9650506040612dbf8a828b01612807565b9550506060612dd08a828b01612752565b9450506080612de18a828b01612752565b93505060a0612df28a828b01612752565b92505060c088013567ffffffffffffffff811115612e1357612e126125c9565b5b612e1f8a828b01612d42565b91505092959891949750929550565b60008060408385031215612e4557612e446125c4565b5b6000612e5385828601612807565b9250506020612e6485828601612807565b9150509250929050565b7f4e487b7100000000000000000000000000000000000000000000000000000000600052602260045260246000fd5b60006002820490506001821680612eb557607f821691505b602082108103612ec857612ec7612e6e565b5b50919050565b6000606082019050612ee360008301866127c6565b612ef06020830185612a54565b612efd60408301846127c6565b949350505050565b7f4f6e6c792072656e7465722063616e2063616c6c2074686973206d6574686f64600082015250565b6000612f3b602083612694565b9150612f4682612f05565b602082019050919050565b60006020820190508181036000830152612f6a81612f2e565b9050919050565b7f4465706f736974206e6f7420656e6f7567680000000000000000000000000000600082015250565b6000612fa7601283612694565b9150612fb282612f71565b602082019050919050565b60006020820190508181036000830152612fd681612f9a565b9050919050565b6000612fe88261254d565b9150612ff38361254d565b925082820390508181111561300b5761300a612557565b5b92915050565b6000819050919050565b600061303661303161302c84612794565b613011565b612794565b9050919050565b60006130488261301b565b9050919050565b600061305a8261303d565b9050919050565b61306a8161304f565b82525050565b600060608201905061308560008301866127c6565b6130926020830185613061565b61309f6040830184612a54565b949350505050565b600081905092915050565b60006130bd82612689565b6130c781856130a7565b93506130d78185602086016126a5565b80840191505092915050565b60006130ef82856130b2565b91506130fb82846130b2565b91508190509392505050565b7f42616c616e6365206e6f7420656e6f7567680000000000000000000000000000600082015250565b600061313d601283612694565b915061314882613107565b602082019050919050565b6000602082019050818103600083015261316c81613130565b9050919050565b600081519050919050565b600082825260208201905092915050565b600061319a82613173565b6131a4818561317e565b93506131b48185602086016126a5565b6131bd816126cf565b840191505092915050565b60006080820190506131dd60008301876127c6565b6131ea60208301866127c6565b6131f76040830185612a54565b8181036060830152613209818461318f565b905095945050505050565b600081519050613223816125fa565b92915050565b60006020828403121561323f5761323e6125c4565b5b600061324d84828501613214565b91505092915050565b60008190508160005260206000209050919050565b60006020601f8301049050919050565b600082821b905092915050565b6000600883026132b87fffffffffffffffffffffffffffffffffffffffffffffffffffffffffffffffff8261327b565b6132c2868361327b565b95508019841693508086168417925050509392505050565b60006132f56132f06132eb8461254d565b613011565b61254d565b9050919050565b6000819050919050565b61330f836132da565b61332361331b826132fc565b848454613288565b825550505050565b600090565b61333861332b565b613343818484613306565b505050565b5b818110156133675761335c600082613330565b600181019050613349565b5050565b601f8211156133ac5761337d81613256565b6133868461326b565b81016020851015613395578190505b6133a96133a18561326b565b830182613348565b50505b505050565b600082821c905092915050565b60006133cf600019846008026133b1565b1980831691505092915050565b60006133e883836133be565b9150826002028217905092915050565b61340182612689565b67ffffffffffffffff81111561341a57613419612b21565b5b6134248254612e9d565b61342f82828561336b565b600060209050601f8311600181146134625760008415613450578287015190505b61345a85826133dc565b8655506134c2565b601f19841661347086613256565b60005b8281101561349857848901518255600182019150602085019450602081019050613473565b868310156134b557848901516134b1601f8916826133be565b8355505b6001600288020188555050505b505050505050565b60006040820190506134df60008301856127c6565b6134ec6020830184612a54565b9392505050565b7f4e487b7100000000000000000000000000000000000000000000000000000000600052601260045260246000fdfea2646970667358221220b5d4841c75eb0a4374c2b7be849c9efca0d082275321b1b56c7ceccc7e02b18e64736f6c63430008140033",
  "linkReferences": {},
  "deployedLinkReferences": {}
}