{
  "_format": "hh-sol-artifact-1",
  "contractName": "SmartContract",
  "sourceName": "contracts/SmartContract.sol",
  "abi": [
    {
      "inputs": [],
      "stateMutability": "nonpayable",
      "type": "constructor"
    },
    {
      "inputs": [
        {
          "internalType": "address",
          "name": "sender",
          "type": "address"
        },
        {
          "internalType": "uint256",
          "name": "tokenId",
          "type": "uint256"
        },
        {
          "internalType": "address",
          "name": "owner",
          "type": "address"
        }
      ],
      "name": "ERC721IncorrectOwner",
      "type": "error"
    },
    {
      "inputs": [
        {
          "internalType": "address",
          "name": "operator",
          "type": "address"
        },
        {
          "internalType": "uint256",
          "name": "tokenId",
          "type": "uint256"
        }
      ],
      "name": "ERC721InsufficientApproval",
      "type": "error"
    },
    {
      "inputs": [
        {
          "internalType": "address",
          "name": "approver",
          "type": "address"
        }
      ],
      "name": "ERC721InvalidApprover",
      "type": "error"
    },
    {
      "inputs": [
        {
          "internalType": "address",
          "name": "operator",
          "type": "address"
        }
      ],
      "name": "ERC721InvalidOperator",
      "type": "error"
    },
    {
      "inputs": [
        {
          "internalType": "address",
          "name": "owner",
          "type": "address"
        }
      ],
      "name": "ERC721InvalidOwner",
      "type": "error"
    },
    {
      "inputs": [
        {
          "internalType": "address",
          "name": "receiver",
          "type": "address"
        }
      ],
      "name": "ERC721InvalidReceiver",
      "type": "error"
    },
    {
      "inputs": [
        {
          "internalType": "address",
          "name": "sender",
          "type": "address"
        }
      ],
      "name": "ERC721InvalidSender",
      "type": "error"
    },
    {
      "inputs": [
        {
          "internalType": "uint256",
          "name": "tokenId",
          "type": "uint256"
        }
      ],
      "name": "ERC721NonexistentToken",
      "type": "error"
    },
    {
      "anonymous": false,
      "inputs": [
        {
          "indexed": true,
          "internalType": "address",
          "name": "owner",
          "type": "address"
        },
        {
          "indexed": true,
          "internalType": "address",
          "name": "approved",
          "type": "address"
        },
        {
          "indexed": true,
          "internalType": "uint256",
          "name": "tokenId",
          "type": "uint256"
        }
      ],
      "name": "Approval",
      "type": "event"
    },
    {
      "anonymous": false,
      "inputs": [
        {
          "indexed": true,
          "internalType": "address",
          "name": "owner",
          "type": "address"
        },
        {
          "indexed": true,
          "internalType": "address",
          "name": "operator",
          "type": "address"
        },
        {
          "indexed": false,
          "internalType": "bool",
          "name": "approved",
          "type": "bool"
        }
      ],
      "name": "ApprovalForAll",
      "type": "event"
    },
    {
      "anonymous": false,
      "inputs": [
        {
          "indexed": false,
          "internalType": "uint256",
          "name": "_fromTokenId",
          "type": "uint256"
        },
        {
          "indexed": false,
          "internalType": "uint256",
          "name": "_toTokenId",
          "type": "uint256"
        }
      ],
      "name": "BatchMetadataUpdate",
      "type": "event"
    },
    {
      "anonymous": false,
      "inputs": [
        {
          "indexed": false,
          "internalType": "uint256",
          "name": "_tokenId",
          "type": "uint256"
        }
      ],
      "name": "MetadataUpdate",
      "type": "event"
    },
    {
      "anonymous": false,
      "inputs": [
        {
          "indexed": true,
          "internalType": "address",
          "name": "from",
          "type": "address"
        },
        {
          "indexed": true,
          "internalType": "address",
          "name": "to",
          "type": "address"
        },
        {
          "indexed": true,
          "internalType": "uint256",
          "name": "tokenId",
          "type": "uint256"
        }
      ],
      "name": "Transfer",
      "type": "event"
    },
    {
      "stateMutability": "payable",
      "type": "fallback"
    },
    {
      "inputs": [
        {
          "internalType": "address",
          "name": "to",
          "type": "address"
        },
        {
          "internalType": "uint256",
          "name": "tokenId",
          "type": "uint256"
        }
      ],
      "name": "approve",
      "outputs": [],
      "stateMutability": "nonpayable",
      "type": "function"
    },
    {
      "inputs": [
        {
          "internalType": "address",
          "name": "owner",
          "type": "address"
        }
      ],
      "name": "balanceOf",
      "outputs": [
        {
          "internalType": "uint256",
          "name": "",
          "type": "uint256"
        }
      ],
      "stateMutability": "view",
      "type": "function"
    },
    {
      "inputs": [
        {
          "internalType": "address",
          "name": "_to",
          "type": "address"
        }
      ],
      "name": "close",
      "outputs": [],
      "stateMutability": "nonpayable",
      "type": "function"
    },
    {
      "inputs": [
        {
          "internalType": "uint256",
          "name": "id",
          "type": "uint256"
        }
      ],
      "name": "depositContract",
      "outputs": [],
      "stateMutability": "payable",
      "type": "function"
    },
    {
      "inputs": [
        {
          "internalType": "uint256",
          "name": "tokenId",
          "type": "uint256"
        }
      ],
      "name": "getApproved",
      "outputs": [
        {
          "internalType": "address",
          "name": "",
          "type": "address"
        }
      ],
      "stateMutability": "view",
      "type": "function"
    },
    {
      "inputs": [
        {
          "internalType": "uint256",
          "name": "id",
          "type": "uint256"
        }
      ],
      "name": "getContract",
      "outputs": [
        {
          "components": [
            {
              "internalType": "address payable",
              "name": "renter",
              "type": "address"
            },
            {
              "internalType": "address payable",
              "name": "seller",
              "type": "address"
            },
            {
              "internalType": "uint256",
              "name": "reId",
              "type": "uint256"
            },
            {
              "internalType": "uint256",
              "name": "rentCost",
              "type": "uint256"
            },
            {
              "internalType": "uint256",
              "name": "duration",
              "type": "uint256"
            },
            {
              "internalType": "string",
              "name": "urlContract",
              "type": "string"
            }
          ],
          "internalType": "struct SmartContract.ContractEntity",
          "name": "",
          "type": "tuple"
        }
      ],
      "stateMutability": "view",
      "type": "function"
    },
    {
      "inputs": [
        {
          "internalType": "uint256",
          "name": "scId",
          "type": "uint256"
        },
        {
          "internalType": "address",
          "name": "renterAddress",
          "type": "address"
        }
      ],
      "name": "getDepositContractByRenter",
      "outputs": [
        {
          "internalType": "uint256",
          "name": "",
          "type": "uint256"
        }
      ],
      "stateMutability": "view",
      "type": "function"
    },
    {
      "inputs": [],
      "name": "getbalanceOf",
      "outputs": [
        {
          "internalType": "uint256",
          "name": "",
          "type": "uint256"
        }
      ],
      "stateMutability": "view",
      "type": "function"
    },
    {
      "inputs": [
        {
          "internalType": "address",
          "name": "owner",
          "type": "address"
        },
        {
          "internalType": "address",
          "name": "operator",
          "type": "address"
        }
      ],
      "name": "isApprovedForAll",
      "outputs": [
        {
          "internalType": "bool",
          "name": "",
          "type": "bool"
        }
      ],
      "stateMutability": "view",
      "type": "function"
    },
    {
      "inputs": [
        {
          "internalType": "uint256",
          "name": "_newItemId",
          "type": "uint256"
        },
        {
          "internalType": "address",
          "name": "_renterAddress",
          "type": "address"
        },
        {
          "internalType": "address",
          "name": "_sellerAdsress",
          "type": "address"
        },
        {
          "internalType": "uint256",
          "name": "_reId",
          "type": "uint256"
        },
        {
          "internalType": "uint256",
          "name": "_rentCost",
          "type": "uint256"
        },
        {
          "internalType": "uint256",
          "name": "_duration",
          "type": "uint256"
        },
        {
          "internalType": "string",
          "name": "uri",
          "type": "string"
        }
      ],
      "name": "mint",
      "outputs": [],
      "stateMutability": "nonpayable",
      "type": "function"
    },
    {
      "inputs": [],
      "name": "name",
      "outputs": [
        {
          "internalType": "string",
          "name": "",
          "type": "string"
        }
      ],
      "stateMutability": "view",
      "type": "function"
    },
    {
      "inputs": [
        {
          "internalType": "uint256",
          "name": "tokenId",
          "type": "uint256"
        }
      ],
      "name": "ownerOf",
      "outputs": [
        {
          "internalType": "address",
          "name": "",
          "type": "address"
        }
      ],
      "stateMutability": "view",
      "type": "function"
    },
    {
      "inputs": [
        {
          "internalType": "uint256",
          "name": "id",
          "type": "uint256"
        }
      ],
      "name": "payRentCost",
      "outputs": [],
      "stateMutability": "nonpayable",
      "type": "function"
    },
    {
      "inputs": [
        {
          "internalType": "uint256",
          "name": "_time",
          "type": "uint256"
        },
        {
          "internalType": "uint256",
          "name": "id",
          "type": "uint256"
        }
      ],
      "name": "renewal",
      "outputs": [],
      "stateMutability": "payable",
      "type": "function"
    },
    {
      "inputs": [
        {
          "internalType": "address",
          "name": "from",
          "type": "address"
        },
        {
          "internalType": "address",
          "name": "to",
          "type": "address"
        },
        {
          "internalType": "uint256",
          "name": "tokenId",
          "type": "uint256"
        }
      ],
      "name": "safeTransferFrom",
      "outputs": [],
      "stateMutability": "nonpayable",
      "type": "function"
    },
    {
      "inputs": [
        {
          "internalType": "address",
          "name": "from",
          "type": "address"
        },
        {
          "internalType": "address",
          "name": "to",
          "type": "address"
        },
        {
          "internalType": "uint256",
          "name": "tokenId",
          "type": "uint256"
        },
        {
          "internalType": "bytes",
          "name": "data",
          "type": "bytes"
        }
      ],
      "name": "safeTransferFrom",
      "outputs": [],
      "stateMutability": "nonpayable",
      "type": "function"
    },
    {
      "inputs": [
        {
          "internalType": "address",
          "name": "operator",
          "type": "address"
        },
        {
          "internalType": "bool",
          "name": "approved",
          "type": "bool"
        }
      ],
      "name": "setApprovalForAll",
      "outputs": [],
      "stateMutability": "nonpayable",
      "type": "function"
    },
    {
      "inputs": [
        {
          "internalType": "bytes4",
          "name": "interfaceId",
          "type": "bytes4"
        }
      ],
      "name": "supportsInterface",
      "outputs": [
        {
          "internalType": "bool",
          "name": "",
          "type": "bool"
        }
      ],
      "stateMutability": "view",
      "type": "function"
    },
    {
      "inputs": [],
      "name": "symbol",
      "outputs": [
        {
          "internalType": "string",
          "name": "",
          "type": "string"
        }
      ],
      "stateMutability": "view",
      "type": "function"
    },
    {
      "inputs": [
        {
          "internalType": "uint256",
          "name": "tokenId",
          "type": "uint256"
        }
      ],
      "name": "tokenURI",
      "outputs": [
        {
          "internalType": "string",
          "name": "",
          "type": "string"
        }
      ],
      "stateMutability": "view",
      "type": "function"
    },
    {
      "inputs": [
        {
          "internalType": "address",
          "name": "from",
          "type": "address"
        },
        {
          "internalType": "address",
          "name": "to",
          "type": "address"
        },
        {
          "internalType": "uint256",
          "name": "tokenId",
          "type": "uint256"
        }
      ],
      "name": "transferFrom",
      "outputs": [],
      "stateMutability": "nonpayable",
      "type": "function"
    },
    {
      "inputs": [
        {
          "internalType": "uint256",
          "name": "value",
          "type": "uint256"
        }
      ],
      "name": "withdrawPositRenter",
      "outputs": [],
      "stateMutability": "nonpayable",
      "type": "function"
    },
    {
      "stateMutability": "payable",
      "type": "receive"
    }
  ],
  "bytecode": "0x60806040523480156200001157600080fd5b506040518060400160405280600e81526020017f536d61727420436f6e74726163740000000000000000000000000000000000008152506040518060400160405280600281526020017f534300000000000000000000000000000000000000000000000000000000000081525081600090816200008f919062000343565b508060019081620000a1919062000343565b505050620000c06732792414673f969b60c01b620000c660201b60201c565b6200042a565b50565b600081519050919050565b7f4e487b7100000000000000000000000000000000000000000000000000000000600052604160045260246000fd5b7f4e487b7100000000000000000000000000000000000000000000000000000000600052602260045260246000fd5b600060028204905060018216806200014b57607f821691505b60208210810362000161576200016062000103565b5b50919050565b60008190508160005260206000209050919050565b60006020601f8301049050919050565b600082821b905092915050565b600060088302620001cb7fffffffffffffffffffffffffffffffffffffffffffffffffffffffffffffffff826200018c565b620001d786836200018c565b95508019841693508086168417925050509392505050565b6000819050919050565b6000819050919050565b6000620002246200021e6200021884620001ef565b620001f9565b620001ef565b9050919050565b6000819050919050565b620002408362000203565b620002586200024f826200022b565b84845462000199565b825550505050565b600090565b6200026f62000260565b6200027c81848462000235565b505050565b5b81811015620002a4576200029860008262000265565b60018101905062000282565b5050565b601f821115620002f357620002bd8162000167565b620002c8846200017c565b81016020851015620002d8578190505b620002f0620002e7856200017c565b83018262000281565b50505b505050565b600082821c905092915050565b60006200031860001984600802620002f8565b1980831691505092915050565b600062000333838362000305565b9150826002028217905092915050565b6200034e82620000c9565b67ffffffffffffffff8111156200036a5762000369620000d4565b5b62000376825462000132565b62000383828285620002a8565b600060209050601f831160018114620003bb5760008415620003a6578287015190505b620003b2858262000325565b86555062000422565b601f198416620003cb8662000167565b60005b82811015620003f557848901518255600182019150602085019450602081019050620003ce565b8683101562000415578489015162000411601f89168262000305565b8355505b6001600288020188555050505b505050505050565b613c0d806200043a6000396000f3fe6080604052600436106101395760003560e01c806370a08231116100ab578063b991aa031161006f578063b991aa031461051c578063c74073a114610545578063c87b56dd1461056e578063e0ea9c34146105ab578063e54b0768146105d4578063e985e9c5146105fd576101a9565b806370a082311461044657806395d89b41146104835780639b845899146104ae578063a22cb465146104ca578063b88d4fde146104f3576101a9565b8063402a71d7116100fd578063402a71d71461031f57806342842e0e1461034a5780636135281a146103735780636352211e1461038f5780636ebc8c86146103cc5780636ef49dfc14610409576101a9565b806301ffc9a71461022857806306fdde0314610265578063081812fc14610290578063095ea7b3146102cd57806323b872dd146102f6576101a9565b366101a95761015267a6dc2b2e7e707da960c01b61063a565b34600960003373ffffffffffffffffffffffffffffffffffffffff1673ffffffffffffffffffffffffffffffffffffffff16815260200190815260200160002060008282546101a19190612bcf565b925050819055005b6101bd67a7cf797fc0a79b3360c01b61063a565b6101d167f6d5561b4f1db4c660c01b61063a565b34600960003373ffffffffffffffffffffffffffffffffffffffff1673ffffffffffffffffffffffffffffffffffffffff16815260200190815260200160002060008282546102209190612bcf565b925050819055005b34801561023457600080fd5b5061024f600480360381019061024a9190612c6f565b61063d565b60405161025c9190612cb7565b60405180910390f35b34801561027157600080fd5b5061027a61069e565b6040516102879190612d62565b60405180910390f35b34801561029c57600080fd5b506102b760048036038101906102b29190612db0565b610730565b6040516102c49190612e1e565b60405180910390f35b3480156102d957600080fd5b506102f460048036038101906102ef9190612e65565b61074c565b005b34801561030257600080fd5b5061031d60048036038101906103189190612ea5565b610762565b005b34801561032b57600080fd5b50610334610864565b6040516103419190612f07565b60405180910390f35b34801561035657600080fd5b50610371600480360381019061036c9190612ea5565b6108e7565b005b61038d60048036038101906103889190612f22565b610907565b005b34801561039b57600080fd5b506103b660048036038101906103b19190612db0565b610aa6565b6040516103c39190612e1e565b60405180910390f35b3480156103d857600080fd5b506103f360048036038101906103ee9190612db0565b610ab8565b6040516104009190613065565b60405180910390f35b34801561041557600080fd5b50610430600480360381019061042b9190613087565b610cab565b60405161043d9190612f07565b60405180910390f35b34801561045257600080fd5b5061046d600480360381019061046891906130c7565b610d42565b60405161047a9190612f07565b60405180910390f35b34801561048f57600080fd5b50610498610dfc565b6040516104a59190612d62565b60405180910390f35b6104c860048036038101906104c39190612db0565b610e8e565b005b3480156104d657600080fd5b506104f160048036038101906104ec9190613120565b611395565b005b3480156104ff57600080fd5b5061051a60048036038101906105159190613295565b6113ab565b005b34801561052857600080fd5b50610543600480360381019061053e9190612db0565b6113c8565b005b34801561055157600080fd5b5061056c600480360381019061056791906130c7565b611669565b005b34801561057a57600080fd5b5061059560048036038101906105909190612db0565b6116ef565b6040516105a29190612d62565b60405180910390f35b3480156105b757600080fd5b506105d260048036038101906105cd9190612db0565b611802565b005b3480156105e057600080fd5b506105fb60048036038101906105f691906133b9565b6119c4565b005b34801561060957600080fd5b50610624600480360381019061061f9190613477565b611bb8565b6040516106319190612cb7565b60405180910390f35b50565b6000634906490660e01b7bffffffffffffffffffffffffffffffffffffffffffffffffffffffff1916827bffffffffffffffffffffffffffffffffffffffffffffffffffffffff19161480610697575061069682611c4c565b5b9050919050565b6060600080546106ad906134e6565b80601f01602080910402602001604051908101604052809291908181526020018280546106d9906134e6565b80156107265780601f106106fb57610100808354040283529160200191610726565b820191906000526020600020905b81548152906001019060200180831161070957829003601f168201915b5050505050905090565b600061073b82611d2e565b5061074582611db6565b9050919050565b61075e8282610759611df3565b611dfb565b5050565b600073ffffffffffffffffffffffffffffffffffffffff168273ffffffffffffffffffffffffffffffffffffffff16036107d45760006040517f64a0ae920000000000000000000000000000000000000000000000000000000081526004016107cb9190612e1e565b60405180910390fd5b60006107e883836107e3611df3565b611e0d565b90508373ffffffffffffffffffffffffffffffffffffffff168173ffffffffffffffffffffffffffffffffffffffff161461085e578382826040517f64283d7b00000000000000000000000000000000000000000000000000000000815260040161085593929190613517565b60405180910390fd5b50505050565b600061087a6723aa4d7777b3927260c01b61063a565b61088e67c01b0f468eafbdea60c01b61063a565b6108a2674cb29661060b82ea60c01b61063a565b600960003373ffffffffffffffffffffffffffffffffffffffff1673ffffffffffffffffffffffffffffffffffffffff16815260200190815260200160002054905090565b610902838383604051806020016040528060008152506113ab565b505050565b61091b674556aed1b707043a60c01b61063a565b80610930671f9eface14e0974d60c01b61063a565b610944679f898c31b1a4512b60c01b61063a565b6109586739478f311049572160c01b61063a565b61096c67474744a340ed8cad60c01b61063a565b6007600082815260200190815260200160002060000160009054906101000a900473ffffffffffffffffffffffffffffffffffffffff1673ffffffffffffffffffffffffffffffffffffffff163373ffffffffffffffffffffffffffffffffffffffff1614610a10576040517f08c379a0000000000000000000000000000000000000000000000000000000008152600401610a079061359a565b60405180910390fd5b610a2467b766db7976c9a4ae60c01b61063a565b610a386766690d89560f3f2360c01b61063a565b610a4c67972e6ce193cfb02060c01b61063a565b610a6067e769b1746eeb655660c01b61063a565b610a746745978893e6484c5260c01b61063a565b82600760008481526020019081526020016000206004016000828254610a9a9190612bcf565b92505081905550505050565b6000610ab182611d2e565b9050919050565b610ac0612b34565b610ad467bf2501b47b20468b60c01b61063a565b610ae8679fef1a1e9aa14c0360c01b61063a565b610afc67b9bf0765a6ab986a60c01b61063a565b6000600760008481526020019081526020016000206040518060c00160405290816000820160009054906101000a900473ffffffffffffffffffffffffffffffffffffffff1673ffffffffffffffffffffffffffffffffffffffff1673ffffffffffffffffffffffffffffffffffffffff1681526020016001820160009054906101000a900473ffffffffffffffffffffffffffffffffffffffff1673ffffffffffffffffffffffffffffffffffffffff1673ffffffffffffffffffffffffffffffffffffffff168152602001600282015481526020016003820154815260200160048201548152602001600582018054610bf6906134e6565b80601f0160208091040260200160405190810160405280929190818152602001828054610c22906134e6565b8015610c6f5780601f10610c4457610100808354040283529160200191610c6f565b820191906000526020600020905b815481529060010190602001808311610c5257829003601f168201915b5050505050815250509050610c8e672421782196d8a18860c01b61063a565b610ca267452c8ad45904786660c01b61063a565b80915050919050565b6000610cc167a142f8a0e32ae0ae60c01b61063a565b610cd567bf1f38c14914f34160c01b61063a565b610ce9674fff02f6bdce695260c01b61063a565b600860008373ffffffffffffffffffffffffffffffffffffffff1673ffffffffffffffffffffffffffffffffffffffff168152602001908152602001600020600084815260200190815260200160002054905092915050565b60008073ffffffffffffffffffffffffffffffffffffffff168273ffffffffffffffffffffffffffffffffffffffff1603610db55760006040517f89c62b64000000000000000000000000000000000000000000000000000000008152600401610dac9190612e1e565b60405180910390fd5b600360008373ffffffffffffffffffffffffffffffffffffffff1673ffffffffffffffffffffffffffffffffffffffff168152602001908152602001600020549050919050565b606060018054610e0b906134e6565b80601f0160208091040260200160405190810160405280929190818152602001828054610e37906134e6565b8015610e845780601f10610e5957610100808354040283529160200191610e84565b820191906000526020600020905b815481529060010190602001808311610e6757829003601f168201915b5050505050905090565b610ea267952bea3178977ecc60c01b61063a565b80610eb7671f9eface14e0974d60c01b61063a565b610ecb679f898c31b1a4512b60c01b61063a565b610edf6739478f311049572160c01b61063a565b610ef367474744a340ed8cad60c01b61063a565b6007600082815260200190815260200160002060000160009054906101000a900473ffffffffffffffffffffffffffffffffffffffff1673ffffffffffffffffffffffffffffffffffffffff163373ffffffffffffffffffffffffffffffffffffffff1614610f97576040517f08c379a0000000000000000000000000000000000000000000000000000000008152600401610f8e9061359a565b60405180910390fd5b610fab67b766db7976c9a4ae60c01b61063a565b610fbf6766690d89560f3f2360c01b61063a565b610fd367de510d8b08b3ddf760c01b61063a565b610fe76756c6fe29e9e2ff2d60c01b61063a565b610ffb67bd627402a4dab60260c01b61063a565b61100f67f11d41aadd7e20fd60c01b61063a565b6000600860003373ffffffffffffffffffffffffffffffffffffffff1673ffffffffffffffffffffffffffffffffffffffff168152602001908152602001600020600084815260200190815260200160002054116113125761107b6751a9d60cb5a9537c60c01b61063a565b61108f6753d8dab95a1ee27a60c01b61063a565b6110a367435911914a67b47f60c01b61063a565b6110b767c9dfc72cd4afda9260c01b61063a565b6007600083815260200190815260200160002060030154341015611110576040517f08c379a000000000000000000000000000000000000000000000000000000000815260040161110790613606565b60405180910390fd5b611124672788fe77200f5ea360c01b61063a565b611138672f2897d06090a78460c01b61063a565b6007600083815260200190815260200160002060030154600860003373ffffffffffffffffffffffffffffffffffffffff1673ffffffffffffffffffffffffffffffffffffffff168152602001908152602001600020600084815260200190815260200160002060008282546111ae9190612bcf565b925050819055506111c9679415fb6e792c871e60c01b61063a565b6007600083815260200190815260200160002060030154346111eb9190613626565b600960003373ffffffffffffffffffffffffffffffffffffffff1673ffffffffffffffffffffffffffffffffffffffff16815260200190815260200160002060008282546112399190612bcf565b925050819055506112546799c2c4b2496aa10260c01b61063a565b611268671dd94121e43c476160c01b61063a565b3073ffffffffffffffffffffffffffffffffffffffff166323b872dd306007600086815260200190815260200160002060000160009054906101000a900473ffffffffffffffffffffffffffffffffffffffff16856040518463ffffffff1660e01b81526004016112db939291906136b9565b600060405180830381600087803b1580156112f557600080fd5b505af1158015611309573d6000803e3d6000fd5b50505050611391565b61132667c07ad6e26ae61c2e60c01b61063a565b61133a67adcb3f7b6104f63f60c01b61063a565b34600960003373ffffffffffffffffffffffffffffffffffffffff1673ffffffffffffffffffffffffffffffffffffffff16815260200190815260200160002060008282546113899190612bcf565b925050819055505b5050565b6113a76113a0611df3565b8383612027565b5050565b6113b6848484610762565b6113c284848484612196565b50505050565b6113dc67bd2eeedc96d5100560c01b61063a565b6113f067195ea2dcb368b42260c01b61063a565b61140467281edae5ad83eca260c01b61063a565b61141867c0ec176a9eb5496f60c01b61063a565b6007600082815260200190815260200160002060030154600960006007600085815260200190815260200160002060000160009054906101000a900473ffffffffffffffffffffffffffffffffffffffff1673ffffffffffffffffffffffffffffffffffffffff1673ffffffffffffffffffffffffffffffffffffffff1681526020019081526020016000205410156114e6576040517f08c379a00000000000000000000000000000000000000000000000000000000081526004016114dd9061373c565b60405180910390fd5b6114fa67ca11315fa1e6351e60c01b61063a565b61150e67233dc3c4e83c2cdb60c01b61063a565b6007600082815260200190815260200160002060030154600960006007600085815260200190815260200160002060000160009054906101000a900473ffffffffffffffffffffffffffffffffffffffff1673ffffffffffffffffffffffffffffffffffffffff1673ffffffffffffffffffffffffffffffffffffffff16815260200190815260200160002060008282546115a99190613626565b925050819055506115c4676663a9368c7693a560c01b61063a565b6007600082815260200190815260200160002060030154600960006007600085815260200190815260200160002060010160009054906101000a900473ffffffffffffffffffffffffffffffffffffffff1673ffffffffffffffffffffffffffffffffffffffff1673ffffffffffffffffffffffffffffffffffffffff168152602001908152602001600020600082825461165f9190612bcf565b9250508190555050565b61167d67e59bc1e30f2cd1dc60c01b61063a565b61169167aeff23a9b59e957760c01b61063a565b6116a567ac07a53d4d71405260c01b61063a565b8073ffffffffffffffffffffffffffffffffffffffff166108fc479081150290604051600060405180830381858888f193505050501580156116eb573d6000803e3d6000fd5b5050565b60606116fa82611d2e565b50600060066000848152602001908152602001600020805461171b906134e6565b80601f0160208091040260200160405190810160405280929190818152602001828054611747906134e6565b80156117945780601f1061176957610100808354040283529160200191611794565b820191906000526020600020905b81548152906001019060200180831161177757829003601f168201915b5050505050905060006117a561234d565b905060008151036117ba5781925050506117fd565b6000825111156117ef5780826040516020016117d7929190613798565b604051602081830303815290604052925050506117fd565b6117f884612364565b925050505b919050565b6118166786e554f1e9977f0a60c01b61063a565b61182a6707b24e07d8e88a5b60c01b61063a565b61183e67d63e8b208b632e9560c01b61063a565b61185267666ab0ccb319315960c01b61063a565b600960003373ffffffffffffffffffffffffffffffffffffffff1673ffffffffffffffffffffffffffffffffffffffff168152602001908152602001600020548111156118d4576040517f08c379a00000000000000000000000000000000000000000000000000000000081526004016118cb90613808565b60405180910390fd5b6118e867b12a88a10eca1a3460c01b61063a565b6118fc678287afc7892e35d760c01b61063a565b6119106708ebb15b416f1c7a60c01b61063a565b3373ffffffffffffffffffffffffffffffffffffffff166108fc829081150290604051600060405180830381858888f19350505050158015611956573d6000803e3d6000fd5b5061196b67ca24bdb9d1635b3d60c01b61063a565b80600960003373ffffffffffffffffffffffffffffffffffffffff1673ffffffffffffffffffffffffffffffffffffffff16815260200190815260200160002060008282546119ba9190613626565b9250508190555050565b6119d867365b4945b818b05460c01b61063a565b6119ec67aa83c90a3e80961260c01b61063a565b611a006777e79853414d1fed60c01b61063a565b6000879050611a19673179af10b33ded0160c01b61063a565b611a2d672323fb9b5b36bb6660c01b61063a565b611a3730826123cd565b611a4b67c17fb3e32875382860c01b61063a565b611a5f67fb07977f6686ec8860c01b61063a565b611a6981836124c6565b611a7d6708dfdb89f923b4bd60c01b61063a565b611a9167a5df9150b3a4499560c01b61063a565b6000600760008a81526020019081526020016000209050611abc67d561d7016da278d760c01b61063a565b878160000160006101000a81548173ffffffffffffffffffffffffffffffffffffffff021916908373ffffffffffffffffffffffffffffffffffffffff160217905550611b13676c13d8d4607ab0b760c01b61063a565b868160010160006101000a81548173ffffffffffffffffffffffffffffffffffffffff021916908373ffffffffffffffffffffffffffffffffffffffff160217905550611b6a67b073dcc1d1e7a7e260c01b61063a565b858160020181905550611b8767ea27a40df3925b3c60c01b61063a565b848160030181905550611ba4673bfd9a62f2142d9060c01b61063a565b838160040181905550505050505050505050565b6000600560008473ffffffffffffffffffffffffffffffffffffffff1673ffffffffffffffffffffffffffffffffffffffff16815260200190815260200160002060008373ffffffffffffffffffffffffffffffffffffffff1673ffffffffffffffffffffffffffffffffffffffff16815260200190815260200160002060009054906101000a900460ff16905092915050565b60007f80ac58cd000000000000000000000000000000000000000000000000000000007bffffffffffffffffffffffffffffffffffffffffffffffffffffffff1916827bffffffffffffffffffffffffffffffffffffffffffffffffffffffff19161480611d1757507f5b5e139f000000000000000000000000000000000000000000000000000000007bffffffffffffffffffffffffffffffffffffffffffffffffffffffff1916827bffffffffffffffffffffffffffffffffffffffffffffffffffffffff1916145b80611d275750611d2682612522565b5b9050919050565b600080611d3a8361258c565b9050600073ffffffffffffffffffffffffffffffffffffffff168173ffffffffffffffffffffffffffffffffffffffff1603611dad57826040517f7e273289000000000000000000000000000000000000000000000000000000008152600401611da49190612f07565b60405180910390fd5b80915050919050565b60006004600083815260200190815260200160002060009054906101000a900473ffffffffffffffffffffffffffffffffffffffff169050919050565b600033905090565b611e0883838360016125c9565b505050565b600080611e198461258c565b9050600073ffffffffffffffffffffffffffffffffffffffff168373ffffffffffffffffffffffffffffffffffffffff1614611e5b57611e5a81848661278e565b5b600073ffffffffffffffffffffffffffffffffffffffff168173ffffffffffffffffffffffffffffffffffffffff1614611eec57611e9d6000856000806125c9565b6001600360008373ffffffffffffffffffffffffffffffffffffffff1673ffffffffffffffffffffffffffffffffffffffff168152602001908152602001600020600082825403925050819055505b600073ffffffffffffffffffffffffffffffffffffffff168573ffffffffffffffffffffffffffffffffffffffff1614611f6f576001600360008773ffffffffffffffffffffffffffffffffffffffff1673ffffffffffffffffffffffffffffffffffffffff168152602001908152602001600020600082825401925050819055505b846002600086815260200190815260200160002060006101000a81548173ffffffffffffffffffffffffffffffffffffffff021916908373ffffffffffffffffffffffffffffffffffffffff160217905550838573ffffffffffffffffffffffffffffffffffffffff168273ffffffffffffffffffffffffffffffffffffffff167fddf252ad1be2c89b69c2b068fc378daa952ba7f163c4a11628f55a4df523b3ef60405160405180910390a4809150509392505050565b600073ffffffffffffffffffffffffffffffffffffffff168273ffffffffffffffffffffffffffffffffffffffff160361209857816040517f5b08ba1800000000000000000000000000000000000000000000000000000000815260040161208f9190612e1e565b60405180910390fd5b80600560008573ffffffffffffffffffffffffffffffffffffffff1673ffffffffffffffffffffffffffffffffffffffff16815260200190815260200160002060008473ffffffffffffffffffffffffffffffffffffffff1673ffffffffffffffffffffffffffffffffffffffff16815260200190815260200160002060006101000a81548160ff0219169083151502179055508173ffffffffffffffffffffffffffffffffffffffff168373ffffffffffffffffffffffffffffffffffffffff167f17307eab39ab6107e8899845ad3d59bd9653f200f220920489ca2b5937696c31836040516121899190612cb7565b60405180910390a3505050565b60008373ffffffffffffffffffffffffffffffffffffffff163b1115612347578273ffffffffffffffffffffffffffffffffffffffff1663150b7a026121da611df3565b8685856040518563ffffffff1660e01b81526004016121fc949392919061387d565b6020604051808303816000875af192505050801561223857506040513d601f19601f8201168201806040525081019061223591906138de565b60015b6122bc573d8060008114612268576040519150601f19603f3d011682016040523d82523d6000602084013e61226d565b606091505b5060008151036122b457836040517f64a0ae920000000000000000000000000000000000000000000000000000000081526004016122ab9190612e1e565b60405180910390fd5b805181602001fd5b63150b7a0260e01b7bffffffffffffffffffffffffffffffffffffffffffffffffffffffff1916817bffffffffffffffffffffffffffffffffffffffffffffffffffffffff19161461234557836040517f64a0ae9200000000000000000000000000000000000000000000000000000000815260040161233c9190612e1e565b60405180910390fd5b505b50505050565b606060405180602001604052806000815250905090565b606061236f82611d2e565b50600061237a61234d565b9050600081511161239a57604051806020016040528060008152506123c5565b806123a484612852565b6040516020016123b5929190613798565b6040516020818303038152906040525b915050919050565b600073ffffffffffffffffffffffffffffffffffffffff168273ffffffffffffffffffffffffffffffffffffffff160361243f5760006040517f64a0ae920000000000000000000000000000000000000000000000000000000081526004016124369190612e1e565b60405180910390fd5b600061244d83836000611e0d565b9050600073ffffffffffffffffffffffffffffffffffffffff168173ffffffffffffffffffffffffffffffffffffffff16146124c15760006040517f73c6ac6e0000000000000000000000000000000000000000000000000000000081526004016124b89190612e1e565b60405180910390fd5b505050565b806006600084815260200190815260200160002090816124e69190613aad565b507ff8e1a15aba9398e019f0b49df1a4fde98ee17ae345cb5f6b5e2c27f5033e8ce7826040516125169190612f07565b60405180910390a15050565b60007f01ffc9a7000000000000000000000000000000000000000000000000000000007bffffffffffffffffffffffffffffffffffffffffffffffffffffffff1916827bffffffffffffffffffffffffffffffffffffffffffffffffffffffff1916149050919050565b60006002600083815260200190815260200160002060009054906101000a900473ffffffffffffffffffffffffffffffffffffffff169050919050565b80806126025750600073ffffffffffffffffffffffffffffffffffffffff168273ffffffffffffffffffffffffffffffffffffffff1614155b1561273657600061261284611d2e565b9050600073ffffffffffffffffffffffffffffffffffffffff168373ffffffffffffffffffffffffffffffffffffffff161415801561267d57508273ffffffffffffffffffffffffffffffffffffffff168173ffffffffffffffffffffffffffffffffffffffff1614155b8015612690575061268e8184611bb8565b155b156126d257826040517fa9fbf51f0000000000000000000000000000000000000000000000000000000081526004016126c99190612e1e565b60405180910390fd5b811561273457838573ffffffffffffffffffffffffffffffffffffffff168273ffffffffffffffffffffffffffffffffffffffff167f8c5be1e5ebec7d5bd14f71427d1e84f3dd0314c0f7b2291e5b200ac8c7c3b92560405160405180910390a45b505b836004600085815260200190815260200160002060006101000a81548173ffffffffffffffffffffffffffffffffffffffff021916908373ffffffffffffffffffffffffffffffffffffffff16021790555050505050565b612799838383612920565b61284d57600073ffffffffffffffffffffffffffffffffffffffff168373ffffffffffffffffffffffffffffffffffffffff160361280e57806040517f7e2732890000000000000000000000000000000000000000000000000000000081526004016128059190612f07565b60405180910390fd5b81816040517f177e802f000000000000000000000000000000000000000000000000000000008152600401612844929190613b7f565b60405180910390fd5b505050565b606060006001612861846129e1565b01905060008167ffffffffffffffff8111156128805761287f61316a565b5b6040519080825280601f01601f1916602001820160405280156128b25781602001600182028036833780820191505090505b509050600082602001820190505b600115612915578080600190039150507f3031323334353637383961626364656600000000000000000000000000000000600a86061a8153600a858161290957612908613ba8565b5b049450600085036128c0575b819350505050919050565b60008073ffffffffffffffffffffffffffffffffffffffff168373ffffffffffffffffffffffffffffffffffffffff16141580156129d857508273ffffffffffffffffffffffffffffffffffffffff168473ffffffffffffffffffffffffffffffffffffffff16148061299957506129988484611bb8565b5b806129d757508273ffffffffffffffffffffffffffffffffffffffff166129bf83611db6565b73ffffffffffffffffffffffffffffffffffffffff16145b5b90509392505050565b600080600090507a184f03e93ff9f4daa797ed6e38ed64bf6a1f0100000000000000008310612a3f577a184f03e93ff9f4daa797ed6e38ed64bf6a1f0100000000000000008381612a3557612a34613ba8565b5b0492506040810190505b6d04ee2d6d415b85acef81000000008310612a7c576d04ee2d6d415b85acef81000000008381612a7257612a71613ba8565b5b0492506020810190505b662386f26fc100008310612aab57662386f26fc100008381612aa157612aa0613ba8565b5b0492506010810190505b6305f5e1008310612ad4576305f5e1008381612aca57612ac9613ba8565b5b0492506008810190505b6127108310612af9576127108381612aef57612aee613ba8565b5b0492506004810190505b60648310612b1c5760648381612b1257612b11613ba8565b5b0492506002810190505b600a8310612b2b576001810190505b80915050919050565b6040518060c00160405280600073ffffffffffffffffffffffffffffffffffffffff168152602001600073ffffffffffffffffffffffffffffffffffffffff168152602001600081526020016000815260200160008152602001606081525090565b6000819050919050565b7f4e487b7100000000000000000000000000000000000000000000000000000000600052601160045260246000fd5b6000612bda82612b96565b9150612be583612b96565b9250828201905080821115612bfd57612bfc612ba0565b5b92915050565b6000604051905090565b600080fd5b600080fd5b60007fffffffff0000000000000000000000000000000000000000000000000000000082169050919050565b612c4c81612c17565b8114612c5757600080fd5b50565b600081359050612c6981612c43565b92915050565b600060208284031215612c8557612c84612c0d565b5b6000612c9384828501612c5a565b91505092915050565b60008115159050919050565b612cb181612c9c565b82525050565b6000602082019050612ccc6000830184612ca8565b92915050565b600081519050919050565b600082825260208201905092915050565b60005b83811015612d0c578082015181840152602081019050612cf1565b60008484015250505050565b6000601f19601f8301169050919050565b6000612d3482612cd2565b612d3e8185612cdd565b9350612d4e818560208601612cee565b612d5781612d18565b840191505092915050565b60006020820190508181036000830152612d7c8184612d29565b905092915050565b612d8d81612b96565b8114612d9857600080fd5b50565b600081359050612daa81612d84565b92915050565b600060208284031215612dc657612dc5612c0d565b5b6000612dd484828501612d9b565b91505092915050565b600073ffffffffffffffffffffffffffffffffffffffff82169050919050565b6000612e0882612ddd565b9050919050565b612e1881612dfd565b82525050565b6000602082019050612e336000830184612e0f565b92915050565b612e4281612dfd565b8114612e4d57600080fd5b50565b600081359050612e5f81612e39565b92915050565b60008060408385031215612e7c57612e7b612c0d565b5b6000612e8a85828601612e50565b9250506020612e9b85828601612d9b565b9150509250929050565b600080600060608486031215612ebe57612ebd612c0d565b5b6000612ecc86828701612e50565b9350506020612edd86828701612e50565b9250506040612eee86828701612d9b565b9150509250925092565b612f0181612b96565b82525050565b6000602082019050612f1c6000830184612ef8565b92915050565b60008060408385031215612f3957612f38612c0d565b5b6000612f4785828601612d9b565b9250506020612f5885828601612d9b565b9150509250929050565b6000612f6d82612ddd565b9050919050565b612f7d81612f62565b82525050565b612f8c81612b96565b82525050565b600082825260208201905092915050565b6000612fae82612cd2565b612fb88185612f92565b9350612fc8818560208601612cee565b612fd181612d18565b840191505092915050565b600060c083016000830151612ff46000860182612f74565b5060208301516130076020860182612f74565b50604083015161301a6040860182612f83565b50606083015161302d6060860182612f83565b5060808301516130406080860182612f83565b5060a083015184820360a08601526130588282612fa3565b9150508091505092915050565b6000602082019050818103600083015261307f8184612fdc565b905092915050565b6000806040838503121561309e5761309d612c0d565b5b60006130ac85828601612d9b565b92505060206130bd85828601612e50565b9150509250929050565b6000602082840312156130dd576130dc612c0d565b5b60006130eb84828501612e50565b91505092915050565b6130fd81612c9c565b811461310857600080fd5b50565b60008135905061311a816130f4565b92915050565b6000806040838503121561313757613136612c0d565b5b600061314585828601612e50565b92505060206131568582860161310b565b9150509250929050565b600080fd5b600080fd5b7f4e487b7100000000000000000000000000000000000000000000000000000000600052604160045260246000fd5b6131a282612d18565b810181811067ffffffffffffffff821117156131c1576131c061316a565b5b80604052505050565b60006131d4612c03565b90506131e08282613199565b919050565b600067ffffffffffffffff821115613200576131ff61316a565b5b61320982612d18565b9050602081019050919050565b82818337600083830152505050565b6000613238613233846131e5565b6131ca565b90508281526020810184848401111561325457613253613165565b5b61325f848285613216565b509392505050565b600082601f83011261327c5761327b613160565b5b813561328c848260208601613225565b91505092915050565b600080600080608085870312156132af576132ae612c0d565b5b60006132bd87828801612e50565b94505060206132ce87828801612e50565b93505060406132df87828801612d9b565b925050606085013567ffffffffffffffff811115613300576132ff612c12565b5b61330c87828801613267565b91505092959194509250565b600067ffffffffffffffff8211156133335761333261316a565b5b61333c82612d18565b9050602081019050919050565b600061335c61335784613318565b6131ca565b90508281526020810184848401111561337857613377613165565b5b613383848285613216565b509392505050565b600082601f8301126133a05761339f613160565b5b81356133b0848260208601613349565b91505092915050565b600080600080600080600060e0888a0312156133d8576133d7612c0d565b5b60006133e68a828b01612d9b565b97505060206133f78a828b01612e50565b96505060406134088a828b01612e50565b95505060606134198a828b01612d9b565b945050608061342a8a828b01612d9b565b93505060a061343b8a828b01612d9b565b92505060c088013567ffffffffffffffff81111561345c5761345b612c12565b5b6134688a828b0161338b565b91505092959891949750929550565b6000806040838503121561348e5761348d612c0d565b5b600061349c85828601612e50565b92505060206134ad85828601612e50565b9150509250929050565b7f4e487b7100000000000000000000000000000000000000000000000000000000600052602260045260246000fd5b600060028204905060018216806134fe57607f821691505b602082108103613511576135106134b7565b5b50919050565b600060608201905061352c6000830186612e0f565b6135396020830185612ef8565b6135466040830184612e0f565b949350505050565b7f4f6e6c792072656e7465722063616e2063616c6c2074686973206d6574686f64600082015250565b6000613584602083612cdd565b915061358f8261354e565b602082019050919050565b600060208201905081810360008301526135b381613577565b9050919050565b7f4465706f736974206e6f7420656e6f7567680000000000000000000000000000600082015250565b60006135f0601283612cdd565b91506135fb826135ba565b602082019050919050565b6000602082019050818103600083015261361f816135e3565b9050919050565b600061363182612b96565b915061363c83612b96565b925082820390508181111561365457613653612ba0565b5b92915050565b6000819050919050565b600061367f61367a61367584612ddd565b61365a565b612ddd565b9050919050565b600061369182613664565b9050919050565b60006136a382613686565b9050919050565b6136b381613698565b82525050565b60006060820190506136ce6000830186612e0f565b6136db60208301856136aa565b6136e86040830184612ef8565b949350505050565b7f42616c616e636572206e6f7420656e6f75676874000000000000000000000000600082015250565b6000613726601483612cdd565b9150613731826136f0565b602082019050919050565b6000602082019050818103600083015261375581613719565b9050919050565b600081905092915050565b600061377282612cd2565b61377c818561375c565b935061378c818560208601612cee565b80840191505092915050565b60006137a48285613767565b91506137b08284613767565b91508190509392505050565b7f42616c616e6365206e6f7420656e6f7567680000000000000000000000000000600082015250565b60006137f2601283612cdd565b91506137fd826137bc565b602082019050919050565b60006020820190508181036000830152613821816137e5565b9050919050565b600081519050919050565b600082825260208201905092915050565b600061384f82613828565b6138598185613833565b9350613869818560208601612cee565b61387281612d18565b840191505092915050565b60006080820190506138926000830187612e0f565b61389f6020830186612e0f565b6138ac6040830185612ef8565b81810360608301526138be8184613844565b905095945050505050565b6000815190506138d881612c43565b92915050565b6000602082840312156138f4576138f3612c0d565b5b6000613902848285016138c9565b91505092915050565b60008190508160005260206000209050919050565b60006020601f8301049050919050565b600082821b905092915050565b60006008830261396d7fffffffffffffffffffffffffffffffffffffffffffffffffffffffffffffffff82613930565b6139778683613930565b95508019841693508086168417925050509392505050565b60006139aa6139a56139a084612b96565b61365a565b612b96565b9050919050565b6000819050919050565b6139c48361398f565b6139d86139d0826139b1565b84845461393d565b825550505050565b600090565b6139ed6139e0565b6139f88184846139bb565b505050565b5b81811015613a1c57613a116000826139e5565b6001810190506139fe565b5050565b601f821115613a6157613a328161390b565b613a3b84613920565b81016020851015613a4a578190505b613a5e613a5685613920565b8301826139fd565b50505b505050565b600082821c905092915050565b6000613a8460001984600802613a66565b1980831691505092915050565b6000613a9d8383613a73565b9150826002028217905092915050565b613ab682612cd2565b67ffffffffffffffff811115613acf57613ace61316a565b5b613ad982546134e6565b613ae4828285613a20565b600060209050601f831160018114613b175760008415613b05578287015190505b613b0f8582613a91565b865550613b77565b601f198416613b258661390b565b60005b82811015613b4d57848901518255600182019150602085019450602081019050613b28565b86831015613b6a5784890151613b66601f891682613a73565b8355505b6001600288020188555050505b505050505050565b6000604082019050613b946000830185612e0f565b613ba16020830184612ef8565b9392505050565b7f4e487b7100000000000000000000000000000000000000000000000000000000600052601260045260246000fdfea264697066735822122001a444aa5127edc25d7db6cf18c1fd141096884492e28e0c8aaa11095dbcf16d64736f6c63430008140033",
  "linkReferences": {},
  "deployedLinkReferences": {}
}