{
  "_format": "hh-sol-artifact-1",
  "contractName": "SmartContract",
  "sourceName": "contracts/SmartContract.sol",
  "abi": [
    {
      "inputs": [],
      "stateMutability": "nonpayable",
      "type": "constructor"
    },
    {
      "inputs": [
        {
          "internalType": "address",
          "name": "sender",
          "type": "address"
        },
        {
          "internalType": "uint256",
          "name": "tokenId",
          "type": "uint256"
        },
        {
          "internalType": "address",
          "name": "owner",
          "type": "address"
        }
      ],
      "name": "ERC721IncorrectOwner",
      "type": "error"
    },
    {
      "inputs": [
        {
          "internalType": "address",
          "name": "operator",
          "type": "address"
        },
        {
          "internalType": "uint256",
          "name": "tokenId",
          "type": "uint256"
        }
      ],
      "name": "ERC721InsufficientApproval",
      "type": "error"
    },
    {
      "inputs": [
        {
          "internalType": "address",
          "name": "approver",
          "type": "address"
        }
      ],
      "name": "ERC721InvalidApprover",
      "type": "error"
    },
    {
      "inputs": [
        {
          "internalType": "address",
          "name": "operator",
          "type": "address"
        }
      ],
      "name": "ERC721InvalidOperator",
      "type": "error"
    },
    {
      "inputs": [
        {
          "internalType": "address",
          "name": "owner",
          "type": "address"
        }
      ],
      "name": "ERC721InvalidOwner",
      "type": "error"
    },
    {
      "inputs": [
        {
          "internalType": "address",
          "name": "receiver",
          "type": "address"
        }
      ],
      "name": "ERC721InvalidReceiver",
      "type": "error"
    },
    {
      "inputs": [
        {
          "internalType": "address",
          "name": "sender",
          "type": "address"
        }
      ],
      "name": "ERC721InvalidSender",
      "type": "error"
    },
    {
      "inputs": [
        {
          "internalType": "uint256",
          "name": "tokenId",
          "type": "uint256"
        }
      ],
      "name": "ERC721NonexistentToken",
      "type": "error"
    },
    {
      "anonymous": false,
      "inputs": [
        {
          "indexed": true,
          "internalType": "address",
          "name": "owner",
          "type": "address"
        },
        {
          "indexed": true,
          "internalType": "address",
          "name": "approved",
          "type": "address"
        },
        {
          "indexed": true,
          "internalType": "uint256",
          "name": "tokenId",
          "type": "uint256"
        }
      ],
      "name": "Approval",
      "type": "event"
    },
    {
      "anonymous": false,
      "inputs": [
        {
          "indexed": true,
          "internalType": "address",
          "name": "owner",
          "type": "address"
        },
        {
          "indexed": true,
          "internalType": "address",
          "name": "operator",
          "type": "address"
        },
        {
          "indexed": false,
          "internalType": "bool",
          "name": "approved",
          "type": "bool"
        }
      ],
      "name": "ApprovalForAll",
      "type": "event"
    },
    {
      "anonymous": false,
      "inputs": [
        {
          "indexed": false,
          "internalType": "uint256",
          "name": "_fromTokenId",
          "type": "uint256"
        },
        {
          "indexed": false,
          "internalType": "uint256",
          "name": "_toTokenId",
          "type": "uint256"
        }
      ],
      "name": "BatchMetadataUpdate",
      "type": "event"
    },
    {
      "anonymous": false,
      "inputs": [
        {
          "indexed": false,
          "internalType": "uint256",
          "name": "_tokenId",
          "type": "uint256"
        }
      ],
      "name": "MetadataUpdate",
      "type": "event"
    },
    {
      "anonymous": false,
      "inputs": [
        {
          "indexed": true,
          "internalType": "address",
          "name": "from",
          "type": "address"
        },
        {
          "indexed": true,
          "internalType": "address",
          "name": "to",
          "type": "address"
        },
        {
          "indexed": true,
          "internalType": "uint256",
          "name": "tokenId",
          "type": "uint256"
        }
      ],
      "name": "Transfer",
      "type": "event"
    },
    {
      "stateMutability": "payable",
      "type": "fallback"
    },
    {
      "inputs": [
        {
          "internalType": "address",
          "name": "to",
          "type": "address"
        },
        {
          "internalType": "uint256",
          "name": "tokenId",
          "type": "uint256"
        }
      ],
      "name": "approve",
      "outputs": [],
      "stateMutability": "nonpayable",
      "type": "function"
    },
    {
      "inputs": [
        {
          "internalType": "address",
          "name": "owner",
          "type": "address"
        }
      ],
      "name": "balanceOf",
      "outputs": [
        {
          "internalType": "uint256",
          "name": "",
          "type": "uint256"
        }
      ],
      "stateMutability": "view",
      "type": "function"
    },
    {
      "inputs": [
        {
          "internalType": "address",
          "name": "_to",
          "type": "address"
        }
      ],
      "name": "close",
      "outputs": [],
      "stateMutability": "nonpayable",
      "type": "function"
    },
    {
      "inputs": [
        {
          "internalType": "uint256",
          "name": "id",
          "type": "uint256"
        }
      ],
      "name": "depositContract",
      "outputs": [],
      "stateMutability": "payable",
      "type": "function"
    },
    {
      "inputs": [
        {
          "internalType": "uint256",
          "name": "tokenId",
          "type": "uint256"
        }
      ],
      "name": "getApproved",
      "outputs": [
        {
          "internalType": "address",
          "name": "",
          "type": "address"
        }
      ],
      "stateMutability": "view",
      "type": "function"
    },
    {
      "inputs": [
        {
          "internalType": "uint256",
          "name": "id",
          "type": "uint256"
        }
      ],
      "name": "getContract",
      "outputs": [
        {
          "components": [
            {
              "internalType": "address payable",
              "name": "renter",
              "type": "address"
            },
            {
              "internalType": "address payable",
              "name": "seller",
              "type": "address"
            },
            {
              "internalType": "uint256",
              "name": "reId",
              "type": "uint256"
            },
            {
              "internalType": "uint256",
              "name": "rentCost",
              "type": "uint256"
            },
            {
              "internalType": "uint256",
              "name": "duration",
              "type": "uint256"
            },
            {
              "internalType": "string",
              "name": "urlContract",
              "type": "string"
            }
          ],
          "internalType": "struct SmartContract.ContractEntity",
          "name": "",
          "type": "tuple"
        }
      ],
      "stateMutability": "view",
      "type": "function"
    },
    {
      "inputs": [
        {
          "internalType": "uint256",
          "name": "scId",
          "type": "uint256"
        },
        {
          "internalType": "address",
          "name": "renterAddress",
          "type": "address"
        }
      ],
      "name": "getDepositContractByRenter",
      "outputs": [
        {
          "internalType": "uint256",
          "name": "",
          "type": "uint256"
        }
      ],
      "stateMutability": "view",
      "type": "function"
    },
    {
      "inputs": [],
      "name": "getbalanceOf",
      "outputs": [
        {
          "internalType": "uint256",
          "name": "",
          "type": "uint256"
        }
      ],
      "stateMutability": "view",
      "type": "function"
    },
    {
      "inputs": [
        {
          "internalType": "address",
          "name": "owner",
          "type": "address"
        },
        {
          "internalType": "address",
          "name": "operator",
          "type": "address"
        }
      ],
      "name": "isApprovedForAll",
      "outputs": [
        {
          "internalType": "bool",
          "name": "",
          "type": "bool"
        }
      ],
      "stateMutability": "view",
      "type": "function"
    },
    {
      "inputs": [
        {
          "internalType": "uint256",
          "name": "_newItemId",
          "type": "uint256"
        },
        {
          "internalType": "address",
          "name": "_renterAddress",
          "type": "address"
        },
        {
          "internalType": "address",
          "name": "_sellerAdsress",
          "type": "address"
        },
        {
          "internalType": "uint256",
          "name": "_reId",
          "type": "uint256"
        },
        {
          "internalType": "uint256",
          "name": "_rentCost",
          "type": "uint256"
        },
        {
          "internalType": "uint256",
          "name": "_duration",
          "type": "uint256"
        },
        {
          "internalType": "string",
          "name": "uri",
          "type": "string"
        }
      ],
      "name": "mint",
      "outputs": [],
      "stateMutability": "nonpayable",
      "type": "function"
    },
    {
      "inputs": [],
      "name": "name",
      "outputs": [
        {
          "internalType": "string",
          "name": "",
          "type": "string"
        }
      ],
      "stateMutability": "view",
      "type": "function"
    },
    {
      "inputs": [
        {
          "internalType": "uint256",
          "name": "tokenId",
          "type": "uint256"
        }
      ],
      "name": "ownerOf",
      "outputs": [
        {
          "internalType": "address",
          "name": "",
          "type": "address"
        }
      ],
      "stateMutability": "view",
      "type": "function"
    },
    {
      "inputs": [
        {
          "internalType": "uint256",
          "name": "id",
          "type": "uint256"
        }
      ],
      "name": "payRentCost",
      "outputs": [],
      "stateMutability": "nonpayable",
      "type": "function"
    },
    {
      "inputs": [
        {
          "internalType": "uint256",
          "name": "_time",
          "type": "uint256"
        },
        {
          "internalType": "uint256",
          "name": "id",
          "type": "uint256"
        }
      ],
      "name": "renewal",
      "outputs": [],
      "stateMutability": "payable",
      "type": "function"
    },
    {
      "inputs": [
        {
          "internalType": "address",
          "name": "from",
          "type": "address"
        },
        {
          "internalType": "address",
          "name": "to",
          "type": "address"
        },
        {
          "internalType": "uint256",
          "name": "tokenId",
          "type": "uint256"
        }
      ],
      "name": "safeTransferFrom",
      "outputs": [],
      "stateMutability": "nonpayable",
      "type": "function"
    },
    {
      "inputs": [
        {
          "internalType": "address",
          "name": "from",
          "type": "address"
        },
        {
          "internalType": "address",
          "name": "to",
          "type": "address"
        },
        {
          "internalType": "uint256",
          "name": "tokenId",
          "type": "uint256"
        },
        {
          "internalType": "bytes",
          "name": "data",
          "type": "bytes"
        }
      ],
      "name": "safeTransferFrom",
      "outputs": [],
      "stateMutability": "nonpayable",
      "type": "function"
    },
    {
      "inputs": [
        {
          "internalType": "address",
          "name": "operator",
          "type": "address"
        },
        {
          "internalType": "bool",
          "name": "approved",
          "type": "bool"
        }
      ],
      "name": "setApprovalForAll",
      "outputs": [],
      "stateMutability": "nonpayable",
      "type": "function"
    },
    {
      "inputs": [
        {
          "internalType": "bytes4",
          "name": "interfaceId",
          "type": "bytes4"
        }
      ],
      "name": "supportsInterface",
      "outputs": [
        {
          "internalType": "bool",
          "name": "",
          "type": "bool"
        }
      ],
      "stateMutability": "view",
      "type": "function"
    },
    {
      "inputs": [],
      "name": "symbol",
      "outputs": [
        {
          "internalType": "string",
          "name": "",
          "type": "string"
        }
      ],
      "stateMutability": "view",
      "type": "function"
    },
    {
      "inputs": [
        {
          "internalType": "uint256",
          "name": "tokenId",
          "type": "uint256"
        }
      ],
      "name": "tokenURI",
      "outputs": [
        {
          "internalType": "string",
          "name": "",
          "type": "string"
        }
      ],
      "stateMutability": "view",
      "type": "function"
    },
    {
      "inputs": [
        {
          "internalType": "address",
          "name": "from",
          "type": "address"
        },
        {
          "internalType": "address",
          "name": "to",
          "type": "address"
        },
        {
          "internalType": "uint256",
          "name": "tokenId",
          "type": "uint256"
        }
      ],
      "name": "transferFrom",
      "outputs": [],
      "stateMutability": "nonpayable",
      "type": "function"
    },
    {
      "inputs": [
        {
          "internalType": "uint256",
          "name": "value",
          "type": "uint256"
        }
      ],
      "name": "withdrawPositRenter",
      "outputs": [],
      "stateMutability": "nonpayable",
      "type": "function"
    },
    {
      "stateMutability": "payable",
      "type": "receive"
    }
  ],
  "bytecode": "0x60806040523480156200001157600080fd5b506040518060400160405280600e81526020017f536d61727420436f6e74726163740000000000000000000000000000000000008152506040518060400160405280600281526020017f534300000000000000000000000000000000000000000000000000000000000081525081600090816200008f919062000324565b508060019081620000a1919062000324565b5050506200040b565b600081519050919050565b7f4e487b7100000000000000000000000000000000000000000000000000000000600052604160045260246000fd5b7f4e487b7100000000000000000000000000000000000000000000000000000000600052602260045260246000fd5b600060028204905060018216806200012c57607f821691505b602082108103620001425762000141620000e4565b5b50919050565b60008190508160005260206000209050919050565b60006020601f8301049050919050565b600082821b905092915050565b600060088302620001ac7fffffffffffffffffffffffffffffffffffffffffffffffffffffffffffffffff826200016d565b620001b886836200016d565b95508019841693508086168417925050509392505050565b6000819050919050565b6000819050919050565b600062000205620001ff620001f984620001d0565b620001da565b620001d0565b9050919050565b6000819050919050565b6200022183620001e4565b6200023962000230826200020c565b8484546200017a565b825550505050565b600090565b6200025062000241565b6200025d81848462000216565b505050565b5b8181101562000285576200027960008262000246565b60018101905062000263565b5050565b601f821115620002d4576200029e8162000148565b620002a9846200015d565b81016020851015620002b9578190505b620002d1620002c8856200015d565b83018262000262565b50505b505050565b600082821c905092915050565b6000620002f960001984600802620002d9565b1980831691505092915050565b6000620003148383620002e6565b9150826002028217905092915050565b6200032f82620000aa565b67ffffffffffffffff8111156200034b576200034a620000b5565b5b62000357825462000113565b6200036482828562000289565b600060209050601f8311600181146200039c576000841562000387578287015190505b62000393858262000306565b86555062000403565b601f198416620003ac8662000148565b60005b82811015620003d657848901518255600182019150602085019450602081019050620003af565b86831015620003f65784890151620003f2601f891682620002e6565b8355505b6001600288020188555050505b505050505050565b6135f2806200041b6000396000f3fe6080604052600436106101395760003560e01c806370a08231116100ab578063b991aa031161006f578063b991aa03146104e0578063c74073a114610509578063c87b56dd14610532578063e0ea9c341461056f578063e54b076814610598578063e985e9c5146105c157610195565b806370a082311461040a57806395d89b41146104475780639b84589914610472578063a22cb4651461048e578063b88d4fde146104b757610195565b8063402a71d7116100fd578063402a71d7146102e357806342842e0e1461030e5780636135281a146103375780636352211e146103535780636ebc8c86146103905780636ef49dfc146103cd57610195565b806301ffc9a7146101ec57806306fdde0314610229578063081812fc14610254578063095ea7b31461029157806323b872dd146102ba57610195565b366101955734600960003373ffffffffffffffffffffffffffffffffffffffff1673ffffffffffffffffffffffffffffffffffffffff168152602001908152602001600020600082825461018d91906125b4565b925050819055005b34600960003373ffffffffffffffffffffffffffffffffffffffff1673ffffffffffffffffffffffffffffffffffffffff16815260200190815260200160002060008282546101e491906125b4565b925050819055005b3480156101f857600080fd5b50610213600480360381019061020e9190612654565b6105fe565b604051610220919061269c565b60405180910390f35b34801561023557600080fd5b5061023e61065f565b60405161024b9190612747565b60405180910390f35b34801561026057600080fd5b5061027b60048036038101906102769190612795565b6106f1565b6040516102889190612803565b60405180910390f35b34801561029d57600080fd5b506102b860048036038101906102b3919061284a565b61070d565b005b3480156102c657600080fd5b506102e160048036038101906102dc919061288a565b610723565b005b3480156102ef57600080fd5b506102f8610825565b60405161030591906128ec565b60405180910390f35b34801561031a57600080fd5b506103356004803603810190610330919061288a565b61086c565b005b610351600480360381019061034c9190612907565b61088c565b005b34801561035f57600080fd5b5061037a60048036038101906103759190612795565b610963565b6040516103879190612803565b60405180910390f35b34801561039c57600080fd5b506103b760048036038101906103b29190612795565b610975565b6040516103c49190612a4a565b60405180910390f35b3480156103d957600080fd5b506103f460048036038101906103ef9190612a6c565b610b04565b60405161040191906128ec565b60405180910390f35b34801561041657600080fd5b50610431600480360381019061042c9190612aac565b610b5f565b60405161043e91906128ec565b60405180910390f35b34801561045357600080fd5b5061045c610c19565b6040516104699190612747565b60405180910390f35b61048c60048036038101906104879190612795565b610cab565b005b34801561049a57600080fd5b506104b560048036038101906104b09190612b05565b610ffa565b005b3480156104c357600080fd5b506104de60048036038101906104d99190612c7a565b611010565b005b3480156104ec57600080fd5b5061050760048036038101906105029190612795565b61102d565b005b34801561051557600080fd5b50610530600480360381019061052b9190612aac565b611242565b005b34801561053e57600080fd5b5061055960048036038101906105549190612795565b61128c565b6040516105669190612747565b60405180910390f35b34801561057b57600080fd5b5061059660048036038101906105919190612795565b61139f565b005b3480156105a457600080fd5b506105bf60048036038101906105ba9190612d9e565b6114c1565b005b3480156105cd57600080fd5b506105e860048036038101906105e39190612e5c565b61159d565b6040516105f5919061269c565b60405180910390f35b6000634906490660e01b7bffffffffffffffffffffffffffffffffffffffffffffffffffffffff1916827bffffffffffffffffffffffffffffffffffffffffffffffffffffffff19161480610658575061065782611631565b5b9050919050565b60606000805461066e90612ecb565b80601f016020809104026020016040519081016040528092919081815260200182805461069a90612ecb565b80156106e75780601f106106bc576101008083540402835291602001916106e7565b820191906000526020600020905b8154815290600101906020018083116106ca57829003601f168201915b5050505050905090565b60006106fc82611713565b506107068261179b565b9050919050565b61071f828261071a6117d8565b6117e0565b5050565b600073ffffffffffffffffffffffffffffffffffffffff168273ffffffffffffffffffffffffffffffffffffffff16036107955760006040517f64a0ae9200000000000000000000000000000000000000000000000000000000815260040161078c9190612803565b60405180910390fd5b60006107a983836107a46117d8565b6117f2565b90508373ffffffffffffffffffffffffffffffffffffffff168173ffffffffffffffffffffffffffffffffffffffff161461081f578382826040517f64283d7b00000000000000000000000000000000000000000000000000000000815260040161081693929190612efc565b60405180910390fd5b50505050565b6000600960003373ffffffffffffffffffffffffffffffffffffffff1673ffffffffffffffffffffffffffffffffffffffff16815260200190815260200160002054905090565b61088783838360405180602001604052806000815250611010565b505050565b806007600082815260200190815260200160002060000160009054906101000a900473ffffffffffffffffffffffffffffffffffffffff1673ffffffffffffffffffffffffffffffffffffffff163373ffffffffffffffffffffffffffffffffffffffff1614610931576040517f08c379a000000000000000000000000000000000000000000000000000000000815260040161092890612f7f565b60405180910390fd5b8260076000848152602001908152602001600020600401600082825461095791906125b4565b92505081905550505050565b600061096e82611713565b9050919050565b61097d612519565b6000600760008481526020019081526020016000206040518060c00160405290816000820160009054906101000a900473ffffffffffffffffffffffffffffffffffffffff1673ffffffffffffffffffffffffffffffffffffffff1673ffffffffffffffffffffffffffffffffffffffff1681526020016001820160009054906101000a900473ffffffffffffffffffffffffffffffffffffffff1673ffffffffffffffffffffffffffffffffffffffff1673ffffffffffffffffffffffffffffffffffffffff168152602001600282015481526020016003820154815260200160048201548152602001600582018054610a7790612ecb565b80601f0160208091040260200160405190810160405280929190818152602001828054610aa390612ecb565b8015610af05780601f10610ac557610100808354040283529160200191610af0565b820191906000526020600020905b815481529060010190602001808311610ad357829003601f168201915b505050505081525050905080915050919050565b6000600860008373ffffffffffffffffffffffffffffffffffffffff1673ffffffffffffffffffffffffffffffffffffffff168152602001908152602001600020600084815260200190815260200160002054905092915050565b60008073ffffffffffffffffffffffffffffffffffffffff168273ffffffffffffffffffffffffffffffffffffffff1603610bd25760006040517f89c62b64000000000000000000000000000000000000000000000000000000008152600401610bc99190612803565b60405180910390fd5b600360008373ffffffffffffffffffffffffffffffffffffffff1673ffffffffffffffffffffffffffffffffffffffff168152602001908152602001600020549050919050565b606060018054610c2890612ecb565b80601f0160208091040260200160405190810160405280929190818152602001828054610c5490612ecb565b8015610ca15780601f10610c7657610100808354040283529160200191610ca1565b820191906000526020600020905b815481529060010190602001808311610c8457829003601f168201915b5050505050905090565b806007600082815260200190815260200160002060000160009054906101000a900473ffffffffffffffffffffffffffffffffffffffff1673ffffffffffffffffffffffffffffffffffffffff163373ffffffffffffffffffffffffffffffffffffffff1614610d50576040517f08c379a0000000000000000000000000000000000000000000000000000000008152600401610d4790612f7f565b60405180910390fd5b6000600860003373ffffffffffffffffffffffffffffffffffffffff1673ffffffffffffffffffffffffffffffffffffffff16815260200190815260200160002060008481526020019081526020016000205411610f9f576007600083815260200190815260200160002060030154341015610e01576040517f08c379a0000000000000000000000000000000000000000000000000000000008152600401610df890612feb565b60405180910390fd5b6007600083815260200190815260200160002060030154600860003373ffffffffffffffffffffffffffffffffffffffff1673ffffffffffffffffffffffffffffffffffffffff16815260200190815260200160002060008481526020019081526020016000206000828254610e7791906125b4565b92505081905550600760008381526020019081526020016000206003015434610ea0919061300b565b600960003373ffffffffffffffffffffffffffffffffffffffff1673ffffffffffffffffffffffffffffffffffffffff1681526020019081526020016000206000828254610eee91906125b4565b925050819055503073ffffffffffffffffffffffffffffffffffffffff166323b872dd306007600086815260200190815260200160002060000160009054906101000a900473ffffffffffffffffffffffffffffffffffffffff16856040518463ffffffff1660e01b8152600401610f689392919061309e565b600060405180830381600087803b158015610f8257600080fd5b505af1158015610f96573d6000803e3d6000fd5b50505050610ff6565b34600960003373ffffffffffffffffffffffffffffffffffffffff1673ffffffffffffffffffffffffffffffffffffffff1681526020019081526020016000206000828254610fee91906125b4565b925050819055505b5050565b61100c6110056117d8565b8383611a0c565b5050565b61101b848484610723565b61102784848484611b7b565b50505050565b6007600082815260200190815260200160002060030154600960006007600085815260200190815260200160002060000160009054906101000a900473ffffffffffffffffffffffffffffffffffffffff1673ffffffffffffffffffffffffffffffffffffffff1673ffffffffffffffffffffffffffffffffffffffff1681526020019081526020016000205410156110fb576040517f08c379a00000000000000000000000000000000000000000000000000000000081526004016110f290613121565b60405180910390fd5b6007600082815260200190815260200160002060030154600960006007600085815260200190815260200160002060000160009054906101000a900473ffffffffffffffffffffffffffffffffffffffff1673ffffffffffffffffffffffffffffffffffffffff1673ffffffffffffffffffffffffffffffffffffffff1681526020019081526020016000206000828254611196919061300b565b925050819055506007600082815260200190815260200160002060030154600960006007600085815260200190815260200160002060010160009054906101000a900473ffffffffffffffffffffffffffffffffffffffff1673ffffffffffffffffffffffffffffffffffffffff1673ffffffffffffffffffffffffffffffffffffffff168152602001908152602001600020600082825461123891906125b4565b9250508190555050565b8073ffffffffffffffffffffffffffffffffffffffff166108fc479081150290604051600060405180830381858888f19350505050158015611288573d6000803e3d6000fd5b5050565b606061129782611713565b5060006006600084815260200190815260200160002080546112b890612ecb565b80601f01602080910402602001604051908101604052809291908181526020018280546112e490612ecb565b80156113315780601f1061130657610100808354040283529160200191611331565b820191906000526020600020905b81548152906001019060200180831161131457829003601f168201915b505050505090506000611342611d32565b9050600081510361135757819250505061139a565b60008251111561138c57808260405160200161137492919061317d565b6040516020818303038152906040529250505061139a565b61139584611d49565b925050505b919050565b600960003373ffffffffffffffffffffffffffffffffffffffff1673ffffffffffffffffffffffffffffffffffffffff16815260200190815260200160002054811115611421576040517f08c379a0000000000000000000000000000000000000000000000000000000008152600401611418906131ed565b60405180910390fd5b3373ffffffffffffffffffffffffffffffffffffffff166108fc829081150290604051600060405180830381858888f19350505050158015611467573d6000803e3d6000fd5b5080600960003373ffffffffffffffffffffffffffffffffffffffff1673ffffffffffffffffffffffffffffffffffffffff16815260200190815260200160002060008282546114b7919061300b565b9250508190555050565b60008790506114d03082611db2565b6114da8183611eab565b6000600760008a81526020019081526020016000209050878160000160006101000a81548173ffffffffffffffffffffffffffffffffffffffff021916908373ffffffffffffffffffffffffffffffffffffffff160217905550868160010160006101000a81548173ffffffffffffffffffffffffffffffffffffffff021916908373ffffffffffffffffffffffffffffffffffffffff160217905550858160020181905550848160030181905550838160040181905550505050505050505050565b6000600560008473ffffffffffffffffffffffffffffffffffffffff1673ffffffffffffffffffffffffffffffffffffffff16815260200190815260200160002060008373ffffffffffffffffffffffffffffffffffffffff1673ffffffffffffffffffffffffffffffffffffffff16815260200190815260200160002060009054906101000a900460ff16905092915050565b60007f80ac58cd000000000000000000000000000000000000000000000000000000007bffffffffffffffffffffffffffffffffffffffffffffffffffffffff1916827bffffffffffffffffffffffffffffffffffffffffffffffffffffffff191614806116fc57507f5b5e139f000000000000000000000000000000000000000000000000000000007bffffffffffffffffffffffffffffffffffffffffffffffffffffffff1916827bffffffffffffffffffffffffffffffffffffffffffffffffffffffff1916145b8061170c575061170b82611f07565b5b9050919050565b60008061171f83611f71565b9050600073ffffffffffffffffffffffffffffffffffffffff168173ffffffffffffffffffffffffffffffffffffffff160361179257826040517f7e27328900000000000000000000000000000000000000000000000000000000815260040161178991906128ec565b60405180910390fd5b80915050919050565b60006004600083815260200190815260200160002060009054906101000a900473ffffffffffffffffffffffffffffffffffffffff169050919050565b600033905090565b6117ed8383836001611fae565b505050565b6000806117fe84611f71565b9050600073ffffffffffffffffffffffffffffffffffffffff168373ffffffffffffffffffffffffffffffffffffffff16146118405761183f818486612173565b5b600073ffffffffffffffffffffffffffffffffffffffff168173ffffffffffffffffffffffffffffffffffffffff16146118d157611882600085600080611fae565b6001600360008373ffffffffffffffffffffffffffffffffffffffff1673ffffffffffffffffffffffffffffffffffffffff168152602001908152602001600020600082825403925050819055505b600073ffffffffffffffffffffffffffffffffffffffff168573ffffffffffffffffffffffffffffffffffffffff1614611954576001600360008773ffffffffffffffffffffffffffffffffffffffff1673ffffffffffffffffffffffffffffffffffffffff168152602001908152602001600020600082825401925050819055505b846002600086815260200190815260200160002060006101000a81548173ffffffffffffffffffffffffffffffffffffffff021916908373ffffffffffffffffffffffffffffffffffffffff160217905550838573ffffffffffffffffffffffffffffffffffffffff168273ffffffffffffffffffffffffffffffffffffffff167fddf252ad1be2c89b69c2b068fc378daa952ba7f163c4a11628f55a4df523b3ef60405160405180910390a4809150509392505050565b600073ffffffffffffffffffffffffffffffffffffffff168273ffffffffffffffffffffffffffffffffffffffff1603611a7d57816040517f5b08ba18000000000000000000000000000000000000000000000000000000008152600401611a749190612803565b60405180910390fd5b80600560008573ffffffffffffffffffffffffffffffffffffffff1673ffffffffffffffffffffffffffffffffffffffff16815260200190815260200160002060008473ffffffffffffffffffffffffffffffffffffffff1673ffffffffffffffffffffffffffffffffffffffff16815260200190815260200160002060006101000a81548160ff0219169083151502179055508173ffffffffffffffffffffffffffffffffffffffff168373ffffffffffffffffffffffffffffffffffffffff167f17307eab39ab6107e8899845ad3d59bd9653f200f220920489ca2b5937696c3183604051611b6e919061269c565b60405180910390a3505050565b60008373ffffffffffffffffffffffffffffffffffffffff163b1115611d2c578273ffffffffffffffffffffffffffffffffffffffff1663150b7a02611bbf6117d8565b8685856040518563ffffffff1660e01b8152600401611be19493929190613262565b6020604051808303816000875af1925050508015611c1d57506040513d601f19601f82011682018060405250810190611c1a91906132c3565b60015b611ca1573d8060008114611c4d576040519150601f19603f3d011682016040523d82523d6000602084013e611c52565b606091505b506000815103611c9957836040517f64a0ae92000000000000000000000000000000000000000000000000000000008152600401611c909190612803565b60405180910390fd5b805181602001fd5b63150b7a0260e01b7bffffffffffffffffffffffffffffffffffffffffffffffffffffffff1916817bffffffffffffffffffffffffffffffffffffffffffffffffffffffff191614611d2a57836040517f64a0ae92000000000000000000000000000000000000000000000000000000008152600401611d219190612803565b60405180910390fd5b505b50505050565b606060405180602001604052806000815250905090565b6060611d5482611713565b506000611d5f611d32565b90506000815111611d7f5760405180602001604052806000815250611daa565b80611d8984612237565b604051602001611d9a92919061317d565b6040516020818303038152906040525b915050919050565b600073ffffffffffffffffffffffffffffffffffffffff168273ffffffffffffffffffffffffffffffffffffffff1603611e245760006040517f64a0ae92000000000000000000000000000000000000000000000000000000008152600401611e1b9190612803565b60405180910390fd5b6000611e32838360006117f2565b9050600073ffffffffffffffffffffffffffffffffffffffff168173ffffffffffffffffffffffffffffffffffffffff1614611ea65760006040517f73c6ac6e000000000000000000000000000000000000000000000000000000008152600401611e9d9190612803565b60405180910390fd5b505050565b80600660008481526020019081526020016000209081611ecb9190613492565b507ff8e1a15aba9398e019f0b49df1a4fde98ee17ae345cb5f6b5e2c27f5033e8ce782604051611efb91906128ec565b60405180910390a15050565b60007f01ffc9a7000000000000000000000000000000000000000000000000000000007bffffffffffffffffffffffffffffffffffffffffffffffffffffffff1916827bffffffffffffffffffffffffffffffffffffffffffffffffffffffff1916149050919050565b60006002600083815260200190815260200160002060009054906101000a900473ffffffffffffffffffffffffffffffffffffffff169050919050565b8080611fe75750600073ffffffffffffffffffffffffffffffffffffffff168273ffffffffffffffffffffffffffffffffffffffff1614155b1561211b576000611ff784611713565b9050600073ffffffffffffffffffffffffffffffffffffffff168373ffffffffffffffffffffffffffffffffffffffff161415801561206257508273ffffffffffffffffffffffffffffffffffffffff168173ffffffffffffffffffffffffffffffffffffffff1614155b80156120755750612073818461159d565b155b156120b757826040517fa9fbf51f0000000000000000000000000000000000000000000000000000000081526004016120ae9190612803565b60405180910390fd5b811561211957838573ffffffffffffffffffffffffffffffffffffffff168273ffffffffffffffffffffffffffffffffffffffff167f8c5be1e5ebec7d5bd14f71427d1e84f3dd0314c0f7b2291e5b200ac8c7c3b92560405160405180910390a45b505b836004600085815260200190815260200160002060006101000a81548173ffffffffffffffffffffffffffffffffffffffff021916908373ffffffffffffffffffffffffffffffffffffffff16021790555050505050565b61217e838383612305565b61223257600073ffffffffffffffffffffffffffffffffffffffff168373ffffffffffffffffffffffffffffffffffffffff16036121f357806040517f7e2732890000000000000000000000000000000000000000000000000000000081526004016121ea91906128ec565b60405180910390fd5b81816040517f177e802f000000000000000000000000000000000000000000000000000000008152600401612229929190613564565b60405180910390fd5b505050565b606060006001612246846123c6565b01905060008167ffffffffffffffff81111561226557612264612b4f565b5b6040519080825280601f01601f1916602001820160405280156122975781602001600182028036833780820191505090505b509050600082602001820190505b6001156122fa578080600190039150507f3031323334353637383961626364656600000000000000000000000000000000600a86061a8153600a85816122ee576122ed61358d565b5b049450600085036122a5575b819350505050919050565b60008073ffffffffffffffffffffffffffffffffffffffff168373ffffffffffffffffffffffffffffffffffffffff16141580156123bd57508273ffffffffffffffffffffffffffffffffffffffff168473ffffffffffffffffffffffffffffffffffffffff16148061237e575061237d848461159d565b5b806123bc57508273ffffffffffffffffffffffffffffffffffffffff166123a48361179b565b73ffffffffffffffffffffffffffffffffffffffff16145b5b90509392505050565b600080600090507a184f03e93ff9f4daa797ed6e38ed64bf6a1f0100000000000000008310612424577a184f03e93ff9f4daa797ed6e38ed64bf6a1f010000000000000000838161241a5761241961358d565b5b0492506040810190505b6d04ee2d6d415b85acef81000000008310612461576d04ee2d6d415b85acef810000000083816124575761245661358d565b5b0492506020810190505b662386f26fc10000831061249057662386f26fc1000083816124865761248561358d565b5b0492506010810190505b6305f5e10083106124b9576305f5e10083816124af576124ae61358d565b5b0492506008810190505b61271083106124de5761271083816124d4576124d361358d565b5b0492506004810190505b6064831061250157606483816124f7576124f661358d565b5b0492506002810190505b600a8310612510576001810190505b80915050919050565b6040518060c00160405280600073ffffffffffffffffffffffffffffffffffffffff168152602001600073ffffffffffffffffffffffffffffffffffffffff168152602001600081526020016000815260200160008152602001606081525090565b6000819050919050565b7f4e487b7100000000000000000000000000000000000000000000000000000000600052601160045260246000fd5b60006125bf8261257b565b91506125ca8361257b565b92508282019050808211156125e2576125e1612585565b5b92915050565b6000604051905090565b600080fd5b600080fd5b60007fffffffff0000000000000000000000000000000000000000000000000000000082169050919050565b612631816125fc565b811461263c57600080fd5b50565b60008135905061264e81612628565b92915050565b60006020828403121561266a576126696125f2565b5b60006126788482850161263f565b91505092915050565b60008115159050919050565b61269681612681565b82525050565b60006020820190506126b1600083018461268d565b92915050565b600081519050919050565b600082825260208201905092915050565b60005b838110156126f15780820151818401526020810190506126d6565b60008484015250505050565b6000601f19601f8301169050919050565b6000612719826126b7565b61272381856126c2565b93506127338185602086016126d3565b61273c816126fd565b840191505092915050565b60006020820190508181036000830152612761818461270e565b905092915050565b6127728161257b565b811461277d57600080fd5b50565b60008135905061278f81612769565b92915050565b6000602082840312156127ab576127aa6125f2565b5b60006127b984828501612780565b91505092915050565b600073ffffffffffffffffffffffffffffffffffffffff82169050919050565b60006127ed826127c2565b9050919050565b6127fd816127e2565b82525050565b600060208201905061281860008301846127f4565b92915050565b612827816127e2565b811461283257600080fd5b50565b6000813590506128448161281e565b92915050565b60008060408385031215612861576128606125f2565b5b600061286f85828601612835565b925050602061288085828601612780565b9150509250929050565b6000806000606084860312156128a3576128a26125f2565b5b60006128b186828701612835565b93505060206128c286828701612835565b92505060406128d386828701612780565b9150509250925092565b6128e68161257b565b82525050565b600060208201905061290160008301846128dd565b92915050565b6000806040838503121561291e5761291d6125f2565b5b600061292c85828601612780565b925050602061293d85828601612780565b9150509250929050565b6000612952826127c2565b9050919050565b61296281612947565b82525050565b6129718161257b565b82525050565b600082825260208201905092915050565b6000612993826126b7565b61299d8185612977565b93506129ad8185602086016126d3565b6129b6816126fd565b840191505092915050565b600060c0830160008301516129d96000860182612959565b5060208301516129ec6020860182612959565b5060408301516129ff6040860182612968565b506060830151612a126060860182612968565b506080830151612a256080860182612968565b5060a083015184820360a0860152612a3d8282612988565b9150508091505092915050565b60006020820190508181036000830152612a6481846129c1565b905092915050565b60008060408385031215612a8357612a826125f2565b5b6000612a9185828601612780565b9250506020612aa285828601612835565b9150509250929050565b600060208284031215612ac257612ac16125f2565b5b6000612ad084828501612835565b91505092915050565b612ae281612681565b8114612aed57600080fd5b50565b600081359050612aff81612ad9565b92915050565b60008060408385031215612b1c57612b1b6125f2565b5b6000612b2a85828601612835565b9250506020612b3b85828601612af0565b9150509250929050565b600080fd5b600080fd5b7f4e487b7100000000000000000000000000000000000000000000000000000000600052604160045260246000fd5b612b87826126fd565b810181811067ffffffffffffffff82111715612ba657612ba5612b4f565b5b80604052505050565b6000612bb96125e8565b9050612bc58282612b7e565b919050565b600067ffffffffffffffff821115612be557612be4612b4f565b5b612bee826126fd565b9050602081019050919050565b82818337600083830152505050565b6000612c1d612c1884612bca565b612baf565b905082815260208101848484011115612c3957612c38612b4a565b5b612c44848285612bfb565b509392505050565b600082601f830112612c6157612c60612b45565b5b8135612c71848260208601612c0a565b91505092915050565b60008060008060808587031215612c9457612c936125f2565b5b6000612ca287828801612835565b9450506020612cb387828801612835565b9350506040612cc487828801612780565b925050606085013567ffffffffffffffff811115612ce557612ce46125f7565b5b612cf187828801612c4c565b91505092959194509250565b600067ffffffffffffffff821115612d1857612d17612b4f565b5b612d21826126fd565b9050602081019050919050565b6000612d41612d3c84612cfd565b612baf565b905082815260208101848484011115612d5d57612d5c612b4a565b5b612d68848285612bfb565b509392505050565b600082601f830112612d8557612d84612b45565b5b8135612d95848260208601612d2e565b91505092915050565b600080600080600080600060e0888a031215612dbd57612dbc6125f2565b5b6000612dcb8a828b01612780565b9750506020612ddc8a828b01612835565b9650506040612ded8a828b01612835565b9550506060612dfe8a828b01612780565b9450506080612e0f8a828b01612780565b93505060a0612e208a828b01612780565b92505060c088013567ffffffffffffffff811115612e4157612e406125f7565b5b612e4d8a828b01612d70565b91505092959891949750929550565b60008060408385031215612e7357612e726125f2565b5b6000612e8185828601612835565b9250506020612e9285828601612835565b9150509250929050565b7f4e487b7100000000000000000000000000000000000000000000000000000000600052602260045260246000fd5b60006002820490506001821680612ee357607f821691505b602082108103612ef657612ef5612e9c565b5b50919050565b6000606082019050612f1160008301866127f4565b612f1e60208301856128dd565b612f2b60408301846127f4565b949350505050565b7f4f6e6c792072656e7465722063616e2063616c6c2074686973206d6574686f64600082015250565b6000612f696020836126c2565b9150612f7482612f33565b602082019050919050565b60006020820190508181036000830152612f9881612f5c565b9050919050565b7f4465706f736974206e6f7420656e6f7567680000000000000000000000000000600082015250565b6000612fd56012836126c2565b9150612fe082612f9f565b602082019050919050565b6000602082019050818103600083015261300481612fc8565b9050919050565b60006130168261257b565b91506130218361257b565b925082820390508181111561303957613038612585565b5b92915050565b6000819050919050565b600061306461305f61305a846127c2565b61303f565b6127c2565b9050919050565b600061307682613049565b9050919050565b60006130888261306b565b9050919050565b6130988161307d565b82525050565b60006060820190506130b360008301866127f4565b6130c0602083018561308f565b6130cd60408301846128dd565b949350505050565b7f42616c616e636572206e6f7420656e6f75676874000000000000000000000000600082015250565b600061310b6014836126c2565b9150613116826130d5565b602082019050919050565b6000602082019050818103600083015261313a816130fe565b9050919050565b600081905092915050565b6000613157826126b7565b6131618185613141565b93506131718185602086016126d3565b80840191505092915050565b6000613189828561314c565b9150613195828461314c565b91508190509392505050565b7f42616c616e6365206e6f7420656e6f7567680000000000000000000000000000600082015250565b60006131d76012836126c2565b91506131e2826131a1565b602082019050919050565b60006020820190508181036000830152613206816131ca565b9050919050565b600081519050919050565b600082825260208201905092915050565b60006132348261320d565b61323e8185613218565b935061324e8185602086016126d3565b613257816126fd565b840191505092915050565b600060808201905061327760008301876127f4565b61328460208301866127f4565b61329160408301856128dd565b81810360608301526132a38184613229565b905095945050505050565b6000815190506132bd81612628565b92915050565b6000602082840312156132d9576132d86125f2565b5b60006132e7848285016132ae565b91505092915050565b60008190508160005260206000209050919050565b60006020601f8301049050919050565b600082821b905092915050565b6000600883026133527fffffffffffffffffffffffffffffffffffffffffffffffffffffffffffffffff82613315565b61335c8683613315565b95508019841693508086168417925050509392505050565b600061338f61338a6133858461257b565b61303f565b61257b565b9050919050565b6000819050919050565b6133a983613374565b6133bd6133b582613396565b848454613322565b825550505050565b600090565b6133d26133c5565b6133dd8184846133a0565b505050565b5b81811015613401576133f66000826133ca565b6001810190506133e3565b5050565b601f82111561344657613417816132f0565b61342084613305565b8101602085101561342f578190505b61344361343b85613305565b8301826133e2565b50505b505050565b600082821c905092915050565b60006134696000198460080261344b565b1980831691505092915050565b60006134828383613458565b9150826002028217905092915050565b61349b826126b7565b67ffffffffffffffff8111156134b4576134b3612b4f565b5b6134be8254612ecb565b6134c9828285613405565b600060209050601f8311600181146134fc57600084156134ea578287015190505b6134f48582613476565b86555061355c565b601f19841661350a866132f0565b60005b828110156135325784890151825560018201915060208501945060208101905061350d565b8683101561354f578489015161354b601f891682613458565b8355505b6001600288020188555050505b505050505050565b600060408201905061357960008301856127f4565b61358660208301846128dd565b9392505050565b7f4e487b7100000000000000000000000000000000000000000000000000000000600052601260045260246000fdfea2646970667358221220a81c019dda4137f3cb5e5362db51b0e31d3787c05dddbd0a19f250a3fdabaa7864736f6c63430008140033",
  "linkReferences": {},
  "deployedLinkReferences": {}
}