{
  "_format": "hh-sol-artifact-1",
  "contractName": "SmartContract",
  "sourceName": "contracts/SmartContract.sol",
  "abi": [
    {
      "inputs": [],
      "stateMutability": "nonpayable",
      "type": "constructor"
    },
    {
      "inputs": [
        {
          "internalType": "address",
          "name": "sender",
          "type": "address"
        },
        {
          "internalType": "uint256",
          "name": "tokenId",
          "type": "uint256"
        },
        {
          "internalType": "address",
          "name": "owner",
          "type": "address"
        }
      ],
      "name": "ERC721IncorrectOwner",
      "type": "error"
    },
    {
      "inputs": [
        {
          "internalType": "address",
          "name": "operator",
          "type": "address"
        },
        {
          "internalType": "uint256",
          "name": "tokenId",
          "type": "uint256"
        }
      ],
      "name": "ERC721InsufficientApproval",
      "type": "error"
    },
    {
      "inputs": [
        {
          "internalType": "address",
          "name": "approver",
          "type": "address"
        }
      ],
      "name": "ERC721InvalidApprover",
      "type": "error"
    },
    {
      "inputs": [
        {
          "internalType": "address",
          "name": "operator",
          "type": "address"
        }
      ],
      "name": "ERC721InvalidOperator",
      "type": "error"
    },
    {
      "inputs": [
        {
          "internalType": "address",
          "name": "owner",
          "type": "address"
        }
      ],
      "name": "ERC721InvalidOwner",
      "type": "error"
    },
    {
      "inputs": [
        {
          "internalType": "address",
          "name": "receiver",
          "type": "address"
        }
      ],
      "name": "ERC721InvalidReceiver",
      "type": "error"
    },
    {
      "inputs": [
        {
          "internalType": "address",
          "name": "sender",
          "type": "address"
        }
      ],
      "name": "ERC721InvalidSender",
      "type": "error"
    },
    {
      "inputs": [
        {
          "internalType": "uint256",
          "name": "tokenId",
          "type": "uint256"
        }
      ],
      "name": "ERC721NonexistentToken",
      "type": "error"
    },
    {
      "anonymous": false,
      "inputs": [
        {
          "indexed": true,
          "internalType": "address",
          "name": "owner",
          "type": "address"
        },
        {
          "indexed": true,
          "internalType": "address",
          "name": "approved",
          "type": "address"
        },
        {
          "indexed": true,
          "internalType": "uint256",
          "name": "tokenId",
          "type": "uint256"
        }
      ],
      "name": "Approval",
      "type": "event"
    },
    {
      "anonymous": false,
      "inputs": [
        {
          "indexed": true,
          "internalType": "address",
          "name": "owner",
          "type": "address"
        },
        {
          "indexed": true,
          "internalType": "address",
          "name": "operator",
          "type": "address"
        },
        {
          "indexed": false,
          "internalType": "bool",
          "name": "approved",
          "type": "bool"
        }
      ],
      "name": "ApprovalForAll",
      "type": "event"
    },
    {
      "anonymous": false,
      "inputs": [
        {
          "indexed": false,
          "internalType": "uint256",
          "name": "_fromTokenId",
          "type": "uint256"
        },
        {
          "indexed": false,
          "internalType": "uint256",
          "name": "_toTokenId",
          "type": "uint256"
        }
      ],
      "name": "BatchMetadataUpdate",
      "type": "event"
    },
    {
      "anonymous": false,
      "inputs": [
        {
          "indexed": false,
          "internalType": "uint256",
          "name": "_tokenId",
          "type": "uint256"
        }
      ],
      "name": "MetadataUpdate",
      "type": "event"
    },
    {
      "anonymous": false,
      "inputs": [
        {
          "indexed": true,
          "internalType": "address",
          "name": "from",
          "type": "address"
        },
        {
          "indexed": true,
          "internalType": "address",
          "name": "to",
          "type": "address"
        },
        {
          "indexed": true,
          "internalType": "uint256",
          "name": "tokenId",
          "type": "uint256"
        }
      ],
      "name": "Transfer",
      "type": "event"
    },
    {
      "inputs": [
        {
          "internalType": "address",
          "name": "to",
          "type": "address"
        },
        {
          "internalType": "uint256",
          "name": "tokenId",
          "type": "uint256"
        }
      ],
      "name": "approve",
      "outputs": [],
      "stateMutability": "nonpayable",
      "type": "function"
    },
    {
      "inputs": [
        {
          "internalType": "address",
          "name": "owner",
          "type": "address"
        }
      ],
      "name": "balanceOf",
      "outputs": [
        {
          "internalType": "uint256",
          "name": "",
          "type": "uint256"
        }
      ],
      "stateMutability": "view",
      "type": "function"
    },
    {
      "inputs": [
        {
          "internalType": "address",
          "name": "_to",
          "type": "address"
        }
      ],
      "name": "close",
      "outputs": [],
      "stateMutability": "nonpayable",
      "type": "function"
    },
    {
      "inputs": [
        {
          "internalType": "uint256",
          "name": "id",
          "type": "uint256"
        }
      ],
      "name": "depositContract",
      "outputs": [],
      "stateMutability": "payable",
      "type": "function"
    },
    {
      "inputs": [
        {
          "internalType": "uint256",
          "name": "tokenId",
          "type": "uint256"
        }
      ],
      "name": "getApproved",
      "outputs": [
        {
          "internalType": "address",
          "name": "",
          "type": "address"
        }
      ],
      "stateMutability": "view",
      "type": "function"
    },
    {
      "inputs": [],
      "name": "getBalanceRenterETH",
      "outputs": [
        {
          "internalType": "uint256",
          "name": "",
          "type": "uint256"
        }
      ],
      "stateMutability": "view",
      "type": "function"
    },
    {
      "inputs": [
        {
          "internalType": "uint256",
          "name": "id",
          "type": "uint256"
        }
      ],
      "name": "getContract",
      "outputs": [
        {
          "components": [
            {
              "internalType": "address payable",
              "name": "renter",
              "type": "address"
            },
            {
              "internalType": "address payable",
              "name": "seller",
              "type": "address"
            },
            {
              "internalType": "uint256",
              "name": "reId",
              "type": "uint256"
            },
            {
              "internalType": "uint256",
              "name": "rentCost",
              "type": "uint256"
            },
            {
              "internalType": "uint256",
              "name": "duration",
              "type": "uint256"
            },
            {
              "internalType": "uint256",
              "name": "timeStart",
              "type": "uint256"
            },
            {
              "internalType": "uint256",
              "name": "paymentDeadline",
              "type": "uint256"
            },
            {
              "internalType": "string",
              "name": "payment_type",
              "type": "string"
            },
            {
              "internalType": "string[]",
              "name": "termArray",
              "type": "string[]"
            }
          ],
          "internalType": "struct SmartContract.ContractEntity",
          "name": "",
          "type": "tuple"
        }
      ],
      "stateMutability": "view",
      "type": "function"
    },
    {
      "inputs": [
        {
          "internalType": "uint256",
          "name": "scId",
          "type": "uint256"
        },
        {
          "internalType": "address",
          "name": "renterAddress",
          "type": "address"
        }
      ],
      "name": "getDepositContractByRenter",
      "outputs": [
        {
          "internalType": "uint256",
          "name": "",
          "type": "uint256"
        }
      ],
      "stateMutability": "view",
      "type": "function"
    },
    {
      "inputs": [
        {
          "internalType": "address",
          "name": "owner",
          "type": "address"
        },
        {
          "internalType": "address",
          "name": "operator",
          "type": "address"
        }
      ],
      "name": "isApprovedForAll",
      "outputs": [
        {
          "internalType": "bool",
          "name": "",
          "type": "bool"
        }
      ],
      "stateMutability": "view",
      "type": "function"
    },
    {
      "inputs": [
        {
          "internalType": "uint256",
          "name": "_newItemId",
          "type": "uint256"
        },
        {
          "internalType": "address",
          "name": "_renterAddress",
          "type": "address"
        },
        {
          "internalType": "address",
          "name": "_sellerAdsress",
          "type": "address"
        },
        {
          "internalType": "uint256",
          "name": "_reId",
          "type": "uint256"
        },
        {
          "internalType": "uint256",
          "name": "_rentCost",
          "type": "uint256"
        },
        {
          "internalType": "uint256",
          "name": "_duration",
          "type": "uint256"
        },
        {
          "internalType": "uint256",
          "name": "_timeStart",
          "type": "uint256"
        },
        {
          "internalType": "uint256",
          "name": "_paymentDeadline",
          "type": "uint256"
        },
        {
          "internalType": "string",
          "name": "_payment_type",
          "type": "string"
        },
        {
          "internalType": "string",
          "name": "uri",
          "type": "string"
        },
        {
          "internalType": "string[]",
          "name": "_termArray",
          "type": "string[]"
        }
      ],
      "name": "mint",
      "outputs": [
        {
          "internalType": "uint256",
          "name": "",
          "type": "uint256"
        }
      ],
      "stateMutability": "nonpayable",
      "type": "function"
    },
    {
      "inputs": [],
      "name": "name",
      "outputs": [
        {
          "internalType": "string",
          "name": "",
          "type": "string"
        }
      ],
      "stateMutability": "view",
      "type": "function"
    },
    {
      "inputs": [
        {
          "internalType": "uint256",
          "name": "tokenId",
          "type": "uint256"
        }
      ],
      "name": "ownerOf",
      "outputs": [
        {
          "internalType": "address",
          "name": "",
          "type": "address"
        }
      ],
      "stateMutability": "view",
      "type": "function"
    },
    {
      "inputs": [
        {
          "internalType": "uint256",
          "name": "_time",
          "type": "uint256"
        },
        {
          "internalType": "uint256",
          "name": "id",
          "type": "uint256"
        }
      ],
      "name": "renewal",
      "outputs": [],
      "stateMutability": "payable",
      "type": "function"
    },
    {
      "inputs": [
        {
          "internalType": "address",
          "name": "from",
          "type": "address"
        },
        {
          "internalType": "address",
          "name": "to",
          "type": "address"
        },
        {
          "internalType": "uint256",
          "name": "tokenId",
          "type": "uint256"
        }
      ],
      "name": "safeTransferFrom",
      "outputs": [],
      "stateMutability": "nonpayable",
      "type": "function"
    },
    {
      "inputs": [
        {
          "internalType": "address",
          "name": "from",
          "type": "address"
        },
        {
          "internalType": "address",
          "name": "to",
          "type": "address"
        },
        {
          "internalType": "uint256",
          "name": "tokenId",
          "type": "uint256"
        },
        {
          "internalType": "bytes",
          "name": "data",
          "type": "bytes"
        }
      ],
      "name": "safeTransferFrom",
      "outputs": [],
      "stateMutability": "nonpayable",
      "type": "function"
    },
    {
      "inputs": [
        {
          "internalType": "address",
          "name": "operator",
          "type": "address"
        },
        {
          "internalType": "bool",
          "name": "approved",
          "type": "bool"
        }
      ],
      "name": "setApprovalForAll",
      "outputs": [],
      "stateMutability": "nonpayable",
      "type": "function"
    },
    {
      "inputs": [
        {
          "internalType": "bytes4",
          "name": "interfaceId",
          "type": "bytes4"
        }
      ],
      "name": "supportsInterface",
      "outputs": [
        {
          "internalType": "bool",
          "name": "",
          "type": "bool"
        }
      ],
      "stateMutability": "view",
      "type": "function"
    },
    {
      "inputs": [],
      "name": "symbol",
      "outputs": [
        {
          "internalType": "string",
          "name": "",
          "type": "string"
        }
      ],
      "stateMutability": "view",
      "type": "function"
    },
    {
      "inputs": [
        {
          "internalType": "uint256",
          "name": "tokenId",
          "type": "uint256"
        }
      ],
      "name": "tokenURI",
      "outputs": [
        {
          "internalType": "string",
          "name": "",
          "type": "string"
        }
      ],
      "stateMutability": "view",
      "type": "function"
    },
    {
      "inputs": [
        {
          "internalType": "address",
          "name": "from",
          "type": "address"
        },
        {
          "internalType": "address",
          "name": "to",
          "type": "address"
        },
        {
          "internalType": "uint256",
          "name": "tokenId",
          "type": "uint256"
        }
      ],
      "name": "transferFrom",
      "outputs": [],
      "stateMutability": "nonpayable",
      "type": "function"
    },
    {
      "inputs": [
        {
          "internalType": "uint256",
          "name": "value",
          "type": "uint256"
        }
      ],
      "name": "withdrawPositRenter",
      "outputs": [],
      "stateMutability": "nonpayable",
      "type": "function"
    },
    {
      "stateMutability": "payable",
      "type": "receive"
    }
  ],
  "bytecode": "0x60806040523480156200001157600080fd5b506040518060400160405280600e81526020017f536d61727420436f6e74726163740000000000000000000000000000000000008152506040518060400160405280600281526020017f534300000000000000000000000000000000000000000000000000000000000081525081600090816200008f919062000324565b508060019081620000a1919062000324565b5050506200040b565b600081519050919050565b7f4e487b7100000000000000000000000000000000000000000000000000000000600052604160045260246000fd5b7f4e487b7100000000000000000000000000000000000000000000000000000000600052602260045260246000fd5b600060028204905060018216806200012c57607f821691505b602082108103620001425762000141620000e4565b5b50919050565b60008190508160005260206000209050919050565b60006020601f8301049050919050565b600082821b905092915050565b600060088302620001ac7fffffffffffffffffffffffffffffffffffffffffffffffffffffffffffffffff826200016d565b620001b886836200016d565b95508019841693508086168417925050509392505050565b6000819050919050565b6000819050919050565b600062000205620001ff620001f984620001d0565b620001da565b620001d0565b9050919050565b6000819050919050565b6200022183620001e4565b6200023962000230826200020c565b8484546200017a565b825550505050565b600090565b6200025062000241565b6200025d81848462000216565b505050565b5b8181101562000285576200027960008262000246565b60018101905062000263565b5050565b601f821115620002d4576200029e8162000148565b620002a9846200015d565b81016020851015620002b9578190505b620002d1620002c8856200015d565b83018262000262565b50505b505050565b600082821c905092915050565b6000620002f960001984600802620002d9565b1980831691505092915050565b6000620003148383620002e6565b9150826002028217905092915050565b6200032f82620000aa565b67ffffffffffffffff8111156200034b576200034a620000b5565b5b62000357825462000113565b6200036482828562000289565b600060209050601f8311600181146200039c576000841562000387578287015190505b62000393858262000306565b86555062000403565b601f198416620003ac8662000148565b60005b82811015620003d657848901518255600182019150602085019450602081019050620003af565b86831015620003f65784890151620003f2601f891682620002e6565b8355505b6001600288020188555050505b505050505050565b61375c806200041b6000396000f3fe60806040526004361061012e5760003560e01c806370a08231116100ab578063b07bc0ff1161006f578063b07bc0ff14610417578063b88d4fde14610442578063c74073a11461046b578063c87b56dd14610494578063e0ea9c34146104d1578063e985e9c5146104fa57610135565b806370a082311461032d57806374770c811461036a57806395d89b41146103a75780639b845899146103d2578063a22cb465146103ee57610135565b806342842e0e116100f257806342842e0e146102315780636135281a1461025a5780636352211e146102765780636ebc8c86146102b35780636ef49dfc146102f057610135565b806301ffc9a71461013a57806306fdde0314610177578063081812fc146101a2578063095ea7b3146101df57806323b872dd1461020857610135565b3661013557005b600080fd5b34801561014657600080fd5b50610161600480360381019061015c91906124d1565b610537565b60405161016e9190612519565b60405180910390f35b34801561018357600080fd5b5061018c610598565b60405161019991906125c4565b60405180910390f35b3480156101ae57600080fd5b506101c960048036038101906101c4919061261c565b61062a565b6040516101d6919061268a565b60405180910390f35b3480156101eb57600080fd5b50610206600480360381019061020191906126d1565b610646565b005b34801561021457600080fd5b5061022f600480360381019061022a9190612711565b61065c565b005b34801561023d57600080fd5b5061025860048036038101906102539190612711565b61075e565b005b610274600480360381019061026f9190612764565b61077e565b005b34801561028257600080fd5b5061029d6004803603810190610298919061261c565b610878565b6040516102aa919061268a565b60405180910390f35b3480156102bf57600080fd5b506102da60048036038101906102d5919061261c565b61088a565b6040516102e791906129ac565b60405180910390f35b3480156102fc57600080fd5b50610317600480360381019061031291906129ce565b610b07565b6040516103249190612a1d565b60405180910390f35b34801561033957600080fd5b50610354600480360381019061034f9190612a38565b610b62565b6040516103619190612a1d565b60405180910390f35b34801561037657600080fd5b50610391600480360381019061038c9190612c80565b610c1c565b60405161039e9190612a1d565b60405180910390f35b3480156103b357600080fd5b506103bc610d97565b6040516103c991906125c4565b60405180910390f35b6103ec60048036038101906103e7919061261c565b610e29565b005b3480156103fa57600080fd5b5061041560048036038101906104109190612df4565b611178565b005b34801561042357600080fd5b5061042c61118e565b6040516104399190612a1d565b60405180910390f35b34801561044e57600080fd5b5061046960048036038101906104649190612ed5565b6111d5565b005b34801561047757600080fd5b50610492600480360381019061048d9190612a38565b6111f2565b005b3480156104a057600080fd5b506104bb60048036038101906104b6919061261c565b61123c565b6040516104c891906125c4565b60405180910390f35b3480156104dd57600080fd5b506104f860048036038101906104f3919061261c565b61134f565b005b34801561050657600080fd5b50610521600480360381019061051c9190612f58565b611471565b60405161052e9190612519565b60405180910390f35b6000634906490660e01b7bffffffffffffffffffffffffffffffffffffffffffffffffffffffff1916827bffffffffffffffffffffffffffffffffffffffffffffffffffffffff19161480610591575061059082611505565b5b9050919050565b6060600080546105a790612fc7565b80601f01602080910402602001604051908101604052809291908181526020018280546105d390612fc7565b80156106205780601f106105f557610100808354040283529160200191610620565b820191906000526020600020905b81548152906001019060200180831161060357829003601f168201915b5050505050905090565b6000610635826115e7565b5061063f8261166f565b9050919050565b61065882826106536116ac565b6116b4565b5050565b600073ffffffffffffffffffffffffffffffffffffffff168273ffffffffffffffffffffffffffffffffffffffff16036106ce5760006040517f64a0ae920000000000000000000000000000000000000000000000000000000081526004016106c5919061268a565b60405180910390fd5b60006106e283836106dd6116ac565b6116c6565b90508373ffffffffffffffffffffffffffffffffffffffff168173ffffffffffffffffffffffffffffffffffffffff1614610758578382826040517f64283d7b00000000000000000000000000000000000000000000000000000000815260040161074f93929190612ff8565b60405180910390fd5b50505050565b610779838383604051806020016040528060008152506111d5565b505050565b806007600082815260200190815260200160002060000160009054906101000a900473ffffffffffffffffffffffffffffffffffffffff1673ffffffffffffffffffffffffffffffffffffffff163373ffffffffffffffffffffffffffffffffffffffff1614610823576040517f08c379a000000000000000000000000000000000000000000000000000000000815260040161081a9061307b565b60405180910390fd5b600760008381526020019081526020016000206003015434101561084657600080fd5b8260076000848152602001908152602001600020600401600082825461086c91906130ca565b92505081905550505050565b6000610883826115e7565b9050919050565b6108926123ed565b600060076000848152602001908152602001600020604051806101200160405290816000820160009054906101000a900473ffffffffffffffffffffffffffffffffffffffff1673ffffffffffffffffffffffffffffffffffffffff1673ffffffffffffffffffffffffffffffffffffffff1681526020016001820160009054906101000a900473ffffffffffffffffffffffffffffffffffffffff1673ffffffffffffffffffffffffffffffffffffffff1673ffffffffffffffffffffffffffffffffffffffff16815260200160028201548152602001600382015481526020016004820154815260200160058201548152602001600682015481526020016007820180546109a190612fc7565b80601f01602080910402602001604051908101604052809291908181526020018280546109cd90612fc7565b8015610a1a5780601f106109ef57610100808354040283529160200191610a1a565b820191906000526020600020905b8154815290600101906020018083116109fd57829003601f168201915b5050505050815260200160088201805480602002602001604051908101604052809291908181526020016000905b82821015610af4578382906000526020600020018054610a6790612fc7565b80601f0160208091040260200160405190810160405280929190818152602001828054610a9390612fc7565b8015610ae05780601f10610ab557610100808354040283529160200191610ae0565b820191906000526020600020905b815481529060010190602001808311610ac357829003601f168201915b505050505081526020019060010190610a48565b5050505081525050905080915050919050565b6000600860008373ffffffffffffffffffffffffffffffffffffffff1673ffffffffffffffffffffffffffffffffffffffff168152602001908152602001600020600084815260200190815260200160002054905092915050565b60008073ffffffffffffffffffffffffffffffffffffffff168273ffffffffffffffffffffffffffffffffffffffff1603610bd55760006040517f89c62b64000000000000000000000000000000000000000000000000000000008152600401610bcc919061268a565b60405180910390fd5b600360008373ffffffffffffffffffffffffffffffffffffffff1673ffffffffffffffffffffffffffffffffffffffff168152602001908152602001600020549050919050565b6000808c9050610c2c30826118e0565b610c3681856119d9565b6000600760008f815260200190815260200160002090508c8160000160006101000a81548173ffffffffffffffffffffffffffffffffffffffff021916908373ffffffffffffffffffffffffffffffffffffffff1602179055508b8160010160006101000a81548173ffffffffffffffffffffffffffffffffffffffff021916908373ffffffffffffffffffffffffffffffffffffffff1602179055508a816002018190555089816003018190555088816004018190555087816005018190555086816006018190555085816007019081610d1191906132aa565b5060005b8451811015610d825781600801858281518110610d3557610d3461337c565b5b6020026020010151908060018154018082558091505060019003906000526020600020016000909190919091509081610d6e91906132aa565b508080610d7a906133ab565b915050610d15565b5081925050509b9a5050505050505050505050565b606060018054610da690612fc7565b80601f0160208091040260200160405190810160405280929190818152602001828054610dd290612fc7565b8015610e1f5780601f10610df457610100808354040283529160200191610e1f565b820191906000526020600020905b815481529060010190602001808311610e0257829003601f168201915b5050505050905090565b806007600082815260200190815260200160002060000160009054906101000a900473ffffffffffffffffffffffffffffffffffffffff1673ffffffffffffffffffffffffffffffffffffffff163373ffffffffffffffffffffffffffffffffffffffff1614610ece576040517f08c379a0000000000000000000000000000000000000000000000000000000008152600401610ec59061307b565b60405180910390fd5b6000600860003373ffffffffffffffffffffffffffffffffffffffff1673ffffffffffffffffffffffffffffffffffffffff1681526020019081526020016000206000848152602001908152602001600020541161111d576007600083815260200190815260200160002060030154341015610f7f576040517f08c379a0000000000000000000000000000000000000000000000000000000008152600401610f769061343f565b60405180910390fd5b6007600083815260200190815260200160002060030154600860003373ffffffffffffffffffffffffffffffffffffffff1673ffffffffffffffffffffffffffffffffffffffff16815260200190815260200160002060008481526020019081526020016000206000828254610ff591906130ca565b9250508190555060076000838152602001908152602001600020600301543461101e919061345f565b600960003373ffffffffffffffffffffffffffffffffffffffff1673ffffffffffffffffffffffffffffffffffffffff168152602001908152602001600020600082825461106c91906130ca565b925050819055503073ffffffffffffffffffffffffffffffffffffffff166323b872dd306007600086815260200190815260200160002060000160009054906101000a900473ffffffffffffffffffffffffffffffffffffffff16856040518463ffffffff1660e01b81526004016110e6939291906134e8565b600060405180830381600087803b15801561110057600080fd5b505af1158015611114573d6000803e3d6000fd5b50505050611174565b34600960003373ffffffffffffffffffffffffffffffffffffffff1673ffffffffffffffffffffffffffffffffffffffff168152602001908152602001600020600082825461116c91906130ca565b925050819055505b5050565b61118a6111836116ac565b8383611a35565b5050565b6000600960003373ffffffffffffffffffffffffffffffffffffffff1673ffffffffffffffffffffffffffffffffffffffff16815260200190815260200160002054905090565b6111e084848461065c565b6111ec84848484611ba4565b50505050565b8073ffffffffffffffffffffffffffffffffffffffff166108fc479081150290604051600060405180830381858888f19350505050158015611238573d6000803e3d6000fd5b5050565b6060611247826115e7565b50600060066000848152602001908152602001600020805461126890612fc7565b80601f016020809104026020016040519081016040528092919081815260200182805461129490612fc7565b80156112e15780601f106112b6576101008083540402835291602001916112e1565b820191906000526020600020905b8154815290600101906020018083116112c457829003601f168201915b5050505050905060006112f2611d5b565b9050600081510361130757819250505061134a565b60008251111561133c57808260405160200161132492919061355b565b6040516020818303038152906040529250505061134a565b61134584611d72565b925050505b919050565b600960003373ffffffffffffffffffffffffffffffffffffffff1673ffffffffffffffffffffffffffffffffffffffff168152602001908152602001600020548111156113d1576040517f08c379a00000000000000000000000000000000000000000000000000000000081526004016113c8906135cb565b60405180910390fd5b3373ffffffffffffffffffffffffffffffffffffffff166108fc829081150290604051600060405180830381858888f19350505050158015611417573d6000803e3d6000fd5b5080600960003373ffffffffffffffffffffffffffffffffffffffff1673ffffffffffffffffffffffffffffffffffffffff1681526020019081526020016000206000828254611467919061345f565b9250508190555050565b6000600560008473ffffffffffffffffffffffffffffffffffffffff1673ffffffffffffffffffffffffffffffffffffffff16815260200190815260200160002060008373ffffffffffffffffffffffffffffffffffffffff1673ffffffffffffffffffffffffffffffffffffffff16815260200190815260200160002060009054906101000a900460ff16905092915050565b60007f80ac58cd000000000000000000000000000000000000000000000000000000007bffffffffffffffffffffffffffffffffffffffffffffffffffffffff1916827bffffffffffffffffffffffffffffffffffffffffffffffffffffffff191614806115d057507f5b5e139f000000000000000000000000000000000000000000000000000000007bffffffffffffffffffffffffffffffffffffffffffffffffffffffff1916827bffffffffffffffffffffffffffffffffffffffffffffffffffffffff1916145b806115e057506115df82611ddb565b5b9050919050565b6000806115f383611e45565b9050600073ffffffffffffffffffffffffffffffffffffffff168173ffffffffffffffffffffffffffffffffffffffff160361166657826040517f7e27328900000000000000000000000000000000000000000000000000000000815260040161165d9190612a1d565b60405180910390fd5b80915050919050565b60006004600083815260200190815260200160002060009054906101000a900473ffffffffffffffffffffffffffffffffffffffff169050919050565b600033905090565b6116c18383836001611e82565b505050565b6000806116d284611e45565b9050600073ffffffffffffffffffffffffffffffffffffffff168373ffffffffffffffffffffffffffffffffffffffff161461171457611713818486612047565b5b600073ffffffffffffffffffffffffffffffffffffffff168173ffffffffffffffffffffffffffffffffffffffff16146117a557611756600085600080611e82565b6001600360008373ffffffffffffffffffffffffffffffffffffffff1673ffffffffffffffffffffffffffffffffffffffff168152602001908152602001600020600082825403925050819055505b600073ffffffffffffffffffffffffffffffffffffffff168573ffffffffffffffffffffffffffffffffffffffff1614611828576001600360008773ffffffffffffffffffffffffffffffffffffffff1673ffffffffffffffffffffffffffffffffffffffff168152602001908152602001600020600082825401925050819055505b846002600086815260200190815260200160002060006101000a81548173ffffffffffffffffffffffffffffffffffffffff021916908373ffffffffffffffffffffffffffffffffffffffff160217905550838573ffffffffffffffffffffffffffffffffffffffff168273ffffffffffffffffffffffffffffffffffffffff167fddf252ad1be2c89b69c2b068fc378daa952ba7f163c4a11628f55a4df523b3ef60405160405180910390a4809150509392505050565b600073ffffffffffffffffffffffffffffffffffffffff168273ffffffffffffffffffffffffffffffffffffffff16036119525760006040517f64a0ae92000000000000000000000000000000000000000000000000000000008152600401611949919061268a565b60405180910390fd5b6000611960838360006116c6565b9050600073ffffffffffffffffffffffffffffffffffffffff168173ffffffffffffffffffffffffffffffffffffffff16146119d45760006040517f73c6ac6e0000000000000000000000000000000000000000000000000000000081526004016119cb919061268a565b60405180910390fd5b505050565b806006600084815260200190815260200160002090816119f991906132aa565b507ff8e1a15aba9398e019f0b49df1a4fde98ee17ae345cb5f6b5e2c27f5033e8ce782604051611a299190612a1d565b60405180910390a15050565b600073ffffffffffffffffffffffffffffffffffffffff168273ffffffffffffffffffffffffffffffffffffffff1603611aa657816040517f5b08ba18000000000000000000000000000000000000000000000000000000008152600401611a9d919061268a565b60405180910390fd5b80600560008573ffffffffffffffffffffffffffffffffffffffff1673ffffffffffffffffffffffffffffffffffffffff16815260200190815260200160002060008473ffffffffffffffffffffffffffffffffffffffff1673ffffffffffffffffffffffffffffffffffffffff16815260200190815260200160002060006101000a81548160ff0219169083151502179055508173ffffffffffffffffffffffffffffffffffffffff168373ffffffffffffffffffffffffffffffffffffffff167f17307eab39ab6107e8899845ad3d59bd9653f200f220920489ca2b5937696c3183604051611b979190612519565b60405180910390a3505050565b60008373ffffffffffffffffffffffffffffffffffffffff163b1115611d55578273ffffffffffffffffffffffffffffffffffffffff1663150b7a02611be86116ac565b8685856040518563ffffffff1660e01b8152600401611c0a9493929190613640565b6020604051808303816000875af1925050508015611c4657506040513d601f19601f82011682018060405250810190611c4391906136a1565b60015b611cca573d8060008114611c76576040519150601f19603f3d011682016040523d82523d6000602084013e611c7b565b606091505b506000815103611cc257836040517f64a0ae92000000000000000000000000000000000000000000000000000000008152600401611cb9919061268a565b60405180910390fd5b805181602001fd5b63150b7a0260e01b7bffffffffffffffffffffffffffffffffffffffffffffffffffffffff1916817bffffffffffffffffffffffffffffffffffffffffffffffffffffffff191614611d5357836040517f64a0ae92000000000000000000000000000000000000000000000000000000008152600401611d4a919061268a565b60405180910390fd5b505b50505050565b606060405180602001604052806000815250905090565b6060611d7d826115e7565b506000611d88611d5b565b90506000815111611da85760405180602001604052806000815250611dd3565b80611db28461210b565b604051602001611dc392919061355b565b6040516020818303038152906040525b915050919050565b60007f01ffc9a7000000000000000000000000000000000000000000000000000000007bffffffffffffffffffffffffffffffffffffffffffffffffffffffff1916827bffffffffffffffffffffffffffffffffffffffffffffffffffffffff1916149050919050565b60006002600083815260200190815260200160002060009054906101000a900473ffffffffffffffffffffffffffffffffffffffff169050919050565b8080611ebb5750600073ffffffffffffffffffffffffffffffffffffffff168273ffffffffffffffffffffffffffffffffffffffff1614155b15611fef576000611ecb846115e7565b9050600073ffffffffffffffffffffffffffffffffffffffff168373ffffffffffffffffffffffffffffffffffffffff1614158015611f3657508273ffffffffffffffffffffffffffffffffffffffff168173ffffffffffffffffffffffffffffffffffffffff1614155b8015611f495750611f478184611471565b155b15611f8b57826040517fa9fbf51f000000000000000000000000000000000000000000000000000000008152600401611f82919061268a565b60405180910390fd5b8115611fed57838573ffffffffffffffffffffffffffffffffffffffff168273ffffffffffffffffffffffffffffffffffffffff167f8c5be1e5ebec7d5bd14f71427d1e84f3dd0314c0f7b2291e5b200ac8c7c3b92560405160405180910390a45b505b836004600085815260200190815260200160002060006101000a81548173ffffffffffffffffffffffffffffffffffffffff021916908373ffffffffffffffffffffffffffffffffffffffff16021790555050505050565b6120528383836121d9565b61210657600073ffffffffffffffffffffffffffffffffffffffff168373ffffffffffffffffffffffffffffffffffffffff16036120c757806040517f7e2732890000000000000000000000000000000000000000000000000000000081526004016120be9190612a1d565b60405180910390fd5b81816040517f177e802f0000000000000000000000000000000000000000000000000000000081526004016120fd9291906136ce565b60405180910390fd5b505050565b60606000600161211a8461229a565b01905060008167ffffffffffffffff81111561213957612138612a6f565b5b6040519080825280601f01601f19166020018201604052801561216b5781602001600182028036833780820191505090505b509050600082602001820190505b6001156121ce578080600190039150507f3031323334353637383961626364656600000000000000000000000000000000600a86061a8153600a85816121c2576121c16136f7565b5b04945060008503612179575b819350505050919050565b60008073ffffffffffffffffffffffffffffffffffffffff168373ffffffffffffffffffffffffffffffffffffffff161415801561229157508273ffffffffffffffffffffffffffffffffffffffff168473ffffffffffffffffffffffffffffffffffffffff16148061225257506122518484611471565b5b8061229057508273ffffffffffffffffffffffffffffffffffffffff166122788361166f565b73ffffffffffffffffffffffffffffffffffffffff16145b5b90509392505050565b600080600090507a184f03e93ff9f4daa797ed6e38ed64bf6a1f01000000000000000083106122f8577a184f03e93ff9f4daa797ed6e38ed64bf6a1f01000000000000000083816122ee576122ed6136f7565b5b0492506040810190505b6d04ee2d6d415b85acef81000000008310612335576d04ee2d6d415b85acef8100000000838161232b5761232a6136f7565b5b0492506020810190505b662386f26fc10000831061236457662386f26fc10000838161235a576123596136f7565b5b0492506010810190505b6305f5e100831061238d576305f5e1008381612383576123826136f7565b5b0492506008810190505b61271083106123b25761271083816123a8576123a76136f7565b5b0492506004810190505b606483106123d557606483816123cb576123ca6136f7565b5b0492506002810190505b600a83106123e4576001810190505b80915050919050565b604051806101200160405280600073ffffffffffffffffffffffffffffffffffffffff168152602001600073ffffffffffffffffffffffffffffffffffffffff168152602001600081526020016000815260200160008152602001600081526020016000815260200160608152602001606081525090565b6000604051905090565b600080fd5b600080fd5b60007fffffffff0000000000000000000000000000000000000000000000000000000082169050919050565b6124ae81612479565b81146124b957600080fd5b50565b6000813590506124cb816124a5565b92915050565b6000602082840312156124e7576124e661246f565b5b60006124f5848285016124bc565b91505092915050565b60008115159050919050565b612513816124fe565b82525050565b600060208201905061252e600083018461250a565b92915050565b600081519050919050565b600082825260208201905092915050565b60005b8381101561256e578082015181840152602081019050612553565b60008484015250505050565b6000601f19601f8301169050919050565b600061259682612534565b6125a0818561253f565b93506125b0818560208601612550565b6125b98161257a565b840191505092915050565b600060208201905081810360008301526125de818461258b565b905092915050565b6000819050919050565b6125f9816125e6565b811461260457600080fd5b50565b600081359050612616816125f0565b92915050565b6000602082840312156126325761263161246f565b5b600061264084828501612607565b91505092915050565b600073ffffffffffffffffffffffffffffffffffffffff82169050919050565b600061267482612649565b9050919050565b61268481612669565b82525050565b600060208201905061269f600083018461267b565b92915050565b6126ae81612669565b81146126b957600080fd5b50565b6000813590506126cb816126a5565b92915050565b600080604083850312156126e8576126e761246f565b5b60006126f6858286016126bc565b925050602061270785828601612607565b9150509250929050565b60008060006060848603121561272a5761272961246f565b5b6000612738868287016126bc565b9350506020612749868287016126bc565b925050604061275a86828701612607565b9150509250925092565b6000806040838503121561277b5761277a61246f565b5b600061278985828601612607565b925050602061279a85828601612607565b9150509250929050565b60006127af82612649565b9050919050565b6127bf816127a4565b82525050565b6127ce816125e6565b82525050565b600082825260208201905092915050565b60006127f082612534565b6127fa81856127d4565b935061280a818560208601612550565b6128138161257a565b840191505092915050565b600081519050919050565b600082825260208201905092915050565b6000819050602082019050919050565b600061285683836127e5565b905092915050565b6000602082019050919050565b60006128768261281e565b6128808185612829565b9350836020820285016128928561283a565b8060005b858110156128ce57848403895281516128af858261284a565b94506128ba8361285e565b925060208a01995050600181019050612896565b50829750879550505050505092915050565b6000610120830160008301516128f960008601826127b6565b50602083015161290c60208601826127b6565b50604083015161291f60408601826127c5565b50606083015161293260608601826127c5565b50608083015161294560808601826127c5565b5060a083015161295860a08601826127c5565b5060c083015161296b60c08601826127c5565b5060e083015184820360e086015261298382826127e5565b91505061010083015184820361010086015261299f828261286b565b9150508091505092915050565b600060208201905081810360008301526129c681846128e0565b905092915050565b600080604083850312156129e5576129e461246f565b5b60006129f385828601612607565b9250506020612a04858286016126bc565b9150509250929050565b612a17816125e6565b82525050565b6000602082019050612a326000830184612a0e565b92915050565b600060208284031215612a4e57612a4d61246f565b5b6000612a5c848285016126bc565b91505092915050565b600080fd5b600080fd5b7f4e487b7100000000000000000000000000000000000000000000000000000000600052604160045260246000fd5b612aa78261257a565b810181811067ffffffffffffffff82111715612ac657612ac5612a6f565b5b80604052505050565b6000612ad9612465565b9050612ae58282612a9e565b919050565b600067ffffffffffffffff821115612b0557612b04612a6f565b5b612b0e8261257a565b9050602081019050919050565b82818337600083830152505050565b6000612b3d612b3884612aea565b612acf565b905082815260208101848484011115612b5957612b58612a6a565b5b612b64848285612b1b565b509392505050565b600082601f830112612b8157612b80612a65565b5b8135612b91848260208601612b2a565b91505092915050565b600067ffffffffffffffff821115612bb557612bb4612a6f565b5b602082029050602081019050919050565b600080fd5b6000612bde612bd984612b9a565b612acf565b90508083825260208201905060208402830185811115612c0157612c00612bc6565b5b835b81811015612c4857803567ffffffffffffffff811115612c2657612c25612a65565b5b808601612c338982612b6c565b85526020850194505050602081019050612c03565b5050509392505050565b600082601f830112612c6757612c66612a65565b5b8135612c77848260208601612bcb565b91505092915050565b60008060008060008060008060008060006101608c8e031215612ca657612ca561246f565b5b6000612cb48e828f01612607565b9b50506020612cc58e828f016126bc565b9a50506040612cd68e828f016126bc565b9950506060612ce78e828f01612607565b9850506080612cf88e828f01612607565b97505060a0612d098e828f01612607565b96505060c0612d1a8e828f01612607565b95505060e0612d2b8e828f01612607565b9450506101008c013567ffffffffffffffff811115612d4d57612d4c612474565b5b612d598e828f01612b6c565b9350506101208c013567ffffffffffffffff811115612d7b57612d7a612474565b5b612d878e828f01612b6c565b9250506101408c013567ffffffffffffffff811115612da957612da8612474565b5b612db58e828f01612c52565b9150509295989b509295989b9093969950565b612dd1816124fe565b8114612ddc57600080fd5b50565b600081359050612dee81612dc8565b92915050565b60008060408385031215612e0b57612e0a61246f565b5b6000612e19858286016126bc565b9250506020612e2a85828601612ddf565b9150509250929050565b600067ffffffffffffffff821115612e4f57612e4e612a6f565b5b612e588261257a565b9050602081019050919050565b6000612e78612e7384612e34565b612acf565b905082815260208101848484011115612e9457612e93612a6a565b5b612e9f848285612b1b565b509392505050565b600082601f830112612ebc57612ebb612a65565b5b8135612ecc848260208601612e65565b91505092915050565b60008060008060808587031215612eef57612eee61246f565b5b6000612efd878288016126bc565b9450506020612f0e878288016126bc565b9350506040612f1f87828801612607565b925050606085013567ffffffffffffffff811115612f4057612f3f612474565b5b612f4c87828801612ea7565b91505092959194509250565b60008060408385031215612f6f57612f6e61246f565b5b6000612f7d858286016126bc565b9250506020612f8e858286016126bc565b9150509250929050565b7f4e487b7100000000000000000000000000000000000000000000000000000000600052602260045260246000fd5b60006002820490506001821680612fdf57607f821691505b602082108103612ff257612ff1612f98565b5b50919050565b600060608201905061300d600083018661267b565b61301a6020830185612a0e565b613027604083018461267b565b949350505050565b7f4f6e6c792072656e7465722063616e2063616c6c2074686973206d6574686f64600082015250565b600061306560208361253f565b91506130708261302f565b602082019050919050565b6000602082019050818103600083015261309481613058565b9050919050565b7f4e487b7100000000000000000000000000000000000000000000000000000000600052601160045260246000fd5b60006130d5826125e6565b91506130e0836125e6565b92508282019050808211156130f8576130f761309b565b5b92915050565b60008190508160005260206000209050919050565b60006020601f8301049050919050565b600082821b905092915050565b6000600883026131607fffffffffffffffffffffffffffffffffffffffffffffffffffffffffffffffff82613123565b61316a8683613123565b95508019841693508086168417925050509392505050565b6000819050919050565b60006131a76131a261319d846125e6565b613182565b6125e6565b9050919050565b6000819050919050565b6131c18361318c565b6131d56131cd826131ae565b848454613130565b825550505050565b600090565b6131ea6131dd565b6131f58184846131b8565b505050565b5b818110156132195761320e6000826131e2565b6001810190506131fb565b5050565b601f82111561325e5761322f816130fe565b61323884613113565b81016020851015613247578190505b61325b61325385613113565b8301826131fa565b50505b505050565b600082821c905092915050565b600061328160001984600802613263565b1980831691505092915050565b600061329a8383613270565b9150826002028217905092915050565b6132b382612534565b67ffffffffffffffff8111156132cc576132cb612a6f565b5b6132d68254612fc7565b6132e182828561321d565b600060209050601f8311600181146133145760008415613302578287015190505b61330c858261328e565b865550613374565b601f198416613322866130fe565b60005b8281101561334a57848901518255600182019150602085019450602081019050613325565b868310156133675784890151613363601f891682613270565b8355505b6001600288020188555050505b505050505050565b7f4e487b7100000000000000000000000000000000000000000000000000000000600052603260045260246000fd5b60006133b6826125e6565b91507fffffffffffffffffffffffffffffffffffffffffffffffffffffffffffffffff82036133e8576133e761309b565b5b600182019050919050565b7f4465706f736974206e6f7420656e6f7567680000000000000000000000000000600082015250565b600061342960128361253f565b9150613434826133f3565b602082019050919050565b600060208201905081810360008301526134588161341c565b9050919050565b600061346a826125e6565b9150613475836125e6565b925082820390508181111561348d5761348c61309b565b5b92915050565b60006134ae6134a96134a484612649565b613182565b612649565b9050919050565b60006134c082613493565b9050919050565b60006134d2826134b5565b9050919050565b6134e2816134c7565b82525050565b60006060820190506134fd600083018661267b565b61350a60208301856134d9565b6135176040830184612a0e565b949350505050565b600081905092915050565b600061353582612534565b61353f818561351f565b935061354f818560208601612550565b80840191505092915050565b6000613567828561352a565b9150613573828461352a565b91508190509392505050565b7f42616c616e6365206e6f7420656e6f7567680000000000000000000000000000600082015250565b60006135b560128361253f565b91506135c08261357f565b602082019050919050565b600060208201905081810360008301526135e4816135a8565b9050919050565b600081519050919050565b600082825260208201905092915050565b6000613612826135eb565b61361c81856135f6565b935061362c818560208601612550565b6136358161257a565b840191505092915050565b6000608082019050613655600083018761267b565b613662602083018661267b565b61366f6040830185612a0e565b81810360608301526136818184613607565b905095945050505050565b60008151905061369b816124a5565b92915050565b6000602082840312156136b7576136b661246f565b5b60006136c58482850161368c565b91505092915050565b60006040820190506136e3600083018561267b565b6136f06020830184612a0e565b9392505050565b7f4e487b7100000000000000000000000000000000000000000000000000000000600052601260045260246000fdfea26469706673582212209f95abc0b6c4648096ad1b405674bcea765d4b900d4ebbc296522421bb001a8a64736f6c63430008140033",
  "linkReferences": {},
  "deployedLinkReferences": {}
}