{
  "_format": "hh-sol-artifact-1",
  "contractName": "SmartContract",
  "sourceName": "contracts/SmartContract.sol",
  "abi": [
    {
      "inputs": [],
      "stateMutability": "nonpayable",
      "type": "constructor"
    },
    {
      "inputs": [
        {
          "internalType": "address",
          "name": "sender",
          "type": "address"
        },
        {
          "internalType": "uint256",
          "name": "tokenId",
          "type": "uint256"
        },
        {
          "internalType": "address",
          "name": "owner",
          "type": "address"
        }
      ],
      "name": "ERC721IncorrectOwner",
      "type": "error"
    },
    {
      "inputs": [
        {
          "internalType": "address",
          "name": "operator",
          "type": "address"
        },
        {
          "internalType": "uint256",
          "name": "tokenId",
          "type": "uint256"
        }
      ],
      "name": "ERC721InsufficientApproval",
      "type": "error"
    },
    {
      "inputs": [
        {
          "internalType": "address",
          "name": "approver",
          "type": "address"
        }
      ],
      "name": "ERC721InvalidApprover",
      "type": "error"
    },
    {
      "inputs": [
        {
          "internalType": "address",
          "name": "operator",
          "type": "address"
        }
      ],
      "name": "ERC721InvalidOperator",
      "type": "error"
    },
    {
      "inputs": [
        {
          "internalType": "address",
          "name": "owner",
          "type": "address"
        }
      ],
      "name": "ERC721InvalidOwner",
      "type": "error"
    },
    {
      "inputs": [
        {
          "internalType": "address",
          "name": "receiver",
          "type": "address"
        }
      ],
      "name": "ERC721InvalidReceiver",
      "type": "error"
    },
    {
      "inputs": [
        {
          "internalType": "address",
          "name": "sender",
          "type": "address"
        }
      ],
      "name": "ERC721InvalidSender",
      "type": "error"
    },
    {
      "inputs": [
        {
          "internalType": "uint256",
          "name": "tokenId",
          "type": "uint256"
        }
      ],
      "name": "ERC721NonexistentToken",
      "type": "error"
    },
    {
      "anonymous": false,
      "inputs": [
        {
          "indexed": true,
          "internalType": "address",
          "name": "owner",
          "type": "address"
        },
        {
          "indexed": true,
          "internalType": "address",
          "name": "approved",
          "type": "address"
        },
        {
          "indexed": true,
          "internalType": "uint256",
          "name": "tokenId",
          "type": "uint256"
        }
      ],
      "name": "Approval",
      "type": "event"
    },
    {
      "anonymous": false,
      "inputs": [
        {
          "indexed": true,
          "internalType": "address",
          "name": "owner",
          "type": "address"
        },
        {
          "indexed": true,
          "internalType": "address",
          "name": "operator",
          "type": "address"
        },
        {
          "indexed": false,
          "internalType": "bool",
          "name": "approved",
          "type": "bool"
        }
      ],
      "name": "ApprovalForAll",
      "type": "event"
    },
    {
      "anonymous": false,
      "inputs": [
        {
          "indexed": false,
          "internalType": "uint256",
          "name": "_fromTokenId",
          "type": "uint256"
        },
        {
          "indexed": false,
          "internalType": "uint256",
          "name": "_toTokenId",
          "type": "uint256"
        }
      ],
      "name": "BatchMetadataUpdate",
      "type": "event"
    },
    {
      "anonymous": false,
      "inputs": [
        {
          "indexed": false,
          "internalType": "uint256",
          "name": "_tokenId",
          "type": "uint256"
        }
      ],
      "name": "MetadataUpdate",
      "type": "event"
    },
    {
      "anonymous": false,
      "inputs": [
        {
          "indexed": true,
          "internalType": "address",
          "name": "from",
          "type": "address"
        },
        {
          "indexed": true,
          "internalType": "address",
          "name": "to",
          "type": "address"
        },
        {
          "indexed": true,
          "internalType": "uint256",
          "name": "tokenId",
          "type": "uint256"
        }
      ],
      "name": "Transfer",
      "type": "event"
    },
    {
      "stateMutability": "payable",
      "type": "fallback"
    },
    {
      "inputs": [
        {
          "internalType": "address",
          "name": "to",
          "type": "address"
        },
        {
          "internalType": "uint256",
          "name": "tokenId",
          "type": "uint256"
        }
      ],
      "name": "approve",
      "outputs": [],
      "stateMutability": "nonpayable",
      "type": "function"
    },
    {
      "inputs": [
        {
          "internalType": "address",
          "name": "owner",
          "type": "address"
        }
      ],
      "name": "balanceOf",
      "outputs": [
        {
          "internalType": "uint256",
          "name": "",
          "type": "uint256"
        }
      ],
      "stateMutability": "view",
      "type": "function"
    },
    {
      "inputs": [
        {
          "internalType": "address",
          "name": "_to",
          "type": "address"
        }
      ],
      "name": "close",
      "outputs": [],
      "stateMutability": "nonpayable",
      "type": "function"
    },
    {
      "inputs": [
        {
          "internalType": "uint256",
          "name": "id",
          "type": "uint256"
        }
      ],
      "name": "depositContract",
      "outputs": [],
      "stateMutability": "payable",
      "type": "function"
    },
    {
      "inputs": [
        {
          "internalType": "uint256",
          "name": "tokenId",
          "type": "uint256"
        }
      ],
      "name": "getApproved",
      "outputs": [
        {
          "internalType": "address",
          "name": "",
          "type": "address"
        }
      ],
      "stateMutability": "view",
      "type": "function"
    },
    {
      "inputs": [
        {
          "internalType": "uint256",
          "name": "id",
          "type": "uint256"
        }
      ],
      "name": "getContract",
      "outputs": [
        {
          "components": [
            {
              "internalType": "address payable",
              "name": "renter",
              "type": "address"
            },
            {
              "internalType": "address payable",
              "name": "seller",
              "type": "address"
            },
            {
              "internalType": "uint256",
              "name": "reId",
              "type": "uint256"
            },
            {
              "internalType": "uint256",
              "name": "rentCost",
              "type": "uint256"
            },
            {
              "internalType": "uint256",
              "name": "duration",
              "type": "uint256"
            },
            {
              "internalType": "string",
              "name": "urlContract",
              "type": "string"
            }
          ],
          "internalType": "struct SmartContract.ContractEntity",
          "name": "",
          "type": "tuple"
        }
      ],
      "stateMutability": "view",
      "type": "function"
    },
    {
      "inputs": [
        {
          "internalType": "uint256",
          "name": "scId",
          "type": "uint256"
        },
        {
          "internalType": "address",
          "name": "renterAddress",
          "type": "address"
        }
      ],
      "name": "getDepositContractByRenter",
      "outputs": [
        {
          "internalType": "uint256",
          "name": "",
          "type": "uint256"
        }
      ],
      "stateMutability": "view",
      "type": "function"
    },
    {
      "inputs": [],
      "name": "getbalanceOf",
      "outputs": [
        {
          "internalType": "uint256",
          "name": "",
          "type": "uint256"
        }
      ],
      "stateMutability": "view",
      "type": "function"
    },
    {
      "inputs": [
        {
          "internalType": "address",
          "name": "owner",
          "type": "address"
        },
        {
          "internalType": "address",
          "name": "operator",
          "type": "address"
        }
      ],
      "name": "isApprovedForAll",
      "outputs": [
        {
          "internalType": "bool",
          "name": "",
          "type": "bool"
        }
      ],
      "stateMutability": "view",
      "type": "function"
    },
    {
      "inputs": [
        {
          "internalType": "uint256",
          "name": "_newItemId",
          "type": "uint256"
        },
        {
          "internalType": "address",
          "name": "_renterAddress",
          "type": "address"
        },
        {
          "internalType": "address",
          "name": "_sellerAdsress",
          "type": "address"
        },
        {
          "internalType": "uint256",
          "name": "_reId",
          "type": "uint256"
        },
        {
          "internalType": "uint256",
          "name": "_rentCost",
          "type": "uint256"
        },
        {
          "internalType": "uint256",
          "name": "_duration",
          "type": "uint256"
        },
        {
          "internalType": "string",
          "name": "uri",
          "type": "string"
        }
      ],
      "name": "mint",
      "outputs": [],
      "stateMutability": "nonpayable",
      "type": "function"
    },
    {
      "inputs": [],
      "name": "name",
      "outputs": [
        {
          "internalType": "string",
          "name": "",
          "type": "string"
        }
      ],
      "stateMutability": "view",
      "type": "function"
    },
    {
      "inputs": [
        {
          "internalType": "uint256",
          "name": "tokenId",
          "type": "uint256"
        }
      ],
      "name": "ownerOf",
      "outputs": [
        {
          "internalType": "address",
          "name": "",
          "type": "address"
        }
      ],
      "stateMutability": "view",
      "type": "function"
    },
    {
      "inputs": [
        {
          "internalType": "uint256",
          "name": "scId",
          "type": "uint256"
        }
      ],
      "name": "payDepositToRenter",
      "outputs": [],
      "stateMutability": "nonpayable",
      "type": "function"
    },
    {
      "inputs": [
        {
          "internalType": "uint256",
          "name": "id",
          "type": "uint256"
        }
      ],
      "name": "payRentCost",
      "outputs": [],
      "stateMutability": "nonpayable",
      "type": "function"
    },
    {
      "inputs": [
        {
          "internalType": "uint256",
          "name": "_time",
          "type": "uint256"
        },
        {
          "internalType": "uint256",
          "name": "id",
          "type": "uint256"
        }
      ],
      "name": "renewal",
      "outputs": [],
      "stateMutability": "payable",
      "type": "function"
    },
    {
      "inputs": [
        {
          "internalType": "address",
          "name": "from",
          "type": "address"
        },
        {
          "internalType": "address",
          "name": "to",
          "type": "address"
        },
        {
          "internalType": "uint256",
          "name": "tokenId",
          "type": "uint256"
        }
      ],
      "name": "safeTransferFrom",
      "outputs": [],
      "stateMutability": "nonpayable",
      "type": "function"
    },
    {
      "inputs": [
        {
          "internalType": "address",
          "name": "from",
          "type": "address"
        },
        {
          "internalType": "address",
          "name": "to",
          "type": "address"
        },
        {
          "internalType": "uint256",
          "name": "tokenId",
          "type": "uint256"
        },
        {
          "internalType": "bytes",
          "name": "data",
          "type": "bytes"
        }
      ],
      "name": "safeTransferFrom",
      "outputs": [],
      "stateMutability": "nonpayable",
      "type": "function"
    },
    {
      "inputs": [
        {
          "internalType": "address",
          "name": "operator",
          "type": "address"
        },
        {
          "internalType": "bool",
          "name": "approved",
          "type": "bool"
        }
      ],
      "name": "setApprovalForAll",
      "outputs": [],
      "stateMutability": "nonpayable",
      "type": "function"
    },
    {
      "inputs": [
        {
          "internalType": "bytes4",
          "name": "interfaceId",
          "type": "bytes4"
        }
      ],
      "name": "supportsInterface",
      "outputs": [
        {
          "internalType": "bool",
          "name": "",
          "type": "bool"
        }
      ],
      "stateMutability": "view",
      "type": "function"
    },
    {
      "inputs": [],
      "name": "symbol",
      "outputs": [
        {
          "internalType": "string",
          "name": "",
          "type": "string"
        }
      ],
      "stateMutability": "view",
      "type": "function"
    },
    {
      "inputs": [
        {
          "internalType": "uint256",
          "name": "tokenId",
          "type": "uint256"
        }
      ],
      "name": "tokenURI",
      "outputs": [
        {
          "internalType": "string",
          "name": "",
          "type": "string"
        }
      ],
      "stateMutability": "view",
      "type": "function"
    },
    {
      "inputs": [
        {
          "internalType": "address",
          "name": "from",
          "type": "address"
        },
        {
          "internalType": "address",
          "name": "to",
          "type": "address"
        },
        {
          "internalType": "uint256",
          "name": "tokenId",
          "type": "uint256"
        }
      ],
      "name": "transferFrom",
      "outputs": [],
      "stateMutability": "nonpayable",
      "type": "function"
    },
    {
      "inputs": [
        {
          "internalType": "uint256",
          "name": "value",
          "type": "uint256"
        }
      ],
      "name": "withdrawPositRenter",
      "outputs": [],
      "stateMutability": "nonpayable",
      "type": "function"
    },
    {
      "stateMutability": "payable",
      "type": "receive"
    }
  ],
  "bytecode": "0x60806040523480156200001157600080fd5b506040518060400160405280600e81526020017f536d61727420436f6e74726163740000000000000000000000000000000000008152506040518060400160405280600281526020017f534300000000000000000000000000000000000000000000000000000000000081525081600090816200008f919062000324565b508060019081620000a1919062000324565b5050506200040b565b600081519050919050565b7f4e487b7100000000000000000000000000000000000000000000000000000000600052604160045260246000fd5b7f4e487b7100000000000000000000000000000000000000000000000000000000600052602260045260246000fd5b600060028204905060018216806200012c57607f821691505b602082108103620001425762000141620000e4565b5b50919050565b60008190508160005260206000209050919050565b60006020601f8301049050919050565b600082821b905092915050565b600060088302620001ac7fffffffffffffffffffffffffffffffffffffffffffffffffffffffffffffffff826200016d565b620001b886836200016d565b95508019841693508086168417925050509392505050565b6000819050919050565b6000819050919050565b600062000205620001ff620001f984620001d0565b620001da565b620001d0565b9050919050565b6000819050919050565b6200022183620001e4565b6200023962000230826200020c565b8484546200017a565b825550505050565b600090565b6200025062000241565b6200025d81848462000216565b505050565b5b8181101562000285576200027960008262000246565b60018101905062000263565b5050565b601f821115620002d4576200029e8162000148565b620002a9846200015d565b81016020851015620002b9578190505b620002d1620002c8856200015d565b83018262000262565b50505b505050565b600082821c905092915050565b6000620002f960001984600802620002d9565b1980831691505092915050565b6000620003148383620002e6565b9150826002028217905092915050565b6200032f82620000aa565b67ffffffffffffffff8111156200034b576200034a620000b5565b5b62000357825462000113565b6200036482828562000289565b600060209050601f8311600181146200039c576000841562000387578287015190505b62000393858262000306565b86555062000403565b601f198416620003ac8662000148565b60005b82811015620003d657848901518255600182019150602085019450602081019050620003af565b86831015620003f65784890151620003f2601f891682620002e6565b8355505b6001600288020188555050505b505050505050565b6139b7806200041b6000396000f3fe6080604052600436106101445760003560e01c806370a08231116100b6578063b991aa031161006f578063b991aa0314610514578063c74073a11461053d578063c87b56dd14610566578063e0ea9c34146105a3578063e54b0768146105cc578063e985e9c5146105f5576101a0565b806370a08231146104155780639529f0601461045257806395d89b411461047b5780639b845899146104a6578063a22cb465146104c2578063b88d4fde146104eb576101a0565b8063402a71d711610108578063402a71d7146102ee57806342842e0e146103195780636135281a146103425780636352211e1461035e5780636ebc8c861461039b5780636ef49dfc146103d8576101a0565b806301ffc9a7146101f757806306fdde0314610234578063081812fc1461025f578063095ea7b31461029c57806323b872dd146102c5576101a0565b366101a05734600960003373ffffffffffffffffffffffffffffffffffffffff1673ffffffffffffffffffffffffffffffffffffffff1681526020019081526020016000206000828254610198919061290d565b925050819055005b34600960003373ffffffffffffffffffffffffffffffffffffffff1673ffffffffffffffffffffffffffffffffffffffff16815260200190815260200160002060008282546101ef919061290d565b925050819055005b34801561020357600080fd5b5061021e600480360381019061021991906129ad565b610632565b60405161022b91906129f5565b60405180910390f35b34801561024057600080fd5b50610249610693565b6040516102569190612aa0565b60405180910390f35b34801561026b57600080fd5b5061028660048036038101906102819190612aee565b610725565b6040516102939190612b5c565b60405180910390f35b3480156102a857600080fd5b506102c360048036038101906102be9190612ba3565b610741565b005b3480156102d157600080fd5b506102ec60048036038101906102e79190612be3565b610757565b005b3480156102fa57600080fd5b50610303610859565b6040516103109190612c45565b60405180910390f35b34801561032557600080fd5b50610340600480360381019061033b9190612be3565b6108a0565b005b61035c60048036038101906103579190612c60565b6108c0565b005b34801561036a57600080fd5b5061038560048036038101906103809190612aee565b610997565b6040516103929190612b5c565b60405180910390f35b3480156103a757600080fd5b506103c260048036038101906103bd9190612aee565b6109a9565b6040516103cf9190612da3565b60405180910390f35b3480156103e457600080fd5b506103ff60048036038101906103fa9190612dc5565b610b38565b60405161040c9190612c45565b60405180910390f35b34801561042157600080fd5b5061043c60048036038101906104379190612e05565b610b93565b6040516104499190612c45565b60405180910390f35b34801561045e57600080fd5b5061047960048036038101906104749190612aee565b610c4d565b005b34801561048757600080fd5b50610490610f72565b60405161049d9190612aa0565b60405180910390f35b6104c060048036038101906104bb9190612aee565b611004565b005b3480156104ce57600080fd5b506104e960048036038101906104e49190612e5e565b611353565b005b3480156104f757600080fd5b50610512600480360381019061050d9190612fd3565b611369565b005b34801561052057600080fd5b5061053b60048036038101906105369190612aee565b611386565b005b34801561054957600080fd5b50610564600480360381019061055f9190612e05565b61159b565b005b34801561057257600080fd5b5061058d60048036038101906105889190612aee565b6115e5565b60405161059a9190612aa0565b60405180910390f35b3480156105af57600080fd5b506105ca60048036038101906105c59190612aee565b6116f8565b005b3480156105d857600080fd5b506105f360048036038101906105ee91906130f7565b61181a565b005b34801561060157600080fd5b5061061c600480360381019061061791906131b5565b6118f6565b60405161062991906129f5565b60405180910390f35b6000634906490660e01b7bffffffffffffffffffffffffffffffffffffffffffffffffffffffff1916827bffffffffffffffffffffffffffffffffffffffffffffffffffffffff1916148061068c575061068b8261198a565b5b9050919050565b6060600080546106a290613224565b80601f01602080910402602001604051908101604052809291908181526020018280546106ce90613224565b801561071b5780601f106106f05761010080835404028352916020019161071b565b820191906000526020600020905b8154815290600101906020018083116106fe57829003601f168201915b5050505050905090565b600061073082611a6c565b5061073a82611af4565b9050919050565b610753828261074e611b31565b611b39565b5050565b600073ffffffffffffffffffffffffffffffffffffffff168273ffffffffffffffffffffffffffffffffffffffff16036107c95760006040517f64a0ae920000000000000000000000000000000000000000000000000000000081526004016107c09190612b5c565b60405180910390fd5b60006107dd83836107d8611b31565b611b4b565b90508373ffffffffffffffffffffffffffffffffffffffff168173ffffffffffffffffffffffffffffffffffffffff1614610853578382826040517f64283d7b00000000000000000000000000000000000000000000000000000000815260040161084a93929190613255565b60405180910390fd5b50505050565b6000600960003373ffffffffffffffffffffffffffffffffffffffff1673ffffffffffffffffffffffffffffffffffffffff16815260200190815260200160002054905090565b6108bb83838360405180602001604052806000815250611369565b505050565b806007600082815260200190815260200160002060000160009054906101000a900473ffffffffffffffffffffffffffffffffffffffff1673ffffffffffffffffffffffffffffffffffffffff163373ffffffffffffffffffffffffffffffffffffffff1614610965576040517f08c379a000000000000000000000000000000000000000000000000000000000815260040161095c906132d8565b60405180910390fd5b8260076000848152602001908152602001600020600401600082825461098b919061290d565b92505081905550505050565b60006109a282611a6c565b9050919050565b6109b1612872565b6000600760008481526020019081526020016000206040518060c00160405290816000820160009054906101000a900473ffffffffffffffffffffffffffffffffffffffff1673ffffffffffffffffffffffffffffffffffffffff1673ffffffffffffffffffffffffffffffffffffffff1681526020016001820160009054906101000a900473ffffffffffffffffffffffffffffffffffffffff1673ffffffffffffffffffffffffffffffffffffffff1673ffffffffffffffffffffffffffffffffffffffff168152602001600282015481526020016003820154815260200160048201548152602001600582018054610aab90613224565b80601f0160208091040260200160405190810160405280929190818152602001828054610ad790613224565b8015610b245780601f10610af957610100808354040283529160200191610b24565b820191906000526020600020905b815481529060010190602001808311610b0757829003601f168201915b505050505081525050905080915050919050565b6000600860008373ffffffffffffffffffffffffffffffffffffffff1673ffffffffffffffffffffffffffffffffffffffff168152602001908152602001600020600084815260200190815260200160002054905092915050565b60008073ffffffffffffffffffffffffffffffffffffffff168273ffffffffffffffffffffffffffffffffffffffff1603610c065760006040517f89c62b64000000000000000000000000000000000000000000000000000000008152600401610bfd9190612b5c565b60405180910390fd5b600360008373ffffffffffffffffffffffffffffffffffffffff1673ffffffffffffffffffffffffffffffffffffffff168152602001908152602001600020549050919050565b6000600760008381526020019081526020016000206040518060c00160405290816000820160009054906101000a900473ffffffffffffffffffffffffffffffffffffffff1673ffffffffffffffffffffffffffffffffffffffff1673ffffffffffffffffffffffffffffffffffffffff1681526020016001820160009054906101000a900473ffffffffffffffffffffffffffffffffffffffff1673ffffffffffffffffffffffffffffffffffffffff1673ffffffffffffffffffffffffffffffffffffffff168152602001600282015481526020016003820154815260200160048201548152602001600582018054610d4790613224565b80601f0160208091040260200160405190810160405280929190818152602001828054610d7390613224565b8015610dc05780601f10610d9557610100808354040283529160200191610dc0565b820191906000526020600020905b815481529060010190602001808311610da357829003601f168201915b5050505050815250509050806060015160086000836000015173ffffffffffffffffffffffffffffffffffffffff1673ffffffffffffffffffffffffffffffffffffffff1681526020019081526020016000206000848152602001908152602001600020541015610e66576040517f08c379a0000000000000000000000000000000000000000000000000000000008152600401610e5d90613344565b60405180910390fd5b60086000826000015173ffffffffffffffffffffffffffffffffffffffff1673ffffffffffffffffffffffffffffffffffffffff16815260200190815260200160002060008381526020019081526020016000205460096000836000015173ffffffffffffffffffffffffffffffffffffffff1673ffffffffffffffffffffffffffffffffffffffff1681526020019081526020016000206000828254610f0d919061290d565b92505081905550600060086000836000015173ffffffffffffffffffffffffffffffffffffffff1673ffffffffffffffffffffffffffffffffffffffff1681526020019081526020016000206000848152602001908152602001600020819055505050565b606060018054610f8190613224565b80601f0160208091040260200160405190810160405280929190818152602001828054610fad90613224565b8015610ffa5780601f10610fcf57610100808354040283529160200191610ffa565b820191906000526020600020905b815481529060010190602001808311610fdd57829003601f168201915b5050505050905090565b806007600082815260200190815260200160002060000160009054906101000a900473ffffffffffffffffffffffffffffffffffffffff1673ffffffffffffffffffffffffffffffffffffffff163373ffffffffffffffffffffffffffffffffffffffff16146110a9576040517f08c379a00000000000000000000000000000000000000000000000000000000081526004016110a0906132d8565b60405180910390fd5b6000600860003373ffffffffffffffffffffffffffffffffffffffff1673ffffffffffffffffffffffffffffffffffffffff168152602001908152602001600020600084815260200190815260200160002054116112f857600760008381526020019081526020016000206003015434101561115a576040517f08c379a0000000000000000000000000000000000000000000000000000000008152600401611151906133b0565b60405180910390fd5b6007600083815260200190815260200160002060030154600860003373ffffffffffffffffffffffffffffffffffffffff1673ffffffffffffffffffffffffffffffffffffffff168152602001908152602001600020600084815260200190815260200160002060008282546111d0919061290d565b925050819055506007600083815260200190815260200160002060030154346111f991906133d0565b600960003373ffffffffffffffffffffffffffffffffffffffff1673ffffffffffffffffffffffffffffffffffffffff1681526020019081526020016000206000828254611247919061290d565b925050819055503073ffffffffffffffffffffffffffffffffffffffff166323b872dd306007600086815260200190815260200160002060000160009054906101000a900473ffffffffffffffffffffffffffffffffffffffff16856040518463ffffffff1660e01b81526004016112c193929190613463565b600060405180830381600087803b1580156112db57600080fd5b505af11580156112ef573d6000803e3d6000fd5b5050505061134f565b34600960003373ffffffffffffffffffffffffffffffffffffffff1673ffffffffffffffffffffffffffffffffffffffff1681526020019081526020016000206000828254611347919061290d565b925050819055505b5050565b61136561135e611b31565b8383611d65565b5050565b611374848484610757565b61138084848484611ed4565b50505050565b6007600082815260200190815260200160002060030154600960006007600085815260200190815260200160002060000160009054906101000a900473ffffffffffffffffffffffffffffffffffffffff1673ffffffffffffffffffffffffffffffffffffffff1673ffffffffffffffffffffffffffffffffffffffff168152602001908152602001600020541015611454576040517f08c379a000000000000000000000000000000000000000000000000000000000815260040161144b906134e6565b60405180910390fd5b6007600082815260200190815260200160002060030154600960006007600085815260200190815260200160002060000160009054906101000a900473ffffffffffffffffffffffffffffffffffffffff1673ffffffffffffffffffffffffffffffffffffffff1673ffffffffffffffffffffffffffffffffffffffff16815260200190815260200160002060008282546114ef91906133d0565b925050819055506007600082815260200190815260200160002060030154600960006007600085815260200190815260200160002060010160009054906101000a900473ffffffffffffffffffffffffffffffffffffffff1673ffffffffffffffffffffffffffffffffffffffff1673ffffffffffffffffffffffffffffffffffffffff1681526020019081526020016000206000828254611591919061290d565b9250508190555050565b8073ffffffffffffffffffffffffffffffffffffffff166108fc479081150290604051600060405180830381858888f193505050501580156115e1573d6000803e3d6000fd5b5050565b60606115f082611a6c565b50600060066000848152602001908152602001600020805461161190613224565b80601f016020809104026020016040519081016040528092919081815260200182805461163d90613224565b801561168a5780601f1061165f5761010080835404028352916020019161168a565b820191906000526020600020905b81548152906001019060200180831161166d57829003601f168201915b50505050509050600061169b61208b565b905060008151036116b05781925050506116f3565b6000825111156116e55780826040516020016116cd929190613542565b604051602081830303815290604052925050506116f3565b6116ee846120a2565b925050505b919050565b600960003373ffffffffffffffffffffffffffffffffffffffff1673ffffffffffffffffffffffffffffffffffffffff1681526020019081526020016000205481111561177a576040517f08c379a0000000000000000000000000000000000000000000000000000000008152600401611771906135b2565b60405180910390fd5b3373ffffffffffffffffffffffffffffffffffffffff166108fc829081150290604051600060405180830381858888f193505050501580156117c0573d6000803e3d6000fd5b5080600960003373ffffffffffffffffffffffffffffffffffffffff1673ffffffffffffffffffffffffffffffffffffffff168152602001908152602001600020600082825461181091906133d0565b9250508190555050565b6000879050611829308261210b565b6118338183612204565b6000600760008a81526020019081526020016000209050878160000160006101000a81548173ffffffffffffffffffffffffffffffffffffffff021916908373ffffffffffffffffffffffffffffffffffffffff160217905550868160010160006101000a81548173ffffffffffffffffffffffffffffffffffffffff021916908373ffffffffffffffffffffffffffffffffffffffff160217905550858160020181905550848160030181905550838160040181905550505050505050505050565b6000600560008473ffffffffffffffffffffffffffffffffffffffff1673ffffffffffffffffffffffffffffffffffffffff16815260200190815260200160002060008373ffffffffffffffffffffffffffffffffffffffff1673ffffffffffffffffffffffffffffffffffffffff16815260200190815260200160002060009054906101000a900460ff16905092915050565b60007f80ac58cd000000000000000000000000000000000000000000000000000000007bffffffffffffffffffffffffffffffffffffffffffffffffffffffff1916827bffffffffffffffffffffffffffffffffffffffffffffffffffffffff19161480611a5557507f5b5e139f000000000000000000000000000000000000000000000000000000007bffffffffffffffffffffffffffffffffffffffffffffffffffffffff1916827bffffffffffffffffffffffffffffffffffffffffffffffffffffffff1916145b80611a655750611a6482612260565b5b9050919050565b600080611a78836122ca565b9050600073ffffffffffffffffffffffffffffffffffffffff168173ffffffffffffffffffffffffffffffffffffffff1603611aeb57826040517f7e273289000000000000000000000000000000000000000000000000000000008152600401611ae29190612c45565b60405180910390fd5b80915050919050565b60006004600083815260200190815260200160002060009054906101000a900473ffffffffffffffffffffffffffffffffffffffff169050919050565b600033905090565b611b468383836001612307565b505050565b600080611b57846122ca565b9050600073ffffffffffffffffffffffffffffffffffffffff168373ffffffffffffffffffffffffffffffffffffffff1614611b9957611b988184866124cc565b5b600073ffffffffffffffffffffffffffffffffffffffff168173ffffffffffffffffffffffffffffffffffffffff1614611c2a57611bdb600085600080612307565b6001600360008373ffffffffffffffffffffffffffffffffffffffff1673ffffffffffffffffffffffffffffffffffffffff168152602001908152602001600020600082825403925050819055505b600073ffffffffffffffffffffffffffffffffffffffff168573ffffffffffffffffffffffffffffffffffffffff1614611cad576001600360008773ffffffffffffffffffffffffffffffffffffffff1673ffffffffffffffffffffffffffffffffffffffff168152602001908152602001600020600082825401925050819055505b846002600086815260200190815260200160002060006101000a81548173ffffffffffffffffffffffffffffffffffffffff021916908373ffffffffffffffffffffffffffffffffffffffff160217905550838573ffffffffffffffffffffffffffffffffffffffff168273ffffffffffffffffffffffffffffffffffffffff167fddf252ad1be2c89b69c2b068fc378daa952ba7f163c4a11628f55a4df523b3ef60405160405180910390a4809150509392505050565b600073ffffffffffffffffffffffffffffffffffffffff168273ffffffffffffffffffffffffffffffffffffffff1603611dd657816040517f5b08ba18000000000000000000000000000000000000000000000000000000008152600401611dcd9190612b5c565b60405180910390fd5b80600560008573ffffffffffffffffffffffffffffffffffffffff1673ffffffffffffffffffffffffffffffffffffffff16815260200190815260200160002060008473ffffffffffffffffffffffffffffffffffffffff1673ffffffffffffffffffffffffffffffffffffffff16815260200190815260200160002060006101000a81548160ff0219169083151502179055508173ffffffffffffffffffffffffffffffffffffffff168373ffffffffffffffffffffffffffffffffffffffff167f17307eab39ab6107e8899845ad3d59bd9653f200f220920489ca2b5937696c3183604051611ec791906129f5565b60405180910390a3505050565b60008373ffffffffffffffffffffffffffffffffffffffff163b1115612085578273ffffffffffffffffffffffffffffffffffffffff1663150b7a02611f18611b31565b8685856040518563ffffffff1660e01b8152600401611f3a9493929190613627565b6020604051808303816000875af1925050508015611f7657506040513d601f19601f82011682018060405250810190611f739190613688565b60015b611ffa573d8060008114611fa6576040519150601f19603f3d011682016040523d82523d6000602084013e611fab565b606091505b506000815103611ff257836040517f64a0ae92000000000000000000000000000000000000000000000000000000008152600401611fe99190612b5c565b60405180910390fd5b805181602001fd5b63150b7a0260e01b7bffffffffffffffffffffffffffffffffffffffffffffffffffffffff1916817bffffffffffffffffffffffffffffffffffffffffffffffffffffffff19161461208357836040517f64a0ae9200000000000000000000000000000000000000000000000000000000815260040161207a9190612b5c565b60405180910390fd5b505b50505050565b606060405180602001604052806000815250905090565b60606120ad82611a6c565b5060006120b861208b565b905060008151116120d85760405180602001604052806000815250612103565b806120e284612590565b6040516020016120f3929190613542565b6040516020818303038152906040525b915050919050565b600073ffffffffffffffffffffffffffffffffffffffff168273ffffffffffffffffffffffffffffffffffffffff160361217d5760006040517f64a0ae920000000000000000000000000000000000000000000000000000000081526004016121749190612b5c565b60405180910390fd5b600061218b83836000611b4b565b9050600073ffffffffffffffffffffffffffffffffffffffff168173ffffffffffffffffffffffffffffffffffffffff16146121ff5760006040517f73c6ac6e0000000000000000000000000000000000000000000000000000000081526004016121f69190612b5c565b60405180910390fd5b505050565b806006600084815260200190815260200160002090816122249190613857565b507ff8e1a15aba9398e019f0b49df1a4fde98ee17ae345cb5f6b5e2c27f5033e8ce7826040516122549190612c45565b60405180910390a15050565b60007f01ffc9a7000000000000000000000000000000000000000000000000000000007bffffffffffffffffffffffffffffffffffffffffffffffffffffffff1916827bffffffffffffffffffffffffffffffffffffffffffffffffffffffff1916149050919050565b60006002600083815260200190815260200160002060009054906101000a900473ffffffffffffffffffffffffffffffffffffffff169050919050565b80806123405750600073ffffffffffffffffffffffffffffffffffffffff168273ffffffffffffffffffffffffffffffffffffffff1614155b1561247457600061235084611a6c565b9050600073ffffffffffffffffffffffffffffffffffffffff168373ffffffffffffffffffffffffffffffffffffffff16141580156123bb57508273ffffffffffffffffffffffffffffffffffffffff168173ffffffffffffffffffffffffffffffffffffffff1614155b80156123ce57506123cc81846118f6565b155b1561241057826040517fa9fbf51f0000000000000000000000000000000000000000000000000000000081526004016124079190612b5c565b60405180910390fd5b811561247257838573ffffffffffffffffffffffffffffffffffffffff168273ffffffffffffffffffffffffffffffffffffffff167f8c5be1e5ebec7d5bd14f71427d1e84f3dd0314c0f7b2291e5b200ac8c7c3b92560405160405180910390a45b505b836004600085815260200190815260200160002060006101000a81548173ffffffffffffffffffffffffffffffffffffffff021916908373ffffffffffffffffffffffffffffffffffffffff16021790555050505050565b6124d783838361265e565b61258b57600073ffffffffffffffffffffffffffffffffffffffff168373ffffffffffffffffffffffffffffffffffffffff160361254c57806040517f7e2732890000000000000000000000000000000000000000000000000000000081526004016125439190612c45565b60405180910390fd5b81816040517f177e802f000000000000000000000000000000000000000000000000000000008152600401612582929190613929565b60405180910390fd5b505050565b60606000600161259f8461271f565b01905060008167ffffffffffffffff8111156125be576125bd612ea8565b5b6040519080825280601f01601f1916602001820160405280156125f05781602001600182028036833780820191505090505b509050600082602001820190505b600115612653578080600190039150507f3031323334353637383961626364656600000000000000000000000000000000600a86061a8153600a858161264757612646613952565b5b049450600085036125fe575b819350505050919050565b60008073ffffffffffffffffffffffffffffffffffffffff168373ffffffffffffffffffffffffffffffffffffffff161415801561271657508273ffffffffffffffffffffffffffffffffffffffff168473ffffffffffffffffffffffffffffffffffffffff1614806126d757506126d684846118f6565b5b8061271557508273ffffffffffffffffffffffffffffffffffffffff166126fd83611af4565b73ffffffffffffffffffffffffffffffffffffffff16145b5b90509392505050565b600080600090507a184f03e93ff9f4daa797ed6e38ed64bf6a1f010000000000000000831061277d577a184f03e93ff9f4daa797ed6e38ed64bf6a1f010000000000000000838161277357612772613952565b5b0492506040810190505b6d04ee2d6d415b85acef810000000083106127ba576d04ee2d6d415b85acef810000000083816127b0576127af613952565b5b0492506020810190505b662386f26fc1000083106127e957662386f26fc1000083816127df576127de613952565b5b0492506010810190505b6305f5e1008310612812576305f5e100838161280857612807613952565b5b0492506008810190505b612710831061283757612710838161282d5761282c613952565b5b0492506004810190505b6064831061285a57606483816128505761284f613952565b5b0492506002810190505b600a8310612869576001810190505b80915050919050565b6040518060c00160405280600073ffffffffffffffffffffffffffffffffffffffff168152602001600073ffffffffffffffffffffffffffffffffffffffff168152602001600081526020016000815260200160008152602001606081525090565b6000819050919050565b7f4e487b7100000000000000000000000000000000000000000000000000000000600052601160045260246000fd5b6000612918826128d4565b9150612923836128d4565b925082820190508082111561293b5761293a6128de565b5b92915050565b6000604051905090565b600080fd5b600080fd5b60007fffffffff0000000000000000000000000000000000000000000000000000000082169050919050565b61298a81612955565b811461299557600080fd5b50565b6000813590506129a781612981565b92915050565b6000602082840312156129c3576129c261294b565b5b60006129d184828501612998565b91505092915050565b60008115159050919050565b6129ef816129da565b82525050565b6000602082019050612a0a60008301846129e6565b92915050565b600081519050919050565b600082825260208201905092915050565b60005b83811015612a4a578082015181840152602081019050612a2f565b60008484015250505050565b6000601f19601f8301169050919050565b6000612a7282612a10565b612a7c8185612a1b565b9350612a8c818560208601612a2c565b612a9581612a56565b840191505092915050565b60006020820190508181036000830152612aba8184612a67565b905092915050565b612acb816128d4565b8114612ad657600080fd5b50565b600081359050612ae881612ac2565b92915050565b600060208284031215612b0457612b0361294b565b5b6000612b1284828501612ad9565b91505092915050565b600073ffffffffffffffffffffffffffffffffffffffff82169050919050565b6000612b4682612b1b565b9050919050565b612b5681612b3b565b82525050565b6000602082019050612b716000830184612b4d565b92915050565b612b8081612b3b565b8114612b8b57600080fd5b50565b600081359050612b9d81612b77565b92915050565b60008060408385031215612bba57612bb961294b565b5b6000612bc885828601612b8e565b9250506020612bd985828601612ad9565b9150509250929050565b600080600060608486031215612bfc57612bfb61294b565b5b6000612c0a86828701612b8e565b9350506020612c1b86828701612b8e565b9250506040612c2c86828701612ad9565b9150509250925092565b612c3f816128d4565b82525050565b6000602082019050612c5a6000830184612c36565b92915050565b60008060408385031215612c7757612c7661294b565b5b6000612c8585828601612ad9565b9250506020612c9685828601612ad9565b9150509250929050565b6000612cab82612b1b565b9050919050565b612cbb81612ca0565b82525050565b612cca816128d4565b82525050565b600082825260208201905092915050565b6000612cec82612a10565b612cf68185612cd0565b9350612d06818560208601612a2c565b612d0f81612a56565b840191505092915050565b600060c083016000830151612d326000860182612cb2565b506020830151612d456020860182612cb2565b506040830151612d586040860182612cc1565b506060830151612d6b6060860182612cc1565b506080830151612d7e6080860182612cc1565b5060a083015184820360a0860152612d968282612ce1565b9150508091505092915050565b60006020820190508181036000830152612dbd8184612d1a565b905092915050565b60008060408385031215612ddc57612ddb61294b565b5b6000612dea85828601612ad9565b9250506020612dfb85828601612b8e565b9150509250929050565b600060208284031215612e1b57612e1a61294b565b5b6000612e2984828501612b8e565b91505092915050565b612e3b816129da565b8114612e4657600080fd5b50565b600081359050612e5881612e32565b92915050565b60008060408385031215612e7557612e7461294b565b5b6000612e8385828601612b8e565b9250506020612e9485828601612e49565b9150509250929050565b600080fd5b600080fd5b7f4e487b7100000000000000000000000000000000000000000000000000000000600052604160045260246000fd5b612ee082612a56565b810181811067ffffffffffffffff82111715612eff57612efe612ea8565b5b80604052505050565b6000612f12612941565b9050612f1e8282612ed7565b919050565b600067ffffffffffffffff821115612f3e57612f3d612ea8565b5b612f4782612a56565b9050602081019050919050565b82818337600083830152505050565b6000612f76612f7184612f23565b612f08565b905082815260208101848484011115612f9257612f91612ea3565b5b612f9d848285612f54565b509392505050565b600082601f830112612fba57612fb9612e9e565b5b8135612fca848260208601612f63565b91505092915050565b60008060008060808587031215612fed57612fec61294b565b5b6000612ffb87828801612b8e565b945050602061300c87828801612b8e565b935050604061301d87828801612ad9565b925050606085013567ffffffffffffffff81111561303e5761303d612950565b5b61304a87828801612fa5565b91505092959194509250565b600067ffffffffffffffff82111561307157613070612ea8565b5b61307a82612a56565b9050602081019050919050565b600061309a61309584613056565b612f08565b9050828152602081018484840111156130b6576130b5612ea3565b5b6130c1848285612f54565b509392505050565b600082601f8301126130de576130dd612e9e565b5b81356130ee848260208601613087565b91505092915050565b600080600080600080600060e0888a0312156131165761311561294b565b5b60006131248a828b01612ad9565b97505060206131358a828b01612b8e565b96505060406131468a828b01612b8e565b95505060606131578a828b01612ad9565b94505060806131688a828b01612ad9565b93505060a06131798a828b01612ad9565b92505060c088013567ffffffffffffffff81111561319a57613199612950565b5b6131a68a828b016130c9565b91505092959891949750929550565b600080604083850312156131cc576131cb61294b565b5b60006131da85828601612b8e565b92505060206131eb85828601612b8e565b9150509250929050565b7f4e487b7100000000000000000000000000000000000000000000000000000000600052602260045260246000fd5b6000600282049050600182168061323c57607f821691505b60208210810361324f5761324e6131f5565b5b50919050565b600060608201905061326a6000830186612b4d565b6132776020830185612c36565b6132846040830184612b4d565b949350505050565b7f4f6e6c792072656e7465722063616e2063616c6c2074686973206d6574686f64600082015250565b60006132c2602083612a1b565b91506132cd8261328c565b602082019050919050565b600060208201905081810360008301526132f1816132b5565b9050919050565b7f4465706f73697420686173206265656e2077697468647261776e000000000000600082015250565b600061332e601a83612a1b565b9150613339826132f8565b602082019050919050565b6000602082019050818103600083015261335d81613321565b9050919050565b7f4465706f736974206e6f7420656e6f7567680000000000000000000000000000600082015250565b600061339a601283612a1b565b91506133a582613364565b602082019050919050565b600060208201905081810360008301526133c98161338d565b9050919050565b60006133db826128d4565b91506133e6836128d4565b92508282039050818111156133fe576133fd6128de565b5b92915050565b6000819050919050565b600061342961342461341f84612b1b565b613404565b612b1b565b9050919050565b600061343b8261340e565b9050919050565b600061344d82613430565b9050919050565b61345d81613442565b82525050565b60006060820190506134786000830186612b4d565b6134856020830185613454565b6134926040830184612c36565b949350505050565b7f42616c616e636572206e6f7420656e6f75676874000000000000000000000000600082015250565b60006134d0601483612a1b565b91506134db8261349a565b602082019050919050565b600060208201905081810360008301526134ff816134c3565b9050919050565b600081905092915050565b600061351c82612a10565b6135268185613506565b9350613536818560208601612a2c565b80840191505092915050565b600061354e8285613511565b915061355a8284613511565b91508190509392505050565b7f42616c616e6365206e6f7420656e6f7567680000000000000000000000000000600082015250565b600061359c601283612a1b565b91506135a782613566565b602082019050919050565b600060208201905081810360008301526135cb8161358f565b9050919050565b600081519050919050565b600082825260208201905092915050565b60006135f9826135d2565b61360381856135dd565b9350613613818560208601612a2c565b61361c81612a56565b840191505092915050565b600060808201905061363c6000830187612b4d565b6136496020830186612b4d565b6136566040830185612c36565b818103606083015261366881846135ee565b905095945050505050565b60008151905061368281612981565b92915050565b60006020828403121561369e5761369d61294b565b5b60006136ac84828501613673565b91505092915050565b60008190508160005260206000209050919050565b60006020601f8301049050919050565b600082821b905092915050565b6000600883026137177fffffffffffffffffffffffffffffffffffffffffffffffffffffffffffffffff826136da565b61372186836136da565b95508019841693508086168417925050509392505050565b600061375461374f61374a846128d4565b613404565b6128d4565b9050919050565b6000819050919050565b61376e83613739565b61378261377a8261375b565b8484546136e7565b825550505050565b600090565b61379761378a565b6137a2818484613765565b505050565b5b818110156137c6576137bb60008261378f565b6001810190506137a8565b5050565b601f82111561380b576137dc816136b5565b6137e5846136ca565b810160208510156137f4578190505b613808613800856136ca565b8301826137a7565b50505b505050565b600082821c905092915050565b600061382e60001984600802613810565b1980831691505092915050565b6000613847838361381d565b9150826002028217905092915050565b61386082612a10565b67ffffffffffffffff81111561387957613878612ea8565b5b6138838254613224565b61388e8282856137ca565b600060209050601f8311600181146138c157600084156138af578287015190505b6138b9858261383b565b865550613921565b601f1984166138cf866136b5565b60005b828110156138f7578489015182556001820191506020850194506020810190506138d2565b868310156139145784890151613910601f89168261381d565b8355505b6001600288020188555050505b505050505050565b600060408201905061393e6000830185612b4d565b61394b6020830184612c36565b9392505050565b7f4e487b7100000000000000000000000000000000000000000000000000000000600052601260045260246000fdfea26469706673582212202fd5acc77c842a2641e065f54775ebb297d5cac92f910ac63ad51cd663fb5a9264736f6c63430008140033",
  "linkReferences": {},
  "deployedLinkReferences": {}
}